{
  "_format": "hh-sol-artifact-1",
  "contractName": "HypePoolUpgradeable",
  "sourceName": "contracts/upgradeable/HypePoolUpgradeable.sol",
  "abi": [
    {
      "inputs": [],
      "stateMutability": "nonpayable",
      "type": "constructor"
    },
    {
      "anonymous": false,
      "inputs": [
        {
          "indexed": false,
          "internalType": "uint8",
          "name": "version",
          "type": "uint8"
        }
      ],
      "name": "Initialized",
      "type": "event"
    },
    {
      "anonymous": false,
      "inputs": [
        {
          "indexed": true,
          "internalType": "address",
          "name": "previousOwner",
          "type": "address"
        },
        {
          "indexed": true,
          "internalType": "address",
          "name": "newOwner",
          "type": "address"
        }
      ],
      "name": "OwnershipTransferred",
      "type": "event"
    },
    {
      "anonymous": false,
      "inputs": [
        {
          "indexed": false,
          "internalType": "address",
          "name": "account",
          "type": "address"
        }
      ],
      "name": "Paused",
      "type": "event"
    },
    {
      "anonymous": false,
      "inputs": [
        {
          "indexed": false,
          "internalType": "uint256",
          "name": "poolId",
          "type": "uint256"
        },
        {
          "indexed": false,
          "internalType": "address",
          "name": "activator",
          "type": "address"
        }
      ],
      "name": "PoolActivated",
      "type": "event"
    },
    {
      "anonymous": false,
      "inputs": [
        {
          "indexed": false,
          "internalType": "uint256",
          "name": "poolId",
          "type": "uint256"
        },
        {
          "indexed": false,
          "internalType": "address",
          "name": "creator",
          "type": "address"
        },
        {
          "indexed": false,
          "internalType": "string",
          "name": "uri",
          "type": "string"
        },
        {
          "indexed": false,
          "internalType": "bool",
          "name": "active",
          "type": "bool"
        },
        {
          "indexed": false,
          "internalType": "string",
          "name": "title",
          "type": "string"
        },
        {
          "indexed": false,
          "internalType": "string",
          "name": "projectName",
          "type": "string"
        },
        {
          "indexed": false,
          "internalType": "string",
          "name": "tokenName",
          "type": "string"
        },
        {
          "indexed": false,
          "internalType": "string",
          "name": "word",
          "type": "string"
        },
        {
          "indexed": false,
          "internalType": "uint256",
          "name": "cap",
          "type": "uint256"
        },
        {
          "indexed": false,
          "internalType": "address",
          "name": "tokenAddress",
          "type": "address"
        },
        {
          "indexed": false,
          "internalType": "uint256",
          "name": "network",
          "type": "uint256"
        },
        {
          "indexed": false,
          "internalType": "uint256",
          "name": "minReward",
          "type": "uint256"
        },
        {
          "indexed": false,
          "internalType": "uint256",
          "name": "impressionReward",
          "type": "uint256"
        },
        {
          "indexed": false,
          "internalType": "uint256",
          "name": "endDate",
          "type": "uint256"
        }
      ],
      "name": "PoolCreated",
      "type": "event"
    },
    {
      "anonymous": false,
      "inputs": [
        {
          "indexed": false,
          "internalType": "uint256",
          "name": "poolId",
          "type": "uint256"
        },
        {
          "indexed": false,
          "internalType": "string",
          "name": "uri",
          "type": "string"
        }
      ],
      "name": "PoolUriSet",
      "type": "event"
    },
    {
      "anonymous": false,
      "inputs": [
        {
          "indexed": false,
          "internalType": "address",
          "name": "account",
          "type": "address"
        }
      ],
      "name": "Unpaused",
      "type": "event"
    },
    {
      "inputs": [
        {
          "internalType": "uint256",
          "name": "id",
          "type": "uint256"
        }
      ],
      "name": "activatePool",
      "outputs": [],
      "stateMutability": "nonpayable",
      "type": "function"
    },
    {
      "inputs": [
        {
          "internalType": "string",
          "name": "uri",
          "type": "string"
        },
        {
          "components": [
            {
              "internalType": "string",
              "name": "title",
              "type": "string"
            },
            {
              "internalType": "string",
              "name": "projectName",
              "type": "string"
            },
            {
              "internalType": "string",
              "name": "tokenName",
              "type": "string"
            },
            {
              "internalType": "string",
              "name": "word",
              "type": "string"
            }
          ],
          "internalType": "struct IHypePool.Details",
          "name": "details",
          "type": "tuple"
        },
        {
          "components": [
            {
              "internalType": "uint256",
              "name": "network",
              "type": "uint256"
            },
            {
              "internalType": "address",
              "name": "tokenAddress",
              "type": "address"
            },
            {
              "internalType": "uint256",
              "name": "minReward",
              "type": "uint256"
            },
            {
              "internalType": "uint256",
              "name": "impressionReward",
              "type": "uint256"
            },
            {
              "internalType": "uint256",
              "name": "cap",
              "type": "uint256"
            },
            {
              "internalType": "uint256",
              "name": "endDate",
              "type": "uint256"
            }
          ],
          "internalType": "struct IHypePool.Rewards",
          "name": "rewards",
          "type": "tuple"
        }
      ],
      "name": "createPool",
      "outputs": [
        {
          "components": [
            {
              "internalType": "uint256",
              "name": "id",
              "type": "uint256"
            },
            {
              "internalType": "address",
              "name": "creator",
              "type": "address"
            },
            {
              "internalType": "bool",
              "name": "active",
              "type": "bool"
            },
            {
              "components": [
                {
                  "internalType": "string",
                  "name": "title",
                  "type": "string"
                },
                {
                  "internalType": "string",
                  "name": "projectName",
                  "type": "string"
                },
                {
                  "internalType": "string",
                  "name": "tokenName",
                  "type": "string"
                },
                {
                  "internalType": "string",
                  "name": "word",
                  "type": "string"
                }
              ],
              "internalType": "struct IHypePool.Details",
              "name": "details",
              "type": "tuple"
            },
            {
              "components": [
                {
                  "internalType": "uint256",
                  "name": "network",
                  "type": "uint256"
                },
                {
                  "internalType": "address",
                  "name": "tokenAddress",
                  "type": "address"
                },
                {
                  "internalType": "uint256",
                  "name": "minReward",
                  "type": "uint256"
                },
                {
                  "internalType": "uint256",
                  "name": "impressionReward",
                  "type": "uint256"
                },
                {
                  "internalType": "uint256",
                  "name": "cap",
                  "type": "uint256"
                },
                {
                  "internalType": "uint256",
                  "name": "endDate",
                  "type": "uint256"
                }
              ],
              "internalType": "struct IHypePool.Rewards",
              "name": "rewards",
              "type": "tuple"
            }
          ],
          "internalType": "struct IHypePool.HypePool",
          "name": "",
          "type": "tuple"
        }
      ],
      "stateMutability": "nonpayable",
      "type": "function"
    },
    {
      "inputs": [],
      "name": "getCurrentIndex",
      "outputs": [
        {
          "internalType": "uint256",
          "name": "",
          "type": "uint256"
        }
      ],
      "stateMutability": "view",
      "type": "function"
    },
    {
      "inputs": [
        {
          "internalType": "uint256",
          "name": "tokenId",
          "type": "uint256"
        }
      ],
      "name": "getPool",
      "outputs": [
        {
          "components": [
            {
              "internalType": "uint256",
              "name": "id",
              "type": "uint256"
            },
            {
              "internalType": "address",
              "name": "creator",
              "type": "address"
            },
            {
              "internalType": "bool",
              "name": "active",
              "type": "bool"
            },
            {
              "components": [
                {
                  "internalType": "string",
                  "name": "title",
                  "type": "string"
                },
                {
                  "internalType": "string",
                  "name": "projectName",
                  "type": "string"
                },
                {
                  "internalType": "string",
                  "name": "tokenName",
                  "type": "string"
                },
                {
                  "internalType": "string",
                  "name": "word",
                  "type": "string"
                }
              ],
              "internalType": "struct IHypePool.Details",
              "name": "details",
              "type": "tuple"
            },
            {
              "components": [
                {
                  "internalType": "uint256",
                  "name": "network",
                  "type": "uint256"
                },
                {
                  "internalType": "address",
                  "name": "tokenAddress",
                  "type": "address"
                },
                {
                  "internalType": "uint256",
                  "name": "minReward",
                  "type": "uint256"
                },
                {
                  "internalType": "uint256",
                  "name": "impressionReward",
                  "type": "uint256"
                },
                {
                  "internalType": "uint256",
                  "name": "cap",
                  "type": "uint256"
                },
                {
                  "internalType": "uint256",
                  "name": "endDate",
                  "type": "uint256"
                }
              ],
              "internalType": "struct IHypePool.Rewards",
              "name": "rewards",
              "type": "tuple"
            }
          ],
          "internalType": "struct IHypePool.HypePool",
          "name": "",
          "type": "tuple"
        }
      ],
      "stateMutability": "view",
      "type": "function"
    },
    {
      "inputs": [
        {
          "internalType": "address",
          "name": "escrowContractAddress",
          "type": "address"
        }
      ],
      "name": "initialize",
      "outputs": [],
      "stateMutability": "nonpayable",
      "type": "function"
    },
    {
      "inputs": [],
      "name": "owner",
      "outputs": [
        {
          "internalType": "address",
          "name": "",
          "type": "address"
        }
      ],
      "stateMutability": "view",
      "type": "function"
    },
    {
      "inputs": [],
      "name": "pause",
      "outputs": [],
      "stateMutability": "nonpayable",
      "type": "function"
    },
    {
      "inputs": [],
      "name": "paused",
      "outputs": [
        {
          "internalType": "bool",
          "name": "",
          "type": "bool"
        }
      ],
      "stateMutability": "view",
      "type": "function"
    },
    {
      "inputs": [
        {
          "internalType": "uint256",
          "name": "tokenId",
          "type": "uint256"
        }
      ],
      "name": "poolURI",
      "outputs": [
        {
          "internalType": "string",
          "name": "",
          "type": "string"
        }
      ],
      "stateMutability": "view",
      "type": "function"
    },
    {
      "inputs": [],
      "name": "renounceOwnership",
      "outputs": [],
      "stateMutability": "nonpayable",
      "type": "function"
    },
    {
      "inputs": [
        {
          "internalType": "address",
          "name": "newOwner",
          "type": "address"
        }
      ],
      "name": "transferOwnership",
      "outputs": [],
      "stateMutability": "nonpayable",
      "type": "function"
    },
    {
      "inputs": [],
      "name": "unpause",
      "outputs": [],
      "stateMutability": "nonpayable",
      "type": "function"
    }
  ],
  "bytecode": "0x608060405234801561001057600080fd5b5061001961001e565b6100de565b600054610100900460ff161561008a5760405162461bcd60e51b815260206004820152602760248201527f496e697469616c697a61626c653a20636f6e747261637420697320696e697469604482015266616c697a696e6760c81b606482015260840160405180910390fd5b60005460ff90811610156100dc576000805460ff191660ff9081179091556040519081527f7f26b83ff96e1f2b6a682f133852f6798a09c465da95921460cefb38474024989060200160405180910390a15b565b61203a80620000ee6000396000f3fe608060405234801561001057600080fd5b50600436106100d45760003560e01c80636e6c0558116100815780638da5cb5b1161005b5780638da5cb5b1461018e578063c4d66de8146101a9578063f2fde38b146101bc57600080fd5b80636e6c05581461016b578063715018a61461017e5780638456cb591461018657600080fd5b80631e2f4adc116100b25780631e2f4adc1461012d5780633f4ba83a1461014d5780635c975abb1461015557600080fd5b8063068bcd8d146100d957806308f747dd146101025780630d9005ae14610117575b600080fd5b6100ec6100e7366004611a5b565b6101cf565b6040516100f99190611ac1565b60405180910390f35b610115610110366004611a5b565b6104d9565b005b61011f610bc3565b6040519081526020016100f9565b61014061013b366004611a5b565b610bd3565b6040516100f99190611bcb565b610115610c75565b60335460ff1660405190151581526020016100f9565b6100ec610179366004611d49565b610c87565b61011561113f565b610115611151565b6065546040516001600160a01b0390911681526020016100f9565b6101156101b7366004611e5b565b611161565b6101156101ca366004611e5b565b6112b3565b6101d7611920565b600082815260996020908152604091829020825160a0810184528154815260018201546001600160a01b03811693820193909352600160a01b90920460ff1615158284015282516080810190935260028101805492939192606085019291908290829061024390611e78565b80601f016020809104026020016040519081016040528092919081815260200182805461026f90611e78565b80156102bc5780601f10610291576101008083540402835291602001916102bc565b820191906000526020600020905b81548152906001019060200180831161029f57829003601f168201915b505050505081526020016001820180546102d590611e78565b80601f016020809104026020016040519081016040528092919081815260200182805461030190611e78565b801561034e5780601f106103235761010080835404028352916020019161034e565b820191906000526020600020905b81548152906001019060200180831161033157829003601f168201915b5050505050815260200160028201805461036790611e78565b80601f016020809104026020016040519081016040528092919081815260200182805461039390611e78565b80156103e05780601f106103b5576101008083540402835291602001916103e0565b820191906000526020600020905b8154815290600101906020018083116103c357829003601f168201915b505050505081526020016003820180546103f990611e78565b80601f016020809104026020016040519081016040528092919081815260200182805461042590611e78565b80156104725780601f1061044757610100808354040283529160200191610472565b820191906000526020600020905b81548152906001019060200180831161045557829003601f168201915b5050509190925250505081526040805160c0810182526006840154815260078401546001600160a01b031660208281019190915260088501549282019290925260098401546060820152600a8401546080820152600b9093015460a0840152015292915050565b6104e1611343565b6000818152609960209081526040808320815160a0810183528154815260018201546001600160a01b03811694820194909452600160a01b90930460ff16151583830152815160808101909252600281018054919260608501929091908290829061054b90611e78565b80601f016020809104026020016040519081016040528092919081815260200182805461057790611e78565b80156105c45780601f10610599576101008083540402835291602001916105c4565b820191906000526020600020905b8154815290600101906020018083116105a757829003601f168201915b505050505081526020016001820180546105dd90611e78565b80601f016020809104026020016040519081016040528092919081815260200182805461060990611e78565b80156106565780601f1061062b57610100808354040283529160200191610656565b820191906000526020600020905b81548152906001019060200180831161063957829003601f168201915b5050505050815260200160028201805461066f90611e78565b80601f016020809104026020016040519081016040528092919081815260200182805461069b90611e78565b80156106e85780601f106106bd576101008083540402835291602001916106e8565b820191906000526020600020905b8154815290600101906020018083116106cb57829003601f168201915b5050505050815260200160038201805461070190611e78565b80601f016020809104026020016040519081016040528092919081815260200182805461072d90611e78565b801561077a5780601f1061074f5761010080835404028352916020019161077a565b820191906000526020600020905b81548152906001019060200180831161075d57829003601f168201915b5050509190925250505081526040805160c0810182526006840154815260078401546001600160a01b031660208281019190915260088501548284015260098501546060830152600a850154608080840191909152600b9095015460a08301529092019190915290820151015190915060000361083e5760405162461bcd60e51b815260206004820152601260248201527f506f6f6c20646f65736e2774206578697374000000000000000000000000000060448201526064015b60405180910390fd5b6040810151156108905760405162461bcd60e51b815260206004820152601660248201527f506f6f6c20697320616c726561647920616374697665000000000000000000006044820152606401610835565b6098546040517fae22192e000000000000000000000000000000000000000000000000000000008152336004820152602481018490526001600160a01b0390911690600090829063ae22192e90604401606060405180830381865afa1580156108fd573d6000803e3d6000fd5b505050506040513d601f19601f820116820180604052508101906109219190611eb2565b60808085015101518151919250146109a15760405162461bcd60e51b815260206004820152602860248201527f4465706f736974656420616d6f756e7420646f6573206e6f74206d617463682060448201527f706f6f6c206361700000000000000000000000000000000000000000000000006064820152608401610835565b8260800151602001516001600160a01b031681602001516001600160a01b031614610a345760405162461bcd60e51b815260206004820152603960248201527f4465706f736974656420746f6b656e206164647265737320646f6573206e6f7460448201527f206d6174636820706f6f6c20746f6b656e2061646472657373000000000000006064820152608401610835565b600160408085018281526000878152609960209081529290208651815582870151938101805492511515600160a01b0274ffffffffffffffffffffffffffffffffffffffffff199093166001600160a01b0390951694909417919091179092556060850151805180518794936002850192610ab592849291909101906119c2565b506020828101518051610ace92600185019201906119c2565b5060408201518051610aea9160028401916020909101906119c2565b5060608201518051610b069160038401916020909101906119c2565b5050506080918201518051600683015560208101516007830180546001600160a01b0390921673ffffffffffffffffffffffffffffffffffffffff1990921691909117905560408082015160088401556060820151600984015592810151600a83015560a00151600b90910155517f4f7e91eea279f21fac65109d86b7d1dfceb5607c89313be67d8c2bf537f9ae0c90610bb590869033909182526001600160a01b0316602082015260400190565b60405180910390a150505050565b6000610bce60975490565b905090565b6000818152609a60205260409020805460609190610bf090611e78565b80601f0160208091040260200160405190810160405280929190818152602001828054610c1c90611e78565b8015610c695780601f10610c3e57610100808354040283529160200191610c69565b820191906000526020600020905b815481529060010190602001808311610c4c57829003601f168201915b50505050509050919050565b610c7d611396565b610c856113f0565b565b610c8f611920565b610c97611343565b6000845111610ce85760405162461bcd60e51b815260206004820152601460248201527f4d697373696e67206d65746164617461205552490000000000000000000000006044820152606401610835565b6000826080015111610d3c5760405162461bcd60e51b815260206004820152601060248201527f496e76616c696420706f6f6c20636170000000000000000000000000000000006044820152606401610835565b428260a0015111610db55760405162461bcd60e51b815260206004820152602960248201527f456e642064617465206d7573742062652061667465722063757272656e74206260448201527f6c6f636b2074696d6500000000000000000000000000000000000000000000006064820152608401610835565b6000826040015111610e095760405162461bcd60e51b815260206004820152601b60248201527f496e76616c6964206d696e696d616c20687970652072657761726400000000006044820152606401610835565b6000610e1460975490565b9050610e2281868686611442565b610e2c8186611610565b610e3a609780546001019055565b600081815260996020908152604091829020825160a0810184528154815260018201546001600160a01b03811693820193909352600160a01b90920460ff16151582840152825160808101909352600281018054929391926060850192919082908290610ea690611e78565b80601f0160208091040260200160405190810160405280929190818152602001828054610ed290611e78565b8015610f1f5780601f10610ef457610100808354040283529160200191610f1f565b820191906000526020600020905b815481529060010190602001808311610f0257829003601f168201915b50505050508152602001600182018054610f3890611e78565b80601f0160208091040260200160405190810160405280929190818152602001828054610f6490611e78565b8015610fb15780601f10610f8657610100808354040283529160200191610fb1565b820191906000526020600020905b815481529060010190602001808311610f9457829003601f168201915b50505050508152602001600282018054610fca90611e78565b80601f0160208091040260200160405190810160405280929190818152602001828054610ff690611e78565b80156110435780601f1061101857610100808354040283529160200191611043565b820191906000526020600020905b81548152906001019060200180831161102657829003601f168201915b5050505050815260200160038201805461105c90611e78565b80601f016020809104026020016040519081016040528092919081815260200182805461108890611e78565b80156110d55780601f106110aa576101008083540402835291602001916110d5565b820191906000526020600020905b8154815290600101906020018083116110b857829003601f168201915b5050509190925250505081526040805160c0810182526006840154815260078401546001600160a01b031660208083019190915260088501549282019290925260098401546060820152600a8401546080820152600b9093015460a0840152015295945050505050565b611147611396565b610c856000611661565b611159611396565b610c856116c0565b600054610100900460ff16158080156111815750600054600160ff909116105b8061119b5750303b15801561119b575060005460ff166001145b61120d5760405162461bcd60e51b815260206004820152602e60248201527f496e697469616c697a61626c653a20636f6e747261637420697320616c72656160448201527f647920696e697469616c697a65640000000000000000000000000000000000006064820152608401610835565b6000805460ff191660011790558015611230576000805461ff0019166101001790555b6112386116fd565b6098805473ffffffffffffffffffffffffffffffffffffffff19166001600160a01b038416179055611268611770565b80156112af576000805461ff0019169055604051600181527f7f26b83ff96e1f2b6a682f133852f6798a09c465da95921460cefb3847402498906020015b60405180910390a15b5050565b6112bb611396565b6001600160a01b0381166113375760405162461bcd60e51b815260206004820152602660248201527f4f776e61626c653a206e6577206f776e657220697320746865207a65726f206160448201527f64647265737300000000000000000000000000000000000000000000000000006064820152608401610835565b61134081611661565b50565b60335460ff1615610c855760405162461bcd60e51b815260206004820152601060248201527f5061757361626c653a20706175736564000000000000000000000000000000006044820152606401610835565b6065546001600160a01b03163314610c855760405162461bcd60e51b815260206004820181905260248201527f4f776e61626c653a2063616c6c6572206973206e6f7420746865206f776e65726044820152606401610835565b6113f86117e3565b6033805460ff191690557f5db9ee0a495bf2e6ff9c91a7834c1ba4fdd244a5e8aa4e537bd38aeae4b073aa335b6040516001600160a01b03909116815260200160405180910390a1565b6040805160a081018252858152336020808301918252600083850181815260608501888152608086018890528a8352609984529590912084518155925160018401805492511515600160a01b0274ffffffffffffffffffffffffffffffffffffffffff199093166001600160a01b03929092169190911791909117905592518051805193949293919260028501926114dd92849201906119c2565b5060208281015180516114f692600185019201906119c2565b50604082015180516115129160028401916020909101906119c2565b506060820151805161152e9160038401916020909101906119c2565b5050506080820151816006016000820151816000015560208201518160010160006101000a8154816001600160a01b0302191690836001600160a01b0316021790555060408201518160020155606082015181600301556080820151816004015560a0820151816005015550509050507f7141f420f439b1eeb9440a64c0c54d74982ec367ca535b5a3a878b490bfce43a8433856000866000015187602001518860400151896060015189608001518a602001518b600001518c604001518d606001518e60a00151604051610bb59e9d9c9b9a99989796959493929190611f14565b6000828152609a60209081526040909120825161162f928401906119c2565b507f514efc4dbca754e32bfeb5dcb0c2d277953187ffd3b3eae36f7f9b5202e6f8ff82826040516112a6929190611fe3565b606580546001600160a01b0383811673ffffffffffffffffffffffffffffffffffffffff19831681179093556040519116919082907f8be0079c531659141344cd1fd0a4f28419497f9722a3daafe3b4186f6b6457e090600090a35050565b6116c8611343565b6033805460ff191660011790557f62e78cea01bee320cd4e420270b5ea74000d11b0c9f74754ebdbfc544b05a2586114253390565b600054610100900460ff166117685760405162461bcd60e51b815260206004820152602b60248201527f496e697469616c697a61626c653a20636f6e7472616374206973206e6f74206960448201526a6e697469616c697a696e6760a81b6064820152608401610835565b610c85611835565b600054610100900460ff166117db5760405162461bcd60e51b815260206004820152602b60248201527f496e697469616c697a61626c653a20636f6e7472616374206973206e6f74206960448201526a6e697469616c697a696e6760a81b6064820152608401610835565b610c856118ac565b60335460ff16610c855760405162461bcd60e51b815260206004820152601460248201527f5061757361626c653a206e6f74207061757365640000000000000000000000006044820152606401610835565b600054610100900460ff166118a05760405162461bcd60e51b815260206004820152602b60248201527f496e697469616c697a61626c653a20636f6e7472616374206973206e6f74206960448201526a6e697469616c697a696e6760a81b6064820152608401610835565b6033805460ff19169055565b600054610100900460ff166119175760405162461bcd60e51b815260206004820152602b60248201527f496e697469616c697a61626c653a20636f6e7472616374206973206e6f74206960448201526a6e697469616c697a696e6760a81b6064820152608401610835565b610c8533611661565b6040518060a001604052806000815260200160006001600160a01b031681526020016000151581526020016119766040518060800160405280606081526020016060815260200160608152602001606081525090565b81526020016119bd6040518060c001604052806000815260200160006001600160a01b03168152602001600081526020016000815260200160008152602001600081525090565b905290565b8280546119ce90611e78565b90600052602060002090601f0160209004810192826119f05760008555611a36565b82601f10611a0957805160ff1916838001178555611a36565b82800160010185558215611a36579182015b82811115611a36578251825591602001919060010190611a1b565b50611a42929150611a46565b5090565b5b80821115611a425760008155600101611a47565b600060208284031215611a6d57600080fd5b5035919050565b6000815180845260005b81811015611a9a57602081850181015186830182015201611a7e565b81811115611aac576000602083870101525b50601f01601f19169290920160200192915050565b60208152815160208201526001600160a01b03602083015116604082015260408201511515606082015260006060830151610140608084015280516080610160850152611b126101e0850182611a74565b9050602082015161015f198086840301610180870152611b328383611a74565b92506040840151915080868403016101a0870152611b508383611a74565b92506060840151935080868403016101c08701525050611b708183611a74565b9150506080840151611bc360a0850182805182526001600160a01b03602082015116602083015260408101516040830152606081015160608301526080810151608083015260a081015160a08301525050565b509392505050565b602081526000611bde6020830184611a74565b9392505050565b634e487b7160e01b600052604160045260246000fd5b6040516080810167ffffffffffffffff81118282101715611c1e57611c1e611be5565b60405290565b600082601f830112611c3557600080fd5b813567ffffffffffffffff80821115611c5057611c50611be5565b604051601f8301601f19908116603f01168101908282118183101715611c7857611c78611be5565b81604052838152866020858801011115611c9157600080fd5b836020870160208301376000602085830101528094505050505092915050565b6001600160a01b038116811461134057600080fd5b600060c08284031215611cd857600080fd5b60405160c0810181811067ffffffffffffffff82111715611cfb57611cfb611be5565b604052823581529050806020830135611d1381611cb1565b8060208301525060408301356040820152606083013560608201526080830135608082015260a083013560a08201525092915050565b60008060006101008486031215611d5f57600080fd5b833567ffffffffffffffff80821115611d7757600080fd5b611d8387838801611c24565b94506020860135915080821115611d9957600080fd5b9085019060808288031215611dad57600080fd5b611db5611bfb565b823582811115611dc457600080fd5b611dd089828601611c24565b825250602083013582811115611de557600080fd5b611df189828601611c24565b602083015250604083013582811115611e0957600080fd5b611e1589828601611c24565b604083015250606083013582811115611e2d57600080fd5b611e3989828601611c24565b606083015250809450505050611e528560408601611cc6565b90509250925092565b600060208284031215611e6d57600080fd5b8135611bde81611cb1565b600181811c90821680611e8c57607f821691505b602082108103611eac57634e487b7160e01b600052602260045260246000fd5b50919050565b600060608284031215611ec457600080fd5b6040516060810181811067ffffffffffffffff82111715611ee757611ee7611be5565b604052825181526020830151611efc81611cb1565b60208201526040928301519281019290925250919050565b8e81526001600160a01b038e1660208201526101c060408201526000611f3e6101c083018f611a74565b8d151560608401528281036080840152611f58818e611a74565b905082810360a0840152611f6c818d611a74565b905082810360c0840152611f80818c611a74565b905082810360e0840152611f94818b611a74565b91505087610100830152611fb46101208301886001600160a01b03169052565b856101408301528461016083015283610180830152826101a08301529f9e505050505050505050505050505050565b828152604060208201526000611ffc6040830184611a74565b94935050505056fea26469706673582212202e127f48dba47fd69b0f3683a51d1cd47439cbda9da63ecf765d9d9b42ce2aa164736f6c634300080e0033",
  "linkReferences": {},
  "deployedLinkReferences": {}
}