{
  "_format": "hh-sol-artifact-1",
  "contractName": "HypePoolUpgradeable",
  "sourceName": "contracts/upgradeable/HypePoolUpgradeable.sol",
  "abi": [
    {
      "inputs": [],
      "stateMutability": "nonpayable",
      "type": "constructor"
    },
    {
      "anonymous": false,
      "inputs": [
        {
          "indexed": false,
          "internalType": "uint8",
          "name": "version",
          "type": "uint8"
        }
      ],
      "name": "Initialized",
      "type": "event"
    },
    {
      "anonymous": false,
      "inputs": [
        {
          "indexed": true,
          "internalType": "address",
          "name": "previousOwner",
          "type": "address"
        },
        {
          "indexed": true,
          "internalType": "address",
          "name": "newOwner",
          "type": "address"
        }
      ],
      "name": "OwnershipTransferred",
      "type": "event"
    },
    {
      "anonymous": false,
      "inputs": [
        {
          "indexed": false,
          "internalType": "address",
          "name": "account",
          "type": "address"
        }
      ],
      "name": "Paused",
      "type": "event"
    },
    {
      "anonymous": false,
      "inputs": [
        {
          "indexed": false,
          "internalType": "uint256",
          "name": "poolId",
          "type": "uint256"
        },
        {
          "indexed": false,
          "internalType": "address",
          "name": "activator",
          "type": "address"
        }
      ],
      "name": "PoolActivated",
      "type": "event"
    },
    {
      "anonymous": false,
      "inputs": [
        {
          "indexed": false,
          "internalType": "uint256",
          "name": "poolId",
          "type": "uint256"
        },
        {
          "indexed": false,
          "internalType": "address",
          "name": "creator",
          "type": "address"
        },
        {
          "indexed": false,
          "internalType": "string",
          "name": "uri",
          "type": "string"
        },
        {
          "indexed": false,
          "internalType": "uint256",
          "name": "poolCap",
          "type": "uint256"
        },
        {
          "indexed": false,
          "internalType": "address",
          "name": "poolToken",
          "type": "address"
        },
        {
          "indexed": false,
          "internalType": "uint256",
          "name": "minHypeReward",
          "type": "uint256"
        },
        {
          "indexed": false,
          "internalType": "uint256",
          "name": "endDate",
          "type": "uint256"
        }
      ],
      "name": "PoolCreated",
      "type": "event"
    },
    {
      "anonymous": false,
      "inputs": [
        {
          "indexed": false,
          "internalType": "address",
          "name": "account",
          "type": "address"
        }
      ],
      "name": "Unpaused",
      "type": "event"
    },
    {
      "inputs": [
        {
          "internalType": "uint256",
          "name": "id",
          "type": "uint256"
        }
      ],
      "name": "activatePool",
      "outputs": [],
      "stateMutability": "nonpayable",
      "type": "function"
    },
    {
      "inputs": [
        {
          "internalType": "string",
          "name": "uri",
          "type": "string"
        },
        {
          "internalType": "uint256",
          "name": "poolCap",
          "type": "uint256"
        },
        {
          "internalType": "address",
          "name": "tokenAddress",
          "type": "address"
        },
        {
          "internalType": "uint256",
          "name": "minHypeReward",
          "type": "uint256"
        },
        {
          "internalType": "uint256",
          "name": "endDate",
          "type": "uint256"
        }
      ],
      "name": "createPool",
      "outputs": [
        {
          "components": [
            {
              "internalType": "uint256",
              "name": "id",
              "type": "uint256"
            },
            {
              "internalType": "address",
              "name": "creator",
              "type": "address"
            },
            {
              "internalType": "bool",
              "name": "active",
              "type": "bool"
            },
            {
              "internalType": "string",
              "name": "uri",
              "type": "string"
            },
            {
              "internalType": "uint256",
              "name": "cap",
              "type": "uint256"
            },
            {
              "internalType": "address",
              "name": "token",
              "type": "address"
            },
            {
              "internalType": "uint256",
              "name": "minReward",
              "type": "uint256"
            },
            {
              "internalType": "uint256",
              "name": "endDate",
              "type": "uint256"
            }
          ],
          "internalType": "struct IHypePool.HypePool",
          "name": "",
          "type": "tuple"
        }
      ],
      "stateMutability": "nonpayable",
      "type": "function"
    },
    {
      "inputs": [],
      "name": "getCurrentIndex",
      "outputs": [
        {
          "internalType": "uint256",
          "name": "",
          "type": "uint256"
        }
      ],
      "stateMutability": "view",
      "type": "function"
    },
    {
      "inputs": [
        {
          "internalType": "uint256",
          "name": "tokenId",
          "type": "uint256"
        }
      ],
      "name": "getPool",
      "outputs": [
        {
          "components": [
            {
              "internalType": "uint256",
              "name": "id",
              "type": "uint256"
            },
            {
              "internalType": "address",
              "name": "creator",
              "type": "address"
            },
            {
              "internalType": "bool",
              "name": "active",
              "type": "bool"
            },
            {
              "internalType": "string",
              "name": "uri",
              "type": "string"
            },
            {
              "internalType": "uint256",
              "name": "cap",
              "type": "uint256"
            },
            {
              "internalType": "address",
              "name": "token",
              "type": "address"
            },
            {
              "internalType": "uint256",
              "name": "minReward",
              "type": "uint256"
            },
            {
              "internalType": "uint256",
              "name": "endDate",
              "type": "uint256"
            }
          ],
          "internalType": "struct IHypePool.HypePool",
          "name": "",
          "type": "tuple"
        }
      ],
      "stateMutability": "view",
      "type": "function"
    },
    {
      "inputs": [
        {
          "internalType": "address",
          "name": "escrowContractAddress",
          "type": "address"
        }
      ],
      "name": "initialize",
      "outputs": [],
      "stateMutability": "nonpayable",
      "type": "function"
    },
    {
      "inputs": [],
      "name": "owner",
      "outputs": [
        {
          "internalType": "address",
          "name": "",
          "type": "address"
        }
      ],
      "stateMutability": "view",
      "type": "function"
    },
    {
      "inputs": [],
      "name": "pause",
      "outputs": [],
      "stateMutability": "nonpayable",
      "type": "function"
    },
    {
      "inputs": [],
      "name": "paused",
      "outputs": [
        {
          "internalType": "bool",
          "name": "",
          "type": "bool"
        }
      ],
      "stateMutability": "view",
      "type": "function"
    },
    {
      "inputs": [
        {
          "internalType": "uint256",
          "name": "tokenId",
          "type": "uint256"
        }
      ],
      "name": "poolURI",
      "outputs": [
        {
          "internalType": "string",
          "name": "",
          "type": "string"
        }
      ],
      "stateMutability": "view",
      "type": "function"
    },
    {
      "inputs": [],
      "name": "renounceOwnership",
      "outputs": [],
      "stateMutability": "nonpayable",
      "type": "function"
    },
    {
      "inputs": [
        {
          "internalType": "address",
          "name": "newOwner",
          "type": "address"
        }
      ],
      "name": "transferOwnership",
      "outputs": [],
      "stateMutability": "nonpayable",
      "type": "function"
    },
    {
      "inputs": [],
      "name": "unpause",
      "outputs": [],
      "stateMutability": "nonpayable",
      "type": "function"
    }
  ],
  "bytecode": "0x608060405234801561001057600080fd5b5061001961001e565b6100de565b600054610100900460ff161561008a5760405162461bcd60e51b815260206004820152602760248201527f496e697469616c697a61626c653a20636f6e747261637420697320696e697469604482015266616c697a696e6760c81b606482015260840160405180910390fd5b60005460ff90811610156100dc576000805460ff191660ff9081179091556040519081527f7f26b83ff96e1f2b6a682f133852f6798a09c465da95921460cefb38474024989060200160405180910390a15b565b611691806100ed6000396000f3fe608060405234801561001057600080fd5b50600436106100d45760003560e01c8063715018a611610081578063c4d66de81161005b578063c4d66de814610196578063caa1d043146101a9578063f2fde38b146101bc57600080fd5b8063715018a61461016b5780638456cb59146101735780638da5cb5b1461017b57600080fd5b80631e2f4adc116100b25780631e2f4adc1461012d5780633f4ba83a1461014d5780635c975abb1461015557600080fd5b8063068bcd8d146100d957806308f747dd146101025780630d9005ae14610117575b600080fd5b6100ec6100e7366004611318565b6101cf565b6040516100f9919061137e565b60405180910390f35b610115610110366004611318565b610346565b005b61011f6107b7565b6040519081526020016100f9565b61014061013b366004611318565b6107c7565b6040516100f9919061140b565b61011561086c565b60335460ff1660405190151581526020016100f9565b61011561087e565b610115610890565b6065546040516001600160a01b0390911681526020016100f9565b6101156101a436600461144a565b6108a0565b6100ec6101b73660046114ae565b6109f1565b6101156101ca36600461144a565b610e31565b61022b6040518061010001604052806000815260200160006001600160a01b03168152602001600015158152602001606081526020016000815260200160006001600160a01b0316815260200160008152602001600081525090565b6000828152609960209081526040918290208251610100810184528154815260018201546001600160a01b03811693820193909352600160a01b90920460ff1615159282019290925260028201805491929160608401919061028c9061156f565b80601f01602080910402602001604051908101604052809291908181526020018280546102b89061156f565b80156103055780601f106102da57610100808354040283529160200191610305565b820191906000526020600020905b8154815290600101906020018083116102e857829003601f168201915b50505091835250506003820154602082015260048201546001600160a01b031660408201526005820154606082015260069091015460809091015292915050565b61034e610ec1565b60008181526099602090815260408083208151610100810183528154815260018201546001600160a01b03811694820194909452600160a01b90930460ff161515918301919091526002810180546060840191906103ab9061156f565b80601f01602080910402602001604051908101604052809291908181526020018280546103d79061156f565b80156104245780601f106103f957610100808354040283529160200191610424565b820191906000526020600020905b81548152906001019060200180831161040757829003601f168201915b50505091835250506003820154602082015260048201546001600160a01b031660408201526005820154606082015260069091015460809091015260c08101519091506000036104bb5760405162461bcd60e51b815260206004820152601260248201527f506f6f6c20646f65736e2774206578697374000000000000000000000000000060448201526064015b60405180910390fd5b60408101511561050d5760405162461bcd60e51b815260206004820152601660248201527f506f6f6c20697320616c7265616479206163746976650000000000000000000060448201526064016104b2565b6098546040517fae22192e000000000000000000000000000000000000000000000000000000008152336004820152602481018490526001600160a01b0390911690600090829063ae22192e90604401606060405180830381865afa15801561057a573d6000803e3d6000fd5b505050506040513d601f19601f8201168201806040525081019061059e91906115a9565b608084015181519192501461061b5760405162461bcd60e51b815260206004820152602860248201527f4465706f736974656420616d6f756e7420646f6573206e6f74206d617463682060448201527f706f6f6c2063617000000000000000000000000000000000000000000000000060648201526084016104b2565b8260a001516001600160a01b031681602001516001600160a01b0316146106aa5760405162461bcd60e51b815260206004820152603960248201527f4465706f736974656420746f6b656e206164647265737320646f6573206e6f7460448201527f206d6174636820706f6f6c20746f6b656e20616464726573730000000000000060648201526084016104b2565b600160408085018281526000878152609960209081529290208651815582870151938101805492511515600160a01b0274ffffffffffffffffffffffffffffffffffffffffff199093166001600160a01b0390951694909417919091179092556060850151805186939261072592600285019291019061127f565b506080820151600382015560a082015160048201805473ffffffffffffffffffffffffffffffffffffffff19166001600160a01b0390921691909117905560c0820151600582015560e090910151600690910155604080518581523360208201527f4f7e91eea279f21fac65109d86b7d1dfceb5607c89313be67d8c2bf537f9ae0c910160405180910390a150505050565b60006107c260975490565b905090565b60008181526099602052604090206002018054606091906107e79061156f565b80601f01602080910402602001604051908101604052809291908181526020018280546108139061156f565b80156108605780601f1061083557610100808354040283529160200191610860565b820191906000526020600020905b81548152906001019060200180831161084357829003601f168201915b50505050509050919050565b610874610f14565b61087c610f6e565b565b610886610f14565b61087c6000610fc0565b610898610f14565b61087c61101f565b600054610100900460ff16158080156108c05750600054600160ff909116105b806108da5750303b1580156108da575060005460ff166001145b61094c5760405162461bcd60e51b815260206004820152602e60248201527f496e697469616c697a61626c653a20636f6e747261637420697320616c72656160448201527f647920696e697469616c697a656400000000000000000000000000000000000060648201526084016104b2565b6000805460ff19166001179055801561096f576000805461ff0019166101001790555b61097761105c565b6098805473ffffffffffffffffffffffffffffffffffffffff19166001600160a01b0384161790556109a76110cf565b80156109ed576000805461ff0019169055604051600181527f7f26b83ff96e1f2b6a682f133852f6798a09c465da95921460cefb38474024989060200160405180910390a15b5050565b610a4d6040518061010001604052806000815260200160006001600160a01b03168152602001600015158152602001606081526020016000815260200160006001600160a01b0316815260200160008152602001600081525090565b610a55610ec1565b6000865111610aa65760405162461bcd60e51b815260206004820152601460248201527f4d697373696e67206d657461646174612055524900000000000000000000000060448201526064016104b2565b60008511610af65760405162461bcd60e51b815260206004820152601060248201527f496e76616c696420706f6f6c206361700000000000000000000000000000000060448201526064016104b2565b428211610b6b5760405162461bcd60e51b815260206004820152602960248201527f456e642064617465206d7573742062652061667465722063757272656e74206260448201527f6c6f636b2074696d65000000000000000000000000000000000000000000000060648201526084016104b2565b60008311610bbb5760405162461bcd60e51b815260206004820152601b60248201527f496e76616c6964206d696e696d616c206879706520726577617264000000000060448201526064016104b2565b6000610bc660975490565b60408051610100810182528281523360208083019182526000838501818152606085018e8152608086018e90526001600160a01b038d811660a088015260c087018d905260e087018c9052888452609985529690922085518155935160018501805492511515600160a01b0274ffffffffffffffffffffffffffffffffffffffffff199093169190971617179094559251805194955091939092610c7192600285019291019061127f565b506080820151600382015560a082015160048201805473ffffffffffffffffffffffffffffffffffffffff19166001600160a01b0390921691909117905560c0820151600582015560e0909101516006909101556097805460010190557fb4256b2619156f4415f44067c4369ba4d2cc0e8cf84a3504f9810f7c2868f6e881338989898989604051610d09979695949392919061160b565b60405180910390a16000818152609960209081526040918290208251610100810184528154815260018201546001600160a01b03811693820193909352600160a01b90920460ff16151592820192909252600282018054919291606084019190610d729061156f565b80601f0160208091040260200160405190810160405280929190818152602001828054610d9e9061156f565b8015610deb5780601f10610dc057610100808354040283529160200191610deb565b820191906000526020600020905b815481529060010190602001808311610dce57829003601f168201915b50505091835250506003820154602082015260048201546001600160a01b0316604082015260058201546060820152600690910154608090910152979650505050505050565b610e39610f14565b6001600160a01b038116610eb55760405162461bcd60e51b815260206004820152602660248201527f4f776e61626c653a206e6577206f776e657220697320746865207a65726f206160448201527f646472657373000000000000000000000000000000000000000000000000000060648201526084016104b2565b610ebe81610fc0565b50565b60335460ff161561087c5760405162461bcd60e51b815260206004820152601060248201527f5061757361626c653a207061757365640000000000000000000000000000000060448201526064016104b2565b6065546001600160a01b0316331461087c5760405162461bcd60e51b815260206004820181905260248201527f4f776e61626c653a2063616c6c6572206973206e6f7420746865206f776e657260448201526064016104b2565b610f76611142565b6033805460ff191690557f5db9ee0a495bf2e6ff9c91a7834c1ba4fdd244a5e8aa4e537bd38aeae4b073aa335b6040516001600160a01b03909116815260200160405180910390a1565b606580546001600160a01b0383811673ffffffffffffffffffffffffffffffffffffffff19831681179093556040519116919082907f8be0079c531659141344cd1fd0a4f28419497f9722a3daafe3b4186f6b6457e090600090a35050565b611027610ec1565b6033805460ff191660011790557f62e78cea01bee320cd4e420270b5ea74000d11b0c9f74754ebdbfc544b05a258610fa33390565b600054610100900460ff166110c75760405162461bcd60e51b815260206004820152602b60248201527f496e697469616c697a61626c653a20636f6e7472616374206973206e6f74206960448201526a6e697469616c697a696e6760a81b60648201526084016104b2565b61087c611194565b600054610100900460ff1661113a5760405162461bcd60e51b815260206004820152602b60248201527f496e697469616c697a61626c653a20636f6e7472616374206973206e6f74206960448201526a6e697469616c697a696e6760a81b60648201526084016104b2565b61087c61120b565b60335460ff1661087c5760405162461bcd60e51b815260206004820152601460248201527f5061757361626c653a206e6f742070617573656400000000000000000000000060448201526064016104b2565b600054610100900460ff166111ff5760405162461bcd60e51b815260206004820152602b60248201527f496e697469616c697a61626c653a20636f6e7472616374206973206e6f74206960448201526a6e697469616c697a696e6760a81b60648201526084016104b2565b6033805460ff19169055565b600054610100900460ff166112765760405162461bcd60e51b815260206004820152602b60248201527f496e697469616c697a61626c653a20636f6e7472616374206973206e6f74206960448201526a6e697469616c697a696e6760a81b60648201526084016104b2565b61087c33610fc0565b82805461128b9061156f565b90600052602060002090601f0160209004810192826112ad57600085556112f3565b82601f106112c657805160ff19168380011785556112f3565b828001600101855582156112f3579182015b828111156112f35782518255916020019190600101906112d8565b506112ff929150611303565b5090565b5b808211156112ff5760008155600101611304565b60006020828403121561132a57600080fd5b5035919050565b6000815180845260005b818110156113575760208185018101518683018201520161133b565b81811115611369576000602083870101525b50601f01601f19169290920160200192915050565b60208152815160208201526001600160a01b036020830151166040820152604082015115156060820152600060608301516101008060808501526113c6610120850183611331565b9150608085015160a085015260a08501516113ec60c08601826001600160a01b03169052565b5060c085015160e085015260e085015181850152508091505092915050565b60208152600061141e6020830184611331565b9392505050565b6001600160a01b0381168114610ebe57600080fd5b803561144581611425565b919050565b60006020828403121561145c57600080fd5b813561141e81611425565b634e487b7160e01b600052604160045260246000fd5b604051601f8201601f1916810167ffffffffffffffff811182821017156114a6576114a6611467565b604052919050565b600080600080600060a086880312156114c657600080fd5b853567ffffffffffffffff808211156114de57600080fd5b818801915088601f8301126114f257600080fd5b813560208282111561150657611506611467565b611518601f8301601f1916820161147d565b92508183528a8183860101111561152e57600080fd5b81818501828501376000818385010152829850808a01359750505050506115576040870161143a565b94979396509394606081013594506080013592915050565b600181811c9082168061158357607f821691505b6020821081036115a357634e487b7160e01b600052602260045260246000fd5b50919050565b6000606082840312156115bb57600080fd5b6040516060810181811067ffffffffffffffff821117156115de576115de611467565b6040528251815260208301516115f381611425565b60208201526040928301519281019290925250919050565b87815260006001600160a01b03808916602084015260e0604084015261163460e0840189611331565b606084019790975294909416608082015260a081019290925260c09091015250939250505056fea264697066735822122084124d86416c2bd1779a7e4ac4d22b8a5349138e7469c6d05b287567dee87dfb64736f6c634300080e0033",
  "linkReferences": {},
  "deployedLinkReferences": {}
}