{
  "_format": "hh-sol-artifact-1",
  "contractName": "HypePoolUpgradeable",
  "sourceName": "contracts/upgradeable/HypePoolUpgradeable.sol",
  "abi": [
    {
      "inputs": [],
      "stateMutability": "nonpayable",
      "type": "constructor"
    },
    {
      "anonymous": false,
      "inputs": [
        {
          "indexed": false,
          "internalType": "uint8",
          "name": "version",
          "type": "uint8"
        }
      ],
      "name": "Initialized",
      "type": "event"
    },
    {
      "anonymous": false,
      "inputs": [
        {
          "indexed": true,
          "internalType": "address",
          "name": "previousOwner",
          "type": "address"
        },
        {
          "indexed": true,
          "internalType": "address",
          "name": "newOwner",
          "type": "address"
        }
      ],
      "name": "OwnershipTransferred",
      "type": "event"
    },
    {
      "anonymous": false,
      "inputs": [
        {
          "indexed": false,
          "internalType": "address",
          "name": "account",
          "type": "address"
        }
      ],
      "name": "Paused",
      "type": "event"
    },
    {
      "anonymous": false,
      "inputs": [
        {
          "indexed": false,
          "internalType": "bytes32",
          "name": "poolId",
          "type": "bytes32"
        },
        {
          "indexed": false,
          "internalType": "address",
          "name": "activator",
          "type": "address"
        },
        {
          "indexed": false,
          "internalType": "uint256",
          "name": "startDate",
          "type": "uint256"
        },
        {
          "indexed": false,
          "internalType": "uint256",
          "name": "endDate",
          "type": "uint256"
        }
      ],
      "name": "PoolActivated",
      "type": "event"
    },
    {
      "anonymous": false,
      "inputs": [
        {
          "indexed": false,
          "internalType": "bytes32",
          "name": "poolId",
          "type": "bytes32"
        },
        {
          "indexed": false,
          "internalType": "address",
          "name": "creator",
          "type": "address"
        },
        {
          "indexed": false,
          "internalType": "string",
          "name": "uri",
          "type": "string"
        }
      ],
      "name": "PoolCreated",
      "type": "event"
    },
    {
      "anonymous": false,
      "inputs": [
        {
          "indexed": false,
          "internalType": "bytes32",
          "name": "poolId",
          "type": "bytes32"
        },
        {
          "indexed": false,
          "internalType": "address",
          "name": "deactivator",
          "type": "address"
        }
      ],
      "name": "PoolDeactivated",
      "type": "event"
    },
    {
      "anonymous": false,
      "inputs": [
        {
          "indexed": false,
          "internalType": "bytes32",
          "name": "poolId",
          "type": "bytes32"
        },
        {
          "indexed": false,
          "internalType": "string",
          "name": "title",
          "type": "string"
        },
        {
          "indexed": false,
          "internalType": "string",
          "name": "projectName",
          "type": "string"
        },
        {
          "indexed": false,
          "internalType": "string",
          "name": "tokenName",
          "type": "string"
        },
        {
          "indexed": false,
          "internalType": "string",
          "name": "word",
          "type": "string"
        }
      ],
      "name": "PoolDetailsCreated",
      "type": "event"
    },
    {
      "anonymous": false,
      "inputs": [
        {
          "indexed": false,
          "internalType": "bytes32",
          "name": "poolId",
          "type": "bytes32"
        },
        {
          "indexed": false,
          "internalType": "uint256",
          "name": "network",
          "type": "uint256"
        },
        {
          "indexed": false,
          "internalType": "address",
          "name": "tokenAddress",
          "type": "address"
        },
        {
          "indexed": false,
          "internalType": "uint256",
          "name": "impressionReward",
          "type": "uint256"
        },
        {
          "indexed": false,
          "internalType": "uint256",
          "name": "cap",
          "type": "uint256"
        },
        {
          "indexed": false,
          "internalType": "uint256",
          "name": "startDate",
          "type": "uint256"
        },
        {
          "indexed": false,
          "internalType": "uint256",
          "name": "endDate",
          "type": "uint256"
        },
        {
          "indexed": false,
          "internalType": "uint256",
          "name": "duration",
          "type": "uint256"
        }
      ],
      "name": "PoolRewardsCreated",
      "type": "event"
    },
    {
      "anonymous": false,
      "inputs": [
        {
          "indexed": false,
          "internalType": "bytes32",
          "name": "poolId",
          "type": "bytes32"
        },
        {
          "indexed": false,
          "internalType": "string",
          "name": "uri",
          "type": "string"
        }
      ],
      "name": "PoolUriSet",
      "type": "event"
    },
    {
      "anonymous": false,
      "inputs": [
        {
          "indexed": true,
          "internalType": "bytes32",
          "name": "role",
          "type": "bytes32"
        },
        {
          "indexed": true,
          "internalType": "bytes32",
          "name": "previousAdminRole",
          "type": "bytes32"
        },
        {
          "indexed": true,
          "internalType": "bytes32",
          "name": "newAdminRole",
          "type": "bytes32"
        }
      ],
      "name": "RoleAdminChanged",
      "type": "event"
    },
    {
      "anonymous": false,
      "inputs": [
        {
          "indexed": true,
          "internalType": "bytes32",
          "name": "role",
          "type": "bytes32"
        },
        {
          "indexed": true,
          "internalType": "address",
          "name": "account",
          "type": "address"
        },
        {
          "indexed": true,
          "internalType": "address",
          "name": "sender",
          "type": "address"
        }
      ],
      "name": "RoleGranted",
      "type": "event"
    },
    {
      "anonymous": false,
      "inputs": [
        {
          "indexed": true,
          "internalType": "bytes32",
          "name": "role",
          "type": "bytes32"
        },
        {
          "indexed": true,
          "internalType": "address",
          "name": "account",
          "type": "address"
        },
        {
          "indexed": true,
          "internalType": "address",
          "name": "sender",
          "type": "address"
        }
      ],
      "name": "RoleRevoked",
      "type": "event"
    },
    {
      "anonymous": false,
      "inputs": [
        {
          "indexed": false,
          "internalType": "address",
          "name": "account",
          "type": "address"
        }
      ],
      "name": "Unpaused",
      "type": "event"
    },
    {
      "inputs": [],
      "name": "ACTIVATOR_ROLE",
      "outputs": [
        {
          "internalType": "bytes32",
          "name": "",
          "type": "bytes32"
        }
      ],
      "stateMutability": "view",
      "type": "function"
    },
    {
      "inputs": [],
      "name": "DEFAULT_ADMIN_ROLE",
      "outputs": [
        {
          "internalType": "bytes32",
          "name": "",
          "type": "bytes32"
        }
      ],
      "stateMutability": "view",
      "type": "function"
    },
    {
      "inputs": [
        {
          "internalType": "bytes32",
          "name": "hash",
          "type": "bytes32"
        }
      ],
      "name": "activatePool",
      "outputs": [],
      "stateMutability": "nonpayable",
      "type": "function"
    },
    {
      "inputs": [
        {
          "internalType": "string",
          "name": "uri",
          "type": "string"
        },
        {
          "components": [
            {
              "internalType": "string",
              "name": "title",
              "type": "string"
            },
            {
              "internalType": "string",
              "name": "projectName",
              "type": "string"
            },
            {
              "internalType": "string",
              "name": "tokenName",
              "type": "string"
            },
            {
              "internalType": "string",
              "name": "word",
              "type": "string"
            }
          ],
          "internalType": "struct IHypePool.Details",
          "name": "details",
          "type": "tuple"
        },
        {
          "components": [
            {
              "internalType": "uint256",
              "name": "network",
              "type": "uint256"
            },
            {
              "internalType": "address",
              "name": "tokenAddress",
              "type": "address"
            },
            {
              "internalType": "uint256",
              "name": "impressionReward",
              "type": "uint256"
            },
            {
              "internalType": "uint256",
              "name": "cap",
              "type": "uint256"
            },
            {
              "internalType": "uint256",
              "name": "startDate",
              "type": "uint256"
            },
            {
              "internalType": "uint256",
              "name": "endDate",
              "type": "uint256"
            },
            {
              "internalType": "uint256",
              "name": "duration",
              "type": "uint256"
            }
          ],
          "internalType": "struct IHypePool.Rewards",
          "name": "rewards",
          "type": "tuple"
        }
      ],
      "name": "createPool",
      "outputs": [
        {
          "components": [
            {
              "internalType": "bytes32",
              "name": "id",
              "type": "bytes32"
            },
            {
              "internalType": "address",
              "name": "creator",
              "type": "address"
            },
            {
              "internalType": "bool",
              "name": "active",
              "type": "bool"
            },
            {
              "components": [
                {
                  "internalType": "string",
                  "name": "title",
                  "type": "string"
                },
                {
                  "internalType": "string",
                  "name": "projectName",
                  "type": "string"
                },
                {
                  "internalType": "string",
                  "name": "tokenName",
                  "type": "string"
                },
                {
                  "internalType": "string",
                  "name": "word",
                  "type": "string"
                }
              ],
              "internalType": "struct IHypePool.Details",
              "name": "details",
              "type": "tuple"
            },
            {
              "components": [
                {
                  "internalType": "uint256",
                  "name": "network",
                  "type": "uint256"
                },
                {
                  "internalType": "address",
                  "name": "tokenAddress",
                  "type": "address"
                },
                {
                  "internalType": "uint256",
                  "name": "impressionReward",
                  "type": "uint256"
                },
                {
                  "internalType": "uint256",
                  "name": "cap",
                  "type": "uint256"
                },
                {
                  "internalType": "uint256",
                  "name": "startDate",
                  "type": "uint256"
                },
                {
                  "internalType": "uint256",
                  "name": "endDate",
                  "type": "uint256"
                },
                {
                  "internalType": "uint256",
                  "name": "duration",
                  "type": "uint256"
                }
              ],
              "internalType": "struct IHypePool.Rewards",
              "name": "rewards",
              "type": "tuple"
            }
          ],
          "internalType": "struct IHypePool.HypePool",
          "name": "",
          "type": "tuple"
        }
      ],
      "stateMutability": "nonpayable",
      "type": "function"
    },
    {
      "inputs": [
        {
          "internalType": "bytes32",
          "name": "hash",
          "type": "bytes32"
        }
      ],
      "name": "deactivatePool",
      "outputs": [],
      "stateMutability": "nonpayable",
      "type": "function"
    },
    {
      "inputs": [],
      "name": "getCurrentIndex",
      "outputs": [
        {
          "internalType": "bytes32",
          "name": "",
          "type": "bytes32"
        }
      ],
      "stateMutability": "view",
      "type": "function"
    },
    {
      "inputs": [
        {
          "internalType": "bytes32",
          "name": "hash",
          "type": "bytes32"
        }
      ],
      "name": "getPool",
      "outputs": [
        {
          "components": [
            {
              "internalType": "bytes32",
              "name": "id",
              "type": "bytes32"
            },
            {
              "internalType": "address",
              "name": "creator",
              "type": "address"
            },
            {
              "internalType": "bool",
              "name": "active",
              "type": "bool"
            },
            {
              "components": [
                {
                  "internalType": "string",
                  "name": "title",
                  "type": "string"
                },
                {
                  "internalType": "string",
                  "name": "projectName",
                  "type": "string"
                },
                {
                  "internalType": "string",
                  "name": "tokenName",
                  "type": "string"
                },
                {
                  "internalType": "string",
                  "name": "word",
                  "type": "string"
                }
              ],
              "internalType": "struct IHypePool.Details",
              "name": "details",
              "type": "tuple"
            },
            {
              "components": [
                {
                  "internalType": "uint256",
                  "name": "network",
                  "type": "uint256"
                },
                {
                  "internalType": "address",
                  "name": "tokenAddress",
                  "type": "address"
                },
                {
                  "internalType": "uint256",
                  "name": "impressionReward",
                  "type": "uint256"
                },
                {
                  "internalType": "uint256",
                  "name": "cap",
                  "type": "uint256"
                },
                {
                  "internalType": "uint256",
                  "name": "startDate",
                  "type": "uint256"
                },
                {
                  "internalType": "uint256",
                  "name": "endDate",
                  "type": "uint256"
                },
                {
                  "internalType": "uint256",
                  "name": "duration",
                  "type": "uint256"
                }
              ],
              "internalType": "struct IHypePool.Rewards",
              "name": "rewards",
              "type": "tuple"
            }
          ],
          "internalType": "struct IHypePool.HypePool",
          "name": "",
          "type": "tuple"
        }
      ],
      "stateMutability": "view",
      "type": "function"
    },
    {
      "inputs": [
        {
          "internalType": "bytes32",
          "name": "role",
          "type": "bytes32"
        }
      ],
      "name": "getRoleAdmin",
      "outputs": [
        {
          "internalType": "bytes32",
          "name": "",
          "type": "bytes32"
        }
      ],
      "stateMutability": "view",
      "type": "function"
    },
    {
      "inputs": [
        {
          "internalType": "bytes32",
          "name": "role",
          "type": "bytes32"
        },
        {
          "internalType": "address",
          "name": "account",
          "type": "address"
        }
      ],
      "name": "grantRole",
      "outputs": [],
      "stateMutability": "nonpayable",
      "type": "function"
    },
    {
      "inputs": [
        {
          "internalType": "bytes32",
          "name": "role",
          "type": "bytes32"
        },
        {
          "internalType": "address",
          "name": "account",
          "type": "address"
        }
      ],
      "name": "hasRole",
      "outputs": [
        {
          "internalType": "bool",
          "name": "",
          "type": "bool"
        }
      ],
      "stateMutability": "view",
      "type": "function"
    },
    {
      "inputs": [
        {
          "internalType": "address",
          "name": "escrowContractAddress",
          "type": "address"
        },
        {
          "internalType": "address",
          "name": "activator",
          "type": "address"
        }
      ],
      "name": "initialize",
      "outputs": [],
      "stateMutability": "nonpayable",
      "type": "function"
    },
    {
      "inputs": [],
      "name": "owner",
      "outputs": [
        {
          "internalType": "address",
          "name": "",
          "type": "address"
        }
      ],
      "stateMutability": "view",
      "type": "function"
    },
    {
      "inputs": [],
      "name": "pause",
      "outputs": [],
      "stateMutability": "nonpayable",
      "type": "function"
    },
    {
      "inputs": [],
      "name": "paused",
      "outputs": [
        {
          "internalType": "bool",
          "name": "",
          "type": "bool"
        }
      ],
      "stateMutability": "view",
      "type": "function"
    },
    {
      "inputs": [
        {
          "internalType": "bytes32",
          "name": "hash",
          "type": "bytes32"
        }
      ],
      "name": "poolURI",
      "outputs": [
        {
          "internalType": "string",
          "name": "",
          "type": "string"
        }
      ],
      "stateMutability": "view",
      "type": "function"
    },
    {
      "inputs": [],
      "name": "renounceOwnership",
      "outputs": [],
      "stateMutability": "nonpayable",
      "type": "function"
    },
    {
      "inputs": [
        {
          "internalType": "bytes32",
          "name": "role",
          "type": "bytes32"
        },
        {
          "internalType": "address",
          "name": "account",
          "type": "address"
        }
      ],
      "name": "renounceRole",
      "outputs": [],
      "stateMutability": "nonpayable",
      "type": "function"
    },
    {
      "inputs": [
        {
          "internalType": "bytes32",
          "name": "role",
          "type": "bytes32"
        },
        {
          "internalType": "address",
          "name": "account",
          "type": "address"
        }
      ],
      "name": "revokeRole",
      "outputs": [],
      "stateMutability": "nonpayable",
      "type": "function"
    },
    {
      "inputs": [
        {
          "internalType": "bytes4",
          "name": "interfaceId",
          "type": "bytes4"
        }
      ],
      "name": "supportsInterface",
      "outputs": [
        {
          "internalType": "bool",
          "name": "",
          "type": "bool"
        }
      ],
      "stateMutability": "view",
      "type": "function"
    },
    {
      "inputs": [
        {
          "internalType": "address",
          "name": "newOwner",
          "type": "address"
        }
      ],
      "name": "transferOwnership",
      "outputs": [],
      "stateMutability": "nonpayable",
      "type": "function"
    },
    {
      "inputs": [],
      "name": "unpause",
      "outputs": [],
      "stateMutability": "nonpayable",
      "type": "function"
    }
  ],
  "bytecode": "0x60806040523480156200001157600080fd5b506200001c62000022565b620000e4565b600054610100900460ff16156200008f5760405162461bcd60e51b815260206004820152602760248201527f496e697469616c697a61626c653a20636f6e747261637420697320696e697469604482015266616c697a696e6760c81b606482015260840160405180910390fd5b60005460ff9081161015620000e2576000805460ff191660ff9081179091556040519081527f7f26b83ff96e1f2b6a682f133852f6798a09c465da95921460cefb38474024989060200160405180910390a15b565b61324180620000f46000396000f3fe608060405234801561001057600080fd5b50600436106101775760003560e01c806373dfe0da116100d8578063a217fddf1161008c578063f2fde38b11610066578063f2fde38b14610318578063f6c009271461032b578063f8607fb11461033e57600080fd5b8063a217fddf146102ea578063d547741f146102f2578063d9d978591461030557600080fd5b80638456cb59116100bd5780638456cb591461028e5780638da5cb5b1461029657806391d14854146102b157600080fd5b806373dfe0da1461025b57806377108fcc1461026e57600080fd5b806336568abe1161012f578063485cc95511610114578063485cc955146102355780635c975abb14610248578063715018a61461025357600080fd5b806336568abe1461021a5780633f4ba83a1461022d57600080fd5b80630d9005ae116101605780630d9005ae146101d9578063248a9ca3146101e25780632f2ff15d1461020557600080fd5b806301ffc9a71461017c57806308740a3b146101a4575b600080fd5b61018f61018a3660046129e4565b61035e565b60405190151581526020015b60405180910390f35b6101cb7fec5aad7bdface20c35bc02d6d2d5760df981277427368525d634f4e2603ea19281565b60405190815260200161019b565b610100546101cb565b6101cb6101f0366004612a26565b600090815260c9602052604090206001015490565b610218610213366004612a54565b6103f7565b005b610218610228366004612a54565b610421565b6102186104b2565b610218610243366004612a84565b6104c4565b60335460ff1661018f565b610218610746565b610218610269366004612a26565b610758565b61028161027c366004612c0b565b610eef565b60405161019b9190612d6d565b6102186114a8565b6065546040516001600160a01b03909116815260200161019b565b61018f6102bf366004612a54565b600091825260c9602090815260408084206001600160a01b0393909316845291905290205460ff1690565b6101cb600081565b610218610300366004612a54565b6114b8565b610218610313366004612a26565b6114dd565b610218610326366004612e81565b611a24565b610281610339366004612a26565b611ab4565b61035161034c366004612a26565b611dc8565b60405161019b9190612e9e565b60007fffffffff0000000000000000000000000000000000000000000000000000000082167f7965db0b0000000000000000000000000000000000000000000000000000000014806103f157507f01ffc9a7000000000000000000000000000000000000000000000000000000007fffffffff000000000000000000000000000000000000000000000000000000008316145b92915050565b600082815260c9602052604090206001015461041281611e6a565b61041c8383611e74565b505050565b6001600160a01b03811633146104a45760405162461bcd60e51b815260206004820152602f60248201527f416363657373436f6e74726f6c3a2063616e206f6e6c792072656e6f756e636560448201527f20726f6c657320666f722073656c66000000000000000000000000000000000060648201526084015b60405180910390fd5b6104ae8282611f16565b5050565b6104ba611f99565b6104c2611ff3565b565b600054610100900460ff16158080156104e45750600054600160ff909116105b806104fe5750303b1580156104fe575060005460ff166001145b6105705760405162461bcd60e51b815260206004820152602e60248201527f496e697469616c697a61626c653a20636f6e747261637420697320616c72656160448201527f647920696e697469616c697a6564000000000000000000000000000000000000606482015260840161049b565b6000805460ff191660011790558015610593576000805461ff0019166101001790555b6001600160a01b03831661060f5760405162461bcd60e51b815260206004820152602e60248201527f457363726f7720636f6e747261637420616464726573732063616e6e6f74206260448201527f65207a65726f2061646472657373000000000000000000000000000000000000606482015260840161049b565b6001600160a01b03821661068b5760405162461bcd60e51b815260206004820152602860248201527f416374697661746f7220616464726573732063616e6e6f74206265207a65726f60448201527f2061646472657373000000000000000000000000000000000000000000000000606482015260840161049b565b610693612045565b60fc80546001600160a01b0319166001600160a01b0385161790556106b66120b8565b6106e07fec5aad7bdface20c35bc02d6d2d5760df981277427368525d634f4e2603ea1928361212b565b60fb80546001600160a01b0319166001600160a01b038416179055801561041c576000805461ff0019169055604051600181527f7f26b83ff96e1f2b6a682f133852f6798a09c465da95921460cefb3847402498906020015b60405180910390a1505050565b61074e611f99565b6104c26000612135565b610760612187565b600081815260fd60209081526040808320815160a0810183528154815260018201546001600160a01b03811694820194909452600160a01b90930460ff1615158383015281516080810190925260028101805491926060850192909190829082906107ca90612eb1565b80601f01602080910402602001604051908101604052809291908181526020018280546107f690612eb1565b80156108435780601f1061081857610100808354040283529160200191610843565b820191906000526020600020905b81548152906001019060200180831161082657829003601f168201915b5050505050815260200160018201805461085c90612eb1565b80601f016020809104026020016040519081016040528092919081815260200182805461088890612eb1565b80156108d55780601f106108aa576101008083540402835291602001916108d5565b820191906000526020600020905b8154815290600101906020018083116108b857829003601f168201915b505050505081526020016002820180546108ee90612eb1565b80601f016020809104026020016040519081016040528092919081815260200182805461091a90612eb1565b80156109675780601f1061093c57610100808354040283529160200191610967565b820191906000526020600020905b81548152906001019060200180831161094a57829003601f168201915b5050505050815260200160038201805461098090612eb1565b80601f01602080910402602001604051908101604052809291908181526020018280546109ac90612eb1565b80156109f95780601f106109ce576101008083540402835291602001916109f9565b820191906000526020600020905b8154815290600101906020018083116109dc57829003601f168201915b5050509190925250505081526040805160e0810182526006840154815260078401546001600160a01b031660208281019190915260088501548284015260098501546060830152600a850154608080840191909152600b86015460a0840152600c9095015460c083015290920191909152908201510151909150600003610ac25760405162461bcd60e51b815260206004820152601260248201527f506f6f6c20646f65736e27742065786973740000000000000000000000000000604482015260640161049b565b600082815260ff602081905260409091205416610b215760405162461bcd60e51b815260206004820152601360248201527f506f6f6c20646f6573206e6f7420657869737400000000000000000000000000604482015260640161049b565b604081015115610b735760405162461bcd60e51b815260206004820152601660248201527f506f6f6c20697320616c72656164792061637469766500000000000000000000604482015260640161049b565b3360009081527fd15c677a31e2204865175d4066a3c508c9ebcb4c48c72b58022d2c806d5c1d3d602052604090205460ff1680610d525760fc546040517f1aa9e742000000000000000000000000000000000000000000000000000000008152336004820152602481018590526001600160a01b03909116906000908290631aa9e74290604401606060405180830381865afa158015610c17573d6000803e3d6000fd5b505050506040513d601f19601f82011682018060405250810190610c3b9190612eeb565b608085015160600151815191925014610cbc5760405162461bcd60e51b815260206004820152602860248201527f4465706f736974656420616d6f756e7420646f6573206e6f74206d617463682060448201527f706f6f6c20636170000000000000000000000000000000000000000000000000606482015260840161049b565b8360800151602001516001600160a01b031681602001516001600160a01b031614610d4f5760405162461bcd60e51b815260206004820152603960248201527f4465706f736974656420746f6b656e206164647265737320646f6573206e6f7460448201527f206d6174636820706f6f6c20746f6b656e206164647265737300000000000000606482015260840161049b565b50505b60016040830152608080830180514292018290525160c00151610d7491612f63565b608083015160a00152600083815260fd60209081526040918290208451815590840151600182018054938601511515600160a01b0274ffffffffffffffffffffffffffffffffffffffffff199094166001600160a01b039092169190911792909217909155606083015180518492919060028301908190610df59082612fc4565b5060208201516001820190610e0a9082612fc4565b5060408201516002820190610e1f9082612fc4565b5060608201516003820190610e349082612fc4565b505050608091820151805160068301556020808201516007840180546001600160a01b0319166001600160a01b039092169190911790556040808301516008850155606080840151600986015583860151600a86015560a080850151600b87015560c090940151600c9095019490945586850151808601519301518151898152339381019390935290820192909252918201527ff1e6981b3d18841dad1ef7f8db1d40663aaa4b8cd2022e5349498c4d406d00df9101610739565b610ef7612938565b610eff612187565b6000845111610f505760405162461bcd60e51b815260206004820152601460248201527f4d697373696e67206d6574616461746120555249000000000000000000000000604482015260640161049b565b6000826060015111610fa45760405162461bcd60e51b815260206004820152601060248201527f496e76616c696420706f6f6c2063617000000000000000000000000000000000604482015260640161049b565b60008260c001511161101e5760405162461bcd60e51b815260206004820152602160248201527f4475726174696f6e206d757374206265206174206c65617374206f6e6520646160448201527f7900000000000000000000000000000000000000000000000000000000000000606482015260840161049b565b6080820151156110705760405162461bcd60e51b815260206004820152601760248201527f53746172742064617465206d757374206265207a65726f000000000000000000604482015260640161049b565b60a0820151156110c25760405162461bcd60e51b815260206004820152601560248201527f456e642064617465206d757374206265207a65726f0000000000000000000000604482015260640161049b565b60008260400151116111165760405162461bcd60e51b815260206004820152601e60248201527f496e76616c696420696d7072657373696f6e2068797065207265776172640000604482015260640161049b565b60006111206121da565b600081815260ff602081905260409091205491925016156111835760405162461bcd60e51b815260206004820152601360248201527f4861736820616c72656164792065786973747300000000000000000000000000604482015260640161049b565b61118f81868686612280565b6111998186612435565b600081815260fd6020908152604091829020825160a0810184528154815260018201546001600160a01b03811693820193909352600160a01b90920460ff1615158284015282516080810190935260028101805492939192606085019291908290829061120590612eb1565b80601f016020809104026020016040519081016040528092919081815260200182805461123190612eb1565b801561127e5780601f106112535761010080835404028352916020019161127e565b820191906000526020600020905b81548152906001019060200180831161126157829003601f168201915b5050505050815260200160018201805461129790612eb1565b80601f01602080910402602001604051908101604052809291908181526020018280546112c390612eb1565b80156113105780601f106112e557610100808354040283529160200191611310565b820191906000526020600020905b8154815290600101906020018083116112f357829003601f168201915b5050505050815260200160028201805461132990612eb1565b80601f016020809104026020016040519081016040528092919081815260200182805461135590612eb1565b80156113a25780601f10611377576101008083540402835291602001916113a2565b820191906000526020600020905b81548152906001019060200180831161138557829003601f168201915b505050505081526020016003820180546113bb90612eb1565b80601f01602080910402602001604051908101604052809291908181526020018280546113e790612eb1565b80156114345780601f1061140957610100808354040283529160200191611434565b820191906000526020600020905b81548152906001019060200180831161141757829003601f168201915b5050509190925250505081526040805160e0810182526006840154815260078401546001600160a01b031660208083019190915260088501549282019290925260098401546060820152600a8401546080820152600b84015460a0820152600c9093015460c0840152015295945050505050565b6114b0611f99565b6104c261247f565b600082815260c960205260409020600101546114d381611e6a565b61041c8383611f16565b6114e5612187565b6114ed611f99565b600081815260fd60209081526040808320815160a0810183528154815260018201546001600160a01b03811694820194909452600160a01b90930460ff16151583830152815160808101909252600281018054919260608501929091908290829061155790612eb1565b80601f016020809104026020016040519081016040528092919081815260200182805461158390612eb1565b80156115d05780601f106115a5576101008083540402835291602001916115d0565b820191906000526020600020905b8154815290600101906020018083116115b357829003601f168201915b505050505081526020016001820180546115e990612eb1565b80601f016020809104026020016040519081016040528092919081815260200182805461161590612eb1565b80156116625780601f1061163757610100808354040283529160200191611662565b820191906000526020600020905b81548152906001019060200180831161164557829003601f168201915b5050505050815260200160028201805461167b90612eb1565b80601f01602080910402602001604051908101604052809291908181526020018280546116a790612eb1565b80156116f45780601f106116c9576101008083540402835291602001916116f4565b820191906000526020600020905b8154815290600101906020018083116116d757829003601f168201915b5050505050815260200160038201805461170d90612eb1565b80601f016020809104026020016040519081016040528092919081815260200182805461173990612eb1565b80156117865780601f1061175b57610100808354040283529160200191611786565b820191906000526020600020905b81548152906001019060200180831161176957829003601f168201915b5050509190925250505081526040805160e0810182526006840154815260078401546001600160a01b031660208281019190915260088501548284015260098501546060830152600a850154608080840191909152600b86015460a0840152600c9095015460c08301529092019190915290820151015190915060000361184f5760405162461bcd60e51b815260206004820152601260248201527f506f6f6c20646f65736e27742065786973740000000000000000000000000000604482015260640161049b565b604081015115156001146118a55760405162461bcd60e51b815260206004820152601860248201527f506f6f6c20697320616c726561647920696e6163746976650000000000000000604482015260640161049b565b6000604080830182815260808401514260a09091015284835260fd602090815291909220835181559083015160018201805493511515600160a01b0274ffffffffffffffffffffffffffffffffffffffffff199094166001600160a01b03909216919091179290921790915560608201518051839291906002830190819061192d9082612fc4565b50602082015160018201906119429082612fc4565b50604082015160028201906119579082612fc4565b506060820151600382019061196c9082612fc4565b5050506080918201518051600683015560208101516007830180546001600160a01b039092166001600160a01b031990921691909117905560408082015160088401556060820151600984015592810151600a83015560a0810151600b83015560c00151600c90910155517f0522afc663a576de692143f1e714306778ade438ea7c739c3a3964bd78eb2cc690611a1890849033909182526001600160a01b0316602082015260400190565b60405180910390a15050565b611a2c611f99565b6001600160a01b038116611aa85760405162461bcd60e51b815260206004820152602660248201527f4f776e61626c653a206e6577206f776e657220697320746865207a65726f206160448201527f6464726573730000000000000000000000000000000000000000000000000000606482015260840161049b565b611ab181612135565b50565b611abc612938565b600082815260fd6020908152604091829020825160a0810184528154815260018201546001600160a01b03811693820193909352600160a01b90920460ff16151582840152825160808101909352600281018054929391926060850192919082908290611b2890612eb1565b80601f0160208091040260200160405190810160405280929190818152602001828054611b5490612eb1565b8015611ba15780601f10611b7657610100808354040283529160200191611ba1565b820191906000526020600020905b815481529060010190602001808311611b8457829003601f168201915b50505050508152602001600182018054611bba90612eb1565b80601f0160208091040260200160405190810160405280929190818152602001828054611be690612eb1565b8015611c335780601f10611c0857610100808354040283529160200191611c33565b820191906000526020600020905b815481529060010190602001808311611c1657829003601f168201915b50505050508152602001600282018054611c4c90612eb1565b80601f0160208091040260200160405190810160405280929190818152602001828054611c7890612eb1565b8015611cc55780601f10611c9a57610100808354040283529160200191611cc5565b820191906000526020600020905b815481529060010190602001808311611ca857829003601f168201915b50505050508152602001600382018054611cde90612eb1565b80601f0160208091040260200160405190810160405280929190818152602001828054611d0a90612eb1565b8015611d575780601f10611d2c57610100808354040283529160200191611d57565b820191906000526020600020905b815481529060010190602001808311611d3a57829003601f168201915b5050509190925250505081526040805160e0810182526006840154815260078401546001600160a01b031660208281019190915260088501549282019290925260098401546060820152600a8401546080820152600b84015460a0820152600c9093015460c0840152015292915050565b600081815260fe60205260409020805460609190611de590612eb1565b80601f0160208091040260200160405190810160405280929190818152602001828054611e1190612eb1565b8015611e5e5780601f10611e3357610100808354040283529160200191611e5e565b820191906000526020600020905b815481529060010190602001808311611e4157829003601f168201915b50505050509050919050565b611ab181336124bc565b600082815260c9602090815260408083206001600160a01b038516845290915290205460ff166104ae57600082815260c9602090815260408083206001600160a01b03851684529091529020805460ff19166001179055611ed23390565b6001600160a01b0316816001600160a01b0316837f2f8788117e7eff1d82e926ec794901d17c78024a50270940304540a733656f0d60405160405180910390a45050565b600082815260c9602090815260408083206001600160a01b038516845290915290205460ff16156104ae57600082815260c9602090815260408083206001600160a01b0385168085529252808320805460ff1916905551339285917ff6391f5c32d9c69d2a47ea670b442974b53935d1edc7fd64eb21e047a839171b9190a45050565b6065546001600160a01b031633146104c25760405162461bcd60e51b815260206004820181905260248201527f4f776e61626c653a2063616c6c6572206973206e6f7420746865206f776e6572604482015260640161049b565b611ffb612531565b6033805460ff191690557f5db9ee0a495bf2e6ff9c91a7834c1ba4fdd244a5e8aa4e537bd38aeae4b073aa335b6040516001600160a01b03909116815260200160405180910390a1565b600054610100900460ff166120b05760405162461bcd60e51b815260206004820152602b60248201527f496e697469616c697a61626c653a20636f6e7472616374206973206e6f74206960448201526a6e697469616c697a696e6760a81b606482015260840161049b565b6104c2612583565b600054610100900460ff166121235760405162461bcd60e51b815260206004820152602b60248201527f496e697469616c697a61626c653a20636f6e7472616374206973206e6f74206960448201526a6e697469616c697a696e6760a81b606482015260840161049b565b6104c26125fa565b6104ae8282611e74565b606580546001600160a01b038381166001600160a01b0319831681179093556040519116919082907f8be0079c531659141344cd1fd0a4f28419497f9722a3daafe3b4186f6b6457e090600090a35050565b60335460ff16156104c25760405162461bcd60e51b815260206004820152601060248201527f5061757361626c653a2070617573656400000000000000000000000000000000604482015260640161049b565b60408051436020820181905242928201839052600060608301819052929091839081906080016040516020818303038152906040528051906020012090505b600081815260ff60208190526040909120541615612278578161223b81613084565b6040805160208101889052908101869052606081018290529093506080019050604051602081830303815290604052805190602001209050612219565b949350505050565b6040805160a081018252858152336020808301918252600083850181815260608501888152608086018890528a835260fd90935294902083518155915160018301805495511515600160a01b0274ffffffffffffffffffffffffffffffffffffffffff199096166001600160a01b0392909216919091179490941790935591518051919291600283019081906123169082612fc4565b506020820151600182019061232b9082612fc4565b50604082015160028201906123409082612fc4565b50606082015160038201906123559082612fc4565b505050608091820151805160068301556020808201516007840180546001600160a01b0319166001600160a01b0390921691909117905560408083015160088501556060830151600985015593820151600a84015560a0820151600b84015560c090910151600c90920191909155600086815260ff909152819020805460ff19166001179055610100859055517f3a21eb0a9afc1353da741f39aaea48014c074c6720b61baf41e1e18d6ae7b2fb906124139086903390879061309d565b60405180910390a1612425848361266e565b61242f84826126b5565b50505050565b600082815260fe6020526040902061244d8282612fc4565b507fa9397f16db6e1e1b43c1c813233f16139006d56a3d1a24412ebdfb0661b5bfff8282604051611a189291906130ce565b612487612187565b6033805460ff191660011790557f62e78cea01bee320cd4e420270b5ea74000d11b0c9f74754ebdbfc544b05a2586120283390565b600082815260c9602090815260408083206001600160a01b038516845290915290205460ff166104ae576124ef8161273e565b6124fa836020612750565b60405160200161250b9291906130e7565b60408051601f198184030181529082905262461bcd60e51b825261049b91600401612e9e565b60335460ff166104c25760405162461bcd60e51b815260206004820152601460248201527f5061757361626c653a206e6f7420706175736564000000000000000000000000604482015260640161049b565b600054610100900460ff166125ee5760405162461bcd60e51b815260206004820152602b60248201527f496e697469616c697a61626c653a20636f6e7472616374206973206e6f74206960448201526a6e697469616c697a696e6760a81b606482015260840161049b565b6033805460ff19169055565b600054610100900460ff166126655760405162461bcd60e51b815260206004820152602b60248201527f496e697469616c697a61626c653a20636f6e7472616374206973206e6f74206960448201526a6e697469616c697a696e6760a81b606482015260840161049b565b6104c233612135565b7f764b3686bd9a8c04d487da87edb364f64d505149c22a8b2664d353539ecf6a33828260000151836020015184604001518560600151604051611a18959493929190613168565b805160208083015160408085015160608087015160808089015160c0808b015160a0808d015189518f81529b8c019c909c526001600160a01b03909916978a019790975293880194909452860152928401529082015260e08101919091527fd3c186ca228d0fefdb5e931894eda7415bb30b75f95c5b4f41deee5da40f18d29061010001611a18565b60606103f16001600160a01b03831660145b6060600061275f8360026131c7565b61276a906002612f63565b67ffffffffffffffff81111561278257612782612ab2565b6040519080825280601f01601f1916602001820160405280156127ac576020820181803683370190505b5090507f3000000000000000000000000000000000000000000000000000000000000000816000815181106127e3576127e36131de565b60200101906001600160f81b031916908160001a9053507f78000000000000000000000000000000000000000000000000000000000000008160018151811061282e5761282e6131de565b60200101906001600160f81b031916908160001a90535060006128528460026131c7565b61285d906001612f63565b90505b60018111156128e2577f303132333435363738396162636465660000000000000000000000000000000085600f166010811061289e5761289e6131de565b1a60f81b8282815181106128b4576128b46131de565b60200101906001600160f81b031916908160001a90535060049490941c936128db816131f4565b9050612860565b5083156129315760405162461bcd60e51b815260206004820181905260248201527f537472696e67733a20686578206c656e67746820696e73756666696369656e74604482015260640161049b565b9392505050565b6040518060a001604052806000801916815260200160006001600160a01b031681526020016000151581526020016129916040518060800160405280606081526020016060815260200160608152602001606081525090565b81526020016129df6040518060e001604052806000815260200160006001600160a01b0316815260200160008152602001600081526020016000815260200160008152602001600081525090565b905290565b6000602082840312156129f657600080fd5b81357fffffffff000000000000000000000000000000000000000000000000000000008116811461293157600080fd5b600060208284031215612a3857600080fd5b5035919050565b6001600160a01b0381168114611ab157600080fd5b60008060408385031215612a6757600080fd5b823591506020830135612a7981612a3f565b809150509250929050565b60008060408385031215612a9757600080fd5b8235612aa281612a3f565b91506020830135612a7981612a3f565b634e487b7160e01b600052604160045260246000fd5b6040516080810167ffffffffffffffff81118282101715612aeb57612aeb612ab2565b60405290565b600082601f830112612b0257600080fd5b813567ffffffffffffffff80821115612b1d57612b1d612ab2565b604051601f8301601f19908116603f01168101908282118183101715612b4557612b45612ab2565b81604052838152866020858801011115612b5e57600080fd5b836020870160208301376000602085830101528094505050505092915050565b600060e08284031215612b9057600080fd5b60405160e0810181811067ffffffffffffffff82111715612bb357612bb3612ab2565b604052823581529050806020830135612bcb81612a3f565b8060208301525060408301356040820152606083013560608201526080830135608082015260a083013560a082015260c083013560c08201525092915050565b60008060006101208486031215612c2157600080fd5b833567ffffffffffffffff80821115612c3957600080fd5b612c4587838801612af1565b94506020860135915080821115612c5b57600080fd5b9085019060808288031215612c6f57600080fd5b612c77612ac8565b823582811115612c8657600080fd5b612c9289828601612af1565b825250602083013582811115612ca757600080fd5b612cb389828601612af1565b602083015250604083013582811115612ccb57600080fd5b612cd789828601612af1565b604083015250606083013582811115612cef57600080fd5b612cfb89828601612af1565b606083015250809450505050612d148560408601612b7e565b90509250925092565b60005b83811015612d38578181015183820152602001612d20565b50506000910152565b60008151808452612d59816020860160208601612d1d565b601f01601f19169290920160200192915050565b60208152815160208201526001600160a01b03602083015116604082015260408201511515606082015260006060830151610160608084015280516080610180850152612dbe610200850182612d41565b9050602082015161017f1980868403016101a0870152612dde8383612d41565b92506040840151915080868403016101c0870152612dfc8383612d41565b92506060840151935080868403016101e08701525050612e1c8183612d41565b9150506080840151612e7960a0850182805182526001600160a01b03602082015116602083015260408101516040830152606081015160608301526080810151608083015260a081015160a083015260c081015160c08301525050565b509392505050565b600060208284031215612e9357600080fd5b813561293181612a3f565b6020815260006129316020830184612d41565b600181811c90821680612ec557607f821691505b602082108103612ee557634e487b7160e01b600052602260045260246000fd5b50919050565b600060608284031215612efd57600080fd5b6040516060810181811067ffffffffffffffff82111715612f2057612f20612ab2565b604052825181526020830151612f3581612a3f565b60208201526040928301519281019290925250919050565b634e487b7160e01b600052601160045260246000fd5b808201808211156103f1576103f1612f4d565b601f82111561041c57600081815260208120601f850160051c81016020861015612f9d5750805b601f850160051c820191505b81811015612fbc57828155600101612fa9565b505050505050565b815167ffffffffffffffff811115612fde57612fde612ab2565b612ff281612fec8454612eb1565b84612f76565b602080601f831160018114613027576000841561300f5750858301515b600019600386901b1c1916600185901b178555612fbc565b600085815260208120601f198616915b8281101561305657888601518255948401946001909101908401613037565b50858210156130745787850151600019600388901b60f8161c191681555b5050505050600190811b01905550565b60006001820161309657613096612f4d565b5060010190565b8381526001600160a01b03831660208201526060604082015260006130c56060830184612d41565b95945050505050565b8281526040602082015260006122786040830184612d41565b7f416363657373436f6e74726f6c3a206163636f756e742000000000000000000081526000835161311f816017850160208801612d1d565b7f206973206d697373696e6720726f6c6520000000000000000000000000000000601791840191820152835161315c816028840160208801612d1d565b01602801949350505050565b85815260a06020820152600061318160a0830187612d41565b82810360408401526131938187612d41565b905082810360608401526131a78186612d41565b905082810360808401526131bb8185612d41565b98975050505050505050565b80820281158282048414176103f1576103f1612f4d565b634e487b7160e01b600052603260045260246000fd5b60008161320357613203612f4d565b50600019019056fea2646970667358221220de6ee23b35478e7a48ae56241f194682b3bc852446244c9b1ff6b1c4b030ca2664736f6c63430008120033",
  "linkReferences": {},
  "deployedLinkReferences": {}
}