{
  "_format": "hh-sol-artifact-1",
  "contractName": "HypePoolUpgradeable",
  "sourceName": "contracts/upgradeable/HypePoolUpgradeable.sol",
  "abi": [
    {
      "inputs": [],
      "stateMutability": "nonpayable",
      "type": "constructor"
    },
    {
      "anonymous": false,
      "inputs": [
        {
          "indexed": false,
          "internalType": "uint8",
          "name": "version",
          "type": "uint8"
        }
      ],
      "name": "Initialized",
      "type": "event"
    },
    {
      "anonymous": false,
      "inputs": [
        {
          "indexed": true,
          "internalType": "address",
          "name": "previousOwner",
          "type": "address"
        },
        {
          "indexed": true,
          "internalType": "address",
          "name": "newOwner",
          "type": "address"
        }
      ],
      "name": "OwnershipTransferred",
      "type": "event"
    },
    {
      "anonymous": false,
      "inputs": [
        {
          "indexed": false,
          "internalType": "address",
          "name": "account",
          "type": "address"
        }
      ],
      "name": "Paused",
      "type": "event"
    },
    {
      "anonymous": false,
      "inputs": [
        {
          "indexed": false,
          "internalType": "uint256",
          "name": "poolId",
          "type": "uint256"
        },
        {
          "indexed": false,
          "internalType": "address",
          "name": "activator",
          "type": "address"
        }
      ],
      "name": "PoolActivated",
      "type": "event"
    },
    {
      "anonymous": false,
      "inputs": [
        {
          "indexed": false,
          "internalType": "uint256",
          "name": "poolId",
          "type": "uint256"
        },
        {
          "indexed": false,
          "internalType": "address",
          "name": "creator",
          "type": "address"
        },
        {
          "indexed": false,
          "internalType": "string",
          "name": "uri",
          "type": "string"
        },
        {
          "indexed": false,
          "internalType": "string",
          "name": "title",
          "type": "string"
        },
        {
          "indexed": false,
          "internalType": "string",
          "name": "projectName",
          "type": "string"
        },
        {
          "indexed": false,
          "internalType": "string",
          "name": "tokenName",
          "type": "string"
        },
        {
          "indexed": false,
          "internalType": "string",
          "name": "word",
          "type": "string"
        },
        {
          "indexed": false,
          "internalType": "bool",
          "name": "active",
          "type": "bool"
        },
        {
          "indexed": false,
          "internalType": "uint256",
          "name": "cap",
          "type": "uint256"
        },
        {
          "indexed": false,
          "internalType": "address",
          "name": "tokenAddress",
          "type": "address"
        },
        {
          "indexed": false,
          "internalType": "uint256",
          "name": "network",
          "type": "uint256"
        },
        {
          "indexed": false,
          "internalType": "uint256",
          "name": "minReward",
          "type": "uint256"
        },
        {
          "indexed": false,
          "internalType": "uint256",
          "name": "impressionReward",
          "type": "uint256"
        },
        {
          "indexed": false,
          "internalType": "uint256",
          "name": "endDate",
          "type": "uint256"
        }
      ],
      "name": "PoolCreated",
      "type": "event"
    },
    {
      "anonymous": false,
      "inputs": [
        {
          "indexed": false,
          "internalType": "uint256",
          "name": "poolId",
          "type": "uint256"
        },
        {
          "indexed": false,
          "internalType": "string",
          "name": "uri",
          "type": "string"
        }
      ],
      "name": "PoolUriSet",
      "type": "event"
    },
    {
      "anonymous": false,
      "inputs": [
        {
          "indexed": false,
          "internalType": "address",
          "name": "account",
          "type": "address"
        }
      ],
      "name": "Unpaused",
      "type": "event"
    },
    {
      "inputs": [
        {
          "internalType": "uint256",
          "name": "id",
          "type": "uint256"
        }
      ],
      "name": "activatePool",
      "outputs": [],
      "stateMutability": "nonpayable",
      "type": "function"
    },
    {
      "inputs": [
        {
          "internalType": "string",
          "name": "uri",
          "type": "string"
        },
        {
          "internalType": "string",
          "name": "projectName",
          "type": "string"
        },
        {
          "internalType": "string",
          "name": "title",
          "type": "string"
        },
        {
          "internalType": "string",
          "name": "tokenName",
          "type": "string"
        },
        {
          "internalType": "string",
          "name": "word",
          "type": "string"
        },
        {
          "internalType": "uint256",
          "name": "cap",
          "type": "uint256"
        },
        {
          "internalType": "address",
          "name": "tokenAddress",
          "type": "address"
        },
        {
          "internalType": "uint256",
          "name": "network",
          "type": "uint256"
        },
        {
          "internalType": "uint256",
          "name": "minReward",
          "type": "uint256"
        },
        {
          "internalType": "uint256",
          "name": "impressionReward",
          "type": "uint256"
        },
        {
          "internalType": "uint256",
          "name": "endDate",
          "type": "uint256"
        }
      ],
      "name": "createPool",
      "outputs": [
        {
          "components": [
            {
              "internalType": "uint256",
              "name": "id",
              "type": "uint256"
            },
            {
              "internalType": "address",
              "name": "creator",
              "type": "address"
            },
            {
              "internalType": "string",
              "name": "title",
              "type": "string"
            },
            {
              "internalType": "string",
              "name": "projectName",
              "type": "string"
            },
            {
              "internalType": "string",
              "name": "tokenName",
              "type": "string"
            },
            {
              "internalType": "string",
              "name": "word",
              "type": "string"
            },
            {
              "internalType": "uint256",
              "name": "network",
              "type": "uint256"
            },
            {
              "internalType": "bool",
              "name": "active",
              "type": "bool"
            },
            {
              "internalType": "uint256",
              "name": "cap",
              "type": "uint256"
            },
            {
              "internalType": "address",
              "name": "tokenAddress",
              "type": "address"
            },
            {
              "internalType": "uint256",
              "name": "minReward",
              "type": "uint256"
            },
            {
              "internalType": "uint256",
              "name": "impressionReward",
              "type": "uint256"
            },
            {
              "internalType": "uint256",
              "name": "endDate",
              "type": "uint256"
            }
          ],
          "internalType": "struct IHypePool.HypePool",
          "name": "",
          "type": "tuple"
        }
      ],
      "stateMutability": "nonpayable",
      "type": "function"
    },
    {
      "inputs": [],
      "name": "getCurrentIndex",
      "outputs": [
        {
          "internalType": "uint256",
          "name": "",
          "type": "uint256"
        }
      ],
      "stateMutability": "view",
      "type": "function"
    },
    {
      "inputs": [
        {
          "internalType": "uint256",
          "name": "tokenId",
          "type": "uint256"
        }
      ],
      "name": "getPool",
      "outputs": [
        {
          "components": [
            {
              "internalType": "uint256",
              "name": "id",
              "type": "uint256"
            },
            {
              "internalType": "address",
              "name": "creator",
              "type": "address"
            },
            {
              "internalType": "string",
              "name": "title",
              "type": "string"
            },
            {
              "internalType": "string",
              "name": "projectName",
              "type": "string"
            },
            {
              "internalType": "string",
              "name": "tokenName",
              "type": "string"
            },
            {
              "internalType": "string",
              "name": "word",
              "type": "string"
            },
            {
              "internalType": "uint256",
              "name": "network",
              "type": "uint256"
            },
            {
              "internalType": "bool",
              "name": "active",
              "type": "bool"
            },
            {
              "internalType": "uint256",
              "name": "cap",
              "type": "uint256"
            },
            {
              "internalType": "address",
              "name": "tokenAddress",
              "type": "address"
            },
            {
              "internalType": "uint256",
              "name": "minReward",
              "type": "uint256"
            },
            {
              "internalType": "uint256",
              "name": "impressionReward",
              "type": "uint256"
            },
            {
              "internalType": "uint256",
              "name": "endDate",
              "type": "uint256"
            }
          ],
          "internalType": "struct IHypePool.HypePool",
          "name": "",
          "type": "tuple"
        }
      ],
      "stateMutability": "view",
      "type": "function"
    },
    {
      "inputs": [
        {
          "internalType": "address",
          "name": "escrowContractAddress",
          "type": "address"
        }
      ],
      "name": "initialize",
      "outputs": [],
      "stateMutability": "nonpayable",
      "type": "function"
    },
    {
      "inputs": [],
      "name": "owner",
      "outputs": [
        {
          "internalType": "address",
          "name": "",
          "type": "address"
        }
      ],
      "stateMutability": "view",
      "type": "function"
    },
    {
      "inputs": [],
      "name": "pause",
      "outputs": [],
      "stateMutability": "nonpayable",
      "type": "function"
    },
    {
      "inputs": [],
      "name": "paused",
      "outputs": [
        {
          "internalType": "bool",
          "name": "",
          "type": "bool"
        }
      ],
      "stateMutability": "view",
      "type": "function"
    },
    {
      "inputs": [
        {
          "internalType": "uint256",
          "name": "tokenId",
          "type": "uint256"
        }
      ],
      "name": "poolURI",
      "outputs": [
        {
          "internalType": "string",
          "name": "",
          "type": "string"
        }
      ],
      "stateMutability": "view",
      "type": "function"
    },
    {
      "inputs": [],
      "name": "renounceOwnership",
      "outputs": [],
      "stateMutability": "nonpayable",
      "type": "function"
    },
    {
      "inputs": [
        {
          "internalType": "address",
          "name": "newOwner",
          "type": "address"
        }
      ],
      "name": "transferOwnership",
      "outputs": [],
      "stateMutability": "nonpayable",
      "type": "function"
    },
    {
      "inputs": [],
      "name": "unpause",
      "outputs": [],
      "stateMutability": "nonpayable",
      "type": "function"
    }
  ],
  "bytecode": "0x608060405234801561001057600080fd5b5061001961001e565b6100de565b600054610100900460ff161561008a5760405162461bcd60e51b815260206004820152602760248201527f496e697469616c697a61626c653a20636f6e747261637420697320696e697469604482015266616c697a696e6760c81b606482015260840160405180910390fd5b60005460ff90811610156100dc576000805460ff191660ff9081179091556040519081527f7f26b83ff96e1f2b6a682f133852f6798a09c465da95921460cefb38474024989060200160405180910390a15b565b611fbe806100ed6000396000f3fe608060405234801561001057600080fd5b50600436106100d45760003560e01c80635c975abb116100815780638da5cb5b1161005b5780638da5cb5b1461018e578063c4d66de8146101a9578063f2fde38b146101bc57600080fd5b80635c975abb14610168578063715018a61461017e5780638456cb591461018657600080fd5b80631e2f4adc116100b25780631e2f4adc1461012d5780633f4ba83a1461014d57806352a9aeb51461015557600080fd5b8063068bcd8d146100d957806308f747dd146101025780630d9005ae14610117575b600080fd5b6100ec6100e7366004611a66565b6101cf565b6040516100f99190611acc565b60405180910390f35b610115610110366004611a66565b61052c565b005b61011f610bd8565b6040519081526020016100f9565b61014061013b366004611a66565b610be8565b6040516100f99190611bde565b610115610c8a565b6100ec610163366004611cc0565b610c9c565b60335460ff1660405190151581526020016100f9565b6101156111ab565b6101156111bd565b6065546040516001600160a01b0390911681526020016100f9565b6101156101b7366004611dd9565b6111cd565b6101156101ca366004611dd9565b61131f565b61024e604051806101a001604052806000815260200160006001600160a01b0316815260200160608152602001606081526020016060815260200160608152602001600081526020016000151581526020016000815260200160006001600160a01b031681526020016000815260200160008152602001600081525090565b60008281526099602090815260409182902082516101a0810184528154815260018201546001600160a01b031692810192909252600281018054929391929184019161029990611df6565b80601f01602080910402602001604051908101604052809291908181526020018280546102c590611df6565b80156103125780601f106102e757610100808354040283529160200191610312565b820191906000526020600020905b8154815290600101906020018083116102f557829003601f168201915b5050505050815260200160038201805461032b90611df6565b80601f016020809104026020016040519081016040528092919081815260200182805461035790611df6565b80156103a45780601f10610379576101008083540402835291602001916103a4565b820191906000526020600020905b81548152906001019060200180831161038757829003601f168201915b505050505081526020016004820180546103bd90611df6565b80601f01602080910402602001604051908101604052809291908181526020018280546103e990611df6565b80156104365780601f1061040b57610100808354040283529160200191610436565b820191906000526020600020905b81548152906001019060200180831161041957829003601f168201915b5050505050815260200160058201805461044f90611df6565b80601f016020809104026020016040519081016040528092919081815260200182805461047b90611df6565b80156104c85780601f1061049d576101008083540402835291602001916104c8565b820191906000526020600020905b8154815290600101906020018083116104ab57829003601f168201915b505050918352505060068201546020820152600782015460ff16151560408201526008820154606082015260098201546001600160a01b03166080820152600a82015460a0820152600b82015460c0820152600c9091015460e09091015292915050565b6105346113af565b600081815260996020908152604080832081516101a0810183528154815260018201546001600160a01b031693810193909352600281018054919284019161057b90611df6565b80601f01602080910402602001604051908101604052809291908181526020018280546105a790611df6565b80156105f45780601f106105c9576101008083540402835291602001916105f4565b820191906000526020600020905b8154815290600101906020018083116105d757829003601f168201915b5050505050815260200160038201805461060d90611df6565b80601f016020809104026020016040519081016040528092919081815260200182805461063990611df6565b80156106865780601f1061065b57610100808354040283529160200191610686565b820191906000526020600020905b81548152906001019060200180831161066957829003601f168201915b5050505050815260200160048201805461069f90611df6565b80601f01602080910402602001604051908101604052809291908181526020018280546106cb90611df6565b80156107185780601f106106ed57610100808354040283529160200191610718565b820191906000526020600020905b8154815290600101906020018083116106fb57829003601f168201915b5050505050815260200160058201805461073190611df6565b80601f016020809104026020016040519081016040528092919081815260200182805461075d90611df6565b80156107aa5780601f1061077f576101008083540402835291602001916107aa565b820191906000526020600020905b81548152906001019060200180831161078d57829003601f168201915b505050918352505060068201546020820152600782015460ff16151560408201526008820154606082015260098201546001600160a01b03166080820152600a82015460a0820152600b82015460c0820152600c9091015460e0909101526101408101519091506000036108655760405162461bcd60e51b815260206004820152601260248201527f506f6f6c20646f65736e2774206578697374000000000000000000000000000060448201526064015b60405180910390fd5b60e0810151156108b75760405162461bcd60e51b815260206004820152601660248201527f506f6f6c20697320616c72656164792061637469766500000000000000000000604482015260640161085c565b6098546040517fae22192e000000000000000000000000000000000000000000000000000000008152336004820152602481018490526001600160a01b0390911690600090829063ae22192e90604401606060405180830381865afa158015610924573d6000803e3d6000fd5b505050506040513d601f19601f820116820180604052508101906109489190611e30565b6101008401518151919250146109c65760405162461bcd60e51b815260206004820152602860248201527f4465706f736974656420616d6f756e7420646f6573206e6f74206d617463682060448201527f706f6f6c20636170000000000000000000000000000000000000000000000000606482015260840161085c565b8261012001516001600160a01b031681602001516001600160a01b031614610a565760405162461bcd60e51b815260206004820152603960248201527f4465706f736974656420746f6b656e206164647265737320646f6573206e6f7460448201527f206d6174636820706f6f6c20746f6b656e206164647265737300000000000000606482015260840161085c565b600160e084018190526000858152609960209081526040918290208651815581870151938101805473ffffffffffffffffffffffffffffffffffffffff19166001600160a01b0390951694909417909355908501518051869392610ac19260028501929101906119cd565b5060608201518051610add9160038401916020909101906119cd565b5060808201518051610af99160048401916020909101906119cd565b5060a08201518051610b159160058401916020909101906119cd565b5060c0820151600682015560e082015160078201805460ff1916911515919091179055610100820151600882015561012082015160098201805473ffffffffffffffffffffffffffffffffffffffff19166001600160a01b03909216919091179055610140820151600a820155610160820151600b82015561018090910151600c90910155604080518581523360208201527f4f7e91eea279f21fac65109d86b7d1dfceb5607c89313be67d8c2bf537f9ae0c910160405180910390a150505050565b6000610be360975490565b905090565b6000818152609a60205260409020805460609190610c0590611df6565b80601f0160208091040260200160405190810160405280929190818152602001828054610c3190611df6565b8015610c7e5780601f10610c5357610100808354040283529160200191610c7e565b820191906000526020600020905b815481529060010190602001808311610c6157829003601f168201915b50505050509050919050565b610c92611402565b610c9a61145c565b565b610d1b604051806101a001604052806000815260200160006001600160a01b0316815260200160608152602001606081526020016060815260200160608152602001600081526020016000151581526020016000815260200160006001600160a01b031681526020016000815260200160008152602001600081525090565b610d236113af565b60008c5111610d745760405162461bcd60e51b815260206004820152601460248201527f4d697373696e67206d6574616461746120555249000000000000000000000000604482015260640161085c565b60008711610dc45760405162461bcd60e51b815260206004820152601060248201527f496e76616c696420706f6f6c2063617000000000000000000000000000000000604482015260640161085c565b428211610e395760405162461bcd60e51b815260206004820152602960248201527f456e642064617465206d7573742062652061667465722063757272656e74206260448201527f6c6f636b2074696d650000000000000000000000000000000000000000000000606482015260840161085c565b60008411610e895760405162461bcd60e51b815260206004820152601b60248201527f496e76616c6964206d696e696d616c2068797065207265776172640000000000604482015260640161085c565b6000610e9460975490565b9050610eaa818e8e8e8e8e8e8e8e8e8e8e6114ae565b610eb4818e6116bd565b610ec2609780546001019055565b60008181526099602090815260409182902082516101a0810184528154815260018201546001600160a01b0316928101929092526002810180549293919291840191610f0d90611df6565b80601f0160208091040260200160405190810160405280929190818152602001828054610f3990611df6565b8015610f865780601f10610f5b57610100808354040283529160200191610f86565b820191906000526020600020905b815481529060010190602001808311610f6957829003601f168201915b50505050508152602001600382018054610f9f90611df6565b80601f0160208091040260200160405190810160405280929190818152602001828054610fcb90611df6565b80156110185780601f10610fed57610100808354040283529160200191611018565b820191906000526020600020905b815481529060010190602001808311610ffb57829003601f168201915b5050505050815260200160048201805461103190611df6565b80601f016020809104026020016040519081016040528092919081815260200182805461105d90611df6565b80156110aa5780601f1061107f576101008083540402835291602001916110aa565b820191906000526020600020905b81548152906001019060200180831161108d57829003601f168201915b505050505081526020016005820180546110c390611df6565b80601f01602080910402602001604051908101604052809291908181526020018280546110ef90611df6565b801561113c5780601f106111115761010080835404028352916020019161113c565b820191906000526020600020905b81548152906001019060200180831161111f57829003601f168201915b505050918352505060068201546020820152600782015460ff16151560408201526008820154606082015260098201546001600160a01b03166080820152600a82015460a0820152600b82015460c0820152600c9091015460e0909101529d9c50505050505050505050505050565b6111b3611402565b610c9a600061170e565b6111c5611402565b610c9a61176d565b600054610100900460ff16158080156111ed5750600054600160ff909116105b806112075750303b158015611207575060005460ff166001145b6112795760405162461bcd60e51b815260206004820152602e60248201527f496e697469616c697a61626c653a20636f6e747261637420697320616c72656160448201527f647920696e697469616c697a6564000000000000000000000000000000000000606482015260840161085c565b6000805460ff19166001179055801561129c576000805461ff0019166101001790555b6112a46117aa565b6098805473ffffffffffffffffffffffffffffffffffffffff19166001600160a01b0384161790556112d461181d565b801561131b576000805461ff0019169055604051600181527f7f26b83ff96e1f2b6a682f133852f6798a09c465da95921460cefb3847402498906020015b60405180910390a15b5050565b611327611402565b6001600160a01b0381166113a35760405162461bcd60e51b815260206004820152602660248201527f4f776e61626c653a206e6577206f776e657220697320746865207a65726f206160448201527f6464726573730000000000000000000000000000000000000000000000000000606482015260840161085c565b6113ac8161170e565b50565b60335460ff1615610c9a5760405162461bcd60e51b815260206004820152601060248201527f5061757361626c653a2070617573656400000000000000000000000000000000604482015260640161085c565b6065546001600160a01b03163314610c9a5760405162461bcd60e51b815260206004820181905260248201527f4f776e61626c653a2063616c6c6572206973206e6f7420746865206f776e6572604482015260640161085c565b611464611890565b6033805460ff191690557f5db9ee0a495bf2e6ff9c91a7834c1ba4fdd244a5e8aa4e537bd38aeae4b073aa335b6040516001600160a01b03909116815260200160405180910390a1565b604051806101a001604052808d8152602001336001600160a01b031681526020018a81526020018b8152602001898152602001888152602001858152602001600015158152602001878152602001866001600160a01b0316815260200184815260200183815260200182815250609960008e81526020019081526020016000206000820151816000015560208201518160010160006101000a8154816001600160a01b0302191690836001600160a01b0316021790555060408201518160020190805190602001906115819291906119cd565b506060820151805161159d9160038401916020909101906119cd565b50608082015180516115b99160048401916020909101906119cd565b5060a082015180516115d59160058401916020909101906119cd565b5060c0820151816006015560e08201518160070160006101000a81548160ff02191690831515021790555061010082015181600801556101208201518160090160006101000a8154816001600160a01b0302191690836001600160a01b0316021790555061014082015181600a015561016082015181600b015561018082015181600c01559050507f6f149b718bdd8c3f234647a776a0d97ceb40f4268ef95d17caab66f246c1288a8c338d8c8e8d8d60008e8e8e8e8e8e6040516116a79e9d9c9b9a99989796959493929190611e92565b60405180910390a1505050505050505050505050565b6000828152609a6020908152604090912082516116dc928401906119cd565b507f514efc4dbca754e32bfeb5dcb0c2d277953187ffd3b3eae36f7f9b5202e6f8ff8282604051611312929190611f67565b606580546001600160a01b0383811673ffffffffffffffffffffffffffffffffffffffff19831681179093556040519116919082907f8be0079c531659141344cd1fd0a4f28419497f9722a3daafe3b4186f6b6457e090600090a35050565b6117756113af565b6033805460ff191660011790557f62e78cea01bee320cd4e420270b5ea74000d11b0c9f74754ebdbfc544b05a2586114913390565b600054610100900460ff166118155760405162461bcd60e51b815260206004820152602b60248201527f496e697469616c697a61626c653a20636f6e7472616374206973206e6f74206960448201526a6e697469616c697a696e6760a81b606482015260840161085c565b610c9a6118e2565b600054610100900460ff166118885760405162461bcd60e51b815260206004820152602b60248201527f496e697469616c697a61626c653a20636f6e7472616374206973206e6f74206960448201526a6e697469616c697a696e6760a81b606482015260840161085c565b610c9a611959565b60335460ff16610c9a5760405162461bcd60e51b815260206004820152601460248201527f5061757361626c653a206e6f7420706175736564000000000000000000000000604482015260640161085c565b600054610100900460ff1661194d5760405162461bcd60e51b815260206004820152602b60248201527f496e697469616c697a61626c653a20636f6e7472616374206973206e6f74206960448201526a6e697469616c697a696e6760a81b606482015260840161085c565b6033805460ff19169055565b600054610100900460ff166119c45760405162461bcd60e51b815260206004820152602b60248201527f496e697469616c697a61626c653a20636f6e7472616374206973206e6f74206960448201526a6e697469616c697a696e6760a81b606482015260840161085c565b610c9a3361170e565b8280546119d990611df6565b90600052602060002090601f0160209004810192826119fb5760008555611a41565b82601f10611a1457805160ff1916838001178555611a41565b82800160010185558215611a41579182015b82811115611a41578251825591602001919060010190611a26565b50611a4d929150611a51565b5090565b5b80821115611a4d5760008155600101611a52565b600060208284031215611a7857600080fd5b5035919050565b6000815180845260005b81811015611aa557602081850181015186830182015201611a89565b81811115611ab7576000602083870101525b50601f01601f19169290920160200192915050565b602081528151602082015260006020830151611af360408401826001600160a01b03169052565b5060408301516101a0806060850152611b106101c0850183611a7f565b91506060850151601f1980868503016080870152611b2e8483611a7f565b935060808701519150808685030160a0870152611b4b8483611a7f565b935060a08701519150808685030160c087015250611b698382611a7f565b92505060c085015160e085015260e0850151610100611b8b8187018315159052565b860151610120868101919091528601519050610140611bb4818701836001600160a01b03169052565b86015161016086810191909152860151610180808701919091529095015193019290925250919050565b602081526000611bf16020830184611a7f565b9392505050565b634e487b7160e01b600052604160045260246000fd5b600082601f830112611c1f57600080fd5b813567ffffffffffffffff80821115611c3a57611c3a611bf8565b604051601f8301601f19908116603f01168101908282118183101715611c6257611c62611bf8565b81604052838152866020858801011115611c7b57600080fd5b836020870160208301376000602085830101528094505050505092915050565b6001600160a01b03811681146113ac57600080fd5b8035611cbb81611c9b565b919050565b60008060008060008060008060008060006101608c8e031215611ce257600080fd5b67ffffffffffffffff808d351115611cf957600080fd5b611d068e8e358f01611c0e565b9b508060208e01351115611d1957600080fd5b611d298e60208f01358f01611c0e565b9a508060408e01351115611d3c57600080fd5b611d4c8e60408f01358f01611c0e565b99508060608e01351115611d5f57600080fd5b611d6f8e60608f01358f01611c0e565b98508060808e01351115611d8257600080fd5b50611d938d60808e01358e01611c0e565b965060a08c01359550611da860c08d01611cb0565b945060e08c013593506101008c013592506101208c013591506101408c013590509295989b509295989b9093969950565b600060208284031215611deb57600080fd5b8135611bf181611c9b565b600181811c90821680611e0a57607f821691505b602082108103611e2a57634e487b7160e01b600052602260045260246000fd5b50919050565b600060608284031215611e4257600080fd5b6040516060810181811067ffffffffffffffff82111715611e6557611e65611bf8565b604052825181526020830151611e7a81611c9b565b60208201526040928301519281019290925250919050565b8e81526001600160a01b038e1660208201526101c060408201526000611ebc6101c083018f611a7f565b8281036060840152611ece818f611a7f565b90508281036080840152611ee2818e611a7f565b905082810360a0840152611ef6818d611a7f565b905082810360c0840152611f0a818c611a7f565b915050611f1b60e083018a15159052565b87610100830152611f386101208301886001600160a01b03169052565b856101408301528461016083015283610180830152826101a08301529f9e505050505050505050505050505050565b828152604060208201526000611f806040830184611a7f565b94935050505056fea2646970667358221220c9d0e109e99356ebf5d7f4cdb45c0beddbef5d236d7fb7066aef98c5ecd5804a64736f6c634300080e0033",
  "linkReferences": {},
  "deployedLinkReferences": {}
}