{
  "_format": "hh-sol-artifact-1",
  "contractName": "HypePoolUpgradeable",
  "sourceName": "contracts/upgradeable/HypePoolUpgradeable.sol",
  "abi": [
    {
      "inputs": [],
      "stateMutability": "nonpayable",
      "type": "constructor"
    },
    {
      "anonymous": false,
      "inputs": [
        {
          "indexed": false,
          "internalType": "uint8",
          "name": "version",
          "type": "uint8"
        }
      ],
      "name": "Initialized",
      "type": "event"
    },
    {
      "anonymous": false,
      "inputs": [
        {
          "indexed": true,
          "internalType": "address",
          "name": "previousOwner",
          "type": "address"
        },
        {
          "indexed": true,
          "internalType": "address",
          "name": "newOwner",
          "type": "address"
        }
      ],
      "name": "OwnershipTransferred",
      "type": "event"
    },
    {
      "anonymous": false,
      "inputs": [
        {
          "indexed": false,
          "internalType": "address",
          "name": "account",
          "type": "address"
        }
      ],
      "name": "Paused",
      "type": "event"
    },
    {
      "anonymous": false,
      "inputs": [
        {
          "indexed": false,
          "internalType": "bytes32",
          "name": "poolId",
          "type": "bytes32"
        },
        {
          "indexed": false,
          "internalType": "address",
          "name": "activator",
          "type": "address"
        },
        {
          "indexed": false,
          "internalType": "uint256",
          "name": "startDate",
          "type": "uint256"
        },
        {
          "indexed": false,
          "internalType": "uint256",
          "name": "endDate",
          "type": "uint256"
        }
      ],
      "name": "PoolActivated",
      "type": "event"
    },
    {
      "anonymous": false,
      "inputs": [
        {
          "indexed": false,
          "internalType": "bytes32",
          "name": "poolId",
          "type": "bytes32"
        },
        {
          "indexed": false,
          "internalType": "address",
          "name": "creator",
          "type": "address"
        },
        {
          "indexed": false,
          "internalType": "string",
          "name": "uri",
          "type": "string"
        }
      ],
      "name": "PoolCreated",
      "type": "event"
    },
    {
      "anonymous": false,
      "inputs": [
        {
          "indexed": false,
          "internalType": "bytes32",
          "name": "poolId",
          "type": "bytes32"
        },
        {
          "indexed": false,
          "internalType": "address",
          "name": "deactivator",
          "type": "address"
        }
      ],
      "name": "PoolDeactivated",
      "type": "event"
    },
    {
      "anonymous": false,
      "inputs": [
        {
          "indexed": false,
          "internalType": "bytes32",
          "name": "poolId",
          "type": "bytes32"
        },
        {
          "indexed": false,
          "internalType": "string",
          "name": "title",
          "type": "string"
        },
        {
          "indexed": false,
          "internalType": "string",
          "name": "projectName",
          "type": "string"
        },
        {
          "indexed": false,
          "internalType": "string",
          "name": "tokenName",
          "type": "string"
        },
        {
          "indexed": false,
          "internalType": "string",
          "name": "word",
          "type": "string"
        }
      ],
      "name": "PoolDetailsCreated",
      "type": "event"
    },
    {
      "anonymous": false,
      "inputs": [
        {
          "indexed": false,
          "internalType": "bytes32",
          "name": "poolId",
          "type": "bytes32"
        },
        {
          "indexed": false,
          "internalType": "uint256",
          "name": "network",
          "type": "uint256"
        },
        {
          "indexed": false,
          "internalType": "address",
          "name": "tokenAddress",
          "type": "address"
        },
        {
          "indexed": false,
          "internalType": "uint256",
          "name": "impressionReward",
          "type": "uint256"
        },
        {
          "indexed": false,
          "internalType": "uint256",
          "name": "cap",
          "type": "uint256"
        },
        {
          "indexed": false,
          "internalType": "uint256",
          "name": "startDate",
          "type": "uint256"
        },
        {
          "indexed": false,
          "internalType": "uint256",
          "name": "endDate",
          "type": "uint256"
        },
        {
          "indexed": false,
          "internalType": "uint256",
          "name": "duration",
          "type": "uint256"
        }
      ],
      "name": "PoolRewardsCreated",
      "type": "event"
    },
    {
      "anonymous": false,
      "inputs": [
        {
          "indexed": false,
          "internalType": "bytes32",
          "name": "poolId",
          "type": "bytes32"
        },
        {
          "indexed": false,
          "internalType": "string",
          "name": "uri",
          "type": "string"
        }
      ],
      "name": "PoolUriSet",
      "type": "event"
    },
    {
      "anonymous": false,
      "inputs": [
        {
          "indexed": true,
          "internalType": "bytes32",
          "name": "role",
          "type": "bytes32"
        },
        {
          "indexed": true,
          "internalType": "bytes32",
          "name": "previousAdminRole",
          "type": "bytes32"
        },
        {
          "indexed": true,
          "internalType": "bytes32",
          "name": "newAdminRole",
          "type": "bytes32"
        }
      ],
      "name": "RoleAdminChanged",
      "type": "event"
    },
    {
      "anonymous": false,
      "inputs": [
        {
          "indexed": true,
          "internalType": "bytes32",
          "name": "role",
          "type": "bytes32"
        },
        {
          "indexed": true,
          "internalType": "address",
          "name": "account",
          "type": "address"
        },
        {
          "indexed": true,
          "internalType": "address",
          "name": "sender",
          "type": "address"
        }
      ],
      "name": "RoleGranted",
      "type": "event"
    },
    {
      "anonymous": false,
      "inputs": [
        {
          "indexed": true,
          "internalType": "bytes32",
          "name": "role",
          "type": "bytes32"
        },
        {
          "indexed": true,
          "internalType": "address",
          "name": "account",
          "type": "address"
        },
        {
          "indexed": true,
          "internalType": "address",
          "name": "sender",
          "type": "address"
        }
      ],
      "name": "RoleRevoked",
      "type": "event"
    },
    {
      "anonymous": false,
      "inputs": [
        {
          "indexed": false,
          "internalType": "address",
          "name": "account",
          "type": "address"
        }
      ],
      "name": "Unpaused",
      "type": "event"
    },
    {
      "inputs": [],
      "name": "ACTIVATOR_ROLE",
      "outputs": [
        {
          "internalType": "bytes32",
          "name": "",
          "type": "bytes32"
        }
      ],
      "stateMutability": "view",
      "type": "function"
    },
    {
      "inputs": [],
      "name": "DEFAULT_ADMIN_ROLE",
      "outputs": [
        {
          "internalType": "bytes32",
          "name": "",
          "type": "bytes32"
        }
      ],
      "stateMutability": "view",
      "type": "function"
    },
    {
      "inputs": [
        {
          "internalType": "bytes32",
          "name": "hash",
          "type": "bytes32"
        }
      ],
      "name": "activatePool",
      "outputs": [],
      "stateMutability": "nonpayable",
      "type": "function"
    },
    {
      "inputs": [
        {
          "internalType": "string",
          "name": "uri",
          "type": "string"
        },
        {
          "components": [
            {
              "internalType": "string",
              "name": "title",
              "type": "string"
            },
            {
              "internalType": "string",
              "name": "projectName",
              "type": "string"
            },
            {
              "internalType": "string",
              "name": "tokenName",
              "type": "string"
            },
            {
              "internalType": "string",
              "name": "word",
              "type": "string"
            }
          ],
          "internalType": "struct IHypePool.Details",
          "name": "details",
          "type": "tuple"
        },
        {
          "components": [
            {
              "internalType": "uint256",
              "name": "network",
              "type": "uint256"
            },
            {
              "internalType": "address",
              "name": "tokenAddress",
              "type": "address"
            },
            {
              "internalType": "uint256",
              "name": "impressionReward",
              "type": "uint256"
            },
            {
              "internalType": "uint256",
              "name": "cap",
              "type": "uint256"
            },
            {
              "internalType": "uint256",
              "name": "startDate",
              "type": "uint256"
            },
            {
              "internalType": "uint256",
              "name": "endDate",
              "type": "uint256"
            },
            {
              "internalType": "uint256",
              "name": "duration",
              "type": "uint256"
            }
          ],
          "internalType": "struct IHypePool.Rewards",
          "name": "rewards",
          "type": "tuple"
        }
      ],
      "name": "createPool",
      "outputs": [
        {
          "components": [
            {
              "internalType": "bytes32",
              "name": "id",
              "type": "bytes32"
            },
            {
              "internalType": "address",
              "name": "creator",
              "type": "address"
            },
            {
              "internalType": "bool",
              "name": "active",
              "type": "bool"
            },
            {
              "components": [
                {
                  "internalType": "string",
                  "name": "title",
                  "type": "string"
                },
                {
                  "internalType": "string",
                  "name": "projectName",
                  "type": "string"
                },
                {
                  "internalType": "string",
                  "name": "tokenName",
                  "type": "string"
                },
                {
                  "internalType": "string",
                  "name": "word",
                  "type": "string"
                }
              ],
              "internalType": "struct IHypePool.Details",
              "name": "details",
              "type": "tuple"
            },
            {
              "components": [
                {
                  "internalType": "uint256",
                  "name": "network",
                  "type": "uint256"
                },
                {
                  "internalType": "address",
                  "name": "tokenAddress",
                  "type": "address"
                },
                {
                  "internalType": "uint256",
                  "name": "impressionReward",
                  "type": "uint256"
                },
                {
                  "internalType": "uint256",
                  "name": "cap",
                  "type": "uint256"
                },
                {
                  "internalType": "uint256",
                  "name": "startDate",
                  "type": "uint256"
                },
                {
                  "internalType": "uint256",
                  "name": "endDate",
                  "type": "uint256"
                },
                {
                  "internalType": "uint256",
                  "name": "duration",
                  "type": "uint256"
                }
              ],
              "internalType": "struct IHypePool.Rewards",
              "name": "rewards",
              "type": "tuple"
            }
          ],
          "internalType": "struct IHypePool.HypePool",
          "name": "",
          "type": "tuple"
        }
      ],
      "stateMutability": "nonpayable",
      "type": "function"
    },
    {
      "inputs": [
        {
          "internalType": "bytes32",
          "name": "hash",
          "type": "bytes32"
        }
      ],
      "name": "deactivatePool",
      "outputs": [],
      "stateMutability": "nonpayable",
      "type": "function"
    },
    {
      "inputs": [],
      "name": "getCurrentIndex",
      "outputs": [
        {
          "internalType": "bytes32",
          "name": "",
          "type": "bytes32"
        }
      ],
      "stateMutability": "view",
      "type": "function"
    },
    {
      "inputs": [
        {
          "internalType": "bytes32",
          "name": "hash",
          "type": "bytes32"
        }
      ],
      "name": "getPool",
      "outputs": [
        {
          "components": [
            {
              "internalType": "bytes32",
              "name": "id",
              "type": "bytes32"
            },
            {
              "internalType": "address",
              "name": "creator",
              "type": "address"
            },
            {
              "internalType": "bool",
              "name": "active",
              "type": "bool"
            },
            {
              "components": [
                {
                  "internalType": "string",
                  "name": "title",
                  "type": "string"
                },
                {
                  "internalType": "string",
                  "name": "projectName",
                  "type": "string"
                },
                {
                  "internalType": "string",
                  "name": "tokenName",
                  "type": "string"
                },
                {
                  "internalType": "string",
                  "name": "word",
                  "type": "string"
                }
              ],
              "internalType": "struct IHypePool.Details",
              "name": "details",
              "type": "tuple"
            },
            {
              "components": [
                {
                  "internalType": "uint256",
                  "name": "network",
                  "type": "uint256"
                },
                {
                  "internalType": "address",
                  "name": "tokenAddress",
                  "type": "address"
                },
                {
                  "internalType": "uint256",
                  "name": "impressionReward",
                  "type": "uint256"
                },
                {
                  "internalType": "uint256",
                  "name": "cap",
                  "type": "uint256"
                },
                {
                  "internalType": "uint256",
                  "name": "startDate",
                  "type": "uint256"
                },
                {
                  "internalType": "uint256",
                  "name": "endDate",
                  "type": "uint256"
                },
                {
                  "internalType": "uint256",
                  "name": "duration",
                  "type": "uint256"
                }
              ],
              "internalType": "struct IHypePool.Rewards",
              "name": "rewards",
              "type": "tuple"
            }
          ],
          "internalType": "struct IHypePool.HypePool",
          "name": "",
          "type": "tuple"
        }
      ],
      "stateMutability": "view",
      "type": "function"
    },
    {
      "inputs": [
        {
          "internalType": "bytes32",
          "name": "role",
          "type": "bytes32"
        }
      ],
      "name": "getRoleAdmin",
      "outputs": [
        {
          "internalType": "bytes32",
          "name": "",
          "type": "bytes32"
        }
      ],
      "stateMutability": "view",
      "type": "function"
    },
    {
      "inputs": [
        {
          "internalType": "bytes32",
          "name": "role",
          "type": "bytes32"
        },
        {
          "internalType": "address",
          "name": "account",
          "type": "address"
        }
      ],
      "name": "grantRole",
      "outputs": [],
      "stateMutability": "nonpayable",
      "type": "function"
    },
    {
      "inputs": [
        {
          "internalType": "bytes32",
          "name": "role",
          "type": "bytes32"
        },
        {
          "internalType": "address",
          "name": "account",
          "type": "address"
        }
      ],
      "name": "hasRole",
      "outputs": [
        {
          "internalType": "bool",
          "name": "",
          "type": "bool"
        }
      ],
      "stateMutability": "view",
      "type": "function"
    },
    {
      "inputs": [
        {
          "internalType": "address",
          "name": "escrowContractAddress",
          "type": "address"
        },
        {
          "internalType": "address",
          "name": "activator",
          "type": "address"
        }
      ],
      "name": "initialize",
      "outputs": [],
      "stateMutability": "nonpayable",
      "type": "function"
    },
    {
      "inputs": [],
      "name": "owner",
      "outputs": [
        {
          "internalType": "address",
          "name": "",
          "type": "address"
        }
      ],
      "stateMutability": "view",
      "type": "function"
    },
    {
      "inputs": [],
      "name": "pause",
      "outputs": [],
      "stateMutability": "nonpayable",
      "type": "function"
    },
    {
      "inputs": [],
      "name": "paused",
      "outputs": [
        {
          "internalType": "bool",
          "name": "",
          "type": "bool"
        }
      ],
      "stateMutability": "view",
      "type": "function"
    },
    {
      "inputs": [
        {
          "internalType": "bytes32",
          "name": "hash",
          "type": "bytes32"
        }
      ],
      "name": "poolURI",
      "outputs": [
        {
          "internalType": "string",
          "name": "",
          "type": "string"
        }
      ],
      "stateMutability": "view",
      "type": "function"
    },
    {
      "inputs": [],
      "name": "renounceOwnership",
      "outputs": [],
      "stateMutability": "nonpayable",
      "type": "function"
    },
    {
      "inputs": [
        {
          "internalType": "bytes32",
          "name": "role",
          "type": "bytes32"
        },
        {
          "internalType": "address",
          "name": "account",
          "type": "address"
        }
      ],
      "name": "renounceRole",
      "outputs": [],
      "stateMutability": "nonpayable",
      "type": "function"
    },
    {
      "inputs": [
        {
          "internalType": "bytes32",
          "name": "role",
          "type": "bytes32"
        },
        {
          "internalType": "address",
          "name": "account",
          "type": "address"
        }
      ],
      "name": "revokeRole",
      "outputs": [],
      "stateMutability": "nonpayable",
      "type": "function"
    },
    {
      "inputs": [
        {
          "internalType": "bytes4",
          "name": "interfaceId",
          "type": "bytes4"
        }
      ],
      "name": "supportsInterface",
      "outputs": [
        {
          "internalType": "bool",
          "name": "",
          "type": "bool"
        }
      ],
      "stateMutability": "view",
      "type": "function"
    },
    {
      "inputs": [
        {
          "internalType": "address",
          "name": "newOwner",
          "type": "address"
        }
      ],
      "name": "transferOwnership",
      "outputs": [],
      "stateMutability": "nonpayable",
      "type": "function"
    },
    {
      "inputs": [],
      "name": "unpause",
      "outputs": [],
      "stateMutability": "nonpayable",
      "type": "function"
    }
  ],
  "bytecode": "0x60806040523480156200001157600080fd5b506200001c62000022565b620000e4565b600054610100900460ff16156200008f5760405162461bcd60e51b815260206004820152602760248201527f496e697469616c697a61626c653a20636f6e747261637420697320696e697469604482015266616c697a696e6760c81b606482015260840160405180910390fd5b60005460ff9081161015620000e2576000805460ff191660ff9081179091556040519081527f7f26b83ff96e1f2b6a682f133852f6798a09c465da95921460cefb38474024989060200160405180910390a15b565b61324a80620000f46000396000f3fe608060405234801561001057600080fd5b50600436106101775760003560e01c806373dfe0da116100d8578063a217fddf1161008c578063f2fde38b11610066578063f2fde38b14610318578063f6c009271461032b578063f8607fb11461033e57600080fd5b8063a217fddf146102ea578063d547741f146102f2578063d9d978591461030557600080fd5b80638456cb59116100bd5780638456cb591461028e5780638da5cb5b1461029657806391d14854146102b157600080fd5b806373dfe0da1461025b57806377108fcc1461026e57600080fd5b806336568abe1161012f578063485cc95511610114578063485cc955146102355780635c975abb14610248578063715018a61461025357600080fd5b806336568abe1461021a5780633f4ba83a1461022d57600080fd5b80630d9005ae116101605780630d9005ae146101d9578063248a9ca3146101e25780632f2ff15d1461020557600080fd5b806301ffc9a71461017c57806308740a3b146101a4575b600080fd5b61018f61018a3660046129ed565b61035e565b60405190151581526020015b60405180910390f35b6101cb7fec5aad7bdface20c35bc02d6d2d5760df981277427368525d634f4e2603ea19281565b60405190815260200161019b565b610100546101cb565b6101cb6101f0366004612a2f565b600090815260c9602052604090206001015490565b610218610213366004612a5d565b6103f7565b005b610218610228366004612a5d565b610421565b6102186104b2565b610218610243366004612a8d565b6104c4565b60335460ff1661018f565b610218610746565b610218610269366004612a2f565b610758565b61028161027c366004612c14565b610ef8565b60405161019b9190612d76565b6102186114b1565b6065546040516001600160a01b03909116815260200161019b565b61018f6102bf366004612a5d565b600091825260c9602090815260408084206001600160a01b0393909316845291905290205460ff1690565b6101cb600081565b610218610300366004612a5d565b6114c1565b610218610313366004612a2f565b6114e6565b610218610326366004612e8a565b611a2d565b610281610339366004612a2f565b611abd565b61035161034c366004612a2f565b611dd1565b60405161019b9190612ea7565b60007fffffffff0000000000000000000000000000000000000000000000000000000082167f7965db0b0000000000000000000000000000000000000000000000000000000014806103f157507f01ffc9a7000000000000000000000000000000000000000000000000000000007fffffffff000000000000000000000000000000000000000000000000000000008316145b92915050565b600082815260c9602052604090206001015461041281611e73565b61041c8383611e7d565b505050565b6001600160a01b03811633146104a45760405162461bcd60e51b815260206004820152602f60248201527f416363657373436f6e74726f6c3a2063616e206f6e6c792072656e6f756e636560448201527f20726f6c657320666f722073656c66000000000000000000000000000000000060648201526084015b60405180910390fd5b6104ae8282611f1f565b5050565b6104ba611fa2565b6104c2611ffc565b565b600054610100900460ff16158080156104e45750600054600160ff909116105b806104fe5750303b1580156104fe575060005460ff166001145b6105705760405162461bcd60e51b815260206004820152602e60248201527f496e697469616c697a61626c653a20636f6e747261637420697320616c72656160448201527f647920696e697469616c697a6564000000000000000000000000000000000000606482015260840161049b565b6000805460ff191660011790558015610593576000805461ff0019166101001790555b6001600160a01b03831661060f5760405162461bcd60e51b815260206004820152602e60248201527f457363726f7720636f6e747261637420616464726573732063616e6e6f74206260448201527f65207a65726f2061646472657373000000000000000000000000000000000000606482015260840161049b565b6001600160a01b03821661068b5760405162461bcd60e51b815260206004820152602860248201527f416374697661746f7220616464726573732063616e6e6f74206265207a65726f60448201527f2061646472657373000000000000000000000000000000000000000000000000606482015260840161049b565b61069361204e565b60fc80546001600160a01b0319166001600160a01b0385161790556106b66120c1565b6106e07fec5aad7bdface20c35bc02d6d2d5760df981277427368525d634f4e2603ea19283612134565b60fb80546001600160a01b0319166001600160a01b038416179055801561041c576000805461ff0019169055604051600181527f7f26b83ff96e1f2b6a682f133852f6798a09c465da95921460cefb3847402498906020015b60405180910390a1505050565b61074e611fa2565b6104c2600061213e565b610760612190565b600081815260fd60209081526040808320815160a0810183528154815260018201546001600160a01b03811694820194909452600160a01b90930460ff1615158383015281516080810190925260028101805491926060850192909190829082906107ca90612eba565b80601f01602080910402602001604051908101604052809291908181526020018280546107f690612eba565b80156108435780601f1061081857610100808354040283529160200191610843565b820191906000526020600020905b81548152906001019060200180831161082657829003601f168201915b5050505050815260200160018201805461085c90612eba565b80601f016020809104026020016040519081016040528092919081815260200182805461088890612eba565b80156108d55780601f106108aa576101008083540402835291602001916108d5565b820191906000526020600020905b8154815290600101906020018083116108b857829003601f168201915b505050505081526020016002820180546108ee90612eba565b80601f016020809104026020016040519081016040528092919081815260200182805461091a90612eba565b80156109675780601f1061093c57610100808354040283529160200191610967565b820191906000526020600020905b81548152906001019060200180831161094a57829003601f168201915b5050505050815260200160038201805461098090612eba565b80601f01602080910402602001604051908101604052809291908181526020018280546109ac90612eba565b80156109f95780601f106109ce576101008083540402835291602001916109f9565b820191906000526020600020905b8154815290600101906020018083116109dc57829003601f168201915b5050509190925250505081526040805160e0810182526006840154815260078401546001600160a01b031660208281019190915260088501548284015260098501546060830152600a850154608080840191909152600b86015460a0840152600c9095015460c083015290920191909152908201510151909150600003610ac25760405162461bcd60e51b815260206004820152601260248201527f506f6f6c20646f65736e27742065786973740000000000000000000000000000604482015260640161049b565b600082815260ff602081905260409091205416610b215760405162461bcd60e51b815260206004820152601360248201527f506f6f6c20646f6573206e6f7420657869737400000000000000000000000000604482015260640161049b565b604081015115610b735760405162461bcd60e51b815260206004820152601660248201527f506f6f6c20697320616c72656164792061637469766500000000000000000000604482015260640161049b565b3360009081527fd15c677a31e2204865175d4066a3c508c9ebcb4c48c72b58022d2c806d5c1d3d602052604090205460ff1680610d5b5760fc546040517f1aa9e742000000000000000000000000000000000000000000000000000000008152336004820152602481018590526001600160a01b03909116906000908290631aa9e74290604401606060405180830381865afa158015610c17573d6000803e3d6000fd5b505050506040513d601f19601f82011682018060405250810190610c3b9190612ef4565b905082158015610c5357506080840151606001518151145b610cc55760405162461bcd60e51b815260206004820152602860248201527f4465706f736974656420616d6f756e7420646f6573206e6f74206d617463682060448201527f706f6f6c20636170000000000000000000000000000000000000000000000000606482015260840161049b565b8360800151602001516001600160a01b031681602001516001600160a01b031614610d585760405162461bcd60e51b815260206004820152603960248201527f4465706f736974656420746f6b656e206164647265737320646f6573206e6f7460448201527f206d6174636820706f6f6c20746f6b656e206164647265737300000000000000606482015260840161049b565b50505b60016040830152608080830180514292018290525160c00151610d7d91612f6c565b608083015160a00152600083815260fd60209081526040918290208451815590840151600182018054938601511515600160a01b0274ffffffffffffffffffffffffffffffffffffffffff199094166001600160a01b039092169190911792909217909155606083015180518492919060028301908190610dfe9082612fcd565b5060208201516001820190610e139082612fcd565b5060408201516002820190610e289082612fcd565b5060608201516003820190610e3d9082612fcd565b505050608091820151805160068301556020808201516007840180546001600160a01b0319166001600160a01b039092169190911790556040808301516008850155606080840151600986015583860151600a86015560a080850151600b87015560c090940151600c9095019490945586850151808601519301518151898152339381019390935290820192909252918201527ff1e6981b3d18841dad1ef7f8db1d40663aaa4b8cd2022e5349498c4d406d00df9101610739565b610f00612941565b610f08612190565b6000845111610f595760405162461bcd60e51b815260206004820152601460248201527f4d697373696e67206d6574616461746120555249000000000000000000000000604482015260640161049b565b6000826060015111610fad5760405162461bcd60e51b815260206004820152601060248201527f496e76616c696420706f6f6c2063617000000000000000000000000000000000604482015260640161049b565b60008260c00151116110275760405162461bcd60e51b815260206004820152602160248201527f4475726174696f6e206d757374206265206174206c65617374206f6e6520646160448201527f7900000000000000000000000000000000000000000000000000000000000000606482015260840161049b565b6080820151156110795760405162461bcd60e51b815260206004820152601760248201527f53746172742064617465206d757374206265207a65726f000000000000000000604482015260640161049b565b60a0820151156110cb5760405162461bcd60e51b815260206004820152601560248201527f456e642064617465206d757374206265207a65726f0000000000000000000000604482015260640161049b565b600082604001511161111f5760405162461bcd60e51b815260206004820152601e60248201527f496e76616c696420696d7072657373696f6e2068797065207265776172640000604482015260640161049b565b60006111296121e3565b600081815260ff6020819052604090912054919250161561118c5760405162461bcd60e51b815260206004820152601360248201527f4861736820616c72656164792065786973747300000000000000000000000000604482015260640161049b565b61119881868686612289565b6111a2818661243e565b600081815260fd6020908152604091829020825160a0810184528154815260018201546001600160a01b03811693820193909352600160a01b90920460ff1615158284015282516080810190935260028101805492939192606085019291908290829061120e90612eba565b80601f016020809104026020016040519081016040528092919081815260200182805461123a90612eba565b80156112875780601f1061125c57610100808354040283529160200191611287565b820191906000526020600020905b81548152906001019060200180831161126a57829003601f168201915b505050505081526020016001820180546112a090612eba565b80601f01602080910402602001604051908101604052809291908181526020018280546112cc90612eba565b80156113195780601f106112ee57610100808354040283529160200191611319565b820191906000526020600020905b8154815290600101906020018083116112fc57829003601f168201915b5050505050815260200160028201805461133290612eba565b80601f016020809104026020016040519081016040528092919081815260200182805461135e90612eba565b80156113ab5780601f10611380576101008083540402835291602001916113ab565b820191906000526020600020905b81548152906001019060200180831161138e57829003601f168201915b505050505081526020016003820180546113c490612eba565b80601f01602080910402602001604051908101604052809291908181526020018280546113f090612eba565b801561143d5780601f106114125761010080835404028352916020019161143d565b820191906000526020600020905b81548152906001019060200180831161142057829003601f168201915b5050509190925250505081526040805160e0810182526006840154815260078401546001600160a01b031660208083019190915260088501549282019290925260098401546060820152600a8401546080820152600b84015460a0820152600c9093015460c0840152015295945050505050565b6114b9611fa2565b6104c2612488565b600082815260c960205260409020600101546114dc81611e73565b61041c8383611f1f565b6114ee612190565b6114f6611fa2565b600081815260fd60209081526040808320815160a0810183528154815260018201546001600160a01b03811694820194909452600160a01b90930460ff16151583830152815160808101909252600281018054919260608501929091908290829061156090612eba565b80601f016020809104026020016040519081016040528092919081815260200182805461158c90612eba565b80156115d95780601f106115ae576101008083540402835291602001916115d9565b820191906000526020600020905b8154815290600101906020018083116115bc57829003601f168201915b505050505081526020016001820180546115f290612eba565b80601f016020809104026020016040519081016040528092919081815260200182805461161e90612eba565b801561166b5780601f106116405761010080835404028352916020019161166b565b820191906000526020600020905b81548152906001019060200180831161164e57829003601f168201915b5050505050815260200160028201805461168490612eba565b80601f01602080910402602001604051908101604052809291908181526020018280546116b090612eba565b80156116fd5780601f106116d2576101008083540402835291602001916116fd565b820191906000526020600020905b8154815290600101906020018083116116e057829003601f168201915b5050505050815260200160038201805461171690612eba565b80601f016020809104026020016040519081016040528092919081815260200182805461174290612eba565b801561178f5780601f106117645761010080835404028352916020019161178f565b820191906000526020600020905b81548152906001019060200180831161177257829003601f168201915b5050509190925250505081526040805160e0810182526006840154815260078401546001600160a01b031660208281019190915260088501548284015260098501546060830152600a850154608080840191909152600b86015460a0840152600c9095015460c0830152909201919091529082015101519091506000036118585760405162461bcd60e51b815260206004820152601260248201527f506f6f6c20646f65736e27742065786973740000000000000000000000000000604482015260640161049b565b604081015115156001146118ae5760405162461bcd60e51b815260206004820152601860248201527f506f6f6c20697320616c726561647920696e6163746976650000000000000000604482015260640161049b565b6000604080830182815260808401514260a09091015284835260fd602090815291909220835181559083015160018201805493511515600160a01b0274ffffffffffffffffffffffffffffffffffffffffff199094166001600160a01b0390921691909117929092179091556060820151805183929190600283019081906119369082612fcd565b506020820151600182019061194b9082612fcd565b50604082015160028201906119609082612fcd565b50606082015160038201906119759082612fcd565b5050506080918201518051600683015560208101516007830180546001600160a01b039092166001600160a01b031990921691909117905560408082015160088401556060820151600984015592810151600a83015560a0810151600b83015560c00151600c90910155517f0522afc663a576de692143f1e714306778ade438ea7c739c3a3964bd78eb2cc690611a2190849033909182526001600160a01b0316602082015260400190565b60405180910390a15050565b611a35611fa2565b6001600160a01b038116611ab15760405162461bcd60e51b815260206004820152602660248201527f4f776e61626c653a206e6577206f776e657220697320746865207a65726f206160448201527f6464726573730000000000000000000000000000000000000000000000000000606482015260840161049b565b611aba8161213e565b50565b611ac5612941565b600082815260fd6020908152604091829020825160a0810184528154815260018201546001600160a01b03811693820193909352600160a01b90920460ff16151582840152825160808101909352600281018054929391926060850192919082908290611b3190612eba565b80601f0160208091040260200160405190810160405280929190818152602001828054611b5d90612eba565b8015611baa5780601f10611b7f57610100808354040283529160200191611baa565b820191906000526020600020905b815481529060010190602001808311611b8d57829003601f168201915b50505050508152602001600182018054611bc390612eba565b80601f0160208091040260200160405190810160405280929190818152602001828054611bef90612eba565b8015611c3c5780601f10611c1157610100808354040283529160200191611c3c565b820191906000526020600020905b815481529060010190602001808311611c1f57829003601f168201915b50505050508152602001600282018054611c5590612eba565b80601f0160208091040260200160405190810160405280929190818152602001828054611c8190612eba565b8015611cce5780601f10611ca357610100808354040283529160200191611cce565b820191906000526020600020905b815481529060010190602001808311611cb157829003601f168201915b50505050508152602001600382018054611ce790612eba565b80601f0160208091040260200160405190810160405280929190818152602001828054611d1390612eba565b8015611d605780601f10611d3557610100808354040283529160200191611d60565b820191906000526020600020905b815481529060010190602001808311611d4357829003601f168201915b5050509190925250505081526040805160e0810182526006840154815260078401546001600160a01b031660208281019190915260088501549282019290925260098401546060820152600a8401546080820152600b84015460a0820152600c9093015460c0840152015292915050565b600081815260fe60205260409020805460609190611dee90612eba565b80601f0160208091040260200160405190810160405280929190818152602001828054611e1a90612eba565b8015611e675780601f10611e3c57610100808354040283529160200191611e67565b820191906000526020600020905b815481529060010190602001808311611e4a57829003601f168201915b50505050509050919050565b611aba81336124c5565b600082815260c9602090815260408083206001600160a01b038516845290915290205460ff166104ae57600082815260c9602090815260408083206001600160a01b03851684529091529020805460ff19166001179055611edb3390565b6001600160a01b0316816001600160a01b0316837f2f8788117e7eff1d82e926ec794901d17c78024a50270940304540a733656f0d60405160405180910390a45050565b600082815260c9602090815260408083206001600160a01b038516845290915290205460ff16156104ae57600082815260c9602090815260408083206001600160a01b0385168085529252808320805460ff1916905551339285917ff6391f5c32d9c69d2a47ea670b442974b53935d1edc7fd64eb21e047a839171b9190a45050565b6065546001600160a01b031633146104c25760405162461bcd60e51b815260206004820181905260248201527f4f776e61626c653a2063616c6c6572206973206e6f7420746865206f776e6572604482015260640161049b565b61200461253a565b6033805460ff191690557f5db9ee0a495bf2e6ff9c91a7834c1ba4fdd244a5e8aa4e537bd38aeae4b073aa335b6040516001600160a01b03909116815260200160405180910390a1565b600054610100900460ff166120b95760405162461bcd60e51b815260206004820152602b60248201527f496e697469616c697a61626c653a20636f6e7472616374206973206e6f74206960448201526a6e697469616c697a696e6760a81b606482015260840161049b565b6104c261258c565b600054610100900460ff1661212c5760405162461bcd60e51b815260206004820152602b60248201527f496e697469616c697a61626c653a20636f6e7472616374206973206e6f74206960448201526a6e697469616c697a696e6760a81b606482015260840161049b565b6104c2612603565b6104ae8282611e7d565b606580546001600160a01b038381166001600160a01b0319831681179093556040519116919082907f8be0079c531659141344cd1fd0a4f28419497f9722a3daafe3b4186f6b6457e090600090a35050565b60335460ff16156104c25760405162461bcd60e51b815260206004820152601060248201527f5061757361626c653a2070617573656400000000000000000000000000000000604482015260640161049b565b60408051436020820181905242928201839052600060608301819052929091839081906080016040516020818303038152906040528051906020012090505b600081815260ff6020819052604090912054161561228157816122448161308d565b6040805160208101889052908101869052606081018290529093506080019050604051602081830303815290604052805190602001209050612222565b949350505050565b6040805160a081018252858152336020808301918252600083850181815260608501888152608086018890528a835260fd90935294902083518155915160018301805495511515600160a01b0274ffffffffffffffffffffffffffffffffffffffffff199096166001600160a01b03929092169190911794909417909355915180519192916002830190819061231f9082612fcd565b50602082015160018201906123349082612fcd565b50604082015160028201906123499082612fcd565b506060820151600382019061235e9082612fcd565b505050608091820151805160068301556020808201516007840180546001600160a01b0319166001600160a01b0390921691909117905560408083015160088501556060830151600985015593820151600a84015560a0820151600b84015560c090910151600c90920191909155600086815260ff909152819020805460ff19166001179055610100859055517f3a21eb0a9afc1353da741f39aaea48014c074c6720b61baf41e1e18d6ae7b2fb9061241c908690339087906130a6565b60405180910390a161242e8483612677565b61243884826126be565b50505050565b600082815260fe602052604090206124568282612fcd565b507fa9397f16db6e1e1b43c1c813233f16139006d56a3d1a24412ebdfb0661b5bfff8282604051611a219291906130d7565b612490612190565b6033805460ff191660011790557f62e78cea01bee320cd4e420270b5ea74000d11b0c9f74754ebdbfc544b05a2586120313390565b600082815260c9602090815260408083206001600160a01b038516845290915290205460ff166104ae576124f881612747565b612503836020612759565b6040516020016125149291906130f0565b60408051601f198184030181529082905262461bcd60e51b825261049b91600401612ea7565b60335460ff166104c25760405162461bcd60e51b815260206004820152601460248201527f5061757361626c653a206e6f7420706175736564000000000000000000000000604482015260640161049b565b600054610100900460ff166125f75760405162461bcd60e51b815260206004820152602b60248201527f496e697469616c697a61626c653a20636f6e7472616374206973206e6f74206960448201526a6e697469616c697a696e6760a81b606482015260840161049b565b6033805460ff19169055565b600054610100900460ff1661266e5760405162461bcd60e51b815260206004820152602b60248201527f496e697469616c697a61626c653a20636f6e7472616374206973206e6f74206960448201526a6e697469616c697a696e6760a81b606482015260840161049b565b6104c23361213e565b7f764b3686bd9a8c04d487da87edb364f64d505149c22a8b2664d353539ecf6a33828260000151836020015184604001518560600151604051611a21959493929190613171565b805160208083015160408085015160608087015160808089015160c0808b015160a0808d015189518f81529b8c019c909c526001600160a01b03909916978a019790975293880194909452860152928401529082015260e08101919091527fd3c186ca228d0fefdb5e931894eda7415bb30b75f95c5b4f41deee5da40f18d29061010001611a21565b60606103f16001600160a01b03831660145b606060006127688360026131d0565b612773906002612f6c565b67ffffffffffffffff81111561278b5761278b612abb565b6040519080825280601f01601f1916602001820160405280156127b5576020820181803683370190505b5090507f3000000000000000000000000000000000000000000000000000000000000000816000815181106127ec576127ec6131e7565b60200101906001600160f81b031916908160001a9053507f780000000000000000000000000000000000000000000000000000000000000081600181518110612837576128376131e7565b60200101906001600160f81b031916908160001a905350600061285b8460026131d0565b612866906001612f6c565b90505b60018111156128eb577f303132333435363738396162636465660000000000000000000000000000000085600f16601081106128a7576128a76131e7565b1a60f81b8282815181106128bd576128bd6131e7565b60200101906001600160f81b031916908160001a90535060049490941c936128e4816131fd565b9050612869565b50831561293a5760405162461bcd60e51b815260206004820181905260248201527f537472696e67733a20686578206c656e67746820696e73756666696369656e74604482015260640161049b565b9392505050565b6040518060a001604052806000801916815260200160006001600160a01b0316815260200160001515815260200161299a6040518060800160405280606081526020016060815260200160608152602001606081525090565b81526020016129e86040518060e001604052806000815260200160006001600160a01b0316815260200160008152602001600081526020016000815260200160008152602001600081525090565b905290565b6000602082840312156129ff57600080fd5b81357fffffffff000000000000000000000000000000000000000000000000000000008116811461293a57600080fd5b600060208284031215612a4157600080fd5b5035919050565b6001600160a01b0381168114611aba57600080fd5b60008060408385031215612a7057600080fd5b823591506020830135612a8281612a48565b809150509250929050565b60008060408385031215612aa057600080fd5b8235612aab81612a48565b91506020830135612a8281612a48565b634e487b7160e01b600052604160045260246000fd5b6040516080810167ffffffffffffffff81118282101715612af457612af4612abb565b60405290565b600082601f830112612b0b57600080fd5b813567ffffffffffffffff80821115612b2657612b26612abb565b604051601f8301601f19908116603f01168101908282118183101715612b4e57612b4e612abb565b81604052838152866020858801011115612b6757600080fd5b836020870160208301376000602085830101528094505050505092915050565b600060e08284031215612b9957600080fd5b60405160e0810181811067ffffffffffffffff82111715612bbc57612bbc612abb565b604052823581529050806020830135612bd481612a48565b8060208301525060408301356040820152606083013560608201526080830135608082015260a083013560a082015260c083013560c08201525092915050565b60008060006101208486031215612c2a57600080fd5b833567ffffffffffffffff80821115612c4257600080fd5b612c4e87838801612afa565b94506020860135915080821115612c6457600080fd5b9085019060808288031215612c7857600080fd5b612c80612ad1565b823582811115612c8f57600080fd5b612c9b89828601612afa565b825250602083013582811115612cb057600080fd5b612cbc89828601612afa565b602083015250604083013582811115612cd457600080fd5b612ce089828601612afa565b604083015250606083013582811115612cf857600080fd5b612d0489828601612afa565b606083015250809450505050612d1d8560408601612b87565b90509250925092565b60005b83811015612d41578181015183820152602001612d29565b50506000910152565b60008151808452612d62816020860160208601612d26565b601f01601f19169290920160200192915050565b60208152815160208201526001600160a01b03602083015116604082015260408201511515606082015260006060830151610160608084015280516080610180850152612dc7610200850182612d4a565b9050602082015161017f1980868403016101a0870152612de78383612d4a565b92506040840151915080868403016101c0870152612e058383612d4a565b92506060840151935080868403016101e08701525050612e258183612d4a565b9150506080840151612e8260a0850182805182526001600160a01b03602082015116602083015260408101516040830152606081015160608301526080810151608083015260a081015160a083015260c081015160c08301525050565b509392505050565b600060208284031215612e9c57600080fd5b813561293a81612a48565b60208152600061293a6020830184612d4a565b600181811c90821680612ece57607f821691505b602082108103612eee57634e487b7160e01b600052602260045260246000fd5b50919050565b600060608284031215612f0657600080fd5b6040516060810181811067ffffffffffffffff82111715612f2957612f29612abb565b604052825181526020830151612f3e81612a48565b60208201526040928301519281019290925250919050565b634e487b7160e01b600052601160045260246000fd5b808201808211156103f1576103f1612f56565b601f82111561041c57600081815260208120601f850160051c81016020861015612fa65750805b601f850160051c820191505b81811015612fc557828155600101612fb2565b505050505050565b815167ffffffffffffffff811115612fe757612fe7612abb565b612ffb81612ff58454612eba565b84612f7f565b602080601f83116001811461303057600084156130185750858301515b600019600386901b1c1916600185901b178555612fc5565b600085815260208120601f198616915b8281101561305f57888601518255948401946001909101908401613040565b508582101561307d5787850151600019600388901b60f8161c191681555b5050505050600190811b01905550565b60006001820161309f5761309f612f56565b5060010190565b8381526001600160a01b03831660208201526060604082015260006130ce6060830184612d4a565b95945050505050565b8281526040602082015260006122816040830184612d4a565b7f416363657373436f6e74726f6c3a206163636f756e7420000000000000000000815260008351613128816017850160208801612d26565b7f206973206d697373696e6720726f6c65200000000000000000000000000000006017918401918201528351613165816028840160208801612d26565b01602801949350505050565b85815260a06020820152600061318a60a0830187612d4a565b828103604084015261319c8187612d4a565b905082810360608401526131b08186612d4a565b905082810360808401526131c48185612d4a565b98975050505050505050565b80820281158282048414176103f1576103f1612f56565b634e487b7160e01b600052603260045260246000fd5b60008161320c5761320c612f56565b50600019019056fea264697066735822122075efd1f99001d48de74bb46b1ef84c4c199fda85c44789d2438ba2fe83ebc7e764736f6c63430008120033",
  "linkReferences": {},
  "deployedLinkReferences": {}
}