{
  "_format": "hh-sol-artifact-1",
  "contractName": "HypePoolUpgradeable",
  "sourceName": "contracts/upgradeable/HypePoolUpgradeable.sol",
  "abi": [
    {
      "inputs": [],
      "stateMutability": "nonpayable",
      "type": "constructor"
    },
    {
      "anonymous": false,
      "inputs": [
        {
          "indexed": false,
          "internalType": "uint8",
          "name": "version",
          "type": "uint8"
        }
      ],
      "name": "Initialized",
      "type": "event"
    },
    {
      "anonymous": false,
      "inputs": [
        {
          "indexed": true,
          "internalType": "address",
          "name": "previousOwner",
          "type": "address"
        },
        {
          "indexed": true,
          "internalType": "address",
          "name": "newOwner",
          "type": "address"
        }
      ],
      "name": "OwnershipTransferred",
      "type": "event"
    },
    {
      "anonymous": false,
      "inputs": [
        {
          "indexed": false,
          "internalType": "address",
          "name": "account",
          "type": "address"
        }
      ],
      "name": "Paused",
      "type": "event"
    },
    {
      "anonymous": false,
      "inputs": [
        {
          "indexed": false,
          "internalType": "uint256",
          "name": "poolId",
          "type": "uint256"
        },
        {
          "indexed": false,
          "internalType": "address",
          "name": "activator",
          "type": "address"
        }
      ],
      "name": "PoolActivated",
      "type": "event"
    },
    {
      "anonymous": false,
      "inputs": [
        {
          "indexed": false,
          "internalType": "uint256",
          "name": "poolId",
          "type": "uint256"
        },
        {
          "indexed": false,
          "internalType": "address",
          "name": "creator",
          "type": "address"
        },
        {
          "indexed": false,
          "internalType": "string",
          "name": "uri",
          "type": "string"
        }
      ],
      "name": "PoolCreated",
      "type": "event"
    },
    {
      "anonymous": false,
      "inputs": [
        {
          "indexed": false,
          "internalType": "uint256",
          "name": "poolId",
          "type": "uint256"
        },
        {
          "indexed": false,
          "internalType": "address",
          "name": "deactivator",
          "type": "address"
        }
      ],
      "name": "PoolDeactivated",
      "type": "event"
    },
    {
      "anonymous": false,
      "inputs": [
        {
          "indexed": false,
          "internalType": "uint256",
          "name": "poolId",
          "type": "uint256"
        },
        {
          "indexed": false,
          "internalType": "string",
          "name": "title",
          "type": "string"
        },
        {
          "indexed": false,
          "internalType": "string",
          "name": "projectName",
          "type": "string"
        },
        {
          "indexed": false,
          "internalType": "string",
          "name": "tokenName",
          "type": "string"
        },
        {
          "indexed": false,
          "internalType": "string",
          "name": "word",
          "type": "string"
        }
      ],
      "name": "PoolDetailsCreated",
      "type": "event"
    },
    {
      "anonymous": false,
      "inputs": [
        {
          "indexed": false,
          "internalType": "uint256",
          "name": "poolId",
          "type": "uint256"
        },
        {
          "indexed": false,
          "internalType": "uint256",
          "name": "network",
          "type": "uint256"
        },
        {
          "indexed": false,
          "internalType": "address",
          "name": "tokenAddress",
          "type": "address"
        },
        {
          "indexed": false,
          "internalType": "uint256",
          "name": "impressionReward",
          "type": "uint256"
        },
        {
          "indexed": false,
          "internalType": "uint256",
          "name": "cap",
          "type": "uint256"
        },
        {
          "indexed": false,
          "internalType": "uint256",
          "name": "endDate",
          "type": "uint256"
        }
      ],
      "name": "PoolRewardsCreated",
      "type": "event"
    },
    {
      "anonymous": false,
      "inputs": [
        {
          "indexed": false,
          "internalType": "uint256",
          "name": "poolId",
          "type": "uint256"
        },
        {
          "indexed": false,
          "internalType": "string",
          "name": "uri",
          "type": "string"
        }
      ],
      "name": "PoolUriSet",
      "type": "event"
    },
    {
      "anonymous": false,
      "inputs": [
        {
          "indexed": false,
          "internalType": "address",
          "name": "account",
          "type": "address"
        }
      ],
      "name": "Unpaused",
      "type": "event"
    },
    {
      "inputs": [
        {
          "internalType": "uint256",
          "name": "id",
          "type": "uint256"
        }
      ],
      "name": "activatePool",
      "outputs": [],
      "stateMutability": "nonpayable",
      "type": "function"
    },
    {
      "inputs": [
        {
          "internalType": "string",
          "name": "uri",
          "type": "string"
        },
        {
          "components": [
            {
              "internalType": "string",
              "name": "title",
              "type": "string"
            },
            {
              "internalType": "string",
              "name": "projectName",
              "type": "string"
            },
            {
              "internalType": "string",
              "name": "tokenName",
              "type": "string"
            },
            {
              "internalType": "string",
              "name": "word",
              "type": "string"
            }
          ],
          "internalType": "struct IHypePool.Details",
          "name": "details",
          "type": "tuple"
        },
        {
          "components": [
            {
              "internalType": "uint256",
              "name": "network",
              "type": "uint256"
            },
            {
              "internalType": "address",
              "name": "tokenAddress",
              "type": "address"
            },
            {
              "internalType": "uint256",
              "name": "impressionReward",
              "type": "uint256"
            },
            {
              "internalType": "uint256",
              "name": "cap",
              "type": "uint256"
            },
            {
              "internalType": "uint256",
              "name": "endDate",
              "type": "uint256"
            }
          ],
          "internalType": "struct IHypePool.Rewards",
          "name": "rewards",
          "type": "tuple"
        }
      ],
      "name": "createPool",
      "outputs": [
        {
          "components": [
            {
              "internalType": "uint256",
              "name": "id",
              "type": "uint256"
            },
            {
              "internalType": "address",
              "name": "creator",
              "type": "address"
            },
            {
              "internalType": "bool",
              "name": "active",
              "type": "bool"
            },
            {
              "components": [
                {
                  "internalType": "string",
                  "name": "title",
                  "type": "string"
                },
                {
                  "internalType": "string",
                  "name": "projectName",
                  "type": "string"
                },
                {
                  "internalType": "string",
                  "name": "tokenName",
                  "type": "string"
                },
                {
                  "internalType": "string",
                  "name": "word",
                  "type": "string"
                }
              ],
              "internalType": "struct IHypePool.Details",
              "name": "details",
              "type": "tuple"
            },
            {
              "components": [
                {
                  "internalType": "uint256",
                  "name": "network",
                  "type": "uint256"
                },
                {
                  "internalType": "address",
                  "name": "tokenAddress",
                  "type": "address"
                },
                {
                  "internalType": "uint256",
                  "name": "impressionReward",
                  "type": "uint256"
                },
                {
                  "internalType": "uint256",
                  "name": "cap",
                  "type": "uint256"
                },
                {
                  "internalType": "uint256",
                  "name": "endDate",
                  "type": "uint256"
                }
              ],
              "internalType": "struct IHypePool.Rewards",
              "name": "rewards",
              "type": "tuple"
            }
          ],
          "internalType": "struct IHypePool.HypePool",
          "name": "",
          "type": "tuple"
        }
      ],
      "stateMutability": "nonpayable",
      "type": "function"
    },
    {
      "inputs": [
        {
          "internalType": "uint256",
          "name": "id",
          "type": "uint256"
        }
      ],
      "name": "deactivatePool",
      "outputs": [],
      "stateMutability": "nonpayable",
      "type": "function"
    },
    {
      "inputs": [],
      "name": "getCurrentIndex",
      "outputs": [
        {
          "internalType": "uint256",
          "name": "",
          "type": "uint256"
        }
      ],
      "stateMutability": "view",
      "type": "function"
    },
    {
      "inputs": [
        {
          "internalType": "uint256",
          "name": "tokenId",
          "type": "uint256"
        }
      ],
      "name": "getPool",
      "outputs": [
        {
          "components": [
            {
              "internalType": "uint256",
              "name": "id",
              "type": "uint256"
            },
            {
              "internalType": "address",
              "name": "creator",
              "type": "address"
            },
            {
              "internalType": "bool",
              "name": "active",
              "type": "bool"
            },
            {
              "components": [
                {
                  "internalType": "string",
                  "name": "title",
                  "type": "string"
                },
                {
                  "internalType": "string",
                  "name": "projectName",
                  "type": "string"
                },
                {
                  "internalType": "string",
                  "name": "tokenName",
                  "type": "string"
                },
                {
                  "internalType": "string",
                  "name": "word",
                  "type": "string"
                }
              ],
              "internalType": "struct IHypePool.Details",
              "name": "details",
              "type": "tuple"
            },
            {
              "components": [
                {
                  "internalType": "uint256",
                  "name": "network",
                  "type": "uint256"
                },
                {
                  "internalType": "address",
                  "name": "tokenAddress",
                  "type": "address"
                },
                {
                  "internalType": "uint256",
                  "name": "impressionReward",
                  "type": "uint256"
                },
                {
                  "internalType": "uint256",
                  "name": "cap",
                  "type": "uint256"
                },
                {
                  "internalType": "uint256",
                  "name": "endDate",
                  "type": "uint256"
                }
              ],
              "internalType": "struct IHypePool.Rewards",
              "name": "rewards",
              "type": "tuple"
            }
          ],
          "internalType": "struct IHypePool.HypePool",
          "name": "",
          "type": "tuple"
        }
      ],
      "stateMutability": "view",
      "type": "function"
    },
    {
      "inputs": [
        {
          "internalType": "address",
          "name": "escrowContractAddress",
          "type": "address"
        }
      ],
      "name": "initialize",
      "outputs": [],
      "stateMutability": "nonpayable",
      "type": "function"
    },
    {
      "inputs": [],
      "name": "owner",
      "outputs": [
        {
          "internalType": "address",
          "name": "",
          "type": "address"
        }
      ],
      "stateMutability": "view",
      "type": "function"
    },
    {
      "inputs": [],
      "name": "pause",
      "outputs": [],
      "stateMutability": "nonpayable",
      "type": "function"
    },
    {
      "inputs": [],
      "name": "paused",
      "outputs": [
        {
          "internalType": "bool",
          "name": "",
          "type": "bool"
        }
      ],
      "stateMutability": "view",
      "type": "function"
    },
    {
      "inputs": [
        {
          "internalType": "uint256",
          "name": "tokenId",
          "type": "uint256"
        }
      ],
      "name": "poolURI",
      "outputs": [
        {
          "internalType": "string",
          "name": "",
          "type": "string"
        }
      ],
      "stateMutability": "view",
      "type": "function"
    },
    {
      "inputs": [],
      "name": "renounceOwnership",
      "outputs": [],
      "stateMutability": "nonpayable",
      "type": "function"
    },
    {
      "inputs": [
        {
          "internalType": "address",
          "name": "newOwner",
          "type": "address"
        }
      ],
      "name": "transferOwnership",
      "outputs": [],
      "stateMutability": "nonpayable",
      "type": "function"
    },
    {
      "inputs": [],
      "name": "unpause",
      "outputs": [],
      "stateMutability": "nonpayable",
      "type": "function"
    }
  ],
  "bytecode": "0x60806040523480156200001157600080fd5b506200001c62000022565b620000e4565b600054610100900460ff16156200008f5760405162461bcd60e51b815260206004820152602760248201527f496e697469616c697a61626c653a20636f6e747261637420697320696e697469604482015266616c697a696e6760c81b606482015260840160405180910390fd5b60005460ff9081161015620000e2576000805460ff191660ff9081179091556040519081527f7f26b83ff96e1f2b6a682f133852f6798a09c465da95921460cefb38474024989060200160405180910390a15b565b61254e80620000f46000396000f3fe608060405234801561001057600080fd5b50600436106100df5760003560e01c8063715018a61161008c5780639abd9b05116100665780639abd9b05146101a1578063c4d66de8146101b4578063f2fde38b146101c7578063fdc6d461146101da57600080fd5b8063715018a6146101765780638456cb591461017e5780638da5cb5b1461018657600080fd5b80631e2f4adc116100bd5780631e2f4adc146101385780633f4ba83a146101585780635c975abb1461016057600080fd5b8063068bcd8d146100e457806308f747dd1461010d5780630d9005ae14610122575b600080fd5b6100f76100f2366004611fc9565b6101ed565b604051610104919061202f565b60405180910390f35b61012061011b366004611fc9565b6104ed565b005b61012a610bb8565b604051908152602001610104565b61014b610146366004611fc9565b610bc8565b6040516101049190612129565b610120610c6a565b60335460ff166040519015158152602001610104565b610120610c7c565b610120610c8e565b6065546040516001600160a01b039091168152602001610104565b6101206101af366004611fc9565b610c9e565b6101206101c2366004612158565b6111c9565b6101206101d5366004612158565b611309565b6100f76101e83660046122ba565b611399565b6101f5611e95565b600082815260996020908152604091829020825160a0810184528154815260018201546001600160a01b03811693820193909352600160a01b90920460ff16151582840152825160808101909352600281018054929391926060850192919082908290610261906123cb565b80601f016020809104026020016040519081016040528092919081815260200182805461028d906123cb565b80156102da5780601f106102af576101008083540402835291602001916102da565b820191906000526020600020905b8154815290600101906020018083116102bd57829003601f168201915b505050505081526020016001820180546102f3906123cb565b80601f016020809104026020016040519081016040528092919081815260200182805461031f906123cb565b801561036c5780601f106103415761010080835404028352916020019161036c565b820191906000526020600020905b81548152906001019060200180831161034f57829003601f168201915b50505050508152602001600282018054610385906123cb565b80601f01602080910402602001604051908101604052809291908181526020018280546103b1906123cb565b80156103fe5780601f106103d3576101008083540402835291602001916103fe565b820191906000526020600020905b8154815290600101906020018083116103e157829003601f168201915b50505050508152602001600382018054610417906123cb565b80601f0160208091040260200160405190810160405280929190818152602001828054610443906123cb565b80156104905780601f1061046557610100808354040283529160200191610490565b820191906000526020600020905b81548152906001019060200180831161047357829003601f168201915b5050509190925250505081526040805160a0810182526006840154815260078401546001600160a01b031660208281019190915260088501549282019290925260098401546060820152600a909301546080840152015292915050565b6104f5611847565b6000818152609960209081526040808320815160a0810183528154815260018201546001600160a01b03811694820194909452600160a01b90930460ff16151583830152815160808101909252600281018054919260608501929091908290829061055f906123cb565b80601f016020809104026020016040519081016040528092919081815260200182805461058b906123cb565b80156105d85780601f106105ad576101008083540402835291602001916105d8565b820191906000526020600020905b8154815290600101906020018083116105bb57829003601f168201915b505050505081526020016001820180546105f1906123cb565b80601f016020809104026020016040519081016040528092919081815260200182805461061d906123cb565b801561066a5780601f1061063f5761010080835404028352916020019161066a565b820191906000526020600020905b81548152906001019060200180831161064d57829003601f168201915b50505050508152602001600282018054610683906123cb565b80601f01602080910402602001604051908101604052809291908181526020018280546106af906123cb565b80156106fc5780601f106106d1576101008083540402835291602001916106fc565b820191906000526020600020905b8154815290600101906020018083116106df57829003601f168201915b50505050508152602001600382018054610715906123cb565b80601f0160208091040260200160405190810160405280929190818152602001828054610741906123cb565b801561078e5780601f106107635761010080835404028352916020019161078e565b820191906000526020600020905b81548152906001019060200180831161077157829003601f168201915b5050509190925250505081526040805160a0810182526006840154815260078401546001600160a01b031660208281019190915260088501548284015260098501546060830152600a9094015460808083019190915293909201919091529082015101519091506000036108495760405162461bcd60e51b815260206004820152601260248201527f506f6f6c20646f65736e2774206578697374000000000000000000000000000060448201526064015b60405180910390fd5b60408101511561089b5760405162461bcd60e51b815260206004820152601660248201527f506f6f6c20697320616c726561647920616374697665000000000000000000006044820152606401610840565b6098546040517fae22192e000000000000000000000000000000000000000000000000000000008152336004820152602481018490526001600160a01b0390911690600090829063ae22192e90604401606060405180830381865afa158015610908573d6000803e3d6000fd5b505050506040513d601f19601f8201168201806040525081019061092c9190612405565b6080840151606001518151919250146109ad5760405162461bcd60e51b815260206004820152602860248201527f4465706f736974656420616d6f756e7420646f6573206e6f74206d617463682060448201527f706f6f6c206361700000000000000000000000000000000000000000000000006064820152608401610840565b8260800151602001516001600160a01b031681602001516001600160a01b031614610a405760405162461bcd60e51b815260206004820152603960248201527f4465706f736974656420746f6b656e206164647265737320646f6573206e6f7460448201527f206d6174636820706f6f6c20746f6b656e2061646472657373000000000000006064820152608401610840565b600160408085018281526000878152609960209081529290208651815582870151938101805492511515600160a01b0274ffffffffffffffffffffffffffffffffffffffffff199093166001600160a01b0390951694909417919091179092556060850151805180518794936002850192610ac19284929190910190611f30565b506020828101518051610ada9260018501920190611f30565b5060408201518051610af6916002840191602090910190611f30565b5060608201518051610b12916003840191602090910190611f30565b5050506080918201518051600683015560208101516007830180546001600160a01b039092166001600160a01b0319909216919091179055604080820151600884015560608201516009840155920151600a90910155517f4f7e91eea279f21fac65109d86b7d1dfceb5607c89313be67d8c2bf537f9ae0c90610baa90869033909182526001600160a01b0316602082015260400190565b60405180910390a150505050565b6000610bc360975490565b905090565b6000818152609a60205260409020805460609190610be5906123cb565b80601f0160208091040260200160405190810160405280929190818152602001828054610c11906123cb565b8015610c5e5780601f10610c3357610100808354040283529160200191610c5e565b820191906000526020600020905b815481529060010190602001808311610c4157829003601f168201915b50505050509050919050565b610c7261189a565b610c7a6118f4565b565b610c8461189a565b610c7a6000611946565b610c9661189a565b610c7a611998565b610ca6611847565b610cae61189a565b6000818152609960209081526040808320815160a0810183528154815260018201546001600160a01b03811694820194909452600160a01b90930460ff161515838301528151608081019092526002810180549192606085019290919082908290610d18906123cb565b80601f0160208091040260200160405190810160405280929190818152602001828054610d44906123cb565b8015610d915780601f10610d6657610100808354040283529160200191610d91565b820191906000526020600020905b815481529060010190602001808311610d7457829003601f168201915b50505050508152602001600182018054610daa906123cb565b80601f0160208091040260200160405190810160405280929190818152602001828054610dd6906123cb565b8015610e235780601f10610df857610100808354040283529160200191610e23565b820191906000526020600020905b815481529060010190602001808311610e0657829003601f168201915b50505050508152602001600282018054610e3c906123cb565b80601f0160208091040260200160405190810160405280929190818152602001828054610e68906123cb565b8015610eb55780601f10610e8a57610100808354040283529160200191610eb5565b820191906000526020600020905b815481529060010190602001808311610e9857829003601f168201915b50505050508152602001600382018054610ece906123cb565b80601f0160208091040260200160405190810160405280929190818152602001828054610efa906123cb565b8015610f475780601f10610f1c57610100808354040283529160200191610f47565b820191906000526020600020905b815481529060010190602001808311610f2a57829003601f168201915b5050509190925250505081526040805160a0810182526006840154815260078401546001600160a01b031660208281019190915260088501548284015260098501546060830152600a909401546080808301919091529390920191909152908201510151909150600003610ffd5760405162461bcd60e51b815260206004820152601260248201527f506f6f6c20646f65736e277420657869737400000000000000000000000000006044820152606401610840565b604081015115156001146110535760405162461bcd60e51b815260206004820152601860248201527f506f6f6c20697320616c726561647920696e61637469766500000000000000006044820152606401610840565b600060408083018281528483526099602090815291909220835181558184015160018201805494511515600160a01b0274ffffffffffffffffffffffffffffffffffffffffff199095166001600160a01b03909216919091179390931790925560608301518051805185949360028501926110d49284929190910190611f30565b5060208281015180516110ed9260018501920190611f30565b5060408201518051611109916002840191602090910190611f30565b5060608201518051611125916003840191602090910190611f30565b5050506080918201518051600683015560208101516007830180546001600160a01b039092166001600160a01b0319909216919091179055604080820151600884015560608201516009840155920151600a90910155517f72e6fc67ca93cc3cedc1e023204888c2cab750fbb5526e1faf3445c0327ee0ef906111bd90849033909182526001600160a01b0316602082015260400190565b60405180910390a15050565b600054610100900460ff16158080156111e95750600054600160ff909116105b806112035750303b158015611203575060005460ff166001145b6112755760405162461bcd60e51b815260206004820152602e60248201527f496e697469616c697a61626c653a20636f6e747261637420697320616c72656160448201527f647920696e697469616c697a65640000000000000000000000000000000000006064820152608401610840565b6000805460ff191660011790558015611298576000805461ff0019166101001790555b6112a06119d5565b609880546001600160a01b0319166001600160a01b0384161790556112c3611a48565b8015611305576000805461ff0019169055604051600181527f7f26b83ff96e1f2b6a682f133852f6798a09c465da95921460cefb3847402498906020016111bd565b5050565b61131161189a565b6001600160a01b03811661138d5760405162461bcd60e51b815260206004820152602660248201527f4f776e61626c653a206e6577206f776e657220697320746865207a65726f206160448201527f64647265737300000000000000000000000000000000000000000000000000006064820152608401610840565b61139681611946565b50565b6113a1611e95565b6113a9611847565b60008451116113fa5760405162461bcd60e51b815260206004820152601460248201527f4d697373696e67206d65746164617461205552490000000000000000000000006044820152606401610840565b600082606001511161144e5760405162461bcd60e51b815260206004820152601060248201527f496e76616c696420706f6f6c20636170000000000000000000000000000000006044820152606401610840565b428260800151116114c75760405162461bcd60e51b815260206004820152602960248201527f456e642064617465206d7573742062652061667465722063757272656e74206260448201527f6c6f636b2074696d6500000000000000000000000000000000000000000000006064820152608401610840565b600082604001511161151b5760405162461bcd60e51b815260206004820152601e60248201527f496e76616c696420696d7072657373696f6e20687970652072657761726400006044820152606401610840565b600061152660975490565b905061153481868686611abb565b61153e8186611c4f565b61154c609780546001019055565b600081815260996020908152604091829020825160a0810184528154815260018201546001600160a01b03811693820193909352600160a01b90920460ff161515828401528251608081019093526002810180549293919260608501929190829082906115b8906123cb565b80601f01602080910402602001604051908101604052809291908181526020018280546115e4906123cb565b80156116315780601f1061160657610100808354040283529160200191611631565b820191906000526020600020905b81548152906001019060200180831161161457829003601f168201915b5050505050815260200160018201805461164a906123cb565b80601f0160208091040260200160405190810160405280929190818152602001828054611676906123cb565b80156116c35780601f10611698576101008083540402835291602001916116c3565b820191906000526020600020905b8154815290600101906020018083116116a657829003601f168201915b505050505081526020016002820180546116dc906123cb565b80601f0160208091040260200160405190810160405280929190818152602001828054611708906123cb565b80156117555780601f1061172a57610100808354040283529160200191611755565b820191906000526020600020905b81548152906001019060200180831161173857829003601f168201915b5050505050815260200160038201805461176e906123cb565b80601f016020809104026020016040519081016040528092919081815260200182805461179a906123cb565b80156117e75780601f106117bc576101008083540402835291602001916117e7565b820191906000526020600020905b8154815290600101906020018083116117ca57829003601f168201915b5050509190925250505081526040805160a0810182526006840154815260078401546001600160a01b031660208083019190915260088501549282019290925260098401546060820152600a909301546080840152015295945050505050565b60335460ff1615610c7a5760405162461bcd60e51b815260206004820152601060248201527f5061757361626c653a20706175736564000000000000000000000000000000006044820152606401610840565b6065546001600160a01b03163314610c7a5760405162461bcd60e51b815260206004820181905260248201527f4f776e61626c653a2063616c6c6572206973206e6f7420746865206f776e65726044820152606401610840565b6118fc611ca0565b6033805460ff191690557f5db9ee0a495bf2e6ff9c91a7834c1ba4fdd244a5e8aa4e537bd38aeae4b073aa335b6040516001600160a01b03909116815260200160405180910390a1565b606580546001600160a01b038381166001600160a01b0319831681179093556040519116919082907f8be0079c531659141344cd1fd0a4f28419497f9722a3daafe3b4186f6b6457e090600090a35050565b6119a0611847565b6033805460ff191660011790557f62e78cea01bee320cd4e420270b5ea74000d11b0c9f74754ebdbfc544b05a2586119293390565b600054610100900460ff16611a405760405162461bcd60e51b815260206004820152602b60248201527f496e697469616c697a61626c653a20636f6e7472616374206973206e6f74206960448201526a6e697469616c697a696e6760a81b6064820152608401610840565b610c7a611cf2565b600054610100900460ff16611ab35760405162461bcd60e51b815260206004820152602b60248201527f496e697469616c697a61626c653a20636f6e7472616374206973206e6f74206960448201526a6e697469616c697a696e6760a81b6064820152608401610840565b610c7a611d69565b6040805160a081018252858152336020808301918252600083850181815260608501888152608086018890528a8352609984529590912084518155925160018401805492511515600160a01b0274ffffffffffffffffffffffffffffffffffffffffff199093166001600160a01b0392909216919091179190911790559251805180519394929391926002850192611b569284920190611f30565b506020828101518051611b6f9260018501920190611f30565b5060408201518051611b8b916002840191602090910190611f30565b5060608201518051611ba7916003840191602090910190611f30565b5050506080918201518051600683015560208101516007830180546001600160a01b0319166001600160a01b03909216919091179055604080820151600884015560608201516009840155920151600a90910155517fb22862363d492c0c7b9bcbfe63bcfbc715494dafb3b41d198d4bfcefea8a7c0390611c2d90869033908790612467565b60405180910390a1611c3f8483611ddd565b611c498482611e24565b50505050565b6000828152609a602090815260409091208251611c6e92840190611f30565b507f514efc4dbca754e32bfeb5dcb0c2d277953187ffd3b3eae36f7f9b5202e6f8ff82826040516111bd929190612498565b60335460ff16610c7a5760405162461bcd60e51b815260206004820152601460248201527f5061757361626c653a206e6f74207061757365640000000000000000000000006044820152606401610840565b600054610100900460ff16611d5d5760405162461bcd60e51b815260206004820152602b60248201527f496e697469616c697a61626c653a20636f6e7472616374206973206e6f74206960448201526a6e697469616c697a696e6760a81b6064820152608401610840565b6033805460ff19169055565b600054610100900460ff16611dd45760405162461bcd60e51b815260206004820152602b60248201527f496e697469616c697a61626c653a20636f6e7472616374206973206e6f74206960448201526a6e697469616c697a696e6760a81b6064820152608401610840565b610c7a33611946565b7f6c22bc8b6f750ff89627f593fa727443337309735486d0abf55f95f848f736838282600001518360200151846040015185606001516040516111bd9594939291906124b9565b805160208083015160408085015160608087015160808089015185518b8152978801989098526001600160a01b03909516938601939093528401529082015260a08101919091527f255f27475ab2e3e727ad3846e75212f8ffbe9000454633e5f5e17165d025d75d9060c0016111bd565b6040518060a001604052806000815260200160006001600160a01b03168152602001600015158152602001611eeb6040518060800160405280606081526020016060815260200160608152602001606081525090565b8152602001611f2b6040518060a001604052806000815260200160006001600160a01b031681526020016000815260200160008152602001600081525090565b905290565b828054611f3c906123cb565b90600052602060002090601f016020900481019282611f5e5760008555611fa4565b82601f10611f7757805160ff1916838001178555611fa4565b82800160010185558215611fa4579182015b82811115611fa4578251825591602001919060010190611f89565b50611fb0929150611fb4565b5090565b5b80821115611fb05760008155600101611fb5565b600060208284031215611fdb57600080fd5b5035919050565b6000815180845260005b8181101561200857602081850181015186830182015201611fec565b8181111561201a576000602083870101525b50601f01601f19169290920160200192915050565b60208152815160208201526001600160a01b036020830151166040820152604082015115156060820152600060608301516101206080840152805160806101408501526120806101c0850182611fe2565b9050602082015161013f1980868403016101608701526120a08383611fe2565b92506040840151915080868403016101808701526120be8383611fe2565b92506060840151935080868403016101a087015250506120de8183611fe2565b608095860151805160a087015260208101516001600160a01b031660c0870152604081015160e087015260608101516101008701529095015161012090940193909352509192915050565b60208152600061213c6020830184611fe2565b9392505050565b6001600160a01b038116811461139657600080fd5b60006020828403121561216a57600080fd5b813561213c81612143565b634e487b7160e01b600052604160045260246000fd5b6040516080810167ffffffffffffffff811182821017156121ae576121ae612175565b60405290565b600082601f8301126121c557600080fd5b813567ffffffffffffffff808211156121e0576121e0612175565b604051601f8301601f19908116603f0116810190828211818310171561220857612208612175565b8160405283815286602085880101111561222157600080fd5b836020870160208301376000602085830101528094505050505092915050565b600060a0828403121561225357600080fd5b60405160a0810181811067ffffffffffffffff8211171561227657612276612175565b60405282358152905080602083013561228e81612143565b806020830152506040830135604082015260608301356060820152608083013560808201525092915050565b600080600060e084860312156122cf57600080fd5b833567ffffffffffffffff808211156122e757600080fd5b6122f3878388016121b4565b9450602086013591508082111561230957600080fd5b908501906080828803121561231d57600080fd5b61232561218b565b82358281111561233457600080fd5b612340898286016121b4565b82525060208301358281111561235557600080fd5b612361898286016121b4565b60208301525060408301358281111561237957600080fd5b612385898286016121b4565b60408301525060608301358281111561239d57600080fd5b6123a9898286016121b4565b6060830152508094505050506123c28560408601612241565b90509250925092565b600181811c908216806123df57607f821691505b6020821081036123ff57634e487b7160e01b600052602260045260246000fd5b50919050565b60006060828403121561241757600080fd5b6040516060810181811067ffffffffffffffff8211171561243a5761243a612175565b60405282518152602083015161244f81612143565b60208201526040928301519281019290925250919050565b8381526001600160a01b038316602082015260606040820152600061248f6060830184611fe2565b95945050505050565b8281526040602082015260006124b16040830184611fe2565b949350505050565b85815260a0602082015260006124d260a0830187611fe2565b82810360408401526124e48187611fe2565b905082810360608401526124f88186611fe2565b9050828103608084015261250c8185611fe2565b9897505050505050505056fea2646970667358221220e402257055c8784ad99356b93993018e2b80e3d5836e2645189778be62c50b2164736f6c634300080e0033",
  "linkReferences": {},
  "deployedLinkReferences": {}
}