{
  "_format": "hh-sol-artifact-1",
  "contractName": "HypePoolUpgradeable",
  "sourceName": "contracts/upgradeable/HypePoolUpgradeable.sol",
  "abi": [
    {
      "inputs": [],
      "stateMutability": "nonpayable",
      "type": "constructor"
    },
    {
      "anonymous": false,
      "inputs": [
        {
          "indexed": false,
          "internalType": "uint8",
          "name": "version",
          "type": "uint8"
        }
      ],
      "name": "Initialized",
      "type": "event"
    },
    {
      "anonymous": false,
      "inputs": [
        {
          "indexed": true,
          "internalType": "address",
          "name": "previousOwner",
          "type": "address"
        },
        {
          "indexed": true,
          "internalType": "address",
          "name": "newOwner",
          "type": "address"
        }
      ],
      "name": "OwnershipTransferred",
      "type": "event"
    },
    {
      "anonymous": false,
      "inputs": [
        {
          "indexed": false,
          "internalType": "address",
          "name": "account",
          "type": "address"
        }
      ],
      "name": "Paused",
      "type": "event"
    },
    {
      "anonymous": false,
      "inputs": [
        {
          "indexed": false,
          "internalType": "uint256",
          "name": "poolId",
          "type": "uint256"
        },
        {
          "indexed": false,
          "internalType": "address",
          "name": "activator",
          "type": "address"
        }
      ],
      "name": "PoolActivated",
      "type": "event"
    },
    {
      "anonymous": false,
      "inputs": [
        {
          "indexed": false,
          "internalType": "uint256",
          "name": "poolId",
          "type": "uint256"
        },
        {
          "indexed": false,
          "internalType": "address",
          "name": "creator",
          "type": "address"
        },
        {
          "indexed": false,
          "internalType": "string",
          "name": "uri",
          "type": "string"
        }
      ],
      "name": "PoolCreated",
      "type": "event"
    },
    {
      "anonymous": false,
      "inputs": [
        {
          "indexed": false,
          "internalType": "uint256",
          "name": "poolId",
          "type": "uint256"
        },
        {
          "indexed": false,
          "internalType": "address",
          "name": "deactivator",
          "type": "address"
        }
      ],
      "name": "PoolDeactivated",
      "type": "event"
    },
    {
      "anonymous": false,
      "inputs": [
        {
          "indexed": false,
          "internalType": "uint256",
          "name": "poolId",
          "type": "uint256"
        },
        {
          "indexed": false,
          "internalType": "string",
          "name": "title",
          "type": "string"
        },
        {
          "indexed": false,
          "internalType": "string",
          "name": "projectName",
          "type": "string"
        },
        {
          "indexed": false,
          "internalType": "string",
          "name": "tokenName",
          "type": "string"
        },
        {
          "indexed": false,
          "internalType": "string",
          "name": "word",
          "type": "string"
        }
      ],
      "name": "PoolDetailsCreated",
      "type": "event"
    },
    {
      "anonymous": false,
      "inputs": [
        {
          "indexed": false,
          "internalType": "uint256",
          "name": "poolId",
          "type": "uint256"
        },
        {
          "indexed": false,
          "internalType": "uint256",
          "name": "network",
          "type": "uint256"
        },
        {
          "indexed": false,
          "internalType": "address",
          "name": "tokenAddress",
          "type": "address"
        },
        {
          "indexed": false,
          "internalType": "uint256",
          "name": "minReward",
          "type": "uint256"
        },
        {
          "indexed": false,
          "internalType": "uint256",
          "name": "impressionReward",
          "type": "uint256"
        },
        {
          "indexed": false,
          "internalType": "uint256",
          "name": "cap",
          "type": "uint256"
        },
        {
          "indexed": false,
          "internalType": "uint256",
          "name": "endDate",
          "type": "uint256"
        }
      ],
      "name": "PoolRewardsCreated",
      "type": "event"
    },
    {
      "anonymous": false,
      "inputs": [
        {
          "indexed": false,
          "internalType": "uint256",
          "name": "poolId",
          "type": "uint256"
        },
        {
          "indexed": false,
          "internalType": "string",
          "name": "uri",
          "type": "string"
        }
      ],
      "name": "PoolUriSet",
      "type": "event"
    },
    {
      "anonymous": false,
      "inputs": [
        {
          "indexed": false,
          "internalType": "address",
          "name": "account",
          "type": "address"
        }
      ],
      "name": "Unpaused",
      "type": "event"
    },
    {
      "inputs": [
        {
          "internalType": "uint256",
          "name": "id",
          "type": "uint256"
        }
      ],
      "name": "activatePool",
      "outputs": [],
      "stateMutability": "nonpayable",
      "type": "function"
    },
    {
      "inputs": [
        {
          "internalType": "string",
          "name": "uri",
          "type": "string"
        },
        {
          "components": [
            {
              "internalType": "string",
              "name": "title",
              "type": "string"
            },
            {
              "internalType": "string",
              "name": "projectName",
              "type": "string"
            },
            {
              "internalType": "string",
              "name": "tokenName",
              "type": "string"
            },
            {
              "internalType": "string",
              "name": "word",
              "type": "string"
            }
          ],
          "internalType": "struct IHypePool.Details",
          "name": "details",
          "type": "tuple"
        },
        {
          "components": [
            {
              "internalType": "uint256",
              "name": "network",
              "type": "uint256"
            },
            {
              "internalType": "address",
              "name": "tokenAddress",
              "type": "address"
            },
            {
              "internalType": "uint256",
              "name": "minReward",
              "type": "uint256"
            },
            {
              "internalType": "uint256",
              "name": "impressionReward",
              "type": "uint256"
            },
            {
              "internalType": "uint256",
              "name": "cap",
              "type": "uint256"
            },
            {
              "internalType": "uint256",
              "name": "endDate",
              "type": "uint256"
            }
          ],
          "internalType": "struct IHypePool.Rewards",
          "name": "rewards",
          "type": "tuple"
        }
      ],
      "name": "createPool",
      "outputs": [
        {
          "components": [
            {
              "internalType": "uint256",
              "name": "id",
              "type": "uint256"
            },
            {
              "internalType": "address",
              "name": "creator",
              "type": "address"
            },
            {
              "internalType": "bool",
              "name": "active",
              "type": "bool"
            },
            {
              "components": [
                {
                  "internalType": "string",
                  "name": "title",
                  "type": "string"
                },
                {
                  "internalType": "string",
                  "name": "projectName",
                  "type": "string"
                },
                {
                  "internalType": "string",
                  "name": "tokenName",
                  "type": "string"
                },
                {
                  "internalType": "string",
                  "name": "word",
                  "type": "string"
                }
              ],
              "internalType": "struct IHypePool.Details",
              "name": "details",
              "type": "tuple"
            },
            {
              "components": [
                {
                  "internalType": "uint256",
                  "name": "network",
                  "type": "uint256"
                },
                {
                  "internalType": "address",
                  "name": "tokenAddress",
                  "type": "address"
                },
                {
                  "internalType": "uint256",
                  "name": "minReward",
                  "type": "uint256"
                },
                {
                  "internalType": "uint256",
                  "name": "impressionReward",
                  "type": "uint256"
                },
                {
                  "internalType": "uint256",
                  "name": "cap",
                  "type": "uint256"
                },
                {
                  "internalType": "uint256",
                  "name": "endDate",
                  "type": "uint256"
                }
              ],
              "internalType": "struct IHypePool.Rewards",
              "name": "rewards",
              "type": "tuple"
            }
          ],
          "internalType": "struct IHypePool.HypePool",
          "name": "",
          "type": "tuple"
        }
      ],
      "stateMutability": "nonpayable",
      "type": "function"
    },
    {
      "inputs": [
        {
          "internalType": "uint256",
          "name": "id",
          "type": "uint256"
        }
      ],
      "name": "deactivatePool",
      "outputs": [],
      "stateMutability": "nonpayable",
      "type": "function"
    },
    {
      "inputs": [],
      "name": "getCurrentIndex",
      "outputs": [
        {
          "internalType": "uint256",
          "name": "",
          "type": "uint256"
        }
      ],
      "stateMutability": "view",
      "type": "function"
    },
    {
      "inputs": [
        {
          "internalType": "uint256",
          "name": "tokenId",
          "type": "uint256"
        }
      ],
      "name": "getPool",
      "outputs": [
        {
          "components": [
            {
              "internalType": "uint256",
              "name": "id",
              "type": "uint256"
            },
            {
              "internalType": "address",
              "name": "creator",
              "type": "address"
            },
            {
              "internalType": "bool",
              "name": "active",
              "type": "bool"
            },
            {
              "components": [
                {
                  "internalType": "string",
                  "name": "title",
                  "type": "string"
                },
                {
                  "internalType": "string",
                  "name": "projectName",
                  "type": "string"
                },
                {
                  "internalType": "string",
                  "name": "tokenName",
                  "type": "string"
                },
                {
                  "internalType": "string",
                  "name": "word",
                  "type": "string"
                }
              ],
              "internalType": "struct IHypePool.Details",
              "name": "details",
              "type": "tuple"
            },
            {
              "components": [
                {
                  "internalType": "uint256",
                  "name": "network",
                  "type": "uint256"
                },
                {
                  "internalType": "address",
                  "name": "tokenAddress",
                  "type": "address"
                },
                {
                  "internalType": "uint256",
                  "name": "minReward",
                  "type": "uint256"
                },
                {
                  "internalType": "uint256",
                  "name": "impressionReward",
                  "type": "uint256"
                },
                {
                  "internalType": "uint256",
                  "name": "cap",
                  "type": "uint256"
                },
                {
                  "internalType": "uint256",
                  "name": "endDate",
                  "type": "uint256"
                }
              ],
              "internalType": "struct IHypePool.Rewards",
              "name": "rewards",
              "type": "tuple"
            }
          ],
          "internalType": "struct IHypePool.HypePool",
          "name": "",
          "type": "tuple"
        }
      ],
      "stateMutability": "view",
      "type": "function"
    },
    {
      "inputs": [
        {
          "internalType": "address",
          "name": "escrowContractAddress",
          "type": "address"
        }
      ],
      "name": "initialize",
      "outputs": [],
      "stateMutability": "nonpayable",
      "type": "function"
    },
    {
      "inputs": [],
      "name": "owner",
      "outputs": [
        {
          "internalType": "address",
          "name": "",
          "type": "address"
        }
      ],
      "stateMutability": "view",
      "type": "function"
    },
    {
      "inputs": [],
      "name": "pause",
      "outputs": [],
      "stateMutability": "nonpayable",
      "type": "function"
    },
    {
      "inputs": [],
      "name": "paused",
      "outputs": [
        {
          "internalType": "bool",
          "name": "",
          "type": "bool"
        }
      ],
      "stateMutability": "view",
      "type": "function"
    },
    {
      "inputs": [
        {
          "internalType": "uint256",
          "name": "tokenId",
          "type": "uint256"
        }
      ],
      "name": "poolURI",
      "outputs": [
        {
          "internalType": "string",
          "name": "",
          "type": "string"
        }
      ],
      "stateMutability": "view",
      "type": "function"
    },
    {
      "inputs": [],
      "name": "renounceOwnership",
      "outputs": [],
      "stateMutability": "nonpayable",
      "type": "function"
    },
    {
      "inputs": [
        {
          "internalType": "address",
          "name": "newOwner",
          "type": "address"
        }
      ],
      "name": "transferOwnership",
      "outputs": [],
      "stateMutability": "nonpayable",
      "type": "function"
    },
    {
      "inputs": [],
      "name": "unpause",
      "outputs": [],
      "stateMutability": "nonpayable",
      "type": "function"
    }
  ],
  "bytecode": "0x60806040523480156200001157600080fd5b50620000467ffddf4e0b645e4e1586f55aa4105804d08abb090612da010592fe1541cf2233c360001b620000c460201b60201c565b6200007a7f71b7c46cc94a2a26fd5a5d1ad8ae8805a26796fc3e7b036cb1dc38a8529159e260001b620000c460201b60201c565b620000ae7f07d6f66c8f49210abb2cbbd37690e0fd77d215db20bfe3e9f7c078defdb0498b60001b620000c460201b60201c565b620000be620000c760201b60201c565b62000272565b50565b600060019054906101000a900460ff16156200011a576040517f08c379a0000000000000000000000000000000000000000000000000000000008152600401620001119062000215565b60405180910390fd5b60ff801660008054906101000a900460ff1660ff1610156200018c5760ff6000806101000a81548160ff021916908360ff1602179055507f7f26b83ff96e1f2b6a682f133852f6798a09c465da95921460cefb384740249860ff60405162000183919062000255565b60405180910390a15b565b600082825260208201905092915050565b7f496e697469616c697a61626c653a20636f6e747261637420697320696e69746960008201527f616c697a696e6700000000000000000000000000000000000000000000000000602082015250565b6000620001fd6027836200018e565b91506200020a826200019f565b604082019050919050565b600060208201905081810360008301526200023081620001ee565b9050919050565b600060ff82169050919050565b6200024f8162000237565b82525050565b60006020820190506200026c600083018462000244565b92915050565b614c1d80620002826000396000f3fe608060405234801561001057600080fd5b50600436106100df5760003560e01c80636e6c05581161008c5780638da5cb5b116100665780638da5cb5b146101ea5780639abd9b0514610208578063c4d66de814610224578063f2fde38b14610240576100df565b80636e6c0558146101a6578063715018a6146101d65780638456cb59146101e0576100df565b80631e2f4adc116100bd5780631e2f4adc1461014e5780633f4ba83a1461017e5780635c975abb14610188576100df565b8063068bcd8d146100e457806308f747dd146101145780630d9005ae14610130575b600080fd5b6100fe60048036038101906100f991906139ca565b61025c565b60405161010b9190613c65565b60405180910390f35b61012e600480360381019061012991906139ca565b610680565b005b6101386112f8565b6040516101459190613c96565b60405180910390f35b610168600480360381019061016391906139ca565b61138d565b6040516101759190613cfb565b60405180910390f35b6101866114b6565b005b61019061154c565b60405161019d9190613d2c565b60405180910390f35b6101c060048036038101906101bb919061403a565b611563565b6040516101cd9190613c65565b60405180910390f35b6101de611fef565b005b6101e8612003565b005b6101f2612099565b6040516101ff91906140d5565b60405180910390f35b610222600480360381019061021d91906139ca565b6120c3565b005b61023e600480360381019061023991906140f0565b6129c3565b005b61025a600480360381019061025591906140f0565b612c7f565b005b610264613816565b6102907f646f69cdc24ee7d502b1845230ef4a2e97d9dd2d15db494686d17feaa4e85db660001b612d02565b6102bc7f9ac35b442decb435f917b31b094d847473b8279f42a99fe93107e41be3cae6f460001b612d02565b6102e87fc8e9b33ebb9608bb5cad98864dc0188c3e6aebb8d629bd0fb676714a99261afd60001b612d02565b609960008381526020019081526020016000206040518060a0016040529081600082015481526020016001820160009054906101000a900473ffffffffffffffffffffffffffffffffffffffff1673ffffffffffffffffffffffffffffffffffffffff1673ffffffffffffffffffffffffffffffffffffffff1681526020016001820160149054906101000a900460ff16151515158152602001600282016040518060800160405290816000820180546103a19061414c565b80601f01602080910402602001604051908101604052809291908181526020018280546103cd9061414c565b801561041a5780601f106103ef5761010080835404028352916020019161041a565b820191906000526020600020905b8154815290600101906020018083116103fd57829003601f168201915b505050505081526020016001820180546104339061414c565b80601f016020809104026020016040519081016040528092919081815260200182805461045f9061414c565b80156104ac5780601f10610481576101008083540402835291602001916104ac565b820191906000526020600020905b81548152906001019060200180831161048f57829003601f168201915b505050505081526020016002820180546104c59061414c565b80601f01602080910402602001604051908101604052809291908181526020018280546104f19061414c565b801561053e5780601f106105135761010080835404028352916020019161053e565b820191906000526020600020905b81548152906001019060200180831161052157829003601f168201915b505050505081526020016003820180546105579061414c565b80601f01602080910402602001604051908101604052809291908181526020018280546105839061414c565b80156105d05780601f106105a5576101008083540402835291602001916105d0565b820191906000526020600020905b8154815290600101906020018083116105b357829003601f168201915b5050505050815250508152602001600682016040518060c0016040529081600082015481526020016001820160009054906101000a900473ffffffffffffffffffffffffffffffffffffffff1673ffffffffffffffffffffffffffffffffffffffff1673ffffffffffffffffffffffffffffffffffffffff168152602001600282015481526020016003820154815260200160048201548152602001600582015481525050815250509050919050565b610688612d05565b6106b47f70bc6cef4d8d5694b1d0676e07a99637840cfaace22b391d6fc22845e0d9c32160001b612d02565b6106e07f3ce3144f6bca2c7cc42b818b4524dbed26d8f23fc209b21629a128af3eeccd0260001b612d02565b61070c7f7f3cd92c2cab2830f6f14c97ec36eb85e396c96c7514a041410463e2709a7ae860001b612d02565b6000609960008381526020019081526020016000206040518060a0016040529081600082015481526020016001820160009054906101000a900473ffffffffffffffffffffffffffffffffffffffff1673ffffffffffffffffffffffffffffffffffffffff1673ffffffffffffffffffffffffffffffffffffffff1681526020016001820160149054906101000a900460ff16151515158152602001600282016040518060800160405290816000820180546107c79061414c565b80601f01602080910402602001604051908101604052809291908181526020018280546107f39061414c565b80156108405780601f1061081557610100808354040283529160200191610840565b820191906000526020600020905b81548152906001019060200180831161082357829003601f168201915b505050505081526020016001820180546108599061414c565b80601f01602080910402602001604051908101604052809291908181526020018280546108859061414c565b80156108d25780601f106108a7576101008083540402835291602001916108d2565b820191906000526020600020905b8154815290600101906020018083116108b557829003601f168201915b505050505081526020016002820180546108eb9061414c565b80601f01602080910402602001604051908101604052809291908181526020018280546109179061414c565b80156109645780601f1061093957610100808354040283529160200191610964565b820191906000526020600020905b81548152906001019060200180831161094757829003601f168201915b5050505050815260200160038201805461097d9061414c565b80601f01602080910402602001604051908101604052809291908181526020018280546109a99061414c565b80156109f65780601f106109cb576101008083540402835291602001916109f6565b820191906000526020600020905b8154815290600101906020018083116109d957829003601f168201915b5050505050815250508152602001600682016040518060c0016040529081600082015481526020016001820160009054906101000a900473ffffffffffffffffffffffffffffffffffffffff1673ffffffffffffffffffffffffffffffffffffffff1673ffffffffffffffffffffffffffffffffffffffff168152602001600282015481526020016003820154815260200160048201548152602001600582015481525050815250509050610acd7f765081f1586fb3f815260d331b89f797198e78c7d35890d1cc7f0a43bb7eea8260001b612d02565b610af97fa2cfa77b94a3237a350cd16e3eea4f061863f9c3e4870f795fe54fb4e8590db960001b612d02565b610b257fe77c36bed89ca28c171cf29dc36b1a32345f9220a7e9571f13f0fa0d2320211860001b612d02565b600081608001516040015103610b70576040517f08c379a0000000000000000000000000000000000000000000000000000000008152600401610b67906141c9565b60405180910390fd5b610b9c7f8b0649e4a1151cce91cfe119b2c0dcb549be9fa0765bcf53971f74e9f5c65e5a60001b612d02565b610bc77e958215021424d9772e338bf674e3382fe88577777f75b3b45d04b17dc61e4760001b612d02565b610bf37f154b9cf4fc4ca1addb109e530a4efcdbfd2440f28988009ab429609af4339fc960001b612d02565b610c1f7ff3aefd78ce253a78f8b7cdc19f633912b7868a1e25f1910e859040e57ebafc9360001b612d02565b600015158160400151151514610c6a576040517f08c379a0000000000000000000000000000000000000000000000000000000008152600401610c6190614235565b60405180910390fd5b610c967f211aff74d84208b3b3cbe00d02d36e6ac4e43826ed366bb568c8875ba2b8a6b160001b612d02565b610cc27f82631f02e12a0156d075d924ff3acc837cf07eae335fb8b053b96ca13c39153d60001b612d02565b610cee7fe414c747960a19ddf268913846d46fbd8b25eaaf13b7ffecb692ae4e8d7c722a60001b612d02565b6000609860009054906101000a900473ffffffffffffffffffffffffffffffffffffffff169050610d417f2660be2b9b79ccc53ba8c649f6b16df217ff6dee602fb8a139fe0356a1776f0160001b612d02565b610d6d7f9888bfd9593e0f356a4e75640321b47b8a77db89bd419abf6b0a3cf03b9b7d0d60001b612d02565b60008173ffffffffffffffffffffffffffffffffffffffff1663ae22192e33866040518363ffffffff1660e01b8152600401610daa929190614255565b606060405180830381865afa158015610dc7573d6000803e3d6000fd5b505050506040513d601f19601f82011682018060405250810190610deb919061430c565b9050610e197f384d1110f274a018cde236e25943081afd00020a284b4ff8f6cbe8c9f877816160001b612d02565b610e457fe9f21cb5219b16d198031cadf47207e8738060240f1d0ead158b9943980de3cd60001b612d02565b610e717fb071d8c1b60d6130ae56e3822018227a939446545cfe378d171a69c7af5eece860001b612d02565b826080015160800151816000015114610ebf576040517f08c379a0000000000000000000000000000000000000000000000000000000008152600401610eb6906143ab565b60405180910390fd5b610eeb7fad63246d629375070ff2d689d712c480213dedda4051029206fc6282fdf265cf60001b612d02565b610f177f49af0241d5afd4e9bc9636536069ee785a233468927257eabc98090b973fcbc860001b612d02565b610f437ff769e2457aca65f0ff9ea2546eb9e53f2b7da01a8e207181779cd1f73eed747d60001b612d02565b610f6f7f16fa67bfe4151c6fc7db85957ec1cc05b2a63e465f2146315271ebc185e448d260001b612d02565b82608001516020015173ffffffffffffffffffffffffffffffffffffffff16816020015173ffffffffffffffffffffffffffffffffffffffff1614610fe9576040517f08c379a0000000000000000000000000000000000000000000000000000000008152600401610fe09061443d565b60405180910390fd5b6110157fbcb419c4c7f18f23e0d0c3e693226ee309e9280e9baa5ad576a1f897d33002b460001b612d02565b6110417fe927ef445f58fa464a808340649949848f7f33275d2545a0794676c083cb805160001b612d02565b61106d7fe86f5fc51d9ab0bbbbd305469bf9bd954ebf6624d2023d8edbe50b4ab7ba2c2960001b612d02565b60018360400190151590811515815250506110aa7f4e9f6df8ad935ebc49f97c228ba8fc9aaac86837a4ce7fcde3feff6ed53de71260001b612d02565b6110d67f661015698a2e2885d6728115d775069f4b05149fb4cc52088d9df8dc04dd0bb460001b612d02565b82609960008681526020019081526020016000206000820151816000015560208201518160010160006101000a81548173ffffffffffffffffffffffffffffffffffffffff021916908373ffffffffffffffffffffffffffffffffffffffff16021790555060408201518160010160146101000a81548160ff0219169083151502179055506060820151816002016000820151816000019080519060200190611180929190613869565b50602082015181600101908051906020019061119d929190613869565b5060408201518160020190805190602001906111ba929190613869565b5060608201518160030190805190602001906111d7929190613869565b5050506080820151816006016000820151816000015560208201518160010160006101000a81548173ffffffffffffffffffffffffffffffffffffffff021916908373ffffffffffffffffffffffffffffffffffffffff16021790555060408201518160020155606082015181600301556080820151816004015560a08201518160050155505090505061128d7f894ff9f9895d02c4f6d4aa7cf7c4a6ceab6bfb3bf9c46fdc813f5c95c1ca818160001b612d02565b6112b97f361e546cb1051e68aed5fba84d35e4d747b264ac38a65e323c49c35ebc3c2a4360001b612d02565b7f4f7e91eea279f21fac65109d86b7d1dfceb5607c89313be67d8c2bf537f9ae0c84336040516112ea92919061445d565b60405180910390a150505050565b60006113267fd070e1a4f3aca6107a56be75391f22a9e2faafa4dc44b6744fd1d57ec403723760001b612d02565b6113527f2b12d4e8869a17562d8152beca65466d732491fc77fa577e414aaf065b9d891460001b612d02565b61137e7fd58b20896943ee1290f19d84e348d9ceb32ebd3a64c9af63f1b24ca88810960060001b612d02565b6113886097612d4f565b905090565b60606113bb7f817d09ef053c938b9abde8ddb9270ed21939b1c448f81d92848c45d24eb9c2be60001b612d02565b6113e77fd1dd265e27cf0c30f89d9b8e4ff8db5501a6cafc4b01512df8f5accb1aaea6c960001b612d02565b6114137fe2b0f58c4b0faa6164b29e4152304b13ce18a180b238302ee17e085b8bf03cc560001b612d02565b609a600083815260200190815260200160002080546114319061414c565b80601f016020809104026020016040519081016040528092919081815260200182805461145d9061414c565b80156114aa5780601f1061147f576101008083540402835291602001916114aa565b820191906000526020600020905b81548152906001019060200180831161148d57829003601f168201915b50505050509050919050565b6114be612d5d565b6114ea7fe6ebd5ce237053da57e82f25d2188986d798d46bf8ebb039c3c0e1381f8c287560001b612d02565b6115167f0c7a9aaec51b5c019e24dc97c64baa29114de09c53a86a2d21c29c93ec7063c560001b612d02565b6115427f7e4d4098b7c17f55a61336db5b3c70aeec4cb7d296635a5b72f9555c72fb612c60001b612d02565b61154a612ddb565b565b6000603360009054906101000a900460ff16905090565b61156b613816565b611573612d05565b61159f7fa6571a89c6eedf394bc7cb24efcb52b8439d69602578a20fbfc639ac3b365b1b60001b612d02565b6115cb7f768bb1800f498674d7850bd1fadedc658e77cadcdb48aa0ac67f004971e82b2f60001b612d02565b6115f77fe511a6dc3e71fa84b1aef6dce52ccad66571136f06fb9e922f34e778f5a60bb260001b612d02565b6116237f1b198c892f8685568d76627e74b15989985e8fd58709240438db74bad44e048860001b612d02565b6000845111611667576040517f08c379a000000000000000000000000000000000000000000000000000000000815260040161165e906144d2565b60405180910390fd5b6116937f568f8e5a29307c322f38dad0a6855eb0287c25a81434a4c2dc9f875a58c7942a60001b612d02565b6116bf7fe588f1fa86d007731ebd481ef1e07748593223f79369c1ee1fefb7a6de0ceeac60001b612d02565b6116eb7ff4408db7bf53d9755355e2cc1aba846d1a18500638a55b0220a1240b5870e2d260001b612d02565b6117177ff96f4f99a5e96be6b87ff4f4f72af5e97a80cc83137b98cdf75f1172f1f4edee60001b612d02565b600082608001511161175e576040517f08c379a00000000000000000000000000000000000000000000000000000000081526004016117559061453e565b60405180910390fd5b61178a7fd4b8e9170b2ae00cdbadc6f38c651604220195762123384995e162a177da3f9160001b612d02565b6117b67f69345c52a485c6615fd2a4903aa9e21062b9784f9ab1ca67b722ccd7fc88b00560001b612d02565b6117e27f7888bff709903bdb2175c6a1769123487e9319c90e9699d7198c1ef91cc0879c60001b612d02565b61180e7ffccbfb41edcb1bb3da845e9c6a42136572259fa00a37d88b698d9da99b81e0c660001b612d02565b428260a0015111611854576040517f08c379a000000000000000000000000000000000000000000000000000000000815260040161184b906145d0565b60405180910390fd5b6118807fc328258e59ee722887265634b0a7d225c531c1595892dd117715c521ccf0bb4a60001b612d02565b6118ac7f4d2a8bff434426f1b7df3c20b3946ae909ddb68346dee8a104a54568230e5d5b60001b612d02565b6118d87f074dd4fc868bf3ecdaf127ae7cde77d5e4f490cffffbea2d8404682a0a733e6460001b612d02565b6119047f8e20f6ef304b273c32c6653e651aa6d422244696bf2830e1d0e31cb669cbde6b60001b612d02565b600082604001511161194b576040517f08c379a00000000000000000000000000000000000000000000000000000000081526004016119429061463c565b60405180910390fd5b6119777f73ddf4c29ae21f71ba02e3d63bac02ba15da3d4663df4958bd12b1d41f719ecf60001b612d02565b6119a37f624c016769049723edd589f7e73554dcfbb5da8330cb80aad33edd9613eeab8b60001b612d02565b6119cf7fd0054c061cef6522e1b9040483bf6fadb6036ed4cadef667a492c4b55904fc1c60001b612d02565b6119fb7fcf2561601307d6de3c716ec10d41061b732a0a5e948b860f9bd60cf6a69a86c260001b612d02565b6000826060015111611a42576040517f08c379a0000000000000000000000000000000000000000000000000000000008152600401611a39906146a8565b60405180910390fd5b611a6e7f62844cf16524318cf552c20d34dd77ef0cfcfc0af035fcfd71b9c23f4cc8472b60001b612d02565b611a9a7f58d93cc87e2a95fe6017ff680b339b63a33c0e491483fed87648ea8d392f01e760001b612d02565b611ac67fda3f36fd517cfb98b0e41971d51572aeb430ba7a069b2bd18179e529aae181df60001b612d02565b6000611ad26097612d4f565b9050611b007fffec12828cd3dc26d1a56011ed8366ecc5be04f27fd1a63228b2bbe5105386f560001b612d02565b611b2c7fae1ac5908227ef713547340751ff6564878ac2fe74eb2074730cddb02c155bdc60001b612d02565b611b3881868686612e3e565b611b647f7f293e9f62ba40ca86b3fdcfad54e959e94c58275bf1521d95bf577633f284fe60001b612d02565b611b907fa7a628a6413d9dee892f4fe0a4a25b5a3936dfeda54cf886a89161beab73196f60001b612d02565b611b9a81866131e9565b611bc67f99a4d09bdff4b31c0f586590abdb8df16eaa84b6be72977abe7b0bb05f6ba3db60001b612d02565b611bf27fef34db5e0cdefb7f74d981b22d0ee20b70db825265b734496bbfe655eb574f4f60001b612d02565b611bfc609761332a565b611c287febe39c4584cf306e6929ea564ac6aed7b95f85cf30c130b0bd885d2705915ab860001b612d02565b611c547f141bf14d6f11552c463453a1c7bd18c2b0492c233c60b7d9f55ca3df0fe7640760001b612d02565b609960008281526020019081526020016000206040518060a0016040529081600082015481526020016001820160009054906101000a900473ffffffffffffffffffffffffffffffffffffffff1673ffffffffffffffffffffffffffffffffffffffff1673ffffffffffffffffffffffffffffffffffffffff1681526020016001820160149054906101000a900460ff1615151515815260200160028201604051806080016040529081600082018054611d0d9061414c565b80601f0160208091040260200160405190810160405280929190818152602001828054611d399061414c565b8015611d865780601f10611d5b57610100808354040283529160200191611d86565b820191906000526020600020905b815481529060010190602001808311611d6957829003601f168201915b50505050508152602001600182018054611d9f9061414c565b80601f0160208091040260200160405190810160405280929190818152602001828054611dcb9061414c565b8015611e185780601f10611ded57610100808354040283529160200191611e18565b820191906000526020600020905b815481529060010190602001808311611dfb57829003601f168201915b50505050508152602001600282018054611e319061414c565b80601f0160208091040260200160405190810160405280929190818152602001828054611e5d9061414c565b8015611eaa5780601f10611e7f57610100808354040283529160200191611eaa565b820191906000526020600020905b815481529060010190602001808311611e8d57829003601f168201915b50505050508152602001600382018054611ec39061414c565b80601f0160208091040260200160405190810160405280929190818152602001828054611eef9061414c565b8015611f3c5780601f10611f1157610100808354040283529160200191611f3c565b820191906000526020600020905b815481529060010190602001808311611f1f57829003601f168201915b5050505050815250508152602001600682016040518060c0016040529081600082015481526020016001820160009054906101000a900473ffffffffffffffffffffffffffffffffffffffff1673ffffffffffffffffffffffffffffffffffffffff1673ffffffffffffffffffffffffffffffffffffffff168152602001600282015481526020016003820154815260200160048201548152602001600582015481525050815250509150509392505050565b611ff7612d5d565b6120016000613340565b565b61200b612d5d565b6120377f2e61c835374767ad9850009652d32d62487e8b4682a0b8714f1e37563b80e20960001b612d02565b6120637fc59ed0113fce8844ed7fed86069ed49ef9366abafb8f7a8fbdc86de917007c5560001b612d02565b61208f7fb57fd40569cff87ed7de874bbd547cf22cb1101f84fe8e98593c0cb932d8c2d660001b612d02565b612097613406565b565b6000606560009054906101000a900473ffffffffffffffffffffffffffffffffffffffff16905090565b6120cb612d05565b6120d3612d5d565b6120ff7f6c65ff2aeff29d8312ee5b8e18cb18d9a830c8263f2e53723c786ace4b58dac860001b612d02565b61212b7f4a61a0c4ee5b4d323d4095bff2b87235a1f0f8db1d97c08f86267720c5e34d1960001b612d02565b6121577f85d920dd0266f47ecd3ba1b70e7352e4994ee690a1ab9968d0bc91baccc9670e60001b612d02565b6000609960008381526020019081526020016000206040518060a0016040529081600082015481526020016001820160009054906101000a900473ffffffffffffffffffffffffffffffffffffffff1673ffffffffffffffffffffffffffffffffffffffff1673ffffffffffffffffffffffffffffffffffffffff1681526020016001820160149054906101000a900460ff16151515158152602001600282016040518060800160405290816000820180546122129061414c565b80601f016020809104026020016040519081016040528092919081815260200182805461223e9061414c565b801561228b5780601f106122605761010080835404028352916020019161228b565b820191906000526020600020905b81548152906001019060200180831161226e57829003601f168201915b505050505081526020016001820180546122a49061414c565b80601f01602080910402602001604051908101604052809291908181526020018280546122d09061414c565b801561231d5780601f106122f25761010080835404028352916020019161231d565b820191906000526020600020905b81548152906001019060200180831161230057829003601f168201915b505050505081526020016002820180546123369061414c565b80601f01602080910402602001604051908101604052809291908181526020018280546123629061414c565b80156123af5780601f10612384576101008083540402835291602001916123af565b820191906000526020600020905b81548152906001019060200180831161239257829003601f168201915b505050505081526020016003820180546123c89061414c565b80601f01602080910402602001604051908101604052809291908181526020018280546123f49061414c565b80156124415780601f1061241657610100808354040283529160200191612441565b820191906000526020600020905b81548152906001019060200180831161242457829003601f168201915b5050505050815250508152602001600682016040518060c0016040529081600082015481526020016001820160009054906101000a900473ffffffffffffffffffffffffffffffffffffffff1673ffffffffffffffffffffffffffffffffffffffff1673ffffffffffffffffffffffffffffffffffffffff1681526020016002820154815260200160038201548152602001600482015481526020016005820154815250508152505090506125187f10c5fd054c350cfd592b9e46142338cda6aff7d0ae152598601b34facc26c6ef60001b612d02565b6125447fda51cf3e867c605ad68ea9dc2ff7eb5096d8bf792f2032ba3fffb145bedfb4d860001b612d02565b6125707f49bfa3396e3ff0a0a208d16742dccc75c6024c1df3505604f6f378e58155179960001b612d02565b6000816080015160400151036125bb576040517f08c379a00000000000000000000000000000000000000000000000000000000081526004016125b2906141c9565b60405180910390fd5b6125e77fe1d4efc957b28aec18d6a2b63d10f11b2e2c0be1c3e7234890043c11d4b0b1da60001b612d02565b6126137f936d900e95696530165ca4144dc19f78895882c215977d83025068b224c5aef860001b612d02565b61263f7fc244b0b36667081e24765e179c46bda4570a8285e1cd7f55b05c42439c88de6c60001b612d02565b61266b7f994694d4314be0fe44076250f8eee7255ddc3216c8437de6dc97bae5ea6dae8a60001b612d02565b6001151581604001511515146126b6576040517f08c379a00000000000000000000000000000000000000000000000000000000081526004016126ad90614714565b60405180910390fd5b6126e27f6fb3a70e366f5003d1698183805b9ee9c53b6791f3dc6652d3597df0d296e5f960001b612d02565b61270e7fbb3f7a888f0af76d846de2c25b76c2ddba0475a66b46c16137ccc4b8de49a1f060001b612d02565b61273a7fc581c746a0bd8aa789d0a7bbea4c76acc3b4901b99d823ed477c5dee27852c6660001b612d02565b60008160400190151590811515815250506127777f7ca00ae467c0b57eb62e439e9c76214a3c3cef5f6257434a81e74742764cc92f60001b612d02565b6127a37fb69c344f3f4f642ed21446f6c764db8e2965231aab935754173c9b229508e2f460001b612d02565b80609960008481526020019081526020016000206000820151816000015560208201518160010160006101000a81548173ffffffffffffffffffffffffffffffffffffffff021916908373ffffffffffffffffffffffffffffffffffffffff16021790555060408201518160010160146101000a81548160ff021916908315150217905550606082015181600201600082015181600001908051906020019061284d929190613869565b50602082015181600101908051906020019061286a929190613869565b506040820151816002019080519060200190612887929190613869565b5060608201518160030190805190602001906128a4929190613869565b5050506080820151816006016000820151816000015560208201518160010160006101000a81548173ffffffffffffffffffffffffffffffffffffffff021916908373ffffffffffffffffffffffffffffffffffffffff16021790555060408201518160020155606082015181600301556080820151816004015560a08201518160050155505090505061295a7fa26d7177524c38158cb42cfae5533017e634c7fc98a7e41b9ba0f0f17c0af0d760001b612d02565b6129867f337428412c599780497886e2a8f7134be0f9caf2e9bb8310305d8bc9f86f39da60001b612d02565b7f72e6fc67ca93cc3cedc1e023204888c2cab750fbb5526e1faf3445c0327ee0ef82336040516129b792919061445d565b60405180910390a15050565b60008060019054906101000a900460ff161590508080156129f45750600160008054906101000a900460ff1660ff16105b80612a215750612a0330613469565b158015612a205750600160008054906101000a900460ff1660ff16145b5b612a60576040517f08c379a0000000000000000000000000000000000000000000000000000000008152600401612a57906147a6565b60405180910390fd5b60016000806101000a81548160ff021916908360ff1602179055508015612a9d576001600060016101000a81548160ff0219169083151502179055505b612ac97ffd210f074d63205c8f2ac027f91e9d179d833024a8ca16f6a5119ce445f5533960001b612d02565b612af57fe0d251525bdeecaca18d362ee4df02a284dbcfe028303092983ec595c11303ee60001b612d02565b612b217f3b54045fe43f86921561695d4c1dcc517598caa4a384ad614a07bfd0ebee364c60001b612d02565b612b2961348c565b612b557f717f783b3bc9db33fa1a6db27a6b40f08440597e2b40b258b873ff1cce76ed5e60001b612d02565b612b817f3ff4110638890fccbc4e1471154e8826291983ac02eba024a79ef60997b0fdbc60001b612d02565b81609860006101000a81548173ffffffffffffffffffffffffffffffffffffffff021916908373ffffffffffffffffffffffffffffffffffffffff160217905550612bee7ff0bd8e0e9569d0f9e9e8308c459cdf4b22f4e76b2f2ca2e8fd90d1aa7cbe8abf60001b612d02565b612c1a7fd00d0a9dd18e3922407df45e0002e3002d98d02eba2648d62491d5b4da9df42060001b612d02565b612c226134e5565b8015612c7b5760008060016101000a81548160ff0219169083151502179055507f7f26b83ff96e1f2b6a682f133852f6798a09c465da95921460cefb38474024986001604051612c729190614818565b60405180910390a15b5050565b612c87612d5d565b600073ffffffffffffffffffffffffffffffffffffffff168173ffffffffffffffffffffffffffffffffffffffff1603612cf6576040517f08c379a0000000000000000000000000000000000000000000000000000000008152600401612ced906148a5565b60405180910390fd5b612cff81613340565b50565b50565b612d0d61154c565b15612d4d576040517f08c379a0000000000000000000000000000000000000000000000000000000008152600401612d4490614911565b60405180910390fd5b565b600081600001549050919050565b612d6561353e565b73ffffffffffffffffffffffffffffffffffffffff16612d83612099565b73ffffffffffffffffffffffffffffffffffffffff1614612dd9576040517f08c379a0000000000000000000000000000000000000000000000000000000008152600401612dd09061497d565b60405180910390fd5b565b612de3613546565b6000603360006101000a81548160ff0219169083151502179055507f5db9ee0a495bf2e6ff9c91a7834c1ba4fdd244a5e8aa4e537bd38aeae4b073aa612e2761353e565b604051612e3491906140d5565b60405180910390a1565b612e6a7f618319d8b031ed0f744f57bdcaa2ace1ec7b98caf66b4774da6fb6bd34ccfda760001b612d02565b612e967f52b9061514b03e702548ef4fc34c4541cce248063a97d7c14f2535ba531667bb60001b612d02565b612ec27ff7ec6edb8c6046c7cca0887572da92a9943cc2ff3c4c965a5e45a115351a69a860001b612d02565b6040518060a001604052808581526020013373ffffffffffffffffffffffffffffffffffffffff16815260200160001515815260200183815260200182815250609960008681526020019081526020016000206000820151816000015560208201518160010160006101000a81548173ffffffffffffffffffffffffffffffffffffffff021916908373ffffffffffffffffffffffffffffffffffffffff16021790555060408201518160010160146101000a81548160ff0219169083151502179055506060820151816002016000820151816000019080519060200190612fab929190613869565b506020820151816001019080519060200190612fc8929190613869565b506040820151816002019080519060200190612fe5929190613869565b506060820151816003019080519060200190613002929190613869565b5050506080820151816006016000820151816000015560208201518160010160006101000a81548173ffffffffffffffffffffffffffffffffffffffff021916908373ffffffffffffffffffffffffffffffffffffffff16021790555060408201518160020155606082015181600301556080820151816004015560a0820151816005015550509050506130b87fc1c62f3af01a16e553840be25653de98c17a92553d8d4eaa4c2c4f87d1f62a5360001b612d02565b6130e47f0864903899ced02945d9f285a6b64ead0cbf4153ebc77a388a4df1394104c75a60001b612d02565b7fb22862363d492c0c7b9bcbfe63bcfbc715494dafb3b41d198d4bfcefea8a7c038433856040516131179392919061499d565b60405180910390a161314b7f92144f06a2fcadd70a356b7a13fd785654c0486edd8a9e3cc787865b0427d0f760001b612d02565b6131777f84725333474ddd077b48b91256336c7b6f723229ef1cacdc80460fa73a5b0fe760001b612d02565b613181848361358f565b6131ad7fac240be70dcf86c0c558eb651f531054cb86521590e9643a581cc146370e6d7460001b612d02565b6131d97f744c2f00f89ef8ed42ab9e283f40e102e5cf8d222ad70462463ab444c1b4177860001b612d02565b6131e38482613666565b50505050565b6132157fc65e202f5716ad03f00c95dab3b4d83963af2312d6160a03dc38631dc441536e60001b612d02565b6132417f4b136af770c7612254e890b7849cdd2cf6af009b5a32bf13c2d8aa3084e1208560001b612d02565b61326d7f62a0ad70f23f3b9eaa6f8518a2df2a00e527a9479ab72785bee44ff7a3258a3560001b612d02565b80609a60008481526020019081526020016000209080519060200190613294929190613869565b506132c17fee189c735bb791cb6a3987ef4b4f5f21922276288f63c1486ca55c2e14dbe91960001b612d02565b6132ed7f7d6daf0be7091c1b7a3802c39d2a9d5f8e0d0a1e846de1166122ad15ab8ee78c60001b612d02565b7f514efc4dbca754e32bfeb5dcb0c2d277953187ffd3b3eae36f7f9b5202e6f8ff828260405161331e9291906149db565b60405180910390a15050565b6001816000016000828254019250508190555050565b6000606560009054906101000a900473ffffffffffffffffffffffffffffffffffffffff16905081606560006101000a81548173ffffffffffffffffffffffffffffffffffffffff021916908373ffffffffffffffffffffffffffffffffffffffff1602179055508173ffffffffffffffffffffffffffffffffffffffff168173ffffffffffffffffffffffffffffffffffffffff167f8be0079c531659141344cd1fd0a4f28419497f9722a3daafe3b4186f6b6457e060405160405180910390a35050565b61340e612d05565b6001603360006101000a81548160ff0219169083151502179055507f62e78cea01bee320cd4e420270b5ea74000d11b0c9f74754ebdbfc544b05a25861345261353e565b60405161345f91906140d5565b60405180910390a1565b6000808273ffffffffffffffffffffffffffffffffffffffff163b119050919050565b600060019054906101000a900460ff166134db576040517f08c379a00000000000000000000000000000000000000000000000000000000081526004016134d290614a7d565b60405180910390fd5b6134e3613749565b565b600060019054906101000a900460ff16613534576040517f08c379a000000000000000000000000000000000000000000000000000000000815260040161352b90614a7d565b60405180910390fd5b61353c6137b5565b565b600033905090565b61354e61154c565b61358d576040517f08c379a000000000000000000000000000000000000000000000000000000000815260040161358490614ae9565b60405180910390fd5b565b6135bb7f9f96a6a9ebfc2782a8bb0f9798adb3db105aea004155fb961da1962d593e23ea60001b612d02565b6135e77f092c7fd59fe89e44e92a57fe30f9416e615446b29e1b4ffdc2e85254c7e541a260001b612d02565b6136137f3904e034406f4513e4961f36f5e1b9462ebd2c6f5451687d633411da917346e660001b612d02565b7f6c22bc8b6f750ff89627f593fa727443337309735486d0abf55f95f848f7368382826000015183602001518460400151856060015160405161365a959493929190614b09565b60405180910390a15050565b6136927f79c0f9af93598ccf3afa56e0e715ba335a57f79e6eea2d39edcba16928ea3d2f60001b612d02565b6136be7fb9c169492adfd53f19649ca71ebb2e2d4108a3c977defd1c6513f12c1e64c9de60001b612d02565b6136ea7f3b86aac4f0e3f1516f867a3b3cf784cf3594be446c2812f3818a1f6501a605a160001b612d02565b7f5deb9781f96d18bcc1ccd3667ca16c58a2f72fc9f98460a620492fe7001c89ca82826000015183602001518460400151856060015186608001518760a0015160405161373d9796959493929190614b78565b60405180910390a15050565b600060019054906101000a900460ff16613798576040517f08c379a000000000000000000000000000000000000000000000000000000000815260040161378f90614a7d565b60405180910390fd5b6000603360006101000a81548160ff021916908315150217905550565b600060019054906101000a900460ff16613804576040517f08c379a00000000000000000000000000000000000000000000000000000000081526004016137fb90614a7d565b60405180910390fd5b61381461380f61353e565b613340565b565b6040518060a0016040528060008152602001600073ffffffffffffffffffffffffffffffffffffffff1681526020016000151581526020016138566138ef565b8152602001613863613917565b81525090565b8280546138759061414c565b90600052602060002090601f01602090048101928261389757600085556138de565b82601f106138b057805160ff19168380011785556138de565b828001600101855582156138de579182015b828111156138dd5782518255916020019190600101906138c2565b5b5090506138eb9190613963565b5090565b6040518060800160405280606081526020016060815260200160608152602001606081525090565b6040518060c0016040528060008152602001600073ffffffffffffffffffffffffffffffffffffffff168152602001600081526020016000815260200160008152602001600081525090565b5b8082111561397c576000816000905550600101613964565b5090565b6000604051905090565b600080fd5b600080fd5b6000819050919050565b6139a781613994565b81146139b257600080fd5b50565b6000813590506139c48161399e565b92915050565b6000602082840312156139e0576139df61398a565b5b60006139ee848285016139b5565b91505092915050565b613a0081613994565b82525050565b600073ffffffffffffffffffffffffffffffffffffffff82169050919050565b6000613a3182613a06565b9050919050565b613a4181613a26565b82525050565b60008115159050919050565b613a5c81613a47565b82525050565b600081519050919050565b600082825260208201905092915050565b60005b83811015613a9c578082015181840152602081019050613a81565b83811115613aab576000848401525b50505050565b6000601f19601f8301169050919050565b6000613acd82613a62565b613ad78185613a6d565b9350613ae7818560208601613a7e565b613af081613ab1565b840191505092915050565b60006080830160008301518482036000860152613b188282613ac2565b91505060208301518482036020860152613b328282613ac2565b91505060408301518482036040860152613b4c8282613ac2565b91505060608301518482036060860152613b668282613ac2565b9150508091505092915050565b60c082016000820151613b8960008501826139f7565b506020820151613b9c6020850182613a38565b506040820151613baf60408501826139f7565b506060820151613bc260608501826139f7565b506080820151613bd560808501826139f7565b5060a0820151613be860a08501826139f7565b50505050565b600061014083016000830151613c0760008601826139f7565b506020830151613c1a6020860182613a38565b506040830151613c2d6040860182613a53565b5060608301518482036060860152613c458282613afb565b9150506080830151613c5a6080860182613b73565b508091505092915050565b60006020820190508181036000830152613c7f8184613bee565b905092915050565b613c9081613994565b82525050565b6000602082019050613cab6000830184613c87565b92915050565b600082825260208201905092915050565b6000613ccd82613a62565b613cd78185613cb1565b9350613ce7818560208601613a7e565b613cf081613ab1565b840191505092915050565b60006020820190508181036000830152613d158184613cc2565b905092915050565b613d2681613a47565b82525050565b6000602082019050613d416000830184613d1d565b92915050565b600080fd5b600080fd5b7f4e487b7100000000000000000000000000000000000000000000000000000000600052604160045260246000fd5b613d8982613ab1565b810181811067ffffffffffffffff82111715613da857613da7613d51565b5b80604052505050565b6000613dbb613980565b9050613dc78282613d80565b919050565b600067ffffffffffffffff821115613de757613de6613d51565b5b613df082613ab1565b9050602081019050919050565b82818337600083830152505050565b6000613e1f613e1a84613dcc565b613db1565b905082815260208101848484011115613e3b57613e3a613d4c565b5b613e46848285613dfd565b509392505050565b600082601f830112613e6357613e62613d47565b5b8135613e73848260208601613e0c565b91505092915050565b600080fd5b600080fd5b600060808284031215613e9c57613e9b613e7c565b5b613ea66080613db1565b9050600082013567ffffffffffffffff811115613ec657613ec5613e81565b5b613ed284828501613e4e565b600083015250602082013567ffffffffffffffff811115613ef657613ef5613e81565b5b613f0284828501613e4e565b602083015250604082013567ffffffffffffffff811115613f2657613f25613e81565b5b613f3284828501613e4e565b604083015250606082013567ffffffffffffffff811115613f5657613f55613e81565b5b613f6284828501613e4e565b60608301525092915050565b613f7781613a26565b8114613f8257600080fd5b50565b600081359050613f9481613f6e565b92915050565b600060c08284031215613fb057613faf613e7c565b5b613fba60c0613db1565b90506000613fca848285016139b5565b6000830152506020613fde84828501613f85565b6020830152506040613ff2848285016139b5565b6040830152506060614006848285016139b5565b606083015250608061401a848285016139b5565b60808301525060a061402e848285016139b5565b60a08301525092915050565b600080600061010084860312156140545761405361398a565b5b600084013567ffffffffffffffff8111156140725761407161398f565b5b61407e86828701613e4e565b935050602084013567ffffffffffffffff81111561409f5761409e61398f565b5b6140ab86828701613e86565b92505060406140bc86828701613f9a565b9150509250925092565b6140cf81613a26565b82525050565b60006020820190506140ea60008301846140c6565b92915050565b6000602082840312156141065761410561398a565b5b600061411484828501613f85565b91505092915050565b7f4e487b7100000000000000000000000000000000000000000000000000000000600052602260045260246000fd5b6000600282049050600182168061416457607f821691505b6020821081036141775761417661411d565b5b50919050565b7f506f6f6c20646f65736e27742065786973740000000000000000000000000000600082015250565b60006141b3601283613cb1565b91506141be8261417d565b602082019050919050565b600060208201905081810360008301526141e2816141a6565b9050919050565b7f506f6f6c20697320616c72656164792061637469766500000000000000000000600082015250565b600061421f601683613cb1565b915061422a826141e9565b602082019050919050565b6000602082019050818103600083015261424e81614212565b9050919050565b600060408201905061426a60008301856140c6565b6142776020830184613c87565b9392505050565b60008151905061428d8161399e565b92915050565b6000815190506142a281613f6e565b92915050565b6000606082840312156142be576142bd613e7c565b5b6142c86060613db1565b905060006142d88482850161427e565b60008301525060206142ec84828501614293565b60208301525060406143008482850161427e565b60408301525092915050565b6000606082840312156143225761432161398a565b5b6000614330848285016142a8565b91505092915050565b7f4465706f736974656420616d6f756e7420646f6573206e6f74206d617463682060008201527f706f6f6c20636170000000000000000000000000000000000000000000000000602082015250565b6000614395602883613cb1565b91506143a082614339565b604082019050919050565b600060208201905081810360008301526143c481614388565b9050919050565b7f4465706f736974656420746f6b656e206164647265737320646f6573206e6f7460008201527f206d6174636820706f6f6c20746f6b656e206164647265737300000000000000602082015250565b6000614427603983613cb1565b9150614432826143cb565b604082019050919050565b600060208201905081810360008301526144568161441a565b9050919050565b60006040820190506144726000830185613c87565b61447f60208301846140c6565b9392505050565b7f4d697373696e67206d6574616461746120555249000000000000000000000000600082015250565b60006144bc601483613cb1565b91506144c782614486565b602082019050919050565b600060208201905081810360008301526144eb816144af565b9050919050565b7f496e76616c696420706f6f6c2063617000000000000000000000000000000000600082015250565b6000614528601083613cb1565b9150614533826144f2565b602082019050919050565b600060208201905081810360008301526145578161451b565b9050919050565b7f456e642064617465206d7573742062652061667465722063757272656e74206260008201527f6c6f636b2074696d650000000000000000000000000000000000000000000000602082015250565b60006145ba602983613cb1565b91506145c58261455e565b604082019050919050565b600060208201905081810360008301526145e9816145ad565b9050919050565b7f496e76616c6964206d696e696d616c2068797065207265776172640000000000600082015250565b6000614626601b83613cb1565b9150614631826145f0565b602082019050919050565b6000602082019050818103600083015261465581614619565b9050919050565b7f496e76616c696420696d7072657373696f6e2068797065207265776172640000600082015250565b6000614692601e83613cb1565b915061469d8261465c565b602082019050919050565b600060208201905081810360008301526146c181614685565b9050919050565b7f506f6f6c20697320616c726561647920696e6163746976650000000000000000600082015250565b60006146fe601883613cb1565b9150614709826146c8565b602082019050919050565b6000602082019050818103600083015261472d816146f1565b9050919050565b7f496e697469616c697a61626c653a20636f6e747261637420697320616c72656160008201527f647920696e697469616c697a6564000000000000000000000000000000000000602082015250565b6000614790602e83613cb1565b915061479b82614734565b604082019050919050565b600060208201905081810360008301526147bf81614783565b9050919050565b6000819050919050565b600060ff82169050919050565b6000819050919050565b60006148026147fd6147f8846147c6565b6147dd565b6147d0565b9050919050565b614812816147e7565b82525050565b600060208201905061482d6000830184614809565b92915050565b7f4f776e61626c653a206e6577206f776e657220697320746865207a65726f206160008201527f6464726573730000000000000000000000000000000000000000000000000000602082015250565b600061488f602683613cb1565b915061489a82614833565b604082019050919050565b600060208201905081810360008301526148be81614882565b9050919050565b7f5061757361626c653a2070617573656400000000000000000000000000000000600082015250565b60006148fb601083613cb1565b9150614906826148c5565b602082019050919050565b6000602082019050818103600083015261492a816148ee565b9050919050565b7f4f776e61626c653a2063616c6c6572206973206e6f7420746865206f776e6572600082015250565b6000614967602083613cb1565b915061497282614931565b602082019050919050565b600060208201905081810360008301526149968161495a565b9050919050565b60006060820190506149b26000830186613c87565b6149bf60208301856140c6565b81810360408301526149d18184613cc2565b9050949350505050565b60006040820190506149f06000830185613c87565b8181036020830152614a028184613cc2565b90509392505050565b7f496e697469616c697a61626c653a20636f6e7472616374206973206e6f74206960008201527f6e697469616c697a696e67000000000000000000000000000000000000000000602082015250565b6000614a67602b83613cb1565b9150614a7282614a0b565b604082019050919050565b60006020820190508181036000830152614a9681614a5a565b9050919050565b7f5061757361626c653a206e6f7420706175736564000000000000000000000000600082015250565b6000614ad3601483613cb1565b9150614ade82614a9d565b602082019050919050565b60006020820190508181036000830152614b0281614ac6565b9050919050565b600060a082019050614b1e6000830188613c87565b8181036020830152614b308187613cc2565b90508181036040830152614b448186613cc2565b90508181036060830152614b588185613cc2565b90508181036080830152614b6c8184613cc2565b90509695505050505050565b600060e082019050614b8d600083018a613c87565b614b9a6020830189613c87565b614ba760408301886140c6565b614bb46060830187613c87565b614bc16080830186613c87565b614bce60a0830185613c87565b614bdb60c0830184613c87565b9897505050505050505056fea26469706673582212205087312b2b33ff13aef588973aefb2089477b9b18ec12e9e20db04922b4762b664736f6c634300080e0033",
  "linkReferences": {},
  "deployedLinkReferences": {}
}