{
  "_format": "hh-sol-artifact-1",
  "contractName": "HypePoolUpgradeable",
  "sourceName": "contracts/upgradeable/HypePoolUpgradeable.sol",
  "abi": [
    {
      "inputs": [],
      "stateMutability": "nonpayable",
      "type": "constructor"
    },
    {
      "anonymous": false,
      "inputs": [
        {
          "indexed": false,
          "internalType": "uint8",
          "name": "version",
          "type": "uint8"
        }
      ],
      "name": "Initialized",
      "type": "event"
    },
    {
      "anonymous": false,
      "inputs": [
        {
          "indexed": true,
          "internalType": "address",
          "name": "previousOwner",
          "type": "address"
        },
        {
          "indexed": true,
          "internalType": "address",
          "name": "newOwner",
          "type": "address"
        }
      ],
      "name": "OwnershipTransferred",
      "type": "event"
    },
    {
      "anonymous": false,
      "inputs": [
        {
          "indexed": false,
          "internalType": "address",
          "name": "account",
          "type": "address"
        }
      ],
      "name": "Paused",
      "type": "event"
    },
    {
      "anonymous": false,
      "inputs": [
        {
          "indexed": false,
          "internalType": "bytes32",
          "name": "poolId",
          "type": "bytes32"
        },
        {
          "indexed": false,
          "internalType": "address",
          "name": "activator",
          "type": "address"
        },
        {
          "indexed": false,
          "internalType": "uint256",
          "name": "startDate",
          "type": "uint256"
        },
        {
          "indexed": false,
          "internalType": "uint256",
          "name": "endDate",
          "type": "uint256"
        }
      ],
      "name": "PoolActivated",
      "type": "event"
    },
    {
      "anonymous": false,
      "inputs": [
        {
          "indexed": false,
          "internalType": "bytes32",
          "name": "poolId",
          "type": "bytes32"
        },
        {
          "indexed": false,
          "internalType": "address",
          "name": "creator",
          "type": "address"
        },
        {
          "indexed": false,
          "internalType": "string",
          "name": "uri",
          "type": "string"
        }
      ],
      "name": "PoolCreated",
      "type": "event"
    },
    {
      "anonymous": false,
      "inputs": [
        {
          "indexed": false,
          "internalType": "bytes32",
          "name": "poolId",
          "type": "bytes32"
        },
        {
          "indexed": false,
          "internalType": "address",
          "name": "deactivator",
          "type": "address"
        }
      ],
      "name": "PoolDeactivated",
      "type": "event"
    },
    {
      "anonymous": false,
      "inputs": [
        {
          "indexed": false,
          "internalType": "bytes32",
          "name": "poolId",
          "type": "bytes32"
        },
        {
          "indexed": false,
          "internalType": "string",
          "name": "title",
          "type": "string"
        },
        {
          "indexed": false,
          "internalType": "string",
          "name": "projectName",
          "type": "string"
        },
        {
          "indexed": false,
          "internalType": "string",
          "name": "tokenName",
          "type": "string"
        },
        {
          "indexed": false,
          "internalType": "string",
          "name": "campaignWord",
          "type": "string"
        }
      ],
      "name": "PoolDetailsCreated",
      "type": "event"
    },
    {
      "anonymous": false,
      "inputs": [
        {
          "indexed": false,
          "internalType": "bytes32",
          "name": "poolId",
          "type": "bytes32"
        },
        {
          "indexed": false,
          "internalType": "uint256",
          "name": "network",
          "type": "uint256"
        },
        {
          "indexed": false,
          "internalType": "address",
          "name": "tokenAddress",
          "type": "address"
        },
        {
          "indexed": false,
          "internalType": "uint256",
          "name": "impressionReward",
          "type": "uint256"
        },
        {
          "indexed": false,
          "internalType": "uint256",
          "name": "cap",
          "type": "uint256"
        },
        {
          "indexed": false,
          "internalType": "uint256",
          "name": "startDate",
          "type": "uint256"
        },
        {
          "indexed": false,
          "internalType": "uint256",
          "name": "endDate",
          "type": "uint256"
        },
        {
          "indexed": false,
          "internalType": "uint256",
          "name": "duration",
          "type": "uint256"
        },
        {
          "indexed": false,
          "internalType": "uint256[]",
          "name": "leaderRewards",
          "type": "uint256[]"
        }
      ],
      "name": "PoolRewardsCreated",
      "type": "event"
    },
    {
      "anonymous": false,
      "inputs": [
        {
          "indexed": false,
          "internalType": "bytes32",
          "name": "poolId",
          "type": "bytes32"
        },
        {
          "indexed": false,
          "internalType": "string",
          "name": "uri",
          "type": "string"
        }
      ],
      "name": "PoolUriSet",
      "type": "event"
    },
    {
      "anonymous": false,
      "inputs": [
        {
          "indexed": true,
          "internalType": "bytes32",
          "name": "role",
          "type": "bytes32"
        },
        {
          "indexed": true,
          "internalType": "address",
          "name": "account",
          "type": "address"
        }
      ],
      "name": "RoleGranted",
      "type": "event"
    },
    {
      "anonymous": false,
      "inputs": [
        {
          "indexed": true,
          "internalType": "bytes32",
          "name": "role",
          "type": "bytes32"
        },
        {
          "indexed": true,
          "internalType": "address",
          "name": "account",
          "type": "address"
        }
      ],
      "name": "RoleRevoked",
      "type": "event"
    },
    {
      "anonymous": false,
      "inputs": [
        {
          "indexed": false,
          "internalType": "address",
          "name": "account",
          "type": "address"
        }
      ],
      "name": "Unpaused",
      "type": "event"
    },
    {
      "inputs": [],
      "name": "ACTIVATOR_ROLE",
      "outputs": [
        {
          "internalType": "bytes32",
          "name": "",
          "type": "bytes32"
        }
      ],
      "stateMutability": "view",
      "type": "function"
    },
    {
      "inputs": [
        {
          "internalType": "bytes32",
          "name": "uuid",
          "type": "bytes32"
        }
      ],
      "name": "activatePool",
      "outputs": [],
      "stateMutability": "nonpayable",
      "type": "function"
    },
    {
      "inputs": [
        {
          "internalType": "bytes32",
          "name": "role",
          "type": "bytes32"
        },
        {
          "internalType": "address",
          "name": "account",
          "type": "address"
        }
      ],
      "name": "addRole",
      "outputs": [],
      "stateMutability": "nonpayable",
      "type": "function"
    },
    {
      "inputs": [
        {
          "internalType": "string",
          "name": "uri",
          "type": "string"
        },
        {
          "components": [
            {
              "internalType": "string",
              "name": "title",
              "type": "string"
            },
            {
              "internalType": "string",
              "name": "projectName",
              "type": "string"
            },
            {
              "internalType": "string",
              "name": "tokenName",
              "type": "string"
            },
            {
              "internalType": "string",
              "name": "campaignWord",
              "type": "string"
            }
          ],
          "internalType": "struct IHypePool.Details",
          "name": "details",
          "type": "tuple"
        },
        {
          "components": [
            {
              "internalType": "uint256",
              "name": "network",
              "type": "uint256"
            },
            {
              "internalType": "address",
              "name": "tokenAddress",
              "type": "address"
            },
            {
              "internalType": "uint256",
              "name": "impressionReward",
              "type": "uint256"
            },
            {
              "internalType": "uint256",
              "name": "cap",
              "type": "uint256"
            },
            {
              "internalType": "uint256",
              "name": "startDate",
              "type": "uint256"
            },
            {
              "internalType": "uint256",
              "name": "endDate",
              "type": "uint256"
            },
            {
              "internalType": "uint256",
              "name": "duration",
              "type": "uint256"
            }
          ],
          "internalType": "struct IHypePool.Rewards",
          "name": "rewards",
          "type": "tuple"
        },
        {
          "internalType": "uint256[]",
          "name": "leaderRewards",
          "type": "uint256[]"
        }
      ],
      "name": "createPool",
      "outputs": [
        {
          "components": [
            {
              "internalType": "bytes32",
              "name": "id",
              "type": "bytes32"
            },
            {
              "internalType": "address",
              "name": "creator",
              "type": "address"
            },
            {
              "components": [
                {
                  "internalType": "string",
                  "name": "title",
                  "type": "string"
                },
                {
                  "internalType": "string",
                  "name": "projectName",
                  "type": "string"
                },
                {
                  "internalType": "string",
                  "name": "tokenName",
                  "type": "string"
                },
                {
                  "internalType": "string",
                  "name": "campaignWord",
                  "type": "string"
                }
              ],
              "internalType": "struct IHypePool.Details",
              "name": "details",
              "type": "tuple"
            },
            {
              "components": [
                {
                  "internalType": "uint256",
                  "name": "network",
                  "type": "uint256"
                },
                {
                  "internalType": "address",
                  "name": "tokenAddress",
                  "type": "address"
                },
                {
                  "internalType": "uint256",
                  "name": "impressionReward",
                  "type": "uint256"
                },
                {
                  "internalType": "uint256",
                  "name": "cap",
                  "type": "uint256"
                },
                {
                  "internalType": "uint256",
                  "name": "startDate",
                  "type": "uint256"
                },
                {
                  "internalType": "uint256",
                  "name": "endDate",
                  "type": "uint256"
                },
                {
                  "internalType": "uint256",
                  "name": "duration",
                  "type": "uint256"
                }
              ],
              "internalType": "struct IHypePool.Rewards",
              "name": "rewards",
              "type": "tuple"
            },
            {
              "internalType": "uint256[]",
              "name": "leaderRewards",
              "type": "uint256[]"
            }
          ],
          "internalType": "struct IHypePool.HypePool",
          "name": "",
          "type": "tuple"
        }
      ],
      "stateMutability": "nonpayable",
      "type": "function"
    },
    {
      "inputs": [
        {
          "internalType": "bytes32",
          "name": "uuid",
          "type": "bytes32"
        }
      ],
      "name": "deactivatePool",
      "outputs": [],
      "stateMutability": "nonpayable",
      "type": "function"
    },
    {
      "inputs": [
        {
          "internalType": "bytes32",
          "name": "uuid",
          "type": "bytes32"
        }
      ],
      "name": "doesPoolExist",
      "outputs": [
        {
          "internalType": "bool",
          "name": "",
          "type": "bool"
        }
      ],
      "stateMutability": "view",
      "type": "function"
    },
    {
      "inputs": [],
      "name": "getCurrentIndex",
      "outputs": [
        {
          "internalType": "bytes32",
          "name": "",
          "type": "bytes32"
        }
      ],
      "stateMutability": "view",
      "type": "function"
    },
    {
      "inputs": [
        {
          "internalType": "bytes32",
          "name": "uuid",
          "type": "bytes32"
        }
      ],
      "name": "getPool",
      "outputs": [
        {
          "components": [
            {
              "internalType": "bytes32",
              "name": "id",
              "type": "bytes32"
            },
            {
              "internalType": "address",
              "name": "creator",
              "type": "address"
            },
            {
              "components": [
                {
                  "internalType": "string",
                  "name": "title",
                  "type": "string"
                },
                {
                  "internalType": "string",
                  "name": "projectName",
                  "type": "string"
                },
                {
                  "internalType": "string",
                  "name": "tokenName",
                  "type": "string"
                },
                {
                  "internalType": "string",
                  "name": "campaignWord",
                  "type": "string"
                }
              ],
              "internalType": "struct IHypePool.Details",
              "name": "details",
              "type": "tuple"
            },
            {
              "components": [
                {
                  "internalType": "uint256",
                  "name": "network",
                  "type": "uint256"
                },
                {
                  "internalType": "address",
                  "name": "tokenAddress",
                  "type": "address"
                },
                {
                  "internalType": "uint256",
                  "name": "impressionReward",
                  "type": "uint256"
                },
                {
                  "internalType": "uint256",
                  "name": "cap",
                  "type": "uint256"
                },
                {
                  "internalType": "uint256",
                  "name": "startDate",
                  "type": "uint256"
                },
                {
                  "internalType": "uint256",
                  "name": "endDate",
                  "type": "uint256"
                },
                {
                  "internalType": "uint256",
                  "name": "duration",
                  "type": "uint256"
                }
              ],
              "internalType": "struct IHypePool.Rewards",
              "name": "rewards",
              "type": "tuple"
            },
            {
              "internalType": "uint256[]",
              "name": "leaderRewards",
              "type": "uint256[]"
            }
          ],
          "internalType": "struct IHypePool.HypePool",
          "name": "",
          "type": "tuple"
        }
      ],
      "stateMutability": "view",
      "type": "function"
    },
    {
      "inputs": [
        {
          "internalType": "bytes32",
          "name": "uuid",
          "type": "bytes32"
        }
      ],
      "name": "getPoolRewards",
      "outputs": [
        {
          "components": [
            {
              "internalType": "uint256",
              "name": "network",
              "type": "uint256"
            },
            {
              "internalType": "address",
              "name": "tokenAddress",
              "type": "address"
            },
            {
              "internalType": "uint256",
              "name": "impressionReward",
              "type": "uint256"
            },
            {
              "internalType": "uint256",
              "name": "cap",
              "type": "uint256"
            },
            {
              "internalType": "uint256",
              "name": "startDate",
              "type": "uint256"
            },
            {
              "internalType": "uint256",
              "name": "endDate",
              "type": "uint256"
            },
            {
              "internalType": "uint256",
              "name": "duration",
              "type": "uint256"
            }
          ],
          "internalType": "struct IHypePool.Rewards",
          "name": "",
          "type": "tuple"
        }
      ],
      "stateMutability": "view",
      "type": "function"
    },
    {
      "inputs": [
        {
          "internalType": "bytes32",
          "name": "role",
          "type": "bytes32"
        },
        {
          "internalType": "address",
          "name": "account",
          "type": "address"
        }
      ],
      "name": "hasRole",
      "outputs": [
        {
          "internalType": "bool",
          "name": "",
          "type": "bool"
        }
      ],
      "stateMutability": "view",
      "type": "function"
    },
    {
      "inputs": [
        {
          "internalType": "address",
          "name": "escrowContractAddress",
          "type": "address"
        },
        {
          "internalType": "address",
          "name": "activator",
          "type": "address"
        }
      ],
      "name": "initialize",
      "outputs": [],
      "stateMutability": "nonpayable",
      "type": "function"
    },
    {
      "inputs": [
        {
          "internalType": "bytes32",
          "name": "uuid",
          "type": "bytes32"
        }
      ],
      "name": "isActive",
      "outputs": [
        {
          "internalType": "bool",
          "name": "",
          "type": "bool"
        }
      ],
      "stateMutability": "view",
      "type": "function"
    },
    {
      "inputs": [
        {
          "internalType": "bytes32",
          "name": "uuid",
          "type": "bytes32"
        }
      ],
      "name": "isExpired",
      "outputs": [
        {
          "internalType": "bool",
          "name": "",
          "type": "bool"
        }
      ],
      "stateMutability": "view",
      "type": "function"
    },
    {
      "inputs": [
        {
          "internalType": "bytes32",
          "name": "uuid",
          "type": "bytes32"
        }
      ],
      "name": "isGracePeriod",
      "outputs": [
        {
          "internalType": "bool",
          "name": "",
          "type": "bool"
        }
      ],
      "stateMutability": "view",
      "type": "function"
    },
    {
      "inputs": [],
      "name": "owner",
      "outputs": [
        {
          "internalType": "address",
          "name": "",
          "type": "address"
        }
      ],
      "stateMutability": "view",
      "type": "function"
    },
    {
      "inputs": [],
      "name": "pause",
      "outputs": [],
      "stateMutability": "nonpayable",
      "type": "function"
    },
    {
      "inputs": [],
      "name": "paused",
      "outputs": [
        {
          "internalType": "bool",
          "name": "",
          "type": "bool"
        }
      ],
      "stateMutability": "view",
      "type": "function"
    },
    {
      "inputs": [
        {
          "internalType": "bytes32",
          "name": "uuid",
          "type": "bytes32"
        }
      ],
      "name": "poolURI",
      "outputs": [
        {
          "internalType": "string",
          "name": "",
          "type": "string"
        }
      ],
      "stateMutability": "view",
      "type": "function"
    },
    {
      "inputs": [],
      "name": "renounceOwnership",
      "outputs": [],
      "stateMutability": "nonpayable",
      "type": "function"
    },
    {
      "inputs": [
        {
          "internalType": "bytes32",
          "name": "role",
          "type": "bytes32"
        },
        {
          "internalType": "address",
          "name": "account",
          "type": "address"
        }
      ],
      "name": "revokeRole",
      "outputs": [],
      "stateMutability": "nonpayable",
      "type": "function"
    },
    {
      "inputs": [
        {
          "internalType": "address",
          "name": "newOwner",
          "type": "address"
        }
      ],
      "name": "transferOwnership",
      "outputs": [],
      "stateMutability": "nonpayable",
      "type": "function"
    },
    {
      "inputs": [],
      "name": "unpause",
      "outputs": [],
      "stateMutability": "nonpayable",
      "type": "function"
    }
  ],
  "bytecode": "0x60806040523480156200001157600080fd5b506200001c62000022565b620000e4565b600754610100900460ff16156200008f5760405162461bcd60e51b815260206004820152602760248201527f496e697469616c697a61626c653a20636f6e747261637420697320696e697469604482015266616c697a696e6760c81b606482015260840160405180910390fd5b60075460ff9081161015620000e2576007805460ff191660ff9081179091556040519081527f7f26b83ff96e1f2b6a682f133852f6798a09c465da95921460cefb38474024989060200160405180910390a15b565b613c1180620000f46000396000f3fe608060405234801561001057600080fd5b50600436106101825760003560e01c806373dfe0da116100d8578063d547741f1161008c578063f2fde38b11610066578063f2fde38b14610327578063f6c009271461033a578063f8607fb11461034d57600080fd5b8063d547741f146102ee578063d9d9785914610301578063e959b38a1461031457600080fd5b80638da5cb5b116100bd5780638da5cb5b146102ad57806391d14854146102c8578063bd033bd0146102db57600080fd5b806373dfe0da146102925780638456cb59146102a557600080fd5b8063485cc9551161013a5780635c975abb116101145780635c975abb1461026c5780636db2feb214610277578063715018a61461028a57600080fd5b8063485cc955146102265780634a3ddf3e146102395780635c36901c1461025957600080fd5b806323692edd1161016b57806323692edd146101c957806324bc5972146101fc5780633f4ba83a1461021c57600080fd5b806308740a3b146101875780630d9005ae146101c1575b600080fd5b6101ae7fec5aad7bdface20c35bc02d6d2d5760df981277427368525d634f4e2603ea19281565b6040519081526020015b60405180910390f35b6006546101ae565b6101ec6101d7366004613302565b60009081526005602052604090205460ff1690565b60405190151581526020016101b8565b61020f61020a366004613302565b61036d565b6040516101b8919061331b565b6102246103cc565b005b610224610234366004613386565b6103de565b61024c6102473660046135ac565b610518565b6040516101b89190613763565b6101ec610267366004613302565b61053d565b603a5460ff166101ec565b6101ec610285366004613302565b6108a9565b610224610c12565b6102246102a0366004613302565b610c24565b610224610c38565b606c546040516001600160a01b0390911681526020016101b8565b6101ec6102d6366004613889565b610c48565b6101ec6102e9366004613302565b610c73565b6102246102fc366004613889565b610ffe565b61022461030f366004613302565b6110d0565b610224610322366004613889565b6110e9565b6102246103353660046138ae565b6111be565b61024c610348366004613302565b61124b565b61036061035b366004613302565b6115fc565b6040516101b891906138cb565b6103b66040518060e001604052806000815260200160006001600160a01b0316815260200160008152602001600081526020016000815260200160008152602001600081525090565b60006103c18361124b565b606001519392505050565b6103d461169e565b6103dc6116f8565b565b600754610100900460ff16158080156103fe5750600754600160ff909116105b806104185750303b158015610418575060075460ff166001145b61048f5760405162461bcd60e51b815260206004820152602e60248201527f496e697469616c697a61626c653a20636f6e747261637420697320616c72656160448201527f647920696e697469616c697a656400000000000000000000000000000000000060648201526084015b60405180910390fd5b6007805460ff1916600117905580156104b2576007805461ff0019166101001790555b6104ba61174a565b6104c26117bd565b6104cc8383611830565b8015610513576007805461ff0019169055604051600181527f7f26b83ff96e1f2b6a682f133852f6798a09c465da95921460cefb3847402498906020015b60405180910390a15b505050565b6105206131f7565b610528611990565b610534858585856119e3565b95945050505050565b6000818152600360209081526040808320815160a0810183528154815260018201546001600160a01b0316938101939093528151608081018352600282018054869594850192919082908290610592906138de565b80601f01602080910402602001604051908101604052809291908181526020018280546105be906138de565b801561060b5780601f106105e05761010080835404028352916020019161060b565b820191906000526020600020905b8154815290600101906020018083116105ee57829003601f168201915b50505050508152602001600182018054610624906138de565b80601f0160208091040260200160405190810160405280929190818152602001828054610650906138de565b801561069d5780601f106106725761010080835404028352916020019161069d565b820191906000526020600020905b81548152906001019060200180831161068057829003601f168201915b505050505081526020016002820180546106b6906138de565b80601f01602080910402602001604051908101604052809291908181526020018280546106e2906138de565b801561072f5780601f106107045761010080835404028352916020019161072f565b820191906000526020600020905b81548152906001019060200180831161071257829003601f168201915b50505050508152602001600382018054610748906138de565b80601f0160208091040260200160405190810160405280929190818152602001828054610774906138de565b80156107c15780601f10610796576101008083540402835291602001916107c1565b820191906000526020600020905b8154815290600101906020018083116107a457829003601f168201915b5050509190925250505081526040805160e0810182526006840154815260078401546001600160a01b031660208281019190915260088501548284015260098501546060830152600a8501546080830152600b85015460a0830152600c85015460c083015280840191909152600d8401805483518184028101840185528181529390940193909183018282801561087757602002820191906000526020600020905b815481526020019060010190808311610863575b5050505050815250509050806060015160a001516000141580156108a2575042816060015160a00151115b9392505050565b6000818152600360209081526040808320815160a0810183528154815260018201546001600160a01b03169381019390935281516080810183526002820180548695948501929190829082906108fe906138de565b80601f016020809104026020016040519081016040528092919081815260200182805461092a906138de565b80156109775780601f1061094c57610100808354040283529160200191610977565b820191906000526020600020905b81548152906001019060200180831161095a57829003601f168201915b50505050508152602001600182018054610990906138de565b80601f01602080910402602001604051908101604052809291908181526020018280546109bc906138de565b8015610a095780601f106109de57610100808354040283529160200191610a09565b820191906000526020600020905b8154815290600101906020018083116109ec57829003601f168201915b50505050508152602001600282018054610a22906138de565b80601f0160208091040260200160405190810160405280929190818152602001828054610a4e906138de565b8015610a9b5780601f10610a7057610100808354040283529160200191610a9b565b820191906000526020600020905b815481529060010190602001808311610a7e57829003601f168201915b50505050508152602001600382018054610ab4906138de565b80601f0160208091040260200160405190810160405280929190818152602001828054610ae0906138de565b8015610b2d5780601f10610b0257610100808354040283529160200191610b2d565b820191906000526020600020905b815481529060010190602001808311610b1057829003601f168201915b5050509190925250505081526040805160e0810182526006840154815260078401546001600160a01b031660208281019190915260088501548284015260098501546060830152600a8501546080830152600b85015460a0830152600c85015460c083015280840191909152600d84018054835181840281018401855281815293909401939091830182828015610be357602002820191906000526020600020905b815481526020019060010190808311610bcf575b5050505050815250509050806060015160a001516000141580156108a257506060015160a00151421192915050565b610c1a61169e565b6103dc6000611fd4565b610c2c611990565b610c3581612026565b50565b610c4061169e565b6103dc6127e1565b6000828152602081815260408083206001600160a01b038516845290915290205460ff165b92915050565b6000818152600360209081526040808320815160a0810183528154815260018201546001600160a01b0316938101939093528151608081018352600282018054869594850192919082908290610cc8906138de565b80601f0160208091040260200160405190810160405280929190818152602001828054610cf4906138de565b8015610d415780601f10610d1657610100808354040283529160200191610d41565b820191906000526020600020905b815481529060010190602001808311610d2457829003601f168201915b50505050508152602001600182018054610d5a906138de565b80601f0160208091040260200160405190810160405280929190818152602001828054610d86906138de565b8015610dd35780601f10610da857610100808354040283529160200191610dd3565b820191906000526020600020905b815481529060010190602001808311610db657829003601f168201915b50505050508152602001600282018054610dec906138de565b80601f0160208091040260200160405190810160405280929190818152602001828054610e18906138de565b8015610e655780601f10610e3a57610100808354040283529160200191610e65565b820191906000526020600020905b815481529060010190602001808311610e4857829003601f168201915b50505050508152602001600382018054610e7e906138de565b80601f0160208091040260200160405190810160405280929190818152602001828054610eaa906138de565b8015610ef75780601f10610ecc57610100808354040283529160200191610ef7565b820191906000526020600020905b815481529060010190602001808311610eda57829003601f168201915b5050509190925250505081526040805160e0810182526006840154815260078401546001600160a01b031660208281019190915260088501548284015260098501546060830152600a8501546080830152600b85015460a0830152600c85015460c083015280840191909152600d84018054835181840281018401855281815293909401939091830182828015610fad57602002820191906000526020600020905b815481526020019060010190808311610f99575b5050505050815250509050806060015160a00151600014158015610fd8575042816060015160a00151105b80156108a25750606081015160a00151610ff59062093a8061392e565b42109392505050565b6001600160a01b03811661107a5760405162461bcd60e51b815260206004820152603360248201527f416363657373436f6e74726f6c3a2063616e6e6f74207265766f6b6520726f6c60448201527f652066726f6d207a65726f2061646472657373000000000000000000000000006064820152608401610486565b6000828152602081815260408083206001600160a01b0385168085529252808320805460ff1916905551909184917f155aaafb6329a2098580462df33ec4b7441b19729b9601c5fc17ae1cf99a8a529190a35050565b6110d8611990565b6110e061169e565b610c358161281e565b6001600160a01b0381166111655760405162461bcd60e51b815260206004820152603060248201527f416363657373436f6e74726f6c3a2063616e6e6f74206772616e7420726f6c6560448201527f20746f207a65726f2061646472657373000000000000000000000000000000006064820152608401610486565b6000828152602081815260408083206001600160a01b0385168085529252808320805460ff1916600117905551909184917f2ae6a113c0ed5b78a53413ffbb7679881f11145ccfba4fb92e863dfcd5a1d2f39190a35050565b6111c661169e565b6001600160a01b0381166112425760405162461bcd60e51b815260206004820152602660248201527f4f776e61626c653a206e6577206f776e657220697320746865207a65726f206160448201527f64647265737300000000000000000000000000000000000000000000000000006064820152608401610486565b610c3581611fd4565b6112536131f7565b60008281526005602052604090205460ff166112b15760405162461bcd60e51b815260206004820152601360248201527f506f6f6c20646f6573206e6f74206578697374000000000000000000000000006044820152606401610486565b600082815260036020908152604091829020825160a0810184528154815260018201546001600160a01b0316928101929092528251608081018452600282018054939492939285019282908290611307906138de565b80601f0160208091040260200160405190810160405280929190818152602001828054611333906138de565b80156113805780601f1061135557610100808354040283529160200191611380565b820191906000526020600020905b81548152906001019060200180831161136357829003601f168201915b50505050508152602001600182018054611399906138de565b80601f01602080910402602001604051908101604052809291908181526020018280546113c5906138de565b80156114125780601f106113e757610100808354040283529160200191611412565b820191906000526020600020905b8154815290600101906020018083116113f557829003601f168201915b5050505050815260200160028201805461142b906138de565b80601f0160208091040260200160405190810160405280929190818152602001828054611457906138de565b80156114a45780601f10611479576101008083540402835291602001916114a4565b820191906000526020600020905b81548152906001019060200180831161148757829003601f168201915b505050505081526020016003820180546114bd906138de565b80601f01602080910402602001604051908101604052809291908181526020018280546114e9906138de565b80156115365780601f1061150b57610100808354040283529160200191611536565b820191906000526020600020905b81548152906001019060200180831161151957829003601f168201915b5050509190925250505081526040805160e0810182526006840154815260078401546001600160a01b031660208281019190915260088501548284015260098501546060830152600a8501546080830152600b85015460a0830152600c85015460c083015280840191909152600d840180548351818402810184018552818152939094019390918301828280156115ec57602002820191906000526020600020905b8154815260200190600101908083116115d8575b5050505050815250509050919050565b6000818152600460205260409020805460609190611619906138de565b80601f0160208091040260200160405190810160405280929190818152602001828054611645906138de565b80156116925780601f1061166757610100808354040283529160200191611692565b820191906000526020600020905b81548152906001019060200180831161167557829003601f168201915b50505050509050919050565b606c546001600160a01b031633146103dc5760405162461bcd60e51b815260206004820181905260248201527f4f776e61626c653a2063616c6c6572206973206e6f7420746865206f776e65726044820152606401610486565b611700612d7c565b603a805460ff191690557f5db9ee0a495bf2e6ff9c91a7834c1ba4fdd244a5e8aa4e537bd38aeae4b073aa335b6040516001600160a01b03909116815260200160405180910390a1565b600754610100900460ff166117b55760405162461bcd60e51b815260206004820152602b60248201527f496e697469616c697a61626c653a20636f6e7472616374206973206e6f74206960448201526a6e697469616c697a696e6760a81b6064820152608401610486565b6103dc612dce565b600754610100900460ff166118285760405162461bcd60e51b815260206004820152602b60248201527f496e697469616c697a61626c653a20636f6e7472616374206973206e6f74206960448201526a6e697469616c697a696e6760a81b6064820152608401610486565b6103dc612e45565b6001600160a01b0382166118ac5760405162461bcd60e51b815260206004820152602e60248201527f457363726f7720636f6e747261637420616464726573732063616e6e6f74206260448201527f65207a65726f20616464726573730000000000000000000000000000000000006064820152608401610486565b6001600160a01b0381166119285760405162461bcd60e51b815260206004820152602860248201527f416374697661746f7220616464726573732063616e6e6f74206265207a65726f60448201527f20616464726573730000000000000000000000000000000000000000000000006064820152608401610486565b600280546001600160a01b0319166001600160a01b03841617905561196d7fec5aad7bdface20c35bc02d6d2d5760df981277427368525d634f4e2603ea192826110e9565b600180546001600160a01b0319166001600160a01b039290921691909117905550565b603a5460ff16156103dc5760405162461bcd60e51b815260206004820152601060248201527f5061757361626c653a20706175736564000000000000000000000000000000006044820152606401610486565b6119eb6131f7565b6000855111611a3c5760405162461bcd60e51b815260206004820152601460248201527f4d697373696e67206d65746164617461205552490000000000000000000000006044820152606401610486565b6000836060015111611a905760405162461bcd60e51b815260206004820152601060248201527f496e76616c696420706f6f6c20636170000000000000000000000000000000006044820152606401610486565b60008360c0015111611b0a5760405162461bcd60e51b815260206004820152602160248201527f4475726174696f6e206d757374206265206174206c65617374206f6e6520646160448201527f79000000000000000000000000000000000000000000000000000000000000006064820152608401610486565b608083015115611b5c5760405162461bcd60e51b815260206004820152601760248201527f53746172742064617465206d757374206265207a65726f0000000000000000006044820152606401610486565b60a083015115611bae5760405162461bcd60e51b815260206004820152601560248201527f456e642064617465206d757374206265207a65726f00000000000000000000006044820152606401610486565b6000836040015111611c025760405162461bcd60e51b815260206004820152601e60248201527f496e76616c696420696d7072657373696f6e20687970652072657761726400006044820152606401610486565b6000611c0c612eb9565b60008181526005602052604090205490915060ff1615611c6e5760405162461bcd60e51b815260206004820152601360248201527f5575696420616c726561647920657869737473000000000000000000000000006044820152606401610486565b611c7b8187878787612f5e565b611c85818761310b565b600081815260036020908152604091829020825160a0810184528154815260018201546001600160a01b0316928101929092528251608081018452600282018054939492939285019282908290611cdb906138de565b80601f0160208091040260200160405190810160405280929190818152602001828054611d07906138de565b8015611d545780601f10611d2957610100808354040283529160200191611d54565b820191906000526020600020905b815481529060010190602001808311611d3757829003601f168201915b50505050508152602001600182018054611d6d906138de565b80601f0160208091040260200160405190810160405280929190818152602001828054611d99906138de565b8015611de65780601f10611dbb57610100808354040283529160200191611de6565b820191906000526020600020905b815481529060010190602001808311611dc957829003601f168201915b50505050508152602001600282018054611dff906138de565b80601f0160208091040260200160405190810160405280929190818152602001828054611e2b906138de565b8015611e785780601f10611e4d57610100808354040283529160200191611e78565b820191906000526020600020905b815481529060010190602001808311611e5b57829003601f168201915b50505050508152602001600382018054611e91906138de565b80601f0160208091040260200160405190810160405280929190818152602001828054611ebd906138de565b8015611f0a5780601f10611edf57610100808354040283529160200191611f0a565b820191906000526020600020905b815481529060010190602001808311611eed57829003601f168201915b5050509190925250505081526040805160e0810182526006840154815260078401546001600160a01b031660208281019190915260088501548284015260098501546060830152600a8501546080830152600b85015460a0830152600c85015460c083015280840191909152600d84018054835181840281018401855281815293909401939091830182828015611fc057602002820191906000526020600020905b815481526020019060010190808311611fac575b505050505081525050915050949350505050565b606c80546001600160a01b038381166001600160a01b0319831681179093556040519116919082907f8be0079c531659141344cd1fd0a4f28419497f9722a3daafe3b4186f6b6457e090600090a35050565b6000818152600360209081526040808320815160a0810183528154815260018201546001600160a01b0316938101939093528151608081018352600282018054929385019282908290612078906138de565b80601f01602080910402602001604051908101604052809291908181526020018280546120a4906138de565b80156120f15780601f106120c6576101008083540402835291602001916120f1565b820191906000526020600020905b8154815290600101906020018083116120d457829003601f168201915b5050505050815260200160018201805461210a906138de565b80601f0160208091040260200160405190810160405280929190818152602001828054612136906138de565b80156121835780601f1061215857610100808354040283529160200191612183565b820191906000526020600020905b81548152906001019060200180831161216657829003601f168201915b5050505050815260200160028201805461219c906138de565b80601f01602080910402602001604051908101604052809291908181526020018280546121c8906138de565b80156122155780601f106121ea57610100808354040283529160200191612215565b820191906000526020600020905b8154815290600101906020018083116121f857829003601f168201915b5050505050815260200160038201805461222e906138de565b80601f016020809104026020016040519081016040528092919081815260200182805461225a906138de565b80156122a75780601f1061227c576101008083540402835291602001916122a7565b820191906000526020600020905b81548152906001019060200180831161228a57829003601f168201915b5050509190925250505081526040805160e0810182526006840154815260078401546001600160a01b031660208281019190915260088501548284015260098501546060830152600a8501546080830152600b85015460a0830152600c85015460c083015280840191909152600d8401805483518184028101840185528181529390940193909183018282801561235d57602002820191906000526020600020905b815481526020019060010190808311612349575b50505050508152505090508060600151604001516000036123c05760405162461bcd60e51b815260206004820152601260248201527f506f6f6c20646f65736e277420657869737400000000000000000000000000006044820152606401610486565b60008281526005602052604090205460ff1661241e5760405162461bcd60e51b815260206004820152601360248201527f506f6f6c20646f6573206e6f74206578697374000000000000000000000000006044820152606401610486565b6124278261053d565b156124745760405162461bcd60e51b815260206004820152601660248201527f506f6f6c20697320616c726561647920616374697665000000000000000000006044820152606401610486565b60006124a07fec5aad7bdface20c35bc02d6d2d5760df981277427368525d634f4e2603ea19233610c48565b90508061264e576002546040517f1aa9e742000000000000000000000000000000000000000000000000000000008152336004820152602481018590526001600160a01b03909116906000908290631aa9e74290604401606060405180830381865afa158015612514573d6000803e3d6000fd5b505050506040513d601f19601f820116820180604052508101906125389190613941565b60608086015101518151919250146125b85760405162461bcd60e51b815260206004820152602860248201527f4465706f736974656420616d6f756e7420646f6573206e6f74206d617463682060448201527f706f6f6c206361700000000000000000000000000000000000000000000000006064820152608401610486565b8360600151602001516001600160a01b031681602001516001600160a01b03161461264b5760405162461bcd60e51b815260206004820152603960248201527f4465706f736974656420746f6b656e206164647265737320646f6573206e6f7460448201527f206d6174636820706f6f6c20746f6b656e2061646472657373000000000000006064820152608401610486565b50505b606082018051426080909101819052905160c0015161266c9161392e565b606083015160a0015260008381526003602090815260409182902084518155908401516001820180546001600160a01b0319166001600160a01b0390921691909117905590830151805184929190600283019081906126cb90826139f1565b50602082015160018201906126e090826139f1565b50604082015160028201906126f590826139f1565b506060820151600382019061270a90826139f1565b505050606082810151805160068401556020808201516007850180546001600160a01b0319166001600160a01b0390921691909117905560408201516008850155918101516009840155608080820151600a85015560a0820151600b85015560c090910151600c840155830151805161278992600d85019201906132a2565b50505060608281015160808082015160a0909201516040805188815233602082015290810193909352928201929092527ff1e6981b3d18841dad1ef7f8db1d40663aaa4b8cd2022e5349498c4d406d00df910161050a565b6127e9611990565b603a805460ff191660011790557f62e78cea01bee320cd4e420270b5ea74000d11b0c9f74754ebdbfc544b05a25861172d3390565b6000818152600360209081526040808320815160a0810183528154815260018201546001600160a01b0316938101939093528151608081018352600282018054929385019282908290612870906138de565b80601f016020809104026020016040519081016040528092919081815260200182805461289c906138de565b80156128e95780601f106128be576101008083540402835291602001916128e9565b820191906000526020600020905b8154815290600101906020018083116128cc57829003601f168201915b50505050508152602001600182018054612902906138de565b80601f016020809104026020016040519081016040528092919081815260200182805461292e906138de565b801561297b5780601f106129505761010080835404028352916020019161297b565b820191906000526020600020905b81548152906001019060200180831161295e57829003601f168201915b50505050508152602001600282018054612994906138de565b80601f01602080910402602001604051908101604052809291908181526020018280546129c0906138de565b8015612a0d5780601f106129e257610100808354040283529160200191612a0d565b820191906000526020600020905b8154815290600101906020018083116129f057829003601f168201915b50505050508152602001600382018054612a26906138de565b80601f0160208091040260200160405190810160405280929190818152602001828054612a52906138de565b8015612a9f5780601f10612a7457610100808354040283529160200191612a9f565b820191906000526020600020905b815481529060010190602001808311612a8257829003601f168201915b5050509190925250505081526040805160e0810182526006840154815260078401546001600160a01b031660208281019190915260088501548284015260098501546060830152600a8501546080830152600b85015460a0830152600c85015460c083015280840191909152600d84018054835181840281018401855281815293909401939091830182828015612b5557602002820191906000526020600020905b815481526020019060010190808311612b41575b5050505050815250509050806060015160400151600003612bb85760405162461bcd60e51b815260206004820152601260248201527f506f6f6c20646f65736e277420657869737400000000000000000000000000006044820152606401610486565b612bc18261053d565b1515600114612c125760405162461bcd60e51b815260206004820152601860248201527f506f6f6c20697320616c726561647920696e61637469766500000000000000006044820152606401610486565b612c1f62093a8042613ab1565b606082015160a0015260008281526003602090815260409182902083518155908301516001820180546001600160a01b0319166001600160a01b039092169190911790559082015180518392919060028301908190612c7e90826139f1565b5060208201516001820190612c9390826139f1565b5060408201516002820190612ca890826139f1565b5060608201516003820190612cbd90826139f1565b505050606082810151805160068401556020808201516007850180546001600160a01b0319166001600160a01b0390921691909117905560408201516008850155918101516009840155608080820151600a85015560a0820151600b85015560c090910151600c8401558301518051612d3c92600d85019201906132a2565b5050604080518481523360208201527f0522afc663a576de692143f1e714306778ade438ea7c739c3a3964bd78eb2cc69250015b60405180910390a15050565b603a5460ff166103dc5760405162461bcd60e51b815260206004820152601460248201527f5061757361626c653a206e6f74207061757365640000000000000000000000006044820152606401610486565b600754610100900460ff16612e395760405162461bcd60e51b815260206004820152602b60248201527f496e697469616c697a61626c653a20636f6e7472616374206973206e6f74206960448201526a6e697469616c697a696e6760a81b6064820152608401610486565b603a805460ff19169055565b600754610100900460ff16612eb05760405162461bcd60e51b815260206004820152602b60248201527f496e697469616c697a61626c653a20636f6e7472616374206973206e6f74206960448201526a6e697469616c697a696e6760a81b6064820152608401610486565b6103dc33611fd4565b60408051436020820181905242928201839052600060608301819052929091839081906080016040516020818303038152906040528051906020012090505b60008181526005602052604090205460ff1615612f565781612f1981613ac4565b6040805160208101889052908101869052606081018290529093506080019050604051602081830303815290604052805190602001209050612ef8565b949350505050565b6040805160a081018252868152336020808301918252828401878152606084018790526080840186905260008a815260039092529390208251815590516001820180546001600160a01b0319166001600160a01b039092169190911790559151805191929160028301908190612fd490826139f1565b5060208201516001820190612fe990826139f1565b5060408201516002820190612ffe90826139f1565b506060820151600382019061301390826139f1565b505050606082810151805160068401556020808201516007850180546001600160a01b0319166001600160a01b0390921691909117905560408201516008850155918101516009840155608080820151600a85015560a0820151600b85015560c090910151600c840155830151805161309292600d85019201906132a2565b50505060008581526005602052604090819020805460ff191660011790556006869055517f3a21eb0a9afc1353da741f39aaea48014c074c6720b61baf41e1e18d6ae7b2fb906130e790879033908890613add565b60405180910390a16130f98584613155565b61310485838361319c565b5050505050565b600082815260046020526040902061312382826139f1565b507fa9397f16db6e1e1b43c1c813233f16139006d56a3d1a24412ebdfb0661b5bfff8282604051612d70929190613b05565b7f764b3686bd9a8c04d487da87edb364f64d505149c22a8b2664d353539ecf6a33828260000151836020015184604001518560600151604051612d70959493929190613b1e565b7f658a37a2d0d90ccd8026f4154a00fc72211da5b1fb273a7e0cc585493357696783836000015184602001518560400151866060015187608001518860a001518960c001518960405161050a99989796959493929190613b7d565b6040518060a001604052806000801916815260200160006001600160a01b031681526020016132476040518060800160405280606081526020016060815260200160608152602001606081525090565b81526020016132956040518060e001604052806000815260200160006001600160a01b0316815260200160008152602001600081526020016000815260200160008152602001600081525090565b8152602001606081525090565b8280548282559060005260206000209081019282156132dd579160200282015b828111156132dd5782518255916020019190600101906132c2565b506132e99291506132ed565b5090565b5b808211156132e957600081556001016132ee565b60006020828403121561331457600080fd5b5035919050565b60e08101610c6d8284805182526001600160a01b03602082015116602083015260408101516040830152606081015160608301526080810151608083015260a081015160a083015260c081015160c08301525050565b6001600160a01b0381168114610c3557600080fd5b6000806040838503121561339957600080fd5b82356133a481613371565b915060208301356133b481613371565b809150509250929050565b634e487b7160e01b600052604160045260246000fd5b6040516080810167ffffffffffffffff811182821017156133f8576133f86133bf565b60405290565b604051601f8201601f1916810167ffffffffffffffff81118282101715613427576134276133bf565b604052919050565b600082601f83011261344057600080fd5b813567ffffffffffffffff81111561345a5761345a6133bf565b61346d601f8201601f19166020016133fe565b81815284602083860101111561348257600080fd5b816020850160208301376000918101602001919091529392505050565b600060e082840312156134b157600080fd5b60405160e0810181811067ffffffffffffffff821117156134d4576134d46133bf565b6040528235815290508060208301356134ec81613371565b8060208301525060408301356040820152606083013560608201526080830135608082015260a083013560a082015260c083013560c08201525092915050565b600082601f83011261353d57600080fd5b8135602067ffffffffffffffff821115613559576135596133bf565b8160051b6135688282016133fe565b928352848101820192828101908785111561358257600080fd5b83870192505b848310156135a157823582529183019190830190613588565b979650505050505050565b60008060008061014085870312156135c357600080fd5b843567ffffffffffffffff808211156135db57600080fd5b6135e78883890161342f565b955060208701359150808211156135fd57600080fd5b908601906080828903121561361157600080fd5b6136196133d5565b82358281111561362857600080fd5b6136348a82860161342f565b82525060208301358281111561364957600080fd5b6136558a82860161342f565b60208301525060408301358281111561366d57600080fd5b6136798a82860161342f565b60408301525060608301358281111561369157600080fd5b61369d8a82860161342f565b60608301525094506136b2886040890161349f565b93506101208701359150808211156136c957600080fd5b506136d68782880161352c565b91505092959194509250565b6000815180845260005b81811015613708576020818501810151868301820152016136ec565b506000602082860101526020601f19601f83011685010191505092915050565b600081518084526020808501945080840160005b838110156137585781518752958201959082019060010161373c565b509495945050505050565b60208152815160208201526001600160a01b03602083015116604082015260006040830151610160806060850152815160806101808601526137a96102008601826136e2565b9050602083015161017f1980878403016101a08801526137c983836136e2565b92506040850151915080878403016101c08801526137e783836136e2565b92506060850151945080878403016101e0880152505061380781846136e2565b92505060608501516138646080860182805182526001600160a01b03602082015116602083015260408101516040830152606081015160608301526080810151608083015260a081015160a083015260c081015160c08301525050565b506080850151848303601f19018286015261387f8382613728565b9695505050505050565b6000806040838503121561389c57600080fd5b8235915060208301356133b481613371565b6000602082840312156138c057600080fd5b81356108a281613371565b6020815260006108a260208301846136e2565b600181811c908216806138f257607f821691505b60208210810361391257634e487b7160e01b600052602260045260246000fd5b50919050565b634e487b7160e01b600052601160045260246000fd5b80820180821115610c6d57610c6d613918565b60006060828403121561395357600080fd5b6040516060810181811067ffffffffffffffff82111715613976576139766133bf565b60405282518152602083015161398b81613371565b60208201526040928301519281019290925250919050565b601f82111561051357600081815260208120601f850160051c810160208610156139ca5750805b601f850160051c820191505b818110156139e9578281556001016139d6565b505050505050565b815167ffffffffffffffff811115613a0b57613a0b6133bf565b613a1f81613a1984546138de565b846139a3565b602080601f831160018114613a545760008415613a3c5750858301515b600019600386901b1c1916600185901b1785556139e9565b600085815260208120601f198616915b82811015613a8357888601518255948401946001909101908401613a64565b5085821015613aa15787850151600019600388901b60f8161c191681555b5050505050600190811b01905550565b81810381811115610c6d57610c6d613918565b600060018201613ad657613ad6613918565b5060010190565b8381526001600160a01b038316602082015260606040820152600061053460608301846136e2565b828152604060208201526000612f5660408301846136e2565b85815260a060208201526000613b3760a08301876136e2565b8281036040840152613b4981876136e2565b90508281036060840152613b5d81866136e2565b90508281036080840152613b7181856136e2565b98975050505050505050565b60006101208b83528a60208401526001600160a01b038a1660408401528860608401528760808401528660a08401528560c08401528460e084015280610100840152613bcb81840185613728565b9c9b50505050505050505050505056fea264697066735822122003ea140002e25cd95d579281ee5948cd01155451df10d30b00cfc1fc4894acc564736f6c63430008120033",
  "linkReferences": {},
  "deployedLinkReferences": {}
}