{
  "_format": "hh-sol-artifact-1",
  "contractName": "HypePoolUpgradeable",
  "sourceName": "contracts/upgradeable/HypePoolUpgradeable.sol",
  "abi": [
    {
      "inputs": [],
      "stateMutability": "nonpayable",
      "type": "constructor"
    },
    {
      "anonymous": false,
      "inputs": [
        {
          "indexed": false,
          "internalType": "uint8",
          "name": "version",
          "type": "uint8"
        }
      ],
      "name": "Initialized",
      "type": "event"
    },
    {
      "anonymous": false,
      "inputs": [
        {
          "indexed": true,
          "internalType": "address",
          "name": "previousOwner",
          "type": "address"
        },
        {
          "indexed": true,
          "internalType": "address",
          "name": "newOwner",
          "type": "address"
        }
      ],
      "name": "OwnershipTransferred",
      "type": "event"
    },
    {
      "anonymous": false,
      "inputs": [
        {
          "indexed": false,
          "internalType": "address",
          "name": "account",
          "type": "address"
        }
      ],
      "name": "Paused",
      "type": "event"
    },
    {
      "anonymous": false,
      "inputs": [
        {
          "indexed": false,
          "internalType": "bytes32",
          "name": "poolId",
          "type": "bytes32"
        },
        {
          "indexed": false,
          "internalType": "address",
          "name": "activator",
          "type": "address"
        },
        {
          "indexed": false,
          "internalType": "uint256",
          "name": "startDate",
          "type": "uint256"
        },
        {
          "indexed": false,
          "internalType": "uint256",
          "name": "endDate",
          "type": "uint256"
        }
      ],
      "name": "PoolActivated",
      "type": "event"
    },
    {
      "anonymous": false,
      "inputs": [
        {
          "indexed": false,
          "internalType": "bytes32",
          "name": "poolId",
          "type": "bytes32"
        },
        {
          "indexed": false,
          "internalType": "address",
          "name": "creator",
          "type": "address"
        },
        {
          "indexed": false,
          "internalType": "string",
          "name": "uri",
          "type": "string"
        }
      ],
      "name": "PoolCreated",
      "type": "event"
    },
    {
      "anonymous": false,
      "inputs": [
        {
          "indexed": false,
          "internalType": "bytes32",
          "name": "poolId",
          "type": "bytes32"
        },
        {
          "indexed": false,
          "internalType": "address",
          "name": "deactivator",
          "type": "address"
        }
      ],
      "name": "PoolDeactivated",
      "type": "event"
    },
    {
      "anonymous": false,
      "inputs": [
        {
          "indexed": false,
          "internalType": "bytes32",
          "name": "poolId",
          "type": "bytes32"
        },
        {
          "indexed": false,
          "internalType": "string",
          "name": "title",
          "type": "string"
        },
        {
          "indexed": false,
          "internalType": "string",
          "name": "projectName",
          "type": "string"
        },
        {
          "indexed": false,
          "internalType": "string",
          "name": "tokenName",
          "type": "string"
        },
        {
          "indexed": false,
          "internalType": "string",
          "name": "campaignWord",
          "type": "string"
        },
        {
          "indexed": false,
          "internalType": "uint256",
          "name": "network",
          "type": "uint256"
        },
        {
          "indexed": false,
          "internalType": "address",
          "name": "tokenAddress",
          "type": "address"
        },
        {
          "indexed": false,
          "internalType": "uint256",
          "name": "impressionReward",
          "type": "uint256"
        },
        {
          "indexed": false,
          "internalType": "uint256",
          "name": "cap",
          "type": "uint256"
        },
        {
          "indexed": false,
          "internalType": "uint256",
          "name": "startDate",
          "type": "uint256"
        },
        {
          "indexed": false,
          "internalType": "uint256",
          "name": "endDate",
          "type": "uint256"
        },
        {
          "indexed": false,
          "internalType": "uint256",
          "name": "duration",
          "type": "uint256"
        },
        {
          "indexed": false,
          "internalType": "uint256[]",
          "name": "leaderRewards",
          "type": "uint256[]"
        }
      ],
      "name": "PoolDetailsAndRewardsCreated",
      "type": "event"
    },
    {
      "anonymous": false,
      "inputs": [
        {
          "indexed": true,
          "internalType": "bytes32",
          "name": "role",
          "type": "bytes32"
        },
        {
          "indexed": true,
          "internalType": "address",
          "name": "account",
          "type": "address"
        }
      ],
      "name": "RoleGranted",
      "type": "event"
    },
    {
      "anonymous": false,
      "inputs": [
        {
          "indexed": true,
          "internalType": "bytes32",
          "name": "role",
          "type": "bytes32"
        },
        {
          "indexed": true,
          "internalType": "address",
          "name": "account",
          "type": "address"
        }
      ],
      "name": "RoleRevoked",
      "type": "event"
    },
    {
      "anonymous": false,
      "inputs": [
        {
          "indexed": false,
          "internalType": "address",
          "name": "account",
          "type": "address"
        }
      ],
      "name": "Unpaused",
      "type": "event"
    },
    {
      "inputs": [],
      "name": "ACTIVATOR_ROLE",
      "outputs": [
        {
          "internalType": "bytes32",
          "name": "",
          "type": "bytes32"
        }
      ],
      "stateMutability": "view",
      "type": "function"
    },
    {
      "inputs": [
        {
          "internalType": "bytes32",
          "name": "uuid",
          "type": "bytes32"
        }
      ],
      "name": "activatePool",
      "outputs": [],
      "stateMutability": "nonpayable",
      "type": "function"
    },
    {
      "inputs": [
        {
          "internalType": "bytes32",
          "name": "role",
          "type": "bytes32"
        },
        {
          "internalType": "address",
          "name": "account",
          "type": "address"
        }
      ],
      "name": "addRole",
      "outputs": [],
      "stateMutability": "nonpayable",
      "type": "function"
    },
    {
      "inputs": [
        {
          "internalType": "string",
          "name": "uri",
          "type": "string"
        },
        {
          "components": [
            {
              "internalType": "string",
              "name": "title",
              "type": "string"
            },
            {
              "internalType": "string",
              "name": "projectName",
              "type": "string"
            },
            {
              "internalType": "string",
              "name": "tokenName",
              "type": "string"
            },
            {
              "internalType": "string",
              "name": "campaignWord",
              "type": "string"
            }
          ],
          "internalType": "struct IHypePool.Details",
          "name": "details",
          "type": "tuple"
        },
        {
          "components": [
            {
              "internalType": "uint256",
              "name": "network",
              "type": "uint256"
            },
            {
              "internalType": "address",
              "name": "tokenAddress",
              "type": "address"
            },
            {
              "internalType": "uint256",
              "name": "impressionReward",
              "type": "uint256"
            },
            {
              "internalType": "uint256",
              "name": "cap",
              "type": "uint256"
            },
            {
              "internalType": "uint256",
              "name": "startDate",
              "type": "uint256"
            },
            {
              "internalType": "uint256",
              "name": "endDate",
              "type": "uint256"
            },
            {
              "internalType": "uint256",
              "name": "duration",
              "type": "uint256"
            }
          ],
          "internalType": "struct IHypePool.Rewards",
          "name": "rewards",
          "type": "tuple"
        },
        {
          "internalType": "uint256[]",
          "name": "leaderRewards",
          "type": "uint256[]"
        }
      ],
      "name": "createPool",
      "outputs": [
        {
          "components": [
            {
              "internalType": "bytes32",
              "name": "id",
              "type": "bytes32"
            },
            {
              "internalType": "address",
              "name": "creator",
              "type": "address"
            },
            {
              "internalType": "string",
              "name": "uri",
              "type": "string"
            },
            {
              "components": [
                {
                  "internalType": "string",
                  "name": "title",
                  "type": "string"
                },
                {
                  "internalType": "string",
                  "name": "projectName",
                  "type": "string"
                },
                {
                  "internalType": "string",
                  "name": "tokenName",
                  "type": "string"
                },
                {
                  "internalType": "string",
                  "name": "campaignWord",
                  "type": "string"
                }
              ],
              "internalType": "struct IHypePool.Details",
              "name": "details",
              "type": "tuple"
            },
            {
              "components": [
                {
                  "internalType": "uint256",
                  "name": "network",
                  "type": "uint256"
                },
                {
                  "internalType": "address",
                  "name": "tokenAddress",
                  "type": "address"
                },
                {
                  "internalType": "uint256",
                  "name": "impressionReward",
                  "type": "uint256"
                },
                {
                  "internalType": "uint256",
                  "name": "cap",
                  "type": "uint256"
                },
                {
                  "internalType": "uint256",
                  "name": "startDate",
                  "type": "uint256"
                },
                {
                  "internalType": "uint256",
                  "name": "endDate",
                  "type": "uint256"
                },
                {
                  "internalType": "uint256",
                  "name": "duration",
                  "type": "uint256"
                }
              ],
              "internalType": "struct IHypePool.Rewards",
              "name": "rewards",
              "type": "tuple"
            },
            {
              "internalType": "uint256[]",
              "name": "leaderRewards",
              "type": "uint256[]"
            }
          ],
          "internalType": "struct IHypePool.HypePool",
          "name": "",
          "type": "tuple"
        }
      ],
      "stateMutability": "nonpayable",
      "type": "function"
    },
    {
      "inputs": [
        {
          "internalType": "bytes32",
          "name": "uuid",
          "type": "bytes32"
        }
      ],
      "name": "deactivatePool",
      "outputs": [],
      "stateMutability": "nonpayable",
      "type": "function"
    },
    {
      "inputs": [
        {
          "internalType": "bytes32",
          "name": "uuid",
          "type": "bytes32"
        }
      ],
      "name": "doesPoolExist",
      "outputs": [
        {
          "internalType": "bool",
          "name": "",
          "type": "bool"
        }
      ],
      "stateMutability": "view",
      "type": "function"
    },
    {
      "inputs": [],
      "name": "getCurrentIndex",
      "outputs": [
        {
          "internalType": "bytes32",
          "name": "",
          "type": "bytes32"
        }
      ],
      "stateMutability": "view",
      "type": "function"
    },
    {
      "inputs": [
        {
          "internalType": "bytes32",
          "name": "uuid",
          "type": "bytes32"
        }
      ],
      "name": "getPool",
      "outputs": [
        {
          "components": [
            {
              "internalType": "bytes32",
              "name": "id",
              "type": "bytes32"
            },
            {
              "internalType": "address",
              "name": "creator",
              "type": "address"
            },
            {
              "internalType": "string",
              "name": "uri",
              "type": "string"
            },
            {
              "components": [
                {
                  "internalType": "string",
                  "name": "title",
                  "type": "string"
                },
                {
                  "internalType": "string",
                  "name": "projectName",
                  "type": "string"
                },
                {
                  "internalType": "string",
                  "name": "tokenName",
                  "type": "string"
                },
                {
                  "internalType": "string",
                  "name": "campaignWord",
                  "type": "string"
                }
              ],
              "internalType": "struct IHypePool.Details",
              "name": "details",
              "type": "tuple"
            },
            {
              "components": [
                {
                  "internalType": "uint256",
                  "name": "network",
                  "type": "uint256"
                },
                {
                  "internalType": "address",
                  "name": "tokenAddress",
                  "type": "address"
                },
                {
                  "internalType": "uint256",
                  "name": "impressionReward",
                  "type": "uint256"
                },
                {
                  "internalType": "uint256",
                  "name": "cap",
                  "type": "uint256"
                },
                {
                  "internalType": "uint256",
                  "name": "startDate",
                  "type": "uint256"
                },
                {
                  "internalType": "uint256",
                  "name": "endDate",
                  "type": "uint256"
                },
                {
                  "internalType": "uint256",
                  "name": "duration",
                  "type": "uint256"
                }
              ],
              "internalType": "struct IHypePool.Rewards",
              "name": "rewards",
              "type": "tuple"
            },
            {
              "internalType": "uint256[]",
              "name": "leaderRewards",
              "type": "uint256[]"
            }
          ],
          "internalType": "struct IHypePool.HypePool",
          "name": "",
          "type": "tuple"
        }
      ],
      "stateMutability": "view",
      "type": "function"
    },
    {
      "inputs": [
        {
          "internalType": "bytes32",
          "name": "uuid",
          "type": "bytes32"
        }
      ],
      "name": "getPoolRewards",
      "outputs": [
        {
          "components": [
            {
              "internalType": "uint256",
              "name": "network",
              "type": "uint256"
            },
            {
              "internalType": "address",
              "name": "tokenAddress",
              "type": "address"
            },
            {
              "internalType": "uint256",
              "name": "impressionReward",
              "type": "uint256"
            },
            {
              "internalType": "uint256",
              "name": "cap",
              "type": "uint256"
            },
            {
              "internalType": "uint256",
              "name": "startDate",
              "type": "uint256"
            },
            {
              "internalType": "uint256",
              "name": "endDate",
              "type": "uint256"
            },
            {
              "internalType": "uint256",
              "name": "duration",
              "type": "uint256"
            }
          ],
          "internalType": "struct IHypePool.Rewards",
          "name": "",
          "type": "tuple"
        }
      ],
      "stateMutability": "view",
      "type": "function"
    },
    {
      "inputs": [
        {
          "internalType": "bytes32",
          "name": "role",
          "type": "bytes32"
        },
        {
          "internalType": "address",
          "name": "account",
          "type": "address"
        }
      ],
      "name": "hasRole",
      "outputs": [
        {
          "internalType": "bool",
          "name": "",
          "type": "bool"
        }
      ],
      "stateMutability": "view",
      "type": "function"
    },
    {
      "inputs": [
        {
          "internalType": "address",
          "name": "escrowContractAddress",
          "type": "address"
        },
        {
          "internalType": "address",
          "name": "activator",
          "type": "address"
        }
      ],
      "name": "initialize",
      "outputs": [],
      "stateMutability": "nonpayable",
      "type": "function"
    },
    {
      "inputs": [
        {
          "internalType": "bytes32",
          "name": "uuid",
          "type": "bytes32"
        }
      ],
      "name": "isActive",
      "outputs": [
        {
          "internalType": "bool",
          "name": "",
          "type": "bool"
        }
      ],
      "stateMutability": "view",
      "type": "function"
    },
    {
      "inputs": [
        {
          "internalType": "bytes32",
          "name": "uuid",
          "type": "bytes32"
        }
      ],
      "name": "isExpired",
      "outputs": [
        {
          "internalType": "bool",
          "name": "",
          "type": "bool"
        }
      ],
      "stateMutability": "view",
      "type": "function"
    },
    {
      "inputs": [
        {
          "internalType": "bytes32",
          "name": "uuid",
          "type": "bytes32"
        }
      ],
      "name": "isGracePeriod",
      "outputs": [
        {
          "internalType": "bool",
          "name": "",
          "type": "bool"
        }
      ],
      "stateMutability": "view",
      "type": "function"
    },
    {
      "inputs": [],
      "name": "owner",
      "outputs": [
        {
          "internalType": "address",
          "name": "",
          "type": "address"
        }
      ],
      "stateMutability": "view",
      "type": "function"
    },
    {
      "inputs": [],
      "name": "pause",
      "outputs": [],
      "stateMutability": "nonpayable",
      "type": "function"
    },
    {
      "inputs": [],
      "name": "paused",
      "outputs": [
        {
          "internalType": "bool",
          "name": "",
          "type": "bool"
        }
      ],
      "stateMutability": "view",
      "type": "function"
    },
    {
      "inputs": [
        {
          "internalType": "bytes32",
          "name": "uuid",
          "type": "bytes32"
        }
      ],
      "name": "poolURI",
      "outputs": [
        {
          "internalType": "string",
          "name": "",
          "type": "string"
        }
      ],
      "stateMutability": "view",
      "type": "function"
    },
    {
      "inputs": [],
      "name": "renounceOwnership",
      "outputs": [],
      "stateMutability": "nonpayable",
      "type": "function"
    },
    {
      "inputs": [
        {
          "internalType": "bytes32",
          "name": "role",
          "type": "bytes32"
        },
        {
          "internalType": "address",
          "name": "account",
          "type": "address"
        }
      ],
      "name": "revokeRole",
      "outputs": [],
      "stateMutability": "nonpayable",
      "type": "function"
    },
    {
      "inputs": [
        {
          "internalType": "address",
          "name": "newOwner",
          "type": "address"
        }
      ],
      "name": "transferOwnership",
      "outputs": [],
      "stateMutability": "nonpayable",
      "type": "function"
    },
    {
      "inputs": [],
      "name": "unpause",
      "outputs": [],
      "stateMutability": "nonpayable",
      "type": "function"
    }
  ],
  "bytecode": "0x60808060405234620000c6576005549060ff8260081c1662000074575060ff8082161062000038575b60405161381d9081620000cc8239f35b60ff90811916176005557f7f26b83ff96e1f2b6a682f133852f6798a09c465da95921460cefb3847402498602060405160ff8152a13862000028565b62461bcd60e51b815260206004820152602760248201527f496e697469616c697a61626c653a20636f6e747261637420697320696e697469604482015266616c697a696e6760c81b6064820152608490fd5b600080fdfe608080604052600436101561001357600080fd5b60003560e01c90816308740a3b14612e19575080630d9005ae14612dfb57806323692edd14612ddd57806324bc597214612d5e5780633f4ba83a14612cc2578063485cc955146129c85780634a3ddf3e14611bc45780635c36901c14611b9c5780635c975abb14611b795780636db2feb214611a0b578063715018a6146119b057806373dfe0da14610f055780638456cb5914610eab5780638da5cb5b14610e8457806391d1485414610e36578063bd033bd014610caa578063d547741f14610bcb578063d9d978591461030f578063e959b38a1461022d578063f2fde38b14610188578063f6c009271461015d5763f8607fb11461011157600080fd5b3461015857602036600319011261015857600435600052600360205261015461014060026040600020016131ac565b604051918291602083526020830190612f4b565b0390f35b600080fd5b346101585760203660031901126101585761015461017c600435613428565b60405191829182612fbf565b34610158576020366003190112610158576101a1612e52565b6101a96130d2565b6001600160a01b038116156101c3576101c19061312a565b005b608460405162461bcd60e51b815260206004820152602660248201527f4f776e61626c653a206e6577206f776e657220697320746865207a65726f206160448201527f64647265737300000000000000000000000000000000000000000000000000006064820152fd5b34610158576040366003190112610158576004356001600160a01b03610251612e68565b169081156102a5578060005260006020526040600020826000526020526040600020600160ff198254161790557f2ae6a113c0ed5b78a53413ffbb7679881f11145ccfba4fb92e863dfcd5a1d2f3600080a3005b608460405162461bcd60e51b815260206004820152603060248201527f416363657373436f6e74726f6c3a2063616e6e6f74206772616e7420726f6c6560448201527f20746f207a65726f2061646472657373000000000000000000000000000000006064820152fd5b3461015857602036600319011261015857610328613735565b6103306130d2565b60043560005260036020526040600020600e6040519161034f83612eb6565b805483526001600160a01b036001820154166020840152610372600282016131ac565b604084015260405161038381612e7e565b61038f600383016131ac565b815261039d600483016131ac565b60208201526103ae600583016131ac565b60408201526103bf600683016131ac565b606082015260608401526040516103d581612e9a565b600782015481526001600160a01b03600883015416602082015260098201546040820152600a8201546060820152600b8201546080820152600c82015460a0820152600d82015460c08201526080840152016040518082602082945493848152019060005260206000209260005b818110610bb257505061045892500382612ed2565b60a082015261047061046b600435613252565b61379c565b600161047d600435613571565b151503610b6e5762093a7f194201428111610b585760a060808301510152600435600052600360205260406000209080518255600182016001600160a01b036020830151166001600160a01b0319825416179055604081015191825167ffffffffffffffff81116107c3576104f56002830154613172565b601f8111610b23575b506020601f8211600114610ab55781929394600092610aaa575b50508160011b916000199060031b1c19161760028201555b6060820151805192835167ffffffffffffffff81116107c3576105566003850154613172565b601f8111610a75575b506020601f8211600114610a065781929394956000926109fb575b50508160011b916000199060031b1c19161760038401555b602082015192835167ffffffffffffffff81116107c3576105b66004830154613172565b601f81116109c6575b506020601f821160011461095757819293949560009261094c575b50508160011b916000199060031b1c19161760048201555b604083015192835167ffffffffffffffff81116107c3576106166005840154613172565b601f8111610917575b506020601f82116001146108a45781906060949596600092610899575b50508160011b916000199060031b1c19161760058401555b015180519067ffffffffffffffff82116107c3576106756006840154613172565b601f8111610859575b50602090601f83116001146107e457918060a09492600e946000926107d9575b50508160011b916000199060031b1c19161760068201555b60c0608085015180516007840155600883016001600160a01b036020830151166001600160a01b0319825416179055604081015160098401556060810151600a8401556080810151600b84015584810151600c8401550151600d8201550191015180519067ffffffffffffffff82116107c3576801000000000000000082116107c35760209083548385558084106107a6575b50019160005260206000209160005b828110610792577f0522afc663a576de692143f1e714306778ade438ea7c739c3a3964bd78eb2cc6604080516004358152336020820152a1005b600190602083519301928186015501610758565b6107bd908560005284846000209182019101613785565b84610749565b634e487b7160e01b600052604160045260246000fd5b01519050868061069e565b906006840160005260206000209160005b601f198516811061084157509260a09492600192600e9583601f19811610610828575b505050811b0160068201556106b6565b015160001960f88460031b161c19169055868080610818565b919260206001819286850151815501940192016107f5565b61088990600685016000526020600020601f850160051c8101916020861061088f575b601f0160051c0190613785565b8461067e565b909150819061087c565b01519050868061063c565b6005840160005260206000209560005b601f19841681106108ff57509582916060959697600194601f198116106108e6575b505050811b016005840155610654565b015160001960f88460031b161c191690558680806108d6565b828201518855600190970196602092830192016108b4565b61094690600585016000526020600020601f840160051c8101916020851061088f57601f0160051c0190613785565b8561061f565b0151905085806105da565b6004830160005260206000209060005b601f19841681106109ae575060019394959683601f19811610610995575b505050811b0160048201556105f2565b015160001960f88460031b161c19169055858080610985565b9091602060018192858b015181550193019101610967565b6109f590600484016000526020600020601f840160051c8101916020851061088f57601f0160051c0190613785565b856105bf565b01519050858061057a565b6003850160005260206000209060005b601f1984168110610a5d575060019394959683601f19811610610a44575b505050811b016003840155610592565b015160001960f88460031b161c19169055858080610a34565b9091602060018192858b015181550193019101610a16565b610aa490600386016000526020600020601f840160051c8101916020851061088f57601f0160051c0190613785565b8561055f565b015190508480610518565b6002830160005260206000209060005b601f1984168110610b0b5750600193949583601f19811610610af2575b505050811b016002820155610530565b015160001960f88460031b161c19169055848080610ae2565b9091602060018192858a015181550193019101610ac5565b610b5290600284016000526020600020601f840160051c8101916020851061088f57601f0160051c0190613785565b846104fe565b634e487b7160e01b600052601160045260246000fd5b606460405162461bcd60e51b815260206004820152601860248201527f506f6f6c20697320616c726561647920696e61637469766500000000000000006044820152fd5b8454835260019485019486945060209093019201610443565b34610158576040366003190112610158576004356001600160a01b03610bef612e68565b16908115610c4057806000526000602052604060002082600052602052604060002060ff1981541690557f155aaafb6329a2098580462df33ec4b7441b19729b9601c5fc17ae1cf99a8a52600080a3005b608460405162461bcd60e51b815260206004820152603360248201527f416363657373436f6e74726f6c3a2063616e6e6f74207265766f6b6520726f6c60448201527f652066726f6d207a65726f2061646472657373000000000000000000000000006064820152fd5b3461015857602080600319360112610158576004356000526003815260406000209060405191610cd983612eb6565b805483526001600160a01b0390600e60019183838201541685870152610d01600282016131ac565b6040870152604051610d1281612e7e565b610d1e600383016131ac565b8152610d2c600483016131ac565b86820152610d3c600583016131ac565b6040820152610d4d600683016131ac565b6060820152606087015260405193610d6485612e9a565b600782015485526008820154168585015260098101546040850152600a8101546060850152600b8101546080850152600c81015460a0850152600d81015460c085015260808601938452016040519182858354918281520192600052856000209060005b818110610e23578760a08888828d610de2838c0384612ed2565b01525101518015159081610e19575b81610e02575b506040519015158152f35b905062093a808101809111610b5857421082610df7565b4281109150610df1565b8254855293870193918301918301610dc8565b3461015857604036600319011261015857610e4f612e68565b60043560005260006020526001600160a01b0360406000209116600052602052602060ff604060002054166040519015158152f35b346101585760003660031901126101585760206001600160a01b03606a5416604051908152f35b3461015857600036600319011261015857610ec46130d2565b610ecc613735565b600160ff1960385416176038557f62e78cea01bee320cd4e420270b5ea74000d11b0c9f74754ebdbfc544b05a2586020604051338152a1005b3461015857602036600319011261015857610f1e613735565b60043560005260036020526040600020600e60405191610f3d83612eb6565b805483526001600160a01b036001820154166020840152610f60600282016131ac565b6040840152604051610f7181612e7e565b610f7d600383016131ac565b8152610f8b600483016131ac565b6020820152610f9c600583016131ac565b6040820152610fad600683016131ac565b60608201526060840152604051610fc381612e9a565b600782015481526001600160a01b03600883015416602082015260098201546040820152600a8201546060820152600b8201546080820152600c82015460a0820152600d82015460c08201526080840152016040518082602082945493848152019060005260206000209260005b81811061199757505061104692500382612ed2565b60a082015261105961046b600435613252565b611064600435613571565b611953573360009081527f7b11379db96bb3d54beb11781be5e345f18ff19de2caada93c24b1c167c1b98b602052604090205460ff1615611777575b42608080830151015260c0608082015101514201804211610b585760a060808301510152600435600052600360205260406000209080518255600182016001600160a01b036020830151166001600160a01b0319825416179055604081015191825167ffffffffffffffff81116107c35761111e6002830154613172565b601f8111611742575b506020601f82116001146116d457819293946000926116c9575b50508160011b916000199060031b1c19161760028201555b6060820151805192835167ffffffffffffffff81116107c35761117f6003850154613172565b601f8111611694575b506020601f821160011461162557819293949560009261161a575b50508160011b916000199060031b1c19161760038401555b602082015192835167ffffffffffffffff81116107c3576111df6004830154613172565b601f81116115e5575b506020601f821160011461157657819293949560009261156b575b50508160011b916000199060031b1c19161760048201555b604083015192835167ffffffffffffffff81116107c35761123f6005840154613172565b601f8111611536575b506020601f82116001146114c357819060609495966000926114b8575b50508160011b916000199060031b1c19161760058401555b015180519067ffffffffffffffff82116107c35761129e6006840154613172565b601f8111611483575b50602090601f831160011461141057600e93929160009183611405575b50508160011b916000199060031b1c19161760068201555b60c0608084015180516007840155600883016001600160a01b036020830151166001600160a01b0319825416179055604081015160098401556060810151600a8401556080810151600b84015560a0810151600c8401550151600d8201550160a08201519081519167ffffffffffffffff83116107c3576801000000000000000083116107c35760209082548484558085106113e8575b500190600052602060002060005b8381106113d4577ff1e6981b3d18841dad1ef7f8db1d40663aaa4b8cd2022e5349498c4d406d00df60808087015160a08282015191015160405191600435835233602084015260408301526060820152a1005b600190602084519401938184015501611381565b6113ff908460005285846000209182019101613785565b85611373565b0151905085806112c4565b906006840160005260206000209160005b601f198516811061146b5750918391600193600e9695601f19811610611452575b505050811b0160068201556112dc565b015160001960f88460031b161c19169055858080611442565b91926020600181928685015181550194019201611421565b6114b290600685016000526020600020601f850160051c8101916020861061088f57601f0160051c0190613785565b846112a7565b015190508680611265565b6005840160005260206000209560005b601f198416811061151e57509582916060959697600194601f19811610611505575b505050811b01600584015561127d565b015160001960f88460031b161c191690558680806114f5565b828201518855600190970196602092830192016114d3565b61156590600585016000526020600020601f840160051c8101916020851061088f57601f0160051c0190613785565b85611248565b015190508580611203565b6004830160005260206000209060005b601f19841681106115cd575060019394959683601f198116106115b4575b505050811b01600482015561121b565b015160001960f88460031b161c191690558580806115a4565b9091602060018192858b015181550193019101611586565b61161490600484016000526020600020601f840160051c8101916020851061088f57601f0160051c0190613785565b856111e8565b0151905085806111a3565b6003850160005260206000209060005b601f198416811061167c575060019394959683601f19811610611663575b505050811b0160038401556111bb565b015160001960f88460031b161c19169055858080611653565b9091602060018192858b015181550193019101611635565b6116c390600386016000526020600020601f840160051c8101916020851061088f57601f0160051c0190613785565b85611188565b015190508480611141565b6002830160005260206000209060005b601f198416811061172a5750600193949583601f19811610611711575b505050811b016002820155611159565b015160001960f88460031b161c19169055848080611701565b9091602060018192858a0151815501930191016116e4565b61177190600284016000526020600020601f840160051c8101916020851061088f57601f0160051c0190613785565b84611127565b604460406001600160a01b03600254168151928380927f1aa9e74200000000000000000000000000000000000000000000000000000000825233600483015260043560248301525afa908115611947576000916118d9575b5080516060608084015101510361186f5760206001600160a01b03910151166001600160a01b0360206080840151015116146110a057608460405162461bcd60e51b815260206004820152603960248201527f4465706f736974656420746f6b656e206164647265737320646f6573206e6f7460448201527f206d6174636820706f6f6c20746f6b656e2061646472657373000000000000006064820152fd5b608460405162461bcd60e51b815260206004820152602860248201527f4465706f736974656420616d6f756e7420646f6573206e6f74206d617463682060448201527f706f6f6c206361700000000000000000000000000000000000000000000000006064820152fd5b90506040813d60401161193f575b816118f460409383612ed2565b810103126101585760405190604082019082821067ffffffffffffffff8311176107c3576020916040528051835201516001600160a01b0381168103610158576020820152826117cf565b3d91506118e7565b6040513d6000823e3d90fd5b606460405162461bcd60e51b815260206004820152601660248201527f506f6f6c20697320616c726561647920616374697665000000000000000000006044820152fd5b8454835260019485019486945060209093019201611031565b34610158576000366003190112610158576119c96130d2565b60006001600160a01b03606a546001600160a01b03198116606a55167f8be0079c531659141344cd1fd0a4f28419497f9722a3daafe3b4186f6b6457e08280a3005b3461015857602080600319360112610158576004356000526003815260406000209060405191611a3a83612eb6565b805483526001600160a01b0390600e60019183838201541685870152611a62600282016131ac565b6040870152604051611a7381612e7e565b611a7f600383016131ac565b8152611a8d600483016131ac565b86820152611a9d600583016131ac565b6040820152611aae600683016131ac565b6060820152606087015260405193611ac585612e9a565b600782015485526008820154168585015260098101546040850152600a8101546060850152600b8101546080850152600c81015460a0850152600d81015460c085015260808601938452016040519182858354918281520192600052856000209060005b818110611b66578760a08888828d611b43838c0384612ed2565b01525101518015159081611b5c57506040519015158152f35b9050421182610df7565b8254855293870193918301918301611b29565b3461015857600036600319011261015857602060ff603854166040519015158152f35b34610158576020366003190112610158576020611bba600435613571565b6040519015158152f35b3461015857600319610140368201126101585760043567ffffffffffffffff811161015857611bf7903690600401612ef4565b6024359167ffffffffffffffff83116101585760809083360301126101585760405191611c2383612e7e565b806004013567ffffffffffffffff811161015857611c479060043691840101612ef4565b8352602481013567ffffffffffffffff811161015857611c6d9060043691840101612ef4565b6020840152604481013567ffffffffffffffff811161015857611c969060043691840101612ef4565b604084015260648101359067ffffffffffffffff8211610158576004611cbf9236920101612ef4565b606083015260e03660431901126101585760405191611cdd83612e9a565b60443583526001600160a01b036064351660643503610158576064356020840152608435604084015260a435606084015260c435608084015260e43560a08401526101043560c084015267ffffffffffffffff610124351161015857366023610124350112156101585767ffffffffffffffff6101243560040135116107c35760405192610124356004013560051b611d796020820186612ed2565b610124356004013585526020850136602483610124350101116101585760246101243501905b60248361012435010182106129b857505050611db96133cf565b50611dc2613735565b611dca6133cf565b50825115612974576060810151156129305760c0810151156128c65760808101516128825760a081015161283e576040810151156127fa57600060405160208101904382524260408201526000606082015260608152611e2981612e7e565b5190205b611e3681613252565b15611e7857506000198114610b585760010193604051602081019043825242604082015286606082015260608152611e6d81612e7e565b519020949094611e2d565b92859150611e8584613252565b6127b65760405194611e9686612eb6565b8486523360208701528060408701528160608701528360808701528260a087015284600052600360205260406000209580518755600187016001600160a01b036020830151166001600160a01b0319825416179055604081015180519067ffffffffffffffff82116107c3578190611f1160028b0154613172565b601f8111612781575b50602090601f831160011461270f57600092612704575b50508160011b916000199060031b1c19161760028801555b6060810151805180519067ffffffffffffffff82116107c3578190611f7160038c0154613172565b601f81116126cf575b50602090601f831160011461265d57600092612652575b50508160011b916000199060031b1c19161760038901555b602081015180519067ffffffffffffffff82116107c3578190611fcf60048c0154613172565b601f811161261d575b50602090601f83116001146125ab576000926125a0575b50508160011b916000199060031b1c19161760048901555b604081015180519067ffffffffffffffff82116107c35761202b60058b0154613172565b601f811161256b575b50602090601f83116001146124f8576060939291600091836124ed575b50508160011b916000199060031b1c19161760058a01555b015180519067ffffffffffffffff82116107c35761208a60068a0154613172565b601f81116124b8575b50602090601f83116001146124455760a09392916000918361243a575b50508160011b916000199060031b1c19161760068901555b60c06080820151805160078b015560088a016001600160a01b036020830151166001600160a01b0319825416179055604081015160098b01556060810151600a8b01556080810151600b8b015583810151600c8b01550151600d890155015180519067ffffffffffffffff82116107c3576801000000000000000082116107c3576020600e91828a015484848c015580851061241b575b5001970160005260206000209660005b82811061240757505050908492918360045560405180918582523360208301526040820160609052606082016121a491612f4b565b037f3a21eb0a9afc1353da741f39aaea48014c074c6720b61baf41e1e18d6ae7b2fb91a1805193602082015190604083015192606001519281519360208301516001600160a01b031660408401519060608501519260808601519460a08701519660c00151976040519c8d9c8d528c6101a06020819201528d0161222791612f4b565b8c810360408e015261223891612f4b565b8b810360608d015261224991612f4b565b8a810360808c015261225a91612f4b565b9660a08a015260c089015260e088015261010087015261012086015261014085015261016084015282810361018084015261229491612f8b565b037fe177d8cf647921122e1571c0c4350314439c08c616150cde995160865220d2d191a160005260036020526040600020604051906122d282612eb6565b8054825260018101546001600160a01b031660208301526122f5600282016131ac565b604083015260405161230681612e7e565b612312600383016131ac565b8152612320600483016131ac565b6020820152612331600583016131ac565b6040820152612342600683016131ac565b6060820152606083015260405161235881612e9a565b6007820154815260088201546001600160a01b0316602082015260098201546040820152600a8201546060820152600b8201546080820152600c82015460a0820152600d82015460c08201526080830152600e019060405191828154908181526020019160005260206000209060005b8181106123f15761015485876123e081880382612ed2565b60a082015260405191829182612fbf565b82548452602090930192600192830192016123c8565b60019060208351930192818b01550161216f565b61243490848c0160005285846000209182019101613785565b8a61215f565b015190508a806120b0565b9060068a0160005260206000209160005b601f19851681106124a0575091839160019360a09695601f19811610612487575b505050811b0160068901556120c8565b015160001960f88460031b161c191690558a8080612477565b91926020600181928685015181550194019201612456565b6124e79060068b016000526020600020601f850160051c8101916020861061088f57601f0160051c0190613785565b89612093565b015190508b80612051565b9060058b0160005260206000209160005b601f1985168110612553575091839160019360609695601f1981161061253a575b505050811b0160058a0155612069565b015160001960f88460031b161c191690558b808061252a565b91926020600181928685015181550194019201612509565b61259a9060058c016000526020600020601f850160051c8101916020861061088f57601f0160051c0190613785565b8a612034565b015190508a80611fef565b925060048b016000526020600020906000935b601f1984168510612602576001945083601f198116106125e9575b505050811b016004890155612007565b015160001960f88460031b161c191690558a80806125d9565b818101518355602094850194600190930192909101906125be565b61264c9060048d016000526020600020601f850160051c8101916020861061088f57601f0160051c0190613785565b8b611fd8565b015190508a80611f91565b925060038b016000526020600020906000935b601f19841685106126b4576001945083601f1981161061269b575b505050811b016003890155611fa9565b015160001960f88460031b161c191690558a808061268b565b81810151835560209485019460019093019290910190612670565b6126fe9060038d016000526020600020601f850160051c8101916020861061088f57601f0160051c0190613785565b8b611f7a565b015190508980611f31565b925060028a016000526020600020906000935b601f1984168510612766576001945083601f1981161061274d575b505050811b016002880155611f49565b015160001960f88460031b161c1916905589808061273d565b81810151835560209485019460019093019290910190612722565b6127b09060028c016000526020600020601f850160051c8101916020861061088f57601f0160051c0190613785565b8a611f1a565b606460405162461bcd60e51b815260206004820152601360248201527f5575696420616c726561647920657869737473000000000000000000000000006044820152fd5b606460405162461bcd60e51b815260206004820152601e60248201527f496e76616c696420696d7072657373696f6e20687970652072657761726400006044820152fd5b606460405162461bcd60e51b815260206004820152601560248201527f456e642064617465206d757374206265207a65726f00000000000000000000006044820152fd5b606460405162461bcd60e51b815260206004820152601760248201527f53746172742064617465206d757374206265207a65726f0000000000000000006044820152fd5b608460405162461bcd60e51b815260206004820152602160248201527f4475726174696f6e206d757374206265206174206c65617374206f6e6520646160448201527f79000000000000000000000000000000000000000000000000000000000000006064820152fd5b606460405162461bcd60e51b815260206004820152601060248201527f496e76616c696420706f6f6c20636170000000000000000000000000000000006044820152fd5b606460405162461bcd60e51b815260206004820152601460248201527f4d697373696e67206d65746164617461205552490000000000000000000000006044820152fd5b8135815260209182019101611d9f565b34610158576040366003190112610158576129e1612e52565b6129e9612e68565b9060059182549060ff8260081c161592838094612cb5575b8015612c9e575b15612c345760ff1983811660011786559284612c23575b50612a5360ff865460081c16612a34816136c4565b612a3d816136c4565b8460385416603855612a4e816136c4565b6136c4565b612a5c3361312a565b6001600160a01b03809116918215612bb95716918215612b4f57600280546001600160a01b0319908116909317905560008381527f7b11379db96bb3d54beb11781be5e345f18ff19de2caada93c24b1c167c1b98b60205260408120805490921660011790915582907fec5aad7bdface20c35bc02d6d2d5760df981277427368525d634f4e2603ea192907f2ae6a113c0ed5b78a53413ffbb7679881f11145ccfba4fb92e863dfcd5a1d2f39080a36001541617600155612b1957005b61ff001981541690557f7f26b83ff96e1f2b6a682f133852f6798a09c465da95921460cefb3847402498602060405160018152a1005b608460405162461bcd60e51b815260206004820152602860248201527f416374697661746f7220616464726573732063616e6e6f74206265207a65726f60448201527f20616464726573730000000000000000000000000000000000000000000000006064820152fd5b608460405162461bcd60e51b815260206004820152602e60248201527f457363726f7720636f6e747261637420616464726573732063616e6e6f74206260448201527f65207a65726f20616464726573730000000000000000000000000000000000006064820152fd5b61ffff191661010117855585612a1f565b608460405162461bcd60e51b815260206004820152602e60248201527f496e697469616c697a61626c653a20636f6e747261637420697320616c72656160448201527f647920696e697469616c697a65640000000000000000000000000000000000006064820152fd5b50303b158015612a085750600160ff841614612a08565b50600160ff841610612a01565b3461015857600036600319011261015857612cdb6130d2565b60385460ff811615612d1a5760ff19166038557f5db9ee0a495bf2e6ff9c91a7834c1ba4fdd244a5e8aa4e537bd38aeae4b073aa6020604051338152a1005b606460405162461bcd60e51b815260206004820152601460248201527f5061757361626c653a206e6f74207061757365640000000000000000000000006044820152fd5b3461015857602036600319011261015857612d77613397565b5060e06080612d87600435613428565b0151612ddb604051809260c08091805184526001600160a01b03602082015116602085015260408101516040850152606081015160608501526080810151608085015260a081015160a08501520151910152565bf35b34610158576020366003190112610158576020611bba600435613252565b34610158576000366003190112610158576020600454604051908152f35b3461015857600036600319011261015857807fec5aad7bdface20c35bc02d6d2d5760df981277427368525d634f4e2603ea19260209252f35b600435906001600160a01b038216820361015857565b602435906001600160a01b038216820361015857565b6080810190811067ffffffffffffffff8211176107c357604052565b60e0810190811067ffffffffffffffff8211176107c357604052565b60c0810190811067ffffffffffffffff8211176107c357604052565b90601f8019910116810190811067ffffffffffffffff8211176107c357604052565b81601f820112156101585780359067ffffffffffffffff82116107c35760405192612f29601f8401601f191660200185612ed2565b8284526020838301011161015857816000926020809301838601378301015290565b919082519283825260005b848110612f77575050826000602080949584010152601f8019910116010190565b602081830181015184830182015201612f56565b90815180825260208080930193019160005b828110612fab575050505090565b835185529381019392810192600101612f9d565b906130cf9160208152815160208201526001600160a01b036020830151166040820152604082015190613000610180928360608401526101a0830190612f4b565b9160a06130696060860151601f19958686820301608087015260606130586130466130348551608086526080860190612f4b565b60208601518582036020870152612f4b565b60408501518482036040860152612f4b565b920151906060818403910152612f4b565b946130c060808201518386019060c08091805184526001600160a01b03602082015116602085015260408101516040850152606081015160608501526080810151608085015260a081015160a08501520151910152565b01519282850301910152612f8b565b90565b6001600160a01b03606a541633036130e657565b606460405162461bcd60e51b815260206004820152602060248201527f4f776e61626c653a2063616c6c6572206973206e6f7420746865206f776e65726044820152fd5b606a54906001600160a01b0380911691826001600160a01b0319821617606a55167f8be0079c531659141344cd1fd0a4f28419497f9722a3daafe3b4186f6b6457e0600080a3565b90600182811c921680156131a2575b602083101461318c57565b634e487b7160e01b600052602260045260246000fd5b91607f1691613181565b90604051918260008254926131c084613172565b90818452600194858116908160001461322f57506001146131ec575b50506131ea92500383612ed2565b565b9093915060005260209081600020936000915b8183106132175750506131ea935082010138806131dc565b855488840185015294850194879450918301916131ff565b9150506131ea94506020925060ff191682840152151560051b82010138806131dc565b60005260206003815260408060002090805161326d81612eb6565b825481526001600160a01b0393600192600e86858701541695838501968752613298600282016131ac565b8386015282516132a781612e7e565b6132b3600383016131ac565b81526132c1600483016131ac565b858201526132d1600583016131ac565b848201526132e1600683016131ac565b6060820152606086015282516132f681612e9a565b600782015481528860088301541685820152600982015484820152600a8201546060820152600b8201546080820152600c82015460a0820152600d82015460c08201526080860152019051918294859382845491828152019360005282600020926000905b82821061337f57505050505060a09291613376910384612ed2565b01525116151590565b8454865288965094850194938301939083019061335b565b604051906133a482612e9a565b8160c06000918281528260208201528260408201528260608201528260808201528260a08201520152565b604051906133dc82612eb6565b81600081526000602082015260a06060918260408201526040516133ff81612e7e565b83815283602082015283604082015283808201528382015261341f613397565b60808201520152565b6134306133cf565b50600052602060038152604090816000209082519261344e84612eb6565b82548452600e6001600160a01b039360019480868301541685880152613476600283016131ac565b84880152835161348581612e7e565b613491600384016131ac565b815261349f600484016131ac565b868201526134af600584016131ac565b858201526134bf600684016131ac565b606082015260608801528351906134d582612e9a565b6007830154825260088301541685820152600982015484820152600a8201546060820152600b8201546080820152600c82015460a0820152600d82015460c08201526080870152019051918293849382845491828152019360005282600020926000905b82821061355957505050505090613551910382612ed2565b60a082015290565b84548652879650948501949383019390830190613539565b60005260209060038252604091826000209083519361358f85612eb6565b825485526001600160a01b0392600e600191858382015416858901526135b7600282016131ac565b8489015283516135c681612e7e565b6135d2600383016131ac565b81526135e0600483016131ac565b868201526135f0600583016131ac565b85820152613600600683016131ac565b6060820152606089015283519561361687612e9a565b6007820154875260088201541685870152600981015484870152600a8101546060870152600b8101546080870152600c81015460a0870152600d81015460c087015260808801958652019151928381845491828152019360005281600020916000905b8282106136af57505050505060a093946136968386930384612ed2565b015251015180151590816136a8575090565b9050421090565b83548652948501949284019290840190613679565b156136cb57565b608460405162461bcd60e51b815260206004820152602b60248201527f496e697469616c697a61626c653a20636f6e7472616374206973206e6f74206960448201527f6e697469616c697a696e670000000000000000000000000000000000000000006064820152fd5b60ff6038541661374157565b606460405162461bcd60e51b815260206004820152601060248201527f5061757361626c653a20706175736564000000000000000000000000000000006044820152fd5b818110613790575050565b60008155600101613785565b156137a357565b606460405162461bcd60e51b815260206004820152601360248201527f506f6f6c20646f6573206e6f74206578697374000000000000000000000000006044820152fdfea26469706673582212201b4d73f4a57e37308b34da4160b507165a594acf1cea763a772382f61a79979f64736f6c63430008120033",
  "linkReferences": {},
  "deployedLinkReferences": {}
}