{
  "_format": "hh-sol-artifact-1",
  "contractName": "HypePoolUpgradeable",
  "sourceName": "contracts/upgradeable/HypePoolUpgradeable.sol",
  "abi": [
    {
      "inputs": [],
      "stateMutability": "nonpayable",
      "type": "constructor"
    },
    {
      "anonymous": false,
      "inputs": [
        {
          "indexed": false,
          "internalType": "uint8",
          "name": "version",
          "type": "uint8"
        }
      ],
      "name": "Initialized",
      "type": "event"
    },
    {
      "anonymous": false,
      "inputs": [
        {
          "indexed": true,
          "internalType": "address",
          "name": "previousOwner",
          "type": "address"
        },
        {
          "indexed": true,
          "internalType": "address",
          "name": "newOwner",
          "type": "address"
        }
      ],
      "name": "OwnershipTransferred",
      "type": "event"
    },
    {
      "anonymous": false,
      "inputs": [
        {
          "indexed": false,
          "internalType": "address",
          "name": "account",
          "type": "address"
        }
      ],
      "name": "Paused",
      "type": "event"
    },
    {
      "anonymous": false,
      "inputs": [
        {
          "indexed": false,
          "internalType": "bytes32",
          "name": "poolId",
          "type": "bytes32"
        },
        {
          "indexed": false,
          "internalType": "address",
          "name": "activator",
          "type": "address"
        },
        {
          "indexed": false,
          "internalType": "uint256",
          "name": "startDate",
          "type": "uint256"
        },
        {
          "indexed": false,
          "internalType": "uint256",
          "name": "endDate",
          "type": "uint256"
        }
      ],
      "name": "PoolActivated",
      "type": "event"
    },
    {
      "anonymous": false,
      "inputs": [
        {
          "indexed": false,
          "internalType": "bytes32",
          "name": "poolId",
          "type": "bytes32"
        },
        {
          "indexed": false,
          "internalType": "address",
          "name": "creator",
          "type": "address"
        },
        {
          "indexed": false,
          "internalType": "string",
          "name": "uri",
          "type": "string"
        }
      ],
      "name": "PoolCreated",
      "type": "event"
    },
    {
      "anonymous": false,
      "inputs": [
        {
          "indexed": false,
          "internalType": "bytes32",
          "name": "poolId",
          "type": "bytes32"
        },
        {
          "indexed": false,
          "internalType": "address",
          "name": "deactivator",
          "type": "address"
        }
      ],
      "name": "PoolDeactivated",
      "type": "event"
    },
    {
      "anonymous": false,
      "inputs": [
        {
          "indexed": false,
          "internalType": "bytes32",
          "name": "poolId",
          "type": "bytes32"
        },
        {
          "indexed": false,
          "internalType": "string",
          "name": "title",
          "type": "string"
        },
        {
          "indexed": false,
          "internalType": "string",
          "name": "projectName",
          "type": "string"
        },
        {
          "indexed": false,
          "internalType": "string",
          "name": "tokenName",
          "type": "string"
        },
        {
          "indexed": false,
          "internalType": "string",
          "name": "word",
          "type": "string"
        }
      ],
      "name": "PoolDetailsCreated",
      "type": "event"
    },
    {
      "anonymous": false,
      "inputs": [
        {
          "indexed": false,
          "internalType": "bytes32",
          "name": "poolId",
          "type": "bytes32"
        },
        {
          "indexed": false,
          "internalType": "uint256",
          "name": "network",
          "type": "uint256"
        },
        {
          "indexed": false,
          "internalType": "address",
          "name": "tokenAddress",
          "type": "address"
        },
        {
          "indexed": false,
          "internalType": "uint256",
          "name": "impressionReward",
          "type": "uint256"
        },
        {
          "indexed": false,
          "internalType": "uint256",
          "name": "cap",
          "type": "uint256"
        },
        {
          "indexed": false,
          "internalType": "uint256",
          "name": "startDate",
          "type": "uint256"
        },
        {
          "indexed": false,
          "internalType": "uint256",
          "name": "endDate",
          "type": "uint256"
        },
        {
          "indexed": false,
          "internalType": "uint256",
          "name": "duration",
          "type": "uint256"
        }
      ],
      "name": "PoolRewardsCreated",
      "type": "event"
    },
    {
      "anonymous": false,
      "inputs": [
        {
          "indexed": false,
          "internalType": "bytes32",
          "name": "poolId",
          "type": "bytes32"
        },
        {
          "indexed": false,
          "internalType": "string",
          "name": "uri",
          "type": "string"
        }
      ],
      "name": "PoolUriSet",
      "type": "event"
    },
    {
      "anonymous": false,
      "inputs": [
        {
          "indexed": false,
          "internalType": "address",
          "name": "account",
          "type": "address"
        }
      ],
      "name": "Unpaused",
      "type": "event"
    },
    {
      "inputs": [
        {
          "internalType": "bytes32",
          "name": "hash",
          "type": "bytes32"
        }
      ],
      "name": "activatePool",
      "outputs": [],
      "stateMutability": "nonpayable",
      "type": "function"
    },
    {
      "inputs": [
        {
          "internalType": "string",
          "name": "uri",
          "type": "string"
        },
        {
          "components": [
            {
              "internalType": "string",
              "name": "title",
              "type": "string"
            },
            {
              "internalType": "string",
              "name": "projectName",
              "type": "string"
            },
            {
              "internalType": "string",
              "name": "tokenName",
              "type": "string"
            },
            {
              "internalType": "string",
              "name": "word",
              "type": "string"
            }
          ],
          "internalType": "struct IHypePool.Details",
          "name": "details",
          "type": "tuple"
        },
        {
          "components": [
            {
              "internalType": "uint256",
              "name": "network",
              "type": "uint256"
            },
            {
              "internalType": "address",
              "name": "tokenAddress",
              "type": "address"
            },
            {
              "internalType": "uint256",
              "name": "impressionReward",
              "type": "uint256"
            },
            {
              "internalType": "uint256",
              "name": "cap",
              "type": "uint256"
            },
            {
              "internalType": "uint256",
              "name": "startDate",
              "type": "uint256"
            },
            {
              "internalType": "uint256",
              "name": "endDate",
              "type": "uint256"
            },
            {
              "internalType": "uint256",
              "name": "duration",
              "type": "uint256"
            }
          ],
          "internalType": "struct IHypePool.Rewards",
          "name": "rewards",
          "type": "tuple"
        }
      ],
      "name": "createPool",
      "outputs": [
        {
          "components": [
            {
              "internalType": "bytes32",
              "name": "id",
              "type": "bytes32"
            },
            {
              "internalType": "address",
              "name": "creator",
              "type": "address"
            },
            {
              "internalType": "bool",
              "name": "active",
              "type": "bool"
            },
            {
              "components": [
                {
                  "internalType": "string",
                  "name": "title",
                  "type": "string"
                },
                {
                  "internalType": "string",
                  "name": "projectName",
                  "type": "string"
                },
                {
                  "internalType": "string",
                  "name": "tokenName",
                  "type": "string"
                },
                {
                  "internalType": "string",
                  "name": "word",
                  "type": "string"
                }
              ],
              "internalType": "struct IHypePool.Details",
              "name": "details",
              "type": "tuple"
            },
            {
              "components": [
                {
                  "internalType": "uint256",
                  "name": "network",
                  "type": "uint256"
                },
                {
                  "internalType": "address",
                  "name": "tokenAddress",
                  "type": "address"
                },
                {
                  "internalType": "uint256",
                  "name": "impressionReward",
                  "type": "uint256"
                },
                {
                  "internalType": "uint256",
                  "name": "cap",
                  "type": "uint256"
                },
                {
                  "internalType": "uint256",
                  "name": "startDate",
                  "type": "uint256"
                },
                {
                  "internalType": "uint256",
                  "name": "endDate",
                  "type": "uint256"
                },
                {
                  "internalType": "uint256",
                  "name": "duration",
                  "type": "uint256"
                }
              ],
              "internalType": "struct IHypePool.Rewards",
              "name": "rewards",
              "type": "tuple"
            }
          ],
          "internalType": "struct IHypePool.HypePool",
          "name": "",
          "type": "tuple"
        }
      ],
      "stateMutability": "nonpayable",
      "type": "function"
    },
    {
      "inputs": [
        {
          "internalType": "bytes32",
          "name": "hash",
          "type": "bytes32"
        }
      ],
      "name": "deactivatePool",
      "outputs": [],
      "stateMutability": "nonpayable",
      "type": "function"
    },
    {
      "inputs": [],
      "name": "getCurrentIndex",
      "outputs": [
        {
          "internalType": "bytes32",
          "name": "",
          "type": "bytes32"
        }
      ],
      "stateMutability": "view",
      "type": "function"
    },
    {
      "inputs": [
        {
          "internalType": "bytes32",
          "name": "hash",
          "type": "bytes32"
        }
      ],
      "name": "getPool",
      "outputs": [
        {
          "components": [
            {
              "internalType": "bytes32",
              "name": "id",
              "type": "bytes32"
            },
            {
              "internalType": "address",
              "name": "creator",
              "type": "address"
            },
            {
              "internalType": "bool",
              "name": "active",
              "type": "bool"
            },
            {
              "components": [
                {
                  "internalType": "string",
                  "name": "title",
                  "type": "string"
                },
                {
                  "internalType": "string",
                  "name": "projectName",
                  "type": "string"
                },
                {
                  "internalType": "string",
                  "name": "tokenName",
                  "type": "string"
                },
                {
                  "internalType": "string",
                  "name": "word",
                  "type": "string"
                }
              ],
              "internalType": "struct IHypePool.Details",
              "name": "details",
              "type": "tuple"
            },
            {
              "components": [
                {
                  "internalType": "uint256",
                  "name": "network",
                  "type": "uint256"
                },
                {
                  "internalType": "address",
                  "name": "tokenAddress",
                  "type": "address"
                },
                {
                  "internalType": "uint256",
                  "name": "impressionReward",
                  "type": "uint256"
                },
                {
                  "internalType": "uint256",
                  "name": "cap",
                  "type": "uint256"
                },
                {
                  "internalType": "uint256",
                  "name": "startDate",
                  "type": "uint256"
                },
                {
                  "internalType": "uint256",
                  "name": "endDate",
                  "type": "uint256"
                },
                {
                  "internalType": "uint256",
                  "name": "duration",
                  "type": "uint256"
                }
              ],
              "internalType": "struct IHypePool.Rewards",
              "name": "rewards",
              "type": "tuple"
            }
          ],
          "internalType": "struct IHypePool.HypePool",
          "name": "",
          "type": "tuple"
        }
      ],
      "stateMutability": "view",
      "type": "function"
    },
    {
      "inputs": [
        {
          "internalType": "address",
          "name": "escrowContractAddress",
          "type": "address"
        }
      ],
      "name": "initialize",
      "outputs": [],
      "stateMutability": "nonpayable",
      "type": "function"
    },
    {
      "inputs": [],
      "name": "owner",
      "outputs": [
        {
          "internalType": "address",
          "name": "",
          "type": "address"
        }
      ],
      "stateMutability": "view",
      "type": "function"
    },
    {
      "inputs": [],
      "name": "pause",
      "outputs": [],
      "stateMutability": "nonpayable",
      "type": "function"
    },
    {
      "inputs": [],
      "name": "paused",
      "outputs": [
        {
          "internalType": "bool",
          "name": "",
          "type": "bool"
        }
      ],
      "stateMutability": "view",
      "type": "function"
    },
    {
      "inputs": [
        {
          "internalType": "bytes32",
          "name": "hash",
          "type": "bytes32"
        }
      ],
      "name": "poolURI",
      "outputs": [
        {
          "internalType": "string",
          "name": "",
          "type": "string"
        }
      ],
      "stateMutability": "view",
      "type": "function"
    },
    {
      "inputs": [],
      "name": "renounceOwnership",
      "outputs": [],
      "stateMutability": "nonpayable",
      "type": "function"
    },
    {
      "inputs": [
        {
          "internalType": "address",
          "name": "newOwner",
          "type": "address"
        }
      ],
      "name": "transferOwnership",
      "outputs": [],
      "stateMutability": "nonpayable",
      "type": "function"
    },
    {
      "inputs": [],
      "name": "unpause",
      "outputs": [],
      "stateMutability": "nonpayable",
      "type": "function"
    }
  ],
  "bytecode": "0x60806040523480156200001157600080fd5b506200001c62000022565b620000e4565b600054610100900460ff16156200008f5760405162461bcd60e51b815260206004820152602760248201527f496e697469616c697a61626c653a20636f6e747261637420697320696e697469604482015266616c697a696e6760c81b606482015260840160405180910390fd5b60005460ff9081161015620000e2576000805460ff191660ff9081179091556040519081527f7f26b83ff96e1f2b6a682f133852f6798a09c465da95921460cefb38474024989060200160405180910390a15b565b6128cc80620000f46000396000f3fe608060405234801561001057600080fd5b50600436106100df5760003560e01c80638456cb591161008c578063d9d9785911610066578063d9d978591461018b578063f2fde38b1461019e578063f6c00927146101b1578063f8607fb1146101c457600080fd5b80638456cb59146101555780638da5cb5b1461015d578063c4d66de81461017857600080fd5b8063715018a6116100bd578063715018a61461011a57806373dfe0da1461012257806377108fcc1461013557600080fd5b80630d9005ae146100e45780633f4ba83a146100fa5780635c975abb14610104575b600080fd5b609b546040519081526020015b60405180910390f35b6101026101e4565b005b60335460ff1660405190151581526020016100f1565b6101026101f6565b6101026101303660046121d0565b610208565b610148610143366004612357565b610972565b6040516100f191906124af565b610102610f2a565b6065546040516001600160a01b0390911681526020016100f1565b6101026101863660046125c3565b610f3a565b6101026101993660046121d0565b61107f565b6101026101ac3660046125c3565b6115ba565b6101486101bf3660046121d0565b61164a565b6101d76101d23660046121d0565b61195e565b6040516100f191906125e7565b6101ec611a00565b6101f4611a5a565b565b6101fe611a00565b6101f46000611aac565b610210611afe565b6000818152609860209081526040808320815160a0810183528154815260018201546001600160a01b03811694820194909452600160a01b90930460ff16151583830152815160808101909252600281018054919260608501929091908290829061027a906125fa565b80601f01602080910402602001604051908101604052809291908181526020018280546102a6906125fa565b80156102f35780601f106102c8576101008083540402835291602001916102f3565b820191906000526020600020905b8154815290600101906020018083116102d657829003601f168201915b5050505050815260200160018201805461030c906125fa565b80601f0160208091040260200160405190810160405280929190818152602001828054610338906125fa565b80156103855780601f1061035a57610100808354040283529160200191610385565b820191906000526020600020905b81548152906001019060200180831161036857829003601f168201915b5050505050815260200160028201805461039e906125fa565b80601f01602080910402602001604051908101604052809291908181526020018280546103ca906125fa565b80156104175780601f106103ec57610100808354040283529160200191610417565b820191906000526020600020905b8154815290600101906020018083116103fa57829003601f168201915b50505050508152602001600382018054610430906125fa565b80601f016020809104026020016040519081016040528092919081815260200182805461045c906125fa565b80156104a95780601f1061047e576101008083540402835291602001916104a9565b820191906000526020600020905b81548152906001019060200180831161048c57829003601f168201915b5050509190925250505081526040805160e0810182526006840154815260078401546001600160a01b031660208281019190915260088501548284015260098501546060830152600a850154608080840191909152600b86015460a0840152600c9095015460c0830152909201919091529082015101519091506000036105775760405162461bcd60e51b815260206004820152601260248201527f506f6f6c20646f65736e2774206578697374000000000000000000000000000060448201526064015b60405180910390fd5b6000828152609a602052604090205460ff166105d55760405162461bcd60e51b815260206004820152601360248201527f506f6f6c20646f6573206e6f7420657869737400000000000000000000000000604482015260640161056e565b6040810151156106275760405162461bcd60e51b815260206004820152601660248201527f506f6f6c20697320616c72656164792061637469766500000000000000000000604482015260640161056e565b6097546040517f1aa9e742000000000000000000000000000000000000000000000000000000008152336004820152602481018490526001600160a01b03909116906000908290631aa9e74290604401606060405180830381865afa158015610694573d6000803e3d6000fd5b505050506040513d601f19601f820116820180604052508101906106b89190612634565b6080840151606001518151919250146107395760405162461bcd60e51b815260206004820152602860248201527f4465706f736974656420616d6f756e7420646f6573206e6f74206d617463682060448201527f706f6f6c20636170000000000000000000000000000000000000000000000000606482015260840161056e565b8260800151602001516001600160a01b031681602001516001600160a01b0316146107cc5760405162461bcd60e51b815260206004820152603960248201527f4465706f736974656420746f6b656e206164647265737320646f6573206e6f7460448201527f206d6174636820706f6f6c20746f6b656e206164647265737300000000000000606482015260840161056e565b60016040840152608080840180514292018290525160c001516107ee916126ac565b608084015160a001526000848152609860209081526040918290208551815590850151600182018054938701511515600160a01b0274ffffffffffffffffffffffffffffffffffffffffff199094166001600160a01b03909216919091179290921790915560608401518051859291906002830190819061086f9082612714565b50602082015160018201906108849082612714565b50604082015160028201906108999082612714565b50606082015160038201906108ae9082612714565b505050608091820151805160068301556020808201516007840180546001600160a01b0319166001600160a01b039092169190911790556040808301516008850155606080840151600986015583860151600a86015560a080850151600b87015560c090940151600c90950194909455878501518086015193015181518a8152339381019390935290820192909252918201527ff1e6981b3d18841dad1ef7f8db1d40663aaa4b8cd2022e5349498c4d406d00df910160405180910390a150505050565b61097a612124565b610982611afe565b60008451116109d35760405162461bcd60e51b815260206004820152601460248201527f4d697373696e67206d6574616461746120555249000000000000000000000000604482015260640161056e565b6000826060015111610a275760405162461bcd60e51b815260206004820152601060248201527f496e76616c696420706f6f6c2063617000000000000000000000000000000000604482015260640161056e565b60008260c0015111610aa15760405162461bcd60e51b815260206004820152602160248201527f4475726174696f6e206d757374206265206174206c65617374206f6e6520646160448201527f7900000000000000000000000000000000000000000000000000000000000000606482015260840161056e565b608082015115610af35760405162461bcd60e51b815260206004820152601760248201527f53746172742064617465206d757374206265207a65726f000000000000000000604482015260640161056e565b60a082015115610b455760405162461bcd60e51b815260206004820152601560248201527f456e642064617465206d757374206265207a65726f0000000000000000000000604482015260640161056e565b6000826040015111610b995760405162461bcd60e51b815260206004820152601e60248201527f496e76616c696420696d7072657373696f6e2068797065207265776172640000604482015260640161056e565b6000610ba3611b51565b6000818152609a602052604090205490915060ff1615610c055760405162461bcd60e51b815260206004820152601360248201527f4861736820616c72656164792065786973747300000000000000000000000000604482015260640161056e565b610c1181868686611bf6565b610c1b8186611daa565b600081815260986020908152604091829020825160a0810184528154815260018201546001600160a01b03811693820193909352600160a01b90920460ff16151582840152825160808101909352600281018054929391926060850192919082908290610c87906125fa565b80601f0160208091040260200160405190810160405280929190818152602001828054610cb3906125fa565b8015610d005780601f10610cd557610100808354040283529160200191610d00565b820191906000526020600020905b815481529060010190602001808311610ce357829003601f168201915b50505050508152602001600182018054610d19906125fa565b80601f0160208091040260200160405190810160405280929190818152602001828054610d45906125fa565b8015610d925780601f10610d6757610100808354040283529160200191610d92565b820191906000526020600020905b815481529060010190602001808311610d7557829003601f168201915b50505050508152602001600282018054610dab906125fa565b80601f0160208091040260200160405190810160405280929190818152602001828054610dd7906125fa565b8015610e245780601f10610df957610100808354040283529160200191610e24565b820191906000526020600020905b815481529060010190602001808311610e0757829003601f168201915b50505050508152602001600382018054610e3d906125fa565b80601f0160208091040260200160405190810160405280929190818152602001828054610e69906125fa565b8015610eb65780601f10610e8b57610100808354040283529160200191610eb6565b820191906000526020600020905b815481529060010190602001808311610e9957829003601f168201915b5050509190925250505081526040805160e0810182526006840154815260078401546001600160a01b031660208083019190915260088501549282019290925260098401546060820152600a8401546080820152600b84015460a0820152600c9093015460c0840152015295945050505050565b610f32611a00565b6101f4611df4565b600054610100900460ff1615808015610f5a5750600054600160ff909116105b80610f745750303b158015610f74575060005460ff166001145b610fe65760405162461bcd60e51b815260206004820152602e60248201527f496e697469616c697a61626c653a20636f6e747261637420697320616c72656160448201527f647920696e697469616c697a6564000000000000000000000000000000000000606482015260840161056e565b6000805460ff191660011790558015611009576000805461ff0019166101001790555b611011611e31565b609780546001600160a01b0319166001600160a01b038416179055611034611ea4565b801561107b576000805461ff0019169055604051600181527f7f26b83ff96e1f2b6a682f133852f6798a09c465da95921460cefb3847402498906020015b60405180910390a15b5050565b611087611afe565b61108f611a00565b6000818152609860209081526040808320815160a0810183528154815260018201546001600160a01b03811694820194909452600160a01b90930460ff1615158383015281516080810190925260028101805491926060850192909190829082906110f9906125fa565b80601f0160208091040260200160405190810160405280929190818152602001828054611125906125fa565b80156111725780601f1061114757610100808354040283529160200191611172565b820191906000526020600020905b81548152906001019060200180831161115557829003601f168201915b5050505050815260200160018201805461118b906125fa565b80601f01602080910402602001604051908101604052809291908181526020018280546111b7906125fa565b80156112045780601f106111d957610100808354040283529160200191611204565b820191906000526020600020905b8154815290600101906020018083116111e757829003601f168201915b5050505050815260200160028201805461121d906125fa565b80601f0160208091040260200160405190810160405280929190818152602001828054611249906125fa565b80156112965780601f1061126b57610100808354040283529160200191611296565b820191906000526020600020905b81548152906001019060200180831161127957829003601f168201915b505050505081526020016003820180546112af906125fa565b80601f01602080910402602001604051908101604052809291908181526020018280546112db906125fa565b80156113285780601f106112fd57610100808354040283529160200191611328565b820191906000526020600020905b81548152906001019060200180831161130b57829003601f168201915b5050509190925250505081526040805160e0810182526006840154815260078401546001600160a01b031660208281019190915260088501548284015260098501546060830152600a850154608080840191909152600b86015460a0840152600c9095015460c0830152909201919091529082015101519091506000036113f15760405162461bcd60e51b815260206004820152601260248201527f506f6f6c20646f65736e27742065786973740000000000000000000000000000604482015260640161056e565b604081015115156001146114475760405162461bcd60e51b815260206004820152601860248201527f506f6f6c20697320616c726561647920696e6163746976650000000000000000604482015260640161056e565b6000604080830182815260808401514260a0909101528483526098602090815291909220835181559083015160018201805493511515600160a01b0274ffffffffffffffffffffffffffffffffffffffffff199094166001600160a01b0390921691909117929092179091556060820151805183929190600283019081906114cf9082612714565b50602082015160018201906114e49082612714565b50604082015160028201906114f99082612714565b506060820151600382019061150e9082612714565b5050506080918201518051600683015560208101516007830180546001600160a01b039092166001600160a01b031990921691909117905560408082015160088401556060820151600984015592810151600a83015560a0810151600b83015560c00151600c90910155517f0522afc663a576de692143f1e714306778ade438ea7c739c3a3964bd78eb2cc69061107290849033909182526001600160a01b0316602082015260400190565b6115c2611a00565b6001600160a01b03811661163e5760405162461bcd60e51b815260206004820152602660248201527f4f776e61626c653a206e6577206f776e657220697320746865207a65726f206160448201527f6464726573730000000000000000000000000000000000000000000000000000606482015260840161056e565b61164781611aac565b50565b611652612124565b600082815260986020908152604091829020825160a0810184528154815260018201546001600160a01b03811693820193909352600160a01b90920460ff161515828401528251608081019093526002810180549293919260608501929190829082906116be906125fa565b80601f01602080910402602001604051908101604052809291908181526020018280546116ea906125fa565b80156117375780601f1061170c57610100808354040283529160200191611737565b820191906000526020600020905b81548152906001019060200180831161171a57829003601f168201915b50505050508152602001600182018054611750906125fa565b80601f016020809104026020016040519081016040528092919081815260200182805461177c906125fa565b80156117c95780601f1061179e576101008083540402835291602001916117c9565b820191906000526020600020905b8154815290600101906020018083116117ac57829003601f168201915b505050505081526020016002820180546117e2906125fa565b80601f016020809104026020016040519081016040528092919081815260200182805461180e906125fa565b801561185b5780601f106118305761010080835404028352916020019161185b565b820191906000526020600020905b81548152906001019060200180831161183e57829003601f168201915b50505050508152602001600382018054611874906125fa565b80601f01602080910402602001604051908101604052809291908181526020018280546118a0906125fa565b80156118ed5780601f106118c2576101008083540402835291602001916118ed565b820191906000526020600020905b8154815290600101906020018083116118d057829003601f168201915b5050509190925250505081526040805160e0810182526006840154815260078401546001600160a01b031660208281019190915260088501549282019290925260098401546060820152600a8401546080820152600b84015460a0820152600c9093015460c0840152015292915050565b600081815260996020526040902080546060919061197b906125fa565b80601f01602080910402602001604051908101604052809291908181526020018280546119a7906125fa565b80156119f45780601f106119c9576101008083540402835291602001916119f4565b820191906000526020600020905b8154815290600101906020018083116119d757829003601f168201915b50505050509050919050565b6065546001600160a01b031633146101f45760405162461bcd60e51b815260206004820181905260248201527f4f776e61626c653a2063616c6c6572206973206e6f7420746865206f776e6572604482015260640161056e565b611a62611f17565b6033805460ff191690557f5db9ee0a495bf2e6ff9c91a7834c1ba4fdd244a5e8aa4e537bd38aeae4b073aa335b6040516001600160a01b03909116815260200160405180910390a1565b606580546001600160a01b038381166001600160a01b0319831681179093556040519116919082907f8be0079c531659141344cd1fd0a4f28419497f9722a3daafe3b4186f6b6457e090600090a35050565b60335460ff16156101f45760405162461bcd60e51b815260206004820152601060248201527f5061757361626c653a2070617573656400000000000000000000000000000000604482015260640161056e565b60408051436020820181905242928201839052600060608301819052929091839081906080016040516020818303038152906040528051906020012090505b6000818152609a602052604090205460ff1615611bee5781611bb1816127d4565b6040805160208101889052908101869052606081018290529093506080019050604051602081830303815290604052805190602001209050611b90565b949350505050565b6040805160a081018252858152336020808301918252600083850181815260608501888152608086018890528a8352609890935294902083518155915160018301805495511515600160a01b0274ffffffffffffffffffffffffffffffffffffffffff199096166001600160a01b039290921691909117949094179093559151805191929160028301908190611c8c9082612714565b5060208201516001820190611ca19082612714565b5060408201516002820190611cb69082612714565b5060608201516003820190611ccb9082612714565b505050608091820151805160068301556020808201516007840180546001600160a01b0319166001600160a01b0390921691909117905560408083015160088501556060830151600985015593820151600a84015560a0820151600b84015560c090910151600c909201919091556000868152609a909152819020805460ff19166001179055609b859055517f3a21eb0a9afc1353da741f39aaea48014c074c6720b61baf41e1e18d6ae7b2fb90611d88908690339087906127ed565b60405180910390a1611d9a8483611f69565b611da48482611fb0565b50505050565b6000828152609960205260409020611dc28282612714565b507fa9397f16db6e1e1b43c1c813233f16139006d56a3d1a24412ebdfb0661b5bfff828260405161107292919061281e565b611dfc611afe565b6033805460ff191660011790557f62e78cea01bee320cd4e420270b5ea74000d11b0c9f74754ebdbfc544b05a258611a8f3390565b600054610100900460ff16611e9c5760405162461bcd60e51b815260206004820152602b60248201527f496e697469616c697a61626c653a20636f6e7472616374206973206e6f74206960448201526a6e697469616c697a696e6760a81b606482015260840161056e565b6101f4612039565b600054610100900460ff16611f0f5760405162461bcd60e51b815260206004820152602b60248201527f496e697469616c697a61626c653a20636f6e7472616374206973206e6f74206960448201526a6e697469616c697a696e6760a81b606482015260840161056e565b6101f46120b0565b60335460ff166101f45760405162461bcd60e51b815260206004820152601460248201527f5061757361626c653a206e6f7420706175736564000000000000000000000000604482015260640161056e565b7f764b3686bd9a8c04d487da87edb364f64d505149c22a8b2664d353539ecf6a33828260000151836020015184604001518560600151604051611072959493929190612837565b805160208083015160408085015160608087015160808089015160c0808b015160a0808d015189518f81529b8c019c909c526001600160a01b03909916978a019790975293880194909452860152928401529082015260e08101919091527fd3c186ca228d0fefdb5e931894eda7415bb30b75f95c5b4f41deee5da40f18d29061010001611072565b600054610100900460ff166120a45760405162461bcd60e51b815260206004820152602b60248201527f496e697469616c697a61626c653a20636f6e7472616374206973206e6f74206960448201526a6e697469616c697a696e6760a81b606482015260840161056e565b6033805460ff19169055565b600054610100900460ff1661211b5760405162461bcd60e51b815260206004820152602b60248201527f496e697469616c697a61626c653a20636f6e7472616374206973206e6f74206960448201526a6e697469616c697a696e6760a81b606482015260840161056e565b6101f433611aac565b6040518060a001604052806000801916815260200160006001600160a01b0316815260200160001515815260200161217d6040518060800160405280606081526020016060815260200160608152602001606081525090565b81526020016121cb6040518060e001604052806000815260200160006001600160a01b0316815260200160008152602001600081526020016000815260200160008152602001600081525090565b905290565b6000602082840312156121e257600080fd5b5035919050565b634e487b7160e01b600052604160045260246000fd5b6040516080810167ffffffffffffffff81118282101715612222576122226121e9565b60405290565b600082601f83011261223957600080fd5b813567ffffffffffffffff80821115612254576122546121e9565b604051601f8301601f19908116603f0116810190828211818310171561227c5761227c6121e9565b8160405283815286602085880101111561229557600080fd5b836020870160208301376000602085830101528094505050505092915050565b6001600160a01b038116811461164757600080fd5b600060e082840312156122dc57600080fd5b60405160e0810181811067ffffffffffffffff821117156122ff576122ff6121e9565b604052823581529050806020830135612317816122b5565b8060208301525060408301356040820152606083013560608201526080830135608082015260a083013560a082015260c083013560c08201525092915050565b6000806000610120848603121561236d57600080fd5b833567ffffffffffffffff8082111561238557600080fd5b61239187838801612228565b945060208601359150808211156123a757600080fd5b90850190608082880312156123bb57600080fd5b6123c36121ff565b8235828111156123d257600080fd5b6123de89828601612228565b8252506020830135828111156123f357600080fd5b6123ff89828601612228565b60208301525060408301358281111561241757600080fd5b61242389828601612228565b60408301525060608301358281111561243b57600080fd5b61244789828601612228565b60608301525080945050505061246085604086016122ca565b90509250925092565b6000815180845260005b8181101561248f57602081850181015186830182015201612473565b506000602082860101526020601f19601f83011685010191505092915050565b60208152815160208201526001600160a01b03602083015116604082015260408201511515606082015260006060830151610160608084015280516080610180850152612500610200850182612469565b9050602082015161017f1980868403016101a08701526125208383612469565b92506040840151915080868403016101c087015261253e8383612469565b92506060840151935080868403016101e0870152505061255e8183612469565b91505060808401516125bb60a0850182805182526001600160a01b03602082015116602083015260408101516040830152606081015160608301526080810151608083015260a081015160a083015260c081015160c08301525050565b509392505050565b6000602082840312156125d557600080fd5b81356125e0816122b5565b9392505050565b6020815260006125e06020830184612469565b600181811c9082168061260e57607f821691505b60208210810361262e57634e487b7160e01b600052602260045260246000fd5b50919050565b60006060828403121561264657600080fd5b6040516060810181811067ffffffffffffffff82111715612669576126696121e9565b60405282518152602083015161267e816122b5565b60208201526040928301519281019290925250919050565b634e487b7160e01b600052601160045260246000fd5b808201808211156126bf576126bf612696565b92915050565b601f82111561270f57600081815260208120601f850160051c810160208610156126ec5750805b601f850160051c820191505b8181101561270b578281556001016126f8565b5050505b505050565b815167ffffffffffffffff81111561272e5761272e6121e9565b6127428161273c84546125fa565b846126c5565b602080601f831160018114612777576000841561275f5750858301515b600019600386901b1c1916600185901b17855561270b565b600085815260208120601f198616915b828110156127a657888601518255948401946001909101908401612787565b50858210156127c45787850151600019600388901b60f8161c191681555b5050505050600190811b01905550565b6000600182016127e6576127e6612696565b5060010190565b8381526001600160a01b03831660208201526060604082015260006128156060830184612469565b95945050505050565b828152604060208201526000611bee6040830184612469565b85815260a06020820152600061285060a0830187612469565b82810360408401526128628187612469565b905082810360608401526128768186612469565b9050828103608084015261288a8185612469565b9897505050505050505056fea2646970667358221220aa1ec582ccbc8423db9e4bda900cbb1ca2ac713efc0d878a247a1ab842233f4664736f6c63430008120033",
  "linkReferences": {},
  "deployedLinkReferences": {}
}