{
  "_format": "hh-sol-artifact-1",
  "contractName": "HypePoolUpgradeable",
  "sourceName": "contracts/upgradeable/HypePoolUpgradeable.sol",
  "abi": [
    {
      "inputs": [],
      "stateMutability": "nonpayable",
      "type": "constructor"
    },
    {
      "anonymous": false,
      "inputs": [
        {
          "indexed": false,
          "internalType": "uint8",
          "name": "version",
          "type": "uint8"
        }
      ],
      "name": "Initialized",
      "type": "event"
    },
    {
      "anonymous": false,
      "inputs": [
        {
          "indexed": true,
          "internalType": "address",
          "name": "previousOwner",
          "type": "address"
        },
        {
          "indexed": true,
          "internalType": "address",
          "name": "newOwner",
          "type": "address"
        }
      ],
      "name": "OwnershipTransferred",
      "type": "event"
    },
    {
      "anonymous": false,
      "inputs": [
        {
          "indexed": false,
          "internalType": "address",
          "name": "account",
          "type": "address"
        }
      ],
      "name": "Paused",
      "type": "event"
    },
    {
      "anonymous": false,
      "inputs": [
        {
          "indexed": false,
          "internalType": "bytes32",
          "name": "poolId",
          "type": "bytes32"
        },
        {
          "indexed": false,
          "internalType": "address",
          "name": "activator",
          "type": "address"
        }
      ],
      "name": "PoolActivated",
      "type": "event"
    },
    {
      "anonymous": false,
      "inputs": [
        {
          "indexed": false,
          "internalType": "bytes32",
          "name": "poolId",
          "type": "bytes32"
        },
        {
          "indexed": false,
          "internalType": "address",
          "name": "creator",
          "type": "address"
        },
        {
          "indexed": false,
          "internalType": "string",
          "name": "uri",
          "type": "string"
        }
      ],
      "name": "PoolCreated",
      "type": "event"
    },
    {
      "anonymous": false,
      "inputs": [
        {
          "indexed": false,
          "internalType": "bytes32",
          "name": "poolId",
          "type": "bytes32"
        },
        {
          "indexed": false,
          "internalType": "address",
          "name": "deactivator",
          "type": "address"
        }
      ],
      "name": "PoolDeactivated",
      "type": "event"
    },
    {
      "anonymous": false,
      "inputs": [
        {
          "indexed": false,
          "internalType": "bytes32",
          "name": "poolId",
          "type": "bytes32"
        },
        {
          "indexed": false,
          "internalType": "string",
          "name": "title",
          "type": "string"
        },
        {
          "indexed": false,
          "internalType": "string",
          "name": "projectName",
          "type": "string"
        },
        {
          "indexed": false,
          "internalType": "string",
          "name": "tokenName",
          "type": "string"
        },
        {
          "indexed": false,
          "internalType": "string",
          "name": "word",
          "type": "string"
        }
      ],
      "name": "PoolDetailsCreated",
      "type": "event"
    },
    {
      "anonymous": false,
      "inputs": [
        {
          "indexed": false,
          "internalType": "bytes32",
          "name": "poolId",
          "type": "bytes32"
        },
        {
          "indexed": false,
          "internalType": "uint256",
          "name": "network",
          "type": "uint256"
        },
        {
          "indexed": false,
          "internalType": "address",
          "name": "tokenAddress",
          "type": "address"
        },
        {
          "indexed": false,
          "internalType": "uint256",
          "name": "impressionReward",
          "type": "uint256"
        },
        {
          "indexed": false,
          "internalType": "uint256",
          "name": "cap",
          "type": "uint256"
        },
        {
          "indexed": false,
          "internalType": "uint256",
          "name": "endDate",
          "type": "uint256"
        }
      ],
      "name": "PoolRewardsCreated",
      "type": "event"
    },
    {
      "anonymous": false,
      "inputs": [
        {
          "indexed": false,
          "internalType": "bytes32",
          "name": "poolId",
          "type": "bytes32"
        },
        {
          "indexed": false,
          "internalType": "string",
          "name": "uri",
          "type": "string"
        }
      ],
      "name": "PoolUriSet",
      "type": "event"
    },
    {
      "anonymous": false,
      "inputs": [
        {
          "indexed": false,
          "internalType": "address",
          "name": "account",
          "type": "address"
        }
      ],
      "name": "Unpaused",
      "type": "event"
    },
    {
      "inputs": [
        {
          "internalType": "bytes32",
          "name": "hash",
          "type": "bytes32"
        }
      ],
      "name": "activatePool",
      "outputs": [],
      "stateMutability": "nonpayable",
      "type": "function"
    },
    {
      "inputs": [
        {
          "internalType": "string",
          "name": "uri",
          "type": "string"
        },
        {
          "components": [
            {
              "internalType": "string",
              "name": "title",
              "type": "string"
            },
            {
              "internalType": "string",
              "name": "projectName",
              "type": "string"
            },
            {
              "internalType": "string",
              "name": "tokenName",
              "type": "string"
            },
            {
              "internalType": "string",
              "name": "word",
              "type": "string"
            }
          ],
          "internalType": "struct IHypePool.Details",
          "name": "details",
          "type": "tuple"
        },
        {
          "components": [
            {
              "internalType": "uint256",
              "name": "network",
              "type": "uint256"
            },
            {
              "internalType": "address",
              "name": "tokenAddress",
              "type": "address"
            },
            {
              "internalType": "uint256",
              "name": "impressionReward",
              "type": "uint256"
            },
            {
              "internalType": "uint256",
              "name": "cap",
              "type": "uint256"
            },
            {
              "internalType": "uint256",
              "name": "endDate",
              "type": "uint256"
            }
          ],
          "internalType": "struct IHypePool.Rewards",
          "name": "rewards",
          "type": "tuple"
        }
      ],
      "name": "createPool",
      "outputs": [
        {
          "components": [
            {
              "internalType": "bytes32",
              "name": "id",
              "type": "bytes32"
            },
            {
              "internalType": "address",
              "name": "creator",
              "type": "address"
            },
            {
              "internalType": "bool",
              "name": "active",
              "type": "bool"
            },
            {
              "components": [
                {
                  "internalType": "string",
                  "name": "title",
                  "type": "string"
                },
                {
                  "internalType": "string",
                  "name": "projectName",
                  "type": "string"
                },
                {
                  "internalType": "string",
                  "name": "tokenName",
                  "type": "string"
                },
                {
                  "internalType": "string",
                  "name": "word",
                  "type": "string"
                }
              ],
              "internalType": "struct IHypePool.Details",
              "name": "details",
              "type": "tuple"
            },
            {
              "components": [
                {
                  "internalType": "uint256",
                  "name": "network",
                  "type": "uint256"
                },
                {
                  "internalType": "address",
                  "name": "tokenAddress",
                  "type": "address"
                },
                {
                  "internalType": "uint256",
                  "name": "impressionReward",
                  "type": "uint256"
                },
                {
                  "internalType": "uint256",
                  "name": "cap",
                  "type": "uint256"
                },
                {
                  "internalType": "uint256",
                  "name": "endDate",
                  "type": "uint256"
                }
              ],
              "internalType": "struct IHypePool.Rewards",
              "name": "rewards",
              "type": "tuple"
            }
          ],
          "internalType": "struct IHypePool.HypePool",
          "name": "",
          "type": "tuple"
        }
      ],
      "stateMutability": "nonpayable",
      "type": "function"
    },
    {
      "inputs": [
        {
          "internalType": "bytes32",
          "name": "hash",
          "type": "bytes32"
        }
      ],
      "name": "deactivatePool",
      "outputs": [],
      "stateMutability": "nonpayable",
      "type": "function"
    },
    {
      "inputs": [],
      "name": "getCurrentIndex",
      "outputs": [
        {
          "internalType": "bytes32",
          "name": "",
          "type": "bytes32"
        }
      ],
      "stateMutability": "view",
      "type": "function"
    },
    {
      "inputs": [
        {
          "internalType": "bytes32",
          "name": "hash",
          "type": "bytes32"
        }
      ],
      "name": "getPool",
      "outputs": [
        {
          "components": [
            {
              "internalType": "bytes32",
              "name": "id",
              "type": "bytes32"
            },
            {
              "internalType": "address",
              "name": "creator",
              "type": "address"
            },
            {
              "internalType": "bool",
              "name": "active",
              "type": "bool"
            },
            {
              "components": [
                {
                  "internalType": "string",
                  "name": "title",
                  "type": "string"
                },
                {
                  "internalType": "string",
                  "name": "projectName",
                  "type": "string"
                },
                {
                  "internalType": "string",
                  "name": "tokenName",
                  "type": "string"
                },
                {
                  "internalType": "string",
                  "name": "word",
                  "type": "string"
                }
              ],
              "internalType": "struct IHypePool.Details",
              "name": "details",
              "type": "tuple"
            },
            {
              "components": [
                {
                  "internalType": "uint256",
                  "name": "network",
                  "type": "uint256"
                },
                {
                  "internalType": "address",
                  "name": "tokenAddress",
                  "type": "address"
                },
                {
                  "internalType": "uint256",
                  "name": "impressionReward",
                  "type": "uint256"
                },
                {
                  "internalType": "uint256",
                  "name": "cap",
                  "type": "uint256"
                },
                {
                  "internalType": "uint256",
                  "name": "endDate",
                  "type": "uint256"
                }
              ],
              "internalType": "struct IHypePool.Rewards",
              "name": "rewards",
              "type": "tuple"
            }
          ],
          "internalType": "struct IHypePool.HypePool",
          "name": "",
          "type": "tuple"
        }
      ],
      "stateMutability": "view",
      "type": "function"
    },
    {
      "inputs": [
        {
          "internalType": "address",
          "name": "escrowContractAddress",
          "type": "address"
        }
      ],
      "name": "initialize",
      "outputs": [],
      "stateMutability": "nonpayable",
      "type": "function"
    },
    {
      "inputs": [],
      "name": "owner",
      "outputs": [
        {
          "internalType": "address",
          "name": "",
          "type": "address"
        }
      ],
      "stateMutability": "view",
      "type": "function"
    },
    {
      "inputs": [],
      "name": "pause",
      "outputs": [],
      "stateMutability": "nonpayable",
      "type": "function"
    },
    {
      "inputs": [],
      "name": "paused",
      "outputs": [
        {
          "internalType": "bool",
          "name": "",
          "type": "bool"
        }
      ],
      "stateMutability": "view",
      "type": "function"
    },
    {
      "inputs": [
        {
          "internalType": "bytes32",
          "name": "hash",
          "type": "bytes32"
        }
      ],
      "name": "poolURI",
      "outputs": [
        {
          "internalType": "string",
          "name": "",
          "type": "string"
        }
      ],
      "stateMutability": "view",
      "type": "function"
    },
    {
      "inputs": [],
      "name": "renounceOwnership",
      "outputs": [],
      "stateMutability": "nonpayable",
      "type": "function"
    },
    {
      "inputs": [
        {
          "internalType": "address",
          "name": "newOwner",
          "type": "address"
        }
      ],
      "name": "transferOwnership",
      "outputs": [],
      "stateMutability": "nonpayable",
      "type": "function"
    },
    {
      "inputs": [],
      "name": "unpause",
      "outputs": [],
      "stateMutability": "nonpayable",
      "type": "function"
    }
  ],
  "bytecode": "0x60806040523480156200001157600080fd5b506200001c62000022565b620000e4565b600054610100900460ff16156200008f5760405162461bcd60e51b815260206004820152602760248201527f496e697469616c697a61626c653a20636f6e747261637420697320696e697469604482015266616c697a696e6760c81b606482015260840160405180910390fd5b60005460ff9081161015620000e2576000805460ff191660ff9081179091556040519081527f7f26b83ff96e1f2b6a682f133852f6798a09c465da95921460cefb38474024989060200160405180910390a15b565b6126c880620000f46000396000f3fe608060405234801561001057600080fd5b50600436106100df5760003560e01c80638da5cb5b1161008c578063f2fde38b11610066578063f2fde38b1461017e578063f6c0092714610191578063f8607fb1146101b1578063fdc6d461146101d157600080fd5b80638da5cb5b1461013d578063c4d66de814610158578063d9d978591461016b57600080fd5b8063715018a6116100bd578063715018a61461011a57806373dfe0da146101225780638456cb591461013557600080fd5b80630d9005ae146100e45780633f4ba83a146100fa5780635c975abb14610104575b600080fd5b609b546040519081526020015b60405180910390f35b6101026101e4565b005b60335460ff1660405190151581526020016100f1565b6101026101f6565b610102610130366004612124565b610208565b610102610931565b6065546040516001600160a01b0390911681526020016100f1565b610102610166366004612152565b610941565b610102610179366004612124565b610a86565b61010261018c366004612152565b610fa5565b6101a461019f366004612124565b611035565b6040516100f191906121c3565b6101c46101bf366004612124565b611335565b6040516100f191906122bd565b6101a46101df366004612415565b6113d7565b6101ec6118d6565b6101f4611930565b565b6101fe6118d6565b6101f46000611982565b6102106119d4565b6000818152609860209081526040808320815160a0810183528154815260018201546001600160a01b03811694820194909452600160a01b90930460ff16151583830152815160808101909252600281018054919260608501929091908290829061027a90612526565b80601f01602080910402602001604051908101604052809291908181526020018280546102a690612526565b80156102f35780601f106102c8576101008083540402835291602001916102f3565b820191906000526020600020905b8154815290600101906020018083116102d657829003601f168201915b5050505050815260200160018201805461030c90612526565b80601f016020809104026020016040519081016040528092919081815260200182805461033890612526565b80156103855780601f1061035a57610100808354040283529160200191610385565b820191906000526020600020905b81548152906001019060200180831161036857829003601f168201915b5050505050815260200160028201805461039e90612526565b80601f01602080910402602001604051908101604052809291908181526020018280546103ca90612526565b80156104175780601f106103ec57610100808354040283529160200191610417565b820191906000526020600020905b8154815290600101906020018083116103fa57829003601f168201915b5050505050815260200160038201805461043090612526565b80601f016020809104026020016040519081016040528092919081815260200182805461045c90612526565b80156104a95780601f1061047e576101008083540402835291602001916104a9565b820191906000526020600020905b81548152906001019060200180831161048c57829003601f168201915b5050509190925250505081526040805160a0810182526006840154815260078401546001600160a01b031660208281019190915260088501548284015260098501546060830152600a9094015460808083019190915293909201919091529082015101519091506000036105645760405162461bcd60e51b815260206004820152601260248201527f506f6f6c20646f65736e2774206578697374000000000000000000000000000060448201526064015b60405180910390fd5b6000828152609a602052604090205460ff166105c25760405162461bcd60e51b815260206004820152601360248201527f506f6f6c20646f6573206e6f7420657869737400000000000000000000000000604482015260640161055b565b6040810151156106145760405162461bcd60e51b815260206004820152601660248201527f506f6f6c20697320616c72656164792061637469766500000000000000000000604482015260640161055b565b6097546040517f1aa9e742000000000000000000000000000000000000000000000000000000008152336004820152602481018490526001600160a01b03909116906000908290631aa9e74290604401606060405180830381865afa158015610681573d6000803e3d6000fd5b505050506040513d601f19601f820116820180604052508101906106a59190612560565b6080840151606001518151919250146107265760405162461bcd60e51b815260206004820152602860248201527f4465706f736974656420616d6f756e7420646f6573206e6f74206d617463682060448201527f706f6f6c20636170000000000000000000000000000000000000000000000000606482015260840161055b565b8260800151602001516001600160a01b031681602001516001600160a01b0316146107b95760405162461bcd60e51b815260206004820152603960248201527f4465706f736974656420746f6b656e206164647265737320646f6573206e6f7460448201527f206d6174636820706f6f6c20746f6b656e206164647265737300000000000000606482015260840161055b565b600160408085018281526000878152609860209081529290208651815582870151938101805492511515600160a01b0274ffffffffffffffffffffffffffffffffffffffffff199093166001600160a01b039095169490941791909117909255606085015180518051879493600285019261083a9284929190910190611fed565b5060208281015180516108539260018501920190611fed565b506040820151805161086f916002840191602090910190611fed565b506060820151805161088b916003840191602090910190611fed565b5050506080918201518051600683015560208101516007830180546001600160a01b039092166001600160a01b0319909216919091179055604080820151600884015560608201516009840155920151600a90910155517fb62c3abac694378e18bd2dd6692d8bbfed5d78e21bccc5548c70677dd0712fbc9061092390869033909182526001600160a01b0316602082015260400190565b60405180910390a150505050565b6109396118d6565b6101f4611a27565b600054610100900460ff16158080156109615750600054600160ff909116105b8061097b5750303b15801561097b575060005460ff166001145b6109ed5760405162461bcd60e51b815260206004820152602e60248201527f496e697469616c697a61626c653a20636f6e747261637420697320616c72656160448201527f647920696e697469616c697a6564000000000000000000000000000000000000606482015260840161055b565b6000805460ff191660011790558015610a10576000805461ff0019166101001790555b610a18611a64565b609780546001600160a01b0319166001600160a01b038416179055610a3b611ad7565b8015610a82576000805461ff0019169055604051600181527f7f26b83ff96e1f2b6a682f133852f6798a09c465da95921460cefb3847402498906020015b60405180910390a15b5050565b610a8e6119d4565b610a966118d6565b6000818152609860209081526040808320815160a0810183528154815260018201546001600160a01b03811694820194909452600160a01b90930460ff161515838301528151608081019092526002810180549192606085019290919082908290610b0090612526565b80601f0160208091040260200160405190810160405280929190818152602001828054610b2c90612526565b8015610b795780601f10610b4e57610100808354040283529160200191610b79565b820191906000526020600020905b815481529060010190602001808311610b5c57829003601f168201915b50505050508152602001600182018054610b9290612526565b80601f0160208091040260200160405190810160405280929190818152602001828054610bbe90612526565b8015610c0b5780601f10610be057610100808354040283529160200191610c0b565b820191906000526020600020905b815481529060010190602001808311610bee57829003601f168201915b50505050508152602001600282018054610c2490612526565b80601f0160208091040260200160405190810160405280929190818152602001828054610c5090612526565b8015610c9d5780601f10610c7257610100808354040283529160200191610c9d565b820191906000526020600020905b815481529060010190602001808311610c8057829003601f168201915b50505050508152602001600382018054610cb690612526565b80601f0160208091040260200160405190810160405280929190818152602001828054610ce290612526565b8015610d2f5780601f10610d0457610100808354040283529160200191610d2f565b820191906000526020600020905b815481529060010190602001808311610d1257829003601f168201915b5050509190925250505081526040805160a0810182526006840154815260078401546001600160a01b031660208281019190915260088501548284015260098501546060830152600a909401546080808301919091529390920191909152908201510151909150600003610de55760405162461bcd60e51b815260206004820152601260248201527f506f6f6c20646f65736e27742065786973740000000000000000000000000000604482015260640161055b565b60408101511515600114610e3b5760405162461bcd60e51b815260206004820152601860248201527f506f6f6c20697320616c726561647920696e6163746976650000000000000000604482015260640161055b565b600060408083018281528483526098602090815291909220835181558184015160018201805494511515600160a01b0274ffffffffffffffffffffffffffffffffffffffffff199095166001600160a01b0390921691909117939093179092556060830151805180518594936002850192610ebc9284929190910190611fed565b506020828101518051610ed59260018501920190611fed565b5060408201518051610ef1916002840191602090910190611fed565b5060608201518051610f0d916003840191602090910190611fed565b5050506080918201518051600683015560208101516007830180546001600160a01b039092166001600160a01b0319909216919091179055604080820151600884015560608201516009840155920151600a90910155517f0522afc663a576de692143f1e714306778ade438ea7c739c3a3964bd78eb2cc690610a7990849033909182526001600160a01b0316602082015260400190565b610fad6118d6565b6001600160a01b0381166110295760405162461bcd60e51b815260206004820152602660248201527f4f776e61626c653a206e6577206f776e657220697320746865207a65726f206160448201527f6464726573730000000000000000000000000000000000000000000000000000606482015260840161055b565b61103281611982565b50565b61103d612071565b600082815260986020908152604091829020825160a0810184528154815260018201546001600160a01b03811693820193909352600160a01b90920460ff161515828401528251608081019093526002810180549293919260608501929190829082906110a990612526565b80601f01602080910402602001604051908101604052809291908181526020018280546110d590612526565b80156111225780601f106110f757610100808354040283529160200191611122565b820191906000526020600020905b81548152906001019060200180831161110557829003601f168201915b5050505050815260200160018201805461113b90612526565b80601f016020809104026020016040519081016040528092919081815260200182805461116790612526565b80156111b45780601f10611189576101008083540402835291602001916111b4565b820191906000526020600020905b81548152906001019060200180831161119757829003601f168201915b505050505081526020016002820180546111cd90612526565b80601f01602080910402602001604051908101604052809291908181526020018280546111f990612526565b80156112465780601f1061121b57610100808354040283529160200191611246565b820191906000526020600020905b81548152906001019060200180831161122957829003601f168201915b5050505050815260200160038201805461125f90612526565b80601f016020809104026020016040519081016040528092919081815260200182805461128b90612526565b80156112d85780601f106112ad576101008083540402835291602001916112d8565b820191906000526020600020905b8154815290600101906020018083116112bb57829003601f168201915b5050509190925250505081526040805160a0810182526006840154815260078401546001600160a01b031660208281019190915260088501549282019290925260098401546060820152600a909301546080840152015292915050565b600081815260996020526040902080546060919061135290612526565b80601f016020809104026020016040519081016040528092919081815260200182805461137e90612526565b80156113cb5780601f106113a0576101008083540402835291602001916113cb565b820191906000526020600020905b8154815290600101906020018083116113ae57829003601f168201915b50505050509050919050565b6113df612071565b6113e76119d4565b60008451116114385760405162461bcd60e51b815260206004820152601460248201527f4d697373696e67206d6574616461746120555249000000000000000000000000604482015260640161055b565b600082606001511161148c5760405162461bcd60e51b815260206004820152601060248201527f496e76616c696420706f6f6c2063617000000000000000000000000000000000604482015260640161055b565b428260800151116115055760405162461bcd60e51b815260206004820152602960248201527f456e642064617465206d7573742062652061667465722063757272656e74206260448201527f6c6f636b2074696d650000000000000000000000000000000000000000000000606482015260840161055b565b60008260400151116115595760405162461bcd60e51b815260206004820152601e60248201527f496e76616c696420696d7072657373696f6e2068797065207265776172640000604482015260640161055b565b6000611563611b4a565b6000818152609a602052604090205490915060ff16156115c55760405162461bcd60e51b815260206004820152601360248201527f4861736820616c72656164792065786973747300000000000000000000000000604482015260640161055b565b6115d181868686611bef565b6115db8186611da7565b600081815260986020908152604091829020825160a0810184528154815260018201546001600160a01b03811693820193909352600160a01b90920460ff1615158284015282516080810190935260028101805492939192606085019291908290829061164790612526565b80601f016020809104026020016040519081016040528092919081815260200182805461167390612526565b80156116c05780601f10611695576101008083540402835291602001916116c0565b820191906000526020600020905b8154815290600101906020018083116116a357829003601f168201915b505050505081526020016001820180546116d990612526565b80601f016020809104026020016040519081016040528092919081815260200182805461170590612526565b80156117525780601f1061172757610100808354040283529160200191611752565b820191906000526020600020905b81548152906001019060200180831161173557829003601f168201915b5050505050815260200160028201805461176b90612526565b80601f016020809104026020016040519081016040528092919081815260200182805461179790612526565b80156117e45780601f106117b9576101008083540402835291602001916117e4565b820191906000526020600020905b8154815290600101906020018083116117c757829003601f168201915b505050505081526020016003820180546117fd90612526565b80601f016020809104026020016040519081016040528092919081815260200182805461182990612526565b80156118765780601f1061184b57610100808354040283529160200191611876565b820191906000526020600020905b81548152906001019060200180831161185957829003601f168201915b5050509190925250505081526040805160a0810182526006840154815260078401546001600160a01b031660208083019190915260088501549282019290925260098401546060820152600a909301546080840152015295945050505050565b6065546001600160a01b031633146101f45760405162461bcd60e51b815260206004820181905260248201527f4f776e61626c653a2063616c6c6572206973206e6f7420746865206f776e6572604482015260640161055b565b611938611df8565b6033805460ff191690557f5db9ee0a495bf2e6ff9c91a7834c1ba4fdd244a5e8aa4e537bd38aeae4b073aa335b6040516001600160a01b03909116815260200160405180910390a1565b606580546001600160a01b038381166001600160a01b0319831681179093556040519116919082907f8be0079c531659141344cd1fd0a4f28419497f9722a3daafe3b4186f6b6457e090600090a35050565b60335460ff16156101f45760405162461bcd60e51b815260206004820152601060248201527f5061757361626c653a2070617573656400000000000000000000000000000000604482015260640161055b565b611a2f6119d4565b6033805460ff191660011790557f62e78cea01bee320cd4e420270b5ea74000d11b0c9f74754ebdbfc544b05a2586119653390565b600054610100900460ff16611acf5760405162461bcd60e51b815260206004820152602b60248201527f496e697469616c697a61626c653a20636f6e7472616374206973206e6f74206960448201526a6e697469616c697a696e6760a81b606482015260840161055b565b6101f4611e4a565b600054610100900460ff16611b425760405162461bcd60e51b815260206004820152602b60248201527f496e697469616c697a61626c653a20636f6e7472616374206973206e6f74206960448201526a6e697469616c697a696e6760a81b606482015260840161055b565b6101f4611ec1565b60408051436020820181905242928201839052600060608301819052929091839081906080016040516020818303038152906040528051906020012090505b6000818152609a602052604090205460ff1615611be75781611baa816125c2565b6040805160208101889052908101869052606081018290529093506080019050604051602081830303815290604052805190602001209050611b89565b949350505050565b6040805160a081018252858152336020808301918252600083850181815260608501888152608086018890528a8352609884529590912084518155925160018401805492511515600160a01b0274ffffffffffffffffffffffffffffffffffffffffff199093166001600160a01b0392909216919091179190911790559251805180519394929391926002850192611c8a9284920190611fed565b506020828101518051611ca39260018501920190611fed565b5060408201518051611cbf916002840191602090910190611fed565b5060608201518051611cdb916003840191602090910190611fed565b505050608091820151805160068301556020808201516007840180546001600160a01b0319166001600160a01b039092169190911790556040808301516008850155606083015160098501559190930151600a909201919091556000868152609a90925290819020805460ff19166001179055609b859055517f3a21eb0a9afc1353da741f39aaea48014c074c6720b61baf41e1e18d6ae7b2fb90611d85908690339087906125e9565b60405180910390a1611d978483611f35565b611da18482611f7c565b50505050565b60008281526099602090815260409091208251611dc692840190611fed565b507fa9397f16db6e1e1b43c1c813233f16139006d56a3d1a24412ebdfb0661b5bfff8282604051610a7992919061261a565b60335460ff166101f45760405162461bcd60e51b815260206004820152601460248201527f5061757361626c653a206e6f7420706175736564000000000000000000000000604482015260640161055b565b600054610100900460ff16611eb55760405162461bcd60e51b815260206004820152602b60248201527f496e697469616c697a61626c653a20636f6e7472616374206973206e6f74206960448201526a6e697469616c697a696e6760a81b606482015260840161055b565b6033805460ff19169055565b600054610100900460ff16611f2c5760405162461bcd60e51b815260206004820152602b60248201527f496e697469616c697a61626c653a20636f6e7472616374206973206e6f74206960448201526a6e697469616c697a696e6760a81b606482015260840161055b565b6101f433611982565b7f764b3686bd9a8c04d487da87edb364f64d505149c22a8b2664d353539ecf6a33828260000151836020015184604001518560600151604051610a79959493929190612633565b805160208083015160408085015160608087015160808089015185518b8152978801989098526001600160a01b03909516938601939093528401529082015260a08101919091527fba63b303e35ebc03334da9e1770c61d9196ed6d66467008274fb5ddaea9d72519060c001610a79565b828054611ff990612526565b90600052602060002090601f01602090048101928261201b5760008555612061565b82601f1061203457805160ff1916838001178555612061565b82800160010185558215612061579182015b82811115612061578251825591602001919060010190612046565b5061206d92915061210f565b5090565b6040518060a001604052806000801916815260200160006001600160a01b031681526020016000151581526020016120ca6040518060800160405280606081526020016060815260200160608152602001606081525090565b815260200161210a6040518060a001604052806000815260200160006001600160a01b031681526020016000815260200160008152602001600081525090565b905290565b5b8082111561206d5760008155600101612110565b60006020828403121561213657600080fd5b5035919050565b6001600160a01b038116811461103257600080fd5b60006020828403121561216457600080fd5b813561216f8161213d565b9392505050565b6000815180845260005b8181101561219c57602081850181015186830182015201612180565b818111156121ae576000602083870101525b50601f01601f19169290920160200192915050565b60208152815160208201526001600160a01b036020830151166040820152604082015115156060820152600060608301516101206080840152805160806101408501526122146101c0850182612176565b9050602082015161013f1980868403016101608701526122348383612176565b92506040840151915080868403016101808701526122528383612176565b92506060840151935080868403016101a087015250506122728183612176565b608095860151805160a087015260208101516001600160a01b031660c0870152604081015160e087015260608101516101008701529095015161012090940193909352509192915050565b60208152600061216f6020830184612176565b634e487b7160e01b600052604160045260246000fd5b6040516080810167ffffffffffffffff81118282101715612309576123096122d0565b60405290565b600082601f83011261232057600080fd5b813567ffffffffffffffff8082111561233b5761233b6122d0565b604051601f8301601f19908116603f01168101908282118183101715612363576123636122d0565b8160405283815286602085880101111561237c57600080fd5b836020870160208301376000602085830101528094505050505092915050565b600060a082840312156123ae57600080fd5b60405160a0810181811067ffffffffffffffff821117156123d1576123d16122d0565b6040528235815290508060208301356123e98161213d565b806020830152506040830135604082015260608301356060820152608083013560808201525092915050565b600080600060e0848603121561242a57600080fd5b833567ffffffffffffffff8082111561244257600080fd5b61244e8783880161230f565b9450602086013591508082111561246457600080fd5b908501906080828803121561247857600080fd5b6124806122e6565b82358281111561248f57600080fd5b61249b8982860161230f565b8252506020830135828111156124b057600080fd5b6124bc8982860161230f565b6020830152506040830135828111156124d457600080fd5b6124e08982860161230f565b6040830152506060830135828111156124f857600080fd5b6125048982860161230f565b60608301525080945050505061251d856040860161239c565b90509250925092565b600181811c9082168061253a57607f821691505b60208210810361255a57634e487b7160e01b600052602260045260246000fd5b50919050565b60006060828403121561257257600080fd5b6040516060810181811067ffffffffffffffff82111715612595576125956122d0565b6040528251815260208301516125aa8161213d565b60208201526040928301519281019290925250919050565b6000600182016125e257634e487b7160e01b600052601160045260246000fd5b5060010190565b8381526001600160a01b03831660208201526060604082015260006126116060830184612176565b95945050505050565b828152604060208201526000611be76040830184612176565b85815260a06020820152600061264c60a0830187612176565b828103604084015261265e8187612176565b905082810360608401526126728186612176565b905082810360808401526126868185612176565b9897505050505050505056fea26469706673582212200f7a1eeb21f3fd1d9dabde4acab1c004dbc0918b8625c962c6a7c5e91c6849fc64736f6c634300080e0033",
  "linkReferences": {},
  "deployedLinkReferences": {}
}