{
  "_format": "hh-sol-artifact-1",
  "contractName": "HypePoolUpgradeable",
  "sourceName": "contracts/upgradeable/HypePoolUpgradeable.sol",
  "abi": [
    {
      "inputs": [],
      "stateMutability": "nonpayable",
      "type": "constructor"
    },
    {
      "anonymous": false,
      "inputs": [
        {
          "indexed": false,
          "internalType": "uint8",
          "name": "version",
          "type": "uint8"
        }
      ],
      "name": "Initialized",
      "type": "event"
    },
    {
      "anonymous": false,
      "inputs": [
        {
          "indexed": true,
          "internalType": "address",
          "name": "previousOwner",
          "type": "address"
        },
        {
          "indexed": true,
          "internalType": "address",
          "name": "newOwner",
          "type": "address"
        }
      ],
      "name": "OwnershipTransferred",
      "type": "event"
    },
    {
      "anonymous": false,
      "inputs": [
        {
          "indexed": false,
          "internalType": "address",
          "name": "account",
          "type": "address"
        }
      ],
      "name": "Paused",
      "type": "event"
    },
    {
      "anonymous": false,
      "inputs": [
        {
          "indexed": false,
          "internalType": "uint256",
          "name": "poolId",
          "type": "uint256"
        },
        {
          "indexed": false,
          "internalType": "address",
          "name": "activator",
          "type": "address"
        }
      ],
      "name": "PoolActivated",
      "type": "event"
    },
    {
      "anonymous": false,
      "inputs": [
        {
          "indexed": false,
          "internalType": "uint256",
          "name": "poolId",
          "type": "uint256"
        },
        {
          "indexed": false,
          "internalType": "address",
          "name": "creator",
          "type": "address"
        },
        {
          "indexed": false,
          "internalType": "string",
          "name": "uri",
          "type": "string"
        },
        {
          "indexed": false,
          "internalType": "string",
          "name": "projectName",
          "type": "string"
        },
        {
          "indexed": false,
          "internalType": "string",
          "name": "title",
          "type": "string"
        },
        {
          "indexed": false,
          "internalType": "bool",
          "name": "active",
          "type": "bool"
        },
        {
          "indexed": false,
          "internalType": "uint256",
          "name": "poolCap",
          "type": "uint256"
        },
        {
          "indexed": false,
          "internalType": "address",
          "name": "poolToken",
          "type": "address"
        },
        {
          "indexed": false,
          "internalType": "uint256",
          "name": "minHypeReward",
          "type": "uint256"
        },
        {
          "indexed": false,
          "internalType": "uint256",
          "name": "endDate",
          "type": "uint256"
        }
      ],
      "name": "PoolCreated",
      "type": "event"
    },
    {
      "anonymous": false,
      "inputs": [
        {
          "indexed": false,
          "internalType": "uint256",
          "name": "poolId",
          "type": "uint256"
        },
        {
          "indexed": false,
          "internalType": "string",
          "name": "uri",
          "type": "string"
        }
      ],
      "name": "PoolUriSet",
      "type": "event"
    },
    {
      "anonymous": false,
      "inputs": [
        {
          "indexed": false,
          "internalType": "address",
          "name": "account",
          "type": "address"
        }
      ],
      "name": "Unpaused",
      "type": "event"
    },
    {
      "inputs": [
        {
          "internalType": "uint256",
          "name": "id",
          "type": "uint256"
        }
      ],
      "name": "activatePool",
      "outputs": [],
      "stateMutability": "nonpayable",
      "type": "function"
    },
    {
      "inputs": [
        {
          "internalType": "string",
          "name": "uri",
          "type": "string"
        },
        {
          "internalType": "string",
          "name": "projectName",
          "type": "string"
        },
        {
          "internalType": "string",
          "name": "title",
          "type": "string"
        },
        {
          "internalType": "uint256",
          "name": "poolCap",
          "type": "uint256"
        },
        {
          "internalType": "address",
          "name": "tokenAddress",
          "type": "address"
        },
        {
          "internalType": "uint256",
          "name": "minHypeReward",
          "type": "uint256"
        },
        {
          "internalType": "uint256",
          "name": "endDate",
          "type": "uint256"
        }
      ],
      "name": "createPool",
      "outputs": [
        {
          "components": [
            {
              "internalType": "uint256",
              "name": "id",
              "type": "uint256"
            },
            {
              "internalType": "address",
              "name": "creator",
              "type": "address"
            },
            {
              "internalType": "string",
              "name": "projectName",
              "type": "string"
            },
            {
              "internalType": "string",
              "name": "title",
              "type": "string"
            },
            {
              "internalType": "bool",
              "name": "active",
              "type": "bool"
            },
            {
              "internalType": "uint256",
              "name": "cap",
              "type": "uint256"
            },
            {
              "internalType": "address",
              "name": "token",
              "type": "address"
            },
            {
              "internalType": "uint256",
              "name": "minReward",
              "type": "uint256"
            },
            {
              "internalType": "uint256",
              "name": "endDate",
              "type": "uint256"
            }
          ],
          "internalType": "struct IHypePool.HypePool",
          "name": "",
          "type": "tuple"
        }
      ],
      "stateMutability": "nonpayable",
      "type": "function"
    },
    {
      "inputs": [],
      "name": "getCurrentIndex",
      "outputs": [
        {
          "internalType": "uint256",
          "name": "",
          "type": "uint256"
        }
      ],
      "stateMutability": "view",
      "type": "function"
    },
    {
      "inputs": [
        {
          "internalType": "uint256",
          "name": "tokenId",
          "type": "uint256"
        }
      ],
      "name": "getPool",
      "outputs": [
        {
          "components": [
            {
              "internalType": "uint256",
              "name": "id",
              "type": "uint256"
            },
            {
              "internalType": "address",
              "name": "creator",
              "type": "address"
            },
            {
              "internalType": "string",
              "name": "projectName",
              "type": "string"
            },
            {
              "internalType": "string",
              "name": "title",
              "type": "string"
            },
            {
              "internalType": "bool",
              "name": "active",
              "type": "bool"
            },
            {
              "internalType": "uint256",
              "name": "cap",
              "type": "uint256"
            },
            {
              "internalType": "address",
              "name": "token",
              "type": "address"
            },
            {
              "internalType": "uint256",
              "name": "minReward",
              "type": "uint256"
            },
            {
              "internalType": "uint256",
              "name": "endDate",
              "type": "uint256"
            }
          ],
          "internalType": "struct IHypePool.HypePool",
          "name": "",
          "type": "tuple"
        }
      ],
      "stateMutability": "view",
      "type": "function"
    },
    {
      "inputs": [
        {
          "internalType": "address",
          "name": "escrowContractAddress",
          "type": "address"
        }
      ],
      "name": "initialize",
      "outputs": [],
      "stateMutability": "nonpayable",
      "type": "function"
    },
    {
      "inputs": [],
      "name": "owner",
      "outputs": [
        {
          "internalType": "address",
          "name": "",
          "type": "address"
        }
      ],
      "stateMutability": "view",
      "type": "function"
    },
    {
      "inputs": [],
      "name": "pause",
      "outputs": [],
      "stateMutability": "nonpayable",
      "type": "function"
    },
    {
      "inputs": [],
      "name": "paused",
      "outputs": [
        {
          "internalType": "bool",
          "name": "",
          "type": "bool"
        }
      ],
      "stateMutability": "view",
      "type": "function"
    },
    {
      "inputs": [
        {
          "internalType": "uint256",
          "name": "tokenId",
          "type": "uint256"
        }
      ],
      "name": "poolURI",
      "outputs": [
        {
          "internalType": "string",
          "name": "",
          "type": "string"
        }
      ],
      "stateMutability": "view",
      "type": "function"
    },
    {
      "inputs": [],
      "name": "renounceOwnership",
      "outputs": [],
      "stateMutability": "nonpayable",
      "type": "function"
    },
    {
      "inputs": [
        {
          "internalType": "address",
          "name": "newOwner",
          "type": "address"
        }
      ],
      "name": "transferOwnership",
      "outputs": [],
      "stateMutability": "nonpayable",
      "type": "function"
    },
    {
      "inputs": [],
      "name": "unpause",
      "outputs": [],
      "stateMutability": "nonpayable",
      "type": "function"
    }
  ],
  "bytecode": "0x608060405234801561001057600080fd5b5061001961001e565b6100de565b600054610100900460ff161561008a5760405162461bcd60e51b815260206004820152602760248201527f496e697469616c697a61626c653a20636f6e747261637420697320696e697469604482015266616c697a696e6760c81b606482015260840160405180910390fd5b60005460ff90811610156100dc576000805460ff191660ff9081179091556040519081527f7f26b83ff96e1f2b6a682f133852f6798a09c465da95921460cefb38474024989060200160405180910390a15b565b61198b806100ed6000396000f3fe608060405234801561001057600080fd5b50600436106100d45760003560e01c80635c975abb116100815780638da5cb5b1161005b5780638da5cb5b1461018e578063c4d66de8146101a9578063f2fde38b146101bc57600080fd5b80635c975abb14610168578063715018a61461017e5780638456cb591461018657600080fd5b80631e2f4adc116100b25780631e2f4adc1461012d57806335a7017a1461014d5780633f4ba83a1461016057600080fd5b8063068bcd8d146100d957806308f747dd146101025780630d9005ae14610117575b600080fd5b6100ec6100e736600461154c565b6101cf565b6040516100f991906115b2565b60405180910390f35b61011561011036600461154c565b6103d8565b005b61011f6108df565b6040519081526020016100f9565b61014061013b36600461154c565b6108ef565b6040516100f9919061166f565b6100ec61015b366004611741565b610991565b610115610d44565b60335460ff1660405190151581526020016100f9565b610115610d56565b610115610d68565b6065546040516001600160a01b0390911681526020016100f9565b6101156101b73660046117fa565b610d78565b6101156101ca3660046117fa565b610ebd565b6102326040518061012001604052806000815260200160006001600160a01b0316815260200160608152602001606081526020016000151581526020016000815260200160006001600160a01b0316815260200160008152602001600081525090565b6000828152609960209081526040918290208251610120810184528154815260018201546001600160a01b031692810192909252600281018054929391929184019161027d90611817565b80601f01602080910402602001604051908101604052809291908181526020018280546102a990611817565b80156102f65780601f106102cb576101008083540402835291602001916102f6565b820191906000526020600020905b8154815290600101906020018083116102d957829003601f168201915b5050505050815260200160038201805461030f90611817565b80601f016020809104026020016040519081016040528092919081815260200182805461033b90611817565b80156103885780601f1061035d57610100808354040283529160200191610388565b820191906000526020600020905b81548152906001019060200180831161036b57829003601f168201915b5050509183525050600482015460ff16151560208201526005820154604082015260068201546001600160a01b031660608201526007820154608082015260089091015460a09091015292915050565b6103e0610f4d565b60008181526099602090815260408083208151610120810183528154815260018201546001600160a01b031693810193909352600281018054919284019161042790611817565b80601f016020809104026020016040519081016040528092919081815260200182805461045390611817565b80156104a05780601f10610475576101008083540402835291602001916104a0565b820191906000526020600020905b81548152906001019060200180831161048357829003601f168201915b505050505081526020016003820180546104b990611817565b80601f01602080910402602001604051908101604052809291908181526020018280546104e590611817565b80156105325780601f1061050757610100808354040283529160200191610532565b820191906000526020600020905b81548152906001019060200180831161051557829003601f168201915b5050509183525050600482015460ff16151560208201526005820154604082015260068201546001600160a01b031660608201526007820154608082015260089091015460a09091015260e08101519091506000036105d85760405162461bcd60e51b815260206004820152601260248201527f506f6f6c20646f65736e2774206578697374000000000000000000000000000060448201526064015b60405180910390fd5b60808101511561062a5760405162461bcd60e51b815260206004820152601660248201527f506f6f6c20697320616c7265616479206163746976650000000000000000000060448201526064016105cf565b6098546040517fae22192e000000000000000000000000000000000000000000000000000000008152336004820152602481018490526001600160a01b0390911690600090829063ae22192e90604401606060405180830381865afa158015610697573d6000803e3d6000fd5b505050506040513d601f19601f820116820180604052508101906106bb9190611851565b60a08401518151919250146107385760405162461bcd60e51b815260206004820152602860248201527f4465706f736974656420616d6f756e7420646f6573206e6f74206d617463682060448201527f706f6f6c2063617000000000000000000000000000000000000000000000000060648201526084016105cf565b8260c001516001600160a01b031681602001516001600160a01b0316146107c75760405162461bcd60e51b815260206004820152603960248201527f4465706f736974656420746f6b656e206164647265737320646f6573206e6f7460448201527f206d6174636820706f6f6c20746f6b656e20616464726573730000000000000060648201526084016105cf565b600160808401819052600085815260996020908152604091829020865181558187015193810180546001600160a01b0319166001600160a01b03909516949094179093559085015180518693926108259260028501929101906114b3565b50606082015180516108419160038401916020909101906114b3565b50608082015160048201805460ff191691151591909117905560a0820151600582015560c08201516006820180546001600160a01b0319166001600160a01b0390921691909117905560e0820151600782015561010090910151600890910155604080518581523360208201527f4f7e91eea279f21fac65109d86b7d1dfceb5607c89313be67d8c2bf537f9ae0c910160405180910390a150505050565b60006108ea60975490565b905090565b6000818152609a6020526040902080546060919061090c90611817565b80601f016020809104026020016040519081016040528092919081815260200182805461093890611817565b80156109855780601f1061095a57610100808354040283529160200191610985565b820191906000526020600020905b81548152906001019060200180831161096857829003601f168201915b50505050509050919050565b6109f46040518061012001604052806000815260200160006001600160a01b0316815260200160608152602001606081526020016000151581526020016000815260200160006001600160a01b0316815260200160008152602001600081525090565b6109fc610f4d565b6000885111610a4d5760405162461bcd60e51b815260206004820152601460248201527f4d697373696e67206d657461646174612055524900000000000000000000000060448201526064016105cf565b60008511610a9d5760405162461bcd60e51b815260206004820152601060248201527f496e76616c696420706f6f6c206361700000000000000000000000000000000060448201526064016105cf565b428211610b125760405162461bcd60e51b815260206004820152602960248201527f456e642064617465206d7573742062652061667465722063757272656e74206260448201527f6c6f636b2074696d65000000000000000000000000000000000000000000000060648201526084016105cf565b60008311610b625760405162461bcd60e51b815260206004820152601b60248201527f496e76616c6964206d696e696d616c206879706520726577617264000000000060448201526064016105cf565b6000610b6d60975490565b9050610b7f818a8a8a8a8a8a8a610fa0565b610b89818a611104565b610b97609780546001019055565b6000818152609960209081526040918290208251610120810184528154815260018201546001600160a01b0316928101929092526002810180549293919291840191610be290611817565b80601f0160208091040260200160405190810160405280929190818152602001828054610c0e90611817565b8015610c5b5780601f10610c3057610100808354040283529160200191610c5b565b820191906000526020600020905b815481529060010190602001808311610c3e57829003601f168201915b50505050508152602001600382018054610c7490611817565b80601f0160208091040260200160405190810160405280929190818152602001828054610ca090611817565b8015610ced5780601f10610cc257610100808354040283529160200191610ced565b820191906000526020600020905b815481529060010190602001808311610cd057829003601f168201915b5050509183525050600482015460ff16151560208201526005820154604082015260068201546001600160a01b031660608201526007820154608082015260089091015460a0909101529998505050505050505050565b610d4c611155565b610d546111af565b565b610d5e611155565b610d546000611201565b610d70611155565b610d54611253565b600054610100900460ff1615808015610d985750600054600160ff909116105b80610db25750303b158015610db2575060005460ff166001145b610e245760405162461bcd60e51b815260206004820152602e60248201527f496e697469616c697a61626c653a20636f6e747261637420697320616c72656160448201527f647920696e697469616c697a656400000000000000000000000000000000000060648201526084016105cf565b6000805460ff191660011790558015610e47576000805461ff0019166101001790555b610e4f611290565b609880546001600160a01b0319166001600160a01b038416179055610e72611303565b8015610eb9576000805461ff0019169055604051600181527f7f26b83ff96e1f2b6a682f133852f6798a09c465da95921460cefb3847402498906020015b60405180910390a15b5050565b610ec5611155565b6001600160a01b038116610f415760405162461bcd60e51b815260206004820152602660248201527f4f776e61626c653a206e6577206f776e657220697320746865207a65726f206160448201527f646472657373000000000000000000000000000000000000000000000000000060648201526084016105cf565b610f4a81611201565b50565b60335460ff1615610d545760405162461bcd60e51b815260206004820152601060248201527f5061757361626c653a207061757365640000000000000000000000000000000060448201526064016105cf565b60408051610120810182528981523360208083019182528284018a8152606084018a905260006080850181905260a085018a90526001600160a01b0389811660c087015260e0860189905261010086018890528e8252609984529590208451815592516001840180546001600160a01b0319169190961617909455925180519293919261103392600285019201906114b3565b506060820151805161104f9160038401916020909101906114b3565b50608082015160048201805460ff191691151591909117905560a0820151600582015560c08201516006820180546001600160a01b0319166001600160a01b0390921691909117905560e08201516007820155610100909101516008909101556040517f83312587fc5cd827e0f94498e3a4c766f66c32778d0c6489d98242d21f3a3b6b906110f2908a9033908b908b908b906000908c908c908c908c906118b3565b60405180910390a15050505050505050565b6000828152609a602090815260409091208251611123928401906114b3565b507f514efc4dbca754e32bfeb5dcb0c2d277953187ffd3b3eae36f7f9b5202e6f8ff8282604051610eb0929190611934565b6065546001600160a01b03163314610d545760405162461bcd60e51b815260206004820181905260248201527f4f776e61626c653a2063616c6c6572206973206e6f7420746865206f776e657260448201526064016105cf565b6111b7611376565b6033805460ff191690557f5db9ee0a495bf2e6ff9c91a7834c1ba4fdd244a5e8aa4e537bd38aeae4b073aa335b6040516001600160a01b03909116815260200160405180910390a1565b606580546001600160a01b038381166001600160a01b0319831681179093556040519116919082907f8be0079c531659141344cd1fd0a4f28419497f9722a3daafe3b4186f6b6457e090600090a35050565b61125b610f4d565b6033805460ff191660011790557f62e78cea01bee320cd4e420270b5ea74000d11b0c9f74754ebdbfc544b05a2586111e43390565b600054610100900460ff166112fb5760405162461bcd60e51b815260206004820152602b60248201527f496e697469616c697a61626c653a20636f6e7472616374206973206e6f74206960448201526a6e697469616c697a696e6760a81b60648201526084016105cf565b610d546113c8565b600054610100900460ff1661136e5760405162461bcd60e51b815260206004820152602b60248201527f496e697469616c697a61626c653a20636f6e7472616374206973206e6f74206960448201526a6e697469616c697a696e6760a81b60648201526084016105cf565b610d5461143f565b60335460ff16610d545760405162461bcd60e51b815260206004820152601460248201527f5061757361626c653a206e6f742070617573656400000000000000000000000060448201526064016105cf565b600054610100900460ff166114335760405162461bcd60e51b815260206004820152602b60248201527f496e697469616c697a61626c653a20636f6e7472616374206973206e6f74206960448201526a6e697469616c697a696e6760a81b60648201526084016105cf565b6033805460ff19169055565b600054610100900460ff166114aa5760405162461bcd60e51b815260206004820152602b60248201527f496e697469616c697a61626c653a20636f6e7472616374206973206e6f74206960448201526a6e697469616c697a696e6760a81b60648201526084016105cf565b610d5433611201565b8280546114bf90611817565b90600052602060002090601f0160209004810192826114e15760008555611527565b82601f106114fa57805160ff1916838001178555611527565b82800160010185558215611527579182015b8281111561152757825182559160200191906001019061150c565b50611533929150611537565b5090565b5b808211156115335760008155600101611538565b60006020828403121561155e57600080fd5b5035919050565b6000815180845260005b8181101561158b5760208185018101518683018201520161156f565b8181111561159d576000602083870101525b50601f01601f19169290920160200192915050565b6020815281516020820152600060208301516115d960408401826001600160a01b03169052565b5060408301516101208060608501526115f6610140850183611565565b91506060850151601f198584030160808601526116138382611565565b925050608085015161162960a086018215159052565b5060a085015160c085015260c085015161164e60e08601826001600160a01b03169052565b5060e085015161010085810191909152909401519390920192909252919050565b6020815260006116826020830184611565565b9392505050565b634e487b7160e01b600052604160045260246000fd5b600082601f8301126116b057600080fd5b813567ffffffffffffffff808211156116cb576116cb611689565b604051601f8301601f19908116603f011681019082821181831017156116f3576116f3611689565b8160405283815286602085880101111561170c57600080fd5b836020870160208301376000602085830101528094505050505092915050565b6001600160a01b0381168114610f4a57600080fd5b600080600080600080600060e0888a03121561175c57600080fd5b873567ffffffffffffffff8082111561177457600080fd5b6117808b838c0161169f565b985060208a013591508082111561179657600080fd5b6117a28b838c0161169f565b975060408a01359150808211156117b857600080fd5b506117c58a828b0161169f565b9550506060880135935060808801356117dd8161172c565b9699959850939692959460a0840135945060c09093013592915050565b60006020828403121561180c57600080fd5b81356116828161172c565b600181811c9082168061182b57607f821691505b60208210810361184b57634e487b7160e01b600052602260045260246000fd5b50919050565b60006060828403121561186357600080fd5b6040516060810181811067ffffffffffffffff8211171561188657611886611689565b60405282518152602083015161189b8161172c565b60208201526040928301519281019290925250919050565b60006101408c83526001600160a01b03808d1660208501528160408501526118dd8285018d611565565b915083820360608501526118f1828c611565565b91508382036080850152611905828b611565565b98151560a085015260c084019790975250509290931660e0830152610100820152610120015295945050505050565b82815260406020820152600061194d6040830184611565565b94935050505056fea264697066735822122096c8377d873068d8d028acbaf9e47852e8b5d9ee252798fb030ea1b2eeefd33164736f6c634300080e0033",
  "linkReferences": {},
  "deployedLinkReferences": {}
}