{
  "_format": "hh-sol-artifact-1",
  "contractName": "HypePoolUpgradeable",
  "sourceName": "contracts/upgradeable/HypePoolUpgradeable.sol",
  "abi": [
    {
      "inputs": [],
      "stateMutability": "nonpayable",
      "type": "constructor"
    },
    {
      "anonymous": false,
      "inputs": [
        {
          "indexed": false,
          "internalType": "uint8",
          "name": "version",
          "type": "uint8"
        }
      ],
      "name": "Initialized",
      "type": "event"
    },
    {
      "anonymous": false,
      "inputs": [
        {
          "indexed": true,
          "internalType": "address",
          "name": "previousOwner",
          "type": "address"
        },
        {
          "indexed": true,
          "internalType": "address",
          "name": "newOwner",
          "type": "address"
        }
      ],
      "name": "OwnershipTransferred",
      "type": "event"
    },
    {
      "anonymous": false,
      "inputs": [
        {
          "indexed": false,
          "internalType": "address",
          "name": "account",
          "type": "address"
        }
      ],
      "name": "Paused",
      "type": "event"
    },
    {
      "anonymous": false,
      "inputs": [
        {
          "indexed": false,
          "internalType": "uint256",
          "name": "poolId",
          "type": "uint256"
        },
        {
          "indexed": false,
          "internalType": "address",
          "name": "activator",
          "type": "address"
        }
      ],
      "name": "PoolActivated",
      "type": "event"
    },
    {
      "anonymous": false,
      "inputs": [
        {
          "indexed": false,
          "internalType": "uint256",
          "name": "poolId",
          "type": "uint256"
        },
        {
          "indexed": false,
          "internalType": "address",
          "name": "creator",
          "type": "address"
        },
        {
          "indexed": false,
          "internalType": "string",
          "name": "uri",
          "type": "string"
        },
        {
          "indexed": false,
          "internalType": "string",
          "name": "title",
          "type": "string"
        },
        {
          "indexed": false,
          "internalType": "string",
          "name": "projectName",
          "type": "string"
        },
        {
          "indexed": false,
          "internalType": "string",
          "name": "tokenName",
          "type": "string"
        },
        {
          "indexed": false,
          "internalType": "string",
          "name": "word",
          "type": "string"
        },
        {
          "indexed": false,
          "internalType": "bool",
          "name": "active",
          "type": "bool"
        },
        {
          "indexed": false,
          "internalType": "uint256",
          "name": "cap",
          "type": "uint256"
        },
        {
          "indexed": false,
          "internalType": "address",
          "name": "tokenAddress",
          "type": "address"
        },
        {
          "indexed": false,
          "internalType": "address",
          "name": "network",
          "type": "address"
        },
        {
          "indexed": false,
          "internalType": "uint256",
          "name": "minReward",
          "type": "uint256"
        },
        {
          "indexed": false,
          "internalType": "uint256",
          "name": "impressionReward",
          "type": "uint256"
        },
        {
          "indexed": false,
          "internalType": "uint256",
          "name": "endDate",
          "type": "uint256"
        }
      ],
      "name": "PoolCreated",
      "type": "event"
    },
    {
      "anonymous": false,
      "inputs": [
        {
          "indexed": false,
          "internalType": "uint256",
          "name": "poolId",
          "type": "uint256"
        },
        {
          "indexed": false,
          "internalType": "string",
          "name": "uri",
          "type": "string"
        }
      ],
      "name": "PoolUriSet",
      "type": "event"
    },
    {
      "anonymous": false,
      "inputs": [
        {
          "indexed": false,
          "internalType": "address",
          "name": "account",
          "type": "address"
        }
      ],
      "name": "Unpaused",
      "type": "event"
    },
    {
      "inputs": [
        {
          "internalType": "uint256",
          "name": "id",
          "type": "uint256"
        }
      ],
      "name": "activatePool",
      "outputs": [],
      "stateMutability": "nonpayable",
      "type": "function"
    },
    {
      "inputs": [
        {
          "internalType": "string",
          "name": "uri",
          "type": "string"
        },
        {
          "internalType": "string",
          "name": "projectName",
          "type": "string"
        },
        {
          "internalType": "string",
          "name": "title",
          "type": "string"
        },
        {
          "internalType": "string",
          "name": "tokenName",
          "type": "string"
        },
        {
          "internalType": "string",
          "name": "word",
          "type": "string"
        },
        {
          "internalType": "uint256",
          "name": "cap",
          "type": "uint256"
        },
        {
          "internalType": "address",
          "name": "tokenAddress",
          "type": "address"
        },
        {
          "internalType": "address",
          "name": "network",
          "type": "address"
        },
        {
          "internalType": "uint256",
          "name": "minReward",
          "type": "uint256"
        },
        {
          "internalType": "uint256",
          "name": "impressionReward",
          "type": "uint256"
        },
        {
          "internalType": "uint256",
          "name": "endDate",
          "type": "uint256"
        }
      ],
      "name": "createPool",
      "outputs": [
        {
          "components": [
            {
              "internalType": "uint256",
              "name": "id",
              "type": "uint256"
            },
            {
              "internalType": "address",
              "name": "creator",
              "type": "address"
            },
            {
              "internalType": "string",
              "name": "title",
              "type": "string"
            },
            {
              "internalType": "string",
              "name": "projectName",
              "type": "string"
            },
            {
              "internalType": "string",
              "name": "tokenName",
              "type": "string"
            },
            {
              "internalType": "string",
              "name": "word",
              "type": "string"
            },
            {
              "internalType": "address",
              "name": "network",
              "type": "address"
            },
            {
              "internalType": "bool",
              "name": "active",
              "type": "bool"
            },
            {
              "internalType": "uint256",
              "name": "cap",
              "type": "uint256"
            },
            {
              "internalType": "address",
              "name": "tokenAddress",
              "type": "address"
            },
            {
              "internalType": "uint256",
              "name": "minReward",
              "type": "uint256"
            },
            {
              "internalType": "uint256",
              "name": "impressionReward",
              "type": "uint256"
            },
            {
              "internalType": "uint256",
              "name": "endDate",
              "type": "uint256"
            }
          ],
          "internalType": "struct IHypePool.HypePool",
          "name": "",
          "type": "tuple"
        }
      ],
      "stateMutability": "nonpayable",
      "type": "function"
    },
    {
      "inputs": [],
      "name": "getCurrentIndex",
      "outputs": [
        {
          "internalType": "uint256",
          "name": "",
          "type": "uint256"
        }
      ],
      "stateMutability": "view",
      "type": "function"
    },
    {
      "inputs": [
        {
          "internalType": "uint256",
          "name": "tokenId",
          "type": "uint256"
        }
      ],
      "name": "getPool",
      "outputs": [
        {
          "components": [
            {
              "internalType": "uint256",
              "name": "id",
              "type": "uint256"
            },
            {
              "internalType": "address",
              "name": "creator",
              "type": "address"
            },
            {
              "internalType": "string",
              "name": "title",
              "type": "string"
            },
            {
              "internalType": "string",
              "name": "projectName",
              "type": "string"
            },
            {
              "internalType": "string",
              "name": "tokenName",
              "type": "string"
            },
            {
              "internalType": "string",
              "name": "word",
              "type": "string"
            },
            {
              "internalType": "address",
              "name": "network",
              "type": "address"
            },
            {
              "internalType": "bool",
              "name": "active",
              "type": "bool"
            },
            {
              "internalType": "uint256",
              "name": "cap",
              "type": "uint256"
            },
            {
              "internalType": "address",
              "name": "tokenAddress",
              "type": "address"
            },
            {
              "internalType": "uint256",
              "name": "minReward",
              "type": "uint256"
            },
            {
              "internalType": "uint256",
              "name": "impressionReward",
              "type": "uint256"
            },
            {
              "internalType": "uint256",
              "name": "endDate",
              "type": "uint256"
            }
          ],
          "internalType": "struct IHypePool.HypePool",
          "name": "",
          "type": "tuple"
        }
      ],
      "stateMutability": "view",
      "type": "function"
    },
    {
      "inputs": [
        {
          "internalType": "address",
          "name": "escrowContractAddress",
          "type": "address"
        }
      ],
      "name": "initialize",
      "outputs": [],
      "stateMutability": "nonpayable",
      "type": "function"
    },
    {
      "inputs": [],
      "name": "owner",
      "outputs": [
        {
          "internalType": "address",
          "name": "",
          "type": "address"
        }
      ],
      "stateMutability": "view",
      "type": "function"
    },
    {
      "inputs": [],
      "name": "pause",
      "outputs": [],
      "stateMutability": "nonpayable",
      "type": "function"
    },
    {
      "inputs": [],
      "name": "paused",
      "outputs": [
        {
          "internalType": "bool",
          "name": "",
          "type": "bool"
        }
      ],
      "stateMutability": "view",
      "type": "function"
    },
    {
      "inputs": [
        {
          "internalType": "uint256",
          "name": "tokenId",
          "type": "uint256"
        }
      ],
      "name": "poolURI",
      "outputs": [
        {
          "internalType": "string",
          "name": "",
          "type": "string"
        }
      ],
      "stateMutability": "view",
      "type": "function"
    },
    {
      "inputs": [],
      "name": "renounceOwnership",
      "outputs": [],
      "stateMutability": "nonpayable",
      "type": "function"
    },
    {
      "inputs": [
        {
          "internalType": "address",
          "name": "newOwner",
          "type": "address"
        }
      ],
      "name": "transferOwnership",
      "outputs": [],
      "stateMutability": "nonpayable",
      "type": "function"
    },
    {
      "inputs": [],
      "name": "unpause",
      "outputs": [],
      "stateMutability": "nonpayable",
      "type": "function"
    }
  ],
  "bytecode": "0x608060405234801561001057600080fd5b5061001961001e565b6100de565b600054610100900460ff161561008a5760405162461bcd60e51b815260206004820152602760248201527f496e697469616c697a61626c653a20636f6e747261637420697320696e697469604482015266616c697a696e6760c81b606482015260840160405180910390fd5b60005460ff90811610156100dc576000805460ff191660ff9081179091556040519081527f7f26b83ff96e1f2b6a682f133852f6798a09c465da95921460cefb38474024989060200160405180910390a15b565b61205080620000ee6000396000f3fe608060405234801561001057600080fd5b50600436106100d45760003560e01c8063715018a611610081578063c4d66de81161005b578063c4d66de814610196578063f0221248146101a9578063f2fde38b146101bc57600080fd5b8063715018a61461016b5780638456cb59146101735780638da5cb5b1461017b57600080fd5b80631e2f4adc116100b25780631e2f4adc1461012d5780633f4ba83a1461014d5780635c975abb1461015557600080fd5b8063068bcd8d146100d957806308f747dd146101025780630d9005ae14610117575b600080fd5b6100ec6100e7366004611ad7565b6101cf565b6040516100f99190611b3d565b60405180910390f35b610115610110366004611ad7565b61053b565b005b61011f610c0e565b6040519081526020016100f9565b61014061013b366004611ad7565b610c1e565b6040516100f99190611c60565b610115610cc0565b60335460ff1660405190151581526020016100f9565b610115610cd2565b610115610ce4565b6065546040516001600160a01b0390911681526020016100f9565b6101156101a4366004611c9f565b610cf4565b6100ec6101b7366004611d5f565b610e46565b6101156101ca366004611c9f565b611364565b610257604051806101a001604052806000815260200160006001600160a01b031681526020016060815260200160608152602001606081526020016060815260200160006001600160a01b031681526020016000151581526020016000815260200160006001600160a01b031681526020016000815260200160008152602001600081525090565b60008281526099602090815260409182902082516101a0810184528154815260018201546001600160a01b03169281019290925260028101805492939192918401916102a290611e7f565b80601f01602080910402602001604051908101604052809291908181526020018280546102ce90611e7f565b801561031b5780601f106102f05761010080835404028352916020019161031b565b820191906000526020600020905b8154815290600101906020018083116102fe57829003601f168201915b5050505050815260200160038201805461033490611e7f565b80601f016020809104026020016040519081016040528092919081815260200182805461036090611e7f565b80156103ad5780601f10610382576101008083540402835291602001916103ad565b820191906000526020600020905b81548152906001019060200180831161039057829003601f168201915b505050505081526020016004820180546103c690611e7f565b80601f01602080910402602001604051908101604052809291908181526020018280546103f290611e7f565b801561043f5780601f106104145761010080835404028352916020019161043f565b820191906000526020600020905b81548152906001019060200180831161042257829003601f168201915b5050505050815260200160058201805461045890611e7f565b80601f016020809104026020016040519081016040528092919081815260200182805461048490611e7f565b80156104d15780601f106104a6576101008083540402835291602001916104d1565b820191906000526020600020905b8154815290600101906020018083116104b457829003601f168201915b505050918352505060068201546001600160a01b038082166020840152600160a01b90910460ff1615156040830152600783015460608301526008830154166080820152600982015460a0820152600a82015460c0820152600b9091015460e09091015292915050565b6105436113f4565b600081815260996020908152604080832081516101a0810183528154815260018201546001600160a01b031693810193909352600281018054919284019161058a90611e7f565b80601f01602080910402602001604051908101604052809291908181526020018280546105b690611e7f565b80156106035780601f106105d857610100808354040283529160200191610603565b820191906000526020600020905b8154815290600101906020018083116105e657829003601f168201915b5050505050815260200160038201805461061c90611e7f565b80601f016020809104026020016040519081016040528092919081815260200182805461064890611e7f565b80156106955780601f1061066a57610100808354040283529160200191610695565b820191906000526020600020905b81548152906001019060200180831161067857829003601f168201915b505050505081526020016004820180546106ae90611e7f565b80601f01602080910402602001604051908101604052809291908181526020018280546106da90611e7f565b80156107275780601f106106fc57610100808354040283529160200191610727565b820191906000526020600020905b81548152906001019060200180831161070a57829003601f168201915b5050505050815260200160058201805461074090611e7f565b80601f016020809104026020016040519081016040528092919081815260200182805461076c90611e7f565b80156107b95780601f1061078e576101008083540402835291602001916107b9565b820191906000526020600020905b81548152906001019060200180831161079c57829003601f168201915b505050918352505060068201546001600160a01b038082166020840152600160a01b90910460ff1615156040830152600783015460608301526008830154166080820152600982015460a0820152600a82015460c0820152600b9091015460e09091015261014081015190915060000361087a5760405162461bcd60e51b815260206004820152601260248201527f506f6f6c20646f65736e2774206578697374000000000000000000000000000060448201526064015b60405180910390fd5b60e0810151156108cc5760405162461bcd60e51b815260206004820152601660248201527f506f6f6c20697320616c726561647920616374697665000000000000000000006044820152606401610871565b6098546040517fae22192e000000000000000000000000000000000000000000000000000000008152336004820152602481018490526001600160a01b0390911690600090829063ae22192e90604401606060405180830381865afa158015610939573d6000803e3d6000fd5b505050506040513d601f19601f8201168201806040525081019061095d9190611eb9565b6101008401518151919250146109db5760405162461bcd60e51b815260206004820152602860248201527f4465706f736974656420616d6f756e7420646f6573206e6f74206d617463682060448201527f706f6f6c206361700000000000000000000000000000000000000000000000006064820152608401610871565b8261012001516001600160a01b031681602001516001600160a01b031614610a6b5760405162461bcd60e51b815260206004820152603960248201527f4465706f736974656420746f6b656e206164647265737320646f6573206e6f7460448201527f206d6174636820706f6f6c20746f6b656e2061646472657373000000000000006064820152608401610871565b600160e084018190526000858152609960209081526040918290208651815581870151938101805473ffffffffffffffffffffffffffffffffffffffff19166001600160a01b0390951694909417909355908501518051869392610ad6926002850192910190611a3e565b5060608201518051610af2916003840191602090910190611a3e565b5060808201518051610b0e916004840191602090910190611a3e565b5060a08201518051610b2a916005840191602090910190611a3e565b5060c082015160068201805460e08501511515600160a01b027fffffffffffffffffffffff0000000000000000000000000000000000000000009091166001600160a01b039384161717905561010083015160078301556101208301516008830180549190921673ffffffffffffffffffffffffffffffffffffffff199091161790556101408201516009820155610160820151600a82015561018090910151600b90910155604080518581523360208201527f4f7e91eea279f21fac65109d86b7d1dfceb5607c89313be67d8c2bf537f9ae0c910160405180910390a150505050565b6000610c1960975490565b905090565b6000818152609a60205260409020805460609190610c3b90611e7f565b80601f0160208091040260200160405190810160405280929190818152602001828054610c6790611e7f565b8015610cb45780601f10610c8957610100808354040283529160200191610cb4565b820191906000526020600020905b815481529060010190602001808311610c9757829003601f168201915b50505050509050919050565b610cc8611447565b610cd06114a1565b565b610cda611447565b610cd060006114f3565b610cec611447565b610cd0611552565b600054610100900460ff1615808015610d145750600054600160ff909116105b80610d2e5750303b158015610d2e575060005460ff166001145b610da05760405162461bcd60e51b815260206004820152602e60248201527f496e697469616c697a61626c653a20636f6e747261637420697320616c72656160448201527f647920696e697469616c697a65640000000000000000000000000000000000006064820152608401610871565b6000805460ff191660011790558015610dc3576000805461ff0019166101001790555b610dcb61158f565b6098805473ffffffffffffffffffffffffffffffffffffffff19166001600160a01b038416179055610dfb611602565b8015610e42576000805461ff0019169055604051600181527f7f26b83ff96e1f2b6a682f133852f6798a09c465da95921460cefb3847402498906020015b60405180910390a15b5050565b610ece604051806101a001604052806000815260200160006001600160a01b031681526020016060815260200160608152602001606081526020016060815260200160006001600160a01b031681526020016000151581526020016000815260200160006001600160a01b031681526020016000815260200160008152602001600081525090565b610ed66113f4565b60008c5111610f275760405162461bcd60e51b815260206004820152601460248201527f4d697373696e67206d65746164617461205552490000000000000000000000006044820152606401610871565b60008711610f775760405162461bcd60e51b815260206004820152601060248201527f496e76616c696420706f6f6c20636170000000000000000000000000000000006044820152606401610871565b428211610fec5760405162461bcd60e51b815260206004820152602960248201527f456e642064617465206d7573742062652061667465722063757272656e74206260448201527f6c6f636b2074696d6500000000000000000000000000000000000000000000006064820152608401610871565b6000841161103c5760405162461bcd60e51b815260206004820152601b60248201527f496e76616c6964206d696e696d616c20687970652072657761726400000000006044820152606401610871565b600061104760975490565b905061105d818e8e8e8e8e8e8e8e8e8e8e611675565b611067818e6118b0565b611075609780546001019055565b60008181526099602090815260409182902082516101a0810184528154815260018201546001600160a01b03169281019290925260028101805492939192918401916110c090611e7f565b80601f01602080910402602001604051908101604052809291908181526020018280546110ec90611e7f565b80156111395780601f1061110e57610100808354040283529160200191611139565b820191906000526020600020905b81548152906001019060200180831161111c57829003601f168201915b5050505050815260200160038201805461115290611e7f565b80601f016020809104026020016040519081016040528092919081815260200182805461117e90611e7f565b80156111cb5780601f106111a0576101008083540402835291602001916111cb565b820191906000526020600020905b8154815290600101906020018083116111ae57829003601f168201915b505050505081526020016004820180546111e490611e7f565b80601f016020809104026020016040519081016040528092919081815260200182805461121090611e7f565b801561125d5780601f106112325761010080835404028352916020019161125d565b820191906000526020600020905b81548152906001019060200180831161124057829003601f168201915b5050505050815260200160058201805461127690611e7f565b80601f01602080910402602001604051908101604052809291908181526020018280546112a290611e7f565b80156112ef5780601f106112c4576101008083540402835291602001916112ef565b820191906000526020600020905b8154815290600101906020018083116112d257829003601f168201915b505050918352505060068201546001600160a01b038082166020840152600160a01b90910460ff1615156040830152600783015460608301526008830154166080820152600982015460a0820152600a82015460c0820152600b9091015460e0909101529d9c50505050505050505050505050565b61136c611447565b6001600160a01b0381166113e85760405162461bcd60e51b815260206004820152602660248201527f4f776e61626c653a206e6577206f776e657220697320746865207a65726f206160448201527f64647265737300000000000000000000000000000000000000000000000000006064820152608401610871565b6113f1816114f3565b50565b60335460ff1615610cd05760405162461bcd60e51b815260206004820152601060248201527f5061757361626c653a20706175736564000000000000000000000000000000006044820152606401610871565b6065546001600160a01b03163314610cd05760405162461bcd60e51b815260206004820181905260248201527f4f776e61626c653a2063616c6c6572206973206e6f7420746865206f776e65726044820152606401610871565b6114a9611901565b6033805460ff191690557f5db9ee0a495bf2e6ff9c91a7834c1ba4fdd244a5e8aa4e537bd38aeae4b073aa335b6040516001600160a01b03909116815260200160405180910390a1565b606580546001600160a01b0383811673ffffffffffffffffffffffffffffffffffffffff19831681179093556040519116919082907f8be0079c531659141344cd1fd0a4f28419497f9722a3daafe3b4186f6b6457e090600090a35050565b61155a6113f4565b6033805460ff191660011790557f62e78cea01bee320cd4e420270b5ea74000d11b0c9f74754ebdbfc544b05a2586114d63390565b600054610100900460ff166115fa5760405162461bcd60e51b815260206004820152602b60248201527f496e697469616c697a61626c653a20636f6e7472616374206973206e6f74206960448201526a6e697469616c697a696e6760a81b6064820152608401610871565b610cd0611953565b600054610100900460ff1661166d5760405162461bcd60e51b815260206004820152602b60248201527f496e697469616c697a61626c653a20636f6e7472616374206973206e6f74206960448201526a6e697469616c697a696e6760a81b6064820152608401610871565b610cd06119ca565b604051806101a001604052808d8152602001336001600160a01b031681526020018a81526020018b8152602001898152602001888152602001856001600160a01b03168152602001600015158152602001878152602001866001600160a01b0316815260200184815260200183815260200182815250609960008e81526020019081526020016000206000820151816000015560208201518160010160006101000a8154816001600160a01b0302191690836001600160a01b031602179055506040820151816002019080519060200190611751929190611a3e565b506060820151805161176d916003840191602090910190611a3e565b5060808201518051611789916004840191602090910190611a3e565b5060a082015180516117a5916005840191602090910190611a3e565b5060c08201518160060160006101000a8154816001600160a01b0302191690836001600160a01b0316021790555060e08201518160060160146101000a81548160ff02191690831515021790555061010082015181600701556101208201518160080160006101000a8154816001600160a01b0302191690836001600160a01b03160217905550610140820151816009015561016082015181600a015561018082015181600b01559050507f01431c1f2f75b37fa2a7a25ef6873d3c03e3415c0d960f795fbe1e2fff4939a68c338d8c8e8d8d60008e8e8e8e8e8e60405161189a9e9d9c9b9a99989796959493929190611f1b565b60405180910390a1505050505050505050505050565b6000828152609a6020908152604090912082516118cf92840190611a3e565b507f514efc4dbca754e32bfeb5dcb0c2d277953187ffd3b3eae36f7f9b5202e6f8ff8282604051610e39929190611ff9565b60335460ff16610cd05760405162461bcd60e51b815260206004820152601460248201527f5061757361626c653a206e6f74207061757365640000000000000000000000006044820152606401610871565b600054610100900460ff166119be5760405162461bcd60e51b815260206004820152602b60248201527f496e697469616c697a61626c653a20636f6e7472616374206973206e6f74206960448201526a6e697469616c697a696e6760a81b6064820152608401610871565b6033805460ff19169055565b600054610100900460ff16611a355760405162461bcd60e51b815260206004820152602b60248201527f496e697469616c697a61626c653a20636f6e7472616374206973206e6f74206960448201526a6e697469616c697a696e6760a81b6064820152608401610871565b610cd0336114f3565b828054611a4a90611e7f565b90600052602060002090601f016020900481019282611a6c5760008555611ab2565b82601f10611a8557805160ff1916838001178555611ab2565b82800160010185558215611ab2579182015b82811115611ab2578251825591602001919060010190611a97565b50611abe929150611ac2565b5090565b5b80821115611abe5760008155600101611ac3565b600060208284031215611ae957600080fd5b5035919050565b6000815180845260005b81811015611b1657602081850181015186830182015201611afa565b81811115611b28576000602083870101525b50601f01601f19169290920160200192915050565b602081528151602082015260006020830151611b6460408401826001600160a01b03169052565b5060408301516101a0806060850152611b816101c0850183611af0565b91506060850151601f1980868503016080870152611b9f8483611af0565b935060808701519150808685030160a0870152611bbc8483611af0565b935060a08701519150808685030160c087015250611bda8382611af0565b92505060c0850151611bf760e08601826001600160a01b03169052565b5060e0850151610100611c0d8187018315159052565b860151610120868101919091528601519050610140611c36818701836001600160a01b03169052565b86015161016086810191909152860151610180808701919091529095015193019290925250919050565b602081526000611c736020830184611af0565b9392505050565b6001600160a01b03811681146113f157600080fd5b8035611c9a81611c7a565b919050565b600060208284031215611cb157600080fd5b8135611c7381611c7a565b634e487b7160e01b600052604160045260246000fd5b600082601f830112611ce357600080fd5b813567ffffffffffffffff80821115611cfe57611cfe611cbc565b604051601f8301601f19908116603f01168101908282118183101715611d2657611d26611cbc565b81604052838152866020858801011115611d3f57600080fd5b836020870160208301376000602085830101528094505050505092915050565b60008060008060008060008060008060006101608c8e031215611d8157600080fd5b67ffffffffffffffff808d351115611d9857600080fd5b611da58e8e358f01611cd2565b9b508060208e01351115611db857600080fd5b611dc88e60208f01358f01611cd2565b9a508060408e01351115611ddb57600080fd5b611deb8e60408f01358f01611cd2565b99508060608e01351115611dfe57600080fd5b611e0e8e60608f01358f01611cd2565b98508060808e01351115611e2157600080fd5b50611e328d60808e01358e01611cd2565b965060a08c01359550611e4760c08d01611c8f565b9450611e5560e08d01611c8f565b93506101008c013592506101208c013591506101408c013590509295989b509295989b9093969950565b600181811c90821680611e9357607f821691505b602082108103611eb357634e487b7160e01b600052602260045260246000fd5b50919050565b600060608284031215611ecb57600080fd5b6040516060810181811067ffffffffffffffff82111715611eee57611eee611cbc565b604052825181526020830151611f0381611c7a565b60208201526040928301519281019290925250919050565b8e81526001600160a01b038e1660208201526101c060408201526000611f456101c083018f611af0565b8281036060840152611f57818f611af0565b90508281036080840152611f6b818e611af0565b905082810360a0840152611f7f818d611af0565b905082810360c0840152611f93818c611af0565b915050611fa460e083018a15159052565b87610100830152611fc16101208301886001600160a01b03169052565b6001600160a01b0386166101408301528461016083015283610180830152826101a08301529f9e505050505050505050505050505050565b8281526040602082015260006120126040830184611af0565b94935050505056fea264697066735822122080fdd1158e84288c5ff05cd5e5b7a88d1e8ccb2c7dd073a41150d8fb6310899764736f6c634300080e0033",
  "linkReferences": {},
  "deployedLinkReferences": {}
}