{
  "_format": "hh-sol-artifact-1",
  "contractName": "HypePoolUpgradeable",
  "sourceName": "contracts/upgradeable/HypePoolUpgradeable.sol",
  "abi": [
    {
      "inputs": [],
      "stateMutability": "nonpayable",
      "type": "constructor"
    },
    {
      "anonymous": false,
      "inputs": [
        {
          "indexed": false,
          "internalType": "uint8",
          "name": "version",
          "type": "uint8"
        }
      ],
      "name": "Initialized",
      "type": "event"
    },
    {
      "anonymous": false,
      "inputs": [
        {
          "indexed": true,
          "internalType": "address",
          "name": "previousOwner",
          "type": "address"
        },
        {
          "indexed": true,
          "internalType": "address",
          "name": "newOwner",
          "type": "address"
        }
      ],
      "name": "OwnershipTransferred",
      "type": "event"
    },
    {
      "anonymous": false,
      "inputs": [
        {
          "indexed": false,
          "internalType": "address",
          "name": "account",
          "type": "address"
        }
      ],
      "name": "Paused",
      "type": "event"
    },
    {
      "anonymous": false,
      "inputs": [
        {
          "indexed": false,
          "internalType": "bytes32",
          "name": "poolId",
          "type": "bytes32"
        },
        {
          "indexed": false,
          "internalType": "address",
          "name": "activator",
          "type": "address"
        },
        {
          "indexed": false,
          "internalType": "uint256",
          "name": "startDate",
          "type": "uint256"
        },
        {
          "indexed": false,
          "internalType": "uint256",
          "name": "endDate",
          "type": "uint256"
        }
      ],
      "name": "PoolActivated",
      "type": "event"
    },
    {
      "anonymous": false,
      "inputs": [
        {
          "indexed": false,
          "internalType": "bytes32",
          "name": "poolId",
          "type": "bytes32"
        },
        {
          "indexed": false,
          "internalType": "address",
          "name": "creator",
          "type": "address"
        },
        {
          "indexed": false,
          "internalType": "string",
          "name": "uri",
          "type": "string"
        }
      ],
      "name": "PoolCreated",
      "type": "event"
    },
    {
      "anonymous": false,
      "inputs": [
        {
          "indexed": false,
          "internalType": "bytes32",
          "name": "poolId",
          "type": "bytes32"
        },
        {
          "indexed": false,
          "internalType": "address",
          "name": "deactivator",
          "type": "address"
        }
      ],
      "name": "PoolDeactivated",
      "type": "event"
    },
    {
      "anonymous": false,
      "inputs": [
        {
          "indexed": false,
          "internalType": "bytes32",
          "name": "poolId",
          "type": "bytes32"
        },
        {
          "indexed": false,
          "internalType": "string",
          "name": "title",
          "type": "string"
        },
        {
          "indexed": false,
          "internalType": "string",
          "name": "projectName",
          "type": "string"
        },
        {
          "indexed": false,
          "internalType": "string",
          "name": "tokenName",
          "type": "string"
        },
        {
          "indexed": false,
          "internalType": "string",
          "name": "word",
          "type": "string"
        }
      ],
      "name": "PoolDetailsCreated",
      "type": "event"
    },
    {
      "anonymous": false,
      "inputs": [
        {
          "indexed": false,
          "internalType": "bytes32",
          "name": "poolId",
          "type": "bytes32"
        },
        {
          "indexed": false,
          "internalType": "uint256",
          "name": "network",
          "type": "uint256"
        },
        {
          "indexed": false,
          "internalType": "address",
          "name": "tokenAddress",
          "type": "address"
        },
        {
          "indexed": false,
          "internalType": "uint256",
          "name": "impressionReward",
          "type": "uint256"
        },
        {
          "indexed": false,
          "internalType": "uint256",
          "name": "cap",
          "type": "uint256"
        },
        {
          "indexed": false,
          "internalType": "uint256",
          "name": "startDate",
          "type": "uint256"
        },
        {
          "indexed": false,
          "internalType": "uint256",
          "name": "endDate",
          "type": "uint256"
        },
        {
          "indexed": false,
          "internalType": "uint256",
          "name": "duration",
          "type": "uint256"
        },
        {
          "indexed": false,
          "internalType": "uint256",
          "name": "firstLeaderRewards",
          "type": "uint256"
        },
        {
          "indexed": false,
          "internalType": "uint256",
          "name": "secondLeaderRewards",
          "type": "uint256"
        },
        {
          "indexed": false,
          "internalType": "uint256",
          "name": "thirdLeaderRewards",
          "type": "uint256"
        }
      ],
      "name": "PoolRewardsCreated",
      "type": "event"
    },
    {
      "anonymous": false,
      "inputs": [
        {
          "indexed": false,
          "internalType": "bytes32",
          "name": "poolId",
          "type": "bytes32"
        },
        {
          "indexed": false,
          "internalType": "string",
          "name": "uri",
          "type": "string"
        }
      ],
      "name": "PoolUriSet",
      "type": "event"
    },
    {
      "anonymous": false,
      "inputs": [
        {
          "indexed": true,
          "internalType": "bytes32",
          "name": "role",
          "type": "bytes32"
        },
        {
          "indexed": true,
          "internalType": "address",
          "name": "account",
          "type": "address"
        }
      ],
      "name": "RoleGranted",
      "type": "event"
    },
    {
      "anonymous": false,
      "inputs": [
        {
          "indexed": true,
          "internalType": "bytes32",
          "name": "role",
          "type": "bytes32"
        },
        {
          "indexed": true,
          "internalType": "address",
          "name": "account",
          "type": "address"
        }
      ],
      "name": "RoleRevoked",
      "type": "event"
    },
    {
      "anonymous": false,
      "inputs": [
        {
          "indexed": false,
          "internalType": "address",
          "name": "account",
          "type": "address"
        }
      ],
      "name": "Unpaused",
      "type": "event"
    },
    {
      "inputs": [],
      "name": "ACTIVATOR_ROLE",
      "outputs": [
        {
          "internalType": "bytes32",
          "name": "",
          "type": "bytes32"
        }
      ],
      "stateMutability": "view",
      "type": "function"
    },
    {
      "inputs": [
        {
          "internalType": "bytes32",
          "name": "uuid",
          "type": "bytes32"
        }
      ],
      "name": "activatePool",
      "outputs": [],
      "stateMutability": "nonpayable",
      "type": "function"
    },
    {
      "inputs": [
        {
          "internalType": "bytes32",
          "name": "role",
          "type": "bytes32"
        },
        {
          "internalType": "address",
          "name": "account",
          "type": "address"
        }
      ],
      "name": "addRole",
      "outputs": [],
      "stateMutability": "nonpayable",
      "type": "function"
    },
    {
      "inputs": [
        {
          "internalType": "string",
          "name": "uri",
          "type": "string"
        },
        {
          "components": [
            {
              "internalType": "string",
              "name": "title",
              "type": "string"
            },
            {
              "internalType": "string",
              "name": "projectName",
              "type": "string"
            },
            {
              "internalType": "string",
              "name": "tokenName",
              "type": "string"
            },
            {
              "internalType": "string",
              "name": "word",
              "type": "string"
            }
          ],
          "internalType": "struct IHypePool.Details",
          "name": "details",
          "type": "tuple"
        },
        {
          "components": [
            {
              "internalType": "uint256",
              "name": "network",
              "type": "uint256"
            },
            {
              "internalType": "address",
              "name": "tokenAddress",
              "type": "address"
            },
            {
              "internalType": "uint256",
              "name": "impressionReward",
              "type": "uint256"
            },
            {
              "internalType": "uint256",
              "name": "cap",
              "type": "uint256"
            },
            {
              "internalType": "uint256",
              "name": "startDate",
              "type": "uint256"
            },
            {
              "internalType": "uint256",
              "name": "endDate",
              "type": "uint256"
            },
            {
              "internalType": "uint256",
              "name": "duration",
              "type": "uint256"
            },
            {
              "internalType": "uint256",
              "name": "firstLeaderRewards",
              "type": "uint256"
            },
            {
              "internalType": "uint256",
              "name": "secondLeaderRewards",
              "type": "uint256"
            },
            {
              "internalType": "uint256",
              "name": "thirdLeaderRewards",
              "type": "uint256"
            }
          ],
          "internalType": "struct IHypePool.Rewards",
          "name": "rewards",
          "type": "tuple"
        }
      ],
      "name": "createPool",
      "outputs": [
        {
          "components": [
            {
              "internalType": "bytes32",
              "name": "id",
              "type": "bytes32"
            },
            {
              "internalType": "address",
              "name": "creator",
              "type": "address"
            },
            {
              "internalType": "bool",
              "name": "active",
              "type": "bool"
            },
            {
              "components": [
                {
                  "internalType": "string",
                  "name": "title",
                  "type": "string"
                },
                {
                  "internalType": "string",
                  "name": "projectName",
                  "type": "string"
                },
                {
                  "internalType": "string",
                  "name": "tokenName",
                  "type": "string"
                },
                {
                  "internalType": "string",
                  "name": "word",
                  "type": "string"
                }
              ],
              "internalType": "struct IHypePool.Details",
              "name": "details",
              "type": "tuple"
            },
            {
              "components": [
                {
                  "internalType": "uint256",
                  "name": "network",
                  "type": "uint256"
                },
                {
                  "internalType": "address",
                  "name": "tokenAddress",
                  "type": "address"
                },
                {
                  "internalType": "uint256",
                  "name": "impressionReward",
                  "type": "uint256"
                },
                {
                  "internalType": "uint256",
                  "name": "cap",
                  "type": "uint256"
                },
                {
                  "internalType": "uint256",
                  "name": "startDate",
                  "type": "uint256"
                },
                {
                  "internalType": "uint256",
                  "name": "endDate",
                  "type": "uint256"
                },
                {
                  "internalType": "uint256",
                  "name": "duration",
                  "type": "uint256"
                },
                {
                  "internalType": "uint256",
                  "name": "firstLeaderRewards",
                  "type": "uint256"
                },
                {
                  "internalType": "uint256",
                  "name": "secondLeaderRewards",
                  "type": "uint256"
                },
                {
                  "internalType": "uint256",
                  "name": "thirdLeaderRewards",
                  "type": "uint256"
                }
              ],
              "internalType": "struct IHypePool.Rewards",
              "name": "rewards",
              "type": "tuple"
            }
          ],
          "internalType": "struct IHypePool.HypePool",
          "name": "",
          "type": "tuple"
        }
      ],
      "stateMutability": "nonpayable",
      "type": "function"
    },
    {
      "inputs": [
        {
          "internalType": "bytes32",
          "name": "uuid",
          "type": "bytes32"
        }
      ],
      "name": "deactivatePool",
      "outputs": [],
      "stateMutability": "nonpayable",
      "type": "function"
    },
    {
      "inputs": [],
      "name": "getCurrentIndex",
      "outputs": [
        {
          "internalType": "bytes32",
          "name": "",
          "type": "bytes32"
        }
      ],
      "stateMutability": "view",
      "type": "function"
    },
    {
      "inputs": [
        {
          "internalType": "bytes32",
          "name": "uuid",
          "type": "bytes32"
        }
      ],
      "name": "getPool",
      "outputs": [
        {
          "components": [
            {
              "internalType": "bytes32",
              "name": "id",
              "type": "bytes32"
            },
            {
              "internalType": "address",
              "name": "creator",
              "type": "address"
            },
            {
              "internalType": "bool",
              "name": "active",
              "type": "bool"
            },
            {
              "components": [
                {
                  "internalType": "string",
                  "name": "title",
                  "type": "string"
                },
                {
                  "internalType": "string",
                  "name": "projectName",
                  "type": "string"
                },
                {
                  "internalType": "string",
                  "name": "tokenName",
                  "type": "string"
                },
                {
                  "internalType": "string",
                  "name": "word",
                  "type": "string"
                }
              ],
              "internalType": "struct IHypePool.Details",
              "name": "details",
              "type": "tuple"
            },
            {
              "components": [
                {
                  "internalType": "uint256",
                  "name": "network",
                  "type": "uint256"
                },
                {
                  "internalType": "address",
                  "name": "tokenAddress",
                  "type": "address"
                },
                {
                  "internalType": "uint256",
                  "name": "impressionReward",
                  "type": "uint256"
                },
                {
                  "internalType": "uint256",
                  "name": "cap",
                  "type": "uint256"
                },
                {
                  "internalType": "uint256",
                  "name": "startDate",
                  "type": "uint256"
                },
                {
                  "internalType": "uint256",
                  "name": "endDate",
                  "type": "uint256"
                },
                {
                  "internalType": "uint256",
                  "name": "duration",
                  "type": "uint256"
                },
                {
                  "internalType": "uint256",
                  "name": "firstLeaderRewards",
                  "type": "uint256"
                },
                {
                  "internalType": "uint256",
                  "name": "secondLeaderRewards",
                  "type": "uint256"
                },
                {
                  "internalType": "uint256",
                  "name": "thirdLeaderRewards",
                  "type": "uint256"
                }
              ],
              "internalType": "struct IHypePool.Rewards",
              "name": "rewards",
              "type": "tuple"
            }
          ],
          "internalType": "struct IHypePool.HypePool",
          "name": "",
          "type": "tuple"
        }
      ],
      "stateMutability": "view",
      "type": "function"
    },
    {
      "inputs": [
        {
          "internalType": "bytes32",
          "name": "uuid",
          "type": "bytes32"
        }
      ],
      "name": "getPoolRewards",
      "outputs": [
        {
          "components": [
            {
              "internalType": "uint256",
              "name": "network",
              "type": "uint256"
            },
            {
              "internalType": "address",
              "name": "tokenAddress",
              "type": "address"
            },
            {
              "internalType": "uint256",
              "name": "impressionReward",
              "type": "uint256"
            },
            {
              "internalType": "uint256",
              "name": "cap",
              "type": "uint256"
            },
            {
              "internalType": "uint256",
              "name": "startDate",
              "type": "uint256"
            },
            {
              "internalType": "uint256",
              "name": "endDate",
              "type": "uint256"
            },
            {
              "internalType": "uint256",
              "name": "duration",
              "type": "uint256"
            },
            {
              "internalType": "uint256",
              "name": "firstLeaderRewards",
              "type": "uint256"
            },
            {
              "internalType": "uint256",
              "name": "secondLeaderRewards",
              "type": "uint256"
            },
            {
              "internalType": "uint256",
              "name": "thirdLeaderRewards",
              "type": "uint256"
            }
          ],
          "internalType": "struct IHypePool.Rewards",
          "name": "",
          "type": "tuple"
        }
      ],
      "stateMutability": "view",
      "type": "function"
    },
    {
      "inputs": [
        {
          "internalType": "bytes32",
          "name": "role",
          "type": "bytes32"
        },
        {
          "internalType": "address",
          "name": "account",
          "type": "address"
        }
      ],
      "name": "hasRole",
      "outputs": [
        {
          "internalType": "bool",
          "name": "",
          "type": "bool"
        }
      ],
      "stateMutability": "view",
      "type": "function"
    },
    {
      "inputs": [
        {
          "internalType": "address",
          "name": "escrowContractAddress",
          "type": "address"
        },
        {
          "internalType": "address",
          "name": "activator",
          "type": "address"
        }
      ],
      "name": "initialize",
      "outputs": [],
      "stateMutability": "nonpayable",
      "type": "function"
    },
    {
      "inputs": [
        {
          "internalType": "bytes32",
          "name": "uuid",
          "type": "bytes32"
        }
      ],
      "name": "isActive",
      "outputs": [
        {
          "internalType": "bool",
          "name": "",
          "type": "bool"
        }
      ],
      "stateMutability": "view",
      "type": "function"
    },
    {
      "inputs": [
        {
          "internalType": "bytes32",
          "name": "uuid",
          "type": "bytes32"
        }
      ],
      "name": "isExpired",
      "outputs": [
        {
          "internalType": "bool",
          "name": "",
          "type": "bool"
        }
      ],
      "stateMutability": "view",
      "type": "function"
    },
    {
      "inputs": [
        {
          "internalType": "bytes32",
          "name": "uuid",
          "type": "bytes32"
        }
      ],
      "name": "isGracePeriod",
      "outputs": [
        {
          "internalType": "bool",
          "name": "",
          "type": "bool"
        }
      ],
      "stateMutability": "view",
      "type": "function"
    },
    {
      "inputs": [],
      "name": "owner",
      "outputs": [
        {
          "internalType": "address",
          "name": "",
          "type": "address"
        }
      ],
      "stateMutability": "view",
      "type": "function"
    },
    {
      "inputs": [],
      "name": "pause",
      "outputs": [],
      "stateMutability": "nonpayable",
      "type": "function"
    },
    {
      "inputs": [],
      "name": "paused",
      "outputs": [
        {
          "internalType": "bool",
          "name": "",
          "type": "bool"
        }
      ],
      "stateMutability": "view",
      "type": "function"
    },
    {
      "inputs": [
        {
          "internalType": "bytes32",
          "name": "uuid",
          "type": "bytes32"
        }
      ],
      "name": "poolURI",
      "outputs": [
        {
          "internalType": "string",
          "name": "",
          "type": "string"
        }
      ],
      "stateMutability": "view",
      "type": "function"
    },
    {
      "inputs": [],
      "name": "renounceOwnership",
      "outputs": [],
      "stateMutability": "nonpayable",
      "type": "function"
    },
    {
      "inputs": [
        {
          "internalType": "bytes32",
          "name": "role",
          "type": "bytes32"
        },
        {
          "internalType": "address",
          "name": "account",
          "type": "address"
        }
      ],
      "name": "revokeRole",
      "outputs": [],
      "stateMutability": "nonpayable",
      "type": "function"
    },
    {
      "inputs": [
        {
          "internalType": "address",
          "name": "newOwner",
          "type": "address"
        }
      ],
      "name": "transferOwnership",
      "outputs": [],
      "stateMutability": "nonpayable",
      "type": "function"
    },
    {
      "inputs": [],
      "name": "unpause",
      "outputs": [],
      "stateMutability": "nonpayable",
      "type": "function"
    }
  ],
  "bytecode": "0x60806040523480156200001157600080fd5b506200001c62000022565b620000e4565b600754610100900460ff16156200008f5760405162461bcd60e51b815260206004820152602760248201527f496e697469616c697a61626c653a20636f6e747261637420697320696e697469604482015266616c697a696e6760c81b606482015260840160405180910390fd5b60075460ff9081161015620000e2576007805460ff191660ff9081179091556040519081527f7f26b83ff96e1f2b6a682f133852f6798a09c465da95921460cefb38474024989060200160405180910390a15b565b613a7280620000f46000396000f3fe608060405234801561001057600080fd5b50600436106101775760003560e01c806373dfe0da116100d8578063d547741f1161008c578063f2fde38b11610066578063f2fde38b146102f9578063f6c009271461030c578063f8607fb11461031f57600080fd5b8063d547741f146102c0578063d9d97859146102d3578063e959b38a146102e657600080fd5b80638da5cb5b116100bd5780638da5cb5b1461027f57806391d148541461029a578063bd033bd0146102ad57600080fd5b806373dfe0da146102645780638456cb591461027757600080fd5b80635c36901c1161012f5780636db2feb2116101145780636db2feb214610229578063708132171461023c578063715018a61461025c57600080fd5b80635c36901c146101fb5780635c975abb1461021e57600080fd5b806324bc59721161016057806324bc5972146101be5780633f4ba83a146101de578063485cc955146101e857600080fd5b806308740a3b1461017c5780630d9005ae146101b6575b600080fd5b6101a37fec5aad7bdface20c35bc02d6d2d5760df981277427368525d634f4e2603ea19281565b6040519081526020015b60405180910390f35b6006546101a3565b6101d16101cc3660046132b5565b61033f565b6040516101ad9190613345565b6101e66103b4565b005b6101e66101f6366004613379565b6103c6565b61020e6102093660046132b5565b610500565b60405190151581526020016101ad565b603a5460ff1661020e565b61020e6102373660046132b5565b61086d565b61024f61024a36600461352e565b610bd7565b6040516101ad9190613686565b6101e6610bfa565b6101e66102723660046132b5565b610c0c565b6101e6610c20565b606c546040516001600160a01b0390911681526020016101ad565b61020e6102a8366004613752565b610c30565b61020e6102bb3660046132b5565b610c5b565b6101e66102ce366004613752565b610fe7565b6101e66102e13660046132b5565b6110b9565b6101e66102f4366004613752565b6110d2565b6101e6610307366004613777565b6111a7565b61024f61031a3660046132b5565b611234565b61033261032d3660046132b5565b611569565b6040516101ad9190613794565b61039e6040518061014001604052806000815260200160006001600160a01b0316815260200160008152602001600081526020016000815260200160008152602001600081526020016000815260200160008152602001600081525090565b60006103a983611234565b608001519392505050565b6103bc61160b565b6103c4611665565b565b600754610100900460ff16158080156103e65750600754600160ff909116105b806104005750303b158015610400575060075460ff166001145b6104775760405162461bcd60e51b815260206004820152602e60248201527f496e697469616c697a61626c653a20636f6e747261637420697320616c72656160448201527f647920696e697469616c697a656400000000000000000000000000000000000060648201526084015b60405180910390fd5b6007805460ff19166001179055801561049a576007805461ff0019166101001790555b6104a26116b7565b6104aa61172a565b6104b4838361179d565b80156104fb576007805461ff0019169055604051600181527f7f26b83ff96e1f2b6a682f133852f6798a09c465da95921460cefb3847402498906020015b60405180910390a15b505050565b6000818152600360209081526040808320815160a0810183528154815260018201546001600160a01b03811694820194909452600160a01b90930460ff16151583830152815160808101909252600281018054859493606085019290918290829061056a906137a7565b80601f0160208091040260200160405190810160405280929190818152602001828054610596906137a7565b80156105e35780601f106105b8576101008083540402835291602001916105e3565b820191906000526020600020905b8154815290600101906020018083116105c657829003601f168201915b505050505081526020016001820180546105fc906137a7565b80601f0160208091040260200160405190810160405280929190818152602001828054610628906137a7565b80156106755780601f1061064a57610100808354040283529160200191610675565b820191906000526020600020905b81548152906001019060200180831161065857829003601f168201915b5050505050815260200160028201805461068e906137a7565b80601f01602080910402602001604051908101604052809291908181526020018280546106ba906137a7565b80156107075780601f106106dc57610100808354040283529160200191610707565b820191906000526020600020905b8154815290600101906020018083116106ea57829003601f168201915b50505050508152602001600382018054610720906137a7565b80601f016020809104026020016040519081016040528092919081815260200182805461074c906137a7565b80156107995780601f1061076e57610100808354040283529160200191610799565b820191906000526020600020905b81548152906001019060200180831161077c57829003601f168201915b50505050508152505081526020016006820160405180610140016040529081600082015481526020016001820160009054906101000a90046001600160a01b03166001600160a01b03166001600160a01b0316815260200160028201548152602001600382015481526020016004820154815260200160058201548152602001600682015481526020016007820154815260200160088201548152602001600982015481525050815250509050806080015160a00151600014158015610866575042816080015160a00151115b9392505050565b6000818152600360209081526040808320815160a0810183528154815260018201546001600160a01b03811694820194909452600160a01b90930460ff1615158383015281516080810190925260028101805485949360608501929091829082906108d7906137a7565b80601f0160208091040260200160405190810160405280929190818152602001828054610903906137a7565b80156109505780601f1061092557610100808354040283529160200191610950565b820191906000526020600020905b81548152906001019060200180831161093357829003601f168201915b50505050508152602001600182018054610969906137a7565b80601f0160208091040260200160405190810160405280929190818152602001828054610995906137a7565b80156109e25780601f106109b7576101008083540402835291602001916109e2565b820191906000526020600020905b8154815290600101906020018083116109c557829003601f168201915b505050505081526020016002820180546109fb906137a7565b80601f0160208091040260200160405190810160405280929190818152602001828054610a27906137a7565b8015610a745780601f10610a4957610100808354040283529160200191610a74565b820191906000526020600020905b815481529060010190602001808311610a5757829003601f168201915b50505050508152602001600382018054610a8d906137a7565b80601f0160208091040260200160405190810160405280929190818152602001828054610ab9906137a7565b8015610b065780601f10610adb57610100808354040283529160200191610b06565b820191906000526020600020905b815481529060010190602001808311610ae957829003601f168201915b50505050508152505081526020016006820160405180610140016040529081600082015481526020016001820160009054906101000a90046001600160a01b03166001600160a01b03166001600160a01b0316815260200160028201548152602001600382015481526020016004820154815260200160058201548152602001600682015481526020016007820154815260200160088201548152602001600982015481525050815250509050806080015160a0015160001415801561086657506080015160a00151421192915050565b610bdf6131f3565b610be76118fd565b610bf2848484611950565b949350505050565b610c0261160b565b6103c46000611f21565b610c146118fd565b610c1d81611f73565b50565b610c2861160b565b6103c461273e565b6000828152602081815260408083206001600160a01b038516845290915290205460ff165b92915050565b6000818152600360209081526040808320815160a0810183528154815260018201546001600160a01b03811694820194909452600160a01b90930460ff161515838301528151608081019092526002810180548594936060850192909182908290610cc5906137a7565b80601f0160208091040260200160405190810160405280929190818152602001828054610cf1906137a7565b8015610d3e5780601f10610d1357610100808354040283529160200191610d3e565b820191906000526020600020905b815481529060010190602001808311610d2157829003601f168201915b50505050508152602001600182018054610d57906137a7565b80601f0160208091040260200160405190810160405280929190818152602001828054610d83906137a7565b8015610dd05780601f10610da557610100808354040283529160200191610dd0565b820191906000526020600020905b815481529060010190602001808311610db357829003601f168201915b50505050508152602001600282018054610de9906137a7565b80601f0160208091040260200160405190810160405280929190818152602001828054610e15906137a7565b8015610e625780601f10610e3757610100808354040283529160200191610e62565b820191906000526020600020905b815481529060010190602001808311610e4557829003601f168201915b50505050508152602001600382018054610e7b906137a7565b80601f0160208091040260200160405190810160405280929190818152602001828054610ea7906137a7565b8015610ef45780601f10610ec957610100808354040283529160200191610ef4565b820191906000526020600020905b815481529060010190602001808311610ed757829003601f168201915b50505050508152505081526020016006820160405180610140016040529081600082015481526020016001820160009054906101000a90046001600160a01b03166001600160a01b03166001600160a01b0316815260200160028201548152602001600382015481526020016004820154815260200160058201548152602001600682015481526020016007820154815260200160088201548152602001600982015481525050815250509050806080015160a00151600014158015610fc1575042816080015160a00151105b80156108665750608081015160a00151610fde9062093a806137f7565b42109392505050565b6001600160a01b0381166110635760405162461bcd60e51b815260206004820152603360248201527f416363657373436f6e74726f6c3a2063616e6e6f74207265766f6b6520726f6c60448201527f652066726f6d207a65726f206164647265737300000000000000000000000000606482015260840161046e565b6000828152602081815260408083206001600160a01b0385168085529252808320805460ff1916905551909184917f155aaafb6329a2098580462df33ec4b7441b19729b9601c5fc17ae1cf99a8a529190a35050565b6110c16118fd565b6110c961160b565b610c1d8161277b565b6001600160a01b03811661114e5760405162461bcd60e51b815260206004820152603060248201527f416363657373436f6e74726f6c3a2063616e6e6f74206772616e7420726f6c6560448201527f20746f207a65726f206164647265737300000000000000000000000000000000606482015260840161046e565b6000828152602081815260408083206001600160a01b0385168085529252808320805460ff1916600117905551909184917f2ae6a113c0ed5b78a53413ffbb7679881f11145ccfba4fb92e863dfcd5a1d2f39190a35050565b6111af61160b565b6001600160a01b03811661122b5760405162461bcd60e51b815260206004820152602660248201527f4f776e61626c653a206e6577206f776e657220697320746865207a65726f206160448201527f6464726573730000000000000000000000000000000000000000000000000000606482015260840161046e565b610c1d81611f21565b61123c6131f3565b600082815260036020908152604091829020825160a0810184528154815260018201546001600160a01b03811693820193909352600160a01b90920460ff161515828401528251608081019093526002810180549293919260608501929190829082906112a8906137a7565b80601f01602080910402602001604051908101604052809291908181526020018280546112d4906137a7565b80156113215780601f106112f657610100808354040283529160200191611321565b820191906000526020600020905b81548152906001019060200180831161130457829003601f168201915b5050505050815260200160018201805461133a906137a7565b80601f0160208091040260200160405190810160405280929190818152602001828054611366906137a7565b80156113b35780601f10611388576101008083540402835291602001916113b3565b820191906000526020600020905b81548152906001019060200180831161139657829003601f168201915b505050505081526020016002820180546113cc906137a7565b80601f01602080910402602001604051908101604052809291908181526020018280546113f8906137a7565b80156114455780601f1061141a57610100808354040283529160200191611445565b820191906000526020600020905b81548152906001019060200180831161142857829003601f168201915b5050505050815260200160038201805461145e906137a7565b80601f016020809104026020016040519081016040528092919081815260200182805461148a906137a7565b80156114d75780601f106114ac576101008083540402835291602001916114d7565b820191906000526020600020905b8154815290600101906020018083116114ba57829003601f168201915b50505091909252505050815260408051610140810182526006840154815260078401546001600160a01b031660208281019190915260088501549282019290925260098401546060820152600a8401546080820152600b84015460a0820152600c84015460c0820152600d84015460e0820152600e840154610100820152600f90930154610120840152015292915050565b6000818152600460205260409020805460609190611586906137a7565b80601f01602080910402602001604051908101604052809291908181526020018280546115b2906137a7565b80156115ff5780601f106115d4576101008083540402835291602001916115ff565b820191906000526020600020905b8154815290600101906020018083116115e257829003601f168201915b50505050509050919050565b606c546001600160a01b031633146103c45760405162461bcd60e51b815260206004820181905260248201527f4f776e61626c653a2063616c6c6572206973206e6f7420746865206f776e6572604482015260640161046e565b61166d612cf3565b603a805460ff191690557f5db9ee0a495bf2e6ff9c91a7834c1ba4fdd244a5e8aa4e537bd38aeae4b073aa335b6040516001600160a01b03909116815260200160405180910390a1565b600754610100900460ff166117225760405162461bcd60e51b815260206004820152602b60248201527f496e697469616c697a61626c653a20636f6e7472616374206973206e6f74206960448201526a6e697469616c697a696e6760a81b606482015260840161046e565b6103c4612d45565b600754610100900460ff166117955760405162461bcd60e51b815260206004820152602b60248201527f496e697469616c697a61626c653a20636f6e7472616374206973206e6f74206960448201526a6e697469616c697a696e6760a81b606482015260840161046e565b6103c4612dbc565b6001600160a01b0382166118195760405162461bcd60e51b815260206004820152602e60248201527f457363726f7720636f6e747261637420616464726573732063616e6e6f74206260448201527f65207a65726f2061646472657373000000000000000000000000000000000000606482015260840161046e565b6001600160a01b0381166118955760405162461bcd60e51b815260206004820152602860248201527f416374697661746f7220616464726573732063616e6e6f74206265207a65726f60448201527f2061646472657373000000000000000000000000000000000000000000000000606482015260840161046e565b600280546001600160a01b0319166001600160a01b0384161790556118da7fec5aad7bdface20c35bc02d6d2d5760df981277427368525d634f4e2603ea192826110d2565b600180546001600160a01b0319166001600160a01b039290921691909117905550565b603a5460ff16156103c45760405162461bcd60e51b815260206004820152601060248201527f5061757361626c653a2070617573656400000000000000000000000000000000604482015260640161046e565b6119586131f3565b60008451116119a95760405162461bcd60e51b815260206004820152601460248201527f4d697373696e67206d6574616461746120555249000000000000000000000000604482015260640161046e565b60008260600151116119fd5760405162461bcd60e51b815260206004820152601060248201527f496e76616c696420706f6f6c2063617000000000000000000000000000000000604482015260640161046e565b60008260c0015111611a775760405162461bcd60e51b815260206004820152602160248201527f4475726174696f6e206d757374206265206174206c65617374206f6e6520646160448201527f7900000000000000000000000000000000000000000000000000000000000000606482015260840161046e565b608082015115611ac95760405162461bcd60e51b815260206004820152601760248201527f53746172742064617465206d757374206265207a65726f000000000000000000604482015260640161046e565b60a082015115611b1b5760405162461bcd60e51b815260206004820152601560248201527f456e642064617465206d757374206265207a65726f0000000000000000000000604482015260640161046e565b6000826040015111611b6f5760405162461bcd60e51b815260206004820152601e60248201527f496e76616c696420696d7072657373696f6e2068797065207265776172640000604482015260640161046e565b6000611b79612e30565b60008181526005602052604090205490915060ff1615611bdb5760405162461bcd60e51b815260206004820152601360248201527f5575696420616c72656164792065786973747300000000000000000000000000604482015260640161046e565b611be781868686612ecd565b611bf181866130a3565b600081815260036020908152604091829020825160a0810184528154815260018201546001600160a01b03811693820193909352600160a01b90920460ff16151582840152825160808101909352600281018054929391926060850192919082908290611c5d906137a7565b80601f0160208091040260200160405190810160405280929190818152602001828054611c89906137a7565b8015611cd65780601f10611cab57610100808354040283529160200191611cd6565b820191906000526020600020905b815481529060010190602001808311611cb957829003601f168201915b50505050508152602001600182018054611cef906137a7565b80601f0160208091040260200160405190810160405280929190818152602001828054611d1b906137a7565b8015611d685780601f10611d3d57610100808354040283529160200191611d68565b820191906000526020600020905b815481529060010190602001808311611d4b57829003601f168201915b50505050508152602001600282018054611d81906137a7565b80601f0160208091040260200160405190810160405280929190818152602001828054611dad906137a7565b8015611dfa5780601f10611dcf57610100808354040283529160200191611dfa565b820191906000526020600020905b815481529060010190602001808311611ddd57829003601f168201915b50505050508152602001600382018054611e13906137a7565b80601f0160208091040260200160405190810160405280929190818152602001828054611e3f906137a7565b8015611e8c5780601f10611e6157610100808354040283529160200191611e8c565b820191906000526020600020905b815481529060010190602001808311611e6f57829003601f168201915b50505091909252505050815260408051610140810182526006840154815260078401546001600160a01b031660208083019190915260088501549282019290925260098401546060820152600a8401546080820152600b84015460a0820152600c84015460c0820152600d84015460e0820152600e840154610100820152600f90930154610120840152015295945050505050565b606c80546001600160a01b038381166001600160a01b0319831681179093556040519116919082907f8be0079c531659141344cd1fd0a4f28419497f9722a3daafe3b4186f6b6457e090600090a35050565b6000818152600360209081526040808320815160a0810183528154815260018201546001600160a01b03811694820194909452600160a01b90930460ff161515838301528151608081019092526002810180549192606085019290919082908290611fdd906137a7565b80601f0160208091040260200160405190810160405280929190818152602001828054612009906137a7565b80156120565780601f1061202b57610100808354040283529160200191612056565b820191906000526020600020905b81548152906001019060200180831161203957829003601f168201915b5050505050815260200160018201805461206f906137a7565b80601f016020809104026020016040519081016040528092919081815260200182805461209b906137a7565b80156120e85780601f106120bd576101008083540402835291602001916120e8565b820191906000526020600020905b8154815290600101906020018083116120cb57829003601f168201915b50505050508152602001600282018054612101906137a7565b80601f016020809104026020016040519081016040528092919081815260200182805461212d906137a7565b801561217a5780601f1061214f5761010080835404028352916020019161217a565b820191906000526020600020905b81548152906001019060200180831161215d57829003601f168201915b50505050508152602001600382018054612193906137a7565b80601f01602080910402602001604051908101604052809291908181526020018280546121bf906137a7565b801561220c5780601f106121e15761010080835404028352916020019161220c565b820191906000526020600020905b8154815290600101906020018083116121ef57829003601f168201915b50505091909252505050815260408051610140810182526006840154815260078401546001600160a01b031660208281019190915260088501548284015260098501546060830152600a850154608080840191909152600b86015460a0840152600c86015460c0840152600d86015460e0840152600e860154610100840152600f90950154610120830152909201919091529082015101519091506000036122f65760405162461bcd60e51b815260206004820152601260248201527f506f6f6c20646f65736e27742065786973740000000000000000000000000000604482015260640161046e565b60008281526005602052604090205460ff166123545760405162461bcd60e51b815260206004820152601360248201527f506f6f6c20646f6573206e6f7420657869737400000000000000000000000000604482015260640161046e565b6040810151156123a65760405162461bcd60e51b815260206004820152601660248201527f506f6f6c20697320616c72656164792061637469766500000000000000000000604482015260640161046e565b60006123d27fec5aad7bdface20c35bc02d6d2d5760df981277427368525d634f4e2603ea19233610c30565b905080612581576002546040517f1aa9e742000000000000000000000000000000000000000000000000000000008152336004820152602481018590526001600160a01b03909116906000908290631aa9e74290604401606060405180830381865afa158015612446573d6000803e3d6000fd5b505050506040513d601f19601f8201168201806040525081019061246a919061380a565b6080850151606001518151919250146124eb5760405162461bcd60e51b815260206004820152602860248201527f4465706f736974656420616d6f756e7420646f6573206e6f74206d617463682060448201527f706f6f6c20636170000000000000000000000000000000000000000000000000606482015260840161046e565b8360800151602001516001600160a01b031681602001516001600160a01b03161461257e5760405162461bcd60e51b815260206004820152603960248201527f4465706f736974656420746f6b656e206164647265737320646f6573206e6f7460448201527f206d6174636820706f6f6c20746f6b656e206164647265737300000000000000606482015260840161046e565b50505b60016040830152608080830180514292018290525160c001516125a3916137f7565b608083015160a001526000838152600360209081526040918290208451815590840151600182018054938601511515600160a01b0274ffffffffffffffffffffffffffffffffffffffffff199094166001600160a01b03909216919091179290921790915560608301518051849291906002830190819061262490826138ba565b506020820151600182019061263990826138ba565b506040820151600282019061264e90826138ba565b506060820151600382019061266390826138ba565b505050608091820151805160068301556020808201516007840180546001600160a01b0319166001600160a01b039092169190911790556040808301516008850155606080840151600986015583860151600a86015560a080850151600b87015560c0850151600c87015560e0850151600d870155610100850151600e87015561012090940151600f9095019490945586850151808601519301518151898152339381019390935290820192909252918201527ff1e6981b3d18841dad1ef7f8db1d40663aaa4b8cd2022e5349498c4d406d00df91016104f2565b6127466118fd565b603a805460ff191660011790557f62e78cea01bee320cd4e420270b5ea74000d11b0c9f74754ebdbfc544b05a25861169a3390565b6000818152600360209081526040808320815160a0810183528154815260018201546001600160a01b03811694820194909452600160a01b90930460ff1615158383015281516080810190925260028101805491926060850192909190829082906127e5906137a7565b80601f0160208091040260200160405190810160405280929190818152602001828054612811906137a7565b801561285e5780601f106128335761010080835404028352916020019161285e565b820191906000526020600020905b81548152906001019060200180831161284157829003601f168201915b50505050508152602001600182018054612877906137a7565b80601f01602080910402602001604051908101604052809291908181526020018280546128a3906137a7565b80156128f05780601f106128c5576101008083540402835291602001916128f0565b820191906000526020600020905b8154815290600101906020018083116128d357829003601f168201915b50505050508152602001600282018054612909906137a7565b80601f0160208091040260200160405190810160405280929190818152602001828054612935906137a7565b80156129825780601f1061295757610100808354040283529160200191612982565b820191906000526020600020905b81548152906001019060200180831161296557829003601f168201915b5050505050815260200160038201805461299b906137a7565b80601f01602080910402602001604051908101604052809291908181526020018280546129c7906137a7565b8015612a145780601f106129e957610100808354040283529160200191612a14565b820191906000526020600020905b8154815290600101906020018083116129f757829003601f168201915b50505091909252505050815260408051610140810182526006840154815260078401546001600160a01b031660208281019190915260088501548284015260098501546060830152600a850154608080840191909152600b86015460a0840152600c86015460c0840152600d86015460e0840152600e860154610100840152600f9095015461012083015290920191909152908201510151909150600003612afe5760405162461bcd60e51b815260206004820152601260248201527f506f6f6c20646f65736e27742065786973740000000000000000000000000000604482015260640161046e565b60408101511515600114612b545760405162461bcd60e51b815260206004820152601860248201527f506f6f6c20697320616c726561647920696e6163746976650000000000000000604482015260640161046e565b6000604080830182815260808401514260a0909101528483526003602090815291909220835181559083015160018201805493511515600160a01b0274ffffffffffffffffffffffffffffffffffffffffff199094166001600160a01b039092169190911792909217909155606082015180518392919060028301908190612bdc90826138ba565b5060208201516001820190612bf190826138ba565b5060408201516002820190612c0690826138ba565b5060608201516003820190612c1b90826138ba565b5050506080918201518051600683015560208101516007830180546001600160a01b039092166001600160a01b031990921691909117905560408082015160088401556060820151600984015592810151600a83015560a0810151600b83015560c0810151600c83015560e0810151600d830155610100810151600e8301556101200151600f90910155517f0522afc663a576de692143f1e714306778ade438ea7c739c3a3964bd78eb2cc690612ce790849033909182526001600160a01b0316602082015260400190565b60405180910390a15050565b603a5460ff166103c45760405162461bcd60e51b815260206004820152601460248201527f5061757361626c653a206e6f7420706175736564000000000000000000000000604482015260640161046e565b600754610100900460ff16612db05760405162461bcd60e51b815260206004820152602b60248201527f496e697469616c697a61626c653a20636f6e7472616374206973206e6f74206960448201526a6e697469616c697a696e6760a81b606482015260840161046e565b603a805460ff19169055565b600754610100900460ff16612e275760405162461bcd60e51b815260206004820152602b60248201527f496e697469616c697a61626c653a20636f6e7472616374206973206e6f74206960448201526a6e697469616c697a696e6760a81b606482015260840161046e565b6103c433611f21565b60408051436020820181905242928201839052600060608301819052929091839081906080016040516020818303038152906040528051906020012090505b60008181526005602052604090205460ff1615610bf25781612e908161397a565b6040805160208101889052908101869052606081018290529093506080019050604051602081830303815290604052805190602001209050612e6f565b6040805160a081018252858152336020808301918252600083850181815260608501888152608086018890528a8352600390935294902083518155915160018301805495511515600160a01b0274ffffffffffffffffffffffffffffffffffffffffff199096166001600160a01b039290921691909117949094179093559151805191929160028301908190612f6390826138ba565b5060208201516001820190612f7890826138ba565b5060408201516002820190612f8d90826138ba565b5060608201516003820190612fa290826138ba565b50505060809182015180516006838101919091556020808301516007850180546001600160a01b0319166001600160a01b0390921691909117905560408084015160088601556060840151600986015594830151600a85015560a0830151600b85015560c0830151600c85015560e0830151600d850155610100830151600e85015561012090920151600f9093019290925560008781526005909152829020805460ff19166001179055859055517f3a21eb0a9afc1353da741f39aaea48014c074c6720b61baf41e1e18d6ae7b2fb9061308190869033908790613993565b60405180910390a161309384836130ed565b61309d8482613134565b50505050565b60008281526004602052604090206130bb82826138ba565b507fa9397f16db6e1e1b43c1c813233f16139006d56a3d1a24412ebdfb0661b5bfff8282604051612ce79291906139c4565b7f764b3686bd9a8c04d487da87edb364f64d505149c22a8b2664d353539ecf6a33828260000151836020015184604001518560600151604051612ce79594939291906139dd565b7fbd9958b57e49a74ca231cded8239733651bec95f7d338b5bce7fe13a207a8c4b82826000015183602001518460400151856060015186608001518760a001518860c001518960e001518a61010001518b6101200151604051612ce79b9a999897969594939291909a8b5260208b01999099526001600160a01b039790971660408a01526060890195909552608088019390935260a087019190915260c086015260e08501526101008401526101208301526101408201526101600190565b6040518060a001604052806000801916815260200160006001600160a01b0316815260200160001515815260200161324c6040518060800160405280606081526020016060815260200160608152602001606081525090565b81526020016132b06040518061014001604052806000815260200160006001600160a01b0316815260200160008152602001600081526020016000815260200160008152602001600081526020016000815260200160008152602001600081525090565b905290565b6000602082840312156132c757600080fd5b5035919050565b8051825260208101516132ec60208401826001600160a01b03169052565b5060408101516040830152606081015160608301526080810151608083015260a081015160a083015260c081015160c083015260e081015160e08301526101008082015181840152506101208082015181840152505050565b6101408101610c5582846132ce565b6001600160a01b0381168114610c1d57600080fd5b803561337481613354565b919050565b6000806040838503121561338c57600080fd5b823561339781613354565b915060208301356133a781613354565b809150509250929050565b634e487b7160e01b600052604160045260246000fd5b604051610140810167ffffffffffffffff811182821017156133ec576133ec6133b2565b60405290565b6040516080810167ffffffffffffffff811182821017156133ec576133ec6133b2565b600082601f83011261342657600080fd5b813567ffffffffffffffff80821115613441576134416133b2565b604051601f8301601f19908116603f01168101908282118183101715613469576134696133b2565b8160405283815286602085880101111561348257600080fd5b836020870160208301376000602085830101528094505050505092915050565b600061014082840312156134b557600080fd5b6134bd6133c8565b9050813581526134cf60208301613369565b602082015260408201356040820152606082013560608201526080820135608082015260a082013560a082015260c082013560c082015260e082013560e082015261010080830135818301525061012080830135818301525092915050565b6000806000610180848603121561354457600080fd5b833567ffffffffffffffff8082111561355c57600080fd5b61356887838801613415565b9450602086013591508082111561357e57600080fd5b908501906080828803121561359257600080fd5b61359a6133f2565b8235828111156135a957600080fd5b6135b589828601613415565b8252506020830135828111156135ca57600080fd5b6135d689828601613415565b6020830152506040830135828111156135ee57600080fd5b6135fa89828601613415565b60408301525060608301358281111561361257600080fd5b61361e89828601613415565b60608301525080945050505061363785604086016134a2565b90509250925092565b6000815180845260005b818110156136665760208185018101518683018201520161364a565b506000602082860101526020601f19601f83011685010191505092915050565b60208152815160208201526001600160a01b036020830151166040820152604082015115156060820152600060608301516101c06080840152805160806101e08501526136d7610260850182613640565b905060208201516101df1980868403016102008701526136f78383613640565b92506040840151915080868403016102208701526137158383613640565b925060608401519350808684030161024087015250506137358183613640565b915050608084015161374a60a08501826132ce565b509392505050565b6000806040838503121561376557600080fd5b8235915060208301356133a781613354565b60006020828403121561378957600080fd5b813561086681613354565b6020815260006108666020830184613640565b600181811c908216806137bb57607f821691505b6020821081036137db57634e487b7160e01b600052602260045260246000fd5b50919050565b634e487b7160e01b600052601160045260246000fd5b80820180821115610c5557610c556137e1565b60006060828403121561381c57600080fd5b6040516060810181811067ffffffffffffffff8211171561383f5761383f6133b2565b60405282518152602083015161385481613354565b60208201526040928301519281019290925250919050565b601f8211156104fb57600081815260208120601f850160051c810160208610156138935750805b601f850160051c820191505b818110156138b25782815560010161389f565b505050505050565b815167ffffffffffffffff8111156138d4576138d46133b2565b6138e8816138e284546137a7565b8461386c565b602080601f83116001811461391d57600084156139055750858301515b600019600386901b1c1916600185901b1785556138b2565b600085815260208120601f198616915b8281101561394c5788860151825594840194600190910190840161392d565b508582101561396a5787850151600019600388901b60f8161c191681555b5050505050600190811b01905550565b60006001820161398c5761398c6137e1565b5060010190565b8381526001600160a01b03831660208201526060604082015260006139bb6060830184613640565b95945050505050565b828152604060208201526000610bf26040830184613640565b85815260a0602082015260006139f660a0830187613640565b8281036040840152613a088187613640565b90508281036060840152613a1c8186613640565b90508281036080840152613a308185613640565b9897505050505050505056fea2646970667358221220c791ee128bc10d880c650c41710255e5a87535433c4f7189f12ee896bbe1d8a364736f6c63430008120033",
  "linkReferences": {},
  "deployedLinkReferences": {}
}