{
  "_format": "hh-sol-artifact-1",
  "contractName": "HypePoolUpgradeable",
  "sourceName": "contracts/upgradeable/HypePoolUpgradeable.sol",
  "abi": [
    {
      "inputs": [],
      "stateMutability": "nonpayable",
      "type": "constructor"
    },
    {
      "anonymous": false,
      "inputs": [
        {
          "indexed": false,
          "internalType": "uint8",
          "name": "version",
          "type": "uint8"
        }
      ],
      "name": "Initialized",
      "type": "event"
    },
    {
      "anonymous": false,
      "inputs": [
        {
          "indexed": true,
          "internalType": "address",
          "name": "previousOwner",
          "type": "address"
        },
        {
          "indexed": true,
          "internalType": "address",
          "name": "newOwner",
          "type": "address"
        }
      ],
      "name": "OwnershipTransferred",
      "type": "event"
    },
    {
      "anonymous": false,
      "inputs": [
        {
          "indexed": false,
          "internalType": "address",
          "name": "account",
          "type": "address"
        }
      ],
      "name": "Paused",
      "type": "event"
    },
    {
      "anonymous": false,
      "inputs": [
        {
          "indexed": false,
          "internalType": "bytes32",
          "name": "poolId",
          "type": "bytes32"
        },
        {
          "indexed": false,
          "internalType": "address",
          "name": "activator",
          "type": "address"
        },
        {
          "indexed": false,
          "internalType": "uint256",
          "name": "startDate",
          "type": "uint256"
        },
        {
          "indexed": false,
          "internalType": "uint256",
          "name": "endDate",
          "type": "uint256"
        }
      ],
      "name": "PoolActivated",
      "type": "event"
    },
    {
      "anonymous": false,
      "inputs": [
        {
          "indexed": false,
          "internalType": "bytes32",
          "name": "poolId",
          "type": "bytes32"
        },
        {
          "indexed": false,
          "internalType": "address",
          "name": "creator",
          "type": "address"
        },
        {
          "indexed": false,
          "internalType": "string",
          "name": "uri",
          "type": "string"
        }
      ],
      "name": "PoolCreated",
      "type": "event"
    },
    {
      "anonymous": false,
      "inputs": [
        {
          "indexed": false,
          "internalType": "bytes32",
          "name": "poolId",
          "type": "bytes32"
        },
        {
          "indexed": false,
          "internalType": "address",
          "name": "deactivator",
          "type": "address"
        }
      ],
      "name": "PoolDeactivated",
      "type": "event"
    },
    {
      "anonymous": false,
      "inputs": [
        {
          "indexed": false,
          "internalType": "bytes32",
          "name": "poolId",
          "type": "bytes32"
        },
        {
          "indexed": false,
          "internalType": "string",
          "name": "title",
          "type": "string"
        },
        {
          "indexed": false,
          "internalType": "string",
          "name": "projectName",
          "type": "string"
        },
        {
          "indexed": false,
          "internalType": "string",
          "name": "tokenName",
          "type": "string"
        },
        {
          "indexed": false,
          "internalType": "string",
          "name": "word",
          "type": "string"
        }
      ],
      "name": "PoolDetailsCreated",
      "type": "event"
    },
    {
      "anonymous": false,
      "inputs": [
        {
          "indexed": false,
          "internalType": "bytes32",
          "name": "poolId",
          "type": "bytes32"
        },
        {
          "indexed": false,
          "internalType": "uint256",
          "name": "network",
          "type": "uint256"
        },
        {
          "indexed": false,
          "internalType": "address",
          "name": "tokenAddress",
          "type": "address"
        },
        {
          "indexed": false,
          "internalType": "uint256",
          "name": "impressionReward",
          "type": "uint256"
        },
        {
          "indexed": false,
          "internalType": "uint256",
          "name": "cap",
          "type": "uint256"
        },
        {
          "indexed": false,
          "internalType": "uint256",
          "name": "startDate",
          "type": "uint256"
        },
        {
          "indexed": false,
          "internalType": "uint256",
          "name": "endDate",
          "type": "uint256"
        },
        {
          "indexed": false,
          "internalType": "uint256",
          "name": "duration",
          "type": "uint256"
        },
        {
          "indexed": false,
          "internalType": "uint256",
          "name": "firstLeaderRewards",
          "type": "uint256"
        },
        {
          "indexed": false,
          "internalType": "uint256",
          "name": "secondLeaderRewards",
          "type": "uint256"
        },
        {
          "indexed": false,
          "internalType": "uint256",
          "name": "thirdLeaderRewards",
          "type": "uint256"
        }
      ],
      "name": "PoolRewardsCreated",
      "type": "event"
    },
    {
      "anonymous": false,
      "inputs": [
        {
          "indexed": false,
          "internalType": "bytes32",
          "name": "poolId",
          "type": "bytes32"
        },
        {
          "indexed": false,
          "internalType": "string",
          "name": "uri",
          "type": "string"
        }
      ],
      "name": "PoolUriSet",
      "type": "event"
    },
    {
      "anonymous": false,
      "inputs": [
        {
          "indexed": true,
          "internalType": "bytes32",
          "name": "role",
          "type": "bytes32"
        },
        {
          "indexed": true,
          "internalType": "address",
          "name": "account",
          "type": "address"
        }
      ],
      "name": "RoleGranted",
      "type": "event"
    },
    {
      "anonymous": false,
      "inputs": [
        {
          "indexed": true,
          "internalType": "bytes32",
          "name": "role",
          "type": "bytes32"
        },
        {
          "indexed": true,
          "internalType": "address",
          "name": "account",
          "type": "address"
        }
      ],
      "name": "RoleRevoked",
      "type": "event"
    },
    {
      "anonymous": false,
      "inputs": [
        {
          "indexed": false,
          "internalType": "address",
          "name": "account",
          "type": "address"
        }
      ],
      "name": "Unpaused",
      "type": "event"
    },
    {
      "inputs": [],
      "name": "ACTIVATOR_ROLE",
      "outputs": [
        {
          "internalType": "bytes32",
          "name": "",
          "type": "bytes32"
        }
      ],
      "stateMutability": "view",
      "type": "function"
    },
    {
      "inputs": [
        {
          "internalType": "bytes32",
          "name": "uuid",
          "type": "bytes32"
        }
      ],
      "name": "activatePool",
      "outputs": [],
      "stateMutability": "nonpayable",
      "type": "function"
    },
    {
      "inputs": [
        {
          "internalType": "bytes32",
          "name": "role",
          "type": "bytes32"
        },
        {
          "internalType": "address",
          "name": "account",
          "type": "address"
        }
      ],
      "name": "addRole",
      "outputs": [],
      "stateMutability": "nonpayable",
      "type": "function"
    },
    {
      "inputs": [
        {
          "internalType": "string",
          "name": "uri",
          "type": "string"
        },
        {
          "components": [
            {
              "internalType": "string",
              "name": "title",
              "type": "string"
            },
            {
              "internalType": "string",
              "name": "projectName",
              "type": "string"
            },
            {
              "internalType": "string",
              "name": "tokenName",
              "type": "string"
            },
            {
              "internalType": "string",
              "name": "word",
              "type": "string"
            }
          ],
          "internalType": "struct IHypePool.Details",
          "name": "details",
          "type": "tuple"
        },
        {
          "components": [
            {
              "internalType": "uint256",
              "name": "network",
              "type": "uint256"
            },
            {
              "internalType": "address",
              "name": "tokenAddress",
              "type": "address"
            },
            {
              "internalType": "uint256",
              "name": "impressionReward",
              "type": "uint256"
            },
            {
              "internalType": "uint256",
              "name": "cap",
              "type": "uint256"
            },
            {
              "internalType": "uint256",
              "name": "startDate",
              "type": "uint256"
            },
            {
              "internalType": "uint256",
              "name": "endDate",
              "type": "uint256"
            },
            {
              "internalType": "uint256",
              "name": "duration",
              "type": "uint256"
            },
            {
              "internalType": "uint256",
              "name": "firstLeaderRewards",
              "type": "uint256"
            },
            {
              "internalType": "uint256",
              "name": "secondLeaderRewards",
              "type": "uint256"
            },
            {
              "internalType": "uint256",
              "name": "thirdLeaderRewards",
              "type": "uint256"
            }
          ],
          "internalType": "struct IHypePool.Rewards",
          "name": "rewards",
          "type": "tuple"
        }
      ],
      "name": "createPool",
      "outputs": [
        {
          "components": [
            {
              "internalType": "bytes32",
              "name": "id",
              "type": "bytes32"
            },
            {
              "internalType": "address",
              "name": "creator",
              "type": "address"
            },
            {
              "components": [
                {
                  "internalType": "string",
                  "name": "title",
                  "type": "string"
                },
                {
                  "internalType": "string",
                  "name": "projectName",
                  "type": "string"
                },
                {
                  "internalType": "string",
                  "name": "tokenName",
                  "type": "string"
                },
                {
                  "internalType": "string",
                  "name": "word",
                  "type": "string"
                }
              ],
              "internalType": "struct IHypePool.Details",
              "name": "details",
              "type": "tuple"
            },
            {
              "components": [
                {
                  "internalType": "uint256",
                  "name": "network",
                  "type": "uint256"
                },
                {
                  "internalType": "address",
                  "name": "tokenAddress",
                  "type": "address"
                },
                {
                  "internalType": "uint256",
                  "name": "impressionReward",
                  "type": "uint256"
                },
                {
                  "internalType": "uint256",
                  "name": "cap",
                  "type": "uint256"
                },
                {
                  "internalType": "uint256",
                  "name": "startDate",
                  "type": "uint256"
                },
                {
                  "internalType": "uint256",
                  "name": "endDate",
                  "type": "uint256"
                },
                {
                  "internalType": "uint256",
                  "name": "duration",
                  "type": "uint256"
                },
                {
                  "internalType": "uint256",
                  "name": "firstLeaderRewards",
                  "type": "uint256"
                },
                {
                  "internalType": "uint256",
                  "name": "secondLeaderRewards",
                  "type": "uint256"
                },
                {
                  "internalType": "uint256",
                  "name": "thirdLeaderRewards",
                  "type": "uint256"
                }
              ],
              "internalType": "struct IHypePool.Rewards",
              "name": "rewards",
              "type": "tuple"
            }
          ],
          "internalType": "struct IHypePool.HypePool",
          "name": "",
          "type": "tuple"
        }
      ],
      "stateMutability": "nonpayable",
      "type": "function"
    },
    {
      "inputs": [
        {
          "internalType": "bytes32",
          "name": "uuid",
          "type": "bytes32"
        }
      ],
      "name": "deactivatePool",
      "outputs": [],
      "stateMutability": "nonpayable",
      "type": "function"
    },
    {
      "inputs": [],
      "name": "getCurrentIndex",
      "outputs": [
        {
          "internalType": "bytes32",
          "name": "",
          "type": "bytes32"
        }
      ],
      "stateMutability": "view",
      "type": "function"
    },
    {
      "inputs": [
        {
          "internalType": "bytes32",
          "name": "uuid",
          "type": "bytes32"
        }
      ],
      "name": "getPool",
      "outputs": [
        {
          "components": [
            {
              "internalType": "bytes32",
              "name": "id",
              "type": "bytes32"
            },
            {
              "internalType": "address",
              "name": "creator",
              "type": "address"
            },
            {
              "components": [
                {
                  "internalType": "string",
                  "name": "title",
                  "type": "string"
                },
                {
                  "internalType": "string",
                  "name": "projectName",
                  "type": "string"
                },
                {
                  "internalType": "string",
                  "name": "tokenName",
                  "type": "string"
                },
                {
                  "internalType": "string",
                  "name": "word",
                  "type": "string"
                }
              ],
              "internalType": "struct IHypePool.Details",
              "name": "details",
              "type": "tuple"
            },
            {
              "components": [
                {
                  "internalType": "uint256",
                  "name": "network",
                  "type": "uint256"
                },
                {
                  "internalType": "address",
                  "name": "tokenAddress",
                  "type": "address"
                },
                {
                  "internalType": "uint256",
                  "name": "impressionReward",
                  "type": "uint256"
                },
                {
                  "internalType": "uint256",
                  "name": "cap",
                  "type": "uint256"
                },
                {
                  "internalType": "uint256",
                  "name": "startDate",
                  "type": "uint256"
                },
                {
                  "internalType": "uint256",
                  "name": "endDate",
                  "type": "uint256"
                },
                {
                  "internalType": "uint256",
                  "name": "duration",
                  "type": "uint256"
                },
                {
                  "internalType": "uint256",
                  "name": "firstLeaderRewards",
                  "type": "uint256"
                },
                {
                  "internalType": "uint256",
                  "name": "secondLeaderRewards",
                  "type": "uint256"
                },
                {
                  "internalType": "uint256",
                  "name": "thirdLeaderRewards",
                  "type": "uint256"
                }
              ],
              "internalType": "struct IHypePool.Rewards",
              "name": "rewards",
              "type": "tuple"
            }
          ],
          "internalType": "struct IHypePool.HypePool",
          "name": "",
          "type": "tuple"
        }
      ],
      "stateMutability": "view",
      "type": "function"
    },
    {
      "inputs": [
        {
          "internalType": "bytes32",
          "name": "uuid",
          "type": "bytes32"
        }
      ],
      "name": "getPoolRewards",
      "outputs": [
        {
          "components": [
            {
              "internalType": "uint256",
              "name": "network",
              "type": "uint256"
            },
            {
              "internalType": "address",
              "name": "tokenAddress",
              "type": "address"
            },
            {
              "internalType": "uint256",
              "name": "impressionReward",
              "type": "uint256"
            },
            {
              "internalType": "uint256",
              "name": "cap",
              "type": "uint256"
            },
            {
              "internalType": "uint256",
              "name": "startDate",
              "type": "uint256"
            },
            {
              "internalType": "uint256",
              "name": "endDate",
              "type": "uint256"
            },
            {
              "internalType": "uint256",
              "name": "duration",
              "type": "uint256"
            },
            {
              "internalType": "uint256",
              "name": "firstLeaderRewards",
              "type": "uint256"
            },
            {
              "internalType": "uint256",
              "name": "secondLeaderRewards",
              "type": "uint256"
            },
            {
              "internalType": "uint256",
              "name": "thirdLeaderRewards",
              "type": "uint256"
            }
          ],
          "internalType": "struct IHypePool.Rewards",
          "name": "",
          "type": "tuple"
        }
      ],
      "stateMutability": "view",
      "type": "function"
    },
    {
      "inputs": [
        {
          "internalType": "bytes32",
          "name": "role",
          "type": "bytes32"
        },
        {
          "internalType": "address",
          "name": "account",
          "type": "address"
        }
      ],
      "name": "hasRole",
      "outputs": [
        {
          "internalType": "bool",
          "name": "",
          "type": "bool"
        }
      ],
      "stateMutability": "view",
      "type": "function"
    },
    {
      "inputs": [
        {
          "internalType": "address",
          "name": "escrowContractAddress",
          "type": "address"
        },
        {
          "internalType": "address",
          "name": "activator",
          "type": "address"
        }
      ],
      "name": "initialize",
      "outputs": [],
      "stateMutability": "nonpayable",
      "type": "function"
    },
    {
      "inputs": [
        {
          "internalType": "bytes32",
          "name": "uuid",
          "type": "bytes32"
        }
      ],
      "name": "isActive",
      "outputs": [
        {
          "internalType": "bool",
          "name": "",
          "type": "bool"
        }
      ],
      "stateMutability": "view",
      "type": "function"
    },
    {
      "inputs": [
        {
          "internalType": "bytes32",
          "name": "uuid",
          "type": "bytes32"
        }
      ],
      "name": "isExpired",
      "outputs": [
        {
          "internalType": "bool",
          "name": "",
          "type": "bool"
        }
      ],
      "stateMutability": "view",
      "type": "function"
    },
    {
      "inputs": [
        {
          "internalType": "bytes32",
          "name": "uuid",
          "type": "bytes32"
        }
      ],
      "name": "isGracePeriod",
      "outputs": [
        {
          "internalType": "bool",
          "name": "",
          "type": "bool"
        }
      ],
      "stateMutability": "view",
      "type": "function"
    },
    {
      "inputs": [],
      "name": "owner",
      "outputs": [
        {
          "internalType": "address",
          "name": "",
          "type": "address"
        }
      ],
      "stateMutability": "view",
      "type": "function"
    },
    {
      "inputs": [],
      "name": "pause",
      "outputs": [],
      "stateMutability": "nonpayable",
      "type": "function"
    },
    {
      "inputs": [],
      "name": "paused",
      "outputs": [
        {
          "internalType": "bool",
          "name": "",
          "type": "bool"
        }
      ],
      "stateMutability": "view",
      "type": "function"
    },
    {
      "inputs": [
        {
          "internalType": "bytes32",
          "name": "uuid",
          "type": "bytes32"
        }
      ],
      "name": "poolURI",
      "outputs": [
        {
          "internalType": "string",
          "name": "",
          "type": "string"
        }
      ],
      "stateMutability": "view",
      "type": "function"
    },
    {
      "inputs": [],
      "name": "renounceOwnership",
      "outputs": [],
      "stateMutability": "nonpayable",
      "type": "function"
    },
    {
      "inputs": [
        {
          "internalType": "bytes32",
          "name": "role",
          "type": "bytes32"
        },
        {
          "internalType": "address",
          "name": "account",
          "type": "address"
        }
      ],
      "name": "revokeRole",
      "outputs": [],
      "stateMutability": "nonpayable",
      "type": "function"
    },
    {
      "inputs": [
        {
          "internalType": "address",
          "name": "newOwner",
          "type": "address"
        }
      ],
      "name": "transferOwnership",
      "outputs": [],
      "stateMutability": "nonpayable",
      "type": "function"
    },
    {
      "inputs": [],
      "name": "unpause",
      "outputs": [],
      "stateMutability": "nonpayable",
      "type": "function"
    }
  ],
  "bytecode": "0x60806040523480156200001157600080fd5b506200001c62000022565b620000e4565b600754610100900460ff16156200008f5760405162461bcd60e51b815260206004820152602760248201527f496e697469616c697a61626c653a20636f6e747261637420697320696e697469604482015266616c697a696e6760c81b606482015260840160405180910390fd5b60075460ff9081161015620000e2576007805460ff191660ff9081179091556040519081527f7f26b83ff96e1f2b6a682f133852f6798a09c465da95921460cefb38474024989060200160405180910390a15b565b61396180620000f46000396000f3fe608060405234801561001057600080fd5b50600436106101775760003560e01c806373dfe0da116100d8578063d547741f1161008c578063f2fde38b11610066578063f2fde38b146102f9578063f6c009271461030c578063f8607fb11461031f57600080fd5b8063d547741f146102c0578063d9d97859146102d3578063e959b38a146102e657600080fd5b80638da5cb5b116100bd5780638da5cb5b1461027f57806391d148541461029a578063bd033bd0146102ad57600080fd5b806373dfe0da146102645780638456cb591461027757600080fd5b80635c36901c1161012f5780636db2feb2116101145780636db2feb214610229578063708132171461023c578063715018a61461025c57600080fd5b80635c36901c146101fb5780635c975abb1461021e57600080fd5b806324bc59721161016057806324bc5972146101be5780633f4ba83a146101de578063485cc955146101e857600080fd5b806308740a3b1461017c5780630d9005ae146101b6575b600080fd5b6101a37fec5aad7bdface20c35bc02d6d2d5760df981277427368525d634f4e2603ea19281565b6040519081526020015b60405180910390f35b6006546101a3565b6101d16101cc3660046131b0565b61033f565b6040516101ad9190613240565b6101e66103b4565b005b6101e66101f6366004613274565b6103c6565b61020e6102093660046131b0565b610500565b60405190151581526020016101ad565b603a5460ff1661020e565b61020e6102373660046131b0565b610859565b61024f61024a366004613429565b610baf565b6040516101ad9190613581565b6101e6610bd2565b6101e66102723660046131b0565b610be4565b6101e6610bf8565b606c546040516001600160a01b0390911681526020016101ad565b61020e6102a8366004613641565b610c08565b61020e6102bb3660046131b0565b610c33565b6101e66102ce366004613641565b610fab565b6101e66102e13660046131b0565b61107d565b6101e66102f4366004613641565b611096565b6101e6610307366004613666565b61116b565b61024f61031a3660046131b0565b6111f8565b61033261032d3660046131b0565b611518565b6040516101ad9190613683565b61039e6040518061014001604052806000815260200160006001600160a01b0316815260200160008152602001600081526020016000815260200160008152602001600081526020016000815260200160008152602001600081525090565b60006103a9836111f8565b606001519392505050565b6103bc6115ba565b6103c4611614565b565b600754610100900460ff16158080156103e65750600754600160ff909116105b806104005750303b158015610400575060075460ff166001145b6104775760405162461bcd60e51b815260206004820152602e60248201527f496e697469616c697a61626c653a20636f6e747261637420697320616c72656160448201527f647920696e697469616c697a656400000000000000000000000000000000000060648201526084015b60405180910390fd5b6007805460ff19166001179055801561049a576007805461ff0019166101001790555b6104a2611666565b6104aa6116d9565b6104b4838361174c565b80156104fb576007805461ff0019169055604051600181527f7f26b83ff96e1f2b6a682f133852f6798a09c465da95921460cefb3847402498906020015b60405180910390a15b505050565b60008181526003602090815260408083208151608080820184528254825260018301546001600160a01b031694820194909452825193840183526002820180548695929485019291908290829061055690613696565b80601f016020809104026020016040519081016040528092919081815260200182805461058290613696565b80156105cf5780601f106105a4576101008083540402835291602001916105cf565b820191906000526020600020905b8154815290600101906020018083116105b257829003601f168201915b505050505081526020016001820180546105e890613696565b80601f016020809104026020016040519081016040528092919081815260200182805461061490613696565b80156106615780601f1061063657610100808354040283529160200191610661565b820191906000526020600020905b81548152906001019060200180831161064457829003601f168201915b5050505050815260200160028201805461067a90613696565b80601f01602080910402602001604051908101604052809291908181526020018280546106a690613696565b80156106f35780601f106106c8576101008083540402835291602001916106f3565b820191906000526020600020905b8154815290600101906020018083116106d657829003601f168201915b5050505050815260200160038201805461070c90613696565b80601f016020809104026020016040519081016040528092919081815260200182805461073890613696565b80156107855780601f1061075a57610100808354040283529160200191610785565b820191906000526020600020905b81548152906001019060200180831161076857829003601f168201915b50505050508152505081526020016006820160405180610140016040529081600082015481526020016001820160009054906101000a90046001600160a01b03166001600160a01b03166001600160a01b0316815260200160028201548152602001600382015481526020016004820154815260200160058201548152602001600682015481526020016007820154815260200160088201548152602001600982015481525050815250509050806060015160a00151600014158015610852575042816060015160a00151115b9392505050565b60008181526003602090815260408083208151608080820184528254825260018301546001600160a01b03169482019490945282519384018352600282018054869592948501929190829082906108af90613696565b80601f01602080910402602001604051908101604052809291908181526020018280546108db90613696565b80156109285780601f106108fd57610100808354040283529160200191610928565b820191906000526020600020905b81548152906001019060200180831161090b57829003601f168201915b5050505050815260200160018201805461094190613696565b80601f016020809104026020016040519081016040528092919081815260200182805461096d90613696565b80156109ba5780601f1061098f576101008083540402835291602001916109ba565b820191906000526020600020905b81548152906001019060200180831161099d57829003601f168201915b505050505081526020016002820180546109d390613696565b80601f01602080910402602001604051908101604052809291908181526020018280546109ff90613696565b8015610a4c5780601f10610a2157610100808354040283529160200191610a4c565b820191906000526020600020905b815481529060010190602001808311610a2f57829003601f168201915b50505050508152602001600382018054610a6590613696565b80601f0160208091040260200160405190810160405280929190818152602001828054610a9190613696565b8015610ade5780601f10610ab357610100808354040283529160200191610ade565b820191906000526020600020905b815481529060010190602001808311610ac157829003601f168201915b50505050508152505081526020016006820160405180610140016040529081600082015481526020016001820160009054906101000a90046001600160a01b03166001600160a01b03166001600160a01b0316815260200160028201548152602001600382015481526020016004820154815260200160058201548152602001600682015481526020016007820154815260200160088201548152602001600982015481525050815250509050806060015160a0015160001415801561085257506060015160a00151421192915050565b610bb76130f7565b610bbf6118ac565b610bca8484846118ff565b949350505050565b610bda6115ba565b6103c46000611ebb565b610bec6118ac565b610bf581611f0d565b50565b610c006115ba565b6103c46126a0565b6000828152602081815260408083206001600160a01b038516845290915290205460ff165b92915050565b60008181526003602090815260408083208151608080820184528254825260018301546001600160a01b0316948201949094528251938401835260028201805486959294850192919082908290610c8990613696565b80601f0160208091040260200160405190810160405280929190818152602001828054610cb590613696565b8015610d025780601f10610cd757610100808354040283529160200191610d02565b820191906000526020600020905b815481529060010190602001808311610ce557829003601f168201915b50505050508152602001600182018054610d1b90613696565b80601f0160208091040260200160405190810160405280929190818152602001828054610d4790613696565b8015610d945780601f10610d6957610100808354040283529160200191610d94565b820191906000526020600020905b815481529060010190602001808311610d7757829003601f168201915b50505050508152602001600282018054610dad90613696565b80601f0160208091040260200160405190810160405280929190818152602001828054610dd990613696565b8015610e265780601f10610dfb57610100808354040283529160200191610e26565b820191906000526020600020905b815481529060010190602001808311610e0957829003601f168201915b50505050508152602001600382018054610e3f90613696565b80601f0160208091040260200160405190810160405280929190818152602001828054610e6b90613696565b8015610eb85780601f10610e8d57610100808354040283529160200191610eb8565b820191906000526020600020905b815481529060010190602001808311610e9b57829003601f168201915b50505050508152505081526020016006820160405180610140016040529081600082015481526020016001820160009054906101000a90046001600160a01b03166001600160a01b03166001600160a01b0316815260200160028201548152602001600382015481526020016004820154815260200160058201548152602001600682015481526020016007820154815260200160088201548152602001600982015481525050815250509050806060015160a00151600014158015610f85575042816060015160a00151105b80156108525750606081015160a00151610fa29062093a806136e6565b42109392505050565b6001600160a01b0381166110275760405162461bcd60e51b815260206004820152603360248201527f416363657373436f6e74726f6c3a2063616e6e6f74207265766f6b6520726f6c60448201527f652066726f6d207a65726f206164647265737300000000000000000000000000606482015260840161046e565b6000828152602081815260408083206001600160a01b0385168085529252808320805460ff1916905551909184917f155aaafb6329a2098580462df33ec4b7441b19729b9601c5fc17ae1cf99a8a529190a35050565b6110856118ac565b61108d6115ba565b610bf5816126dd565b6001600160a01b0381166111125760405162461bcd60e51b815260206004820152603060248201527f416363657373436f6e74726f6c3a2063616e6e6f74206772616e7420726f6c6560448201527f20746f207a65726f206164647265737300000000000000000000000000000000606482015260840161046e565b6000828152602081815260408083206001600160a01b0385168085529252808320805460ff1916600117905551909184917f2ae6a113c0ed5b78a53413ffbb7679881f11145ccfba4fb92e863dfcd5a1d2f39190a35050565b6111736115ba565b6001600160a01b0381166111ef5760405162461bcd60e51b815260206004820152602660248201527f4f776e61626c653a206e6577206f776e657220697320746865207a65726f206160448201527f6464726573730000000000000000000000000000000000000000000000000000606482015260840161046e565b610bf581611ebb565b6112006130f7565b6000828152600360209081526040918290208251608080820185528254825260018301546001600160a01b031693820193909352835192830184526002820180549194929392850192918290829061125790613696565b80601f016020809104026020016040519081016040528092919081815260200182805461128390613696565b80156112d05780601f106112a5576101008083540402835291602001916112d0565b820191906000526020600020905b8154815290600101906020018083116112b357829003601f168201915b505050505081526020016001820180546112e990613696565b80601f016020809104026020016040519081016040528092919081815260200182805461131590613696565b80156113625780601f1061133757610100808354040283529160200191611362565b820191906000526020600020905b81548152906001019060200180831161134557829003601f168201915b5050505050815260200160028201805461137b90613696565b80601f01602080910402602001604051908101604052809291908181526020018280546113a790613696565b80156113f45780601f106113c9576101008083540402835291602001916113f4565b820191906000526020600020905b8154815290600101906020018083116113d757829003601f168201915b5050505050815260200160038201805461140d90613696565b80601f016020809104026020016040519081016040528092919081815260200182805461143990613696565b80156114865780601f1061145b57610100808354040283529160200191611486565b820191906000526020600020905b81548152906001019060200180831161146957829003601f168201915b50505091909252505050815260408051610140810182526006840154815260078401546001600160a01b031660208281019190915260088501549282019290925260098401546060820152600a8401546080820152600b84015460a0820152600c84015460c0820152600d84015460e0820152600e840154610100820152600f90930154610120840152015292915050565b600081815260046020526040902080546060919061153590613696565b80601f016020809104026020016040519081016040528092919081815260200182805461156190613696565b80156115ae5780601f10611583576101008083540402835291602001916115ae565b820191906000526020600020905b81548152906001019060200180831161159157829003601f168201915b50505050509050919050565b606c546001600160a01b031633146103c45760405162461bcd60e51b815260206004820181905260248201527f4f776e61626c653a2063616c6c6572206973206e6f7420746865206f776e6572604482015260640161046e565b61161c612c1e565b603a805460ff191690557f5db9ee0a495bf2e6ff9c91a7834c1ba4fdd244a5e8aa4e537bd38aeae4b073aa335b6040516001600160a01b03909116815260200160405180910390a1565b600754610100900460ff166116d15760405162461bcd60e51b815260206004820152602b60248201527f496e697469616c697a61626c653a20636f6e7472616374206973206e6f74206960448201526a6e697469616c697a696e6760a81b606482015260840161046e565b6103c4612c70565b600754610100900460ff166117445760405162461bcd60e51b815260206004820152602b60248201527f496e697469616c697a61626c653a20636f6e7472616374206973206e6f74206960448201526a6e697469616c697a696e6760a81b606482015260840161046e565b6103c4612ce7565b6001600160a01b0382166117c85760405162461bcd60e51b815260206004820152602e60248201527f457363726f7720636f6e747261637420616464726573732063616e6e6f74206260448201527f65207a65726f2061646472657373000000000000000000000000000000000000606482015260840161046e565b6001600160a01b0381166118445760405162461bcd60e51b815260206004820152602860248201527f416374697661746f7220616464726573732063616e6e6f74206265207a65726f60448201527f2061646472657373000000000000000000000000000000000000000000000000606482015260840161046e565b600280546001600160a01b0319166001600160a01b0384161790556118897fec5aad7bdface20c35bc02d6d2d5760df981277427368525d634f4e2603ea19282611096565b600180546001600160a01b0319166001600160a01b039290921691909117905550565b603a5460ff16156103c45760405162461bcd60e51b815260206004820152601060248201527f5061757361626c653a2070617573656400000000000000000000000000000000604482015260640161046e565b6119076130f7565b60008451116119585760405162461bcd60e51b815260206004820152601460248201527f4d697373696e67206d6574616461746120555249000000000000000000000000604482015260640161046e565b60008260600151116119ac5760405162461bcd60e51b815260206004820152601060248201527f496e76616c696420706f6f6c2063617000000000000000000000000000000000604482015260640161046e565b60008260c0015111611a265760405162461bcd60e51b815260206004820152602160248201527f4475726174696f6e206d757374206265206174206c65617374206f6e6520646160448201527f7900000000000000000000000000000000000000000000000000000000000000606482015260840161046e565b608082015115611a785760405162461bcd60e51b815260206004820152601760248201527f53746172742064617465206d757374206265207a65726f000000000000000000604482015260640161046e565b60a082015115611aca5760405162461bcd60e51b815260206004820152601560248201527f456e642064617465206d757374206265207a65726f0000000000000000000000604482015260640161046e565b6000826040015111611b1e5760405162461bcd60e51b815260206004820152601e60248201527f496e76616c696420696d7072657373696f6e2068797065207265776172640000604482015260640161046e565b6000611b28612d5b565b60008181526005602052604090205490915060ff1615611b8a5760405162461bcd60e51b815260206004820152601360248201527f5575696420616c72656164792065786973747300000000000000000000000000604482015260640161046e565b611b9681868686612df8565b611ba08186612fa7565b6000818152600360209081526040918290208251608080820185528254825260018301546001600160a01b0316938201939093528351928301845260028201805491949293928501929182908290611bf790613696565b80601f0160208091040260200160405190810160405280929190818152602001828054611c2390613696565b8015611c705780601f10611c4557610100808354040283529160200191611c70565b820191906000526020600020905b815481529060010190602001808311611c5357829003601f168201915b50505050508152602001600182018054611c8990613696565b80601f0160208091040260200160405190810160405280929190818152602001828054611cb590613696565b8015611d025780601f10611cd757610100808354040283529160200191611d02565b820191906000526020600020905b815481529060010190602001808311611ce557829003601f168201915b50505050508152602001600282018054611d1b90613696565b80601f0160208091040260200160405190810160405280929190818152602001828054611d4790613696565b8015611d945780601f10611d6957610100808354040283529160200191611d94565b820191906000526020600020905b815481529060010190602001808311611d7757829003601f168201915b50505050508152602001600382018054611dad90613696565b80601f0160208091040260200160405190810160405280929190818152602001828054611dd990613696565b8015611e265780601f10611dfb57610100808354040283529160200191611e26565b820191906000526020600020905b815481529060010190602001808311611e0957829003601f168201915b50505091909252505050815260408051610140810182526006840154815260078401546001600160a01b031660208083019190915260088501549282019290925260098401546060820152600a8401546080820152600b84015460a0820152600c84015460c0820152600d84015460e0820152600e840154610100820152600f90930154610120840152015295945050505050565b606c80546001600160a01b038381166001600160a01b0319831681179093556040519116919082907f8be0079c531659141344cd1fd0a4f28419497f9722a3daafe3b4186f6b6457e090600090a35050565b60008181526003602090815260408083208151608080820184528254825260018301546001600160a01b03169482019490945282519384018352600282018054919492938501929182908290611f6290613696565b80601f0160208091040260200160405190810160405280929190818152602001828054611f8e90613696565b8015611fdb5780601f10611fb057610100808354040283529160200191611fdb565b820191906000526020600020905b815481529060010190602001808311611fbe57829003601f168201915b50505050508152602001600182018054611ff490613696565b80601f016020809104026020016040519081016040528092919081815260200182805461202090613696565b801561206d5780601f106120425761010080835404028352916020019161206d565b820191906000526020600020905b81548152906001019060200180831161205057829003601f168201915b5050505050815260200160028201805461208690613696565b80601f01602080910402602001604051908101604052809291908181526020018280546120b290613696565b80156120ff5780601f106120d4576101008083540402835291602001916120ff565b820191906000526020600020905b8154815290600101906020018083116120e257829003601f168201915b5050505050815260200160038201805461211890613696565b80601f016020809104026020016040519081016040528092919081815260200182805461214490613696565b80156121915780601f1061216657610100808354040283529160200191612191565b820191906000526020600020905b81548152906001019060200180831161217457829003601f168201915b50505091909252505050815260408051610140810182526006840154815260078401546001600160a01b03166020828101919091526008850154828401526009850154606080840191909152600a8601546080840152600b86015460a0840152600c86015460c0840152600d86015460e0840152600e860154610100840152600f909501546101208301529092019190915290820151015190915060000361227b5760405162461bcd60e51b815260206004820152601260248201527f506f6f6c20646f65736e27742065786973740000000000000000000000000000604482015260640161046e565b60008281526005602052604090205460ff166122d95760405162461bcd60e51b815260206004820152601360248201527f506f6f6c20646f6573206e6f7420657869737400000000000000000000000000604482015260640161046e565b6122e282610500565b1561232f5760405162461bcd60e51b815260206004820152601660248201527f506f6f6c20697320616c72656164792061637469766500000000000000000000604482015260640161046e565b600061235b7fec5aad7bdface20c35bc02d6d2d5760df981277427368525d634f4e2603ea19233610c08565b905080612509576002546040517f1aa9e742000000000000000000000000000000000000000000000000000000008152336004820152602481018590526001600160a01b03909116906000908290631aa9e74290604401606060405180830381865afa1580156123cf573d6000803e3d6000fd5b505050506040513d601f19601f820116820180604052508101906123f391906136f9565b60608086015101518151919250146124735760405162461bcd60e51b815260206004820152602860248201527f4465706f736974656420616d6f756e7420646f6573206e6f74206d617463682060448201527f706f6f6c20636170000000000000000000000000000000000000000000000000606482015260840161046e565b8360600151602001516001600160a01b031681602001516001600160a01b0316146125065760405162461bcd60e51b815260206004820152603960248201527f4465706f736974656420746f6b656e206164647265737320646f6573206e6f7460448201527f206d6174636820706f6f6c20746f6b656e206164647265737300000000000000606482015260840161046e565b50505b606082018051426080909101819052905160c00151612527916136e6565b606083015160a0015260008381526003602090815260409182902084518155908401516001820180546001600160a01b0319166001600160a01b03909216919091179055908301518051849291906002830190819061258690826137a9565b506020820151600182019061259b90826137a9565b50604082015160028201906125b090826137a9565b50606082015160038201906125c590826137a9565b505050606091820151805160068301556020808201516007840180546001600160a01b0319166001600160a01b039092169190911790556040808301516008850155828501516009850155608080840151600a86015560a080850151600b87015560c0850151600c87015560e0850151600d870155610100850151600e87015561012090940151600f9095019490945586850151808501519301518151898152339381019390935290820192909252928301527ff1e6981b3d18841dad1ef7f8db1d40663aaa4b8cd2022e5349498c4d406d00df91016104f2565b6126a86118ac565b603a805460ff191660011790557f62e78cea01bee320cd4e420270b5ea74000d11b0c9f74754ebdbfc544b05a2586116493390565b60008181526003602090815260408083208151608080820184528254825260018301546001600160a01b0316948201949094528251938401835260028201805491949293850192918290829061273290613696565b80601f016020809104026020016040519081016040528092919081815260200182805461275e90613696565b80156127ab5780601f10612780576101008083540402835291602001916127ab565b820191906000526020600020905b81548152906001019060200180831161278e57829003601f168201915b505050505081526020016001820180546127c490613696565b80601f01602080910402602001604051908101604052809291908181526020018280546127f090613696565b801561283d5780601f106128125761010080835404028352916020019161283d565b820191906000526020600020905b81548152906001019060200180831161282057829003601f168201915b5050505050815260200160028201805461285690613696565b80601f016020809104026020016040519081016040528092919081815260200182805461288290613696565b80156128cf5780601f106128a4576101008083540402835291602001916128cf565b820191906000526020600020905b8154815290600101906020018083116128b257829003601f168201915b505050505081526020016003820180546128e890613696565b80601f016020809104026020016040519081016040528092919081815260200182805461291490613696565b80156129615780601f1061293657610100808354040283529160200191612961565b820191906000526020600020905b81548152906001019060200180831161294457829003601f168201915b50505091909252505050815260408051610140810182526006840154815260078401546001600160a01b03166020828101919091526008850154828401526009850154606080840191909152600a8601546080840152600b86015460a0840152600c86015460c0840152600d86015460e0840152600e860154610100840152600f9095015461012083015290920191909152908201510151909150600003612a4b5760405162461bcd60e51b815260206004820152601260248201527f506f6f6c20646f65736e27742065786973740000000000000000000000000000604482015260640161046e565b612a5482610500565b1515600114612aa55760405162461bcd60e51b815260206004820152601860248201527f506f6f6c20697320616c726561647920696e6163746976650000000000000000604482015260640161046e565b60608101514260a09091015260008281526003602090815260409182902083518155908301516001820180546001600160a01b0319166001600160a01b039092169190911790559082015180518392919060028301908190612b0790826137a9565b5060208201516001820190612b1c90826137a9565b5060408201516002820190612b3190826137a9565b5060608201516003820190612b4690826137a9565b5050506060918201518051600683015560208101516007830180546001600160a01b039092166001600160a01b031990921691909117905560408082015160088401559281015160098301556080810151600a83015560a0810151600b83015560c0810151600c83015560e0810151600d830155610100810151600e8301556101200151600f90910155517f0522afc663a576de692143f1e714306778ade438ea7c739c3a3964bd78eb2cc690612c1290849033909182526001600160a01b0316602082015260400190565b60405180910390a15050565b603a5460ff166103c45760405162461bcd60e51b815260206004820152601460248201527f5061757361626c653a206e6f7420706175736564000000000000000000000000604482015260640161046e565b600754610100900460ff16612cdb5760405162461bcd60e51b815260206004820152602b60248201527f496e697469616c697a61626c653a20636f6e7472616374206973206e6f74206960448201526a6e697469616c697a696e6760a81b606482015260840161046e565b603a805460ff19169055565b600754610100900460ff16612d525760405162461bcd60e51b815260206004820152602b60248201527f496e697469616c697a61626c653a20636f6e7472616374206973206e6f74206960448201526a6e697469616c697a696e6760a81b606482015260840161046e565b6103c433611ebb565b60408051436020820181905242928201839052600060608301819052929091839081906080016040516020818303038152906040528051906020012090505b60008181526005602052604090205460ff1615610bca5781612dbb81613869565b6040805160208101889052908101869052606081018290529093506080019050604051602081830303815290604052805190602001209050612d9a565b6040805160808101825285815233602080830191825282840186815260608401869052600089815260039092529390208251815590516001820180546001600160a01b0319166001600160a01b039092169190911790559151805191929160028301908190612e6790826137a9565b5060208201516001820190612e7c90826137a9565b5060408201516002820190612e9190826137a9565b5060608201516003820190612ea690826137a9565b50505060609182015180516006838101919091556020808301516007850180546001600160a01b0319166001600160a01b0390921691909117905560408084015160088601559483015160098501556080830151600a85015560a0830151600b85015560c0830151600c85015560e0830151600d850155610100830151600e85015561012090920151600f9093019290925560008781526005909152829020805460ff19166001179055859055517f3a21eb0a9afc1353da741f39aaea48014c074c6720b61baf41e1e18d6ae7b2fb90612f8590869033908790613882565b60405180910390a1612f978483612ff1565b612fa18482613038565b50505050565b6000828152600460205260409020612fbf82826137a9565b507fa9397f16db6e1e1b43c1c813233f16139006d56a3d1a24412ebdfb0661b5bfff8282604051612c129291906138b3565b7f764b3686bd9a8c04d487da87edb364f64d505149c22a8b2664d353539ecf6a33828260000151836020015184604001518560600151604051612c129594939291906138cc565b7fbd9958b57e49a74ca231cded8239733651bec95f7d338b5bce7fe13a207a8c4b82826000015183602001518460400151856060015186608001518760a001518860c001518960e001518a61010001518b6101200151604051612c129b9a999897969594939291909a8b5260208b01999099526001600160a01b039790971660408a01526060890195909552608088019390935260a087019190915260c086015260e08501526101008401526101208301526101408201526101600190565b60405180608001604052806000801916815260200160006001600160a01b031681526020016131476040518060800160405280606081526020016060815260200160608152602001606081525090565b81526020016131ab6040518061014001604052806000815260200160006001600160a01b0316815260200160008152602001600081526020016000815260200160008152602001600081526020016000815260200160008152602001600081525090565b905290565b6000602082840312156131c257600080fd5b5035919050565b8051825260208101516131e760208401826001600160a01b03169052565b5060408101516040830152606081015160608301526080810151608083015260a081015160a083015260c081015160c083015260e081015160e08301526101008082015181840152506101208082015181840152505050565b6101408101610c2d82846131c9565b6001600160a01b0381168114610bf557600080fd5b803561326f8161324f565b919050565b6000806040838503121561328757600080fd5b82356132928161324f565b915060208301356132a28161324f565b809150509250929050565b634e487b7160e01b600052604160045260246000fd5b604051610140810167ffffffffffffffff811182821017156132e7576132e76132ad565b60405290565b6040516080810167ffffffffffffffff811182821017156132e7576132e76132ad565b600082601f83011261332157600080fd5b813567ffffffffffffffff8082111561333c5761333c6132ad565b604051601f8301601f19908116603f01168101908282118183101715613364576133646132ad565b8160405283815286602085880101111561337d57600080fd5b836020870160208301376000602085830101528094505050505092915050565b600061014082840312156133b057600080fd5b6133b86132c3565b9050813581526133ca60208301613264565b602082015260408201356040820152606082013560608201526080820135608082015260a082013560a082015260c082013560c082015260e082013560e082015261010080830135818301525061012080830135818301525092915050565b6000806000610180848603121561343f57600080fd5b833567ffffffffffffffff8082111561345757600080fd5b61346387838801613310565b9450602086013591508082111561347957600080fd5b908501906080828803121561348d57600080fd5b6134956132ed565b8235828111156134a457600080fd5b6134b089828601613310565b8252506020830135828111156134c557600080fd5b6134d189828601613310565b6020830152506040830135828111156134e957600080fd5b6134f589828601613310565b60408301525060608301358281111561350d57600080fd5b61351989828601613310565b606083015250809450505050613532856040860161339d565b90509250925092565b6000815180845260005b8181101561356157602081850181015186830182015201613545565b506000602082860101526020601f19601f83011685010191505092915050565b60208152815160208201526001600160a01b036020830151166040820152600060408301516101a06060840152805160806101c08501526135c661024085018261353b565b905060208201516101bf1980868403016101e08701526135e6838361353b565b9250604084015191508086840301610200870152613604838361353b565b92506060840151935080868403016102208701525050613624818361353b565b915050606084015161363960808501826131c9565b509392505050565b6000806040838503121561365457600080fd5b8235915060208301356132a28161324f565b60006020828403121561367857600080fd5b81356108528161324f565b602081526000610852602083018461353b565b600181811c908216806136aa57607f821691505b6020821081036136ca57634e487b7160e01b600052602260045260246000fd5b50919050565b634e487b7160e01b600052601160045260246000fd5b80820180821115610c2d57610c2d6136d0565b60006060828403121561370b57600080fd5b6040516060810181811067ffffffffffffffff8211171561372e5761372e6132ad565b6040528251815260208301516137438161324f565b60208201526040928301519281019290925250919050565b601f8211156104fb57600081815260208120601f850160051c810160208610156137825750805b601f850160051c820191505b818110156137a15782815560010161378e565b505050505050565b815167ffffffffffffffff8111156137c3576137c36132ad565b6137d7816137d18454613696565b8461375b565b602080601f83116001811461380c57600084156137f45750858301515b600019600386901b1c1916600185901b1785556137a1565b600085815260208120601f198616915b8281101561383b5788860151825594840194600190910190840161381c565b50858210156138595787850151600019600388901b60f8161c191681555b5050505050600190811b01905550565b60006001820161387b5761387b6136d0565b5060010190565b8381526001600160a01b03831660208201526060604082015260006138aa606083018461353b565b95945050505050565b828152604060208201526000610bca604083018461353b565b85815260a0602082015260006138e560a083018761353b565b82810360408401526138f7818761353b565b9050828103606084015261390b818661353b565b9050828103608084015261391f818561353b565b9897505050505050505056fea2646970667358221220d39bca8cb980430cf2ef977b23e291e76ce7a38a7d914e4aa9d787a97c2bf1b664736f6c63430008120033",
  "linkReferences": {},
  "deployedLinkReferences": {}
}