{
  "_format": "hh-sol-artifact-1",
  "contractName": "HypePoolUpgradeable",
  "sourceName": "contracts/upgradeable/HypePoolUpgradeable.sol",
  "abi": [
    {
      "inputs": [],
      "stateMutability": "nonpayable",
      "type": "constructor"
    },
    {
      "anonymous": false,
      "inputs": [
        {
          "indexed": false,
          "internalType": "uint8",
          "name": "version",
          "type": "uint8"
        }
      ],
      "name": "Initialized",
      "type": "event"
    },
    {
      "anonymous": false,
      "inputs": [
        {
          "indexed": true,
          "internalType": "address",
          "name": "previousOwner",
          "type": "address"
        },
        {
          "indexed": true,
          "internalType": "address",
          "name": "newOwner",
          "type": "address"
        }
      ],
      "name": "OwnershipTransferred",
      "type": "event"
    },
    {
      "anonymous": false,
      "inputs": [
        {
          "indexed": false,
          "internalType": "address",
          "name": "account",
          "type": "address"
        }
      ],
      "name": "Paused",
      "type": "event"
    },
    {
      "anonymous": false,
      "inputs": [
        {
          "indexed": false,
          "internalType": "bytes32",
          "name": "poolId",
          "type": "bytes32"
        },
        {
          "indexed": false,
          "internalType": "address",
          "name": "activator",
          "type": "address"
        },
        {
          "indexed": false,
          "internalType": "uint256",
          "name": "startDate",
          "type": "uint256"
        },
        {
          "indexed": false,
          "internalType": "uint256",
          "name": "endDate",
          "type": "uint256"
        }
      ],
      "name": "PoolActivated",
      "type": "event"
    },
    {
      "anonymous": false,
      "inputs": [
        {
          "indexed": false,
          "internalType": "bytes32",
          "name": "poolId",
          "type": "bytes32"
        },
        {
          "indexed": false,
          "internalType": "address",
          "name": "creator",
          "type": "address"
        },
        {
          "indexed": false,
          "internalType": "string",
          "name": "uri",
          "type": "string"
        }
      ],
      "name": "PoolCreated",
      "type": "event"
    },
    {
      "anonymous": false,
      "inputs": [
        {
          "indexed": false,
          "internalType": "bytes32",
          "name": "poolId",
          "type": "bytes32"
        },
        {
          "indexed": false,
          "internalType": "address",
          "name": "deactivator",
          "type": "address"
        }
      ],
      "name": "PoolDeactivated",
      "type": "event"
    },
    {
      "anonymous": false,
      "inputs": [
        {
          "indexed": false,
          "internalType": "bytes32",
          "name": "poolId",
          "type": "bytes32"
        },
        {
          "indexed": false,
          "internalType": "string",
          "name": "title",
          "type": "string"
        },
        {
          "indexed": false,
          "internalType": "string",
          "name": "projectName",
          "type": "string"
        },
        {
          "indexed": false,
          "internalType": "string",
          "name": "tokenName",
          "type": "string"
        },
        {
          "indexed": false,
          "internalType": "string",
          "name": "word",
          "type": "string"
        }
      ],
      "name": "PoolDetailsCreated",
      "type": "event"
    },
    {
      "anonymous": false,
      "inputs": [
        {
          "indexed": false,
          "internalType": "bytes32",
          "name": "poolId",
          "type": "bytes32"
        },
        {
          "indexed": false,
          "internalType": "uint256",
          "name": "network",
          "type": "uint256"
        },
        {
          "indexed": false,
          "internalType": "address",
          "name": "tokenAddress",
          "type": "address"
        },
        {
          "indexed": false,
          "internalType": "uint256",
          "name": "impressionReward",
          "type": "uint256"
        },
        {
          "indexed": false,
          "internalType": "uint256",
          "name": "cap",
          "type": "uint256"
        },
        {
          "indexed": false,
          "internalType": "uint256",
          "name": "startDate",
          "type": "uint256"
        },
        {
          "indexed": false,
          "internalType": "uint256",
          "name": "endDate",
          "type": "uint256"
        },
        {
          "indexed": false,
          "internalType": "uint256",
          "name": "duration",
          "type": "uint256"
        }
      ],
      "name": "PoolRewardsCreated",
      "type": "event"
    },
    {
      "anonymous": false,
      "inputs": [
        {
          "indexed": false,
          "internalType": "bytes32",
          "name": "poolId",
          "type": "bytes32"
        },
        {
          "indexed": false,
          "internalType": "string",
          "name": "uri",
          "type": "string"
        }
      ],
      "name": "PoolUriSet",
      "type": "event"
    },
    {
      "anonymous": false,
      "inputs": [
        {
          "indexed": true,
          "internalType": "bytes32",
          "name": "role",
          "type": "bytes32"
        },
        {
          "indexed": true,
          "internalType": "address",
          "name": "account",
          "type": "address"
        }
      ],
      "name": "RoleGranted",
      "type": "event"
    },
    {
      "anonymous": false,
      "inputs": [
        {
          "indexed": true,
          "internalType": "bytes32",
          "name": "role",
          "type": "bytes32"
        },
        {
          "indexed": true,
          "internalType": "address",
          "name": "account",
          "type": "address"
        }
      ],
      "name": "RoleRevoked",
      "type": "event"
    },
    {
      "anonymous": false,
      "inputs": [
        {
          "indexed": false,
          "internalType": "address",
          "name": "account",
          "type": "address"
        }
      ],
      "name": "Unpaused",
      "type": "event"
    },
    {
      "inputs": [],
      "name": "ACTIVATOR_ROLE",
      "outputs": [
        {
          "internalType": "bytes32",
          "name": "",
          "type": "bytes32"
        }
      ],
      "stateMutability": "view",
      "type": "function"
    },
    {
      "inputs": [
        {
          "internalType": "bytes32",
          "name": "uuid",
          "type": "bytes32"
        }
      ],
      "name": "activatePool",
      "outputs": [],
      "stateMutability": "nonpayable",
      "type": "function"
    },
    {
      "inputs": [
        {
          "internalType": "bytes32",
          "name": "role",
          "type": "bytes32"
        },
        {
          "internalType": "address",
          "name": "account",
          "type": "address"
        }
      ],
      "name": "addRole",
      "outputs": [],
      "stateMutability": "nonpayable",
      "type": "function"
    },
    {
      "inputs": [
        {
          "internalType": "string",
          "name": "uri",
          "type": "string"
        },
        {
          "components": [
            {
              "internalType": "string",
              "name": "title",
              "type": "string"
            },
            {
              "internalType": "string",
              "name": "projectName",
              "type": "string"
            },
            {
              "internalType": "string",
              "name": "tokenName",
              "type": "string"
            },
            {
              "internalType": "string",
              "name": "word",
              "type": "string"
            }
          ],
          "internalType": "struct IHypePool.Details",
          "name": "details",
          "type": "tuple"
        },
        {
          "components": [
            {
              "internalType": "uint256",
              "name": "network",
              "type": "uint256"
            },
            {
              "internalType": "address",
              "name": "tokenAddress",
              "type": "address"
            },
            {
              "internalType": "uint256",
              "name": "impressionReward",
              "type": "uint256"
            },
            {
              "internalType": "uint256",
              "name": "cap",
              "type": "uint256"
            },
            {
              "internalType": "uint256",
              "name": "startDate",
              "type": "uint256"
            },
            {
              "internalType": "uint256",
              "name": "endDate",
              "type": "uint256"
            },
            {
              "internalType": "uint256",
              "name": "duration",
              "type": "uint256"
            }
          ],
          "internalType": "struct IHypePool.Rewards",
          "name": "rewards",
          "type": "tuple"
        }
      ],
      "name": "createPool",
      "outputs": [
        {
          "components": [
            {
              "internalType": "bytes32",
              "name": "id",
              "type": "bytes32"
            },
            {
              "internalType": "address",
              "name": "creator",
              "type": "address"
            },
            {
              "internalType": "bool",
              "name": "active",
              "type": "bool"
            },
            {
              "components": [
                {
                  "internalType": "string",
                  "name": "title",
                  "type": "string"
                },
                {
                  "internalType": "string",
                  "name": "projectName",
                  "type": "string"
                },
                {
                  "internalType": "string",
                  "name": "tokenName",
                  "type": "string"
                },
                {
                  "internalType": "string",
                  "name": "word",
                  "type": "string"
                }
              ],
              "internalType": "struct IHypePool.Details",
              "name": "details",
              "type": "tuple"
            },
            {
              "components": [
                {
                  "internalType": "uint256",
                  "name": "network",
                  "type": "uint256"
                },
                {
                  "internalType": "address",
                  "name": "tokenAddress",
                  "type": "address"
                },
                {
                  "internalType": "uint256",
                  "name": "impressionReward",
                  "type": "uint256"
                },
                {
                  "internalType": "uint256",
                  "name": "cap",
                  "type": "uint256"
                },
                {
                  "internalType": "uint256",
                  "name": "startDate",
                  "type": "uint256"
                },
                {
                  "internalType": "uint256",
                  "name": "endDate",
                  "type": "uint256"
                },
                {
                  "internalType": "uint256",
                  "name": "duration",
                  "type": "uint256"
                }
              ],
              "internalType": "struct IHypePool.Rewards",
              "name": "rewards",
              "type": "tuple"
            }
          ],
          "internalType": "struct IHypePool.HypePool",
          "name": "",
          "type": "tuple"
        }
      ],
      "stateMutability": "nonpayable",
      "type": "function"
    },
    {
      "inputs": [
        {
          "internalType": "bytes32",
          "name": "uuid",
          "type": "bytes32"
        }
      ],
      "name": "deactivatePool",
      "outputs": [],
      "stateMutability": "nonpayable",
      "type": "function"
    },
    {
      "inputs": [],
      "name": "getCurrentIndex",
      "outputs": [
        {
          "internalType": "bytes32",
          "name": "",
          "type": "bytes32"
        }
      ],
      "stateMutability": "view",
      "type": "function"
    },
    {
      "inputs": [
        {
          "internalType": "bytes32",
          "name": "uuid",
          "type": "bytes32"
        }
      ],
      "name": "getPool",
      "outputs": [
        {
          "components": [
            {
              "internalType": "bytes32",
              "name": "id",
              "type": "bytes32"
            },
            {
              "internalType": "address",
              "name": "creator",
              "type": "address"
            },
            {
              "internalType": "bool",
              "name": "active",
              "type": "bool"
            },
            {
              "components": [
                {
                  "internalType": "string",
                  "name": "title",
                  "type": "string"
                },
                {
                  "internalType": "string",
                  "name": "projectName",
                  "type": "string"
                },
                {
                  "internalType": "string",
                  "name": "tokenName",
                  "type": "string"
                },
                {
                  "internalType": "string",
                  "name": "word",
                  "type": "string"
                }
              ],
              "internalType": "struct IHypePool.Details",
              "name": "details",
              "type": "tuple"
            },
            {
              "components": [
                {
                  "internalType": "uint256",
                  "name": "network",
                  "type": "uint256"
                },
                {
                  "internalType": "address",
                  "name": "tokenAddress",
                  "type": "address"
                },
                {
                  "internalType": "uint256",
                  "name": "impressionReward",
                  "type": "uint256"
                },
                {
                  "internalType": "uint256",
                  "name": "cap",
                  "type": "uint256"
                },
                {
                  "internalType": "uint256",
                  "name": "startDate",
                  "type": "uint256"
                },
                {
                  "internalType": "uint256",
                  "name": "endDate",
                  "type": "uint256"
                },
                {
                  "internalType": "uint256",
                  "name": "duration",
                  "type": "uint256"
                }
              ],
              "internalType": "struct IHypePool.Rewards",
              "name": "rewards",
              "type": "tuple"
            }
          ],
          "internalType": "struct IHypePool.HypePool",
          "name": "",
          "type": "tuple"
        }
      ],
      "stateMutability": "view",
      "type": "function"
    },
    {
      "inputs": [
        {
          "internalType": "bytes32",
          "name": "uuid",
          "type": "bytes32"
        }
      ],
      "name": "getPoolRewards",
      "outputs": [
        {
          "components": [
            {
              "internalType": "uint256",
              "name": "network",
              "type": "uint256"
            },
            {
              "internalType": "address",
              "name": "tokenAddress",
              "type": "address"
            },
            {
              "internalType": "uint256",
              "name": "impressionReward",
              "type": "uint256"
            },
            {
              "internalType": "uint256",
              "name": "cap",
              "type": "uint256"
            },
            {
              "internalType": "uint256",
              "name": "startDate",
              "type": "uint256"
            },
            {
              "internalType": "uint256",
              "name": "endDate",
              "type": "uint256"
            },
            {
              "internalType": "uint256",
              "name": "duration",
              "type": "uint256"
            }
          ],
          "internalType": "struct IHypePool.Rewards",
          "name": "",
          "type": "tuple"
        }
      ],
      "stateMutability": "view",
      "type": "function"
    },
    {
      "inputs": [
        {
          "internalType": "bytes32",
          "name": "role",
          "type": "bytes32"
        },
        {
          "internalType": "address",
          "name": "account",
          "type": "address"
        }
      ],
      "name": "hasRole",
      "outputs": [
        {
          "internalType": "bool",
          "name": "",
          "type": "bool"
        }
      ],
      "stateMutability": "view",
      "type": "function"
    },
    {
      "inputs": [
        {
          "internalType": "address",
          "name": "escrowContractAddress",
          "type": "address"
        },
        {
          "internalType": "address",
          "name": "activator",
          "type": "address"
        }
      ],
      "name": "initialize",
      "outputs": [],
      "stateMutability": "nonpayable",
      "type": "function"
    },
    {
      "inputs": [],
      "name": "owner",
      "outputs": [
        {
          "internalType": "address",
          "name": "",
          "type": "address"
        }
      ],
      "stateMutability": "view",
      "type": "function"
    },
    {
      "inputs": [],
      "name": "pause",
      "outputs": [],
      "stateMutability": "nonpayable",
      "type": "function"
    },
    {
      "inputs": [],
      "name": "paused",
      "outputs": [
        {
          "internalType": "bool",
          "name": "",
          "type": "bool"
        }
      ],
      "stateMutability": "view",
      "type": "function"
    },
    {
      "inputs": [
        {
          "internalType": "bytes32",
          "name": "uuid",
          "type": "bytes32"
        }
      ],
      "name": "poolURI",
      "outputs": [
        {
          "internalType": "string",
          "name": "",
          "type": "string"
        }
      ],
      "stateMutability": "view",
      "type": "function"
    },
    {
      "inputs": [],
      "name": "renounceOwnership",
      "outputs": [],
      "stateMutability": "nonpayable",
      "type": "function"
    },
    {
      "inputs": [
        {
          "internalType": "bytes32",
          "name": "role",
          "type": "bytes32"
        },
        {
          "internalType": "address",
          "name": "account",
          "type": "address"
        }
      ],
      "name": "revokeRole",
      "outputs": [],
      "stateMutability": "nonpayable",
      "type": "function"
    },
    {
      "inputs": [
        {
          "internalType": "address",
          "name": "newOwner",
          "type": "address"
        }
      ],
      "name": "transferOwnership",
      "outputs": [],
      "stateMutability": "nonpayable",
      "type": "function"
    },
    {
      "inputs": [],
      "name": "unpause",
      "outputs": [],
      "stateMutability": "nonpayable",
      "type": "function"
    }
  ],
  "bytecode": "0x60806040523480156200001157600080fd5b506200001c62000022565b620000e4565b600754610100900460ff16156200008f5760405162461bcd60e51b815260206004820152602760248201527f496e697469616c697a61626c653a20636f6e747261637420697320696e697469604482015266616c697a696e6760c81b606482015260840160405180910390fd5b60075460ff9081161015620000e2576007805460ff191660ff9081179091556040519081527f7f26b83ff96e1f2b6a682f133852f6798a09c465da95921460cefb38474024989060200160405180910390a15b565b612e3680620000f46000396000f3fe608060405234801561001057600080fd5b50600436106101365760003560e01c80638456cb59116100b2578063d9d9785911610081578063f2fde38b11610066578063f2fde38b1461027b578063f6c009271461028e578063f8607fb1146102a157600080fd5b8063d9d9785914610255578063e959b38a1461026857600080fd5b80638456cb591461020c5780638da5cb5b1461021457806391d148541461022f578063d547741f1461024257600080fd5b8063485cc95511610109578063715018a6116100ee578063715018a6146101d157806373dfe0da146101d957806377108fcc146101ec57600080fd5b8063485cc955146101a75780635c975abb146101ba57600080fd5b806308740a3b1461013b5780630d9005ae1461017557806324bc59721461017d5780633f4ba83a1461019d575b600080fd5b6101627fec5aad7bdface20c35bc02d6d2d5760df981277427368525d634f4e2603ea19281565b6040519081526020015b60405180910390f35b600654610162565b61019061018b36600461268d565b6102c1565b60405161016c91906126a6565b6101a5610320565b005b6101a56101b5366004612711565b610332565b603a5460ff165b604051901515815260200161016c565b6101a561046c565b6101a56101e736600461268d565b61047e565b6101ff6101fa3660046128a3565b610492565b60405161016c91906129fb565b6101a56104b5565b606c546040516001600160a01b03909116815260200161016c565b6101c161023d366004612b0f565b6104c5565b6101a5610250366004612b0f565b6104f0565b6101a561026336600461268d565b6105c2565b6101a5610276366004612b0f565b6105db565b6101a5610289366004612b34565b6106b0565b6101ff61029c36600461268d565b61073d565b6102b46102af36600461268d565b610a51565b60405161016c9190612b58565b61030a6040518060e001604052806000815260200160006001600160a01b0316815260200160008152602001600081526020016000815260200160008152602001600081525090565b60006103158361073d565b608001519392505050565b610328610af3565b610330610b4d565b565b600754610100900460ff16158080156103525750600754600160ff909116105b8061036c5750303b15801561036c575060075460ff166001145b6103e35760405162461bcd60e51b815260206004820152602e60248201527f496e697469616c697a61626c653a20636f6e747261637420697320616c72656160448201527f647920696e697469616c697a656400000000000000000000000000000000000060648201526084015b60405180910390fd5b6007805460ff191660011790558015610406576007805461ff0019166101001790555b61040e610b9f565b610416610c12565b6104208383610c85565b8015610467576007805461ff0019169055604051600181527f7f26b83ff96e1f2b6a682f133852f6798a09c465da95921460cefb3847402498906020015b60405180910390a15b505050565b610474610af3565b6103306000610de5565b610486610e37565b61048f81610e8a565b50565b61049a6125e1565b6104a2610e37565b6104ad848484611614565b949350505050565b6104bd610af3565b610330611bc4565b6000828152602081815260408083206001600160a01b038516845290915290205460ff165b92915050565b6001600160a01b03811661056c5760405162461bcd60e51b815260206004820152603360248201527f416363657373436f6e74726f6c3a2063616e6e6f74207265766f6b6520726f6c60448201527f652066726f6d207a65726f20616464726573730000000000000000000000000060648201526084016103da565b6000828152602081815260408083206001600160a01b0385168085529252808320805460ff1916905551909184917f155aaafb6329a2098580462df33ec4b7441b19729b9601c5fc17ae1cf99a8a529190a35050565b6105ca610e37565b6105d2610af3565b61048f81611c01565b6001600160a01b0381166106575760405162461bcd60e51b815260206004820152603060248201527f416363657373436f6e74726f6c3a2063616e6e6f74206772616e7420726f6c6560448201527f20746f207a65726f20616464726573730000000000000000000000000000000060648201526084016103da565b6000828152602081815260408083206001600160a01b0385168085529252808320805460ff1916600117905551909184917f2ae6a113c0ed5b78a53413ffbb7679881f11145ccfba4fb92e863dfcd5a1d2f39190a35050565b6106b8610af3565b6001600160a01b0381166107345760405162461bcd60e51b815260206004820152602660248201527f4f776e61626c653a206e6577206f776e657220697320746865207a65726f206160448201527f646472657373000000000000000000000000000000000000000000000000000060648201526084016103da565b61048f81610de5565b6107456125e1565b600082815260036020908152604091829020825160a0810184528154815260018201546001600160a01b03811693820193909352600160a01b90920460ff161515828401528251608081019093526002810180549293919260608501929190829082906107b190612b6b565b80601f01602080910402602001604051908101604052809291908181526020018280546107dd90612b6b565b801561082a5780601f106107ff5761010080835404028352916020019161082a565b820191906000526020600020905b81548152906001019060200180831161080d57829003601f168201915b5050505050815260200160018201805461084390612b6b565b80601f016020809104026020016040519081016040528092919081815260200182805461086f90612b6b565b80156108bc5780601f10610891576101008083540402835291602001916108bc565b820191906000526020600020905b81548152906001019060200180831161089f57829003601f168201915b505050505081526020016002820180546108d590612b6b565b80601f016020809104026020016040519081016040528092919081815260200182805461090190612b6b565b801561094e5780601f106109235761010080835404028352916020019161094e565b820191906000526020600020905b81548152906001019060200180831161093157829003601f168201915b5050505050815260200160038201805461096790612b6b565b80601f016020809104026020016040519081016040528092919081815260200182805461099390612b6b565b80156109e05780601f106109b5576101008083540402835291602001916109e0565b820191906000526020600020905b8154815290600101906020018083116109c357829003601f168201915b5050509190925250505081526040805160e0810182526006840154815260078401546001600160a01b031660208281019190915260088501549282019290925260098401546060820152600a8401546080820152600b84015460a0820152600c9093015460c0840152015292915050565b6000818152600460205260409020805460609190610a6e90612b6b565b80601f0160208091040260200160405190810160405280929190818152602001828054610a9a90612b6b565b8015610ae75780601f10610abc57610100808354040283529160200191610ae7565b820191906000526020600020905b815481529060010190602001808311610aca57829003601f168201915b50505050509050919050565b606c546001600160a01b031633146103305760405162461bcd60e51b815260206004820181905260248201527f4f776e61626c653a2063616c6c6572206973206e6f7420746865206f776e657260448201526064016103da565b610b55612138565b603a805460ff191690557f5db9ee0a495bf2e6ff9c91a7834c1ba4fdd244a5e8aa4e537bd38aeae4b073aa335b6040516001600160a01b03909116815260200160405180910390a1565b600754610100900460ff16610c0a5760405162461bcd60e51b815260206004820152602b60248201527f496e697469616c697a61626c653a20636f6e7472616374206973206e6f74206960448201526a6e697469616c697a696e6760a81b60648201526084016103da565b61033061218a565b600754610100900460ff16610c7d5760405162461bcd60e51b815260206004820152602b60248201527f496e697469616c697a61626c653a20636f6e7472616374206973206e6f74206960448201526a6e697469616c697a696e6760a81b60648201526084016103da565b610330612201565b6001600160a01b038216610d015760405162461bcd60e51b815260206004820152602e60248201527f457363726f7720636f6e747261637420616464726573732063616e6e6f74206260448201527f65207a65726f206164647265737300000000000000000000000000000000000060648201526084016103da565b6001600160a01b038116610d7d5760405162461bcd60e51b815260206004820152602860248201527f416374697661746f7220616464726573732063616e6e6f74206265207a65726f60448201527f206164647265737300000000000000000000000000000000000000000000000060648201526084016103da565b600280546001600160a01b0319166001600160a01b038416179055610dc27fec5aad7bdface20c35bc02d6d2d5760df981277427368525d634f4e2603ea192826105db565b600180546001600160a01b0319166001600160a01b039290921691909117905550565b606c80546001600160a01b038381166001600160a01b0319831681179093556040519116919082907f8be0079c531659141344cd1fd0a4f28419497f9722a3daafe3b4186f6b6457e090600090a35050565b603a5460ff16156103305760405162461bcd60e51b815260206004820152601060248201527f5061757361626c653a207061757365640000000000000000000000000000000060448201526064016103da565b6000818152600360209081526040808320815160a0810183528154815260018201546001600160a01b03811694820194909452600160a01b90930460ff161515838301528151608081019092526002810180549192606085019290919082908290610ef490612b6b565b80601f0160208091040260200160405190810160405280929190818152602001828054610f2090612b6b565b8015610f6d5780601f10610f4257610100808354040283529160200191610f6d565b820191906000526020600020905b815481529060010190602001808311610f5057829003601f168201915b50505050508152602001600182018054610f8690612b6b565b80601f0160208091040260200160405190810160405280929190818152602001828054610fb290612b6b565b8015610fff5780601f10610fd457610100808354040283529160200191610fff565b820191906000526020600020905b815481529060010190602001808311610fe257829003601f168201915b5050505050815260200160028201805461101890612b6b565b80601f016020809104026020016040519081016040528092919081815260200182805461104490612b6b565b80156110915780601f1061106657610100808354040283529160200191611091565b820191906000526020600020905b81548152906001019060200180831161107457829003601f168201915b505050505081526020016003820180546110aa90612b6b565b80601f01602080910402602001604051908101604052809291908181526020018280546110d690612b6b565b80156111235780601f106110f857610100808354040283529160200191611123565b820191906000526020600020905b81548152906001019060200180831161110657829003601f168201915b5050509190925250505081526040805160e0810182526006840154815260078401546001600160a01b031660208281019190915260088501548284015260098501546060830152600a850154608080840191909152600b86015460a0840152600c9095015460c0830152909201919091529082015101519091506000036111ec5760405162461bcd60e51b815260206004820152601260248201527f506f6f6c20646f65736e2774206578697374000000000000000000000000000060448201526064016103da565b60008281526005602052604090205460ff1661124a5760405162461bcd60e51b815260206004820152601360248201527f506f6f6c20646f6573206e6f742065786973740000000000000000000000000060448201526064016103da565b60408101511561129c5760405162461bcd60e51b815260206004820152601660248201527f506f6f6c20697320616c7265616479206163746976650000000000000000000060448201526064016103da565b60006112c87fec5aad7bdface20c35bc02d6d2d5760df981277427368525d634f4e2603ea192336104c5565b905080611477576002546040517f1aa9e742000000000000000000000000000000000000000000000000000000008152336004820152602481018590526001600160a01b03909116906000908290631aa9e74290604401606060405180830381865afa15801561133c573d6000803e3d6000fd5b505050506040513d601f19601f820116820180604052508101906113609190612ba5565b6080850151606001518151919250146113e15760405162461bcd60e51b815260206004820152602860248201527f4465706f736974656420616d6f756e7420646f6573206e6f74206d617463682060448201527f706f6f6c2063617000000000000000000000000000000000000000000000000060648201526084016103da565b8360800151602001516001600160a01b031681602001516001600160a01b0316146114745760405162461bcd60e51b815260206004820152603960248201527f4465706f736974656420746f6b656e206164647265737320646f6573206e6f7460448201527f206d6174636820706f6f6c20746f6b656e20616464726573730000000000000060648201526084016103da565b50505b60016040830152608080830180514292018290525160c0015161149991612c1d565b608083015160a001526000838152600360209081526040918290208451815590840151600182018054938601511515600160a01b0274ffffffffffffffffffffffffffffffffffffffffff199094166001600160a01b03909216919091179290921790915560608301518051849291906002830190819061151a9082612c7e565b506020820151600182019061152f9082612c7e565b50604082015160028201906115449082612c7e565b50606082015160038201906115599082612c7e565b505050608091820151805160068301556020808201516007840180546001600160a01b0319166001600160a01b039092169190911790556040808301516008850155606080840151600986015583860151600a86015560a080850151600b87015560c090940151600c9095019490945586850151808601519301518151898152339381019390935290820192909252918201527ff1e6981b3d18841dad1ef7f8db1d40663aaa4b8cd2022e5349498c4d406d00df910161045e565b61161c6125e1565b600084511161166d5760405162461bcd60e51b815260206004820152601460248201527f4d697373696e67206d657461646174612055524900000000000000000000000060448201526064016103da565b60008260600151116116c15760405162461bcd60e51b815260206004820152601060248201527f496e76616c696420706f6f6c206361700000000000000000000000000000000060448201526064016103da565b60008260c001511161173b5760405162461bcd60e51b815260206004820152602160248201527f4475726174696f6e206d757374206265206174206c65617374206f6e6520646160448201527f790000000000000000000000000000000000000000000000000000000000000060648201526084016103da565b60808201511561178d5760405162461bcd60e51b815260206004820152601760248201527f53746172742064617465206d757374206265207a65726f00000000000000000060448201526064016103da565b60a0820151156117df5760405162461bcd60e51b815260206004820152601560248201527f456e642064617465206d757374206265207a65726f000000000000000000000060448201526064016103da565b60008260400151116118335760405162461bcd60e51b815260206004820152601e60248201527f496e76616c696420696d7072657373696f6e206879706520726577617264000060448201526064016103da565b600061183d612275565b60008181526005602052604090205490915060ff161561189f5760405162461bcd60e51b815260206004820152601360248201527f5575696420616c7265616479206578697374730000000000000000000000000060448201526064016103da565b6118ab81868686612312565b6118b581866124c8565b600081815260036020908152604091829020825160a0810184528154815260018201546001600160a01b03811693820193909352600160a01b90920460ff1615158284015282516080810190935260028101805492939192606085019291908290829061192190612b6b565b80601f016020809104026020016040519081016040528092919081815260200182805461194d90612b6b565b801561199a5780601f1061196f5761010080835404028352916020019161199a565b820191906000526020600020905b81548152906001019060200180831161197d57829003601f168201915b505050505081526020016001820180546119b390612b6b565b80601f01602080910402602001604051908101604052809291908181526020018280546119df90612b6b565b8015611a2c5780601f10611a0157610100808354040283529160200191611a2c565b820191906000526020600020905b815481529060010190602001808311611a0f57829003601f168201915b50505050508152602001600282018054611a4590612b6b565b80601f0160208091040260200160405190810160405280929190818152602001828054611a7190612b6b565b8015611abe5780601f10611a9357610100808354040283529160200191611abe565b820191906000526020600020905b815481529060010190602001808311611aa157829003601f168201915b50505050508152602001600382018054611ad790612b6b565b80601f0160208091040260200160405190810160405280929190818152602001828054611b0390612b6b565b8015611b505780601f10611b2557610100808354040283529160200191611b50565b820191906000526020600020905b815481529060010190602001808311611b3357829003601f168201915b5050509190925250505081526040805160e0810182526006840154815260078401546001600160a01b031660208083019190915260088501549282019290925260098401546060820152600a8401546080820152600b84015460a0820152600c9093015460c0840152015295945050505050565b611bcc610e37565b603a805460ff191660011790557f62e78cea01bee320cd4e420270b5ea74000d11b0c9f74754ebdbfc544b05a258610b823390565b6000818152600360209081526040808320815160a0810183528154815260018201546001600160a01b03811694820194909452600160a01b90930460ff161515838301528151608081019092526002810180549192606085019290919082908290611c6b90612b6b565b80601f0160208091040260200160405190810160405280929190818152602001828054611c9790612b6b565b8015611ce45780601f10611cb957610100808354040283529160200191611ce4565b820191906000526020600020905b815481529060010190602001808311611cc757829003601f168201915b50505050508152602001600182018054611cfd90612b6b565b80601f0160208091040260200160405190810160405280929190818152602001828054611d2990612b6b565b8015611d765780601f10611d4b57610100808354040283529160200191611d76565b820191906000526020600020905b815481529060010190602001808311611d5957829003601f168201915b50505050508152602001600282018054611d8f90612b6b565b80601f0160208091040260200160405190810160405280929190818152602001828054611dbb90612b6b565b8015611e085780601f10611ddd57610100808354040283529160200191611e08565b820191906000526020600020905b815481529060010190602001808311611deb57829003601f168201915b50505050508152602001600382018054611e2190612b6b565b80601f0160208091040260200160405190810160405280929190818152602001828054611e4d90612b6b565b8015611e9a5780601f10611e6f57610100808354040283529160200191611e9a565b820191906000526020600020905b815481529060010190602001808311611e7d57829003601f168201915b5050509190925250505081526040805160e0810182526006840154815260078401546001600160a01b031660208281019190915260088501548284015260098501546060830152600a850154608080840191909152600b86015460a0840152600c9095015460c083015290920191909152908201510151909150600003611f635760405162461bcd60e51b815260206004820152601260248201527f506f6f6c20646f65736e2774206578697374000000000000000000000000000060448201526064016103da565b60408101511515600114611fb95760405162461bcd60e51b815260206004820152601860248201527f506f6f6c20697320616c726561647920696e616374697665000000000000000060448201526064016103da565b6000604080830182815260808401514260a0909101528483526003602090815291909220835181559083015160018201805493511515600160a01b0274ffffffffffffffffffffffffffffffffffffffffff199094166001600160a01b0390921691909117929092179091556060820151805183929190600283019081906120419082612c7e565b50602082015160018201906120569082612c7e565b506040820151600282019061206b9082612c7e565b50606082015160038201906120809082612c7e565b5050506080918201518051600683015560208101516007830180546001600160a01b039092166001600160a01b031990921691909117905560408082015160088401556060820151600984015592810151600a83015560a0810151600b83015560c00151600c90910155517f0522afc663a576de692143f1e714306778ade438ea7c739c3a3964bd78eb2cc69061212c90849033909182526001600160a01b0316602082015260400190565b60405180910390a15050565b603a5460ff166103305760405162461bcd60e51b815260206004820152601460248201527f5061757361626c653a206e6f742070617573656400000000000000000000000060448201526064016103da565b600754610100900460ff166121f55760405162461bcd60e51b815260206004820152602b60248201527f496e697469616c697a61626c653a20636f6e7472616374206973206e6f74206960448201526a6e697469616c697a696e6760a81b60648201526084016103da565b603a805460ff19169055565b600754610100900460ff1661226c5760405162461bcd60e51b815260206004820152602b60248201527f496e697469616c697a61626c653a20636f6e7472616374206973206e6f74206960448201526a6e697469616c697a696e6760a81b60648201526084016103da565b61033033610de5565b60408051436020820181905242928201839052600060608301819052929091839081906080016040516020818303038152906040528051906020012090505b60008181526005602052604090205460ff16156104ad57816122d581612d3e565b60408051602081018890529081018690526060810182905290935060800190506040516020818303038152906040528051906020012090506122b4565b6040805160a081018252858152336020808301918252600083850181815260608501888152608086018890528a8352600390935294902083518155915160018301805495511515600160a01b0274ffffffffffffffffffffffffffffffffffffffffff199096166001600160a01b0392909216919091179490941790935591518051919291600283019081906123a89082612c7e565b50602082015160018201906123bd9082612c7e565b50604082015160028201906123d29082612c7e565b50606082015160038201906123e79082612c7e565b50505060809182015180516006838101919091556020808301516007850180546001600160a01b0319166001600160a01b0390921691909117905560408084015160088601556060840151600986015594830151600a85015560a0830151600b85015560c090920151600c9093019290925560008781526005909152829020805460ff19166001179055859055517f3a21eb0a9afc1353da741f39aaea48014c074c6720b61baf41e1e18d6ae7b2fb906124a690869033908790612d57565b60405180910390a16124b88483612512565b6124c28482612559565b50505050565b60008281526004602052604090206124e08282612c7e565b507fa9397f16db6e1e1b43c1c813233f16139006d56a3d1a24412ebdfb0661b5bfff828260405161212c929190612d88565b7f764b3686bd9a8c04d487da87edb364f64d505149c22a8b2664d353539ecf6a3382826000015183602001518460400151856060015160405161212c959493929190612da1565b805160208083015160408085015160608087015160808089015160a0808b015160c0808d015189518f81529b8c019c909c526001600160a01b03909916978a0197909752938801949094528601528401529082015260e08101919091527fd3c186ca228d0fefdb5e931894eda7415bb30b75f95c5b4f41deee5da40f18d2906101000161212c565b6040518060a001604052806000801916815260200160006001600160a01b0316815260200160001515815260200161263a6040518060800160405280606081526020016060815260200160608152602001606081525090565b81526020016126886040518060e001604052806000815260200160006001600160a01b0316815260200160008152602001600081526020016000815260200160008152602001600081525090565b905290565b60006020828403121561269f57600080fd5b5035919050565b60e081016104ea8284805182526001600160a01b03602082015116602083015260408101516040830152606081015160608301526080810151608083015260a081015160a083015260c081015160c08301525050565b6001600160a01b038116811461048f57600080fd5b6000806040838503121561272457600080fd5b823561272f816126fc565b9150602083013561273f816126fc565b809150509250929050565b634e487b7160e01b600052604160045260246000fd5b6040516080810167ffffffffffffffff811182821017156127835761278361274a565b60405290565b600082601f83011261279a57600080fd5b813567ffffffffffffffff808211156127b5576127b561274a565b604051601f8301601f19908116603f011681019082821181831017156127dd576127dd61274a565b816040528381528660208588010111156127f657600080fd5b836020870160208301376000602085830101528094505050505092915050565b600060e0828403121561282857600080fd5b60405160e0810181811067ffffffffffffffff8211171561284b5761284b61274a565b604052823581529050806020830135612863816126fc565b8060208301525060408301356040820152606083013560608201526080830135608082015260a083013560a082015260c083013560c08201525092915050565b600080600061012084860312156128b957600080fd5b833567ffffffffffffffff808211156128d157600080fd5b6128dd87838801612789565b945060208601359150808211156128f357600080fd5b908501906080828803121561290757600080fd5b61290f612760565b82358281111561291e57600080fd5b61292a89828601612789565b82525060208301358281111561293f57600080fd5b61294b89828601612789565b60208301525060408301358281111561296357600080fd5b61296f89828601612789565b60408301525060608301358281111561298757600080fd5b61299389828601612789565b6060830152508094505050506129ac8560408601612816565b90509250925092565b6000815180845260005b818110156129db576020818501810151868301820152016129bf565b506000602082860101526020601f19601f83011685010191505092915050565b60208152815160208201526001600160a01b03602083015116604082015260408201511515606082015260006060830151610160608084015280516080610180850152612a4c6102008501826129b5565b9050602082015161017f1980868403016101a0870152612a6c83836129b5565b92506040840151915080868403016101c0870152612a8a83836129b5565b92506060840151935080868403016101e08701525050612aaa81836129b5565b9150506080840151612b0760a0850182805182526001600160a01b03602082015116602083015260408101516040830152606081015160608301526080810151608083015260a081015160a083015260c081015160c08301525050565b509392505050565b60008060408385031215612b2257600080fd5b82359150602083013561273f816126fc565b600060208284031215612b4657600080fd5b8135612b51816126fc565b9392505050565b602081526000612b5160208301846129b5565b600181811c90821680612b7f57607f821691505b602082108103612b9f57634e487b7160e01b600052602260045260246000fd5b50919050565b600060608284031215612bb757600080fd5b6040516060810181811067ffffffffffffffff82111715612bda57612bda61274a565b604052825181526020830151612bef816126fc565b60208201526040928301519281019290925250919050565b634e487b7160e01b600052601160045260246000fd5b808201808211156104ea576104ea612c07565b601f82111561046757600081815260208120601f850160051c81016020861015612c575750805b601f850160051c820191505b81811015612c7657828155600101612c63565b505050505050565b815167ffffffffffffffff811115612c9857612c9861274a565b612cac81612ca68454612b6b565b84612c30565b602080601f831160018114612ce15760008415612cc95750858301515b600019600386901b1c1916600185901b178555612c76565b600085815260208120601f198616915b82811015612d1057888601518255948401946001909101908401612cf1565b5085821015612d2e5787850151600019600388901b60f8161c191681555b5050505050600190811b01905550565b600060018201612d5057612d50612c07565b5060010190565b8381526001600160a01b0383166020820152606060408201526000612d7f60608301846129b5565b95945050505050565b8281526040602082015260006104ad60408301846129b5565b85815260a060208201526000612dba60a08301876129b5565b8281036040840152612dcc81876129b5565b90508281036060840152612de081866129b5565b90508281036080840152612df481856129b5565b9897505050505050505056fea2646970667358221220de5254bf7e683071315171975248335ace13b84ff518cbc10c72d1232bc14d8964736f6c63430008120033",
  "linkReferences": {},
  "deployedLinkReferences": {}
}