{
  "_format": "hh-sol-artifact-1",
  "contractName": "DynamicEscrowUpgradeable",
  "sourceName": "contracts/upgradeable/DynamicEscrowUpgradeable.sol",
  "abi": [
    {
      "anonymous": false,
      "inputs": [
        {
          "indexed": true,
          "internalType": "address",
          "name": "receiver",
          "type": "address"
        },
        {
          "indexed": false,
          "internalType": "uint256",
          "name": "weiAmount",
          "type": "uint256"
        },
        {
          "indexed": false,
          "internalType": "bytes32",
          "name": "poolId",
          "type": "bytes32"
        }
      ],
      "name": "Claimed",
      "type": "event"
    },
    {
      "anonymous": false,
      "inputs": [
        {
          "indexed": true,
          "internalType": "address",
          "name": "spender",
          "type": "address"
        },
        {
          "indexed": false,
          "internalType": "uint256",
          "name": "weiAmount",
          "type": "uint256"
        },
        {
          "indexed": false,
          "internalType": "bytes32",
          "name": "poolId",
          "type": "bytes32"
        }
      ],
      "name": "Deposited",
      "type": "event"
    },
    {
      "anonymous": false,
      "inputs": [
        {
          "indexed": false,
          "internalType": "uint8",
          "name": "version",
          "type": "uint8"
        }
      ],
      "name": "Initialized",
      "type": "event"
    },
    {
      "anonymous": false,
      "inputs": [
        {
          "indexed": true,
          "internalType": "address",
          "name": "previousOwner",
          "type": "address"
        },
        {
          "indexed": true,
          "internalType": "address",
          "name": "newOwner",
          "type": "address"
        }
      ],
      "name": "OwnershipTransferred",
      "type": "event"
    },
    {
      "anonymous": false,
      "inputs": [
        {
          "indexed": false,
          "internalType": "address",
          "name": "account",
          "type": "address"
        }
      ],
      "name": "Paused",
      "type": "event"
    },
    {
      "anonymous": false,
      "inputs": [
        {
          "indexed": false,
          "internalType": "address",
          "name": "account",
          "type": "address"
        }
      ],
      "name": "Unpaused",
      "type": "event"
    },
    {
      "anonymous": false,
      "inputs": [
        {
          "indexed": true,
          "internalType": "address",
          "name": "receiver",
          "type": "address"
        },
        {
          "indexed": false,
          "internalType": "uint256",
          "name": "weiAmount",
          "type": "uint256"
        },
        {
          "indexed": false,
          "internalType": "bytes32",
          "name": "poolId",
          "type": "bytes32"
        }
      ],
      "name": "Withdrawn",
      "type": "event"
    },
    {
      "inputs": [
        {
          "internalType": "address payable",
          "name": "receiver",
          "type": "address"
        },
        {
          "internalType": "bytes32",
          "name": "poolId",
          "type": "bytes32"
        },
        {
          "internalType": "uint256",
          "name": "amount",
          "type": "uint256"
        },
        {
          "internalType": "address",
          "name": "tokenAddress",
          "type": "address"
        },
        {
          "internalType": "uint256",
          "name": "nonce",
          "type": "uint256"
        },
        {
          "internalType": "bytes",
          "name": "sig",
          "type": "bytes"
        }
      ],
      "name": "claim",
      "outputs": [],
      "stateMutability": "nonpayable",
      "type": "function"
    },
    {
      "inputs": [
        {
          "internalType": "address",
          "name": "spender",
          "type": "address"
        },
        {
          "internalType": "bytes32",
          "name": "poolId",
          "type": "bytes32"
        },
        {
          "internalType": "uint256",
          "name": "amount",
          "type": "uint256"
        },
        {
          "internalType": "address",
          "name": "tokenAddress",
          "type": "address"
        }
      ],
      "name": "deposit",
      "outputs": [],
      "stateMutability": "payable",
      "type": "function"
    },
    {
      "inputs": [
        {
          "internalType": "address",
          "name": "payee",
          "type": "address"
        },
        {
          "internalType": "bytes32",
          "name": "poolId",
          "type": "bytes32"
        }
      ],
      "name": "depositsOf",
      "outputs": [
        {
          "components": [
            {
              "internalType": "uint256",
              "name": "weiAmount",
              "type": "uint256"
            },
            {
              "internalType": "address",
              "name": "tokenAddress",
              "type": "address"
            },
            {
              "internalType": "bytes32",
              "name": "poolId",
              "type": "bytes32"
            }
          ],
          "internalType": "struct IEscrow.DynamicDeposit",
          "name": "",
          "type": "tuple"
        }
      ],
      "stateMutability": "view",
      "type": "function"
    },
    {
      "inputs": [],
      "name": "getTrustedAccount",
      "outputs": [
        {
          "internalType": "address",
          "name": "",
          "type": "address"
        }
      ],
      "stateMutability": "view",
      "type": "function"
    },
    {
      "inputs": [
        {
          "internalType": "address",
          "name": "trustedAccountAddress",
          "type": "address"
        }
      ],
      "name": "initialize",
      "outputs": [],
      "stateMutability": "nonpayable",
      "type": "function"
    },
    {
      "inputs": [],
      "name": "owner",
      "outputs": [
        {
          "internalType": "address",
          "name": "",
          "type": "address"
        }
      ],
      "stateMutability": "view",
      "type": "function"
    },
    {
      "inputs": [],
      "name": "paused",
      "outputs": [
        {
          "internalType": "bool",
          "name": "",
          "type": "bool"
        }
      ],
      "stateMutability": "view",
      "type": "function"
    },
    {
      "inputs": [],
      "name": "renounceOwnership",
      "outputs": [],
      "stateMutability": "nonpayable",
      "type": "function"
    },
    {
      "inputs": [
        {
          "internalType": "address",
          "name": "newOwner",
          "type": "address"
        }
      ],
      "name": "transferOwnership",
      "outputs": [],
      "stateMutability": "nonpayable",
      "type": "function"
    },
    {
      "inputs": [
        {
          "internalType": "address payable",
          "name": "receiver",
          "type": "address"
        },
        {
          "internalType": "bytes32",
          "name": "poolId",
          "type": "bytes32"
        },
        {
          "internalType": "uint256",
          "name": "amount",
          "type": "uint256"
        }
      ],
      "name": "withdraw",
      "outputs": [],
      "stateMutability": "nonpayable",
      "type": "function"
    }
  ],
  "bytecode": "0x608060405234801561001057600080fd5b50611494806100206000396000f3fe6080604052600436106100b15760003560e01c80638da5cb5b11610069578063c4d66de81161004e578063c4d66de8146101c5578063dee8667f146101e5578063f2fde38b1461020357600080fd5b80638da5cb5b14610180578063aa5974d3146101b257600080fd5b80635c975abb1161009a5780635c975abb14610128578063715018a61461014b578063880d49ed1461016057600080fd5b80631aa9e742146100b65780632917173a14610106575b600080fd5b3480156100c257600080fd5b506100d66100d1366004611237565b610223565b60408051825181526020808401516001600160a01b03169082015291810151908201526060015b60405180910390f35b34801561011257600080fd5b50610126610121366004611263565b61028d565b005b34801561013457600080fd5b5060655460ff1660405190151581526020016100fd565b34801561015757600080fd5b5061012661048a565b34801561016c57600080fd5b5061012661017b3660046112ae565b61049e565b34801561018c57600080fd5b506033546001600160a01b03165b6040516001600160a01b0390911681526020016100fd565b6101266101c03660046113a0565b6106d6565b3480156101d157600080fd5b506101266101e03660046113ea565b610a7e565b3480156101f157600080fd5b5060c9546001600160a01b031661019a565b34801561020f57600080fd5b5061012661021e3660046113ea565b610bcf565b60408051606080820183526000808352602080840182905292840181905284815260ca83528381206001600160a01b038781168352908452908490208451928301855280548352600181015490911692820192909252600290910154918101919091525b92915050565b610295610c5f565b61029d610cb8565b600082815260ca602090815260408083203384529091529020600181015481546001600160a01b039091169083111561031d5760405162461bcd60e51b815260206004820152601060248201527f4e6f7420656e6f7567682066756e64730000000000000000000000000000000060448201526064015b60405180910390fd5b815483900361036a57600084815260ca60209081526040808320338452909152812081815560018101805473ffffffffffffffffffffffffffffffffffffffff1916905560020155610384565b8282600001600082825461037e919061140e565b90915550505b6001600160a01b0381166103ce576040516001600160a01b0386169084156108fc029085906000818181858888f193505050501580156103c8573d6000803e3d6000fd5b50610435565b60405163a9059cbb60e01b81526001600160a01b0386811660048301526024820185905282919082169063a9059cbb90604401600060405180830381600087803b15801561041b57600080fd5b505af115801561042f573d6000803e3d6000fd5b50505050505b60408051848152602081018690526001600160a01b038716917f510b30a02fc9b7506980950b9c615af8c13e88658555c0ea22acffd73d9ea222910160405180910390a250506104856001609755565b505050565b610492610d12565b61049c6000610d6c565b565b6104a6610c5f565b6104ae610cb8565b604080516bffffffffffffffffffffffff19606089901b16602080830191909152603482018790526054808301869052835180840390910181526074909201909252805191012060c9546001600160a01b031661050b8284610dcb565b6001600160a01b0316146105615760405162461bcd60e51b815260206004820152601860248201527f436c61696d3a20496e76616c6964207369676e617475726500000000000000006044820152606401610314565b600081815260cb6020526040902054156105bd5760405162461bcd60e51b815260206004820152601b60248201527f436c61696d3a204861736820616c726561647920636c61696d656400000000006044820152606401610314565b600081815260cb602052604090208590556001600160a01b038416610618576040516001600160a01b0388169086156108fc029087906000818181858888f19350505050158015610612573d6000803e3d6000fd5b5061067f565b60405163a9059cbb60e01b81526001600160a01b0388811660048301526024820187905285919082169063a9059cbb90604401600060405180830381600087803b15801561066557600080fd5b505af1158015610679573d6000803e3d6000fd5b50505050505b60408051868152602081018890526001600160a01b038916917fd95107f4584744c6c893a04c43058aadd1ce8aac8ca5d64140eaf277de6c1d57910160405180910390a2506106ce6001609755565b505050505050565b6106de610c5f565b6106e6610cb8565b600083815260ca602090815260408083206001600160a01b0380891685529083529281902081516060810183528154808252600183015490951693810193909352600201549082015290156107a35760405162461bcd60e51b815260206004820152602860248201527f41206465706f7369742077617320616c7265616479206d61646520666f72207460448201527f68697320706f6f6c0000000000000000000000000000000000000000000000006064820152608401610314565b6001600160a01b03821615610916576040517f70a082310000000000000000000000000000000000000000000000000000000081526001600160a01b03868116600483015283916000918316906370a08231906024016020604051808303816000875af1158015610818573d6000803e3d6000fd5b505050506040513d601f19601f8201168201806040525081019061083c919061142f565b90508481101561088e5760405162461bcd60e51b815260206004820152601460248201527f496e73756666696369656e742062616c616e63650000000000000000000000006044820152606401610314565b6040517f23b872dd0000000000000000000000000000000000000000000000000000000081526001600160a01b038881166004830152306024830152604482018790528316906323b872dd90606401600060405180830381600087803b1580156108f757600080fd5b505af115801561090b573d6000803e3d6000fd5b505050505050610965565b8234146109655760405162461bcd60e51b815260206004820152600e60248201527f496e76616c696420616d6f756e740000000000000000000000000000000000006044820152606401610314565b604080516060810182528481526001600160a01b03848116602080840191825283850189815260008a815260ca83528681208c861682529092529481208451808255925160018201805473ffffffffffffffffffffffffffffffffffffffff191691909516179093559351600290920191909155909103610a285760405162461bcd60e51b815260206004820181905260248201527f4661696c656420746f2073617665206465706f736974206f6e20636861696e216044820152606401610314565b60408051858152602081018790526001600160a01b038816917fd7eda976cf4919f13172eb15bb39c64cecb7172258c741dab31d14c855eff402910160405180910390a25050610a786001609755565b50505050565b600054610100900460ff1615808015610a9e5750600054600160ff909116105b80610ab85750303b158015610ab8575060005460ff166001145b610b2a5760405162461bcd60e51b815260206004820152602e60248201527f496e697469616c697a61626c653a20636f6e747261637420697320616c72656160448201527f647920696e697469616c697a65640000000000000000000000000000000000006064820152608401610314565b6000805460ff191660011790558015610b4d576000805461ff0019166101001790555b610b55610def565b610b5d610e62565b60c9805473ffffffffffffffffffffffffffffffffffffffff19166001600160a01b0384161790558015610bcb576000805461ff0019169055604051600181527f7f26b83ff96e1f2b6a682f133852f6798a09c465da95921460cefb38474024989060200160405180910390a15b5050565b610bd7610d12565b6001600160a01b038116610c535760405162461bcd60e51b815260206004820152602660248201527f4f776e61626c653a206e6577206f776e657220697320746865207a65726f206160448201527f64647265737300000000000000000000000000000000000000000000000000006064820152608401610314565b610c5c81610d6c565b50565b600260975403610cb15760405162461bcd60e51b815260206004820152601f60248201527f5265656e7472616e637947756172643a207265656e7472616e742063616c6c006044820152606401610314565b6002609755565b60655460ff161561049c5760405162461bcd60e51b815260206004820152601060248201527f5061757361626c653a20706175736564000000000000000000000000000000006044820152606401610314565b6001609755565b6033546001600160a01b0316331461049c5760405162461bcd60e51b815260206004820181905260248201527f4f776e61626c653a2063616c6c6572206973206e6f7420746865206f776e65726044820152606401610314565b603380546001600160a01b0383811673ffffffffffffffffffffffffffffffffffffffff19831681179093556040519116919082907f8be0079c531659141344cd1fd0a4f28419497f9722a3daafe3b4186f6b6457e090600090a35050565b6000806000610dda8585610ed5565b91509150610de781610f1a565b509392505050565b600054610100900460ff16610e5a5760405162461bcd60e51b815260206004820152602b60248201527f496e697469616c697a61626c653a20636f6e7472616374206973206e6f74206960448201526a6e697469616c697a696e6760a81b6064820152608401610314565b61049c61107f565b600054610100900460ff16610ecd5760405162461bcd60e51b815260206004820152602b60248201527f496e697469616c697a61626c653a20636f6e7472616374206973206e6f74206960448201526a6e697469616c697a696e6760a81b6064820152608401610314565b61049c6110f3565b6000808251604103610f0b5760208301516040840151606085015160001a610eff8782858561115e565b94509450505050610f13565b506000905060025b9250929050565b6000816004811115610f2e57610f2e611448565b03610f365750565b6001816004811115610f4a57610f4a611448565b03610f975760405162461bcd60e51b815260206004820152601860248201527f45434453413a20696e76616c6964207369676e617475726500000000000000006044820152606401610314565b6002816004811115610fab57610fab611448565b03610ff85760405162461bcd60e51b815260206004820152601f60248201527f45434453413a20696e76616c6964207369676e6174757265206c656e677468006044820152606401610314565b600381600481111561100c5761100c611448565b03610c5c5760405162461bcd60e51b815260206004820152602260248201527f45434453413a20696e76616c6964207369676e6174757265202773272076616c60448201527f75650000000000000000000000000000000000000000000000000000000000006064820152608401610314565b600054610100900460ff166110ea5760405162461bcd60e51b815260206004820152602b60248201527f496e697469616c697a61626c653a20636f6e7472616374206973206e6f74206960448201526a6e697469616c697a696e6760a81b6064820152608401610314565b61049c33610d6c565b600054610100900460ff16610d0b5760405162461bcd60e51b815260206004820152602b60248201527f496e697469616c697a61626c653a20636f6e7472616374206973206e6f74206960448201526a6e697469616c697a696e6760a81b6064820152608401610314565b6000807f7fffffffffffffffffffffffffffffff5d576e7357a4501ddfe92f46681b20a08311156111955750600090506003611219565b6040805160008082526020820180845289905260ff881692820192909252606081018690526080810185905260019060a0016020604051602081039080840390855afa1580156111e9573d6000803e3d6000fd5b5050604051601f1901519150506001600160a01b03811661121257600060019250925050611219565b9150600090505b94509492505050565b6001600160a01b0381168114610c5c57600080fd5b6000806040838503121561124a57600080fd5b823561125581611222565b946020939093013593505050565b60008060006060848603121561127857600080fd5b833561128381611222565b95602085013595506040909401359392505050565b634e487b7160e01b600052604160045260246000fd5b60008060008060008060c087890312156112c757600080fd5b86356112d281611222565b9550602087013594506040870135935060608701356112f081611222565b92506080870135915060a087013567ffffffffffffffff8082111561131457600080fd5b818901915089601f83011261132857600080fd5b81358181111561133a5761133a611298565b604051601f8201601f19908116603f0116810190838211818310171561136257611362611298565b816040528281528c602084870101111561137b57600080fd5b8260208601602083013760006020848301015280955050505050509295509295509295565b600080600080608085870312156113b657600080fd5b84356113c181611222565b9350602085013592506040850135915060608501356113df81611222565b939692955090935050565b6000602082840312156113fc57600080fd5b813561140781611222565b9392505050565b8181038181111561028757634e487b7160e01b600052601160045260246000fd5b60006020828403121561144157600080fd5b5051919050565b634e487b7160e01b600052602160045260246000fdfea2646970667358221220015f39e83d13f0bd8b60339952209ef8685a88103ae031f048c6193218bbad2d64736f6c63430008120033",
  "linkReferences": {},
  "deployedLinkReferences": {}
}