{
  "_format": "hh-sol-artifact-1",
  "contractName": "DynamicEscrowUpgradeable",
  "sourceName": "contracts/upgradeable/DynamicEscrowUpgradeable.sol",
  "abi": [
    {
      "anonymous": false,
      "inputs": [
        {
          "indexed": true,
          "internalType": "address",
          "name": "receiver",
          "type": "address"
        },
        {
          "indexed": false,
          "internalType": "uint256",
          "name": "weiAmount",
          "type": "uint256"
        },
        {
          "indexed": false,
          "internalType": "bytes32",
          "name": "poolId",
          "type": "bytes32"
        }
      ],
      "name": "Claimed",
      "type": "event"
    },
    {
      "anonymous": false,
      "inputs": [
        {
          "indexed": true,
          "internalType": "address",
          "name": "spender",
          "type": "address"
        },
        {
          "indexed": false,
          "internalType": "uint256",
          "name": "weiAmount",
          "type": "uint256"
        },
        {
          "indexed": false,
          "internalType": "bytes32",
          "name": "poolId",
          "type": "bytes32"
        }
      ],
      "name": "Deposited",
      "type": "event"
    },
    {
      "anonymous": false,
      "inputs": [
        {
          "indexed": false,
          "internalType": "uint8",
          "name": "version",
          "type": "uint8"
        }
      ],
      "name": "Initialized",
      "type": "event"
    },
    {
      "anonymous": false,
      "inputs": [
        {
          "indexed": true,
          "internalType": "address",
          "name": "previousOwner",
          "type": "address"
        },
        {
          "indexed": true,
          "internalType": "address",
          "name": "newOwner",
          "type": "address"
        }
      ],
      "name": "OwnershipTransferred",
      "type": "event"
    },
    {
      "anonymous": false,
      "inputs": [
        {
          "indexed": false,
          "internalType": "address",
          "name": "account",
          "type": "address"
        }
      ],
      "name": "Paused",
      "type": "event"
    },
    {
      "anonymous": false,
      "inputs": [
        {
          "indexed": false,
          "internalType": "address",
          "name": "account",
          "type": "address"
        }
      ],
      "name": "Unpaused",
      "type": "event"
    },
    {
      "anonymous": false,
      "inputs": [
        {
          "indexed": true,
          "internalType": "address",
          "name": "receiver",
          "type": "address"
        },
        {
          "indexed": false,
          "internalType": "uint256",
          "name": "weiAmount",
          "type": "uint256"
        },
        {
          "indexed": false,
          "internalType": "bytes32",
          "name": "poolId",
          "type": "bytes32"
        }
      ],
      "name": "Withdrawn",
      "type": "event"
    },
    {
      "inputs": [
        {
          "internalType": "address payable",
          "name": "receiver",
          "type": "address"
        },
        {
          "internalType": "bytes32",
          "name": "poolId",
          "type": "bytes32"
        },
        {
          "internalType": "uint256",
          "name": "amount",
          "type": "uint256"
        },
        {
          "internalType": "address",
          "name": "tokenAddress",
          "type": "address"
        },
        {
          "internalType": "uint256",
          "name": "nonce",
          "type": "uint256"
        },
        {
          "internalType": "bytes",
          "name": "sig",
          "type": "bytes"
        }
      ],
      "name": "claim",
      "outputs": [],
      "stateMutability": "nonpayable",
      "type": "function"
    },
    {
      "inputs": [
        {
          "internalType": "address",
          "name": "spender",
          "type": "address"
        },
        {
          "internalType": "bytes32",
          "name": "poolId",
          "type": "bytes32"
        },
        {
          "internalType": "uint256",
          "name": "amount",
          "type": "uint256"
        },
        {
          "internalType": "address",
          "name": "tokenAddress",
          "type": "address"
        }
      ],
      "name": "deposit",
      "outputs": [],
      "stateMutability": "payable",
      "type": "function"
    },
    {
      "inputs": [
        {
          "internalType": "address",
          "name": "payee",
          "type": "address"
        },
        {
          "internalType": "bytes32",
          "name": "poolId",
          "type": "bytes32"
        }
      ],
      "name": "depositsOf",
      "outputs": [
        {
          "components": [
            {
              "internalType": "uint256",
              "name": "weiAmount",
              "type": "uint256"
            },
            {
              "internalType": "address",
              "name": "tokenAddress",
              "type": "address"
            },
            {
              "internalType": "bytes32",
              "name": "poolId",
              "type": "bytes32"
            }
          ],
          "internalType": "struct IEscrow.DynamicDeposit",
          "name": "",
          "type": "tuple"
        }
      ],
      "stateMutability": "view",
      "type": "function"
    },
    {
      "inputs": [],
      "name": "getRewarder",
      "outputs": [
        {
          "internalType": "address",
          "name": "",
          "type": "address"
        }
      ],
      "stateMutability": "view",
      "type": "function"
    },
    {
      "inputs": [],
      "name": "getTrustedAccount",
      "outputs": [
        {
          "internalType": "address",
          "name": "",
          "type": "address"
        }
      ],
      "stateMutability": "view",
      "type": "function"
    },
    {
      "inputs": [
        {
          "internalType": "address",
          "name": "rewarder",
          "type": "address"
        },
        {
          "internalType": "address",
          "name": "trustedAccountAddress",
          "type": "address"
        }
      ],
      "name": "initialize",
      "outputs": [],
      "stateMutability": "nonpayable",
      "type": "function"
    },
    {
      "inputs": [],
      "name": "owner",
      "outputs": [
        {
          "internalType": "address",
          "name": "",
          "type": "address"
        }
      ],
      "stateMutability": "view",
      "type": "function"
    },
    {
      "inputs": [],
      "name": "paused",
      "outputs": [
        {
          "internalType": "bool",
          "name": "",
          "type": "bool"
        }
      ],
      "stateMutability": "view",
      "type": "function"
    },
    {
      "inputs": [],
      "name": "renounceOwnership",
      "outputs": [],
      "stateMutability": "nonpayable",
      "type": "function"
    },
    {
      "inputs": [
        {
          "internalType": "address",
          "name": "newOwner",
          "type": "address"
        }
      ],
      "name": "transferOwnership",
      "outputs": [],
      "stateMutability": "nonpayable",
      "type": "function"
    },
    {
      "inputs": [
        {
          "internalType": "address payable",
          "name": "receiver",
          "type": "address"
        },
        {
          "internalType": "bytes32",
          "name": "poolId",
          "type": "bytes32"
        },
        {
          "internalType": "uint256",
          "name": "amount",
          "type": "uint256"
        }
      ],
      "name": "withdraw",
      "outputs": [],
      "stateMutability": "nonpayable",
      "type": "function"
    }
  ],
  "bytecode": "0x608060405234801561001057600080fd5b5061164c806100206000396000f3fe6080604052600436106100bc5760003560e01c8063880d49ed11610074578063aa5974d31161004e578063aa5974d314610258578063dee8667f1461026b578063f2fde38b1461028957600080fd5b8063880d49ed146101e85780638da5cb5b146102085780639015dcc91461023a57600080fd5b8063485cc955116100a5578063485cc955146101905780635c975abb146101b0578063715018a6146101d357600080fd5b80631aa9e742146100c15780632917173a1461016e575b600080fd5b3480156100cd57600080fd5b5061013e6100dc36600461134c565b60408051606080820183526000808352602080840182905292840181905293845260cb82528284206001600160a01b03958616855282529282902082519384018352805484526001810154909416908301526002909201549181019190915290565b60408051825181526020808401516001600160a01b03169082015291810151908201526060015b60405180910390f35b34801561017a57600080fd5b5061018e610189366004611378565b6102a9565b005b34801561019c57600080fd5b5061018e6101ab3660046113ad565b6104f2565b3480156101bc57600080fd5b5060655460ff166040519015158152602001610165565b3480156101df57600080fd5b5061018e610658565b3480156101f457600080fd5b5061018e6102033660046113fc565b61066c565b34801561021457600080fd5b506033546001600160a01b03165b6040516001600160a01b039091168152602001610165565b34801561024657600080fd5b5060c9546001600160a01b0316610222565b61018e6102663660046114ee565b6108a4565b34801561027757600080fd5b5060ca546001600160a01b0316610222565b34801561029557600080fd5b5061018e6102a4366004611538565b610c4c565b6102b1610cdc565b6102b9610d35565b600082815260cb602090815260408083203384529091529020600181015481546001600160a01b03909116908311156103395760405162461bcd60e51b815260206004820152601060248201527f4e6f7420656e6f7567682066756e64730000000000000000000000000000000060448201526064015b60405180910390fd5b60408051808201909152601081527f746f6b656e2061646472657373206973000000000000000000000000000000006020820152600183015461038591906001600160a01b0316610d88565b81548390036103d257600084815260cb60209081526040808320338452909152812081815560018101805473ffffffffffffffffffffffffffffffffffffffff19169055600201556103ec565b828260000160008282546103e6919061155c565b90915550505b6001600160a01b038116610436576040516001600160a01b0386169084156108fc029085906000818181858888f19350505050158015610430573d6000803e3d6000fd5b5061049d565b60405163a9059cbb60e01b81526001600160a01b0386811660048301526024820185905282919082169063a9059cbb90604401600060405180830381600087803b15801561048357600080fd5b505af1158015610497573d6000803e3d6000fd5b50505050505b60408051848152602081018690526001600160a01b038716917f510b30a02fc9b7506980950b9c615af8c13e88658555c0ea22acffd73d9ea222910160405180910390a250506104ed6001609755565b505050565b600054610100900460ff16158080156105125750600054600160ff909116105b8061052c5750303b15801561052c575060005460ff166001145b61059e5760405162461bcd60e51b815260206004820152602e60248201527f496e697469616c697a61626c653a20636f6e747261637420697320616c72656160448201527f647920696e697469616c697a65640000000000000000000000000000000000006064820152608401610330565b6000805460ff1916600117905580156105c1576000805461ff0019166101001790555b6105c9610e06565b6105d1610e79565b60c980546001600160a01b0380861673ffffffffffffffffffffffffffffffffffffffff199283161790925560ca80549285169290911691909117905580156104ed576000805461ff0019169055604051600181527f7f26b83ff96e1f2b6a682f133852f6798a09c465da95921460cefb38474024989060200160405180910390a1505050565b610660610eec565b61066a6000610f46565b565b610674610cdc565b61067c610d35565b604080516bffffffffffffffffffffffff19606089901b16602080830191909152603482018790526054808301869052835180840390910181526074909201909252805191012060ca546001600160a01b03166106d98284610fa5565b6001600160a01b03161461072f5760405162461bcd60e51b815260206004820152601860248201527f436c61696d3a20496e76616c6964207369676e617475726500000000000000006044820152606401610330565b600081815260cc60205260409020541561078b5760405162461bcd60e51b815260206004820152601b60248201527f436c61696d3a204861736820616c726561647920636c61696d656400000000006044820152606401610330565b600081815260cc602052604090208590556001600160a01b0384166107e6576040516001600160a01b0388169086156108fc029087906000818181858888f193505050501580156107e0573d6000803e3d6000fd5b5061084d565b60405163a9059cbb60e01b81526001600160a01b0388811660048301526024820187905285919082169063a9059cbb90604401600060405180830381600087803b15801561083357600080fd5b505af1158015610847573d6000803e3d6000fd5b50505050505b60408051868152602081018890526001600160a01b038916917fd95107f4584744c6c893a04c43058aadd1ce8aac8ca5d64140eaf277de6c1d57910160405180910390a25061089c6001609755565b505050505050565b6108ac610cdc565b6108b4610d35565b600083815260cb602090815260408083206001600160a01b0380891685529083529281902081516060810183528154808252600183015490951693810193909352600201549082015290156109715760405162461bcd60e51b815260206004820152602860248201527f41206465706f7369742077617320616c7265616479206d61646520666f72207460448201527f68697320706f6f6c0000000000000000000000000000000000000000000000006064820152608401610330565b6001600160a01b03821615610ae4576040517f70a082310000000000000000000000000000000000000000000000000000000081526001600160a01b03868116600483015283916000918316906370a08231906024016020604051808303816000875af11580156109e6573d6000803e3d6000fd5b505050506040513d601f19601f82011682018060405250810190610a0a9190611581565b905084811015610a5c5760405162461bcd60e51b815260206004820152601460248201527f496e73756666696369656e742062616c616e63650000000000000000000000006044820152606401610330565b6040517f23b872dd0000000000000000000000000000000000000000000000000000000081526001600160a01b038881166004830152306024830152604482018790528316906323b872dd90606401600060405180830381600087803b158015610ac557600080fd5b505af1158015610ad9573d6000803e3d6000fd5b505050505050610b33565b823414610b335760405162461bcd60e51b815260206004820152600e60248201527f496e76616c696420616d6f756e740000000000000000000000000000000000006044820152606401610330565b604080516060810182528481526001600160a01b03848116602080840191825283850189815260008a815260cb83528681208c861682529092529481208451808255925160018201805473ffffffffffffffffffffffffffffffffffffffff191691909516179093559351600290920191909155909103610bf65760405162461bcd60e51b815260206004820181905260248201527f4661696c656420746f2073617665206465706f736974206f6e20636861696e216044820152606401610330565b60408051858152602081018790526001600160a01b038816917fd7eda976cf4919f13172eb15bb39c64cecb7172258c741dab31d14c855eff402910160405180910390a25050610c466001609755565b50505050565b610c54610eec565b6001600160a01b038116610cd05760405162461bcd60e51b815260206004820152602660248201527f4f776e61626c653a206e6577206f776e657220697320746865207a65726f206160448201527f64647265737300000000000000000000000000000000000000000000000000006064820152608401610330565b610cd981610f46565b50565b600260975403610d2e5760405162461bcd60e51b815260206004820152601f60248201527f5265656e7472616e637947756172643a207265656e7472616e742063616c6c006044820152606401610330565b6002609755565b60655460ff161561066a5760405162461bcd60e51b815260206004820152601060248201527f5061757361626c653a20706175736564000000000000000000000000000000006044820152606401610330565b610dfb8282604051602401610d9e92919061159a565b60408051601f198184030181529190526020810180517bffffffffffffffffffffffffffffffffffffffffffffffffffffffff167f319af33300000000000000000000000000000000000000000000000000000000179052610fc9565b5050565b6001609755565b600054610100900460ff16610e715760405162461bcd60e51b815260206004820152602b60248201527f496e697469616c697a61626c653a20636f6e7472616374206973206e6f74206960448201526a6e697469616c697a696e6760a81b6064820152608401610330565b61066a610fea565b600054610100900460ff16610ee45760405162461bcd60e51b815260206004820152602b60248201527f496e697469616c697a61626c653a20636f6e7472616374206973206e6f74206960448201526a6e697469616c697a696e6760a81b6064820152608401610330565b61066a61105e565b6033546001600160a01b0316331461066a5760405162461bcd60e51b815260206004820181905260248201527f4f776e61626c653a2063616c6c6572206973206e6f7420746865206f776e65726044820152606401610330565b603380546001600160a01b0383811673ffffffffffffffffffffffffffffffffffffffff19831681179093556040519116919082907f8be0079c531659141344cd1fd0a4f28419497f9722a3daafe3b4186f6b6457e090600090a35050565b6000806000610fb485856110c9565b91509150610fc18161110e565b509392505050565b80516a636f6e736f6c652e6c6f67602083016000808483855afa5050505050565b600054610100900460ff166110555760405162461bcd60e51b815260206004820152602b60248201527f496e697469616c697a61626c653a20636f6e7472616374206973206e6f74206960448201526a6e697469616c697a696e6760a81b6064820152608401610330565b61066a33610f46565b600054610100900460ff16610dff5760405162461bcd60e51b815260206004820152602b60248201527f496e697469616c697a61626c653a20636f6e7472616374206973206e6f74206960448201526a6e697469616c697a696e6760a81b6064820152608401610330565b60008082516041036110ff5760208301516040840151606085015160001a6110f387828585611273565b94509450505050611107565b506000905060025b9250929050565b600081600481111561112257611122611600565b0361112a5750565b600181600481111561113e5761113e611600565b0361118b5760405162461bcd60e51b815260206004820152601860248201527f45434453413a20696e76616c6964207369676e617475726500000000000000006044820152606401610330565b600281600481111561119f5761119f611600565b036111ec5760405162461bcd60e51b815260206004820152601f60248201527f45434453413a20696e76616c6964207369676e6174757265206c656e677468006044820152606401610330565b600381600481111561120057611200611600565b03610cd95760405162461bcd60e51b815260206004820152602260248201527f45434453413a20696e76616c6964207369676e6174757265202773272076616c60448201527f75650000000000000000000000000000000000000000000000000000000000006064820152608401610330565b6000807f7fffffffffffffffffffffffffffffff5d576e7357a4501ddfe92f46681b20a08311156112aa575060009050600361132e565b6040805160008082526020820180845289905260ff881692820192909252606081018690526080810185905260019060a0016020604051602081039080840390855afa1580156112fe573d6000803e3d6000fd5b5050604051601f1901519150506001600160a01b0381166113275760006001925092505061132e565b9150600090505b94509492505050565b6001600160a01b0381168114610cd957600080fd5b6000806040838503121561135f57600080fd5b823561136a81611337565b946020939093013593505050565b60008060006060848603121561138d57600080fd5b833561139881611337565b95602085013595506040909401359392505050565b600080604083850312156113c057600080fd5b82356113cb81611337565b915060208301356113db81611337565b809150509250929050565b634e487b7160e01b600052604160045260246000fd5b60008060008060008060c0878903121561141557600080fd5b863561142081611337565b95506020870135945060408701359350606087013561143e81611337565b92506080870135915060a087013567ffffffffffffffff8082111561146257600080fd5b818901915089601f83011261147657600080fd5b813581811115611488576114886113e6565b604051601f8201601f19908116603f011681019083821181831017156114b0576114b06113e6565b816040528281528c60208487010111156114c957600080fd5b8260208601602083013760006020848301015280955050505050509295509295509295565b6000806000806080858703121561150457600080fd5b843561150f81611337565b93506020850135925060408501359150606085013561152d81611337565b939692955090935050565b60006020828403121561154a57600080fd5b813561155581611337565b9392505050565b60008282101561157c57634e487b7160e01b600052601160045260246000fd5b500390565b60006020828403121561159357600080fd5b5051919050565b604081526000835180604084015260005b818110156115c857602081870181015160608684010152016115ab565b818111156115da576000606083860101525b506001600160a01b0393909316602083015250601f91909101601f191601606001919050565b634e487b7160e01b600052602160045260246000fdfea2646970667358221220448d222134ae3353e96420f602fc3a012724b3c67b17bc2e84739e44468e7f2a64736f6c634300080e0033",
  "linkReferences": {},
  "deployedLinkReferences": {}
}