{
  "_format": "hh-sol-artifact-1",
  "contractName": "DynamicEscrowUpgradeable",
  "sourceName": "contracts/upgradeable/DynamicEscrowUpgradeable.sol",
  "abi": [
    {
      "anonymous": false,
      "inputs": [
        {
          "indexed": true,
          "internalType": "address",
          "name": "receiver",
          "type": "address"
        },
        {
          "indexed": false,
          "internalType": "uint256",
          "name": "weiAmount",
          "type": "uint256"
        },
        {
          "indexed": false,
          "internalType": "bytes32",
          "name": "poolId",
          "type": "bytes32"
        }
      ],
      "name": "Claimed",
      "type": "event"
    },
    {
      "anonymous": false,
      "inputs": [
        {
          "indexed": true,
          "internalType": "address",
          "name": "spender",
          "type": "address"
        },
        {
          "indexed": false,
          "internalType": "uint256",
          "name": "weiAmount",
          "type": "uint256"
        },
        {
          "indexed": false,
          "internalType": "bytes32",
          "name": "poolId",
          "type": "bytes32"
        }
      ],
      "name": "Deposited",
      "type": "event"
    },
    {
      "anonymous": false,
      "inputs": [
        {
          "indexed": false,
          "internalType": "uint8",
          "name": "version",
          "type": "uint8"
        }
      ],
      "name": "Initialized",
      "type": "event"
    },
    {
      "anonymous": false,
      "inputs": [
        {
          "indexed": true,
          "internalType": "address",
          "name": "previousOwner",
          "type": "address"
        },
        {
          "indexed": true,
          "internalType": "address",
          "name": "newOwner",
          "type": "address"
        }
      ],
      "name": "OwnershipTransferred",
      "type": "event"
    },
    {
      "anonymous": false,
      "inputs": [
        {
          "indexed": false,
          "internalType": "address",
          "name": "account",
          "type": "address"
        }
      ],
      "name": "Paused",
      "type": "event"
    },
    {
      "anonymous": false,
      "inputs": [
        {
          "indexed": false,
          "internalType": "address",
          "name": "account",
          "type": "address"
        }
      ],
      "name": "Unpaused",
      "type": "event"
    },
    {
      "anonymous": false,
      "inputs": [
        {
          "indexed": true,
          "internalType": "address",
          "name": "receiver",
          "type": "address"
        },
        {
          "indexed": false,
          "internalType": "uint256",
          "name": "weiAmount",
          "type": "uint256"
        },
        {
          "indexed": false,
          "internalType": "bytes32",
          "name": "poolId",
          "type": "bytes32"
        }
      ],
      "name": "Withdrawn",
      "type": "event"
    },
    {
      "inputs": [
        {
          "internalType": "address payable",
          "name": "receiver",
          "type": "address"
        },
        {
          "internalType": "bytes32",
          "name": "poolId",
          "type": "bytes32"
        },
        {
          "internalType": "uint256",
          "name": "amount",
          "type": "uint256"
        },
        {
          "internalType": "address",
          "name": "tokenAddress",
          "type": "address"
        },
        {
          "internalType": "uint256",
          "name": "nonce",
          "type": "uint256"
        },
        {
          "internalType": "bytes",
          "name": "sig",
          "type": "bytes"
        }
      ],
      "name": "claim",
      "outputs": [],
      "stateMutability": "nonpayable",
      "type": "function"
    },
    {
      "inputs": [
        {
          "internalType": "address",
          "name": "spender",
          "type": "address"
        },
        {
          "internalType": "bytes32",
          "name": "poolId",
          "type": "bytes32"
        },
        {
          "internalType": "uint256",
          "name": "amount",
          "type": "uint256"
        },
        {
          "internalType": "address",
          "name": "tokenAddress",
          "type": "address"
        }
      ],
      "name": "deposit",
      "outputs": [],
      "stateMutability": "payable",
      "type": "function"
    },
    {
      "inputs": [
        {
          "internalType": "address",
          "name": "payee",
          "type": "address"
        },
        {
          "internalType": "bytes32",
          "name": "poolId",
          "type": "bytes32"
        }
      ],
      "name": "depositsOf",
      "outputs": [
        {
          "components": [
            {
              "internalType": "uint256",
              "name": "weiAmount",
              "type": "uint256"
            },
            {
              "internalType": "address",
              "name": "tokenAddress",
              "type": "address"
            }
          ],
          "internalType": "struct IEscrow.DynamicDeposit",
          "name": "",
          "type": "tuple"
        }
      ],
      "stateMutability": "view",
      "type": "function"
    },
    {
      "inputs": [],
      "name": "getTrustedAccount",
      "outputs": [
        {
          "internalType": "address",
          "name": "",
          "type": "address"
        }
      ],
      "stateMutability": "view",
      "type": "function"
    },
    {
      "inputs": [
        {
          "internalType": "address",
          "name": "trustedAccountAddress",
          "type": "address"
        }
      ],
      "name": "initialize",
      "outputs": [],
      "stateMutability": "nonpayable",
      "type": "function"
    },
    {
      "inputs": [],
      "name": "owner",
      "outputs": [
        {
          "internalType": "address",
          "name": "",
          "type": "address"
        }
      ],
      "stateMutability": "view",
      "type": "function"
    },
    {
      "inputs": [],
      "name": "pause",
      "outputs": [],
      "stateMutability": "nonpayable",
      "type": "function"
    },
    {
      "inputs": [],
      "name": "paused",
      "outputs": [
        {
          "internalType": "bool",
          "name": "",
          "type": "bool"
        }
      ],
      "stateMutability": "view",
      "type": "function"
    },
    {
      "inputs": [],
      "name": "renounceOwnership",
      "outputs": [],
      "stateMutability": "nonpayable",
      "type": "function"
    },
    {
      "inputs": [
        {
          "internalType": "address",
          "name": "hypePool",
          "type": "address"
        }
      ],
      "name": "setHypePoolAddress",
      "outputs": [],
      "stateMutability": "nonpayable",
      "type": "function"
    },
    {
      "inputs": [
        {
          "internalType": "address",
          "name": "newOwner",
          "type": "address"
        }
      ],
      "name": "transferOwnership",
      "outputs": [],
      "stateMutability": "nonpayable",
      "type": "function"
    },
    {
      "inputs": [],
      "name": "unpause",
      "outputs": [],
      "stateMutability": "nonpayable",
      "type": "function"
    },
    {
      "inputs": [
        {
          "internalType": "address payable",
          "name": "receiver",
          "type": "address"
        },
        {
          "internalType": "bytes32",
          "name": "poolId",
          "type": "bytes32"
        },
        {
          "internalType": "uint256",
          "name": "amount",
          "type": "uint256"
        }
      ],
      "name": "withdraw",
      "outputs": [],
      "stateMutability": "nonpayable",
      "type": "function"
    }
  ],
  "bytecode": "0x608060405234801561001057600080fd5b50611967806100206000396000f3fe6080604052600436106100d25760003560e01c8063880d49ed1161007f578063c4d66de811610059578063c4d66de814610209578063ca72a6e514610229578063dee8667f14610249578063f2fde38b1461026757600080fd5b8063880d49ed146101a45780638da5cb5b146101c4578063aa5974d3146101f657600080fd5b80635c975abb116100b05780635c975abb14610157578063715018a61461017a5780638456cb591461018f57600080fd5b80631aa9e742146100d75780632917173a146101205780633f4ba83a14610142575b600080fd5b3480156100e357600080fd5b506100f76100f236600461162b565b610287565b60408051825181526020928301516001600160a01b031692810192909252015b60405180910390f35b34801561012c57600080fd5b5061014061013b366004611657565b6102d6565b005b34801561014e57600080fd5b50610140610300565b34801561016357600080fd5b5060685460ff166040519015158152602001610117565b34801561018657600080fd5b50610140610312565b34801561019b57600080fd5b50610140610324565b3480156101b057600080fd5b506101406101bf3660046116d3565b610334565b3480156101d057600080fd5b506036546001600160a01b03165b6040516001600160a01b039091168152602001610117565b6101406102043660046117a9565b61041f565b34801561021557600080fd5b506101406102243660046117f3565b61044b565b34801561023557600080fd5b506101406102443660046117f3565b61058f565b34801561025557600080fd5b5060cc546001600160a01b03166101de565b34801561027357600080fd5b506101406102823660046117f3565b6105b8565b6040805180820182526000808252602091820181905283815260018083528382206001600160a01b03878116845290845291849020845180860190955280548552015416908201525b92915050565b6102de610645565b6102e661069e565b6102f18383836106f1565b6102fb6001609a55565b505050565b61030861093d565b610310610997565b565b61031a61093d565b61031060006109e9565b61032c61093d565b610310610a3b565b61033c610645565b61034461069e565b604080516020808201889052606089901b6bffffffffffffffffffffffff191682840152605482018790526074808301869052835180840390910181526094909201909252805191012060cc546001600160a01b03166103a48284610a78565b6001600160a01b0316146103ff5760405162461bcd60e51b815260206004820152601860248201527f436c61696d3a20496e76616c6964207369676e6174757265000000000000000060448201526064015b60405180910390fd5b61040c8787878787610a9c565b506104176001609a55565b505050505050565b610427610645565b61042f61069e565b61043b84848484610c53565b6104456001609a55565b50505050565b600354610100900460ff161580801561046b5750600354600160ff909116105b806104855750303b158015610485575060035460ff166001145b6104f75760405162461bcd60e51b815260206004820152602e60248201527f496e697469616c697a61626c653a20636f6e747261637420697320616c72656160448201527f647920696e697469616c697a656400000000000000000000000000000000000060648201526084016103f6565b6003805460ff19166001179055801561051a576003805461ff0019166101001790555b610522611059565b61052a6110cc565b60cc80546001600160a01b0319166001600160a01b038416179055801561058b576003805461ff0019169055604051600181527f7f26b83ff96e1f2b6a682f133852f6798a09c465da95921460cefb38474024989060200160405180910390a15b5050565b61059761093d565b600080546001600160a01b0319166001600160a01b03831617905550565b50565b6105c061093d565b6001600160a01b03811661063c5760405162461bcd60e51b815260206004820152602660248201527f4f776e61626c653a206e6577206f776e657220697320746865207a65726f206160448201527f646472657373000000000000000000000000000000000000000000000000000060648201526084016103f6565b6105b5816109e9565b6002609a54036106975760405162461bcd60e51b815260206004820152601f60248201527f5265656e7472616e637947756172643a207265656e7472616e742063616c6c0060448201526064016103f6565b6002609a55565b60685460ff16156103105760405162461bcd60e51b815260206004820152601060248201527f5061757361626c653a207061757365640000000000000000000000000000000060448201526064016103f6565b6106fa8261113f565b61076c5760405162461bcd60e51b815260206004820152603b60248201527f57697468647261773a20506f6f6c20686173206e6f742079657420656e64656460448201527f206f7220677261636520706572696f64206e6f7420706173736564000000000060648201526084016103f6565b60008281526001602081815260408084203385529091529091209081015481546001600160a01b03909116908311156107e75760405162461bcd60e51b815260206004820152601060248201527f4e6f7420656e6f7567682066756e64730000000000000000000000000000000060448201526064016103f6565b815483900361082057600084815260016020818152604080842033855290915282209182550180546001600160a01b031916905561083a565b82826000016000828254610834919061182d565b90915550505b6001600160a01b038116610884576040516001600160a01b0386169084156108fc029085906000818181858888f1935050505015801561087e573d6000803e3d6000fd5b506108eb565b60405163a9059cbb60e01b81526001600160a01b0386811660048301526024820185905282919082169063a9059cbb90604401600060405180830381600087803b1580156108d157600080fd5b505af11580156108e5573d6000803e3d6000fd5b50505050505b60408051848152602081018690526001600160a01b038716917f510b30a02fc9b7506980950b9c615af8c13e88658555c0ea22acffd73d9ea222910160405180910390a25050505050565b6001609a55565b6036546001600160a01b031633146103105760405162461bcd60e51b815260206004820181905260248201527f4f776e61626c653a2063616c6c6572206973206e6f7420746865206f776e657260448201526064016103f6565b61099f611277565b6068805460ff191690557f5db9ee0a495bf2e6ff9c91a7834c1ba4fdd244a5e8aa4e537bd38aeae4b073aa335b6040516001600160a01b03909116815260200160405180910390a1565b603680546001600160a01b038381166001600160a01b0319831681179093556040519116919082907f8be0079c531659141344cd1fd0a4f28419497f9722a3daafe3b4186f6b6457e090600090a35050565b610a4361069e565b6068805460ff191660011790557f62e78cea01bee320cd4e420270b5ea74000d11b0c9f74754ebdbfc544b05a2586109cc3390565b6000806000610a8785856112c9565b91509150610a948161130e565b509392505050565b604080516020808201879052606088901b6bffffffffffffffffffffffff1916828401526054820186905260748083018590528351808403909101815260949092018352815191810191909120600081815260029092529190205415610b445760405162461bcd60e51b815260206004820152601b60248201527f436c61696d3a204861736820616c726561647920636c61696d6564000000000060448201526064016103f6565b60008181526002602052604090208490556001600160a01b038316610b9f576040516001600160a01b0387169085156108fc029086906000818181858888f19350505050158015610b99573d6000803e3d6000fd5b50610c06565b60405163a9059cbb60e01b81526001600160a01b0387811660048301526024820186905284919082169063a9059cbb90604401600060405180830381600087803b158015610bec57600080fd5b505af1158015610c00573d6000803e3d6000fd5b50505050505b60408051858152602081018790526001600160a01b038816917fd95107f4584744c6c893a04c43058aadd1ce8aac8ca5d64140eaf277de6c1d5791015b60405180910390a2505050505050565b60008381526001602081815260408084206001600160a01b03808a16865290835293819020815180830190925280548083529301549093169083015215610d025760405162461bcd60e51b815260206004820152602860248201527f41206465706f7369742077617320616c7265616479206d61646520666f72207460448201527f68697320706f6f6c00000000000000000000000000000000000000000000000060648201526084016103f6565b6001600160a01b03821615610f7d576040517f70a082310000000000000000000000000000000000000000000000000000000081526001600160a01b03868116600483015283916000918316906370a08231906024016020604051808303816000875af1158015610d77573d6000803e3d6000fd5b505050506040513d601f19601f82011682018060405250810190610d9b9190611840565b905084811015610ded5760405162461bcd60e51b815260206004820152601460248201527f496e73756666696369656e742062616c616e636500000000000000000000000060448201526064016103f6565b6040517fdd62ed3e0000000000000000000000000000000000000000000000000000000081526001600160a01b0388811660048301523060248301526000919084169063dd62ed3e906044016020604051808303816000875af1158015610e58573d6000803e3d6000fd5b505050506040513d601f19601f82011682018060405250810190610e7c9190611840565b905085811015610ef45760405162461bcd60e51b815260206004820152602b60248201527f436f6e7472616374206e6f7420616c6c6f77656420746f207370656e6420656e60448201527f6f75676820746f6b656e7300000000000000000000000000000000000000000060648201526084016103f6565b6040517f23b872dd0000000000000000000000000000000000000000000000000000000081526001600160a01b038981166004830152306024830152604482018890528416906323b872dd90606401600060405180830381600087803b158015610f5d57600080fd5b505af1158015610f71573d6000803e3d6000fd5b50505050505050610fcc565b823414610fcc5760405162461bcd60e51b815260206004820152600e60248201527f496e76616c696420616d6f756e7400000000000000000000000000000000000060448201526064016103f6565b6040805180820182528481526001600160a01b038481166020808401918252600089815260018083528682208c861680845290845291879020865181559351930180546001600160a01b0319169390941692909217909255835187815291820188905291927fd7eda976cf4919f13172eb15bb39c64cecb7172258c741dab31d14c855eff4029101610c43565b600354610100900460ff166110c45760405162461bcd60e51b815260206004820152602b60248201527f496e697469616c697a61626c653a20636f6e7472616374206973206e6f74206960448201526a6e697469616c697a696e6760a81b60648201526084016103f6565b610310611473565b600354610100900460ff166111375760405162461bcd60e51b815260206004820152602b60248201527f496e697469616c697a61626c653a20636f6e7472616374206973206e6f74206960448201526a6e697469616c697a696e6760a81b60648201526084016103f6565b6103106114e7565b600080546040517f23692edd000000000000000000000000000000000000000000000000000000008152600481018490526001600160a01b039091169081906323692edd90602401602060405180830381865afa1580156111a4573d6000803e3d6000fd5b505050506040513d601f19601f820116820180604052508101906111c89190611859565b6111d55750600092915050565b6040517f24bc5972000000000000000000000000000000000000000000000000000000008152600481018490526000906001600160a01b038316906324bc59729060240160e060405180830381865afa158015611236573d6000803e3d6000fd5b505050506040513d601f19601f8201168201806040525081019061125a919061187b565b60a00151905061126d8162093a80611908565b4211949350505050565b60685460ff166103105760405162461bcd60e51b815260206004820152601460248201527f5061757361626c653a206e6f742070617573656400000000000000000000000060448201526064016103f6565b60008082516041036112ff5760208301516040840151606085015160001a6112f387828585611552565b94509450505050611307565b506000905060025b9250929050565b60008160048111156113225761132261191b565b0361132a5750565b600181600481111561133e5761133e61191b565b0361138b5760405162461bcd60e51b815260206004820152601860248201527f45434453413a20696e76616c6964207369676e6174757265000000000000000060448201526064016103f6565b600281600481111561139f5761139f61191b565b036113ec5760405162461bcd60e51b815260206004820152601f60248201527f45434453413a20696e76616c6964207369676e6174757265206c656e6774680060448201526064016103f6565b60038160048111156114005761140061191b565b036105b55760405162461bcd60e51b815260206004820152602260248201527f45434453413a20696e76616c6964207369676e6174757265202773272076616c60448201527f756500000000000000000000000000000000000000000000000000000000000060648201526084016103f6565b600354610100900460ff166114de5760405162461bcd60e51b815260206004820152602b60248201527f496e697469616c697a61626c653a20636f6e7472616374206973206e6f74206960448201526a6e697469616c697a696e6760a81b60648201526084016103f6565b610310336109e9565b600354610100900460ff166109365760405162461bcd60e51b815260206004820152602b60248201527f496e697469616c697a61626c653a20636f6e7472616374206973206e6f74206960448201526a6e697469616c697a696e6760a81b60648201526084016103f6565b6000807f7fffffffffffffffffffffffffffffff5d576e7357a4501ddfe92f46681b20a0831115611589575060009050600361160d565b6040805160008082526020820180845289905260ff881692820192909252606081018690526080810185905260019060a0016020604051602081039080840390855afa1580156115dd573d6000803e3d6000fd5b5050604051601f1901519150506001600160a01b0381166116065760006001925092505061160d565b9150600090505b94509492505050565b6001600160a01b03811681146105b557600080fd5b6000806040838503121561163e57600080fd5b823561164981611616565b946020939093013593505050565b60008060006060848603121561166c57600080fd5b833561167781611616565b95602085013595506040909401359392505050565b634e487b7160e01b600052604160045260246000fd5b604051601f8201601f1916810167ffffffffffffffff811182821017156116cb576116cb61168c565b604052919050565b60008060008060008060c087890312156116ec57600080fd5b86356116f781611616565b9550602087810135955060408801359450606088013561171681611616565b93506080880135925060a088013567ffffffffffffffff8082111561173a57600080fd5b818a0191508a601f83011261174e57600080fd5b8135818111156117605761176061168c565b611772601f8201601f191685016116a2565b91508082528b8482850101111561178857600080fd5b80848401858401376000848284010152508093505050509295509295509295565b600080600080608085870312156117bf57600080fd5b84356117ca81611616565b9350602085013592506040850135915060608501356117e881611616565b939692955090935050565b60006020828403121561180557600080fd5b813561181081611616565b9392505050565b634e487b7160e01b600052601160045260246000fd5b818103818111156102d0576102d0611817565b60006020828403121561185257600080fd5b5051919050565b60006020828403121561186b57600080fd5b8151801515811461181057600080fd5b600060e0828403121561188d57600080fd5b60405160e0810181811067ffffffffffffffff821117156118b0576118b061168c565b6040528251815260208301516118c581611616565b8060208301525060408301516040820152606083015160608201526080830151608082015260a083015160a082015260c083015160c08201528091505092915050565b808201808211156102d0576102d0611817565b634e487b7160e01b600052602160045260246000fdfea26469706673582212208e17898a2b4b32e740ba047790b23366de6f93c3136c5e3c101137d3b39d3e1264736f6c63430008120033",
  "linkReferences": {},
  "deployedLinkReferences": {}
}