{
  "_format": "hh-sol-artifact-1",
  "contractName": "DynamicEscrowUpgradeable",
  "sourceName": "contracts/upgradeable/DynamicEscrowUpgradeable.sol",
  "abi": [
    {
      "anonymous": false,
      "inputs": [
        {
          "indexed": true,
          "internalType": "address",
          "name": "receiver",
          "type": "address"
        },
        {
          "indexed": false,
          "internalType": "uint256",
          "name": "weiAmount",
          "type": "uint256"
        },
        {
          "indexed": false,
          "internalType": "bytes32",
          "name": "poolId",
          "type": "bytes32"
        }
      ],
      "name": "Claimed",
      "type": "event"
    },
    {
      "anonymous": false,
      "inputs": [
        {
          "indexed": true,
          "internalType": "address",
          "name": "spender",
          "type": "address"
        },
        {
          "indexed": false,
          "internalType": "uint256",
          "name": "weiAmount",
          "type": "uint256"
        },
        {
          "indexed": false,
          "internalType": "bytes32",
          "name": "poolId",
          "type": "bytes32"
        }
      ],
      "name": "Deposited",
      "type": "event"
    },
    {
      "anonymous": false,
      "inputs": [
        {
          "indexed": false,
          "internalType": "uint8",
          "name": "version",
          "type": "uint8"
        }
      ],
      "name": "Initialized",
      "type": "event"
    },
    {
      "anonymous": false,
      "inputs": [
        {
          "indexed": true,
          "internalType": "address",
          "name": "previousOwner",
          "type": "address"
        },
        {
          "indexed": true,
          "internalType": "address",
          "name": "newOwner",
          "type": "address"
        }
      ],
      "name": "OwnershipTransferred",
      "type": "event"
    },
    {
      "anonymous": false,
      "inputs": [
        {
          "indexed": false,
          "internalType": "address",
          "name": "account",
          "type": "address"
        }
      ],
      "name": "Paused",
      "type": "event"
    },
    {
      "anonymous": false,
      "inputs": [
        {
          "indexed": false,
          "internalType": "address",
          "name": "account",
          "type": "address"
        }
      ],
      "name": "Unpaused",
      "type": "event"
    },
    {
      "anonymous": false,
      "inputs": [
        {
          "indexed": true,
          "internalType": "address",
          "name": "receiver",
          "type": "address"
        },
        {
          "indexed": false,
          "internalType": "uint256",
          "name": "weiAmount",
          "type": "uint256"
        },
        {
          "indexed": false,
          "internalType": "bytes32",
          "name": "poolId",
          "type": "bytes32"
        }
      ],
      "name": "Withdrawn",
      "type": "event"
    },
    {
      "inputs": [
        {
          "internalType": "address payable",
          "name": "receiver",
          "type": "address"
        },
        {
          "internalType": "bytes32",
          "name": "poolId",
          "type": "bytes32"
        },
        {
          "internalType": "uint256",
          "name": "amount",
          "type": "uint256"
        },
        {
          "internalType": "address",
          "name": "tokenAddress",
          "type": "address"
        },
        {
          "internalType": "uint256",
          "name": "nonce",
          "type": "uint256"
        },
        {
          "internalType": "bytes",
          "name": "sig",
          "type": "bytes"
        }
      ],
      "name": "claim",
      "outputs": [],
      "stateMutability": "nonpayable",
      "type": "function"
    },
    {
      "inputs": [
        {
          "internalType": "address",
          "name": "spender",
          "type": "address"
        },
        {
          "internalType": "bytes32",
          "name": "poolId",
          "type": "bytes32"
        },
        {
          "internalType": "uint256",
          "name": "amount",
          "type": "uint256"
        },
        {
          "internalType": "address",
          "name": "tokenAddress",
          "type": "address"
        }
      ],
      "name": "deposit",
      "outputs": [],
      "stateMutability": "payable",
      "type": "function"
    },
    {
      "inputs": [
        {
          "internalType": "address",
          "name": "payee",
          "type": "address"
        },
        {
          "internalType": "bytes32",
          "name": "poolId",
          "type": "bytes32"
        }
      ],
      "name": "depositsOf",
      "outputs": [
        {
          "components": [
            {
              "internalType": "uint256",
              "name": "weiAmount",
              "type": "uint256"
            },
            {
              "internalType": "address",
              "name": "tokenAddress",
              "type": "address"
            },
            {
              "internalType": "bytes32",
              "name": "poolId",
              "type": "bytes32"
            }
          ],
          "internalType": "struct IEscrow.DynamicDeposit",
          "name": "",
          "type": "tuple"
        }
      ],
      "stateMutability": "view",
      "type": "function"
    },
    {
      "inputs": [],
      "name": "getTrustedAccount",
      "outputs": [
        {
          "internalType": "address",
          "name": "",
          "type": "address"
        }
      ],
      "stateMutability": "view",
      "type": "function"
    },
    {
      "inputs": [
        {
          "internalType": "address",
          "name": "trustedAccountAddress",
          "type": "address"
        }
      ],
      "name": "initialize",
      "outputs": [],
      "stateMutability": "nonpayable",
      "type": "function"
    },
    {
      "inputs": [],
      "name": "owner",
      "outputs": [
        {
          "internalType": "address",
          "name": "",
          "type": "address"
        }
      ],
      "stateMutability": "view",
      "type": "function"
    },
    {
      "inputs": [],
      "name": "pause",
      "outputs": [],
      "stateMutability": "nonpayable",
      "type": "function"
    },
    {
      "inputs": [],
      "name": "paused",
      "outputs": [
        {
          "internalType": "bool",
          "name": "",
          "type": "bool"
        }
      ],
      "stateMutability": "view",
      "type": "function"
    },
    {
      "inputs": [],
      "name": "renounceOwnership",
      "outputs": [],
      "stateMutability": "nonpayable",
      "type": "function"
    },
    {
      "inputs": [
        {
          "internalType": "address",
          "name": "newOwner",
          "type": "address"
        }
      ],
      "name": "transferOwnership",
      "outputs": [],
      "stateMutability": "nonpayable",
      "type": "function"
    },
    {
      "inputs": [],
      "name": "unpause",
      "outputs": [],
      "stateMutability": "nonpayable",
      "type": "function"
    },
    {
      "inputs": [
        {
          "internalType": "address payable",
          "name": "receiver",
          "type": "address"
        },
        {
          "internalType": "bytes32",
          "name": "poolId",
          "type": "bytes32"
        },
        {
          "internalType": "uint256",
          "name": "amount",
          "type": "uint256"
        }
      ],
      "name": "withdraw",
      "outputs": [],
      "stateMutability": "nonpayable",
      "type": "function"
    }
  ],
  "bytecode": "0x608060405234801561001057600080fd5b50611647806100206000396000f3fe6080604052600436106100c75760003560e01c8063880d49ed11610074578063c4d66de81161004e578063c4d66de814610205578063dee8667f14610225578063f2fde38b1461024357600080fd5b8063880d49ed146101a05780638da5cb5b146101c0578063aa5974d3146101f257600080fd5b80635c975abb116100a55780635c975abb14610153578063715018a6146101765780638456cb591461018b57600080fd5b80631aa9e742146100cc5780632917173a1461011c5780633f4ba83a1461013e575b600080fd5b3480156100d857600080fd5b506100ec6100e73660046113ea565b610263565b60408051825181526020808401516001600160a01b03169082015291810151908201526060015b60405180910390f35b34801561012857600080fd5b5061013c610137366004611416565b6102d0565b005b34801561014a57600080fd5b5061013c6102fa565b34801561015f57600080fd5b5060675460ff166040519015158152602001610113565b34801561018257600080fd5b5061013c61030c565b34801561019757600080fd5b5061013c61031e565b3480156101ac57600080fd5b5061013c6101bb366004611461565b61032e565b3480156101cc57600080fd5b506035546001600160a01b03165b6040516001600160a01b039091168152602001610113565b61013c610200366004611553565b610416565b34801561021157600080fd5b5061013c61022036600461159d565b610442565b34801561023157600080fd5b5060cb546001600160a01b03166101da565b34801561024f57600080fd5b5061013c61025e36600461159d565b610593565b6040805160608101825260008082526020820181905291810191909152506000818152602081815260408083206001600160a01b03808716855290835292819020815160608101835281548152600182015490941692840192909252600290910154908201525b92915050565b6102d8610623565b6102e061067c565b6102eb8383836106cf565b6102f56001609955565b505050565b6103026108b0565b61030a61090a565b565b6103146108b0565b61030a600061095c565b6103266108b0565b61030a6109bb565b610336610623565b61033e61067c565b604080516bffffffffffffffffffffffff19606089901b16602080830191909152603482018790526054808301869052835180840390910181526074909201909252805191012060cb546001600160a01b031661039b82846109f8565b6001600160a01b0316146103f65760405162461bcd60e51b815260206004820152601860248201527f436c61696d3a20496e76616c6964207369676e6174757265000000000000000060448201526064015b60405180910390fd5b6104038787878787610a1c565b5061040e6001609955565b505050505050565b61041e610623565b61042661067c565b61043284848484610bd0565b61043c6001609955565b50505050565b600254610100900460ff16158080156104625750600254600160ff909116105b8061047c5750303b15801561047c575060025460ff166001145b6104ee5760405162461bcd60e51b815260206004820152602e60248201527f496e697469616c697a61626c653a20636f6e747261637420697320616c72656160448201527f647920696e697469616c697a656400000000000000000000000000000000000060648201526084016103ed565b6002805460ff191660011790558015610511576002805461ff0019166101001790555b610519610f50565b610521610fc3565b60cb805473ffffffffffffffffffffffffffffffffffffffff19166001600160a01b038416179055801561058f576002805461ff0019169055604051600181527f7f26b83ff96e1f2b6a682f133852f6798a09c465da95921460cefb38474024989060200160405180910390a15b5050565b61059b6108b0565b6001600160a01b0381166106175760405162461bcd60e51b815260206004820152602660248201527f4f776e61626c653a206e6577206f776e657220697320746865207a65726f206160448201527f646472657373000000000000000000000000000000000000000000000000000060648201526084016103ed565b6106208161095c565b50565b6002609954036106755760405162461bcd60e51b815260206004820152601f60248201527f5265656e7472616e637947756172643a207265656e7472616e742063616c6c0060448201526064016103ed565b6002609955565b60675460ff161561030a5760405162461bcd60e51b815260206004820152601060248201527f5061757361626c653a207061757365640000000000000000000000000000000060448201526064016103ed565b6000828152602081815260408083203384529091529020600181015481546001600160a01b03909116908311156107485760405162461bcd60e51b815260206004820152601060248201527f4e6f7420656e6f7567682066756e64730000000000000000000000000000000060448201526064016103ed565b815483900361079357600084815260208181526040808320338452909152812081815560018101805473ffffffffffffffffffffffffffffffffffffffff19169055600201556107ad565b828260000160008282546107a791906115c1565b90915550505b6001600160a01b0381166107f7576040516001600160a01b0386169084156108fc029085906000818181858888f193505050501580156107f1573d6000803e3d6000fd5b5061085e565b60405163a9059cbb60e01b81526001600160a01b0386811660048301526024820185905282919082169063a9059cbb90604401600060405180830381600087803b15801561084457600080fd5b505af1158015610858573d6000803e3d6000fd5b50505050505b60408051848152602081018690526001600160a01b038716917f510b30a02fc9b7506980950b9c615af8c13e88658555c0ea22acffd73d9ea222910160405180910390a25050505050565b6001609955565b6035546001600160a01b0316331461030a5760405162461bcd60e51b815260206004820181905260248201527f4f776e61626c653a2063616c6c6572206973206e6f7420746865206f776e657260448201526064016103ed565b610912611036565b6067805460ff191690557f5db9ee0a495bf2e6ff9c91a7834c1ba4fdd244a5e8aa4e537bd38aeae4b073aa335b6040516001600160a01b03909116815260200160405180910390a1565b603580546001600160a01b0383811673ffffffffffffffffffffffffffffffffffffffff19831681179093556040519116919082907f8be0079c531659141344cd1fd0a4f28419497f9722a3daafe3b4186f6b6457e090600090a35050565b6109c361067c565b6067805460ff191660011790557f62e78cea01bee320cd4e420270b5ea74000d11b0c9f74754ebdbfc544b05a25861093f3390565b6000806000610a078585611088565b91509150610a14816110cd565b509392505050565b604080516bffffffffffffffffffffffff19606088901b166020808301919091526034820186905260548083018590528351808403909101815260749092018352815191810191909120600081815260019092529190205415610ac15760405162461bcd60e51b815260206004820152601b60248201527f436c61696d3a204861736820616c726561647920636c61696d6564000000000060448201526064016103ed565b60008181526001602052604090208490556001600160a01b038316610b1c576040516001600160a01b0387169085156108fc029086906000818181858888f19350505050158015610b16573d6000803e3d6000fd5b50610b83565b60405163a9059cbb60e01b81526001600160a01b0387811660048301526024820186905284919082169063a9059cbb90604401600060405180830381600087803b158015610b6957600080fd5b505af1158015610b7d573d6000803e3d6000fd5b50505050505b60408051858152602081018790526001600160a01b038816917fd95107f4584744c6c893a04c43058aadd1ce8aac8ca5d64140eaf277de6c1d5791015b60405180910390a2505050505050565b6000838152602081815260408083206001600160a01b038089168552908352928190208151606081018352815480825260018301549095169381019390935260020154908201529015610c8b5760405162461bcd60e51b815260206004820152602860248201527f41206465706f7369742077617320616c7265616479206d61646520666f72207460448201527f68697320706f6f6c00000000000000000000000000000000000000000000000060648201526084016103ed565b6001600160a01b03821615610dfe576040517f70a082310000000000000000000000000000000000000000000000000000000081526001600160a01b03868116600483015283916000918316906370a08231906024016020604051808303816000875af1158015610d00573d6000803e3d6000fd5b505050506040513d601f19601f82011682018060405250810190610d2491906115e2565b905084811015610d765760405162461bcd60e51b815260206004820152601460248201527f496e73756666696369656e742062616c616e636500000000000000000000000060448201526064016103ed565b6040517f23b872dd0000000000000000000000000000000000000000000000000000000081526001600160a01b038881166004830152306024830152604482018790528316906323b872dd90606401600060405180830381600087803b158015610ddf57600080fd5b505af1158015610df3573d6000803e3d6000fd5b505050505050610e4d565b823414610e4d5760405162461bcd60e51b815260206004820152600e60248201527f496e76616c696420616d6f756e7400000000000000000000000000000000000060448201526064016103ed565b604080516060810182528481526001600160a01b03848116602080840191825283850189815260008a81528083528681208c861682529092529481208451808255925160018201805473ffffffffffffffffffffffffffffffffffffffff191691909516179093559351600290920191909155909103610f0f5760405162461bcd60e51b815260206004820181905260248201527f4661696c656420746f2073617665206465706f736974206f6e20636861696e2160448201526064016103ed565b60408051858152602081018790526001600160a01b038816917fd7eda976cf4919f13172eb15bb39c64cecb7172258c741dab31d14c855eff4029101610bc0565b600254610100900460ff16610fbb5760405162461bcd60e51b815260206004820152602b60248201527f496e697469616c697a61626c653a20636f6e7472616374206973206e6f74206960448201526a6e697469616c697a696e6760a81b60648201526084016103ed565b61030a611232565b600254610100900460ff1661102e5760405162461bcd60e51b815260206004820152602b60248201527f496e697469616c697a61626c653a20636f6e7472616374206973206e6f74206960448201526a6e697469616c697a696e6760a81b60648201526084016103ed565b61030a6112a6565b60675460ff1661030a5760405162461bcd60e51b815260206004820152601460248201527f5061757361626c653a206e6f742070617573656400000000000000000000000060448201526064016103ed565b60008082516041036110be5760208301516040840151606085015160001a6110b287828585611311565b945094505050506110c6565b506000905060025b9250929050565b60008160048111156110e1576110e16115fb565b036110e95750565b60018160048111156110fd576110fd6115fb565b0361114a5760405162461bcd60e51b815260206004820152601860248201527f45434453413a20696e76616c6964207369676e6174757265000000000000000060448201526064016103ed565b600281600481111561115e5761115e6115fb565b036111ab5760405162461bcd60e51b815260206004820152601f60248201527f45434453413a20696e76616c6964207369676e6174757265206c656e6774680060448201526064016103ed565b60038160048111156111bf576111bf6115fb565b036106205760405162461bcd60e51b815260206004820152602260248201527f45434453413a20696e76616c6964207369676e6174757265202773272076616c60448201527f756500000000000000000000000000000000000000000000000000000000000060648201526084016103ed565b600254610100900460ff1661129d5760405162461bcd60e51b815260206004820152602b60248201527f496e697469616c697a61626c653a20636f6e7472616374206973206e6f74206960448201526a6e697469616c697a696e6760a81b60648201526084016103ed565b61030a3361095c565b600254610100900460ff166108a95760405162461bcd60e51b815260206004820152602b60248201527f496e697469616c697a61626c653a20636f6e7472616374206973206e6f74206960448201526a6e697469616c697a696e6760a81b60648201526084016103ed565b6000807f7fffffffffffffffffffffffffffffff5d576e7357a4501ddfe92f46681b20a083111561134857506000905060036113cc565b6040805160008082526020820180845289905260ff881692820192909252606081018690526080810185905260019060a0016020604051602081039080840390855afa15801561139c573d6000803e3d6000fd5b5050604051601f1901519150506001600160a01b0381166113c5576000600192509250506113cc565b9150600090505b94509492505050565b6001600160a01b038116811461062057600080fd5b600080604083850312156113fd57600080fd5b8235611408816113d5565b946020939093013593505050565b60008060006060848603121561142b57600080fd5b8335611436816113d5565b95602085013595506040909401359392505050565b634e487b7160e01b600052604160045260246000fd5b60008060008060008060c0878903121561147a57600080fd5b8635611485816113d5565b9550602087013594506040870135935060608701356114a3816113d5565b92506080870135915060a087013567ffffffffffffffff808211156114c757600080fd5b818901915089601f8301126114db57600080fd5b8135818111156114ed576114ed61144b565b604051601f8201601f19908116603f011681019083821181831017156115155761151561144b565b816040528281528c602084870101111561152e57600080fd5b8260208601602083013760006020848301015280955050505050509295509295509295565b6000806000806080858703121561156957600080fd5b8435611574816113d5565b935060208501359250604085013591506060850135611592816113d5565b939692955090935050565b6000602082840312156115af57600080fd5b81356115ba816113d5565b9392505050565b818103818111156102ca57634e487b7160e01b600052601160045260246000fd5b6000602082840312156115f457600080fd5b5051919050565b634e487b7160e01b600052602160045260246000fdfea264697066735822122031d010fc1463edd02fd74433cb45cd8c86c4967273cfeb04dc2e7b7b8361aead64736f6c63430008120033",
  "linkReferences": {},
  "deployedLinkReferences": {}
}