{
  "_format": "hh-sol-artifact-1",
  "contractName": "DynamicEscrowUpgradeable",
  "sourceName": "contracts/upgradeable/DynamicEscrowUpgradeable.sol",
  "abi": [
    {
      "anonymous": false,
      "inputs": [
        {
          "indexed": true,
          "internalType": "address",
          "name": "receiver",
          "type": "address"
        },
        {
          "indexed": false,
          "internalType": "uint256",
          "name": "weiAmount",
          "type": "uint256"
        },
        {
          "indexed": false,
          "internalType": "uint256",
          "name": "poolId",
          "type": "uint256"
        }
      ],
      "name": "Claimed",
      "type": "event"
    },
    {
      "anonymous": false,
      "inputs": [
        {
          "indexed": true,
          "internalType": "address",
          "name": "spender",
          "type": "address"
        },
        {
          "indexed": false,
          "internalType": "uint256",
          "name": "weiAmount",
          "type": "uint256"
        },
        {
          "indexed": false,
          "internalType": "uint256",
          "name": "poolId",
          "type": "uint256"
        }
      ],
      "name": "Deposited",
      "type": "event"
    },
    {
      "anonymous": false,
      "inputs": [
        {
          "indexed": false,
          "internalType": "uint8",
          "name": "version",
          "type": "uint8"
        }
      ],
      "name": "Initialized",
      "type": "event"
    },
    {
      "anonymous": false,
      "inputs": [
        {
          "indexed": true,
          "internalType": "address",
          "name": "previousOwner",
          "type": "address"
        },
        {
          "indexed": true,
          "internalType": "address",
          "name": "newOwner",
          "type": "address"
        }
      ],
      "name": "OwnershipTransferred",
      "type": "event"
    },
    {
      "anonymous": false,
      "inputs": [
        {
          "indexed": false,
          "internalType": "address",
          "name": "account",
          "type": "address"
        }
      ],
      "name": "Paused",
      "type": "event"
    },
    {
      "anonymous": false,
      "inputs": [
        {
          "indexed": true,
          "internalType": "address",
          "name": "receiver",
          "type": "address"
        },
        {
          "indexed": false,
          "internalType": "uint256",
          "name": "weiAmount",
          "type": "uint256"
        },
        {
          "indexed": false,
          "internalType": "uint256",
          "name": "poolId",
          "type": "uint256"
        }
      ],
      "name": "RewardCredited",
      "type": "event"
    },
    {
      "anonymous": false,
      "inputs": [
        {
          "indexed": false,
          "internalType": "address",
          "name": "account",
          "type": "address"
        }
      ],
      "name": "Unpaused",
      "type": "event"
    },
    {
      "anonymous": false,
      "inputs": [
        {
          "indexed": true,
          "internalType": "address",
          "name": "receiver",
          "type": "address"
        },
        {
          "indexed": false,
          "internalType": "uint256",
          "name": "weiAmount",
          "type": "uint256"
        },
        {
          "indexed": false,
          "internalType": "uint256",
          "name": "poolId",
          "type": "uint256"
        }
      ],
      "name": "Withdrawn",
      "type": "event"
    },
    {
      "inputs": [
        {
          "internalType": "address payable",
          "name": "receiver",
          "type": "address"
        },
        {
          "internalType": "uint256",
          "name": "poolId",
          "type": "uint256"
        },
        {
          "internalType": "uint256",
          "name": "amount",
          "type": "uint256"
        },
        {
          "internalType": "address",
          "name": "tokenAddress",
          "type": "address"
        },
        {
          "internalType": "uint256",
          "name": "nonce",
          "type": "uint256"
        },
        {
          "internalType": "bytes",
          "name": "sig",
          "type": "bytes"
        }
      ],
      "name": "claim",
      "outputs": [],
      "stateMutability": "nonpayable",
      "type": "function"
    },
    {
      "inputs": [
        {
          "internalType": "address",
          "name": "spender",
          "type": "address"
        },
        {
          "internalType": "uint256",
          "name": "poolId",
          "type": "uint256"
        },
        {
          "internalType": "uint256",
          "name": "amount",
          "type": "uint256"
        },
        {
          "internalType": "address",
          "name": "tokenAddress",
          "type": "address"
        }
      ],
      "name": "deposit",
      "outputs": [],
      "stateMutability": "payable",
      "type": "function"
    },
    {
      "inputs": [
        {
          "internalType": "address",
          "name": "payee",
          "type": "address"
        },
        {
          "internalType": "uint256",
          "name": "poolId",
          "type": "uint256"
        }
      ],
      "name": "depositsOf",
      "outputs": [
        {
          "components": [
            {
              "internalType": "uint256",
              "name": "weiAmount",
              "type": "uint256"
            },
            {
              "internalType": "address",
              "name": "tokenAddress",
              "type": "address"
            },
            {
              "internalType": "uint256",
              "name": "poolId",
              "type": "uint256"
            }
          ],
          "internalType": "struct IEscrow.DynamicDeposit",
          "name": "",
          "type": "tuple"
        }
      ],
      "stateMutability": "view",
      "type": "function"
    },
    {
      "inputs": [],
      "name": "getRewarder",
      "outputs": [
        {
          "internalType": "address",
          "name": "",
          "type": "address"
        }
      ],
      "stateMutability": "view",
      "type": "function"
    },
    {
      "inputs": [],
      "name": "getTrustedAccount",
      "outputs": [
        {
          "internalType": "address",
          "name": "",
          "type": "address"
        }
      ],
      "stateMutability": "view",
      "type": "function"
    },
    {
      "inputs": [
        {
          "internalType": "address",
          "name": "rewarder",
          "type": "address"
        },
        {
          "internalType": "address",
          "name": "trustedAccountAddress",
          "type": "address"
        }
      ],
      "name": "initialize",
      "outputs": [],
      "stateMutability": "nonpayable",
      "type": "function"
    },
    {
      "inputs": [],
      "name": "owner",
      "outputs": [
        {
          "internalType": "address",
          "name": "",
          "type": "address"
        }
      ],
      "stateMutability": "view",
      "type": "function"
    },
    {
      "inputs": [],
      "name": "paused",
      "outputs": [
        {
          "internalType": "bool",
          "name": "",
          "type": "bool"
        }
      ],
      "stateMutability": "view",
      "type": "function"
    },
    {
      "inputs": [],
      "name": "renounceOwnership",
      "outputs": [],
      "stateMutability": "nonpayable",
      "type": "function"
    },
    {
      "inputs": [
        {
          "internalType": "address",
          "name": "newOwner",
          "type": "address"
        }
      ],
      "name": "transferOwnership",
      "outputs": [],
      "stateMutability": "nonpayable",
      "type": "function"
    },
    {
      "inputs": [
        {
          "internalType": "address payable",
          "name": "receiver",
          "type": "address"
        },
        {
          "internalType": "uint256",
          "name": "poolId",
          "type": "uint256"
        },
        {
          "internalType": "uint256",
          "name": "amount",
          "type": "uint256"
        }
      ],
      "name": "withdraw",
      "outputs": [],
      "stateMutability": "nonpayable",
      "type": "function"
    }
  ],
  "bytecode": "0x608060405234801561001057600080fd5b50613aa3806100206000396000f3fe6080604052600436106100bc5760003560e01c80639015dcc911610074578063ba7cfb441161004e578063ba7cfb4414610204578063dee8667f1461022d578063f2fde38b14610258576100bc565b80639015dcc914610173578063ae22192e1461019e578063b5c5f672146101db576100bc565b8063715018a6116100a5578063715018a6146101155780638b6099db1461012c5780638da5cb5b14610148576100bc565b8063485cc955146100c15780635c975abb146100ea575b600080fd5b3480156100cd57600080fd5b506100e860048036038101906100e39190612abd565b610281565b005b3480156100f657600080fd5b506100ff6105d7565b60405161010c9190612b18565b60405180910390f35b34801561012157600080fd5b5061012a6105ee565b005b61014660048036038101906101419190612b69565b610602565b005b34801561015457600080fd5b5061015d6110b5565b60405161016a9190612bdf565b60405180910390f35b34801561017f57600080fd5b506101886110df565b6040516101959190612bdf565b60405180910390f35b3480156101aa57600080fd5b506101c560048036038101906101c09190612bfa565b61118d565b6040516101d29190612c9a565b60405180910390f35b3480156101e757600080fd5b5061020260048036038101906101fd9190612cf3565b6112e6565b005b34801561021057600080fd5b5061022b60048036038101906102269190612e8c565b611b4e565b005b34801561023957600080fd5b5061024261209f565b60405161024f9190612bdf565b60405180910390f35b34801561026457600080fd5b5061027f600480360381019061027a9190612f35565b61214d565b005b60008060019054906101000a900460ff161590508080156102b25750600160008054906101000a900460ff1660ff16105b806102df57506102c1306121d0565b1580156102de5750600160008054906101000a900460ff1660ff16145b5b61031e576040517f08c379a000000000000000000000000000000000000000000000000000000000815260040161031590612fe5565b60405180910390fd5b60016000806101000a81548160ff021916908360ff160217905550801561035b576001600060016101000a81548160ff0219169083151502179055505b6103877f86cd54e6eaea48e6892d517f863873d27f74282d7b16af11ed9be7493f7ba91660001b6121f3565b6103b37f445a20e2788f3bc1f9bcd04372cb3d4686cd9dcd91c59c0b869f1fb6cc191f9560001b6121f3565b6103df7f365d929e8cb02f3de036c9ff417f5a052544f8552bd528e78562739a0e9d096d60001b6121f3565b6103e76121f6565b6104137f0e6869481fc214e1d840d0724f9ece1c7ba534c2911381007f1b614520af4f9060001b6121f3565b61043f7f269afc7241b6876315b1f983fbc505ee670c2314be6dfe421f45f7b2c9f3c51b60001b6121f3565b6104476122d3565b6104737f13cb9614cb147b43062fe67287b677c6b52bc67e86817ec172d48291f48605fa60001b6121f3565b61049f7fec28fb3937fb887f18679e1ba595e3332023f9574c4e3272e188723c544d801560001b6121f3565b8260c960006101000a81548173ffffffffffffffffffffffffffffffffffffffff021916908373ffffffffffffffffffffffffffffffffffffffff16021790555061050c7fca8e5b4b16aa7120acb25484665020160453906bcef25356c4aea7487b8c2d6560001b6121f3565b6105387ff0c382f02712bad9347c5c23116367089abac41f91a5dfefc61b7c613ecebb1c60001b6121f3565b8160ca60006101000a81548173ffffffffffffffffffffffffffffffffffffffff021916908373ffffffffffffffffffffffffffffffffffffffff16021790555080156105d25760008060016101000a81548160ff0219169083151502179055507f7f26b83ff96e1f2b6a682f133852f6798a09c465da95921460cefb384740249860016040516105c99190613057565b60405180910390a15b505050565b6000606560009054906101000a900460ff16905090565b6105f661232c565b61060060006123aa565b565b61060a612470565b6106126124bf565b61063e7f9ef1183f5e5650be962bf9ede3575533ce47eac7ec8fc16f3366c146f4d74bed60001b6121f3565b61066a7f57b55418f48b96a42d92fe3d86ff9c0af593dc275a4c92ce04602260a0e7a4e760001b6121f3565b6106967f090d8d392fbbf5e083b95c65d164c47295deae5107e437242edcdc6caf8e018560001b6121f3565b600060cb600085815260200190815260200160002060008673ffffffffffffffffffffffffffffffffffffffff1673ffffffffffffffffffffffffffffffffffffffff168152602001908152602001600020604051806060016040529081600082015481526020016001820160009054906101000a900473ffffffffffffffffffffffffffffffffffffffff1673ffffffffffffffffffffffffffffffffffffffff1673ffffffffffffffffffffffffffffffffffffffff168152602001600282015481525050905061078b7f2497ead4f3d99d1476f9a932231b01084d12c0a370eba0c95b8b20484c9b822760001b6121f3565b6107b77f3fc1a53b1638ac4e72356eddaecc9d0db3a1f0afcb4965bf37e0fa310754d8b560001b6121f3565b6107e37f6b76e96a341f832ad6c324ebae5fd5c419c0c986a8184e0f5a90c9eb92b26f9960001b6121f3565b600081600001511461082a576040517f08c379a0000000000000000000000000000000000000000000000000000000008152600401610821906130e4565b60405180910390fd5b6108567f5c88fbd52afd4bcf2f35908f3aeb71185def66e92a50ec513f89db4ea893dc4c60001b6121f3565b6108827f213f9a959ac60909fe062261a528977a7d6dd2437cbd8ef4082fc786a04bcdb260001b6121f3565b6108ae7f1e2d7a372f5e509c2c3191f73157584c279464a4e2bffa94418a72f4a56ee6f660001b6121f3565b600073ffffffffffffffffffffffffffffffffffffffff168273ffffffffffffffffffffffffffffffffffffffff1614610c045761090e7f01b6742c1632aeb4af43d23078578a2a25972b299a8f2c7231a009b6fdc4571360001b6121f3565b61093a7f8d3980af1db98452b2f80b09bf7d8135beb1f0001bc01d3b360921b5b36da3ff60001b6121f3565b6109667f19430df2faa4ab5e23a8f6a109818ad989d526a9119deaa046cf485118981a7660001b6121f3565b60008290506109977fcc2ec02c6580ebf185821abd3875d0e36cb3920cd34597baf5e85538b954c15d60001b6121f3565b6109c37fcfb78978c99bf769a3d90d34642a101996a2edc30835f210582f185c0fad1cc360001b6121f3565b60008173ffffffffffffffffffffffffffffffffffffffff166370a08231886040518263ffffffff1660e01b81526004016109fe9190612bdf565b6020604051808303816000875af1158015610a1d573d6000803e3d6000fd5b505050506040513d601f19601f82011682018060405250810190610a419190613119565b9050610a6f7fd74aaf204c378fd53d5ad2fe785533703f6dee52c60b988e791c7a25ee3c4d9a60001b6121f3565b610a9b7fc927a7ada5a4f014861fdf441d5370649754fa2e793f6ed8d97716efceb28f6960001b6121f3565b610ac77f629289f71a07e4dfab955807e055d56b575110ba71c72da66c54aa87f05eef8360001b6121f3565b84811015610b0a576040517f08c379a0000000000000000000000000000000000000000000000000000000008152600401610b0190613192565b60405180910390fd5b610b367f9bf60aaf216e7c7d4b66126f81a9bca1055d486692a83dcb4a874337c7c0c43a60001b6121f3565b610b627f7bc7bf42241c6b2f2fe3acf3712faab58c5d154f06222d7f4635995e937dc26760001b6121f3565b610b8e7fef271b6af9f38f2d9dee446a88912e68d91d8e2db146cc1b558d3f0ff291eb6f60001b6121f3565b8173ffffffffffffffffffffffffffffffffffffffff166323b872dd8830886040518463ffffffff1660e01b8152600401610bcb939291906131c1565b600060405180830381600087803b158015610be557600080fd5b505af1158015610bf9573d6000803e3d6000fd5b505050505050610d23565b610c307f07f0c409c85ab9f1dcf8047844a94e653b25a36795689153c8442f5283006a8f60001b6121f3565b610c5c7fc1e4802a619b3f5105020d45d8811feb277f8ad753727683bbf98ed33e7fa3f960001b6121f3565b610c887f61be7319c9e72607a5a6df6153488d1e1191dc4146c6b39048e1474fb2bd8dea60001b6121f3565b610cb47fbef3c32a47f218edaee06e417f9eea57e0a366c19111a395b8a5a9b66384c90c60001b6121f3565b823414610cf6576040517f08c379a0000000000000000000000000000000000000000000000000000000008152600401610ced90613244565b60405180910390fd5b610d227feb269b152cc9fbf70bae8d5c8605fe3751a63a4f575b69ad5381cab7707494d660001b6121f3565b5b610d4f7f598e970f558eee842a5002127562e7b7cdb191ee5cce7040583f3be26b2664e260001b6121f3565b610d7b7f077f3426c54bf1dcb858f0454c49f702e9d9f9c81bbd31ec7227aaf35e28e90260001b6121f3565b600060405180606001604052808581526020018473ffffffffffffffffffffffffffffffffffffffff168152602001868152509050610ddc7fc020cbdab17dba9318491d82b8458bdd376cbbe8d106379fc42259fe3d10077960001b6121f3565b610e087f52c7b9650de46d2d6bdf8fd96cd866b852f96429f22384843b02453fb38ca88360001b6121f3565b8060cb600087815260200190815260200160002060008873ffffffffffffffffffffffffffffffffffffffff1673ffffffffffffffffffffffffffffffffffffffff1681526020019081526020016000206000820151816000015560208201518160010160006101000a81548173ffffffffffffffffffffffffffffffffffffffff021916908373ffffffffffffffffffffffffffffffffffffffff16021790555060408201518160020155905050610ee37f89bb3ad0dce5c71e8ee129493e4c97ffae7cc65682e665d57a556d372629b0c960001b6121f3565b610f0f7f9e29735bc06545930c7b2ad5c38a125f16bf833ee937aaafb8676d6d84672cc460001b6121f3565b610f3b7fbe8f62d3f8cf21063061e2ccc383ab2b87b2085aad1fc8f24f7ff4b265936fe560001b6121f3565b600060cb600087815260200190815260200160002060008873ffffffffffffffffffffffffffffffffffffffff1673ffffffffffffffffffffffffffffffffffffffff1681526020019081526020016000206000015403610fd1576040517f08c379a0000000000000000000000000000000000000000000000000000000008152600401610fc8906132b0565b60405180910390fd5b610ffd7f657dc7525afcbc2fc99f6558a9a9dc4b93bd10b84d5c61a92a3549ae942be99060001b6121f3565b6110297f249f65fac7aa03522d76f187b7dfaa9e44eed9b4d982be8395fa7e886b53b33960001b6121f3565b6110557f4f6c57da0e114d09b0806717025643f60575e6e22665d4036d638a2b5d13bb6160001b6121f3565b8573ffffffffffffffffffffffffffffffffffffffff167f73a19dd210f1a7f902193214c0ee91dd35ee5b4d920cba8d519eca65a7b488ca858760405161109d9291906132d0565b60405180910390a250506110af612509565b50505050565b6000603360009054906101000a900473ffffffffffffffffffffffffffffffffffffffff16905090565b600061110d7f8dd0628ff10996c1c6cc29df71eb3be4e7530ea65f034fe462b267ec917997f660001b6121f3565b6111397fec99b1df6becbf13b82d6181efa682316c76640c2aa7ecefd461bbe8b158eba660001b6121f3565b6111657f5862a199a7aab2f46c0355393accd3e1e2153f012f51418bb738df911fd0a24460001b6121f3565b60c960009054906101000a900473ffffffffffffffffffffffffffffffffffffffff16905090565b611195612a14565b6111c17fc367fb2a5d6335457e242f2600fa4a329a16211cf1c4956b26e9b82338235de460001b6121f3565b6111ed7fe65ae9cbb6f233722e825e6efc42b5c0e803280c740b7858ccaa5e50ccf0706360001b6121f3565b6112197fcd6241249af95ac56f7903d35557ef6b804aede4f6f0811133186ff80b94d93860001b6121f3565b60cb600083815260200190815260200160002060008473ffffffffffffffffffffffffffffffffffffffff1673ffffffffffffffffffffffffffffffffffffffff168152602001908152602001600020604051806060016040529081600082015481526020016001820160009054906101000a900473ffffffffffffffffffffffffffffffffffffffff1673ffffffffffffffffffffffffffffffffffffffff1673ffffffffffffffffffffffffffffffffffffffff168152602001600282015481525050905092915050565b6112ee612470565b6112f66124bf565b6113227f7b7a7eb2ce7392a844febed50a6cdf238cc230e85962351b932b4d5fbb0aaf0060001b6121f3565b61134e7f47a1ed37beb9023a07723a137e401195423ae359aa08b8bf8e46586f80f3e86660001b6121f3565b61137a7fef77d754c3699d18e71e6dc5d32d8b7cc8a52e76de041b19b88df07c47783a3260001b6121f3565b600060cb600084815260200190815260200160002060003373ffffffffffffffffffffffffffffffffffffffff1673ffffffffffffffffffffffffffffffffffffffff16815260200190815260200160002090506113fa7fb37039bffb80a0cd1e4c3a038b390f17d6a8795c002f5ad77a5cfb991283776360001b6121f3565b6114267fc09df4a53d526ffb7578d9099506c7e798950eac40a1d28e81601a10b83ec88760001b6121f3565b60008160010160009054906101000a900473ffffffffffffffffffffffffffffffffffffffff16905061147b7f46f9caa15f4dd1c4a5699d32287652f43d536b2cb2d3e1eb91385f61add98fb260001b6121f3565b6114a77fa1022edb3e3cc8613e4ec93bc3a2276daac30a91fbf5f75764778e85b6989b5860001b6121f3565b6114d37fdb3c551f0d78bcb3e0aa3627f314b3cb1ca62c85de6a6a5ef35bbadc6e47676460001b6121f3565b828260000154101561151a576040517f08c379a000000000000000000000000000000000000000000000000000000000815260040161151190613345565b60405180910390fd5b6115467f29c8a018fbc3e25fe310213967456064f980f2b506624fd8572f91d8e411f9f360001b6121f3565b6115727fb642b3be7fc40cb7a81862af09df5255d03869d0823b4052b7c642e3767a18b760001b6121f3565b61159e7f1c341a53f4941a1181fd44a8376b0ea848cd3624012ce02a0e50d475fd482c0560001b6121f3565b6116016040518060400160405280601081526020017f746f6b656e2061646472657373206973000000000000000000000000000000008152508360010160009054906101000a900473ffffffffffffffffffffffffffffffffffffffff16612513565b61162d7fac127fb4401becf2eaca24d534f254022ed692b7499944769f5fa3ccb2e206ca60001b6121f3565b6116597fdc5831b559a250e5105d02c314b9679edc2a0a188795a55a7308fa6d894bc5ca60001b6121f3565b8282600001540361174b576116907fb321af18b85f37b3fdebf476266a734317f25d3610d8a60013f28bdf16598b4060001b6121f3565b6116bc7f24de5a5543df41461f60685b578452f0df2ef2b413da4dee8dfc92feaa01729c60001b6121f3565b60cb600085815260200190815260200160002060003373ffffffffffffffffffffffffffffffffffffffff1673ffffffffffffffffffffffffffffffffffffffff1681526020019081526020016000206000808201600090556001820160006101000a81549073ffffffffffffffffffffffffffffffffffffffff0219169055600282016000905550506117eb565b6117777f1400d292bc614318b2290fc7340d196eb7321a6652a9ed086040584737be6f2f60001b6121f3565b6117a37f95d5e33945e111d0d046b92586a52e6375d5cd0e9f02633fea256fce5461d17f60001b6121f3565b6117cf7f9f81919d69735ddf857705a605b312659e45d1628d4b8d0b1bae8312f8413bba60001b6121f3565b828260000160008282546117e39190613394565b925050819055505b6118177f700a0613839c2b3fec7ead46c939e39d156680fc0da1e0c2d0c468c9b84e101560001b6121f3565b6118437fe366a2f04afdb4bfa61ac8d1674a53670e0a21da5e74596197a7cb4cbdb701eb60001b6121f3565b600073ffffffffffffffffffffffffffffffffffffffff168173ffffffffffffffffffffffffffffffffffffffff1603611947576118a37f9685118904800afd82a8b7b2b36bf5a729453bdfc8ac84ae8d917fd6feb7f6b960001b6121f3565b6118cf7fb31a94f4aa4f7b63cb2507fed878be2dfbd13fddc13488d99307984b19ba3b8e60001b6121f3565b6118fb7f83b75ad5369b6979e096cf7e9586f65c3327b194164453f53fc59124050a4d1460001b6121f3565b8473ffffffffffffffffffffffffffffffffffffffff166108fc849081150290604051600060405180830381858888f19350505050158015611941573d6000803e3d6000fd5b50611a97565b6119737ffeafce07548c0c09fb4580d38364ccb78d892198209e4bfd676115ee2969d07360001b6121f3565b61199f7fb817269b6853fa5c403e3d1b2d4842080324b8a5005f802d540df3e97e85d48060001b6121f3565b6119cb7fafd29710954172882da5c380dc5f2244ac2d5ab5130e684f206d0b01dbd59e1460001b6121f3565b60008190506119fc7f1e51d883d5ccec0ce62edd46afb6b9f7e07d69bfc449940a19a3b6892172356360001b6121f3565b611a287f688bdd557e06e76edae8767dc6f4fdba83d2fd09ce58c53460af60b86d592a6660001b6121f3565b8073ffffffffffffffffffffffffffffffffffffffff1663a9059cbb87866040518363ffffffff1660e01b8152600401611a6392919061341d565b600060405180830381600087803b158015611a7d57600080fd5b505af1158015611a91573d6000803e3d6000fd5b50505050505b611ac37f5fead574dd4c66a5611b9f4ec7a02b32dfcee0754fd41813f4a830d416b1e52960001b6121f3565b611aef7f68dece68a0a4b42d481f6b03c2cb4e7cd07bae1db3431673b957b4abe0a86dd060001b6121f3565b8473ffffffffffffffffffffffffffffffffffffffff167f92ccf450a286a957af52509bc1c9939d1a6a481783e142e41e2499f0bb66ebc68486604051611b379291906132d0565b60405180910390a25050611b49612509565b505050565b611b56612470565b611b5e6124bf565b611b8a7f7d253c4517b3ca11e57743cdd373a98548fff17755189c6f0515765143a099df60001b6121f3565b611bb67fc653a2e20e5b489d65789233d37cf0293f930ecfaaeb25b9a0e2f8c3840c644f60001b6121f3565b611be27f4e2c9c818c98440dd4770c68cd93a9488eb22531e1af2388ee297ba31d07fbad60001b6121f3565b6000611bef8786856125af565b9050611c1d7fe3b8d72937f41915dcb781ff6481d6d937f708bf7533fafb78d53be49f291f0360001b6121f3565b611c497f2f8b43e8e32274b99e6de2407ba9590ca2836d551fb69447bea4fbd783a768c160001b6121f3565b611c757f5bdc586b78de46ab8eb996076387ab0e90a7325be6d8479e7e2f7f7f562b8bb560001b6121f3565b60ca60009054906101000a900473ffffffffffffffffffffffffffffffffffffffff1673ffffffffffffffffffffffffffffffffffffffff16611cb88284612669565b73ffffffffffffffffffffffffffffffffffffffff1614611d0e576040517f08c379a0000000000000000000000000000000000000000000000000000000008152600401611d0590613492565b60405180910390fd5b611d3a7f65ef869b1476391728853ae5f512a8431d1db464681d0c7257d0c54ef86a4a9b60001b6121f3565b611d667fb686ce4128ee3f7794818edca68357623acae41c7b49a56e8a35f61686c2f0f360001b6121f3565b611d927f7c07a63d845e63b1915c83d33191b644c9db450824c2506db327694402f5259d60001b6121f3565b600073ffffffffffffffffffffffffffffffffffffffff168473ffffffffffffffffffffffffffffffffffffffff1603611e9657611df27f190515de83d5c7690b391e4e14aa11e3a2e9e5b0f5d5ead8521db636ec67df5d60001b6121f3565b611e1e7fa5e62c089db31ba03cff1d738206339af635e3c92716f8bc6ca441f05d361e6760001b6121f3565b611e4a7f4818b65c7873224531e4453707acaf7249c5bc11676e97d76bb8c4268de4c2b360001b6121f3565b8673ffffffffffffffffffffffffffffffffffffffff166108fc869081150290604051600060405180830381858888f19350505050158015611e90573d6000803e3d6000fd5b50611fe6565b611ec27f25924d7eb958ec8597e5807bde242ce4135756f8e0aa4fb099cb2b46937d385e60001b6121f3565b611eee7fe1aa6f42c8d0fdea7f28ca6e492d609e05428ca42b703a5cc474d1af08f6c20f60001b6121f3565b611f1a7fc76cce38054a3167d010a5b9646c22eff9c9a4f021a4ee8eefdc6f776550d5ff60001b6121f3565b6000849050611f4b7fff5a46d30611e12e927f4219c22fc59d537632e2be20ab7afd839746078eab8f60001b6121f3565b611f777f9d3ffeee4d00cc6c35d909addb1f70b3ad3614f411d0ea4666bab787750d42de60001b6121f3565b8073ffffffffffffffffffffffffffffffffffffffff1663a9059cbb89886040518363ffffffff1660e01b8152600401611fb292919061341d565b600060405180830381600087803b158015611fcc57600080fd5b505af1158015611fe0573d6000803e3d6000fd5b50505050505b6120127faedeb7dc02f373efb4b25ce59917e0c6f386c8b497d15499b0a6544809d3eb0460001b6121f3565b61203e7ffd80322b6f31b6f0a5419dbbf93a382a821cbb975a34846c1faf2481acc78fb460001b6121f3565b8673ffffffffffffffffffffffffffffffffffffffff167f987d620f307ff6b94d58743cb7a7509f24071586a77759b77c2d4e29f75a2f9a86886040516120869291906132d0565b60405180910390a250612097612509565b505050505050565b60006120cd7f4bbcca9d7c84a7bf68c1ea611d721e7e4ece54c9f1caede87c2c3fb456168e3560001b6121f3565b6120f97f0888abe7f282dc964daec9c7ea4ce4b3fa51dc9f5403ee8ebff03bb25733cc6660001b6121f3565b6121257fea6b7f8c49c89163c9b584a004051223198aa61be6155e2a512ed3ce53e9cb3560001b6121f3565b60ca60009054906101000a900473ffffffffffffffffffffffffffffffffffffffff16905090565b61215561232c565b600073ffffffffffffffffffffffffffffffffffffffff168173ffffffffffffffffffffffffffffffffffffffff16036121c4576040517f08c379a00000000000000000000000000000000000000000000000000000000081526004016121bb90613524565b60405180910390fd5b6121cd816123aa565b50565b6000808273ffffffffffffffffffffffffffffffffffffffff163b119050919050565b50565b600060019054906101000a900460ff16612245576040517f08c379a000000000000000000000000000000000000000000000000000000000815260040161223c906135b6565b60405180910390fd5b6122717f2f49e00dc85a4e609e17110dbab46804a60023f82eb0b3f100eba568368aefa760001b6121f3565b61229d7fed9da731e4ab852c562a18e217f0a55ba880a963576fb169b707751761444ce360001b6121f3565b6122c97fd4fa41a7e41bd7f5dc533edf11ad81a54f028b288fbfdd27099deed27ce7476360001b6121f3565b6122d1612690565b565b600060019054906101000a900460ff16612322576040517f08c379a0000000000000000000000000000000000000000000000000000000008152600401612319906135b6565b60405180910390fd5b61232a6126f1565b565b61233461274a565b73ffffffffffffffffffffffffffffffffffffffff166123526110b5565b73ffffffffffffffffffffffffffffffffffffffff16146123a8576040517f08c379a000000000000000000000000000000000000000000000000000000000815260040161239f90613622565b60405180910390fd5b565b6000603360009054906101000a900473ffffffffffffffffffffffffffffffffffffffff16905081603360006101000a81548173ffffffffffffffffffffffffffffffffffffffff021916908373ffffffffffffffffffffffffffffffffffffffff1602179055508173ffffffffffffffffffffffffffffffffffffffff168173ffffffffffffffffffffffffffffffffffffffff167f8be0079c531659141344cd1fd0a4f28419497f9722a3daafe3b4186f6b6457e060405160405180910390a35050565b6002609754036124b5576040517f08c379a00000000000000000000000000000000000000000000000000000000081526004016124ac9061368e565b60405180910390fd5b6002609781905550565b6124c76105d7565b15612507576040517f08c379a00000000000000000000000000000000000000000000000000000000081526004016124fe906136fa565b60405180910390fd5b565b6001609781905550565b6125ab8282604051602401612529929190613791565b6040516020818303038152906040527f319af333000000000000000000000000000000000000000000000000000000007bffffffffffffffffffffffffffffffffffffffffffffffffffffffff19166020820180517bffffffffffffffffffffffffffffffffffffffffffffffffffffffff8381831617835250505050612752565b5050565b60006125dd7f5bdd749c110d69d66dc925104c33e99e5fa54653164559faedfb2ff19a53541360001b6121f3565b6126097fce1bb04bd70d715c9d9916c29ccaa1d5242883003fb27ea9a248bb556e20fdc360001b6121f3565b6126357f78849ed8c0500a665516566995a9633ed123b5b749be61c3810b92ed778d4f1d60001b6121f3565b83838360405160200161264a9392919061382a565b6040516020818303038152906040528051906020012090509392505050565b6000806000612678858561277b565b91509150612685816127cc565b819250505092915050565b600060019054906101000a900460ff166126df576040517f08c379a00000000000000000000000000000000000000000000000000000000081526004016126d6906135b6565b60405180910390fd5b6126ef6126ea61274a565b6123aa565b565b600060019054906101000a900460ff16612740576040517f08c379a0000000000000000000000000000000000000000000000000000000008152600401612737906135b6565b60405180910390fd5b6001609781905550565b600033905090565b60008151905060006a636f6e736f6c652e6c6f679050602083016000808483855afa5050505050565b60008060418351036127bc5760008060006020860151925060408601519150606086015160001a90506127b087828585612932565b945094505050506127c5565b60006002915091505b9250929050565b600060048111156127e0576127df613867565b5b8160048111156127f3576127f2613867565b5b031561292f576001600481111561280d5761280c613867565b5b8160048111156128205761281f613867565b5b03612860576040517f08c379a0000000000000000000000000000000000000000000000000000000008152600401612857906138e2565b60405180910390fd5b6002600481111561287457612873613867565b5b81600481111561288757612886613867565b5b036128c7576040517f08c379a00000000000000000000000000000000000000000000000000000000081526004016128be9061394e565b60405180910390fd5b600360048111156128db576128da613867565b5b8160048111156128ee576128ed613867565b5b0361292e576040517f08c379a0000000000000000000000000000000000000000000000000000000008152600401612925906139e0565b60405180910390fd5b5b50565b6000807f7fffffffffffffffffffffffffffffff5d576e7357a4501ddfe92f46681b20a08360001c111561296d576000600391509150612a0b565b6000600187878787604051600081526020016040526040516129929493929190613a28565b6020604051602081039080840390855afa1580156129b4573d6000803e3d6000fd5b505050602060405103519050600073ffffffffffffffffffffffffffffffffffffffff168173ffffffffffffffffffffffffffffffffffffffff1603612a0257600060019250925050612a0b565b80600092509250505b94509492505050565b604051806060016040528060008152602001600073ffffffffffffffffffffffffffffffffffffffff168152602001600081525090565b6000604051905090565b600080fd5b600080fd5b600073ffffffffffffffffffffffffffffffffffffffff82169050919050565b6000612a8a82612a5f565b9050919050565b612a9a81612a7f565b8114612aa557600080fd5b50565b600081359050612ab781612a91565b92915050565b60008060408385031215612ad457612ad3612a55565b5b6000612ae285828601612aa8565b9250506020612af385828601612aa8565b9150509250929050565b60008115159050919050565b612b1281612afd565b82525050565b6000602082019050612b2d6000830184612b09565b92915050565b6000819050919050565b612b4681612b33565b8114612b5157600080fd5b50565b600081359050612b6381612b3d565b92915050565b60008060008060808587031215612b8357612b82612a55565b5b6000612b9187828801612aa8565b9450506020612ba287828801612b54565b9350506040612bb387828801612b54565b9250506060612bc487828801612aa8565b91505092959194509250565b612bd981612a7f565b82525050565b6000602082019050612bf46000830184612bd0565b92915050565b60008060408385031215612c1157612c10612a55565b5b6000612c1f85828601612aa8565b9250506020612c3085828601612b54565b9150509250929050565b612c4381612b33565b82525050565b612c5281612a7f565b82525050565b606082016000820151612c6e6000850182612c3a565b506020820151612c816020850182612c49565b506040820151612c946040850182612c3a565b50505050565b6000606082019050612caf6000830184612c58565b92915050565b6000612cc082612a5f565b9050919050565b612cd081612cb5565b8114612cdb57600080fd5b50565b600081359050612ced81612cc7565b92915050565b600080600060608486031215612d0c57612d0b612a55565b5b6000612d1a86828701612cde565b9350506020612d2b86828701612b54565b9250506040612d3c86828701612b54565b9150509250925092565b600080fd5b600080fd5b6000601f19601f8301169050919050565b7f4e487b7100000000000000000000000000000000000000000000000000000000600052604160045260246000fd5b612d9982612d50565b810181811067ffffffffffffffff82111715612db857612db7612d61565b5b80604052505050565b6000612dcb612a4b565b9050612dd78282612d90565b919050565b600067ffffffffffffffff821115612df757612df6612d61565b5b612e0082612d50565b9050602081019050919050565b82818337600083830152505050565b6000612e2f612e2a84612ddc565b612dc1565b905082815260208101848484011115612e4b57612e4a612d4b565b5b612e56848285612e0d565b509392505050565b600082601f830112612e7357612e72612d46565b5b8135612e83848260208601612e1c565b91505092915050565b60008060008060008060c08789031215612ea957612ea8612a55565b5b6000612eb789828a01612cde565b9650506020612ec889828a01612b54565b9550506040612ed989828a01612b54565b9450506060612eea89828a01612aa8565b9350506080612efb89828a01612b54565b92505060a087013567ffffffffffffffff811115612f1c57612f1b612a5a565b5b612f2889828a01612e5e565b9150509295509295509295565b600060208284031215612f4b57612f4a612a55565b5b6000612f5984828501612aa8565b91505092915050565b600082825260208201905092915050565b7f496e697469616c697a61626c653a20636f6e747261637420697320616c72656160008201527f647920696e697469616c697a6564000000000000000000000000000000000000602082015250565b6000612fcf602e83612f62565b9150612fda82612f73565b604082019050919050565b60006020820190508181036000830152612ffe81612fc2565b9050919050565b6000819050919050565b600060ff82169050919050565b6000819050919050565b600061304161303c61303784613005565b61301c565b61300f565b9050919050565b61305181613026565b82525050565b600060208201905061306c6000830184613048565b92915050565b7f41206465706f7369742077617320616c7265616479206d61646520666f72207460008201527f68697320706f6f6c000000000000000000000000000000000000000000000000602082015250565b60006130ce602883612f62565b91506130d982613072565b604082019050919050565b600060208201905081810360008301526130fd816130c1565b9050919050565b60008151905061311381612b3d565b92915050565b60006020828403121561312f5761312e612a55565b5b600061313d84828501613104565b91505092915050565b7f496e73756666696369656e742062616c616e6365000000000000000000000000600082015250565b600061317c601483612f62565b915061318782613146565b602082019050919050565b600060208201905081810360008301526131ab8161316f565b9050919050565b6131bb81612b33565b82525050565b60006060820190506131d66000830186612bd0565b6131e36020830185612bd0565b6131f060408301846131b2565b949350505050565b7f496e76616c696420616d6f756e74000000000000000000000000000000000000600082015250565b600061322e600e83612f62565b9150613239826131f8565b602082019050919050565b6000602082019050818103600083015261325d81613221565b9050919050565b7f4661696c656420746f2073617665206465706f736974206f6e20636861696e21600082015250565b600061329a602083612f62565b91506132a582613264565b602082019050919050565b600060208201905081810360008301526132c98161328d565b9050919050565b60006040820190506132e560008301856131b2565b6132f260208301846131b2565b9392505050565b7f4e6f7420656e6f7567682066756e647300000000000000000000000000000000600082015250565b600061332f601083612f62565b915061333a826132f9565b602082019050919050565b6000602082019050818103600083015261335e81613322565b9050919050565b7f4e487b7100000000000000000000000000000000000000000000000000000000600052601160045260246000fd5b600061339f82612b33565b91506133aa83612b33565b9250828210156133bd576133bc613365565b5b828203905092915050565b60006133e36133de6133d984612a5f565b61301c565b612a5f565b9050919050565b60006133f5826133c8565b9050919050565b6000613407826133ea565b9050919050565b613417816133fc565b82525050565b6000604082019050613432600083018561340e565b61343f60208301846131b2565b9392505050565b7f436c61696d3a20496e76616c6964207369676e61747572650000000000000000600082015250565b600061347c601883612f62565b915061348782613446565b602082019050919050565b600060208201905081810360008301526134ab8161346f565b9050919050565b7f4f776e61626c653a206e6577206f776e657220697320746865207a65726f206160008201527f6464726573730000000000000000000000000000000000000000000000000000602082015250565b600061350e602683612f62565b9150613519826134b2565b604082019050919050565b6000602082019050818103600083015261353d81613501565b9050919050565b7f496e697469616c697a61626c653a20636f6e7472616374206973206e6f74206960008201527f6e697469616c697a696e67000000000000000000000000000000000000000000602082015250565b60006135a0602b83612f62565b91506135ab82613544565b604082019050919050565b600060208201905081810360008301526135cf81613593565b9050919050565b7f4f776e61626c653a2063616c6c6572206973206e6f7420746865206f776e6572600082015250565b600061360c602083612f62565b9150613617826135d6565b602082019050919050565b6000602082019050818103600083015261363b816135ff565b9050919050565b7f5265656e7472616e637947756172643a207265656e7472616e742063616c6c00600082015250565b6000613678601f83612f62565b915061368382613642565b602082019050919050565b600060208201905081810360008301526136a78161366b565b9050919050565b7f5061757361626c653a2070617573656400000000000000000000000000000000600082015250565b60006136e4601083612f62565b91506136ef826136ae565b602082019050919050565b60006020820190508181036000830152613713816136d7565b9050919050565b600081519050919050565b60005b83811015613743578082015181840152602081019050613728565b83811115613752576000848401525b50505050565b60006137638261371a565b61376d8185612f62565b935061377d818560208601613725565b61378681612d50565b840191505092915050565b600060408201905081810360008301526137ab8185613758565b90506137ba6020830184612bd0565b9392505050565b60008160601b9050919050565b60006137d9826137c1565b9050919050565b60006137eb826137ce565b9050919050565b6138036137fe82612a7f565b6137e0565b82525050565b6000819050919050565b61382461381f82612b33565b613809565b82525050565b600061383682866137f2565b6014820191506138468285613813565b6020820191506138568284613813565b602082019150819050949350505050565b7f4e487b7100000000000000000000000000000000000000000000000000000000600052602160045260246000fd5b7f45434453413a20696e76616c6964207369676e61747572650000000000000000600082015250565b60006138cc601883612f62565b91506138d782613896565b602082019050919050565b600060208201905081810360008301526138fb816138bf565b9050919050565b7f45434453413a20696e76616c6964207369676e6174757265206c656e67746800600082015250565b6000613938601f83612f62565b915061394382613902565b602082019050919050565b600060208201905081810360008301526139678161392b565b9050919050565b7f45434453413a20696e76616c6964207369676e6174757265202773272076616c60008201527f7565000000000000000000000000000000000000000000000000000000000000602082015250565b60006139ca602283612f62565b91506139d58261396e565b604082019050919050565b600060208201905081810360008301526139f9816139bd565b9050919050565b6000819050919050565b613a1381613a00565b82525050565b613a228161300f565b82525050565b6000608082019050613a3d6000830187613a0a565b613a4a6020830186613a19565b613a576040830185613a0a565b613a646060830184613a0a565b9594505050505056fea2646970667358221220d3c2bdf431cbbfca65875e33feb20d0bb54e681ed8f29b389c88f36ac1d27ffa64736f6c634300080e0033",
  "linkReferences": {},
  "deployedLinkReferences": {}
}