{
  "_format": "hh-sol-artifact-1",
  "contractName": "DynamicEscrowUpgradeable",
  "sourceName": "contracts/upgradeable/DynamicEscrowUpgradeable.sol",
  "abi": [
    {
      "anonymous": false,
      "inputs": [
        {
          "indexed": true,
          "internalType": "address",
          "name": "receiver",
          "type": "address"
        },
        {
          "indexed": false,
          "internalType": "uint256",
          "name": "weiAmount",
          "type": "uint256"
        },
        {
          "indexed": false,
          "internalType": "bytes32",
          "name": "poolId",
          "type": "bytes32"
        }
      ],
      "name": "Claimed",
      "type": "event"
    },
    {
      "anonymous": false,
      "inputs": [
        {
          "indexed": true,
          "internalType": "address",
          "name": "spender",
          "type": "address"
        },
        {
          "indexed": false,
          "internalType": "uint256",
          "name": "weiAmount",
          "type": "uint256"
        },
        {
          "indexed": false,
          "internalType": "bytes32",
          "name": "poolId",
          "type": "bytes32"
        }
      ],
      "name": "Deposited",
      "type": "event"
    },
    {
      "anonymous": false,
      "inputs": [
        {
          "indexed": false,
          "internalType": "uint8",
          "name": "version",
          "type": "uint8"
        }
      ],
      "name": "Initialized",
      "type": "event"
    },
    {
      "anonymous": false,
      "inputs": [
        {
          "indexed": true,
          "internalType": "address",
          "name": "previousOwner",
          "type": "address"
        },
        {
          "indexed": true,
          "internalType": "address",
          "name": "newOwner",
          "type": "address"
        }
      ],
      "name": "OwnershipTransferred",
      "type": "event"
    },
    {
      "anonymous": false,
      "inputs": [
        {
          "indexed": false,
          "internalType": "address",
          "name": "account",
          "type": "address"
        }
      ],
      "name": "Paused",
      "type": "event"
    },
    {
      "anonymous": false,
      "inputs": [
        {
          "indexed": false,
          "internalType": "address",
          "name": "account",
          "type": "address"
        }
      ],
      "name": "Unpaused",
      "type": "event"
    },
    {
      "anonymous": false,
      "inputs": [
        {
          "indexed": true,
          "internalType": "address",
          "name": "receiver",
          "type": "address"
        },
        {
          "indexed": false,
          "internalType": "uint256",
          "name": "weiAmount",
          "type": "uint256"
        },
        {
          "indexed": false,
          "internalType": "bytes32",
          "name": "poolId",
          "type": "bytes32"
        }
      ],
      "name": "Withdrawn",
      "type": "event"
    },
    {
      "inputs": [
        {
          "internalType": "address payable",
          "name": "receiver",
          "type": "address"
        },
        {
          "internalType": "bytes32",
          "name": "poolId",
          "type": "bytes32"
        },
        {
          "internalType": "uint256",
          "name": "amount",
          "type": "uint256"
        },
        {
          "internalType": "address",
          "name": "tokenAddress",
          "type": "address"
        },
        {
          "internalType": "uint256",
          "name": "nonce",
          "type": "uint256"
        },
        {
          "internalType": "bytes",
          "name": "sig",
          "type": "bytes"
        }
      ],
      "name": "claim",
      "outputs": [],
      "stateMutability": "nonpayable",
      "type": "function"
    },
    {
      "inputs": [
        {
          "internalType": "address",
          "name": "spender",
          "type": "address"
        },
        {
          "internalType": "bytes32",
          "name": "poolId",
          "type": "bytes32"
        },
        {
          "internalType": "uint256",
          "name": "amount",
          "type": "uint256"
        },
        {
          "internalType": "address",
          "name": "tokenAddress",
          "type": "address"
        }
      ],
      "name": "deposit",
      "outputs": [],
      "stateMutability": "payable",
      "type": "function"
    },
    {
      "inputs": [
        {
          "internalType": "address",
          "name": "payee",
          "type": "address"
        },
        {
          "internalType": "bytes32",
          "name": "poolId",
          "type": "bytes32"
        }
      ],
      "name": "depositsOf",
      "outputs": [
        {
          "components": [
            {
              "internalType": "uint256",
              "name": "weiAmount",
              "type": "uint256"
            },
            {
              "internalType": "address",
              "name": "tokenAddress",
              "type": "address"
            },
            {
              "internalType": "bytes32",
              "name": "poolId",
              "type": "bytes32"
            }
          ],
          "internalType": "struct IEscrow.DynamicDeposit",
          "name": "",
          "type": "tuple"
        }
      ],
      "stateMutability": "view",
      "type": "function"
    },
    {
      "inputs": [],
      "name": "getRewarder",
      "outputs": [
        {
          "internalType": "address",
          "name": "",
          "type": "address"
        }
      ],
      "stateMutability": "view",
      "type": "function"
    },
    {
      "inputs": [],
      "name": "getTrustedAccount",
      "outputs": [
        {
          "internalType": "address",
          "name": "",
          "type": "address"
        }
      ],
      "stateMutability": "view",
      "type": "function"
    },
    {
      "inputs": [
        {
          "internalType": "address",
          "name": "rewarder",
          "type": "address"
        },
        {
          "internalType": "address",
          "name": "trustedAccountAddress",
          "type": "address"
        }
      ],
      "name": "initialize",
      "outputs": [],
      "stateMutability": "nonpayable",
      "type": "function"
    },
    {
      "inputs": [],
      "name": "owner",
      "outputs": [
        {
          "internalType": "address",
          "name": "",
          "type": "address"
        }
      ],
      "stateMutability": "view",
      "type": "function"
    },
    {
      "inputs": [],
      "name": "paused",
      "outputs": [
        {
          "internalType": "bool",
          "name": "",
          "type": "bool"
        }
      ],
      "stateMutability": "view",
      "type": "function"
    },
    {
      "inputs": [],
      "name": "renounceOwnership",
      "outputs": [],
      "stateMutability": "nonpayable",
      "type": "function"
    },
    {
      "inputs": [
        {
          "internalType": "address",
          "name": "newOwner",
          "type": "address"
        }
      ],
      "name": "transferOwnership",
      "outputs": [],
      "stateMutability": "nonpayable",
      "type": "function"
    },
    {
      "inputs": [
        {
          "internalType": "address payable",
          "name": "receiver",
          "type": "address"
        },
        {
          "internalType": "bytes32",
          "name": "poolId",
          "type": "bytes32"
        },
        {
          "internalType": "uint256",
          "name": "amount",
          "type": "uint256"
        }
      ],
      "name": "withdraw",
      "outputs": [],
      "stateMutability": "nonpayable",
      "type": "function"
    }
  ],
  "bytecode": "0x608060405234801561001057600080fd5b5061164d806100206000396000f3fe6080604052600436106100bc5760003560e01c8063880d49ed11610074578063aa5974d31161004e578063aa5974d3146101fb578063dee8667f1461020e578063f2fde38b1461022c57600080fd5b8063880d49ed1461018b5780638da5cb5b146101ab5780639015dcc9146101dd57600080fd5b8063485cc955116100a5578063485cc955146101335780635c975abb14610153578063715018a61461017657600080fd5b80631aa9e742146100c15780632917173a14610111575b600080fd5b3480156100cd57600080fd5b506100e16100dc366004611359565b61024c565b60408051825181526020808401516001600160a01b03169082015291810151908201526060015b60405180910390f35b34801561011d57600080fd5b5061013161012c366004611385565b6102b6565b005b34801561013f57600080fd5b5061013161014e3660046113ba565b6104ff565b34801561015f57600080fd5b5060655460ff166040519015158152602001610108565b34801561018257600080fd5b50610131610665565b34801561019757600080fd5b506101316101a6366004611409565b610679565b3480156101b757600080fd5b506033546001600160a01b03165b6040516001600160a01b039091168152602001610108565b3480156101e957600080fd5b5060c9546001600160a01b03166101c5565b6101316102093660046114fb565b6108b1565b34801561021a57600080fd5b5060ca546001600160a01b03166101c5565b34801561023857600080fd5b50610131610247366004611545565b610c59565b60408051606080820183526000808352602080840182905292840181905284815260cb83528381206001600160a01b038781168352908452908490208451928301855280548352600181015490911692820192909252600290910154918101919091525b92915050565b6102be610ce9565b6102c6610d42565b600082815260cb602090815260408083203384529091529020600181015481546001600160a01b03909116908311156103465760405162461bcd60e51b815260206004820152601060248201527f4e6f7420656e6f7567682066756e64730000000000000000000000000000000060448201526064015b60405180910390fd5b60408051808201909152601081527f746f6b656e2061646472657373206973000000000000000000000000000000006020820152600183015461039291906001600160a01b0316610d95565b81548390036103df57600084815260cb60209081526040808320338452909152812081815560018101805473ffffffffffffffffffffffffffffffffffffffff19169055600201556103f9565b828260000160008282546103f39190611569565b90915550505b6001600160a01b038116610443576040516001600160a01b0386169084156108fc029085906000818181858888f1935050505015801561043d573d6000803e3d6000fd5b506104aa565b60405163a9059cbb60e01b81526001600160a01b0386811660048301526024820185905282919082169063a9059cbb90604401600060405180830381600087803b15801561049057600080fd5b505af11580156104a4573d6000803e3d6000fd5b50505050505b60408051848152602081018690526001600160a01b038716917f510b30a02fc9b7506980950b9c615af8c13e88658555c0ea22acffd73d9ea222910160405180910390a250506104fa6001609755565b505050565b600054610100900460ff161580801561051f5750600054600160ff909116105b806105395750303b158015610539575060005460ff166001145b6105ab5760405162461bcd60e51b815260206004820152602e60248201527f496e697469616c697a61626c653a20636f6e747261637420697320616c72656160448201527f647920696e697469616c697a6564000000000000000000000000000000000000606482015260840161033d565b6000805460ff1916600117905580156105ce576000805461ff0019166101001790555b6105d6610e13565b6105de610e86565b60c980546001600160a01b0380861673ffffffffffffffffffffffffffffffffffffffff199283161790925560ca80549285169290911691909117905580156104fa576000805461ff0019169055604051600181527f7f26b83ff96e1f2b6a682f133852f6798a09c465da95921460cefb38474024989060200160405180910390a1505050565b61066d610ef9565b6106776000610f53565b565b610681610ce9565b610689610d42565b604080516bffffffffffffffffffffffff19606089901b16602080830191909152603482018790526054808301869052835180840390910181526074909201909252805191012060ca546001600160a01b03166106e68284610fb2565b6001600160a01b03161461073c5760405162461bcd60e51b815260206004820152601860248201527f436c61696d3a20496e76616c6964207369676e61747572650000000000000000604482015260640161033d565b600081815260cc6020526040902054156107985760405162461bcd60e51b815260206004820152601b60248201527f436c61696d3a204861736820616c726561647920636c61696d65640000000000604482015260640161033d565b600081815260cc602052604090208590556001600160a01b0384166107f3576040516001600160a01b0388169086156108fc029087906000818181858888f193505050501580156107ed573d6000803e3d6000fd5b5061085a565b60405163a9059cbb60e01b81526001600160a01b0388811660048301526024820187905285919082169063a9059cbb90604401600060405180830381600087803b15801561084057600080fd5b505af1158015610854573d6000803e3d6000fd5b50505050505b60408051868152602081018890526001600160a01b038916917fd95107f4584744c6c893a04c43058aadd1ce8aac8ca5d64140eaf277de6c1d57910160405180910390a2506108a96001609755565b505050505050565b6108b9610ce9565b6108c1610d42565b600083815260cb602090815260408083206001600160a01b03808916855290835292819020815160608101835281548082526001830154909516938101939093526002015490820152901561097e5760405162461bcd60e51b815260206004820152602860248201527f41206465706f7369742077617320616c7265616479206d61646520666f72207460448201527f68697320706f6f6c000000000000000000000000000000000000000000000000606482015260840161033d565b6001600160a01b03821615610af1576040517f70a082310000000000000000000000000000000000000000000000000000000081526001600160a01b03868116600483015283916000918316906370a08231906024016020604051808303816000875af11580156109f3573d6000803e3d6000fd5b505050506040513d601f19601f82011682018060405250810190610a17919061158a565b905084811015610a695760405162461bcd60e51b815260206004820152601460248201527f496e73756666696369656e742062616c616e6365000000000000000000000000604482015260640161033d565b6040517f23b872dd0000000000000000000000000000000000000000000000000000000081526001600160a01b038881166004830152306024830152604482018790528316906323b872dd90606401600060405180830381600087803b158015610ad257600080fd5b505af1158015610ae6573d6000803e3d6000fd5b505050505050610b40565b823414610b405760405162461bcd60e51b815260206004820152600e60248201527f496e76616c696420616d6f756e74000000000000000000000000000000000000604482015260640161033d565b604080516060810182528481526001600160a01b03848116602080840191825283850189815260008a815260cb83528681208c861682529092529481208451808255925160018201805473ffffffffffffffffffffffffffffffffffffffff191691909516179093559351600290920191909155909103610c035760405162461bcd60e51b815260206004820181905260248201527f4661696c656420746f2073617665206465706f736974206f6e20636861696e21604482015260640161033d565b60408051858152602081018790526001600160a01b038816917fd7eda976cf4919f13172eb15bb39c64cecb7172258c741dab31d14c855eff402910160405180910390a25050610c536001609755565b50505050565b610c61610ef9565b6001600160a01b038116610cdd5760405162461bcd60e51b815260206004820152602660248201527f4f776e61626c653a206e6577206f776e657220697320746865207a65726f206160448201527f6464726573730000000000000000000000000000000000000000000000000000606482015260840161033d565b610ce681610f53565b50565b600260975403610d3b5760405162461bcd60e51b815260206004820152601f60248201527f5265656e7472616e637947756172643a207265656e7472616e742063616c6c00604482015260640161033d565b6002609755565b60655460ff16156106775760405162461bcd60e51b815260206004820152601060248201527f5061757361626c653a2070617573656400000000000000000000000000000000604482015260640161033d565b610e088282604051602401610dab9291906115a3565b60408051601f198184030181529190526020810180517bffffffffffffffffffffffffffffffffffffffffffffffffffffffff167f319af33300000000000000000000000000000000000000000000000000000000179052610fd6565b5050565b6001609755565b600054610100900460ff16610e7e5760405162461bcd60e51b815260206004820152602b60248201527f496e697469616c697a61626c653a20636f6e7472616374206973206e6f74206960448201526a6e697469616c697a696e6760a81b606482015260840161033d565b610677610ff7565b600054610100900460ff16610ef15760405162461bcd60e51b815260206004820152602b60248201527f496e697469616c697a61626c653a20636f6e7472616374206973206e6f74206960448201526a6e697469616c697a696e6760a81b606482015260840161033d565b61067761106b565b6033546001600160a01b031633146106775760405162461bcd60e51b815260206004820181905260248201527f4f776e61626c653a2063616c6c6572206973206e6f7420746865206f776e6572604482015260640161033d565b603380546001600160a01b0383811673ffffffffffffffffffffffffffffffffffffffff19831681179093556040519116919082907f8be0079c531659141344cd1fd0a4f28419497f9722a3daafe3b4186f6b6457e090600090a35050565b6000806000610fc185856110d6565b91509150610fce8161111b565b509392505050565b80516a636f6e736f6c652e6c6f67602083016000808483855afa5050505050565b600054610100900460ff166110625760405162461bcd60e51b815260206004820152602b60248201527f496e697469616c697a61626c653a20636f6e7472616374206973206e6f74206960448201526a6e697469616c697a696e6760a81b606482015260840161033d565b61067733610f53565b600054610100900460ff16610e0c5760405162461bcd60e51b815260206004820152602b60248201527f496e697469616c697a61626c653a20636f6e7472616374206973206e6f74206960448201526a6e697469616c697a696e6760a81b606482015260840161033d565b600080825160410361110c5760208301516040840151606085015160001a61110087828585611280565b94509450505050611114565b506000905060025b9250929050565b600081600481111561112f5761112f611601565b036111375750565b600181600481111561114b5761114b611601565b036111985760405162461bcd60e51b815260206004820152601860248201527f45434453413a20696e76616c6964207369676e61747572650000000000000000604482015260640161033d565b60028160048111156111ac576111ac611601565b036111f95760405162461bcd60e51b815260206004820152601f60248201527f45434453413a20696e76616c6964207369676e6174757265206c656e67746800604482015260640161033d565b600381600481111561120d5761120d611601565b03610ce65760405162461bcd60e51b815260206004820152602260248201527f45434453413a20696e76616c6964207369676e6174757265202773272076616c60448201527f7565000000000000000000000000000000000000000000000000000000000000606482015260840161033d565b6000807f7fffffffffffffffffffffffffffffff5d576e7357a4501ddfe92f46681b20a08311156112b7575060009050600361133b565b6040805160008082526020820180845289905260ff881692820192909252606081018690526080810185905260019060a0016020604051602081039080840390855afa15801561130b573d6000803e3d6000fd5b5050604051601f1901519150506001600160a01b0381166113345760006001925092505061133b565b9150600090505b94509492505050565b6001600160a01b0381168114610ce657600080fd5b6000806040838503121561136c57600080fd5b823561137781611344565b946020939093013593505050565b60008060006060848603121561139a57600080fd5b83356113a581611344565b95602085013595506040909401359392505050565b600080604083850312156113cd57600080fd5b82356113d881611344565b915060208301356113e881611344565b809150509250929050565b634e487b7160e01b600052604160045260246000fd5b60008060008060008060c0878903121561142257600080fd5b863561142d81611344565b95506020870135945060408701359350606087013561144b81611344565b92506080870135915060a087013567ffffffffffffffff8082111561146f57600080fd5b818901915089601f83011261148357600080fd5b813581811115611495576114956113f3565b604051601f8201601f19908116603f011681019083821181831017156114bd576114bd6113f3565b816040528281528c60208487010111156114d657600080fd5b8260208601602083013760006020848301015280955050505050509295509295509295565b6000806000806080858703121561151157600080fd5b843561151c81611344565b93506020850135925060408501359150606085013561153a81611344565b939692955090935050565b60006020828403121561155757600080fd5b813561156281611344565b9392505050565b818103818111156102b057634e487b7160e01b600052601160045260246000fd5b60006020828403121561159c57600080fd5b5051919050565b604081526000835180604084015260005b818110156115d157602081870181015160608684010152016115b4565b506000606082850101526060601f19601f8301168401019150506001600160a01b03831660208301529392505050565b634e487b7160e01b600052602160045260246000fdfea2646970667358221220d51ed35189c418e436ee8be98b313000f4cdc98db758c1deda14aaf730ac28d864736f6c63430008120033",
  "linkReferences": {},
  "deployedLinkReferences": {}
}