{
  "_format": "hh-sol-artifact-1",
  "contractName": "DynamicEscrowUpgradeable",
  "sourceName": "contracts/upgradeable/DynamicEscrowUpgradeable.sol",
  "abi": [
    {
      "anonymous": false,
      "inputs": [
        {
          "indexed": true,
          "internalType": "address",
          "name": "spender",
          "type": "address"
        },
        {
          "indexed": false,
          "internalType": "uint256",
          "name": "weiAmount",
          "type": "uint256"
        },
        {
          "indexed": false,
          "internalType": "uint256",
          "name": "poolId",
          "type": "uint256"
        }
      ],
      "name": "Deposited",
      "type": "event"
    },
    {
      "anonymous": false,
      "inputs": [
        {
          "indexed": false,
          "internalType": "uint8",
          "name": "version",
          "type": "uint8"
        }
      ],
      "name": "Initialized",
      "type": "event"
    },
    {
      "anonymous": false,
      "inputs": [
        {
          "indexed": true,
          "internalType": "address",
          "name": "previousOwner",
          "type": "address"
        },
        {
          "indexed": true,
          "internalType": "address",
          "name": "newOwner",
          "type": "address"
        }
      ],
      "name": "OwnershipTransferred",
      "type": "event"
    },
    {
      "anonymous": false,
      "inputs": [
        {
          "indexed": true,
          "internalType": "address",
          "name": "receiver",
          "type": "address"
        },
        {
          "indexed": false,
          "internalType": "uint256",
          "name": "weiAmount",
          "type": "uint256"
        },
        {
          "indexed": false,
          "internalType": "uint256",
          "name": "poolId",
          "type": "uint256"
        }
      ],
      "name": "RewardCredited",
      "type": "event"
    },
    {
      "anonymous": false,
      "inputs": [
        {
          "indexed": true,
          "internalType": "address",
          "name": "receiver",
          "type": "address"
        },
        {
          "indexed": false,
          "internalType": "uint256",
          "name": "weiAmount",
          "type": "uint256"
        },
        {
          "indexed": false,
          "internalType": "uint256",
          "name": "poolId",
          "type": "uint256"
        }
      ],
      "name": "Withdrawn",
      "type": "event"
    },
    {
      "inputs": [
        {
          "internalType": "address",
          "name": "payee",
          "type": "address"
        },
        {
          "internalType": "uint256",
          "name": "poolId",
          "type": "uint256"
        },
        {
          "internalType": "uint256",
          "name": "amount",
          "type": "uint256"
        }
      ],
      "name": "accrueRewardFor",
      "outputs": [],
      "stateMutability": "nonpayable",
      "type": "function"
    },
    {
      "inputs": [
        {
          "internalType": "address",
          "name": "payee",
          "type": "address"
        },
        {
          "internalType": "uint256",
          "name": "poolId",
          "type": "uint256"
        }
      ],
      "name": "accruedRewardsOf",
      "outputs": [
        {
          "internalType": "uint256",
          "name": "",
          "type": "uint256"
        }
      ],
      "stateMutability": "view",
      "type": "function"
    },
    {
      "inputs": [
        {
          "internalType": "address",
          "name": "spender",
          "type": "address"
        },
        {
          "internalType": "uint256",
          "name": "poolId",
          "type": "uint256"
        },
        {
          "internalType": "uint256",
          "name": "amount",
          "type": "uint256"
        },
        {
          "internalType": "address",
          "name": "tokenAddress",
          "type": "address"
        }
      ],
      "name": "deposit",
      "outputs": [],
      "stateMutability": "payable",
      "type": "function"
    },
    {
      "inputs": [
        {
          "internalType": "address",
          "name": "payee",
          "type": "address"
        },
        {
          "internalType": "uint256",
          "name": "poolId",
          "type": "uint256"
        }
      ],
      "name": "depositsOf",
      "outputs": [
        {
          "components": [
            {
              "internalType": "uint256",
              "name": "weiAmount",
              "type": "uint256"
            },
            {
              "internalType": "address",
              "name": "tokenAddress",
              "type": "address"
            },
            {
              "internalType": "uint256",
              "name": "poolId",
              "type": "uint256"
            }
          ],
          "internalType": "struct IEscrow.DynamicDeposit",
          "name": "",
          "type": "tuple"
        }
      ],
      "stateMutability": "view",
      "type": "function"
    },
    {
      "inputs": [],
      "name": "getRewarder",
      "outputs": [
        {
          "internalType": "address",
          "name": "",
          "type": "address"
        }
      ],
      "stateMutability": "view",
      "type": "function"
    },
    {
      "inputs": [
        {
          "internalType": "address",
          "name": "rewarder",
          "type": "address"
        }
      ],
      "name": "initialize",
      "outputs": [],
      "stateMutability": "nonpayable",
      "type": "function"
    },
    {
      "inputs": [],
      "name": "owner",
      "outputs": [
        {
          "internalType": "address",
          "name": "",
          "type": "address"
        }
      ],
      "stateMutability": "view",
      "type": "function"
    },
    {
      "inputs": [
        {
          "internalType": "address",
          "name": "receiver",
          "type": "address"
        },
        {
          "internalType": "address",
          "name": "tokenAddress",
          "type": "address"
        },
        {
          "internalType": "uint256",
          "name": "poolId",
          "type": "uint256"
        }
      ],
      "name": "redeemRewards",
      "outputs": [],
      "stateMutability": "nonpayable",
      "type": "function"
    },
    {
      "inputs": [],
      "name": "renounceOwnership",
      "outputs": [],
      "stateMutability": "nonpayable",
      "type": "function"
    },
    {
      "inputs": [
        {
          "internalType": "address",
          "name": "newOwner",
          "type": "address"
        }
      ],
      "name": "transferOwnership",
      "outputs": [],
      "stateMutability": "nonpayable",
      "type": "function"
    },
    {
      "inputs": [
        {
          "internalType": "address payable",
          "name": "receiver",
          "type": "address"
        },
        {
          "internalType": "uint256",
          "name": "poolId",
          "type": "uint256"
        },
        {
          "internalType": "uint256",
          "name": "amount",
          "type": "uint256"
        }
      ],
      "name": "withdraw",
      "outputs": [],
      "stateMutability": "nonpayable",
      "type": "function"
    }
  ],
  "bytecode": "0x608060405234801561001057600080fd5b5061131b806100206000396000f3fe6080604052600436106100bc5760003560e01c8063abfc083c11610074578063c4d66de81161004e578063c4d66de81461021b578063f2fde38b1461023b578063f9fb6b1a1461025b57600080fd5b8063abfc083c14610190578063ae22192e146101b0578063b5c5f672146101fb57600080fd5b80638da5cb5b116100a55780638da5cb5b146100eb5780639015dcc914610122578063a7d9e05e1461014057600080fd5b8063715018a6146100c15780638b6099db146100d8575b600080fd5b3480156100cd57600080fd5b506100d661027b565b005b6100d66100e636600461115e565b61028f565b3480156100f757600080fd5b506033546001600160a01b03165b6040516001600160a01b0390911681526020015b60405180910390f35b34801561012e57600080fd5b506097546001600160a01b0316610105565b34801561014c57600080fd5b5061018261015b3660046111a8565b60009081526099602090815260408083206001600160a01b03949094168352929052205490565b604051908152602001610119565b34801561019c57600080fd5b506100d66101ab3660046111d4565b61054e565b3480156101bc57600080fd5b506101d06101cb3660046111a8565b6106f7565b60408051825181526020808401516001600160a01b0316908201529181015190820152606001610119565b34801561020757600080fd5b506100d66102163660046111d4565b61076f565b34801561022757600080fd5b506100d6610236366004611209565b6109f5565b34801561024757600080fd5b506100d6610256366004611209565b610b46565b34801561026757600080fd5b506100d661027636600461122d565b610bd6565b610283610da6565b61028d6000610e00565b565b6002606554036102e65760405162461bcd60e51b815260206004820152601f60248201527f5265656e7472616e637947756172643a207265656e7472616e742063616c6c0060448201526064015b60405180910390fd5b60026065556001600160a01b03811615610445576040517f70a082310000000000000000000000000000000000000000000000000000000081526001600160a01b03858116600483015282916000918316906370a08231906024016020604051808303816000875af1158015610360573d6000803e3d6000fd5b505050506040513d601f19601f82011682018060405250810190610384919061126e565b9050838110156103d65760405162461bcd60e51b815260206004820152601460248201527f496e73756666696369656e742062616c616e636500000000000000000000000060448201526064016102dd565b6040516323b872dd60e01b81526001600160a01b038781166004830152306024830152604482018690528316906323b872dd90606401600060405180830381600087803b15801561042657600080fd5b505af115801561043a573d6000803e3d6000fd5b505050505050610494565b8134146104945760405162461bcd60e51b815260206004820152600e60248201527f496e76616c696420616d6f756e7400000000000000000000000000000000000060448201526064016102dd565b604080516060810182528381526001600160a01b0383811660208084019182528385018881526000898152609883528681208b86168083529084529087902086518155935160018501805473ffffffffffffffffffffffffffffffffffffffff19169190961617909455516002909201919091558351868152908101879052919290917f73a19dd210f1a7f902193214c0ee91dd35ee5b4d920cba8d519eca65a7b488ca910160405180910390a250506001606555505050565b6097546001600160a01b031633146105a85760405162461bcd60e51b815260206004820152600c60248201527f4f6e6c795265776172646572000000000000000000000000000000000000000060448201526064016102dd565b6002606554036105fa5760405162461bcd60e51b815260206004820152601f60248201527f5265656e7472616e637947756172643a207265656e7472616e742063616c6c0060448201526064016102dd565b600260655560008281526099602090815260408083206001600160a01b0387168452909152812080548392906106319084906112b6565b909155505060008281526099602090815260408083206001600160a01b03871684529091529020548111156106a85760405162461bcd60e51b815260206004820152601560248201527f416363727565645265776172644f766572666c6f77000000000000000000000060448201526064016102dd565b60408051828152602081018490526001600160a01b038516917f81bfcf71989b04bc9c4a30aa5659f50d7b2964773dc38029019aa1c8752fbe8f91015b60405180910390a25050600160655550565b61072460405180606001604052806000815260200160006001600160a01b03168152602001600081525090565b5060009081526098602090815260408083206001600160a01b039485168452825291829020825160608101845281548152600182015490941691840191909152600201549082015290565b6002606554036107c15760405162461bcd60e51b815260206004820152601f60248201527f5265656e7472616e637947756172643a207265656e7472616e742063616c6c0060448201526064016102dd565b6002606555600082815260986020908152604080832033845290915290205481111561082f5760405162461bcd60e51b815260206004820152601060248201527f4e6f7420656e6f7567682066756e64730000000000000000000000000000000060448201526064016102dd565b6000828152609860209081526040808320338452909152902054819003610894576000828152609860209081526040808320338452909152812081815560018101805473ffffffffffffffffffffffffffffffffffffffff19169055600201556108c3565b6000828152609860209081526040808320338452909152812080548392906108bd9084906112ce565b90915550505b60008281526098602090815260408083203384529091529020600101546001600160a01b0316610929576040516001600160a01b0384169082156108fc029083906000818181858888f19350505050158015610923573d6000803e3d6000fd5b506109b4565b6000828152609860209081526040808320338452909152908190206001015490516323b872dd60e01b81523060048201526001600160a01b038581166024830152604482018490529091169081906323b872dd90606401600060405180830381600087803b15801561099a57600080fd5b505af11580156109ae573d6000803e3d6000fd5b50505050505b60408051828152602081018490526001600160a01b038516917f92ccf450a286a957af52509bc1c9939d1a6a481783e142e41e2499f0bb66ebc691016106e5565b600054610100900460ff1615808015610a155750600054600160ff909116105b80610a2f5750303b158015610a2f575060005460ff166001145b610aa15760405162461bcd60e51b815260206004820152602e60248201527f496e697469616c697a61626c653a20636f6e747261637420697320616c72656160448201527f647920696e697469616c697a656400000000000000000000000000000000000060648201526084016102dd565b6000805460ff191660011790558015610ac4576000805461ff0019166101001790555b610acc610e5f565b610ad4610ed2565b6097805473ffffffffffffffffffffffffffffffffffffffff19166001600160a01b0384161790558015610b42576000805461ff0019169055604051600181527f7f26b83ff96e1f2b6a682f133852f6798a09c465da95921460cefb38474024989060200160405180910390a15b5050565b610b4e610da6565b6001600160a01b038116610bca5760405162461bcd60e51b815260206004820152602660248201527f4f776e61626c653a206e6577206f776e657220697320746865207a65726f206160448201527f646472657373000000000000000000000000000000000000000000000000000060648201526084016102dd565b610bd381610e00565b50565b600260655403610c285760405162461bcd60e51b815260206004820152601f60248201527f5265656e7472616e637947756172643a207265656e7472616e742063616c6c0060448201526064016102dd565b60026065556000818152609960209081526040808320338452909152902054610c935760405162461bcd60e51b815260206004820152601a60248201527f4e6f7420656e6f7567682061636372756564207265776172647300000000000060448201526064016102dd565b6000818152609960209081526040808320338452909152812080549190556001600160a01b03831615610d44576040517fa9059cbb0000000000000000000000000000000000000000000000000000000081526001600160a01b0385811660048301526024820183905284919082169063a9059cbb90604401600060405180830381600087803b158015610d2657600080fd5b505af1158015610d3a573d6000803e3d6000fd5b5050505050610d57565b610d576001600160a01b03851682610f45565b60408051828152602081018490526001600160a01b038616917f92ccf450a286a957af52509bc1c9939d1a6a481783e142e41e2499f0bb66ebc6910160405180910390a2505060016065555050565b6033546001600160a01b0316331461028d5760405162461bcd60e51b815260206004820181905260248201527f4f776e61626c653a2063616c6c6572206973206e6f7420746865206f776e657260448201526064016102dd565b603380546001600160a01b0383811673ffffffffffffffffffffffffffffffffffffffff19831681179093556040519116919082907f8be0079c531659141344cd1fd0a4f28419497f9722a3daafe3b4186f6b6457e090600090a35050565b600054610100900460ff16610eca5760405162461bcd60e51b815260206004820152602b60248201527f496e697469616c697a61626c653a20636f6e7472616374206973206e6f74206960448201526a6e697469616c697a696e6760a81b60648201526084016102dd565b61028d611063565b600054610100900460ff16610f3d5760405162461bcd60e51b815260206004820152602b60248201527f496e697469616c697a61626c653a20636f6e7472616374206973206e6f74206960448201526a6e697469616c697a696e6760a81b60648201526084016102dd565b61028d6110d7565b80471015610f955760405162461bcd60e51b815260206004820152601d60248201527f416464726573733a20696e73756666696369656e742062616c616e636500000060448201526064016102dd565b6000826001600160a01b03168260405160006040518083038185875af1925050503d8060008114610fe2576040519150601f19603f3d011682016040523d82523d6000602084013e610fe7565b606091505b505090508061105e5760405162461bcd60e51b815260206004820152603a60248201527f416464726573733a20756e61626c6520746f2073656e642076616c75652c207260448201527f6563697069656e74206d6179206861766520726576657274656400000000000060648201526084016102dd565b505050565b600054610100900460ff166110ce5760405162461bcd60e51b815260206004820152602b60248201527f496e697469616c697a61626c653a20636f6e7472616374206973206e6f74206960448201526a6e697469616c697a696e6760a81b60648201526084016102dd565b61028d33610e00565b600054610100900460ff166111425760405162461bcd60e51b815260206004820152602b60248201527f496e697469616c697a61626c653a20636f6e7472616374206973206e6f74206960448201526a6e697469616c697a696e6760a81b60648201526084016102dd565b6001606555565b6001600160a01b0381168114610bd357600080fd5b6000806000806080858703121561117457600080fd5b843561117f81611149565b93506020850135925060408501359150606085013561119d81611149565b939692955090935050565b600080604083850312156111bb57600080fd5b82356111c681611149565b946020939093013593505050565b6000806000606084860312156111e957600080fd5b83356111f481611149565b95602085013595506040909401359392505050565b60006020828403121561121b57600080fd5b813561122681611149565b9392505050565b60008060006060848603121561124257600080fd5b833561124d81611149565b9250602084013561125d81611149565b929592945050506040919091013590565b60006020828403121561128057600080fd5b5051919050565b7f4e487b7100000000000000000000000000000000000000000000000000000000600052601160045260246000fd5b600082198211156112c9576112c9611287565b500190565b6000828210156112e0576112e0611287565b50039056fea264697066735822122003fe414badb012d7fe1c2216675b21bf21c974426757b3bdb3ac2ecbb492dba264736f6c634300080e0033",
  "linkReferences": {},
  "deployedLinkReferences": {}
}