{
  "_format": "hh-sol-artifact-1",
  "contractName": "DynamicEscrowUpgradeable",
  "sourceName": "contracts/upgradeable/DynamicEscrowUpgradeable.sol",
  "abi": [
    {
      "anonymous": false,
      "inputs": [
        {
          "indexed": true,
          "internalType": "address",
          "name": "receiver",
          "type": "address"
        },
        {
          "indexed": false,
          "internalType": "uint256",
          "name": "weiAmount",
          "type": "uint256"
        },
        {
          "indexed": false,
          "internalType": "uint256",
          "name": "poolId",
          "type": "uint256"
        }
      ],
      "name": "Claimed",
      "type": "event"
    },
    {
      "anonymous": false,
      "inputs": [
        {
          "indexed": true,
          "internalType": "address",
          "name": "spender",
          "type": "address"
        },
        {
          "indexed": false,
          "internalType": "uint256",
          "name": "weiAmount",
          "type": "uint256"
        },
        {
          "indexed": false,
          "internalType": "uint256",
          "name": "poolId",
          "type": "uint256"
        }
      ],
      "name": "Deposited",
      "type": "event"
    },
    {
      "anonymous": false,
      "inputs": [
        {
          "indexed": false,
          "internalType": "uint8",
          "name": "version",
          "type": "uint8"
        }
      ],
      "name": "Initialized",
      "type": "event"
    },
    {
      "anonymous": false,
      "inputs": [
        {
          "indexed": true,
          "internalType": "address",
          "name": "previousOwner",
          "type": "address"
        },
        {
          "indexed": true,
          "internalType": "address",
          "name": "newOwner",
          "type": "address"
        }
      ],
      "name": "OwnershipTransferred",
      "type": "event"
    },
    {
      "anonymous": false,
      "inputs": [
        {
          "indexed": true,
          "internalType": "address",
          "name": "receiver",
          "type": "address"
        },
        {
          "indexed": false,
          "internalType": "uint256",
          "name": "weiAmount",
          "type": "uint256"
        },
        {
          "indexed": false,
          "internalType": "uint256",
          "name": "poolId",
          "type": "uint256"
        }
      ],
      "name": "RewardCredited",
      "type": "event"
    },
    {
      "anonymous": false,
      "inputs": [
        {
          "indexed": true,
          "internalType": "address",
          "name": "receiver",
          "type": "address"
        },
        {
          "indexed": false,
          "internalType": "uint256",
          "name": "weiAmount",
          "type": "uint256"
        },
        {
          "indexed": false,
          "internalType": "uint256",
          "name": "poolId",
          "type": "uint256"
        }
      ],
      "name": "Withdrawn",
      "type": "event"
    },
    {
      "inputs": [
        {
          "internalType": "address payable",
          "name": "receiver",
          "type": "address"
        },
        {
          "internalType": "uint256",
          "name": "poolId",
          "type": "uint256"
        },
        {
          "internalType": "uint256",
          "name": "amount",
          "type": "uint256"
        },
        {
          "internalType": "address",
          "name": "tokenAddress",
          "type": "address"
        },
        {
          "internalType": "uint256",
          "name": "nonce",
          "type": "uint256"
        },
        {
          "internalType": "bytes",
          "name": "sig",
          "type": "bytes"
        }
      ],
      "name": "claim",
      "outputs": [],
      "stateMutability": "nonpayable",
      "type": "function"
    },
    {
      "inputs": [
        {
          "internalType": "address",
          "name": "spender",
          "type": "address"
        },
        {
          "internalType": "uint256",
          "name": "poolId",
          "type": "uint256"
        },
        {
          "internalType": "uint256",
          "name": "amount",
          "type": "uint256"
        },
        {
          "internalType": "address",
          "name": "tokenAddress",
          "type": "address"
        }
      ],
      "name": "deposit",
      "outputs": [],
      "stateMutability": "payable",
      "type": "function"
    },
    {
      "inputs": [
        {
          "internalType": "address",
          "name": "payee",
          "type": "address"
        },
        {
          "internalType": "uint256",
          "name": "poolId",
          "type": "uint256"
        }
      ],
      "name": "depositsOf",
      "outputs": [
        {
          "components": [
            {
              "internalType": "uint256",
              "name": "weiAmount",
              "type": "uint256"
            },
            {
              "internalType": "address",
              "name": "tokenAddress",
              "type": "address"
            },
            {
              "internalType": "uint256",
              "name": "poolId",
              "type": "uint256"
            }
          ],
          "internalType": "struct IEscrow.DynamicDeposit",
          "name": "",
          "type": "tuple"
        }
      ],
      "stateMutability": "view",
      "type": "function"
    },
    {
      "inputs": [],
      "name": "getRewarder",
      "outputs": [
        {
          "internalType": "address",
          "name": "",
          "type": "address"
        }
      ],
      "stateMutability": "view",
      "type": "function"
    },
    {
      "inputs": [],
      "name": "getTrustedAccount",
      "outputs": [
        {
          "internalType": "address",
          "name": "",
          "type": "address"
        }
      ],
      "stateMutability": "view",
      "type": "function"
    },
    {
      "inputs": [
        {
          "internalType": "address",
          "name": "rewarder",
          "type": "address"
        },
        {
          "internalType": "address",
          "name": "trustedAccountAddress",
          "type": "address"
        }
      ],
      "name": "initialize",
      "outputs": [],
      "stateMutability": "nonpayable",
      "type": "function"
    },
    {
      "inputs": [],
      "name": "owner",
      "outputs": [
        {
          "internalType": "address",
          "name": "",
          "type": "address"
        }
      ],
      "stateMutability": "view",
      "type": "function"
    },
    {
      "inputs": [],
      "name": "renounceOwnership",
      "outputs": [],
      "stateMutability": "nonpayable",
      "type": "function"
    },
    {
      "inputs": [
        {
          "internalType": "address",
          "name": "newOwner",
          "type": "address"
        }
      ],
      "name": "transferOwnership",
      "outputs": [],
      "stateMutability": "nonpayable",
      "type": "function"
    },
    {
      "inputs": [
        {
          "internalType": "address payable",
          "name": "receiver",
          "type": "address"
        },
        {
          "internalType": "uint256",
          "name": "poolId",
          "type": "uint256"
        },
        {
          "internalType": "uint256",
          "name": "amount",
          "type": "uint256"
        }
      ],
      "name": "withdraw",
      "outputs": [],
      "stateMutability": "nonpayable",
      "type": "function"
    }
  ],
  "bytecode": "0x608060405234801561001057600080fd5b5061131b806100206000396000f3fe6080604052600436106100b15760003560e01c8063ae22192e11610069578063ba7cfb441161004e578063ba7cfb44146101c0578063dee8667f146101e0578063f2fde38b146101fe57600080fd5b8063ae22192e14610155578063b5c5f672146101a057600080fd5b80638b6099db1161009a5780638b6099db146100ed5780638da5cb5b146101005780639015dcc91461013757600080fd5b8063485cc955146100b6578063715018a6146100d8575b600080fd5b3480156100c257600080fd5b506100d66100d1366004611081565b61021e565b005b3480156100e457600080fd5b506100d661038a565b6100d66100fb3660046110ba565b61039e565b34801561010c57600080fd5b506033546001600160a01b03165b6040516001600160a01b0390911681526020015b60405180910390f35b34801561014357600080fd5b506097546001600160a01b031661011a565b34801561016157600080fd5b50610175610170366004611104565b61060e565b60408051825181526020808401516001600160a01b031690820152918101519082015260600161012e565b3480156101ac57600080fd5b506100d66101bb366004611130565b610686565b3480156101cc57600080fd5b506100d66101db36600461117b565b6108a3565b3480156101ec57600080fd5b506098546001600160a01b031661011a565b34801561020a57600080fd5b506100d661021936600461126d565b610a6c565b600054610100900460ff161580801561023e5750600054600160ff909116105b806102585750303b158015610258575060005460ff166001145b6102cf5760405162461bcd60e51b815260206004820152602e60248201527f496e697469616c697a61626c653a20636f6e747261637420697320616c72656160448201527f647920696e697469616c697a656400000000000000000000000000000000000060648201526084015b60405180910390fd5b6000805460ff1916600117905580156102f2576000805461ff0019166101001790555b6102fa610afc565b610302610b6f565b609780546001600160a01b0380861673ffffffffffffffffffffffffffffffffffffffff199283161790925560988054928516929091169190911790558015610385576000805461ff0019169055604051600181527f7f26b83ff96e1f2b6a682f133852f6798a09c465da95921460cefb38474024989060200160405180910390a15b505050565b610392610be2565b61039c6000610c3c565b565b6103a6610c9b565b6001600160a01b03811615610500576040517f70a082310000000000000000000000000000000000000000000000000000000081526001600160a01b03858116600483015282916000918316906370a08231906024016020604051808303816000875af115801561041b573d6000803e3d6000fd5b505050506040513d601f19601f8201168201806040525081019061043f9190611291565b9050838110156104915760405162461bcd60e51b815260206004820152601460248201527f496e73756666696369656e742062616c616e636500000000000000000000000060448201526064016102c6565b6040516323b872dd60e01b81526001600160a01b038781166004830152306024830152604482018690528316906323b872dd90606401600060405180830381600087803b1580156104e157600080fd5b505af11580156104f5573d6000803e3d6000fd5b50505050505061054f565b81341461054f5760405162461bcd60e51b815260206004820152600e60248201527f496e76616c696420616d6f756e7400000000000000000000000000000000000060448201526064016102c6565b604080516060810182528381526001600160a01b0383811660208084019182528385018881526000898152609983528681208b86168083529084529087902086518155935160018501805473ffffffffffffffffffffffffffffffffffffffff19169190961617909455516002909201919091558351868152908101879052919290917f73a19dd210f1a7f902193214c0ee91dd35ee5b4d920cba8d519eca65a7b488ca910160405180910390a2506106086001606555565b50505050565b61063b60405180606001604052806000815260200160006001600160a01b03168152602001600081525090565b5060009081526099602090815260408083206001600160a01b039485168452825291829020825160608101845281548152600182015490941691840191909152600201549082015290565b61068e610c9b565b60008281526099602090815260408083203384529091529020548111156106f75760405162461bcd60e51b815260206004820152601060248201527f4e6f7420656e6f7567682066756e64730000000000000000000000000000000060448201526064016102c6565b60008281526099602090815260408083203384529091529020600181015490546001600160a01b039091169082900361076e576000838152609960209081526040808320338452909152812081815560018101805473ffffffffffffffffffffffffffffffffffffffff191690556002015561079d565b6000838152609960209081526040808320338452909152812080548492906107979084906112aa565b90915550505b6001600160a01b0381166107e7576040516001600160a01b0385169083156108fc029084906000818181858888f193505050501580156107e1573d6000803e3d6000fd5b50610854565b6040516323b872dd60e01b81523060048201526001600160a01b038581166024830152604482018490528291908216906323b872dd90606401600060405180830381600087803b15801561083a57600080fd5b505af115801561084e573d6000803e3d6000fd5b50505050505b60408051838152602081018590526001600160a01b038616917f92ccf450a286a957af52509bc1c9939d1a6a481783e142e41e2499f0bb66ebc6910160405180910390a2506103856001606555565b6108ab610c9b565b604080516bffffffffffffffffffffffff19606089901b1660208083019190915260348201879052605480830186905283518084039091018152607490920190925280519101206098546001600160a01b03166109088284610cfb565b6001600160a01b03161461095e5760405162461bcd60e51b815260206004820152601860248201527f436c61696d3a20496e76616c6964207369676e6174757265000000000000000060448201526064016102c6565b6001600160a01b0384166109a8576040516001600160a01b0388169086156108fc029087906000818181858888f193505050501580156109a2573d6000803e3d6000fd5b50610a15565b6040516323b872dd60e01b81523060048201526001600160a01b038881166024830152604482018790528591908216906323b872dd90606401600060405180830381600087803b1580156109fb57600080fd5b505af1158015610a0f573d6000803e3d6000fd5b50505050505b60408051868152602081018890526001600160a01b038916917f987d620f307ff6b94d58743cb7a7509f24071586a77759b77c2d4e29f75a2f9a910160405180910390a250610a646001606555565b505050505050565b610a74610be2565b6001600160a01b038116610af05760405162461bcd60e51b815260206004820152602660248201527f4f776e61626c653a206e6577206f776e657220697320746865207a65726f206160448201527f646472657373000000000000000000000000000000000000000000000000000060648201526084016102c6565b610af981610c3c565b50565b600054610100900460ff16610b675760405162461bcd60e51b815260206004820152602b60248201527f496e697469616c697a61626c653a20636f6e7472616374206973206e6f74206960448201526a6e697469616c697a696e6760a81b60648201526084016102c6565b61039c610d1f565b600054610100900460ff16610bda5760405162461bcd60e51b815260206004820152602b60248201527f496e697469616c697a61626c653a20636f6e7472616374206973206e6f74206960448201526a6e697469616c697a696e6760a81b60648201526084016102c6565b61039c610d93565b6033546001600160a01b0316331461039c5760405162461bcd60e51b815260206004820181905260248201527f4f776e61626c653a2063616c6c6572206973206e6f7420746865206f776e657260448201526064016102c6565b603380546001600160a01b0383811673ffffffffffffffffffffffffffffffffffffffff19831681179093556040519116919082907f8be0079c531659141344cd1fd0a4f28419497f9722a3daafe3b4186f6b6457e090600090a35050565b600260655403610ced5760405162461bcd60e51b815260206004820152601f60248201527f5265656e7472616e637947756172643a207265656e7472616e742063616c6c0060448201526064016102c6565b6002606555565b6001606555565b6000806000610d0a8585610dfe565b91509150610d1781610e43565b509392505050565b600054610100900460ff16610d8a5760405162461bcd60e51b815260206004820152602b60248201527f496e697469616c697a61626c653a20636f6e7472616374206973206e6f74206960448201526a6e697469616c697a696e6760a81b60648201526084016102c6565b61039c33610c3c565b600054610100900460ff16610cf45760405162461bcd60e51b815260206004820152602b60248201527f496e697469616c697a61626c653a20636f6e7472616374206973206e6f74206960448201526a6e697469616c697a696e6760a81b60648201526084016102c6565b6000808251604103610e345760208301516040840151606085015160001a610e2887828585610fa8565b94509450505050610e3c565b506000905060025b9250929050565b6000816004811115610e5757610e576112cf565b03610e5f5750565b6001816004811115610e7357610e736112cf565b03610ec05760405162461bcd60e51b815260206004820152601860248201527f45434453413a20696e76616c6964207369676e6174757265000000000000000060448201526064016102c6565b6002816004811115610ed457610ed46112cf565b03610f215760405162461bcd60e51b815260206004820152601f60248201527f45434453413a20696e76616c6964207369676e6174757265206c656e6774680060448201526064016102c6565b6003816004811115610f3557610f356112cf565b03610af95760405162461bcd60e51b815260206004820152602260248201527f45434453413a20696e76616c6964207369676e6174757265202773272076616c60448201527f756500000000000000000000000000000000000000000000000000000000000060648201526084016102c6565b6000807f7fffffffffffffffffffffffffffffff5d576e7357a4501ddfe92f46681b20a0831115610fdf5750600090506003611063565b6040805160008082526020820180845289905260ff881692820192909252606081018690526080810185905260019060a0016020604051602081039080840390855afa158015611033573d6000803e3d6000fd5b5050604051601f1901519150506001600160a01b03811661105c57600060019250925050611063565b9150600090505b94509492505050565b6001600160a01b0381168114610af957600080fd5b6000806040838503121561109457600080fd5b823561109f8161106c565b915060208301356110af8161106c565b809150509250929050565b600080600080608085870312156110d057600080fd5b84356110db8161106c565b9350602085013592506040850135915060608501356110f98161106c565b939692955090935050565b6000806040838503121561111757600080fd5b82356111228161106c565b946020939093013593505050565b60008060006060848603121561114557600080fd5b83356111508161106c565b95602085013595506040909401359392505050565b634e487b7160e01b600052604160045260246000fd5b60008060008060008060c0878903121561119457600080fd5b863561119f8161106c565b9550602087013594506040870135935060608701356111bd8161106c565b92506080870135915060a087013567ffffffffffffffff808211156111e157600080fd5b818901915089601f8301126111f557600080fd5b81358181111561120757611207611165565b604051601f8201601f19908116603f0116810190838211818310171561122f5761122f611165565b816040528281528c602084870101111561124857600080fd5b8260208601602083013760006020848301015280955050505050509295509295509295565b60006020828403121561127f57600080fd5b813561128a8161106c565b9392505050565b6000602082840312156112a357600080fd5b5051919050565b6000828210156112ca57634e487b7160e01b600052601160045260246000fd5b500390565b634e487b7160e01b600052602160045260246000fdfea2646970667358221220a631979b61059c9ab2aa0626fb497b02a79ce30b12f3df9d2b460e274847bc7564736f6c634300080e0033",
  "linkReferences": {},
  "deployedLinkReferences": {}
}