{
  "_format": "hh-sol-artifact-1",
  "contractName": "DynamicEscrowUpgradeable",
  "sourceName": "contracts/upgradeable/DynamicEscrowUpgradeable.sol",
  "abi": [
    {
      "anonymous": false,
      "inputs": [
        {
          "indexed": true,
          "internalType": "address",
          "name": "receiver",
          "type": "address"
        },
        {
          "indexed": false,
          "internalType": "uint256",
          "name": "weiAmount",
          "type": "uint256"
        },
        {
          "indexed": false,
          "internalType": "uint256",
          "name": "poolId",
          "type": "uint256"
        }
      ],
      "name": "Claimed",
      "type": "event"
    },
    {
      "anonymous": false,
      "inputs": [
        {
          "indexed": true,
          "internalType": "address",
          "name": "spender",
          "type": "address"
        },
        {
          "indexed": false,
          "internalType": "uint256",
          "name": "weiAmount",
          "type": "uint256"
        },
        {
          "indexed": false,
          "internalType": "uint256",
          "name": "poolId",
          "type": "uint256"
        }
      ],
      "name": "Deposited",
      "type": "event"
    },
    {
      "anonymous": false,
      "inputs": [
        {
          "indexed": false,
          "internalType": "uint8",
          "name": "version",
          "type": "uint8"
        }
      ],
      "name": "Initialized",
      "type": "event"
    },
    {
      "anonymous": false,
      "inputs": [
        {
          "indexed": true,
          "internalType": "address",
          "name": "previousOwner",
          "type": "address"
        },
        {
          "indexed": true,
          "internalType": "address",
          "name": "newOwner",
          "type": "address"
        }
      ],
      "name": "OwnershipTransferred",
      "type": "event"
    },
    {
      "anonymous": false,
      "inputs": [
        {
          "indexed": false,
          "internalType": "address",
          "name": "account",
          "type": "address"
        }
      ],
      "name": "Paused",
      "type": "event"
    },
    {
      "anonymous": false,
      "inputs": [
        {
          "indexed": true,
          "internalType": "address",
          "name": "receiver",
          "type": "address"
        },
        {
          "indexed": false,
          "internalType": "uint256",
          "name": "weiAmount",
          "type": "uint256"
        },
        {
          "indexed": false,
          "internalType": "uint256",
          "name": "poolId",
          "type": "uint256"
        }
      ],
      "name": "RewardCredited",
      "type": "event"
    },
    {
      "anonymous": false,
      "inputs": [
        {
          "indexed": false,
          "internalType": "address",
          "name": "account",
          "type": "address"
        }
      ],
      "name": "Unpaused",
      "type": "event"
    },
    {
      "anonymous": false,
      "inputs": [
        {
          "indexed": true,
          "internalType": "address",
          "name": "receiver",
          "type": "address"
        },
        {
          "indexed": false,
          "internalType": "uint256",
          "name": "weiAmount",
          "type": "uint256"
        },
        {
          "indexed": false,
          "internalType": "uint256",
          "name": "poolId",
          "type": "uint256"
        }
      ],
      "name": "Withdrawn",
      "type": "event"
    },
    {
      "inputs": [
        {
          "internalType": "address payable",
          "name": "receiver",
          "type": "address"
        },
        {
          "internalType": "uint256",
          "name": "poolId",
          "type": "uint256"
        },
        {
          "internalType": "uint256",
          "name": "amount",
          "type": "uint256"
        },
        {
          "internalType": "address",
          "name": "tokenAddress",
          "type": "address"
        },
        {
          "internalType": "uint256",
          "name": "nonce",
          "type": "uint256"
        },
        {
          "internalType": "bytes",
          "name": "sig",
          "type": "bytes"
        }
      ],
      "name": "claim",
      "outputs": [],
      "stateMutability": "nonpayable",
      "type": "function"
    },
    {
      "inputs": [
        {
          "internalType": "address",
          "name": "spender",
          "type": "address"
        },
        {
          "internalType": "uint256",
          "name": "poolId",
          "type": "uint256"
        },
        {
          "internalType": "uint256",
          "name": "amount",
          "type": "uint256"
        },
        {
          "internalType": "address",
          "name": "tokenAddress",
          "type": "address"
        }
      ],
      "name": "deposit",
      "outputs": [],
      "stateMutability": "payable",
      "type": "function"
    },
    {
      "inputs": [
        {
          "internalType": "address",
          "name": "payee",
          "type": "address"
        },
        {
          "internalType": "uint256",
          "name": "poolId",
          "type": "uint256"
        }
      ],
      "name": "depositsOf",
      "outputs": [
        {
          "components": [
            {
              "internalType": "uint256",
              "name": "weiAmount",
              "type": "uint256"
            },
            {
              "internalType": "address",
              "name": "tokenAddress",
              "type": "address"
            },
            {
              "internalType": "uint256",
              "name": "poolId",
              "type": "uint256"
            }
          ],
          "internalType": "struct IEscrow.DynamicDeposit",
          "name": "",
          "type": "tuple"
        }
      ],
      "stateMutability": "view",
      "type": "function"
    },
    {
      "inputs": [],
      "name": "getRewarder",
      "outputs": [
        {
          "internalType": "address",
          "name": "",
          "type": "address"
        }
      ],
      "stateMutability": "view",
      "type": "function"
    },
    {
      "inputs": [],
      "name": "getTrustedAccount",
      "outputs": [
        {
          "internalType": "address",
          "name": "",
          "type": "address"
        }
      ],
      "stateMutability": "view",
      "type": "function"
    },
    {
      "inputs": [
        {
          "internalType": "address",
          "name": "rewarder",
          "type": "address"
        },
        {
          "internalType": "address",
          "name": "trustedAccountAddress",
          "type": "address"
        }
      ],
      "name": "initialize",
      "outputs": [],
      "stateMutability": "nonpayable",
      "type": "function"
    },
    {
      "inputs": [],
      "name": "owner",
      "outputs": [
        {
          "internalType": "address",
          "name": "",
          "type": "address"
        }
      ],
      "stateMutability": "view",
      "type": "function"
    },
    {
      "inputs": [],
      "name": "paused",
      "outputs": [
        {
          "internalType": "bool",
          "name": "",
          "type": "bool"
        }
      ],
      "stateMutability": "view",
      "type": "function"
    },
    {
      "inputs": [],
      "name": "renounceOwnership",
      "outputs": [],
      "stateMutability": "nonpayable",
      "type": "function"
    },
    {
      "inputs": [
        {
          "internalType": "address",
          "name": "newOwner",
          "type": "address"
        }
      ],
      "name": "transferOwnership",
      "outputs": [],
      "stateMutability": "nonpayable",
      "type": "function"
    },
    {
      "inputs": [
        {
          "internalType": "address payable",
          "name": "receiver",
          "type": "address"
        },
        {
          "internalType": "uint256",
          "name": "poolId",
          "type": "uint256"
        },
        {
          "internalType": "uint256",
          "name": "amount",
          "type": "uint256"
        }
      ],
      "name": "withdraw",
      "outputs": [],
      "stateMutability": "nonpayable",
      "type": "function"
    }
  ],
  "bytecode": "0x608060405234801561001057600080fd5b506115f6806100206000396000f3fe6080604052600436106100bc5760003560e01c80639015dcc911610074578063ba7cfb441161004e578063ba7cfb44146101ee578063dee8667f1461020e578063f2fde38b1461022c57600080fd5b80639015dcc914610165578063ae22192e14610183578063b5c5f672146101ce57600080fd5b8063715018a6116100a5578063715018a61461010b5780638b6099db146101205780638da5cb5b1461013357600080fd5b8063485cc955146100c15780635c975abb146100e3575b600080fd5b3480156100cd57600080fd5b506100e16100dc3660046112f6565b61024c565b005b3480156100ef57600080fd5b5060655460ff1660405190151581526020015b60405180910390f35b34801561011757600080fd5b506100e16103b8565b6100e161012e36600461132f565b6103cc565b34801561013f57600080fd5b506033546001600160a01b03165b6040516001600160a01b039091168152602001610102565b34801561017157600080fd5b5060c9546001600160a01b031661014d565b34801561018f57600080fd5b506101a361019e366004611379565b610774565b60408051825181526020808401516001600160a01b0316908201529181015190820152606001610102565b3480156101da57600080fd5b506100e16101e93660046113a5565b6107ec565b3480156101fa57600080fd5b506100e16102093660046113f0565b610a2b565b34801561021a57600080fd5b5060ca546001600160a01b031661014d565b34801561023857600080fd5b506100e16102473660046114e2565b610bf6565b600054610100900460ff161580801561026c5750600054600160ff909116105b806102865750303b158015610286575060005460ff166001145b6102fd5760405162461bcd60e51b815260206004820152602e60248201527f496e697469616c697a61626c653a20636f6e747261637420697320616c72656160448201527f647920696e697469616c697a656400000000000000000000000000000000000060648201526084015b60405180910390fd5b6000805460ff191660011790558015610320576000805461ff0019166101001790555b610328610c86565b610330610cf9565b60c980546001600160a01b0380861673ffffffffffffffffffffffffffffffffffffffff199283161790925560ca80549285169290911691909117905580156103b3576000805461ff0019169055604051600181527f7f26b83ff96e1f2b6a682f133852f6798a09c465da95921460cefb38474024989060200160405180910390a15b505050565b6103c0610d6c565b6103ca6000610dc6565b565b6103d4610e25565b6103dc610e7e565b600083815260cb602090815260408083206001600160a01b0380891685529083529281902081516060810183528154808252600183015490951693810193909352600201549082015290156104995760405162461bcd60e51b815260206004820152602860248201527f41206465706f7369742077617320616c7265616479206d61646520666f72207460448201527f68697320706f6f6c00000000000000000000000000000000000000000000000060648201526084016102f4565b6001600160a01b0382161561060c576040517f70a082310000000000000000000000000000000000000000000000000000000081526001600160a01b03868116600483015283916000918316906370a08231906024016020604051808303816000875af115801561050e573d6000803e3d6000fd5b505050506040513d601f19601f820116820180604052508101906105329190611506565b9050848110156105845760405162461bcd60e51b815260206004820152601460248201527f496e73756666696369656e742062616c616e636500000000000000000000000060448201526064016102f4565b6040517f23b872dd0000000000000000000000000000000000000000000000000000000081526001600160a01b038881166004830152306024830152604482018790528316906323b872dd90606401600060405180830381600087803b1580156105ed57600080fd5b505af1158015610601573d6000803e3d6000fd5b50505050505061065b565b82341461065b5760405162461bcd60e51b815260206004820152600e60248201527f496e76616c696420616d6f756e7400000000000000000000000000000000000060448201526064016102f4565b604080516060810182528481526001600160a01b03848116602080840191825283850189815260008a815260cb83528681208c861682529092529481208451808255925160018201805473ffffffffffffffffffffffffffffffffffffffff19169190951617909355935160029092019190915590910361071e5760405162461bcd60e51b815260206004820181905260248201527f4661696c656420746f2073617665206465706f736974206f6e20636861696e2160448201526064016102f4565b60408051858152602081018790526001600160a01b038816917f73a19dd210f1a7f902193214c0ee91dd35ee5b4d920cba8d519eca65a7b488ca910160405180910390a2505061076e6001609755565b50505050565b6107a160405180606001604052806000815260200160006001600160a01b03168152602001600081525090565b50600090815260cb602090815260408083206001600160a01b039485168452825291829020825160608101845281548152600182015490941691840191909152600201549082015290565b6107f4610e25565b6107fc610e7e565b600082815260cb602090815260408083203384529091529020600181015481546001600160a01b03909116908311156108775760405162461bcd60e51b815260206004820152601060248201527f4e6f7420656e6f7567682066756e64730000000000000000000000000000000060448201526064016102f4565b60408051808201909152601081527f746f6b656e206164647265737320697300000000000000000000000000000000602082015260018301546108c391906001600160a01b0316610ed8565b815483900361091057600084815260cb60209081526040808320338452909152812081815560018101805473ffffffffffffffffffffffffffffffffffffffff191690556002015561092a565b82826000016000828254610924919061151f565b90915550505b6001600160a01b038116610974576040516001600160a01b0386169084156108fc029085906000818181858888f1935050505015801561096e573d6000803e3d6000fd5b506109db565b60405163a9059cbb60e01b81526001600160a01b0386811660048301526024820185905282919082169063a9059cbb90604401600060405180830381600087803b1580156109c157600080fd5b505af11580156109d5573d6000803e3d6000fd5b50505050505b60408051848152602081018690526001600160a01b038716917f92ccf450a286a957af52509bc1c9939d1a6a481783e142e41e2499f0bb66ebc6910160405180910390a250506103b36001609755565b610a33610e25565b610a3b610e7e565b604080516bffffffffffffffffffffffff19606089901b16602080830191909152603482018790526054808301869052835180840390910181526074909201909252805191012060ca546001600160a01b0316610a988284610f4f565b6001600160a01b031614610aee5760405162461bcd60e51b815260206004820152601860248201527f436c61696d3a20496e76616c6964207369676e6174757265000000000000000060448201526064016102f4565b6001600160a01b038416610b38576040516001600160a01b0388169086156108fc029087906000818181858888f19350505050158015610b32573d6000803e3d6000fd5b50610b9f565b60405163a9059cbb60e01b81526001600160a01b0388811660048301526024820187905285919082169063a9059cbb90604401600060405180830381600087803b158015610b8557600080fd5b505af1158015610b99573d6000803e3d6000fd5b50505050505b60408051868152602081018890526001600160a01b038916917f987d620f307ff6b94d58743cb7a7509f24071586a77759b77c2d4e29f75a2f9a910160405180910390a250610bee6001609755565b505050505050565b610bfe610d6c565b6001600160a01b038116610c7a5760405162461bcd60e51b815260206004820152602660248201527f4f776e61626c653a206e6577206f776e657220697320746865207a65726f206160448201527f646472657373000000000000000000000000000000000000000000000000000060648201526084016102f4565b610c8381610dc6565b50565b600054610100900460ff16610cf15760405162461bcd60e51b815260206004820152602b60248201527f496e697469616c697a61626c653a20636f6e7472616374206973206e6f74206960448201526a6e697469616c697a696e6760a81b60648201526084016102f4565b6103ca610f73565b600054610100900460ff16610d645760405162461bcd60e51b815260206004820152602b60248201527f496e697469616c697a61626c653a20636f6e7472616374206973206e6f74206960448201526a6e697469616c697a696e6760a81b60648201526084016102f4565b6103ca610fe7565b6033546001600160a01b031633146103ca5760405162461bcd60e51b815260206004820181905260248201527f4f776e61626c653a2063616c6c6572206973206e6f7420746865206f776e657260448201526064016102f4565b603380546001600160a01b0383811673ffffffffffffffffffffffffffffffffffffffff19831681179093556040519116919082907f8be0079c531659141344cd1fd0a4f28419497f9722a3daafe3b4186f6b6457e090600090a35050565b600260975403610e775760405162461bcd60e51b815260206004820152601f60248201527f5265656e7472616e637947756172643a207265656e7472616e742063616c6c0060448201526064016102f4565b6002609755565b60655460ff16156103ca5760405162461bcd60e51b815260206004820152601060248201527f5061757361626c653a207061757365640000000000000000000000000000000060448201526064016102f4565b6001609755565b610f4b8282604051602401610eee929190611544565b60408051601f198184030181529190526020810180517bffffffffffffffffffffffffffffffffffffffffffffffffffffffff167f319af33300000000000000000000000000000000000000000000000000000000179052611052565b5050565b6000806000610f5e8585611073565b91509150610f6b816110b8565b509392505050565b600054610100900460ff16610fde5760405162461bcd60e51b815260206004820152602b60248201527f496e697469616c697a61626c653a20636f6e7472616374206973206e6f74206960448201526a6e697469616c697a696e6760a81b60648201526084016102f4565b6103ca33610dc6565b600054610100900460ff16610ed15760405162461bcd60e51b815260206004820152602b60248201527f496e697469616c697a61626c653a20636f6e7472616374206973206e6f74206960448201526a6e697469616c697a696e6760a81b60648201526084016102f4565b80516a636f6e736f6c652e6c6f67602083016000808483855afa5050505050565b60008082516041036110a95760208301516040840151606085015160001a61109d8782858561121d565b945094505050506110b1565b506000905060025b9250929050565b60008160048111156110cc576110cc6115aa565b036110d45750565b60018160048111156110e8576110e86115aa565b036111355760405162461bcd60e51b815260206004820152601860248201527f45434453413a20696e76616c6964207369676e6174757265000000000000000060448201526064016102f4565b6002816004811115611149576111496115aa565b036111965760405162461bcd60e51b815260206004820152601f60248201527f45434453413a20696e76616c6964207369676e6174757265206c656e6774680060448201526064016102f4565b60038160048111156111aa576111aa6115aa565b03610c835760405162461bcd60e51b815260206004820152602260248201527f45434453413a20696e76616c6964207369676e6174757265202773272076616c60448201527f756500000000000000000000000000000000000000000000000000000000000060648201526084016102f4565b6000807f7fffffffffffffffffffffffffffffff5d576e7357a4501ddfe92f46681b20a083111561125457506000905060036112d8565b6040805160008082526020820180845289905260ff881692820192909252606081018690526080810185905260019060a0016020604051602081039080840390855afa1580156112a8573d6000803e3d6000fd5b5050604051601f1901519150506001600160a01b0381166112d1576000600192509250506112d8565b9150600090505b94509492505050565b6001600160a01b0381168114610c8357600080fd5b6000806040838503121561130957600080fd5b8235611314816112e1565b91506020830135611324816112e1565b809150509250929050565b6000806000806080858703121561134557600080fd5b8435611350816112e1565b93506020850135925060408501359150606085013561136e816112e1565b939692955090935050565b6000806040838503121561138c57600080fd5b8235611397816112e1565b946020939093013593505050565b6000806000606084860312156113ba57600080fd5b83356113c5816112e1565b95602085013595506040909401359392505050565b634e487b7160e01b600052604160045260246000fd5b60008060008060008060c0878903121561140957600080fd5b8635611414816112e1565b955060208701359450604087013593506060870135611432816112e1565b92506080870135915060a087013567ffffffffffffffff8082111561145657600080fd5b818901915089601f83011261146a57600080fd5b81358181111561147c5761147c6113da565b604051601f8201601f19908116603f011681019083821181831017156114a4576114a46113da565b816040528281528c60208487010111156114bd57600080fd5b8260208601602083013760006020848301015280955050505050509295509295509295565b6000602082840312156114f457600080fd5b81356114ff816112e1565b9392505050565b60006020828403121561151857600080fd5b5051919050565b60008282101561153f57634e487b7160e01b600052601160045260246000fd5b500390565b604081526000835180604084015260005b818110156115725760208187018101516060868401015201611555565b81811115611584576000606083860101525b506001600160a01b0393909316602083015250601f91909101601f191601606001919050565b634e487b7160e01b600052602160045260246000fdfea2646970667358221220f7b2b5f67dc563650a74aa07d99d127ebd5a04985fb06394db16fa6fa46f3b1b64736f6c634300080e0033",
  "linkReferences": {},
  "deployedLinkReferences": {}
}