{
  "_format": "hh-sol-artifact-1",
  "contractName": "DynamicEscrowUpgradeable",
  "sourceName": "contracts/upgradeable/DynamicEscrowUpgradeable.sol",
  "abi": [
    {
      "anonymous": false,
      "inputs": [
        {
          "indexed": true,
          "internalType": "address",
          "name": "receiver",
          "type": "address"
        },
        {
          "indexed": false,
          "internalType": "uint256",
          "name": "weiAmount",
          "type": "uint256"
        },
        {
          "indexed": false,
          "internalType": "uint256",
          "name": "poolId",
          "type": "uint256"
        }
      ],
      "name": "Claimed",
      "type": "event"
    },
    {
      "anonymous": false,
      "inputs": [
        {
          "indexed": true,
          "internalType": "address",
          "name": "spender",
          "type": "address"
        },
        {
          "indexed": false,
          "internalType": "uint256",
          "name": "weiAmount",
          "type": "uint256"
        },
        {
          "indexed": false,
          "internalType": "uint256",
          "name": "poolId",
          "type": "uint256"
        }
      ],
      "name": "Deposited",
      "type": "event"
    },
    {
      "anonymous": false,
      "inputs": [
        {
          "indexed": false,
          "internalType": "uint8",
          "name": "version",
          "type": "uint8"
        }
      ],
      "name": "Initialized",
      "type": "event"
    },
    {
      "anonymous": false,
      "inputs": [
        {
          "indexed": true,
          "internalType": "address",
          "name": "previousOwner",
          "type": "address"
        },
        {
          "indexed": true,
          "internalType": "address",
          "name": "newOwner",
          "type": "address"
        }
      ],
      "name": "OwnershipTransferred",
      "type": "event"
    },
    {
      "anonymous": false,
      "inputs": [
        {
          "indexed": true,
          "internalType": "address",
          "name": "receiver",
          "type": "address"
        },
        {
          "indexed": false,
          "internalType": "uint256",
          "name": "weiAmount",
          "type": "uint256"
        },
        {
          "indexed": false,
          "internalType": "uint256",
          "name": "poolId",
          "type": "uint256"
        }
      ],
      "name": "RewardCredited",
      "type": "event"
    },
    {
      "anonymous": false,
      "inputs": [
        {
          "indexed": true,
          "internalType": "address",
          "name": "receiver",
          "type": "address"
        },
        {
          "indexed": false,
          "internalType": "uint256",
          "name": "weiAmount",
          "type": "uint256"
        },
        {
          "indexed": false,
          "internalType": "uint256",
          "name": "poolId",
          "type": "uint256"
        }
      ],
      "name": "Withdrawn",
      "type": "event"
    },
    {
      "inputs": [
        {
          "internalType": "address payable",
          "name": "receiver",
          "type": "address"
        },
        {
          "internalType": "uint256",
          "name": "poolId",
          "type": "uint256"
        },
        {
          "internalType": "uint256",
          "name": "amount",
          "type": "uint256"
        },
        {
          "internalType": "address",
          "name": "tokenAddress",
          "type": "address"
        },
        {
          "internalType": "uint256",
          "name": "nonce",
          "type": "uint256"
        },
        {
          "internalType": "bytes",
          "name": "sig",
          "type": "bytes"
        }
      ],
      "name": "claim",
      "outputs": [],
      "stateMutability": "nonpayable",
      "type": "function"
    },
    {
      "inputs": [
        {
          "internalType": "address",
          "name": "spender",
          "type": "address"
        },
        {
          "internalType": "uint256",
          "name": "poolId",
          "type": "uint256"
        },
        {
          "internalType": "uint256",
          "name": "amount",
          "type": "uint256"
        },
        {
          "internalType": "address",
          "name": "tokenAddress",
          "type": "address"
        }
      ],
      "name": "deposit",
      "outputs": [],
      "stateMutability": "payable",
      "type": "function"
    },
    {
      "inputs": [
        {
          "internalType": "address",
          "name": "payee",
          "type": "address"
        },
        {
          "internalType": "uint256",
          "name": "poolId",
          "type": "uint256"
        }
      ],
      "name": "depositsOf",
      "outputs": [
        {
          "components": [
            {
              "internalType": "uint256",
              "name": "weiAmount",
              "type": "uint256"
            },
            {
              "internalType": "address",
              "name": "tokenAddress",
              "type": "address"
            },
            {
              "internalType": "uint256",
              "name": "poolId",
              "type": "uint256"
            }
          ],
          "internalType": "struct IEscrow.DynamicDeposit",
          "name": "",
          "type": "tuple"
        }
      ],
      "stateMutability": "view",
      "type": "function"
    },
    {
      "inputs": [],
      "name": "getRewarder",
      "outputs": [
        {
          "internalType": "address",
          "name": "",
          "type": "address"
        }
      ],
      "stateMutability": "view",
      "type": "function"
    },
    {
      "inputs": [],
      "name": "getTrustedAccount",
      "outputs": [
        {
          "internalType": "address",
          "name": "",
          "type": "address"
        }
      ],
      "stateMutability": "view",
      "type": "function"
    },
    {
      "inputs": [
        {
          "internalType": "address",
          "name": "rewarder",
          "type": "address"
        },
        {
          "internalType": "address",
          "name": "trustedAccountAddress",
          "type": "address"
        }
      ],
      "name": "initialize",
      "outputs": [],
      "stateMutability": "nonpayable",
      "type": "function"
    },
    {
      "inputs": [],
      "name": "owner",
      "outputs": [
        {
          "internalType": "address",
          "name": "",
          "type": "address"
        }
      ],
      "stateMutability": "view",
      "type": "function"
    },
    {
      "inputs": [],
      "name": "renounceOwnership",
      "outputs": [],
      "stateMutability": "nonpayable",
      "type": "function"
    },
    {
      "inputs": [
        {
          "internalType": "address",
          "name": "newOwner",
          "type": "address"
        }
      ],
      "name": "transferOwnership",
      "outputs": [],
      "stateMutability": "nonpayable",
      "type": "function"
    },
    {
      "inputs": [
        {
          "internalType": "address payable",
          "name": "receiver",
          "type": "address"
        },
        {
          "internalType": "uint256",
          "name": "poolId",
          "type": "uint256"
        },
        {
          "internalType": "uint256",
          "name": "amount",
          "type": "uint256"
        }
      ],
      "name": "withdraw",
      "outputs": [],
      "stateMutability": "nonpayable",
      "type": "function"
    }
  ],
  "bytecode": "0x608060405234801561001057600080fd5b5061335d806100206000396000f3fe6080604052600436106100b15760003560e01c8063ae22192e11610069578063ba7cfb441161004e578063ba7cfb44146101ce578063dee8667f146101f7578063f2fde38b14610222576100b1565b8063ae22192e14610168578063b5c5f672146101a5576100b1565b80638b6099db1161009a5780638b6099db146100f65780638da5cb5b146101125780639015dcc91461013d576100b1565b8063485cc955146100b6578063715018a6146100df575b600080fd5b3480156100c257600080fd5b506100dd60048036038101906100d891906125be565b61024b565b005b3480156100eb57600080fd5b506100f46105a1565b005b610110600480360381019061010b9190612634565b6105b5565b005b34801561011e57600080fd5b50610127610d01565b60405161013491906126aa565b60405180910390f35b34801561014957600080fd5b50610152610d2b565b60405161015f91906126aa565b60405180910390f35b34801561017457600080fd5b5061018f600480360381019061018a91906126c5565b610dd9565b60405161019c9190612765565b60405180910390f35b3480156101b157600080fd5b506101cc60048036038101906101c791906127be565b610f32565b005b3480156101da57600080fd5b506101f560048036038101906101f09190612957565b611766565b005b34801561020357600080fd5b5061020c611caf565b60405161021991906126aa565b60405180910390f35b34801561022e57600080fd5b5061024960048036038101906102449190612a00565b611d5d565b005b60008060019054906101000a900460ff1615905080801561027c5750600160008054906101000a900460ff1660ff16105b806102a9575061028b30611de0565b1580156102a85750600160008054906101000a900460ff1660ff16145b5b6102e8576040517f08c379a00000000000000000000000000000000000000000000000000000000081526004016102df90612ab0565b60405180910390fd5b60016000806101000a81548160ff021916908360ff1602179055508015610325576001600060016101000a81548160ff0219169083151502179055505b6103517f3fc1a53b1638ac4e72356eddaecc9d0db3a1f0afcb4965bf37e0fa310754d8b560001b611e03565b61037d7f6b76e96a341f832ad6c324ebae5fd5c419c0c986a8184e0f5a90c9eb92b26f9960001b611e03565b6103a97f5c88fbd52afd4bcf2f35908f3aeb71185def66e92a50ec513f89db4ea893dc4c60001b611e03565b6103b1611e06565b6103dd7f213f9a959ac60909fe062261a528977a7d6dd2437cbd8ef4082fc786a04bcdb260001b611e03565b6104097f1e2d7a372f5e509c2c3191f73157584c279464a4e2bffa94418a72f4a56ee6f660001b611e03565b610411611ee3565b61043d7f01b6742c1632aeb4af43d23078578a2a25972b299a8f2c7231a009b6fdc4571360001b611e03565b6104697f8d3980af1db98452b2f80b09bf7d8135beb1f0001bc01d3b360921b5b36da3ff60001b611e03565b82609760006101000a81548173ffffffffffffffffffffffffffffffffffffffff021916908373ffffffffffffffffffffffffffffffffffffffff1602179055506104d67f19430df2faa4ab5e23a8f6a109818ad989d526a9119deaa046cf485118981a7660001b611e03565b6105027fcc2ec02c6580ebf185821abd3875d0e36cb3920cd34597baf5e85538b954c15d60001b611e03565b81609860006101000a81548173ffffffffffffffffffffffffffffffffffffffff021916908373ffffffffffffffffffffffffffffffffffffffff160217905550801561059c5760008060016101000a81548160ff0219169083151502179055507f7f26b83ff96e1f2b6a682f133852f6798a09c465da95921460cefb384740249860016040516105939190612b22565b60405180910390a15b505050565b6105a9611f3c565b6105b36000611fba565b565b6105bd612080565b6105e97f52c7b9650de46d2d6bdf8fd96cd866b852f96429f22384843b02453fb38ca88360001b611e03565b6106157f89bb3ad0dce5c71e8ee129493e4c97ffae7cc65682e665d57a556d372629b0c960001b611e03565b6106417f9e29735bc06545930c7b2ad5c38a125f16bf833ee937aaafb8676d6d84672cc460001b611e03565b600073ffffffffffffffffffffffffffffffffffffffff168173ffffffffffffffffffffffffffffffffffffffff1614610997576106a17fbe8f62d3f8cf21063061e2ccc383ab2b87b2085aad1fc8f24f7ff4b265936fe560001b611e03565b6106cd7f657dc7525afcbc2fc99f6558a9a9dc4b93bd10b84d5c61a92a3549ae942be99060001b611e03565b6106f97f249f65fac7aa03522d76f187b7dfaa9e44eed9b4d982be8395fa7e886b53b33960001b611e03565b600081905061072a7f4f6c57da0e114d09b0806717025643f60575e6e22665d4036d638a2b5d13bb6160001b611e03565b6107567f7d253c4517b3ca11e57743cdd373a98548fff17755189c6f0515765143a099df60001b611e03565b60008173ffffffffffffffffffffffffffffffffffffffff166370a08231876040518263ffffffff1660e01b815260040161079191906126aa565b6020604051808303816000875af11580156107b0573d6000803e3d6000fd5b505050506040513d601f19601f820116820180604052508101906107d49190612b52565b90506108027fc653a2e20e5b489d65789233d37cf0293f930ecfaaeb25b9a0e2f8c3840c644f60001b611e03565b61082e7f4e2c9c818c98440dd4770c68cd93a9488eb22531e1af2388ee297ba31d07fbad60001b611e03565b61085a7fe3b8d72937f41915dcb781ff6481d6d937f708bf7533fafb78d53be49f291f0360001b611e03565b8381101561089d576040517f08c379a000000000000000000000000000000000000000000000000000000000815260040161089490612bcb565b60405180910390fd5b6108c97f2f8b43e8e32274b99e6de2407ba9590ca2836d551fb69447bea4fbd783a768c160001b611e03565b6108f57f5bdc586b78de46ab8eb996076387ab0e90a7325be6d8479e7e2f7f7f562b8bb560001b611e03565b6109217f65ef869b1476391728853ae5f512a8431d1db464681d0c7257d0c54ef86a4a9b60001b611e03565b8173ffffffffffffffffffffffffffffffffffffffff166323b872dd8730876040518463ffffffff1660e01b815260040161095e93929190612bfa565b600060405180830381600087803b15801561097857600080fd5b505af115801561098c573d6000803e3d6000fd5b505050505050610ab6565b6109c37fb686ce4128ee3f7794818edca68357623acae41c7b49a56e8a35f61686c2f0f360001b611e03565b6109ef7f7c07a63d845e63b1915c83d33191b644c9db450824c2506db327694402f5259d60001b611e03565b610a1b7f190515de83d5c7690b391e4e14aa11e3a2e9e5b0f5d5ead8521db636ec67df5d60001b611e03565b610a477fa5e62c089db31ba03cff1d738206339af635e3c92716f8bc6ca441f05d361e6760001b611e03565b813414610a89576040517f08c379a0000000000000000000000000000000000000000000000000000000008152600401610a8090612c7d565b60405180910390fd5b610ab57f4818b65c7873224531e4453707acaf7249c5bc11676e97d76bb8c4268de4c2b360001b611e03565b5b610ae27f25924d7eb958ec8597e5807bde242ce4135756f8e0aa4fb099cb2b46937d385e60001b611e03565b610b0e7fe1aa6f42c8d0fdea7f28ca6e492d609e05428ca42b703a5cc474d1af08f6c20f60001b611e03565b600060405180606001604052808481526020018373ffffffffffffffffffffffffffffffffffffffff168152602001858152509050610b6f7fc76cce38054a3167d010a5b9646c22eff9c9a4f021a4ee8eefdc6f776550d5ff60001b611e03565b610b9b7fff5a46d30611e12e927f4219c22fc59d537632e2be20ab7afd839746078eab8f60001b611e03565b806099600086815260200190815260200160002060008773ffffffffffffffffffffffffffffffffffffffff1673ffffffffffffffffffffffffffffffffffffffff1681526020019081526020016000206000820151816000015560208201518160010160006101000a81548173ffffffffffffffffffffffffffffffffffffffff021916908373ffffffffffffffffffffffffffffffffffffffff16021790555060408201518160020155905050610c767f9d3ffeee4d00cc6c35d909addb1f70b3ad3614f411d0ea4666bab787750d42de60001b611e03565b610ca27faedeb7dc02f373efb4b25ce59917e0c6f386c8b497d15499b0a6544809d3eb0460001b611e03565b8473ffffffffffffffffffffffffffffffffffffffff167f73a19dd210f1a7f902193214c0ee91dd35ee5b4d920cba8d519eca65a7b488ca8486604051610cea929190612c9d565b60405180910390a250610cfb6120cf565b50505050565b6000603360009054906101000a900473ffffffffffffffffffffffffffffffffffffffff16905090565b6000610d597fef271b6af9f38f2d9dee446a88912e68d91d8e2db146cc1b558d3f0ff291eb6f60001b611e03565b610d857f07f0c409c85ab9f1dcf8047844a94e653b25a36795689153c8442f5283006a8f60001b611e03565b610db17fc1e4802a619b3f5105020d45d8811feb277f8ad753727683bbf98ed33e7fa3f960001b611e03565b609760009054906101000a900473ffffffffffffffffffffffffffffffffffffffff16905090565b610de1612515565b610e0d7f598e970f558eee842a5002127562e7b7cdb191ee5cce7040583f3be26b2664e260001b611e03565b610e397f077f3426c54bf1dcb858f0454c49f702e9d9f9c81bbd31ec7227aaf35e28e90260001b611e03565b610e657fc020cbdab17dba9318491d82b8458bdd376cbbe8d106379fc42259fe3d10077960001b611e03565b6099600083815260200190815260200160002060008473ffffffffffffffffffffffffffffffffffffffff1673ffffffffffffffffffffffffffffffffffffffff168152602001908152602001600020604051806060016040529081600082015481526020016001820160009054906101000a900473ffffffffffffffffffffffffffffffffffffffff1673ffffffffffffffffffffffffffffffffffffffff1673ffffffffffffffffffffffffffffffffffffffff168152602001600282015481525050905092915050565b610f3a612080565b610f667f700a0613839c2b3fec7ead46c939e39d156680fc0da1e0c2d0c468c9b84e101560001b611e03565b610f927fe366a2f04afdb4bfa61ac8d1674a53670e0a21da5e74596197a7cb4cbdb701eb60001b611e03565b610fbe7f9685118904800afd82a8b7b2b36bf5a729453bdfc8ac84ae8d917fd6feb7f6b960001b611e03565b610fea7fb31a94f4aa4f7b63cb2507fed878be2dfbd13fddc13488d99307984b19ba3b8e60001b611e03565b806099600084815260200190815260200160002060003373ffffffffffffffffffffffffffffffffffffffff1673ffffffffffffffffffffffffffffffffffffffff168152602001908152602001600020600001541015611080576040517f08c379a000000000000000000000000000000000000000000000000000000000815260040161107790612d12565b60405180910390fd5b6110ac7f83b75ad5369b6979e096cf7e9586f65c3327b194164453f53fc59124050a4d1460001b611e03565b6110d87ffeafce07548c0c09fb4580d38364ccb78d892198209e4bfd676115ee2969d07360001b611e03565b6111047fb817269b6853fa5c403e3d1b2d4842080324b8a5005f802d540df3e97e85d48060001b611e03565b60006099600084815260200190815260200160002060003373ffffffffffffffffffffffffffffffffffffffff1673ffffffffffffffffffffffffffffffffffffffff16815260200190815260200160002060010160009054906101000a900473ffffffffffffffffffffffffffffffffffffffff1690506111a87fafd29710954172882da5c380dc5f2244ac2d5ab5130e684f206d0b01dbd59e1460001b611e03565b6111d47f1e51d883d5ccec0ce62edd46afb6b9f7e07d69bfc449940a19a3b6892172356360001b611e03565b816099600085815260200190815260200160002060003373ffffffffffffffffffffffffffffffffffffffff1673ffffffffffffffffffffffffffffffffffffffff16815260200190815260200160002060000154036113155761125a7f688bdd557e06e76edae8767dc6f4fdba83d2fd09ce58c53460af60b86d592a6660001b611e03565b6112867f5fead574dd4c66a5611b9f4ec7a02b32dfcee0754fd41813f4a830d416b1e52960001b611e03565b6099600084815260200190815260200160002060003373ffffffffffffffffffffffffffffffffffffffff1673ffffffffffffffffffffffffffffffffffffffff1681526020019081526020016000206000808201600090556001820160006101000a81549073ffffffffffffffffffffffffffffffffffffffff021916905560028201600090555050611404565b6113417f68dece68a0a4b42d481f6b03c2cb4e7cd07bae1db3431673b957b4abe0a86dd060001b611e03565b61136d7f5bdd749c110d69d66dc925104c33e99e5fa54653164559faedfb2ff19a53541360001b611e03565b6113997fce1bb04bd70d715c9d9916c29ccaa1d5242883003fb27ea9a248bb556e20fdc360001b611e03565b816099600085815260200190815260200160002060003373ffffffffffffffffffffffffffffffffffffffff1673ffffffffffffffffffffffffffffffffffffffff16815260200190815260200160002060000160008282546113fc9190612d61565b925050819055505b6114307f78849ed8c0500a665516566995a9633ed123b5b749be61c3810b92ed778d4f1d60001b611e03565b61145c7fb4c7fa7aef6db5697df508f14d06c88e449e33bed8f1149e3a4dc6bbff1dfb0760001b611e03565b600073ffffffffffffffffffffffffffffffffffffffff168173ffffffffffffffffffffffffffffffffffffffff1603611560576114bc7fac22724edcf49cd77ecf2369e99c7d6202d185f3603e8c6159f727835dcc28af60001b611e03565b6114e87ff0cc90b7aa1f65a1da487ddfa25540dc8d6ae8b2b418da457db8c25af438a40b60001b611e03565b6115147ff8df0eaa60c5ce0801ac19e88640c6bc1a8a79dca87f9c541ae217ad8ee7c33260001b611e03565b8373ffffffffffffffffffffffffffffffffffffffff166108fc839081150290604051600060405180830381858888f1935050505015801561155a573d6000803e3d6000fd5b506116b0565b61158c7f0b1ba73211215b5b849d2d08fb48d6cf19c3288490f349ec87c0898016b6499460001b611e03565b6115b87f9424e545b3c1dfaf5ef75b31dda3cd8a27c9facb2b58b0d34d6b4842228f708160001b611e03565b6115e47f1b2979c1840ad40e15fca5877105aac60114d63c5ea12be4d3977f438fca5f1a60001b611e03565b60008190506116157f3e09064304b59fe4c31f053d7c76b3f8cfdd0d19859909cb4036f0235d3f5c4d60001b611e03565b6116417f8f308824f853bbed1df3ef1e81a6273857609f27eb5716576c167ee46ac4c89f60001b611e03565b8073ffffffffffffffffffffffffffffffffffffffff1663a9059cbb86856040518363ffffffff1660e01b815260040161167c929190612dea565b600060405180830381600087803b15801561169657600080fd5b505af11580156116aa573d6000803e3d6000fd5b50505050505b6116dc7f86cb92c1298d53d1d3486cde989a1805fac79891412d72873eeee34e1df1558e60001b611e03565b6117087f0491d2a2d139fcae8e7cbc848a9491673715b14e9ec335acc09d03f0035b733960001b611e03565b8373ffffffffffffffffffffffffffffffffffffffff167f92ccf450a286a957af52509bc1c9939d1a6a481783e142e41e2499f0bb66ebc68385604051611750929190612c9d565b60405180910390a2506117616120cf565b505050565b61176e612080565b61179a7ffd80322b6f31b6f0a5419dbbf93a382a821cbb975a34846c1faf2481acc78fb460001b611e03565b6117c67f7b7a7eb2ce7392a844febed50a6cdf238cc230e85962351b932b4d5fbb0aaf0060001b611e03565b6117f27f47a1ed37beb9023a07723a137e401195423ae359aa08b8bf8e46586f80f3e86660001b611e03565b60006117ff8786856120d9565b905061182d7fef77d754c3699d18e71e6dc5d32d8b7cc8a52e76de041b19b88df07c47783a3260001b611e03565b6118597fb37039bffb80a0cd1e4c3a038b390f17d6a8795c002f5ad77a5cfb991283776360001b611e03565b6118857fc09df4a53d526ffb7578d9099506c7e798950eac40a1d28e81601a10b83ec88760001b611e03565b609860009054906101000a900473ffffffffffffffffffffffffffffffffffffffff1673ffffffffffffffffffffffffffffffffffffffff166118c88284612193565b73ffffffffffffffffffffffffffffffffffffffff161461191e576040517f08c379a000000000000000000000000000000000000000000000000000000000815260040161191590612e5f565b60405180910390fd5b61194a7f46f9caa15f4dd1c4a5699d32287652f43d536b2cb2d3e1eb91385f61add98fb260001b611e03565b6119767fa1022edb3e3cc8613e4ec93bc3a2276daac30a91fbf5f75764778e85b6989b5860001b611e03565b6119a27fdb3c551f0d78bcb3e0aa3627f314b3cb1ca62c85de6a6a5ef35bbadc6e47676460001b611e03565b600073ffffffffffffffffffffffffffffffffffffffff168473ffffffffffffffffffffffffffffffffffffffff1603611aa657611a027f29c8a018fbc3e25fe310213967456064f980f2b506624fd8572f91d8e411f9f360001b611e03565b611a2e7fb642b3be7fc40cb7a81862af09df5255d03869d0823b4052b7c642e3767a18b760001b611e03565b611a5a7f1c341a53f4941a1181fd44a8376b0ea848cd3624012ce02a0e50d475fd482c0560001b611e03565b8673ffffffffffffffffffffffffffffffffffffffff166108fc869081150290604051600060405180830381858888f19350505050158015611aa0573d6000803e3d6000fd5b50611bf6565b611ad27fac127fb4401becf2eaca24d534f254022ed692b7499944769f5fa3ccb2e206ca60001b611e03565b611afe7fdc5831b559a250e5105d02c314b9679edc2a0a188795a55a7308fa6d894bc5ca60001b611e03565b611b2a7fb321af18b85f37b3fdebf476266a734317f25d3610d8a60013f28bdf16598b4060001b611e03565b6000849050611b5b7f24de5a5543df41461f60685b578452f0df2ef2b413da4dee8dfc92feaa01729c60001b611e03565b611b877f1400d292bc614318b2290fc7340d196eb7321a6652a9ed086040584737be6f2f60001b611e03565b8073ffffffffffffffffffffffffffffffffffffffff1663a9059cbb89886040518363ffffffff1660e01b8152600401611bc2929190612dea565b600060405180830381600087803b158015611bdc57600080fd5b505af1158015611bf0573d6000803e3d6000fd5b50505050505b611c227f95d5e33945e111d0d046b92586a52e6375d5cd0e9f02633fea256fce5461d17f60001b611e03565b611c4e7f9f81919d69735ddf857705a605b312659e45d1628d4b8d0b1bae8312f8413bba60001b611e03565b8673ffffffffffffffffffffffffffffffffffffffff167f987d620f307ff6b94d58743cb7a7509f24071586a77759b77c2d4e29f75a2f9a8688604051611c96929190612c9d565b60405180910390a250611ca76120cf565b505050505050565b6000611cdd7f61be7319c9e72607a5a6df6153488d1e1191dc4146c6b39048e1474fb2bd8dea60001b611e03565b611d097fbef3c32a47f218edaee06e417f9eea57e0a366c19111a395b8a5a9b66384c90c60001b611e03565b611d357feb269b152cc9fbf70bae8d5c8605fe3751a63a4f575b69ad5381cab7707494d660001b611e03565b609860009054906101000a900473ffffffffffffffffffffffffffffffffffffffff16905090565b611d65611f3c565b600073ffffffffffffffffffffffffffffffffffffffff168173ffffffffffffffffffffffffffffffffffffffff1603611dd4576040517f08c379a0000000000000000000000000000000000000000000000000000000008152600401611dcb90612ef1565b60405180910390fd5b611ddd81611fba565b50565b6000808273ffffffffffffffffffffffffffffffffffffffff163b119050919050565b50565b600060019054906101000a900460ff16611e55576040517f08c379a0000000000000000000000000000000000000000000000000000000008152600401611e4c90612f83565b60405180910390fd5b611e817f9ef1183f5e5650be962bf9ede3575533ce47eac7ec8fc16f3366c146f4d74bed60001b611e03565b611ead7f57b55418f48b96a42d92fe3d86ff9c0af593dc275a4c92ce04602260a0e7a4e760001b611e03565b611ed97f090d8d392fbbf5e083b95c65d164c47295deae5107e437242edcdc6caf8e018560001b611e03565b611ee16121ba565b565b600060019054906101000a900460ff16611f32576040517f08c379a0000000000000000000000000000000000000000000000000000000008152600401611f2990612f83565b60405180910390fd5b611f3a61221b565b565b611f44612274565b73ffffffffffffffffffffffffffffffffffffffff16611f62610d01565b73ffffffffffffffffffffffffffffffffffffffff1614611fb8576040517f08c379a0000000000000000000000000000000000000000000000000000000008152600401611faf90612fef565b60405180910390fd5b565b6000603360009054906101000a900473ffffffffffffffffffffffffffffffffffffffff16905081603360006101000a81548173ffffffffffffffffffffffffffffffffffffffff021916908373ffffffffffffffffffffffffffffffffffffffff1602179055508173ffffffffffffffffffffffffffffffffffffffff168173ffffffffffffffffffffffffffffffffffffffff167f8be0079c531659141344cd1fd0a4f28419497f9722a3daafe3b4186f6b6457e060405160405180910390a35050565b6002606554036120c5576040517f08c379a00000000000000000000000000000000000000000000000000000000081526004016120bc9061305b565b60405180910390fd5b6002606581905550565b6001606581905550565b60006121077f2c9d8d49ea88950bb10cabcca6baf598aacd77ebfd8e34aa26b5120d7563d55e60001b611e03565b6121337ffdd37185ce39733491c7fca6bec10293b2833309f66b11bcb0b6b9f456701f3f60001b611e03565b61215f7f0c5258c7e9550245d64e08c9ebc0757736224f09cddd604410b75b054c57003b60001b611e03565b838383604051602001612174939291906130e4565b6040516020818303038152906040528051906020012090509392505050565b60008060006121a2858561227c565b915091506121af816122cd565b819250505092915050565b600060019054906101000a900460ff16612209576040517f08c379a000000000000000000000000000000000000000000000000000000000815260040161220090612f83565b60405180910390fd5b612219612214612274565b611fba565b565b600060019054906101000a900460ff1661226a576040517f08c379a000000000000000000000000000000000000000000000000000000000815260040161226190612f83565b60405180910390fd5b6001606581905550565b600033905090565b60008060418351036122bd5760008060006020860151925060408601519150606086015160001a90506122b187828585612433565b945094505050506122c6565b60006002915091505b9250929050565b600060048111156122e1576122e0613121565b5b8160048111156122f4576122f3613121565b5b0315612430576001600481111561230e5761230d613121565b5b81600481111561232157612320613121565b5b03612361576040517f08c379a00000000000000000000000000000000000000000000000000000000081526004016123589061319c565b60405180910390fd5b6002600481111561237557612374613121565b5b81600481111561238857612387613121565b5b036123c8576040517f08c379a00000000000000000000000000000000000000000000000000000000081526004016123bf90613208565b60405180910390fd5b600360048111156123dc576123db613121565b5b8160048111156123ef576123ee613121565b5b0361242f576040517f08c379a00000000000000000000000000000000000000000000000000000000081526004016124269061329a565b60405180910390fd5b5b50565b6000807f7fffffffffffffffffffffffffffffff5d576e7357a4501ddfe92f46681b20a08360001c111561246e57600060039150915061250c565b60006001878787876040516000815260200160405260405161249394939291906132e2565b6020604051602081039080840390855afa1580156124b5573d6000803e3d6000fd5b505050602060405103519050600073ffffffffffffffffffffffffffffffffffffffff168173ffffffffffffffffffffffffffffffffffffffff16036125035760006001925092505061250c565b80600092509250505b94509492505050565b604051806060016040528060008152602001600073ffffffffffffffffffffffffffffffffffffffff168152602001600081525090565b6000604051905090565b600080fd5b600080fd5b600073ffffffffffffffffffffffffffffffffffffffff82169050919050565b600061258b82612560565b9050919050565b61259b81612580565b81146125a657600080fd5b50565b6000813590506125b881612592565b92915050565b600080604083850312156125d5576125d4612556565b5b60006125e3858286016125a9565b92505060206125f4858286016125a9565b9150509250929050565b6000819050919050565b612611816125fe565b811461261c57600080fd5b50565b60008135905061262e81612608565b92915050565b6000806000806080858703121561264e5761264d612556565b5b600061265c878288016125a9565b945050602061266d8782880161261f565b935050604061267e8782880161261f565b925050606061268f878288016125a9565b91505092959194509250565b6126a481612580565b82525050565b60006020820190506126bf600083018461269b565b92915050565b600080604083850312156126dc576126db612556565b5b60006126ea858286016125a9565b92505060206126fb8582860161261f565b9150509250929050565b61270e816125fe565b82525050565b61271d81612580565b82525050565b6060820160008201516127396000850182612705565b50602082015161274c6020850182612714565b50604082015161275f6040850182612705565b50505050565b600060608201905061277a6000830184612723565b92915050565b600061278b82612560565b9050919050565b61279b81612780565b81146127a657600080fd5b50565b6000813590506127b881612792565b92915050565b6000806000606084860312156127d7576127d6612556565b5b60006127e5868287016127a9565b93505060206127f68682870161261f565b92505060406128078682870161261f565b9150509250925092565b600080fd5b600080fd5b6000601f19601f8301169050919050565b7f4e487b7100000000000000000000000000000000000000000000000000000000600052604160045260246000fd5b6128648261281b565b810181811067ffffffffffffffff821117156128835761288261282c565b5b80604052505050565b600061289661254c565b90506128a2828261285b565b919050565b600067ffffffffffffffff8211156128c2576128c161282c565b5b6128cb8261281b565b9050602081019050919050565b82818337600083830152505050565b60006128fa6128f5846128a7565b61288c565b90508281526020810184848401111561291657612915612816565b5b6129218482856128d8565b509392505050565b600082601f83011261293e5761293d612811565b5b813561294e8482602086016128e7565b91505092915050565b60008060008060008060c0878903121561297457612973612556565b5b600061298289828a016127a9565b965050602061299389828a0161261f565b95505060406129a489828a0161261f565b94505060606129b589828a016125a9565b93505060806129c689828a0161261f565b92505060a087013567ffffffffffffffff8111156129e7576129e661255b565b5b6129f389828a01612929565b9150509295509295509295565b600060208284031215612a1657612a15612556565b5b6000612a24848285016125a9565b91505092915050565b600082825260208201905092915050565b7f496e697469616c697a61626c653a20636f6e747261637420697320616c72656160008201527f647920696e697469616c697a6564000000000000000000000000000000000000602082015250565b6000612a9a602e83612a2d565b9150612aa582612a3e565b604082019050919050565b60006020820190508181036000830152612ac981612a8d565b9050919050565b6000819050919050565b600060ff82169050919050565b6000819050919050565b6000612b0c612b07612b0284612ad0565b612ae7565b612ada565b9050919050565b612b1c81612af1565b82525050565b6000602082019050612b376000830184612b13565b92915050565b600081519050612b4c81612608565b92915050565b600060208284031215612b6857612b67612556565b5b6000612b7684828501612b3d565b91505092915050565b7f496e73756666696369656e742062616c616e6365000000000000000000000000600082015250565b6000612bb5601483612a2d565b9150612bc082612b7f565b602082019050919050565b60006020820190508181036000830152612be481612ba8565b9050919050565b612bf4816125fe565b82525050565b6000606082019050612c0f600083018661269b565b612c1c602083018561269b565b612c296040830184612beb565b949350505050565b7f496e76616c696420616d6f756e74000000000000000000000000000000000000600082015250565b6000612c67600e83612a2d565b9150612c7282612c31565b602082019050919050565b60006020820190508181036000830152612c9681612c5a565b9050919050565b6000604082019050612cb26000830185612beb565b612cbf6020830184612beb565b9392505050565b7f4e6f7420656e6f7567682066756e647300000000000000000000000000000000600082015250565b6000612cfc601083612a2d565b9150612d0782612cc6565b602082019050919050565b60006020820190508181036000830152612d2b81612cef565b9050919050565b7f4e487b7100000000000000000000000000000000000000000000000000000000600052601160045260246000fd5b6000612d6c826125fe565b9150612d77836125fe565b925082821015612d8a57612d89612d32565b5b828203905092915050565b6000612db0612dab612da684612560565b612ae7565b612560565b9050919050565b6000612dc282612d95565b9050919050565b6000612dd482612db7565b9050919050565b612de481612dc9565b82525050565b6000604082019050612dff6000830185612ddb565b612e0c6020830184612beb565b9392505050565b7f436c61696d3a20496e76616c6964207369676e61747572650000000000000000600082015250565b6000612e49601883612a2d565b9150612e5482612e13565b602082019050919050565b60006020820190508181036000830152612e7881612e3c565b9050919050565b7f4f776e61626c653a206e6577206f776e657220697320746865207a65726f206160008201527f6464726573730000000000000000000000000000000000000000000000000000602082015250565b6000612edb602683612a2d565b9150612ee682612e7f565b604082019050919050565b60006020820190508181036000830152612f0a81612ece565b9050919050565b7f496e697469616c697a61626c653a20636f6e7472616374206973206e6f74206960008201527f6e697469616c697a696e67000000000000000000000000000000000000000000602082015250565b6000612f6d602b83612a2d565b9150612f7882612f11565b604082019050919050565b60006020820190508181036000830152612f9c81612f60565b9050919050565b7f4f776e61626c653a2063616c6c6572206973206e6f7420746865206f776e6572600082015250565b6000612fd9602083612a2d565b9150612fe482612fa3565b602082019050919050565b6000602082019050818103600083015261300881612fcc565b9050919050565b7f5265656e7472616e637947756172643a207265656e7472616e742063616c6c00600082015250565b6000613045601f83612a2d565b91506130508261300f565b602082019050919050565b6000602082019050818103600083015261307481613038565b9050919050565b60008160601b9050919050565b60006130938261307b565b9050919050565b60006130a582613088565b9050919050565b6130bd6130b882612580565b61309a565b82525050565b6000819050919050565b6130de6130d9826125fe565b6130c3565b82525050565b60006130f082866130ac565b60148201915061310082856130cd565b60208201915061311082846130cd565b602082019150819050949350505050565b7f4e487b7100000000000000000000000000000000000000000000000000000000600052602160045260246000fd5b7f45434453413a20696e76616c6964207369676e61747572650000000000000000600082015250565b6000613186601883612a2d565b915061319182613150565b602082019050919050565b600060208201905081810360008301526131b581613179565b9050919050565b7f45434453413a20696e76616c6964207369676e6174757265206c656e67746800600082015250565b60006131f2601f83612a2d565b91506131fd826131bc565b602082019050919050565b60006020820190508181036000830152613221816131e5565b9050919050565b7f45434453413a20696e76616c6964207369676e6174757265202773272076616c60008201527f7565000000000000000000000000000000000000000000000000000000000000602082015250565b6000613284602283612a2d565b915061328f82613228565b604082019050919050565b600060208201905081810360008301526132b381613277565b9050919050565b6000819050919050565b6132cd816132ba565b82525050565b6132dc81612ada565b82525050565b60006080820190506132f760008301876132c4565b61330460208301866132d3565b61331160408301856132c4565b61331e60608301846132c4565b9594505050505056fea264697066735822122037b4bee6e245ee9d2120fe7dc7f867d8fddb3ad6e78fe0dcf74d218d9c7e285064736f6c634300080e0033",
  "linkReferences": {},
  "deployedLinkReferences": {}
}