{
  "_format": "hh-sol-artifact-1",
  "contractName": "DynamicEscrowUpgradeable",
  "sourceName": "contracts/upgradeable/DynamicEscrowUpgradeable.sol",
  "abi": [
    {
      "anonymous": false,
      "inputs": [
        {
          "indexed": true,
          "internalType": "address",
          "name": "spender",
          "type": "address"
        },
        {
          "indexed": false,
          "internalType": "uint256",
          "name": "weiAmount",
          "type": "uint256"
        },
        {
          "indexed": false,
          "internalType": "uint256",
          "name": "poolId",
          "type": "uint256"
        }
      ],
      "name": "Deposited",
      "type": "event"
    },
    {
      "anonymous": false,
      "inputs": [
        {
          "indexed": false,
          "internalType": "uint8",
          "name": "version",
          "type": "uint8"
        }
      ],
      "name": "Initialized",
      "type": "event"
    },
    {
      "anonymous": false,
      "inputs": [
        {
          "indexed": true,
          "internalType": "address",
          "name": "previousOwner",
          "type": "address"
        },
        {
          "indexed": true,
          "internalType": "address",
          "name": "newOwner",
          "type": "address"
        }
      ],
      "name": "OwnershipTransferred",
      "type": "event"
    },
    {
      "anonymous": false,
      "inputs": [
        {
          "indexed": true,
          "internalType": "address",
          "name": "receiver",
          "type": "address"
        },
        {
          "indexed": false,
          "internalType": "uint256",
          "name": "weiAmount",
          "type": "uint256"
        },
        {
          "indexed": false,
          "internalType": "uint256",
          "name": "poolId",
          "type": "uint256"
        }
      ],
      "name": "RewardCredited",
      "type": "event"
    },
    {
      "anonymous": false,
      "inputs": [
        {
          "indexed": true,
          "internalType": "address",
          "name": "receiver",
          "type": "address"
        },
        {
          "indexed": false,
          "internalType": "uint256",
          "name": "weiAmount",
          "type": "uint256"
        },
        {
          "indexed": false,
          "internalType": "uint256",
          "name": "poolId",
          "type": "uint256"
        }
      ],
      "name": "Withdrawn",
      "type": "event"
    },
    {
      "inputs": [
        {
          "internalType": "address",
          "name": "payee",
          "type": "address"
        },
        {
          "internalType": "uint256",
          "name": "poolId",
          "type": "uint256"
        },
        {
          "internalType": "uint256",
          "name": "amount",
          "type": "uint256"
        }
      ],
      "name": "accrueRewardFor",
      "outputs": [],
      "stateMutability": "nonpayable",
      "type": "function"
    },
    {
      "inputs": [
        {
          "internalType": "address",
          "name": "payee",
          "type": "address"
        },
        {
          "internalType": "uint256",
          "name": "poolId",
          "type": "uint256"
        }
      ],
      "name": "accruedRewardsOf",
      "outputs": [
        {
          "internalType": "uint256",
          "name": "",
          "type": "uint256"
        }
      ],
      "stateMutability": "view",
      "type": "function"
    },
    {
      "inputs": [
        {
          "internalType": "address",
          "name": "spender",
          "type": "address"
        },
        {
          "internalType": "uint256",
          "name": "poolId",
          "type": "uint256"
        },
        {
          "internalType": "uint256",
          "name": "amount",
          "type": "uint256"
        },
        {
          "internalType": "address",
          "name": "tokenAddress",
          "type": "address"
        }
      ],
      "name": "deposit",
      "outputs": [],
      "stateMutability": "payable",
      "type": "function"
    },
    {
      "inputs": [
        {
          "internalType": "address",
          "name": "payee",
          "type": "address"
        },
        {
          "internalType": "uint256",
          "name": "poolId",
          "type": "uint256"
        }
      ],
      "name": "depositsOf",
      "outputs": [
        {
          "components": [
            {
              "internalType": "uint256",
              "name": "weiAmount",
              "type": "uint256"
            },
            {
              "internalType": "address",
              "name": "tokenAddress",
              "type": "address"
            },
            {
              "internalType": "uint256",
              "name": "poolId",
              "type": "uint256"
            }
          ],
          "internalType": "struct IEscrow.DynamicDeposit",
          "name": "",
          "type": "tuple"
        }
      ],
      "stateMutability": "view",
      "type": "function"
    },
    {
      "inputs": [],
      "name": "getRewarder",
      "outputs": [
        {
          "internalType": "address",
          "name": "",
          "type": "address"
        }
      ],
      "stateMutability": "view",
      "type": "function"
    },
    {
      "inputs": [
        {
          "internalType": "address",
          "name": "rewarder",
          "type": "address"
        }
      ],
      "name": "initialize",
      "outputs": [],
      "stateMutability": "nonpayable",
      "type": "function"
    },
    {
      "inputs": [],
      "name": "owner",
      "outputs": [
        {
          "internalType": "address",
          "name": "",
          "type": "address"
        }
      ],
      "stateMutability": "view",
      "type": "function"
    },
    {
      "inputs": [
        {
          "internalType": "address",
          "name": "receiver",
          "type": "address"
        },
        {
          "internalType": "address",
          "name": "tokenAddress",
          "type": "address"
        },
        {
          "internalType": "uint256",
          "name": "poolId",
          "type": "uint256"
        }
      ],
      "name": "redeemRewards",
      "outputs": [],
      "stateMutability": "nonpayable",
      "type": "function"
    },
    {
      "inputs": [],
      "name": "renounceOwnership",
      "outputs": [],
      "stateMutability": "nonpayable",
      "type": "function"
    },
    {
      "inputs": [
        {
          "internalType": "address",
          "name": "newOwner",
          "type": "address"
        }
      ],
      "name": "transferOwnership",
      "outputs": [],
      "stateMutability": "nonpayable",
      "type": "function"
    },
    {
      "inputs": [
        {
          "internalType": "address payable",
          "name": "receiver",
          "type": "address"
        },
        {
          "internalType": "uint256",
          "name": "poolId",
          "type": "uint256"
        },
        {
          "internalType": "uint256",
          "name": "amount",
          "type": "uint256"
        }
      ],
      "name": "withdraw",
      "outputs": [],
      "stateMutability": "nonpayable",
      "type": "function"
    }
  ],
  "bytecode": "0x608060405234801561001057600080fd5b506112bf806100206000396000f3fe6080604052600436106100bc5760003560e01c8063abfc083c11610074578063c4d66de81161004e578063c4d66de81461021b578063f2fde38b1461023b578063f9fb6b1a1461025b57600080fd5b8063abfc083c14610190578063ae22192e146101b0578063b5c5f672146101fb57600080fd5b80638da5cb5b116100a55780638da5cb5b146100eb5780639015dcc914610122578063a7d9e05e1461014057600080fd5b8063715018a6146100c15780638b6099db146100d8575b600080fd5b3480156100cd57600080fd5b506100d661027b565b005b6100d66100e6366004611102565b61028f565b3480156100f757600080fd5b506033546001600160a01b03165b6040516001600160a01b0390911681526020015b60405180910390f35b34801561012e57600080fd5b506097546001600160a01b0316610105565b34801561014c57600080fd5b5061018261015b36600461114c565b60009081526099602090815260408083206001600160a01b03949094168352929052205490565b604051908152602001610119565b34801561019c57600080fd5b506100d66101ab366004611178565b6105db565b3480156101bc57600080fd5b506101d06101cb36600461114c565b610739565b60408051825181526020808401516001600160a01b0316908201529181015190820152606001610119565b34801561020757600080fd5b506100d6610216366004611178565b6107b1565b34801561022757600080fd5b506100d66102363660046111ad565b6109bb565b34801561024757600080fd5b506100d66102563660046111ad565b610b0c565b34801561026757600080fd5b506100d66102763660046111d1565b610b9c565b610283610cf6565b61028d6000610d50565b565b610297610daf565b60008381526098602090815260408083206001600160a01b0380891685529083529281902081516060810183528154808252600183015490951693810193909352600201549082015290156103595760405162461bcd60e51b815260206004820152602860248201527f41206465706f7369742077617320616c7265616479206d61646520666f72207460448201527f68697320706f6f6c00000000000000000000000000000000000000000000000060648201526084015b60405180910390fd5b6001600160a01b038216156104cc576040517f70a082310000000000000000000000000000000000000000000000000000000081526001600160a01b03868116600483015283916000918316906370a08231906024016020604051808303816000875af11580156103ce573d6000803e3d6000fd5b505050506040513d601f19601f820116820180604052508101906103f29190611212565b9050848110156104445760405162461bcd60e51b815260206004820152601460248201527f496e73756666696369656e742062616c616e63650000000000000000000000006044820152606401610350565b6040517f23b872dd0000000000000000000000000000000000000000000000000000000081526001600160a01b038881166004830152306024830152604482018790528316906323b872dd90606401600060405180830381600087803b1580156104ad57600080fd5b505af11580156104c1573d6000803e3d6000fd5b50505050505061051b565b82341461051b5760405162461bcd60e51b815260206004820152600e60248201527f496e76616c696420616d6f756e740000000000000000000000000000000000006044820152606401610350565b604080516060810182528481526001600160a01b03848116602080840191825283850189815260008a8152609883528681208c86168083529084529087902086518155935160018501805473ffffffffffffffffffffffffffffffffffffffff19169190961617909455516002909201919091558351878152908101889052919290917f73a19dd210f1a7f902193214c0ee91dd35ee5b4d920cba8d519eca65a7b488ca910160405180910390a250506105d56001606555565b50505050565b6097546001600160a01b031633146106355760405162461bcd60e51b815260206004820152600c60248201527f4f6e6c79526577617264657200000000000000000000000000000000000000006044820152606401610350565b61063d610daf565b60008281526099602090815260408083206001600160a01b03871684529091528120805483929061066f90849061125a565b909155505060008281526099602090815260408083206001600160a01b03871684529091529020548111156106e65760405162461bcd60e51b815260206004820152601560248201527f416363727565645265776172644f766572666c6f7700000000000000000000006044820152606401610350565b60408051828152602081018490526001600160a01b038516917f81bfcf71989b04bc9c4a30aa5659f50d7b2964773dc38029019aa1c8752fbe8f910160405180910390a26107346001606555565b505050565b61076660405180606001604052806000815260200160006001600160a01b03168152602001600081525090565b5060009081526098602090815260408083206001600160a01b039485168452825291829020825160608101845281548152600182015490941691840191909152600201549082015290565b6107b9610daf565b60008281526098602090815260408083203384528252918290208251606081018452815480825260018301546001600160a01b031693820193909352600290910154928101929092528211156108515760405162461bcd60e51b815260206004820152601060248201527f4e6f7420656e6f7567682066756e6473000000000000000000000000000000006044820152606401610350565b805182900361089e576000838152609860209081526040808320338452909152812081815560018101805473ffffffffffffffffffffffffffffffffffffffff19169055600201556108b4565b81816000018181516108b09190611272565b9052505b60208101516001600160a01b0316610902576040516001600160a01b0385169083156108fc029084906000818181858888f193505050501580156108fc573d6000803e3d6000fd5b5061096b565b602081015160405163a9059cbb60e01b81526001600160a01b0386811660048301526024820185905282169063a9059cbb90604401600060405180830381600087803b15801561095157600080fd5b505af1158015610965573d6000803e3d6000fd5b50505050505b60408051838152602081018590526001600160a01b038616917f92ccf450a286a957af52509bc1c9939d1a6a481783e142e41e2499f0bb66ebc691015b60405180910390a2506107346001606555565b600054610100900460ff16158080156109db5750600054600160ff909116105b806109f55750303b1580156109f5575060005460ff166001145b610a675760405162461bcd60e51b815260206004820152602e60248201527f496e697469616c697a61626c653a20636f6e747261637420697320616c72656160448201527f647920696e697469616c697a65640000000000000000000000000000000000006064820152608401610350565b6000805460ff191660011790558015610a8a576000805461ff0019166101001790555b610a92610e0f565b610a9a610e82565b6097805473ffffffffffffffffffffffffffffffffffffffff19166001600160a01b0384161790558015610b08576000805461ff0019169055604051600181527f7f26b83ff96e1f2b6a682f133852f6798a09c465da95921460cefb38474024989060200160405180910390a15b5050565b610b14610cf6565b6001600160a01b038116610b905760405162461bcd60e51b815260206004820152602660248201527f4f776e61626c653a206e6577206f776e657220697320746865207a65726f206160448201527f64647265737300000000000000000000000000000000000000000000000000006064820152608401610350565b610b9981610d50565b50565b610ba4610daf565b6000818152609960209081526040808320338452909152902054610c0a5760405162461bcd60e51b815260206004820152601a60248201527f4e6f7420656e6f756768206163637275656420726577617264730000000000006044820152606401610350565b6000818152609960209081526040808320338452909152812080549190556001600160a01b03831615610ca25760405163a9059cbb60e01b81526001600160a01b0385811660048301526024820183905284919082169063a9059cbb90604401600060405180830381600087803b158015610c8457600080fd5b505af1158015610c98573d6000803e3d6000fd5b5050505050610cb5565b610cb56001600160a01b03851682610ef5565b60408051828152602081018490526001600160a01b038616917f92ccf450a286a957af52509bc1c9939d1a6a481783e142e41e2499f0bb66ebc691016109a8565b6033546001600160a01b0316331461028d5760405162461bcd60e51b815260206004820181905260248201527f4f776e61626c653a2063616c6c6572206973206e6f7420746865206f776e65726044820152606401610350565b603380546001600160a01b0383811673ffffffffffffffffffffffffffffffffffffffff19831681179093556040519116919082907f8be0079c531659141344cd1fd0a4f28419497f9722a3daafe3b4186f6b6457e090600090a35050565b600260655403610e015760405162461bcd60e51b815260206004820152601f60248201527f5265656e7472616e637947756172643a207265656e7472616e742063616c6c006044820152606401610350565b6002606555565b6001606555565b600054610100900460ff16610e7a5760405162461bcd60e51b815260206004820152602b60248201527f496e697469616c697a61626c653a20636f6e7472616374206973206e6f74206960448201526a6e697469616c697a696e6760a81b6064820152608401610350565b61028d61100e565b600054610100900460ff16610eed5760405162461bcd60e51b815260206004820152602b60248201527f496e697469616c697a61626c653a20636f6e7472616374206973206e6f74206960448201526a6e697469616c697a696e6760a81b6064820152608401610350565b61028d611082565b80471015610f455760405162461bcd60e51b815260206004820152601d60248201527f416464726573733a20696e73756666696369656e742062616c616e63650000006044820152606401610350565b6000826001600160a01b03168260405160006040518083038185875af1925050503d8060008114610f92576040519150601f19603f3d011682016040523d82523d6000602084013e610f97565b606091505b50509050806107345760405162461bcd60e51b815260206004820152603a60248201527f416464726573733a20756e61626c6520746f2073656e642076616c75652c207260448201527f6563697069656e74206d617920686176652072657665727465640000000000006064820152608401610350565b600054610100900460ff166110795760405162461bcd60e51b815260206004820152602b60248201527f496e697469616c697a61626c653a20636f6e7472616374206973206e6f74206960448201526a6e697469616c697a696e6760a81b6064820152608401610350565b61028d33610d50565b600054610100900460ff16610e085760405162461bcd60e51b815260206004820152602b60248201527f496e697469616c697a61626c653a20636f6e7472616374206973206e6f74206960448201526a6e697469616c697a696e6760a81b6064820152608401610350565b6001600160a01b0381168114610b9957600080fd5b6000806000806080858703121561111857600080fd5b8435611123816110ed565b935060208501359250604085013591506060850135611141816110ed565b939692955090935050565b6000806040838503121561115f57600080fd5b823561116a816110ed565b946020939093013593505050565b60008060006060848603121561118d57600080fd5b8335611198816110ed565b95602085013595506040909401359392505050565b6000602082840312156111bf57600080fd5b81356111ca816110ed565b9392505050565b6000806000606084860312156111e657600080fd5b83356111f1816110ed565b92506020840135611201816110ed565b929592945050506040919091013590565b60006020828403121561122457600080fd5b5051919050565b7f4e487b7100000000000000000000000000000000000000000000000000000000600052601160045260246000fd5b6000821982111561126d5761126d61122b565b500190565b6000828210156112845761128461122b565b50039056fea264697066735822122017ad4d235e8c9f2eb67efad2d35bcd01f92f7df904040a68185fac5f3df5dd8064736f6c634300080e0033",
  "linkReferences": {},
  "deployedLinkReferences": {}
}