{
  "_format": "hh-sol-artifact-1",
  "contractName": "DynamicEscrowUpgradeable",
  "sourceName": "contracts/upgradeable/DynamicEscrowUpgradeable.sol",
  "abi": [
    {
      "anonymous": false,
      "inputs": [
        {
          "indexed": true,
          "internalType": "address",
          "name": "receiver",
          "type": "address"
        },
        {
          "indexed": false,
          "internalType": "uint256",
          "name": "weiAmount",
          "type": "uint256"
        },
        {
          "indexed": false,
          "internalType": "bytes32",
          "name": "poolId",
          "type": "bytes32"
        }
      ],
      "name": "Claimed",
      "type": "event"
    },
    {
      "anonymous": false,
      "inputs": [
        {
          "indexed": true,
          "internalType": "address",
          "name": "spender",
          "type": "address"
        },
        {
          "indexed": false,
          "internalType": "uint256",
          "name": "weiAmount",
          "type": "uint256"
        },
        {
          "indexed": false,
          "internalType": "bytes32",
          "name": "poolId",
          "type": "bytes32"
        }
      ],
      "name": "Deposited",
      "type": "event"
    },
    {
      "anonymous": false,
      "inputs": [
        {
          "indexed": false,
          "internalType": "uint8",
          "name": "version",
          "type": "uint8"
        }
      ],
      "name": "Initialized",
      "type": "event"
    },
    {
      "anonymous": false,
      "inputs": [
        {
          "indexed": true,
          "internalType": "address",
          "name": "previousOwner",
          "type": "address"
        },
        {
          "indexed": true,
          "internalType": "address",
          "name": "newOwner",
          "type": "address"
        }
      ],
      "name": "OwnershipTransferred",
      "type": "event"
    },
    {
      "anonymous": false,
      "inputs": [
        {
          "indexed": false,
          "internalType": "address",
          "name": "account",
          "type": "address"
        }
      ],
      "name": "Paused",
      "type": "event"
    },
    {
      "anonymous": false,
      "inputs": [
        {
          "indexed": false,
          "internalType": "address",
          "name": "account",
          "type": "address"
        }
      ],
      "name": "Unpaused",
      "type": "event"
    },
    {
      "anonymous": false,
      "inputs": [
        {
          "indexed": true,
          "internalType": "address",
          "name": "receiver",
          "type": "address"
        },
        {
          "indexed": false,
          "internalType": "uint256",
          "name": "weiAmount",
          "type": "uint256"
        },
        {
          "indexed": false,
          "internalType": "bytes32",
          "name": "poolId",
          "type": "bytes32"
        }
      ],
      "name": "Withdrawn",
      "type": "event"
    },
    {
      "inputs": [
        {
          "internalType": "address payable",
          "name": "receiver",
          "type": "address"
        },
        {
          "internalType": "bytes32",
          "name": "poolId",
          "type": "bytes32"
        },
        {
          "internalType": "uint256",
          "name": "amount",
          "type": "uint256"
        },
        {
          "internalType": "address",
          "name": "tokenAddress",
          "type": "address"
        },
        {
          "internalType": "uint256",
          "name": "nonce",
          "type": "uint256"
        },
        {
          "internalType": "bytes",
          "name": "sig",
          "type": "bytes"
        }
      ],
      "name": "claim",
      "outputs": [],
      "stateMutability": "nonpayable",
      "type": "function"
    },
    {
      "inputs": [
        {
          "internalType": "address",
          "name": "spender",
          "type": "address"
        },
        {
          "internalType": "bytes32",
          "name": "poolId",
          "type": "bytes32"
        },
        {
          "internalType": "uint256",
          "name": "amount",
          "type": "uint256"
        },
        {
          "internalType": "address",
          "name": "tokenAddress",
          "type": "address"
        }
      ],
      "name": "deposit",
      "outputs": [],
      "stateMutability": "payable",
      "type": "function"
    },
    {
      "inputs": [
        {
          "internalType": "address",
          "name": "payee",
          "type": "address"
        },
        {
          "internalType": "bytes32",
          "name": "poolId",
          "type": "bytes32"
        }
      ],
      "name": "depositsOf",
      "outputs": [
        {
          "components": [
            {
              "internalType": "uint256",
              "name": "weiAmount",
              "type": "uint256"
            },
            {
              "internalType": "address",
              "name": "tokenAddress",
              "type": "address"
            }
          ],
          "internalType": "struct IEscrow.DynamicDeposit",
          "name": "",
          "type": "tuple"
        }
      ],
      "stateMutability": "view",
      "type": "function"
    },
    {
      "inputs": [],
      "name": "getTrustedAccount",
      "outputs": [
        {
          "internalType": "address",
          "name": "",
          "type": "address"
        }
      ],
      "stateMutability": "view",
      "type": "function"
    },
    {
      "inputs": [
        {
          "internalType": "address",
          "name": "trustedAccountAddress",
          "type": "address"
        }
      ],
      "name": "initialize",
      "outputs": [],
      "stateMutability": "nonpayable",
      "type": "function"
    },
    {
      "inputs": [],
      "name": "owner",
      "outputs": [
        {
          "internalType": "address",
          "name": "",
          "type": "address"
        }
      ],
      "stateMutability": "view",
      "type": "function"
    },
    {
      "inputs": [],
      "name": "pause",
      "outputs": [],
      "stateMutability": "nonpayable",
      "type": "function"
    },
    {
      "inputs": [],
      "name": "paused",
      "outputs": [
        {
          "internalType": "bool",
          "name": "",
          "type": "bool"
        }
      ],
      "stateMutability": "view",
      "type": "function"
    },
    {
      "inputs": [],
      "name": "renounceOwnership",
      "outputs": [],
      "stateMutability": "nonpayable",
      "type": "function"
    },
    {
      "inputs": [
        {
          "internalType": "address",
          "name": "hypePool",
          "type": "address"
        }
      ],
      "name": "setHypePoolAddress",
      "outputs": [],
      "stateMutability": "nonpayable",
      "type": "function"
    },
    {
      "inputs": [
        {
          "internalType": "address",
          "name": "newOwner",
          "type": "address"
        }
      ],
      "name": "transferOwnership",
      "outputs": [],
      "stateMutability": "nonpayable",
      "type": "function"
    },
    {
      "inputs": [],
      "name": "unpause",
      "outputs": [],
      "stateMutability": "nonpayable",
      "type": "function"
    },
    {
      "inputs": [
        {
          "internalType": "address payable",
          "name": "receiver",
          "type": "address"
        },
        {
          "internalType": "bytes32",
          "name": "poolId",
          "type": "bytes32"
        },
        {
          "internalType": "uint256",
          "name": "amount",
          "type": "uint256"
        }
      ],
      "name": "withdraw",
      "outputs": [],
      "stateMutability": "nonpayable",
      "type": "function"
    }
  ],
  "bytecode": "0x6080806040523461001657611537908161001c8239f35b600080fdfe6080604081815260048036101561001557600080fd5b600092833560e01c9081631aa9e74214610e19575080632917173a14610b975780633f4ba83a14610af95780635c975abb14610ad5578063715018a614610a795780638456cb5914610a1e578063880d49ed1461077c5780638da5cb5b14610754578063aa5974d314610351578063c4d66de8146101cb578063ca72a6e514610189578063dee8667f1461015d5763f2fde38b146100b257600080fd5b34610159576020366003190112610159576100cb610e93565b916100d4610f27565b6001600160a01b038316156100f057836100ed84610f7f565b80f35b906020608492519162461bcd60e51b8352820152602660248201527f4f776e61626c653a206e6577206f776e657220697320746865207a65726f206160448201527f64647265737300000000000000000000000000000000000000000000000000006064820152fd5b8280fd5b5050346101855781600319360112610185576020906001600160a01b0360cc54169051908152f35b5080fd5b83346101c85760203660031901126101c8576001600160a01b036101ab610e93565b6101b3610f27565b166001600160a01b0319600054161760005580f35b80fd5b509034610159576020366003190112610159576101e6610e93565b90600392835460ff8160081c161591828093610344575b801561032d575b156102c4575060ff1981166001178555816102b3575b5061023460ff855460081c1661022f81610fc7565b610fc7565b61023d33610f7f565b6001600160a01b0384549361025b60ff8660081c1661022f81610fc7565b6001609a55166001600160a01b031960cc54161760cc5561027a578380f35b7f7f26b83ff96e1f2b6a682f133852f6798a09c465da95921460cefb38474024989260209261ff00191690555160018152a13880808380f35b61ffff19166101011784553861021a565b608490602085519162461bcd60e51b8352820152602e60248201527f496e697469616c697a61626c653a20636f6e747261637420697320616c72656160448201527f647920696e697469616c697a65640000000000000000000000000000000000006064820152fd5b50303b1580156102045750600160ff831614610204565b50600160ff8316106101fd565b5090608036600319011261015957610367610e93565b906024803560449182359261037a610ea9565b96610383611088565b61038b611038565b83895260209260018452868a20986001600160a01b03809916998a60005285528760002088516103ba81610ebf565b868b60018454948585520154169101526106ee5788169283156106765787517f70a082310000000000000000000000000000000000000000000000000000000081528381018b9052858184818f895af19081156105fb579088918d91610645575b50106106055787517fdd62ed3e0000000000000000000000000000000000000000000000000000000081528381018b90523083820152858183818f895af19081156105fb579088918d916105c5575b501061055f57908a9291843b1561055b5787918b8a51947f23b872dd0000000000000000000000000000000000000000000000000000000086528501523090840152820152818160648183875af1801561055157610539575b50507fd7eda976cf4919f13172eb15bb39c64cecb7172258c741dab31d14c855eff402955b600186516104f581610ebf565b868152848101938452858b52818552878b208a60005285528760002090518155019151166001600160a01b03198254161790558351928352820152a26001609a5580f35b61054290610ef1565b61054d5787386104c3565b8780fd5b87513d84823e3d90fd5b8380fd5b60849350602b7f436f6e7472616374206e6f7420616c6c6f77656420746f207370656e6420656e92868a519562461bcd60e51b87528601528401528201527f6f75676820746f6b656e730000000000000000000000000000000000000000006064820152fd5b809250878092503d83116105f4575b6105de8183610f05565b810103126105ef578790513861046a565b600080fd5b503d6105d4565b89513d8e823e3d90fd5b6064935060147f496e73756666696369656e742062616c616e636500000000000000000000000092868a519562461bcd60e51b8752860152840152820152fd5b809250878092503d831161066f575b61065e8183610f05565b810103126105ef578790513861041b565b503d610654565b99989791908634036106ae5750507fd7eda976cf4919f13172eb15bb39c64cecb7172258c741dab31d14c855eff402969798506104e8565b907f496e76616c696420616d6f756e740000000000000000000000000000000000008b600e606494888c519562461bcd60e51b8752860152840152820152fd5b5060849260287f41206465706f7369742077617320616c7265616479206d61646520666f72207492868a519562461bcd60e51b87528601528401528201527f68697320706f6f6c0000000000000000000000000000000000000000000000006064820152fd5b5050346101855781600319360112610185576020906001600160a01b03603654169051908152f35b50346101595760c036600319011261015957610796610e93565b9160248035604435936107a7610ea9565b9560843560a4359767ffffffffffffffff95868a11610a1a573660238b011215610a1a5789850135968711610a09578751928b60209b6107f08d601f19601f8d01160187610f05565b89865236848b8301011161018557898c9a858f93018389013786010152610815611088565b61081d611038565b6108486108406001600160a01b039561083b84888a169e8f8d6112d6565b61120f565b9190916110dd565b848060cc54169116036109c85761086190888b896112d6565b90818c5260028b52888c205461098757508a5260028952868a20869055899391169190826108ea5750505082858282156108e1575b839283928392f1156108d7577fd95107f4584744c6c893a04c43058aadd1ce8aac8ca5d64140eaf277de6c1d5793945b8351928352820152a26001609a5580f35b82513d87823e3d90fd5b506108fc610896565b829897983b1561055b5761092d9284928388938a519687958694859363a9059cbb60e01b85528401602090939291936001600160a01b0360408201951681520152565b03925af1801561097d57610965575b50507fd95107f4584744c6c893a04c43058aadd1ce8aac8ca5d64140eaf277de6c1d57936108c6565b61096e90610ef1565b61097957853861093c565b8580fd5b85513d84823e3d90fd5b85601b6064928d8c519362461bcd60e51b85528401528201527f436c61696d3a204861736820616c726561647920636c61696d656400000000006044820152fd5b6064866018848e8d519362461bcd60e51b85528401528201527f436c61696d3a20496e76616c6964207369676e617475726500000000000000006044820152fd5b8a604186634e487b7160e01b835252fd5b8a80fd5b50503461018557816003193601126101855760207f62e78cea01bee320cd4e420270b5ea74000d11b0c9f74754ebdbfc544b05a25891610a5c610f27565b610a64611038565b600160ff19606854161760685551338152a180f35b83346101c857806003193601126101c857610a92610f27565b60006001600160a01b036036546001600160a01b03198116603655167f8be0079c531659141344cd1fd0a4f28419497f9722a3daafe3b4186f6b6457e08280a380f35b50503461018557816003193601126101855760209060ff6068541690519015158152f35b5034610159578260031936011261015957610b12610f27565b6068549060ff821615610b54575060ff1916606855513381527f5db9ee0a495bf2e6ff9c91a7834c1ba4fdd244a5e8aa4e537bd38aeae4b073aa90602090a180f35b606490602084519162461bcd60e51b8352820152601460248201527f5061757361626c653a206e6f74207061757365640000000000000000000000006044820152fd5b50903461015957606036600319011261015957610bb2610e93565b906024359260443592610bc3611088565b610bcb611038565b610bd48561132a565b15610db0578486526020946001865283872033885286528387206001600160a01b03938460018301541691805490888210610d6e57818903610d4b57505082895260018852858920338a52885288600187822082815501555b81610c995750508680868015610c8f575b82809291819288881690f115610c85577f510b30a02fc9b7506980950b9c615af8c13e88658555c0ea22acffd73d9ea22294955b84519687528601521692a26001609a5580f35b83513d88823e3d90fd5b6108fc9150610c3e565b819897983b1561054d57855163a9059cbb60e01b81526001600160a01b0385169181019182526020820188905291889183919082908490829060400103925af18015610d4157610d0e575b507f510b30a02fc9b7506980950b9c615af8c13e88658555c0ea22acffd73d9ea222949596610c72565b95610d3a7f510b30a02fc9b7506980950b9c615af8c13e88658555c0ea22acffd73d9ea2229697610ef1565b9594610ce4565b85513d89823e3d90fd5b888203918211610d5b5755610c2d565b60248b601185634e487b7160e01b835252fd5b6064838b8a519162461bcd60e51b8352820152601060248201527f4e6f7420656e6f7567682066756e6473000000000000000000000000000000006044820152fd5b506020608492519162461bcd60e51b8352820152603b60248201527f57697468647261773a20506f6f6c20686173206e6f742079657420656e64656460448201527f206f7220677261636520706572696f64206e6f742070617373656400000000006064820152fd5b839085346101c857826003193601126101c8578083916020610e39610e93565b94610e4381610ebf565b8281520152602435815260016020528181206001600160a01b03809416825260205220908251610e7281610ebf565b60208260018554958685520154169101908152835192835251166020820152f35b600435906001600160a01b03821682036105ef57565b606435906001600160a01b03821682036105ef57565b6040810190811067ffffffffffffffff821117610edb57604052565b634e487b7160e01b600052604160045260246000fd5b67ffffffffffffffff8111610edb57604052565b90601f8019910116810190811067ffffffffffffffff821117610edb57604052565b6001600160a01b03603654163303610f3b57565b606460405162461bcd60e51b815260206004820152602060248201527f4f776e61626c653a2063616c6c6572206973206e6f7420746865206f776e65726044820152fd5b603654906001600160a01b0380911691826001600160a01b0319821617603655167f8be0079c531659141344cd1fd0a4f28419497f9722a3daafe3b4186f6b6457e0600080a3565b15610fce57565b608460405162461bcd60e51b815260206004820152602b60248201527f496e697469616c697a61626c653a20636f6e7472616374206973206e6f74206960448201527f6e697469616c697a696e670000000000000000000000000000000000000000006064820152fd5b60ff6068541661104457565b606460405162461bcd60e51b815260206004820152601060248201527f5061757361626c653a20706175736564000000000000000000000000000000006044820152fd5b6002609a5414611099576002609a55565b606460405162461bcd60e51b815260206004820152601f60248201527f5265656e7472616e637947756172643a207265656e7472616e742063616c6c006044820152fd5b60058110156111f957806110ee5750565b6001810361113a57606460405162461bcd60e51b815260206004820152601860248201527f45434453413a20696e76616c6964207369676e617475726500000000000000006044820152fd5b6002810361118657606460405162461bcd60e51b815260206004820152601f60248201527f45434453413a20696e76616c6964207369676e6174757265206c656e677468006044820152fd5b60031461118f57565b608460405162461bcd60e51b815260206004820152602260248201527f45434453413a20696e76616c6964207369676e6174757265202773272076616c60448201527f75650000000000000000000000000000000000000000000000000000000000006064820152fd5b634e487b7160e01b600052602160045260246000fd5b90604181511460001461123d57611239916020820151906060604084015193015160001a90611247565b9091565b5050600090600290565b9291907f7fffffffffffffffffffffffffffffff5d576e7357a4501ddfe92f46681b20a083116112ca5791608094939160ff602094604051948552168484015260408301526060820152600093849182805260015afa156112bd5781516001600160a01b038116156112b7579190565b50600190565b50604051903d90823e3d90fd5b50505050600090600390565b92909160405192602084019485526bffffffffffffffffffffffff199060601b166040840152605483015260748201526074815260a0810181811067ffffffffffffffff821117610edb5760405251902090565b6001600160a01b03906000918083541660408051937f23692edd0000000000000000000000000000000000000000000000000000000085528060048601526020948581602481875afa9081156114f75787916114bd575b50156114b55760e09060248351809581937f24bc597200000000000000000000000000000000000000000000000000000000835260048301525afa9283156114ab5785936113fb575b50505060a0915001519062093a8082018092116113e75750421190565b80634e487b7160e01b602492526011600452fd5b9091925060e0833d82116114a3575b8161141760e09383610f05565b8101031261149f5781519360e0850185811067ffffffffffffffff82111761148b57835283518552808401519182168203610979579184939160c09360a0960152808201519084015260608101516060840152608081015160808401528381015184840152015160c08201523880806113ca565b602487634e487b7160e01b81526041600452fd5b8480fd5b3d915061140a565b81513d87823e3d90fd5b505050505090565b90508581813d83116114f0575b6114d48183610f05565b810103126114ec575180151581036114ec5738611381565b8680fd5b503d6114ca565b83513d89823e3d90fdfea26469706673582212201d7ec3ef851a56418a5c63f2822985a4fa86f40fa5fa29bf2e50a1e585cd5d3064736f6c63430008120033",
  "linkReferences": {},
  "deployedLinkReferences": {}
}