{
  "_format": "hh-sol-artifact-1",
  "contractName": "HypePool",
  "sourceName": "contracts/HypePool.sol",
  "abi": [
    {
      "inputs": [
        {
          "internalType": "address",
          "name": "escrowContractAddress",
          "type": "address"
        },
        {
          "internalType": "address",
          "name": "activator",
          "type": "address"
        }
      ],
      "stateMutability": "nonpayable",
      "type": "constructor"
    },
    {
      "anonymous": false,
      "inputs": [
        {
          "indexed": true,
          "internalType": "address",
          "name": "previousOwner",
          "type": "address"
        },
        {
          "indexed": true,
          "internalType": "address",
          "name": "newOwner",
          "type": "address"
        }
      ],
      "name": "OwnershipTransferred",
      "type": "event"
    },
    {
      "anonymous": false,
      "inputs": [
        {
          "indexed": false,
          "internalType": "address",
          "name": "account",
          "type": "address"
        }
      ],
      "name": "Paused",
      "type": "event"
    },
    {
      "anonymous": false,
      "inputs": [
        {
          "indexed": false,
          "internalType": "bytes32",
          "name": "poolId",
          "type": "bytes32"
        },
        {
          "indexed": false,
          "internalType": "address",
          "name": "activator",
          "type": "address"
        },
        {
          "indexed": false,
          "internalType": "uint256",
          "name": "startDate",
          "type": "uint256"
        },
        {
          "indexed": false,
          "internalType": "uint256",
          "name": "endDate",
          "type": "uint256"
        }
      ],
      "name": "PoolActivated",
      "type": "event"
    },
    {
      "anonymous": false,
      "inputs": [
        {
          "indexed": false,
          "internalType": "bytes32",
          "name": "poolId",
          "type": "bytes32"
        },
        {
          "indexed": false,
          "internalType": "address",
          "name": "creator",
          "type": "address"
        },
        {
          "indexed": false,
          "internalType": "string",
          "name": "uri",
          "type": "string"
        }
      ],
      "name": "PoolCreated",
      "type": "event"
    },
    {
      "anonymous": false,
      "inputs": [
        {
          "indexed": false,
          "internalType": "bytes32",
          "name": "poolId",
          "type": "bytes32"
        },
        {
          "indexed": false,
          "internalType": "address",
          "name": "deactivator",
          "type": "address"
        }
      ],
      "name": "PoolDeactivated",
      "type": "event"
    },
    {
      "anonymous": false,
      "inputs": [
        {
          "indexed": false,
          "internalType": "bytes32",
          "name": "poolId",
          "type": "bytes32"
        },
        {
          "indexed": false,
          "internalType": "string",
          "name": "title",
          "type": "string"
        },
        {
          "indexed": false,
          "internalType": "string",
          "name": "projectName",
          "type": "string"
        },
        {
          "indexed": false,
          "internalType": "string",
          "name": "tokenName",
          "type": "string"
        },
        {
          "indexed": false,
          "internalType": "string",
          "name": "word",
          "type": "string"
        }
      ],
      "name": "PoolDetailsCreated",
      "type": "event"
    },
    {
      "anonymous": false,
      "inputs": [
        {
          "indexed": false,
          "internalType": "bytes32",
          "name": "poolId",
          "type": "bytes32"
        },
        {
          "indexed": false,
          "internalType": "uint256",
          "name": "network",
          "type": "uint256"
        },
        {
          "indexed": false,
          "internalType": "address",
          "name": "tokenAddress",
          "type": "address"
        },
        {
          "indexed": false,
          "internalType": "uint256",
          "name": "impressionReward",
          "type": "uint256"
        },
        {
          "indexed": false,
          "internalType": "uint256",
          "name": "cap",
          "type": "uint256"
        },
        {
          "indexed": false,
          "internalType": "uint256",
          "name": "startDate",
          "type": "uint256"
        },
        {
          "indexed": false,
          "internalType": "uint256",
          "name": "endDate",
          "type": "uint256"
        },
        {
          "indexed": false,
          "internalType": "uint256",
          "name": "duration",
          "type": "uint256"
        },
        {
          "indexed": false,
          "internalType": "uint256",
          "name": "firstLeaderRewards",
          "type": "uint256"
        },
        {
          "indexed": false,
          "internalType": "uint256",
          "name": "secondLeaderRewards",
          "type": "uint256"
        },
        {
          "indexed": false,
          "internalType": "uint256",
          "name": "thirdLeaderRewards",
          "type": "uint256"
        }
      ],
      "name": "PoolRewardsCreated",
      "type": "event"
    },
    {
      "anonymous": false,
      "inputs": [
        {
          "indexed": false,
          "internalType": "bytes32",
          "name": "poolId",
          "type": "bytes32"
        },
        {
          "indexed": false,
          "internalType": "string",
          "name": "uri",
          "type": "string"
        }
      ],
      "name": "PoolUriSet",
      "type": "event"
    },
    {
      "anonymous": false,
      "inputs": [
        {
          "indexed": true,
          "internalType": "bytes32",
          "name": "role",
          "type": "bytes32"
        },
        {
          "indexed": true,
          "internalType": "address",
          "name": "account",
          "type": "address"
        }
      ],
      "name": "RoleGranted",
      "type": "event"
    },
    {
      "anonymous": false,
      "inputs": [
        {
          "indexed": true,
          "internalType": "bytes32",
          "name": "role",
          "type": "bytes32"
        },
        {
          "indexed": true,
          "internalType": "address",
          "name": "account",
          "type": "address"
        }
      ],
      "name": "RoleRevoked",
      "type": "event"
    },
    {
      "anonymous": false,
      "inputs": [
        {
          "indexed": false,
          "internalType": "address",
          "name": "account",
          "type": "address"
        }
      ],
      "name": "Unpaused",
      "type": "event"
    },
    {
      "inputs": [],
      "name": "ACTIVATOR_ROLE",
      "outputs": [
        {
          "internalType": "bytes32",
          "name": "",
          "type": "bytes32"
        }
      ],
      "stateMutability": "view",
      "type": "function"
    },
    {
      "inputs": [
        {
          "internalType": "bytes32",
          "name": "uuid",
          "type": "bytes32"
        }
      ],
      "name": "activatePool",
      "outputs": [],
      "stateMutability": "nonpayable",
      "type": "function"
    },
    {
      "inputs": [
        {
          "internalType": "bytes32",
          "name": "role",
          "type": "bytes32"
        },
        {
          "internalType": "address",
          "name": "account",
          "type": "address"
        }
      ],
      "name": "addRole",
      "outputs": [],
      "stateMutability": "nonpayable",
      "type": "function"
    },
    {
      "inputs": [
        {
          "internalType": "string",
          "name": "uri",
          "type": "string"
        },
        {
          "components": [
            {
              "internalType": "string",
              "name": "title",
              "type": "string"
            },
            {
              "internalType": "string",
              "name": "projectName",
              "type": "string"
            },
            {
              "internalType": "string",
              "name": "tokenName",
              "type": "string"
            },
            {
              "internalType": "string",
              "name": "word",
              "type": "string"
            }
          ],
          "internalType": "struct IHypePool.Details",
          "name": "details",
          "type": "tuple"
        },
        {
          "components": [
            {
              "internalType": "uint256",
              "name": "network",
              "type": "uint256"
            },
            {
              "internalType": "address",
              "name": "tokenAddress",
              "type": "address"
            },
            {
              "internalType": "uint256",
              "name": "impressionReward",
              "type": "uint256"
            },
            {
              "internalType": "uint256",
              "name": "cap",
              "type": "uint256"
            },
            {
              "internalType": "uint256",
              "name": "startDate",
              "type": "uint256"
            },
            {
              "internalType": "uint256",
              "name": "endDate",
              "type": "uint256"
            },
            {
              "internalType": "uint256",
              "name": "duration",
              "type": "uint256"
            },
            {
              "internalType": "uint256",
              "name": "firstLeaderRewards",
              "type": "uint256"
            },
            {
              "internalType": "uint256",
              "name": "secondLeaderRewards",
              "type": "uint256"
            },
            {
              "internalType": "uint256",
              "name": "thirdLeaderRewards",
              "type": "uint256"
            }
          ],
          "internalType": "struct IHypePool.Rewards",
          "name": "rewards",
          "type": "tuple"
        }
      ],
      "name": "createPool",
      "outputs": [
        {
          "components": [
            {
              "internalType": "bytes32",
              "name": "id",
              "type": "bytes32"
            },
            {
              "internalType": "address",
              "name": "creator",
              "type": "address"
            },
            {
              "components": [
                {
                  "internalType": "string",
                  "name": "title",
                  "type": "string"
                },
                {
                  "internalType": "string",
                  "name": "projectName",
                  "type": "string"
                },
                {
                  "internalType": "string",
                  "name": "tokenName",
                  "type": "string"
                },
                {
                  "internalType": "string",
                  "name": "word",
                  "type": "string"
                }
              ],
              "internalType": "struct IHypePool.Details",
              "name": "details",
              "type": "tuple"
            },
            {
              "components": [
                {
                  "internalType": "uint256",
                  "name": "network",
                  "type": "uint256"
                },
                {
                  "internalType": "address",
                  "name": "tokenAddress",
                  "type": "address"
                },
                {
                  "internalType": "uint256",
                  "name": "impressionReward",
                  "type": "uint256"
                },
                {
                  "internalType": "uint256",
                  "name": "cap",
                  "type": "uint256"
                },
                {
                  "internalType": "uint256",
                  "name": "startDate",
                  "type": "uint256"
                },
                {
                  "internalType": "uint256",
                  "name": "endDate",
                  "type": "uint256"
                },
                {
                  "internalType": "uint256",
                  "name": "duration",
                  "type": "uint256"
                },
                {
                  "internalType": "uint256",
                  "name": "firstLeaderRewards",
                  "type": "uint256"
                },
                {
                  "internalType": "uint256",
                  "name": "secondLeaderRewards",
                  "type": "uint256"
                },
                {
                  "internalType": "uint256",
                  "name": "thirdLeaderRewards",
                  "type": "uint256"
                }
              ],
              "internalType": "struct IHypePool.Rewards",
              "name": "rewards",
              "type": "tuple"
            }
          ],
          "internalType": "struct IHypePool.HypePool",
          "name": "",
          "type": "tuple"
        }
      ],
      "stateMutability": "nonpayable",
      "type": "function"
    },
    {
      "inputs": [
        {
          "internalType": "bytes32",
          "name": "uuid",
          "type": "bytes32"
        }
      ],
      "name": "deactivatePool",
      "outputs": [],
      "stateMutability": "nonpayable",
      "type": "function"
    },
    {
      "inputs": [],
      "name": "getCurrentIndex",
      "outputs": [
        {
          "internalType": "bytes32",
          "name": "",
          "type": "bytes32"
        }
      ],
      "stateMutability": "view",
      "type": "function"
    },
    {
      "inputs": [
        {
          "internalType": "bytes32",
          "name": "uuid",
          "type": "bytes32"
        }
      ],
      "name": "getPool",
      "outputs": [
        {
          "components": [
            {
              "internalType": "bytes32",
              "name": "id",
              "type": "bytes32"
            },
            {
              "internalType": "address",
              "name": "creator",
              "type": "address"
            },
            {
              "components": [
                {
                  "internalType": "string",
                  "name": "title",
                  "type": "string"
                },
                {
                  "internalType": "string",
                  "name": "projectName",
                  "type": "string"
                },
                {
                  "internalType": "string",
                  "name": "tokenName",
                  "type": "string"
                },
                {
                  "internalType": "string",
                  "name": "word",
                  "type": "string"
                }
              ],
              "internalType": "struct IHypePool.Details",
              "name": "details",
              "type": "tuple"
            },
            {
              "components": [
                {
                  "internalType": "uint256",
                  "name": "network",
                  "type": "uint256"
                },
                {
                  "internalType": "address",
                  "name": "tokenAddress",
                  "type": "address"
                },
                {
                  "internalType": "uint256",
                  "name": "impressionReward",
                  "type": "uint256"
                },
                {
                  "internalType": "uint256",
                  "name": "cap",
                  "type": "uint256"
                },
                {
                  "internalType": "uint256",
                  "name": "startDate",
                  "type": "uint256"
                },
                {
                  "internalType": "uint256",
                  "name": "endDate",
                  "type": "uint256"
                },
                {
                  "internalType": "uint256",
                  "name": "duration",
                  "type": "uint256"
                },
                {
                  "internalType": "uint256",
                  "name": "firstLeaderRewards",
                  "type": "uint256"
                },
                {
                  "internalType": "uint256",
                  "name": "secondLeaderRewards",
                  "type": "uint256"
                },
                {
                  "internalType": "uint256",
                  "name": "thirdLeaderRewards",
                  "type": "uint256"
                }
              ],
              "internalType": "struct IHypePool.Rewards",
              "name": "rewards",
              "type": "tuple"
            }
          ],
          "internalType": "struct IHypePool.HypePool",
          "name": "",
          "type": "tuple"
        }
      ],
      "stateMutability": "view",
      "type": "function"
    },
    {
      "inputs": [
        {
          "internalType": "bytes32",
          "name": "uuid",
          "type": "bytes32"
        }
      ],
      "name": "getPoolRewards",
      "outputs": [
        {
          "components": [
            {
              "internalType": "uint256",
              "name": "network",
              "type": "uint256"
            },
            {
              "internalType": "address",
              "name": "tokenAddress",
              "type": "address"
            },
            {
              "internalType": "uint256",
              "name": "impressionReward",
              "type": "uint256"
            },
            {
              "internalType": "uint256",
              "name": "cap",
              "type": "uint256"
            },
            {
              "internalType": "uint256",
              "name": "startDate",
              "type": "uint256"
            },
            {
              "internalType": "uint256",
              "name": "endDate",
              "type": "uint256"
            },
            {
              "internalType": "uint256",
              "name": "duration",
              "type": "uint256"
            },
            {
              "internalType": "uint256",
              "name": "firstLeaderRewards",
              "type": "uint256"
            },
            {
              "internalType": "uint256",
              "name": "secondLeaderRewards",
              "type": "uint256"
            },
            {
              "internalType": "uint256",
              "name": "thirdLeaderRewards",
              "type": "uint256"
            }
          ],
          "internalType": "struct IHypePool.Rewards",
          "name": "",
          "type": "tuple"
        }
      ],
      "stateMutability": "view",
      "type": "function"
    },
    {
      "inputs": [
        {
          "internalType": "bytes32",
          "name": "role",
          "type": "bytes32"
        },
        {
          "internalType": "address",
          "name": "account",
          "type": "address"
        }
      ],
      "name": "hasRole",
      "outputs": [
        {
          "internalType": "bool",
          "name": "",
          "type": "bool"
        }
      ],
      "stateMutability": "view",
      "type": "function"
    },
    {
      "inputs": [
        {
          "internalType": "bytes32",
          "name": "uuid",
          "type": "bytes32"
        }
      ],
      "name": "isActive",
      "outputs": [
        {
          "internalType": "bool",
          "name": "",
          "type": "bool"
        }
      ],
      "stateMutability": "view",
      "type": "function"
    },
    {
      "inputs": [
        {
          "internalType": "bytes32",
          "name": "uuid",
          "type": "bytes32"
        }
      ],
      "name": "isExpired",
      "outputs": [
        {
          "internalType": "bool",
          "name": "",
          "type": "bool"
        }
      ],
      "stateMutability": "view",
      "type": "function"
    },
    {
      "inputs": [
        {
          "internalType": "bytes32",
          "name": "uuid",
          "type": "bytes32"
        }
      ],
      "name": "isGracePeriod",
      "outputs": [
        {
          "internalType": "bool",
          "name": "",
          "type": "bool"
        }
      ],
      "stateMutability": "view",
      "type": "function"
    },
    {
      "inputs": [],
      "name": "owner",
      "outputs": [
        {
          "internalType": "address",
          "name": "",
          "type": "address"
        }
      ],
      "stateMutability": "view",
      "type": "function"
    },
    {
      "inputs": [],
      "name": "pause",
      "outputs": [],
      "stateMutability": "nonpayable",
      "type": "function"
    },
    {
      "inputs": [],
      "name": "paused",
      "outputs": [
        {
          "internalType": "bool",
          "name": "",
          "type": "bool"
        }
      ],
      "stateMutability": "view",
      "type": "function"
    },
    {
      "inputs": [
        {
          "internalType": "bytes32",
          "name": "uuid",
          "type": "bytes32"
        }
      ],
      "name": "poolURI",
      "outputs": [
        {
          "internalType": "string",
          "name": "",
          "type": "string"
        }
      ],
      "stateMutability": "view",
      "type": "function"
    },
    {
      "inputs": [],
      "name": "renounceOwnership",
      "outputs": [],
      "stateMutability": "nonpayable",
      "type": "function"
    },
    {
      "inputs": [
        {
          "internalType": "bytes32",
          "name": "role",
          "type": "bytes32"
        },
        {
          "internalType": "address",
          "name": "account",
          "type": "address"
        }
      ],
      "name": "revokeRole",
      "outputs": [],
      "stateMutability": "nonpayable",
      "type": "function"
    },
    {
      "inputs": [
        {
          "internalType": "address",
          "name": "newOwner",
          "type": "address"
        }
      ],
      "name": "transferOwnership",
      "outputs": [],
      "stateMutability": "nonpayable",
      "type": "function"
    },
    {
      "inputs": [],
      "name": "unpause",
      "outputs": [],
      "stateMutability": "nonpayable",
      "type": "function"
    }
  ],
  "bytecode": "0x60806040523480156200001157600080fd5b5060405162003823380380620038238339810160408190526200003491620002f0565b6007805460ff1916905562000049336200005d565b620000558282620000b7565b505062000328565b600780546001600160a01b03838116610100818102610100600160a81b031985161790945560405193909204169182907f8be0079c531659141344cd1fd0a4f28419497f9722a3daafe3b4186f6b6457e090600090a35050565b6001600160a01b0382166200012a5760405162461bcd60e51b815260206004820152602e60248201527f457363726f7720636f6e747261637420616464726573732063616e6e6f74206260448201526d65207a65726f206164647265737360901b60648201526084015b60405180910390fd5b6001600160a01b038116620001935760405162461bcd60e51b815260206004820152602860248201527f416374697661746f7220616464726573732063616e6e6f74206265207a65726f604482015267206164647265737360c01b606482015260840162000121565b600280546001600160a01b0319166001600160a01b038416179055620001e67fec5aad7bdface20c35bc02d6d2d5760df981277427368525d634f4e2603ea1928262000209602090811b62000f5117901c565b600180546001600160a01b0319166001600160a01b039290921691909117905550565b6001600160a01b0381166200027a5760405162461bcd60e51b815260206004820152603060248201527f416363657373436f6e74726f6c3a2063616e6e6f74206772616e7420726f6c6560448201526f20746f207a65726f206164647265737360801b606482015260840162000121565b6000828152602081815260408083206001600160a01b0385168085529252808320805460ff1916600117905551909184917f2ae6a113c0ed5b78a53413ffbb7679881f11145ccfba4fb92e863dfcd5a1d2f39190a35050565b80516001600160a01b0381168114620002eb57600080fd5b919050565b600080604083850312156200030457600080fd5b6200030f83620002d3565b91506200031f60208401620002d3565b90509250929050565b6134eb80620003386000396000f3fe608060405234801561001057600080fd5b506004361061016c5760003560e01c80638456cb59116100cd578063d9d9785911610081578063f2fde38b11610066578063f2fde38b146102e9578063f6c00927146102fc578063f8607fb11461030f57600080fd5b8063d9d97859146102c3578063e959b38a146102d657600080fd5b806391d14854116100b257806391d148541461028a578063bd033bd01461029d578063d547741f146102b057600080fd5b80638456cb59146102595780638da5cb5b1461026157600080fd5b80635c975abb116101245780637081321711610109578063708132171461021e578063715018a61461023e57806373dfe0da1461024657600080fd5b80635c975abb146102005780636db2feb21461020b57600080fd5b806324bc59721161015557806324bc5972146101b35780633f4ba83a146101d35780635c36901c146101dd57600080fd5b806308740a3b146101715780630d9005ae146101ab575b600080fd5b6101987fec5aad7bdface20c35bc02d6d2d5760df981277427368525d634f4e2603ea19281565b6040519081526020015b60405180910390f35b600654610198565b6101c66101c1366004612d67565b61032f565b6040516101a29190612df7565b6101db6103a4565b005b6101f06101eb366004612d67565b6103b6565b60405190151581526020016101a2565b60075460ff166101f0565b6101f0610219366004612d67565b61070f565b61023161022c366004612fa7565b610a65565b6040516101a291906130ff565b6101db610a88565b6101db610254366004612d67565b610a9a565b6101db610aae565b60075461010090046001600160a01b03166040516001600160a01b0390911681526020016101a2565b6101f06102983660046131bf565b610abe565b6101f06102ab366004612d67565b610ae9565b6101db6102be3660046131bf565b610e61565b6101db6102d1366004612d67565b610f38565b6101db6102e43660046131bf565b610f51565b6101db6102f73660046131ef565b611026565b61023161030a366004612d67565b6110b3565b61032261031d366004612d67565b6113d3565b6040516101a2919061320c565b61038e6040518061014001604052806000815260200160006001600160a01b0316815260200160008152602001600081526020016000815260200160008152602001600081526020016000815260200160008152602001600081525090565b6000610399836110b3565b606001519392505050565b6103ac611475565b6103b46114d5565b565b60008181526003602090815260408083208151608080820184528254825260018301546001600160a01b031694820194909452825193840183526002820180548695929485019291908290829061040c9061321f565b80601f01602080910402602001604051908101604052809291908181526020018280546104389061321f565b80156104855780601f1061045a57610100808354040283529160200191610485565b820191906000526020600020905b81548152906001019060200180831161046857829003601f168201915b5050505050815260200160018201805461049e9061321f565b80601f01602080910402602001604051908101604052809291908181526020018280546104ca9061321f565b80156105175780601f106104ec57610100808354040283529160200191610517565b820191906000526020600020905b8154815290600101906020018083116104fa57829003601f168201915b505050505081526020016002820180546105309061321f565b80601f016020809104026020016040519081016040528092919081815260200182805461055c9061321f565b80156105a95780601f1061057e576101008083540402835291602001916105a9565b820191906000526020600020905b81548152906001019060200180831161058c57829003601f168201915b505050505081526020016003820180546105c29061321f565b80601f01602080910402602001604051908101604052809291908181526020018280546105ee9061321f565b801561063b5780601f106106105761010080835404028352916020019161063b565b820191906000526020600020905b81548152906001019060200180831161061e57829003601f168201915b50505050508152505081526020016006820160405180610140016040529081600082015481526020016001820160009054906101000a90046001600160a01b03166001600160a01b03166001600160a01b0316815260200160028201548152602001600382015481526020016004820154815260200160058201548152602001600682015481526020016007820154815260200160088201548152602001600982015481525050815250509050806060015160a00151600014158015610708575042816060015160a00151115b9392505050565b60008181526003602090815260408083208151608080820184528254825260018301546001600160a01b03169482019490945282519384018352600282018054869592948501929190829082906107659061321f565b80601f01602080910402602001604051908101604052809291908181526020018280546107919061321f565b80156107de5780601f106107b3576101008083540402835291602001916107de565b820191906000526020600020905b8154815290600101906020018083116107c157829003601f168201915b505050505081526020016001820180546107f79061321f565b80601f01602080910402602001604051908101604052809291908181526020018280546108239061321f565b80156108705780601f1061084557610100808354040283529160200191610870565b820191906000526020600020905b81548152906001019060200180831161085357829003601f168201915b505050505081526020016002820180546108899061321f565b80601f01602080910402602001604051908101604052809291908181526020018280546108b59061321f565b80156109025780601f106108d757610100808354040283529160200191610902565b820191906000526020600020905b8154815290600101906020018083116108e557829003601f168201915b5050505050815260200160038201805461091b9061321f565b80601f01602080910402602001604051908101604052809291908181526020018280546109479061321f565b80156109945780601f1061096957610100808354040283529160200191610994565b820191906000526020600020905b81548152906001019060200180831161097757829003601f168201915b50505050508152505081526020016006820160405180610140016040529081600082015481526020016001820160009054906101000a90046001600160a01b03166001600160a01b03166001600160a01b0316815260200160028201548152602001600382015481526020016004820154815260200160058201548152602001600682015481526020016007820154815260200160088201548152602001600982015481525050815250509050806060015160a0015160001415801561070857506060015160a00151421192915050565b610a6d612cae565b610a75611527565b610a8084848461157a565b949350505050565b610a90611475565b6103b46000611b36565b610aa2611527565b610aab81611ba7565b50565b610ab6611475565b6103b4612342565b6000828152602081815260408083206001600160a01b038516845290915290205460ff165b92915050565b60008181526003602090815260408083208151608080820184528254825260018301546001600160a01b0316948201949094528251938401835260028201805486959294850192919082908290610b3f9061321f565b80601f0160208091040260200160405190810160405280929190818152602001828054610b6b9061321f565b8015610bb85780601f10610b8d57610100808354040283529160200191610bb8565b820191906000526020600020905b815481529060010190602001808311610b9b57829003601f168201915b50505050508152602001600182018054610bd19061321f565b80601f0160208091040260200160405190810160405280929190818152602001828054610bfd9061321f565b8015610c4a5780601f10610c1f57610100808354040283529160200191610c4a565b820191906000526020600020905b815481529060010190602001808311610c2d57829003601f168201915b50505050508152602001600282018054610c639061321f565b80601f0160208091040260200160405190810160405280929190818152602001828054610c8f9061321f565b8015610cdc5780601f10610cb157610100808354040283529160200191610cdc565b820191906000526020600020905b815481529060010190602001808311610cbf57829003601f168201915b50505050508152602001600382018054610cf59061321f565b80601f0160208091040260200160405190810160405280929190818152602001828054610d219061321f565b8015610d6e5780601f10610d4357610100808354040283529160200191610d6e565b820191906000526020600020905b815481529060010190602001808311610d5157829003601f168201915b50505050508152505081526020016006820160405180610140016040529081600082015481526020016001820160009054906101000a90046001600160a01b03166001600160a01b03166001600160a01b0316815260200160028201548152602001600382015481526020016004820154815260200160058201548152602001600682015481526020016007820154815260200160088201548152602001600982015481525050815250509050806060015160a00151600014158015610e3b575042816060015160a00151105b80156107085750606081015160a00151610e589062093a8061326f565b42109392505050565b6001600160a01b038116610ee25760405162461bcd60e51b815260206004820152603360248201527f416363657373436f6e74726f6c3a2063616e6e6f74207265766f6b6520726f6c60448201527f652066726f6d207a65726f20616464726573730000000000000000000000000060648201526084015b60405180910390fd5b6000828152602081815260408083206001600160a01b0385168085529252808320805460ff1916905551909184917f155aaafb6329a2098580462df33ec4b7441b19729b9601c5fc17ae1cf99a8a529190a35050565b610f40611527565b610f48611475565b610aab8161237f565b6001600160a01b038116610fcd5760405162461bcd60e51b815260206004820152603060248201527f416363657373436f6e74726f6c3a2063616e6e6f74206772616e7420726f6c6560448201527f20746f207a65726f2061646472657373000000000000000000000000000000006064820152608401610ed9565b6000828152602081815260408083206001600160a01b0385168085529252808320805460ff1916600117905551909184917f2ae6a113c0ed5b78a53413ffbb7679881f11145ccfba4fb92e863dfcd5a1d2f39190a35050565b61102e611475565b6001600160a01b0381166110aa5760405162461bcd60e51b815260206004820152602660248201527f4f776e61626c653a206e6577206f776e657220697320746865207a65726f206160448201527f64647265737300000000000000000000000000000000000000000000000000006064820152608401610ed9565b610aab81611b36565b6110bb612cae565b6000828152600360209081526040918290208251608080820185528254825260018301546001600160a01b03169382019390935283519283018452600282018054919492939285019291829082906111129061321f565b80601f016020809104026020016040519081016040528092919081815260200182805461113e9061321f565b801561118b5780601f106111605761010080835404028352916020019161118b565b820191906000526020600020905b81548152906001019060200180831161116e57829003601f168201915b505050505081526020016001820180546111a49061321f565b80601f01602080910402602001604051908101604052809291908181526020018280546111d09061321f565b801561121d5780601f106111f25761010080835404028352916020019161121d565b820191906000526020600020905b81548152906001019060200180831161120057829003601f168201915b505050505081526020016002820180546112369061321f565b80601f01602080910402602001604051908101604052809291908181526020018280546112629061321f565b80156112af5780601f10611284576101008083540402835291602001916112af565b820191906000526020600020905b81548152906001019060200180831161129257829003601f168201915b505050505081526020016003820180546112c89061321f565b80601f01602080910402602001604051908101604052809291908181526020018280546112f49061321f565b80156113415780601f1061131657610100808354040283529160200191611341565b820191906000526020600020905b81548152906001019060200180831161132457829003601f168201915b50505091909252505050815260408051610140810182526006840154815260078401546001600160a01b031660208281019190915260088501549282019290925260098401546060820152600a8401546080820152600b84015460a0820152600c84015460c0820152600d84015460e0820152600e840154610100820152600f90930154610120840152015292915050565b60008181526004602052604090208054606091906113f09061321f565b80601f016020809104026020016040519081016040528092919081815260200182805461141c9061321f565b80156114695780601f1061143e57610100808354040283529160200191611469565b820191906000526020600020905b81548152906001019060200180831161144c57829003601f168201915b50505050509050919050565b6007546001600160a01b036101009091041633146103b45760405162461bcd60e51b815260206004820181905260248201527f4f776e61626c653a2063616c6c6572206973206e6f7420746865206f776e65726044820152606401610ed9565b6114dd6128c0565b6007805460ff191690557f5db9ee0a495bf2e6ff9c91a7834c1ba4fdd244a5e8aa4e537bd38aeae4b073aa335b6040516001600160a01b03909116815260200160405180910390a1565b60075460ff16156103b45760405162461bcd60e51b815260206004820152601060248201527f5061757361626c653a20706175736564000000000000000000000000000000006044820152606401610ed9565b611582612cae565b60008451116115d35760405162461bcd60e51b815260206004820152601460248201527f4d697373696e67206d65746164617461205552490000000000000000000000006044820152606401610ed9565b60008260600151116116275760405162461bcd60e51b815260206004820152601060248201527f496e76616c696420706f6f6c20636170000000000000000000000000000000006044820152606401610ed9565b60008260c00151116116a15760405162461bcd60e51b815260206004820152602160248201527f4475726174696f6e206d757374206265206174206c65617374206f6e6520646160448201527f79000000000000000000000000000000000000000000000000000000000000006064820152608401610ed9565b6080820151156116f35760405162461bcd60e51b815260206004820152601760248201527f53746172742064617465206d757374206265207a65726f0000000000000000006044820152606401610ed9565b60a0820151156117455760405162461bcd60e51b815260206004820152601560248201527f456e642064617465206d757374206265207a65726f00000000000000000000006044820152606401610ed9565b60008260400151116117995760405162461bcd60e51b815260206004820152601e60248201527f496e76616c696420696d7072657373696f6e20687970652072657761726400006044820152606401610ed9565b60006117a3612912565b60008181526005602052604090205490915060ff16156118055760405162461bcd60e51b815260206004820152601360248201527f5575696420616c726561647920657869737473000000000000000000000000006044820152606401610ed9565b611811818686866129af565b61181b8186612b5e565b6000818152600360209081526040918290208251608080820185528254825260018301546001600160a01b03169382019390935283519283018452600282018054919492939285019291829082906118729061321f565b80601f016020809104026020016040519081016040528092919081815260200182805461189e9061321f565b80156118eb5780601f106118c0576101008083540402835291602001916118eb565b820191906000526020600020905b8154815290600101906020018083116118ce57829003601f168201915b505050505081526020016001820180546119049061321f565b80601f01602080910402602001604051908101604052809291908181526020018280546119309061321f565b801561197d5780601f106119525761010080835404028352916020019161197d565b820191906000526020600020905b81548152906001019060200180831161196057829003601f168201915b505050505081526020016002820180546119969061321f565b80601f01602080910402602001604051908101604052809291908181526020018280546119c29061321f565b8015611a0f5780601f106119e457610100808354040283529160200191611a0f565b820191906000526020600020905b8154815290600101906020018083116119f257829003601f168201915b50505050508152602001600382018054611a289061321f565b80601f0160208091040260200160405190810160405280929190818152602001828054611a549061321f565b8015611aa15780601f10611a7657610100808354040283529160200191611aa1565b820191906000526020600020905b815481529060010190602001808311611a8457829003601f168201915b50505091909252505050815260408051610140810182526006840154815260078401546001600160a01b031660208083019190915260088501549282019290925260098401546060820152600a8401546080820152600b84015460a0820152600c84015460c0820152600d84015460e0820152600e840154610100820152600f90930154610120840152015295945050505050565b600780546001600160a01b038381166101008181027fffffffffffffffffffffff0000000000000000000000000000000000000000ff85161790945560405193909204169182907f8be0079c531659141344cd1fd0a4f28419497f9722a3daafe3b4186f6b6457e090600090a35050565b60008181526003602090815260408083208151608080820184528254825260018301546001600160a01b03169482019490945282519384018352600282018054919492938501929182908290611bfc9061321f565b80601f0160208091040260200160405190810160405280929190818152602001828054611c289061321f565b8015611c755780601f10611c4a57610100808354040283529160200191611c75565b820191906000526020600020905b815481529060010190602001808311611c5857829003601f168201915b50505050508152602001600182018054611c8e9061321f565b80601f0160208091040260200160405190810160405280929190818152602001828054611cba9061321f565b8015611d075780601f10611cdc57610100808354040283529160200191611d07565b820191906000526020600020905b815481529060010190602001808311611cea57829003601f168201915b50505050508152602001600282018054611d209061321f565b80601f0160208091040260200160405190810160405280929190818152602001828054611d4c9061321f565b8015611d995780601f10611d6e57610100808354040283529160200191611d99565b820191906000526020600020905b815481529060010190602001808311611d7c57829003601f168201915b50505050508152602001600382018054611db29061321f565b80601f0160208091040260200160405190810160405280929190818152602001828054611dde9061321f565b8015611e2b5780601f10611e0057610100808354040283529160200191611e2b565b820191906000526020600020905b815481529060010190602001808311611e0e57829003601f168201915b50505091909252505050815260408051610140810182526006840154815260078401546001600160a01b03166020828101919091526008850154828401526009850154606080840191909152600a8601546080840152600b86015460a0840152600c86015460c0840152600d86015460e0840152600e860154610100840152600f9095015461012083015290920191909152908201510151909150600003611f155760405162461bcd60e51b815260206004820152601260248201527f506f6f6c20646f65736e277420657869737400000000000000000000000000006044820152606401610ed9565b60008281526005602052604090205460ff16611f735760405162461bcd60e51b815260206004820152601360248201527f506f6f6c20646f6573206e6f74206578697374000000000000000000000000006044820152606401610ed9565b611f7c826103b6565b15611fc95760405162461bcd60e51b815260206004820152601660248201527f506f6f6c20697320616c726561647920616374697665000000000000000000006044820152606401610ed9565b6000611ff57fec5aad7bdface20c35bc02d6d2d5760df981277427368525d634f4e2603ea19233610abe565b9050806121a3576002546040517f1aa9e742000000000000000000000000000000000000000000000000000000008152336004820152602481018590526001600160a01b03909116906000908290631aa9e74290604401606060405180830381865afa158015612069573d6000803e3d6000fd5b505050506040513d601f19601f8201168201806040525081019061208d9190613282565b606080860151015181519192501461210d5760405162461bcd60e51b815260206004820152602860248201527f4465706f736974656420616d6f756e7420646f6573206e6f74206d617463682060448201527f706f6f6c206361700000000000000000000000000000000000000000000000006064820152608401610ed9565b8360600151602001516001600160a01b031681602001516001600160a01b0316146121a05760405162461bcd60e51b815260206004820152603960248201527f4465706f736974656420746f6b656e206164647265737320646f6573206e6f7460448201527f206d6174636820706f6f6c20746f6b656e2061646472657373000000000000006064820152608401610ed9565b50505b606082018051426080909101819052905160c001516121c19161326f565b606083015160a0015260008381526003602090815260409182902084518155908401516001820180546001600160a01b0319166001600160a01b0390921691909117905590830151805184929190600283019081906122209082613333565b50602082015160018201906122359082613333565b506040820151600282019061224a9082613333565b506060820151600382019061225f9082613333565b505050606091820151805160068301556020808201516007840180546001600160a01b0319166001600160a01b039092169190911790556040808301516008850155828501516009850155608080840151600a86015560a080850151600b87015560c0850151600c87015560e0850151600d870155610100850151600e87015561012090940151600f9095019490945586850151808501519301518151898152339381019390935290820192909252928301527ff1e6981b3d18841dad1ef7f8db1d40663aaa4b8cd2022e5349498c4d406d00df910160405180910390a1505050565b61234a611527565b6007805460ff191660011790557f62e78cea01bee320cd4e420270b5ea74000d11b0c9f74754ebdbfc544b05a25861150a3390565b60008181526003602090815260408083208151608080820184528254825260018301546001600160a01b031694820194909452825193840183526002820180549194929385019291829082906123d49061321f565b80601f01602080910402602001604051908101604052809291908181526020018280546124009061321f565b801561244d5780601f106124225761010080835404028352916020019161244d565b820191906000526020600020905b81548152906001019060200180831161243057829003601f168201915b505050505081526020016001820180546124669061321f565b80601f01602080910402602001604051908101604052809291908181526020018280546124929061321f565b80156124df5780601f106124b4576101008083540402835291602001916124df565b820191906000526020600020905b8154815290600101906020018083116124c257829003601f168201915b505050505081526020016002820180546124f89061321f565b80601f01602080910402602001604051908101604052809291908181526020018280546125249061321f565b80156125715780601f1061254657610100808354040283529160200191612571565b820191906000526020600020905b81548152906001019060200180831161255457829003601f168201915b5050505050815260200160038201805461258a9061321f565b80601f01602080910402602001604051908101604052809291908181526020018280546125b69061321f565b80156126035780601f106125d857610100808354040283529160200191612603565b820191906000526020600020905b8154815290600101906020018083116125e657829003601f168201915b50505091909252505050815260408051610140810182526006840154815260078401546001600160a01b03166020828101919091526008850154828401526009850154606080840191909152600a8601546080840152600b86015460a0840152600c86015460c0840152600d86015460e0840152600e860154610100840152600f90950154610120830152909201919091529082015101519091506000036126ed5760405162461bcd60e51b815260206004820152601260248201527f506f6f6c20646f65736e277420657869737400000000000000000000000000006044820152606401610ed9565b6126f6826103b6565b15156001146127475760405162461bcd60e51b815260206004820152601860248201527f506f6f6c20697320616c726561647920696e61637469766500000000000000006044820152606401610ed9565b60608101514260a09091015260008281526003602090815260409182902083518155908301516001820180546001600160a01b0319166001600160a01b0390921691909117905590820151805183929190600283019081906127a99082613333565b50602082015160018201906127be9082613333565b50604082015160028201906127d39082613333565b50606082015160038201906127e89082613333565b5050506060918201518051600683015560208101516007830180546001600160a01b039092166001600160a01b031990921691909117905560408082015160088401559281015160098301556080810151600a83015560a0810151600b83015560c0810151600c83015560e0810151600d830155610100810151600e8301556101200151600f90910155517f0522afc663a576de692143f1e714306778ade438ea7c739c3a3964bd78eb2cc6906128b490849033909182526001600160a01b0316602082015260400190565b60405180910390a15050565b60075460ff166103b45760405162461bcd60e51b815260206004820152601460248201527f5061757361626c653a206e6f74207061757365640000000000000000000000006044820152606401610ed9565b60408051436020820181905242928201839052600060608301819052929091839081906080016040516020818303038152906040528051906020012090505b60008181526005602052604090205460ff1615610a805781612972816133f3565b6040805160208101889052908101869052606081018290529093506080019050604051602081830303815290604052805190602001209050612951565b6040805160808101825285815233602080830191825282840186815260608401869052600089815260039092529390208251815590516001820180546001600160a01b0319166001600160a01b039092169190911790559151805191929160028301908190612a1e9082613333565b5060208201516001820190612a339082613333565b5060408201516002820190612a489082613333565b5060608201516003820190612a5d9082613333565b50505060609182015180516006838101919091556020808301516007850180546001600160a01b0319166001600160a01b0390921691909117905560408084015160088601559483015160098501556080830151600a85015560a0830151600b85015560c0830151600c85015560e0830151600d850155610100830151600e85015561012090920151600f9093019290925560008781526005909152829020805460ff19166001179055859055517f3a21eb0a9afc1353da741f39aaea48014c074c6720b61baf41e1e18d6ae7b2fb90612b3c9086903390879061340c565b60405180910390a1612b4e8483612ba8565b612b588482612bef565b50505050565b6000828152600460205260409020612b768282613333565b507fa9397f16db6e1e1b43c1c813233f16139006d56a3d1a24412ebdfb0661b5bfff82826040516128b492919061343d565b7f764b3686bd9a8c04d487da87edb364f64d505149c22a8b2664d353539ecf6a338282600001518360200151846040015185606001516040516128b4959493929190613456565b7fbd9958b57e49a74ca231cded8239733651bec95f7d338b5bce7fe13a207a8c4b82826000015183602001518460400151856060015186608001518760a001518860c001518960e001518a61010001518b61012001516040516128b49b9a999897969594939291909a8b5260208b01999099526001600160a01b039790971660408a01526060890195909552608088019390935260a087019190915260c086015260e08501526101008401526101208301526101408201526101600190565b60405180608001604052806000801916815260200160006001600160a01b03168152602001612cfe6040518060800160405280606081526020016060815260200160608152602001606081525090565b8152602001612d626040518061014001604052806000815260200160006001600160a01b0316815260200160008152602001600081526020016000815260200160008152602001600081526020016000815260200160008152602001600081525090565b905290565b600060208284031215612d7957600080fd5b5035919050565b805182526020810151612d9e60208401826001600160a01b03169052565b5060408101516040830152606081015160608301526080810151608083015260a081015160a083015260c081015160c083015260e081015160e08301526101008082015181840152506101208082015181840152505050565b6101408101610ae38284612d80565b634e487b7160e01b600052604160045260246000fd5b604051610140810167ffffffffffffffff81118282101715612e4057612e40612e06565b60405290565b6040516080810167ffffffffffffffff81118282101715612e4057612e40612e06565b600082601f830112612e7a57600080fd5b813567ffffffffffffffff80821115612e9557612e95612e06565b604051601f8301601f19908116603f01168101908282118183101715612ebd57612ebd612e06565b81604052838152866020858801011115612ed657600080fd5b836020870160208301376000602085830101528094505050505092915050565b6001600160a01b0381168114610aab57600080fd5b8035612f1681612ef6565b919050565b60006101408284031215612f2e57600080fd5b612f36612e1c565b905081358152612f4860208301612f0b565b602082015260408201356040820152606082013560608201526080820135608082015260a082013560a082015260c082013560c082015260e082013560e082015261010080830135818301525061012080830135818301525092915050565b60008060006101808486031215612fbd57600080fd5b833567ffffffffffffffff80821115612fd557600080fd5b612fe187838801612e69565b94506020860135915080821115612ff757600080fd5b908501906080828803121561300b57600080fd5b613013612e46565b82358281111561302257600080fd5b61302e89828601612e69565b82525060208301358281111561304357600080fd5b61304f89828601612e69565b60208301525060408301358281111561306757600080fd5b61307389828601612e69565b60408301525060608301358281111561308b57600080fd5b61309789828601612e69565b6060830152508094505050506130b08560408601612f1b565b90509250925092565b6000815180845260005b818110156130df576020818501810151868301820152016130c3565b506000602082860101526020601f19601f83011685010191505092915050565b60208152815160208201526001600160a01b036020830151166040820152600060408301516101a06060840152805160806101c08501526131446102408501826130b9565b905060208201516101bf1980868403016101e087015261316483836130b9565b925060408401519150808684030161020087015261318283836130b9565b925060608401519350808684030161022087015250506131a281836130b9565b91505060608401516131b76080850182612d80565b509392505050565b600080604083850312156131d257600080fd5b8235915060208301356131e481612ef6565b809150509250929050565b60006020828403121561320157600080fd5b813561070881612ef6565b60208152600061070860208301846130b9565b600181811c9082168061323357607f821691505b60208210810361325357634e487b7160e01b600052602260045260246000fd5b50919050565b634e487b7160e01b600052601160045260246000fd5b80820180821115610ae357610ae3613259565b60006060828403121561329457600080fd5b6040516060810181811067ffffffffffffffff821117156132b7576132b7612e06565b6040528251815260208301516132cc81612ef6565b60208201526040928301519281019290925250919050565b601f82111561332e57600081815260208120601f850160051c8101602086101561330b5750805b601f850160051c820191505b8181101561332a57828155600101613317565b5050505b505050565b815167ffffffffffffffff81111561334d5761334d612e06565b6133618161335b845461321f565b846132e4565b602080601f831160018114613396576000841561337e5750858301515b600019600386901b1c1916600185901b17855561332a565b600085815260208120601f198616915b828110156133c5578886015182559484019460019091019084016133a6565b50858210156133e35787850151600019600388901b60f8161c191681555b5050505050600190811b01905550565b60006001820161340557613405613259565b5060010190565b8381526001600160a01b038316602082015260606040820152600061343460608301846130b9565b95945050505050565b828152604060208201526000610a8060408301846130b9565b85815260a06020820152600061346f60a08301876130b9565b828103604084015261348181876130b9565b9050828103606084015261349581866130b9565b905082810360808401526134a981856130b9565b9897505050505050505056fea2646970667358221220c284bce02f91523b68e75fbf3581d403e08ddf85a45b8257841489960891f5f464736f6c63430008120033",
  "linkReferences": {},
  "deployedLinkReferences": {}
}