{
  "_format": "hh-sol-artifact-1",
  "contractName": "HypePoolBase",
  "sourceName": "contracts/HypePoolBase.sol",
  "abi": [
    {
      "anonymous": false,
      "inputs": [
        {
          "indexed": false,
          "internalType": "bytes32",
          "name": "poolId",
          "type": "bytes32"
        },
        {
          "indexed": false,
          "internalType": "address",
          "name": "activator",
          "type": "address"
        },
        {
          "indexed": false,
          "internalType": "uint256",
          "name": "startDate",
          "type": "uint256"
        },
        {
          "indexed": false,
          "internalType": "uint256",
          "name": "endDate",
          "type": "uint256"
        }
      ],
      "name": "PoolActivated",
      "type": "event"
    },
    {
      "anonymous": false,
      "inputs": [
        {
          "indexed": false,
          "internalType": "bytes32",
          "name": "poolId",
          "type": "bytes32"
        },
        {
          "indexed": false,
          "internalType": "address",
          "name": "creator",
          "type": "address"
        },
        {
          "indexed": false,
          "internalType": "string",
          "name": "uri",
          "type": "string"
        }
      ],
      "name": "PoolCreated",
      "type": "event"
    },
    {
      "anonymous": false,
      "inputs": [
        {
          "indexed": false,
          "internalType": "bytes32",
          "name": "poolId",
          "type": "bytes32"
        },
        {
          "indexed": false,
          "internalType": "address",
          "name": "deactivator",
          "type": "address"
        }
      ],
      "name": "PoolDeactivated",
      "type": "event"
    },
    {
      "anonymous": false,
      "inputs": [
        {
          "indexed": true,
          "internalType": "bytes32",
          "name": "role",
          "type": "bytes32"
        },
        {
          "indexed": true,
          "internalType": "address",
          "name": "account",
          "type": "address"
        }
      ],
      "name": "RoleGranted",
      "type": "event"
    },
    {
      "anonymous": false,
      "inputs": [
        {
          "indexed": true,
          "internalType": "bytes32",
          "name": "role",
          "type": "bytes32"
        },
        {
          "indexed": true,
          "internalType": "address",
          "name": "account",
          "type": "address"
        }
      ],
      "name": "RoleRevoked",
      "type": "event"
    },
    {
      "inputs": [],
      "name": "ACTIVATOR_ROLE",
      "outputs": [
        {
          "internalType": "bytes32",
          "name": "",
          "type": "bytes32"
        }
      ],
      "stateMutability": "view",
      "type": "function"
    },
    {
      "inputs": [
        {
          "internalType": "bytes32",
          "name": "role",
          "type": "bytes32"
        },
        {
          "internalType": "address",
          "name": "account",
          "type": "address"
        }
      ],
      "name": "addRole",
      "outputs": [],
      "stateMutability": "nonpayable",
      "type": "function"
    },
    {
      "inputs": [
        {
          "internalType": "bytes32",
          "name": "uuid",
          "type": "bytes32"
        }
      ],
      "name": "doesPoolExist",
      "outputs": [
        {
          "internalType": "bool",
          "name": "",
          "type": "bool"
        }
      ],
      "stateMutability": "view",
      "type": "function"
    },
    {
      "inputs": [],
      "name": "getCurrentIndex",
      "outputs": [
        {
          "internalType": "bytes32",
          "name": "",
          "type": "bytes32"
        }
      ],
      "stateMutability": "view",
      "type": "function"
    },
    {
      "inputs": [
        {
          "internalType": "bytes32",
          "name": "uuid",
          "type": "bytes32"
        }
      ],
      "name": "getPool",
      "outputs": [
        {
          "components": [
            {
              "internalType": "bytes32",
              "name": "id",
              "type": "bytes32"
            },
            {
              "internalType": "address",
              "name": "creator",
              "type": "address"
            },
            {
              "internalType": "string",
              "name": "uri",
              "type": "string"
            },
            {
              "components": [
                {
                  "internalType": "string",
                  "name": "title",
                  "type": "string"
                },
                {
                  "internalType": "string",
                  "name": "projectName",
                  "type": "string"
                },
                {
                  "internalType": "string",
                  "name": "tokenName",
                  "type": "string"
                },
                {
                  "internalType": "string",
                  "name": "campaignWord",
                  "type": "string"
                }
              ],
              "internalType": "struct IHypePool.Details",
              "name": "details",
              "type": "tuple"
            },
            {
              "components": [
                {
                  "internalType": "uint256",
                  "name": "network",
                  "type": "uint256"
                },
                {
                  "internalType": "address",
                  "name": "tokenAddress",
                  "type": "address"
                },
                {
                  "internalType": "uint256",
                  "name": "impressionReward",
                  "type": "uint256"
                },
                {
                  "internalType": "uint256",
                  "name": "cap",
                  "type": "uint256"
                },
                {
                  "internalType": "uint256",
                  "name": "startDate",
                  "type": "uint256"
                },
                {
                  "internalType": "uint256",
                  "name": "endDate",
                  "type": "uint256"
                },
                {
                  "internalType": "uint256",
                  "name": "duration",
                  "type": "uint256"
                }
              ],
              "internalType": "struct IHypePool.Rewards",
              "name": "rewards",
              "type": "tuple"
            },
            {
              "internalType": "uint256[]",
              "name": "leaderRewards",
              "type": "uint256[]"
            }
          ],
          "internalType": "struct IHypePool.HypePool",
          "name": "",
          "type": "tuple"
        }
      ],
      "stateMutability": "view",
      "type": "function"
    },
    {
      "inputs": [
        {
          "internalType": "bytes32",
          "name": "uuid",
          "type": "bytes32"
        }
      ],
      "name": "getPoolRewards",
      "outputs": [
        {
          "components": [
            {
              "internalType": "uint256",
              "name": "network",
              "type": "uint256"
            },
            {
              "internalType": "address",
              "name": "tokenAddress",
              "type": "address"
            },
            {
              "internalType": "uint256",
              "name": "impressionReward",
              "type": "uint256"
            },
            {
              "internalType": "uint256",
              "name": "cap",
              "type": "uint256"
            },
            {
              "internalType": "uint256",
              "name": "startDate",
              "type": "uint256"
            },
            {
              "internalType": "uint256",
              "name": "endDate",
              "type": "uint256"
            },
            {
              "internalType": "uint256",
              "name": "duration",
              "type": "uint256"
            }
          ],
          "internalType": "struct IHypePool.Rewards",
          "name": "",
          "type": "tuple"
        }
      ],
      "stateMutability": "view",
      "type": "function"
    },
    {
      "inputs": [
        {
          "internalType": "bytes32",
          "name": "role",
          "type": "bytes32"
        },
        {
          "internalType": "address",
          "name": "account",
          "type": "address"
        }
      ],
      "name": "hasRole",
      "outputs": [
        {
          "internalType": "bool",
          "name": "",
          "type": "bool"
        }
      ],
      "stateMutability": "view",
      "type": "function"
    },
    {
      "inputs": [
        {
          "internalType": "bytes32",
          "name": "uuid",
          "type": "bytes32"
        }
      ],
      "name": "isActive",
      "outputs": [
        {
          "internalType": "bool",
          "name": "",
          "type": "bool"
        }
      ],
      "stateMutability": "view",
      "type": "function"
    },
    {
      "inputs": [
        {
          "internalType": "bytes32",
          "name": "uuid",
          "type": "bytes32"
        }
      ],
      "name": "isExpired",
      "outputs": [
        {
          "internalType": "bool",
          "name": "",
          "type": "bool"
        }
      ],
      "stateMutability": "view",
      "type": "function"
    },
    {
      "inputs": [
        {
          "internalType": "bytes32",
          "name": "uuid",
          "type": "bytes32"
        }
      ],
      "name": "isGracePeriod",
      "outputs": [
        {
          "internalType": "bool",
          "name": "",
          "type": "bool"
        }
      ],
      "stateMutability": "view",
      "type": "function"
    },
    {
      "inputs": [
        {
          "internalType": "bytes32",
          "name": "uuid",
          "type": "bytes32"
        }
      ],
      "name": "poolURI",
      "outputs": [
        {
          "internalType": "string",
          "name": "",
          "type": "string"
        }
      ],
      "stateMutability": "view",
      "type": "function"
    },
    {
      "inputs": [
        {
          "internalType": "bytes32",
          "name": "role",
          "type": "bytes32"
        },
        {
          "internalType": "address",
          "name": "account",
          "type": "address"
        }
      ],
      "name": "revokeRole",
      "outputs": [],
      "stateMutability": "nonpayable",
      "type": "function"
    }
  ],
  "bytecode": "0x608060405234801561001057600080fd5b50612fa1806100206000396000f3fe608060405234801561001057600080fd5b50600436106100d45760003560e01c806391d1485411610081578063e959b38a1161005b578063e959b38a14610251578063f6c009271461026d578063f8607fb11461029d576100d4565b806391d14854146101d5578063bd033bd014610205578063d547741f14610235576100d4565b806324bc5972116100b257806324bc5972146101455780635c36901c146101755780636db2feb2146101a5576100d4565b806308740a3b146100d95780630d9005ae146100f757806323692edd14610115575b600080fd5b6100e16102cd565b6040516100ee91906127eb565b60405180910390f35b6100ff6102f1565b60405161010c91906127eb565b60405180910390f35b61012f600480360381019061012a9190612837565b61037f565b60405161013c919061287f565b60405180910390f35b61015f600480360381019061015a9190612837565b610908565b60405161016c9190612982565b60405180910390f35b61018f600480360381019061018a9190612837565b610a06565b60405161019c919061287f565b60405180910390f35b6101bf60048036038101906101ba9190612837565b610f7a565b6040516101cc919061287f565b60405180910390f35b6101ef60048036038101906101ea91906129c9565b6114ee565b6040516101fc919061287f565b60405180910390f35b61021f600480360381019061021a9190612837565b6115dc565b60405161022c919061287f565b60405180910390f35b61024f600480360381019061024a91906129c9565b611b71565b005b61026b600480360381019061026691906129c9565b611e1f565b005b61028760048036038101906102829190612837565b6120cd565b6040516102949190612cf6565b60405180910390f35b6102b760048036038101906102b29190612837565b6125ca565b6040516102c49190612d62565b60405180910390f35b7fec5aad7bdface20c35bc02d6d2d5760df981277427368525d634f4e2603ea19281565b600061031f7fd658481c8c3af3c7e868abc037fdc44b1c08b3f188c592ae489b38e59906df5e60001b6126f6565b61034b7f81e0c05895af38f39aa716e2daa31314b0a796c6bfaec3985b2fecb5a1b7691e60001b6126f6565b6103777fa2a630a92d4a6ab8a46b0867b9121d32f23521ecafaff21c2c0f64d263c0f01660001b6126f6565b600454905090565b60006103ad7f3b9a3b3373d31cb4f8927c8c68c2e24c1ca70a743438726e7cdf4312606951eb60001b6126f6565b6103d97fe4ef784ed8137accb3f81cf7963eb65f9949fc894a1dca75f5158f0d44898f9560001b6126f6565b6104057f1eccab8f1bc3cd4dfbb64bc39f0008c5ab29591b76ece01b8d70ac0d0a64384a60001b6126f6565b6000600360008481526020019081526020016000206040518060c0016040529081600082015481526020016001820160009054906101000a900473ffffffffffffffffffffffffffffffffffffffff1673ffffffffffffffffffffffffffffffffffffffff1673ffffffffffffffffffffffffffffffffffffffff16815260200160028201805461049590612db3565b80601f01602080910402602001604051908101604052809291908181526020018280546104c190612db3565b801561050e5780601f106104e35761010080835404028352916020019161050e565b820191906000526020600020905b8154815290600101906020018083116104f157829003601f168201915b505050505081526020016003820160405180608001604052908160008201805461053790612db3565b80601f016020809104026020016040519081016040528092919081815260200182805461056390612db3565b80156105b05780601f10610585576101008083540402835291602001916105b0565b820191906000526020600020905b81548152906001019060200180831161059357829003601f168201915b505050505081526020016001820180546105c990612db3565b80601f01602080910402602001604051908101604052809291908181526020018280546105f590612db3565b80156106425780601f1061061757610100808354040283529160200191610642565b820191906000526020600020905b81548152906001019060200180831161062557829003601f168201915b5050505050815260200160028201805461065b90612db3565b80601f016020809104026020016040519081016040528092919081815260200182805461068790612db3565b80156106d45780601f106106a9576101008083540402835291602001916106d4565b820191906000526020600020905b8154815290600101906020018083116106b757829003601f168201915b505050505081526020016003820180546106ed90612db3565b80601f016020809104026020016040519081016040528092919081815260200182805461071990612db3565b80156107665780601f1061073b57610100808354040283529160200191610766565b820191906000526020600020905b81548152906001019060200180831161074957829003601f168201915b5050505050815250508152602001600782016040518060e0016040529081600082015481526020016001820160009054906101000a900473ffffffffffffffffffffffffffffffffffffffff1673ffffffffffffffffffffffffffffffffffffffff1673ffffffffffffffffffffffffffffffffffffffff168152602001600282015481526020016003820154815260200160048201548152602001600582015481526020016006820154815250508152602001600e820180548060200260200160405190810160405280929190818152602001828054801561086857602002820191906000526020600020905b815481526020019060010190808311610854575b505050505081525050905061089f7f3508f8a6af924331ae88f390da5a088b7ead592c95fa055768ae0d24ef8a942c60001b6126f6565b6108cb7f053a5486ad6442615b48230bcb1d786d8c2cbe0a409d152ae86c08f19b93a17260001b6126f6565b600073ffffffffffffffffffffffffffffffffffffffff16816020015173ffffffffffffffffffffffffffffffffffffffff161415915050919050565b6109106126fc565b61093c7f70bc8fe8af4f6e289b8cdc04872ad740941fbbde78fc10a0df07c8fd663d446b60001b6126f6565b6109687f3debeb9e39ae5f651a6f69fd3afb46fad76dff20bcfbe1685eda47ded9a4c2cb60001b6126f6565b6109947ff1ef0fdf525f4c102cbf2a7735cbff14c6fd65ebeed73eca6029604d2206a4dd60001b6126f6565b600061099f836120cd565b90506109cd7fc0108b735dab60f35bca131ccedb4c0c359b9fbfbfbecbe5bfa5a783f9fcb52f60001b6126f6565b6109f97f5a79578bc31ed60efbe117ef23ad90c8a3f623b1b5caf331020813e9dd42c79960001b6126f6565b8060800151915050919050565b6000610a347f1bec14c2ac2a7a7676423470a961a1cdc028e679472453973cfa82bda66498ab60001b6126f6565b610a607fd4bcebf2c438e72b87bd7789c777dd054423dfdb5ab51fedd0dd2535505053c160001b6126f6565b610a8c7fb82936737e87272253cab04f0982f94f6f17becb21fa30aa5525196a75ea85d160001b6126f6565b6000600360008481526020019081526020016000206040518060c0016040529081600082015481526020016001820160009054906101000a900473ffffffffffffffffffffffffffffffffffffffff1673ffffffffffffffffffffffffffffffffffffffff1673ffffffffffffffffffffffffffffffffffffffff168152602001600282018054610b1c90612db3565b80601f0160208091040260200160405190810160405280929190818152602001828054610b4890612db3565b8015610b955780601f10610b6a57610100808354040283529160200191610b95565b820191906000526020600020905b815481529060010190602001808311610b7857829003601f168201915b5050505050815260200160038201604051806080016040529081600082018054610bbe90612db3565b80601f0160208091040260200160405190810160405280929190818152602001828054610bea90612db3565b8015610c375780601f10610c0c57610100808354040283529160200191610c37565b820191906000526020600020905b815481529060010190602001808311610c1a57829003601f168201915b50505050508152602001600182018054610c5090612db3565b80601f0160208091040260200160405190810160405280929190818152602001828054610c7c90612db3565b8015610cc95780601f10610c9e57610100808354040283529160200191610cc9565b820191906000526020600020905b815481529060010190602001808311610cac57829003601f168201915b50505050508152602001600282018054610ce290612db3565b80601f0160208091040260200160405190810160405280929190818152602001828054610d0e90612db3565b8015610d5b5780601f10610d3057610100808354040283529160200191610d5b565b820191906000526020600020905b815481529060010190602001808311610d3e57829003601f168201915b50505050508152602001600382018054610d7490612db3565b80601f0160208091040260200160405190810160405280929190818152602001828054610da090612db3565b8015610ded5780601f10610dc257610100808354040283529160200191610ded565b820191906000526020600020905b815481529060010190602001808311610dd057829003601f168201915b5050505050815250508152602001600782016040518060e0016040529081600082015481526020016001820160009054906101000a900473ffffffffffffffffffffffffffffffffffffffff1673ffffffffffffffffffffffffffffffffffffffff1673ffffffffffffffffffffffffffffffffffffffff168152602001600282015481526020016003820154815260200160048201548152602001600582015481526020016006820154815250508152602001600e8201805480602002602001604051908101604052809291908181526020018280548015610eef57602002820191906000526020600020905b815481526020019060010190808311610edb575b5050505050815250509050610f267fa87f3b4da6799ef325e8f440a647e5f5cf6c490dc65ec4b77101af266c5dfb1860001b6126f6565b610f527f134d7db42b24d6a33c1eb5c169f2d8464a2483175ad6e47780be0b9fc83187c760001b6126f6565b6000816080015160a0015114158015610f72575042816080015160a00151115b915050919050565b6000610fa87fe479509ccacf56279c70b40c1dfd32ee99fb8c89319b8f4470893875c55b279e60001b6126f6565b610fd47f591f0d875218b4321b84c8f9b92f5c57deecaade9734879085d15b6612d0782860001b6126f6565b6110007f57ad45d3391bfec95d030914c66f395a9aaf335cbf3cdbd536b07811851347a260001b6126f6565b6000600360008481526020019081526020016000206040518060c0016040529081600082015481526020016001820160009054906101000a900473ffffffffffffffffffffffffffffffffffffffff1673ffffffffffffffffffffffffffffffffffffffff1673ffffffffffffffffffffffffffffffffffffffff16815260200160028201805461109090612db3565b80601f01602080910402602001604051908101604052809291908181526020018280546110bc90612db3565b80156111095780601f106110de57610100808354040283529160200191611109565b820191906000526020600020905b8154815290600101906020018083116110ec57829003601f168201915b505050505081526020016003820160405180608001604052908160008201805461113290612db3565b80601f016020809104026020016040519081016040528092919081815260200182805461115e90612db3565b80156111ab5780601f10611180576101008083540402835291602001916111ab565b820191906000526020600020905b81548152906001019060200180831161118e57829003601f168201915b505050505081526020016001820180546111c490612db3565b80601f01602080910402602001604051908101604052809291908181526020018280546111f090612db3565b801561123d5780601f106112125761010080835404028352916020019161123d565b820191906000526020600020905b81548152906001019060200180831161122057829003601f168201915b5050505050815260200160028201805461125690612db3565b80601f016020809104026020016040519081016040528092919081815260200182805461128290612db3565b80156112cf5780601f106112a4576101008083540402835291602001916112cf565b820191906000526020600020905b8154815290600101906020018083116112b257829003601f168201915b505050505081526020016003820180546112e890612db3565b80601f016020809104026020016040519081016040528092919081815260200182805461131490612db3565b80156113615780601f1061133657610100808354040283529160200191611361565b820191906000526020600020905b81548152906001019060200180831161134457829003601f168201915b5050505050815250508152602001600782016040518060e0016040529081600082015481526020016001820160009054906101000a900473ffffffffffffffffffffffffffffffffffffffff1673ffffffffffffffffffffffffffffffffffffffff1673ffffffffffffffffffffffffffffffffffffffff168152602001600282015481526020016003820154815260200160048201548152602001600582015481526020016006820154815250508152602001600e820180548060200260200160405190810160405280929190818152602001828054801561146357602002820191906000526020600020905b81548152602001906001019080831161144f575b505050505081525050905061149a7f4e2c6db5340f90c806029f6416427bba5b4f1a6b277f6a836e5d1227381f8eed60001b6126f6565b6114c67fd933b0e84f7a1c91f9da40e7a26fbb5b437b4ea9113f706d1a638625c899a22c60001b6126f6565b6000816080015160a00151141580156114e6575042816080015160a00151105b915050919050565b600061151c7f346589bd35e706d433fcec04858813c2556b3cdb18ae0a431f66e64b8fe8348a60001b6126f9565b6115487f12fdd8f9d60df448c5056c6af80c1651be39e3e3c8c122db9f383fe339bf4f0460001b6126f9565b6115747fd4deb0033bec7b034b04813ce98087bbddde8f3faa306d7368e2c0a68ef4413960001b6126f9565b60008084815260200190815260200160002060000160008373ffffffffffffffffffffffffffffffffffffffff1673ffffffffffffffffffffffffffffffffffffffff16815260200190815260200160002060009054906101000a900460ff16905092915050565b600061160a7f178bbc2c09cfe021c94b166a7162a2fd6b41d1981833f1aa26b3c055fcfaaa1660001b6126f6565b6116367fa6cc3236cdb25f60e7d7a536d3b9644fc294182043a213240489d24a1ab40e5360001b6126f6565b6116627f02c42ec4fda573dea48ccd2a95b4b0cf23b55d1da75c96e0e86ed0f874ae96ca60001b6126f6565b6000600360008481526020019081526020016000206040518060c0016040529081600082015481526020016001820160009054906101000a900473ffffffffffffffffffffffffffffffffffffffff1673ffffffffffffffffffffffffffffffffffffffff1673ffffffffffffffffffffffffffffffffffffffff1681526020016002820180546116f290612db3565b80601f016020809104026020016040519081016040528092919081815260200182805461171e90612db3565b801561176b5780601f106117405761010080835404028352916020019161176b565b820191906000526020600020905b81548152906001019060200180831161174e57829003601f168201915b505050505081526020016003820160405180608001604052908160008201805461179490612db3565b80601f01602080910402602001604051908101604052809291908181526020018280546117c090612db3565b801561180d5780601f106117e25761010080835404028352916020019161180d565b820191906000526020600020905b8154815290600101906020018083116117f057829003601f168201915b5050505050815260200160018201805461182690612db3565b80601f016020809104026020016040519081016040528092919081815260200182805461185290612db3565b801561189f5780601f106118745761010080835404028352916020019161189f565b820191906000526020600020905b81548152906001019060200180831161188257829003601f168201915b505050505081526020016002820180546118b890612db3565b80601f01602080910402602001604051908101604052809291908181526020018280546118e490612db3565b80156119315780601f1061190657610100808354040283529160200191611931565b820191906000526020600020905b81548152906001019060200180831161191457829003601f168201915b5050505050815260200160038201805461194a90612db3565b80601f016020809104026020016040519081016040528092919081815260200182805461197690612db3565b80156119c35780601f10611998576101008083540402835291602001916119c3565b820191906000526020600020905b8154815290600101906020018083116119a657829003601f168201915b5050505050815250508152602001600782016040518060e0016040529081600082015481526020016001820160009054906101000a900473ffffffffffffffffffffffffffffffffffffffff1673ffffffffffffffffffffffffffffffffffffffff1673ffffffffffffffffffffffffffffffffffffffff168152602001600282015481526020016003820154815260200160048201548152602001600582015481526020016006820154815250508152602001600e8201805480602002602001604051908101604052809291908181526020018280548015611ac557602002820191906000526020600020905b815481526020019060010190808311611ab1575b5050505050815250509050611afc7fca73739b9c5565714b8543947bca980a5fc8f1a88c1158564f00474c5d75c3f060001b6126f6565b611b287f3f529c08c70f9d0c5688a05bc99b2e7bac56c6904dbda5fa25ac8b90fb97a21760001b6126f6565b6000816080015160a0015114158015611b48575042816080015160a00151105b8015611b69575062093a80816080015160a00151611b669190612e13565b42105b915050919050565b611b9d7f4295ab96981c6ea171a3e242b8dc2ca772f4c7f6531744d1ac99dd3ca28a73dd60001b6126f9565b611bc97f9f0d354fd0233fbc7b5c44baa5ebae07cbfca6e5e555234de0f478b23f634fa360001b6126f9565b611bf57ffd559cdac64151266c4b83d805b89e73ebaad5a2d2989992592afb2bbfc45f0060001b6126f9565b611c217fcca3a5a3e6e20d6e035237f54685cdbe4d4cb01d38d47860d14c239c77c9ee3360001b6126f9565b600073ffffffffffffffffffffffffffffffffffffffff168173ffffffffffffffffffffffffffffffffffffffff1603611c90576040517f08c379a0000000000000000000000000000000000000000000000000000000008152600401611c8790612eb9565b60405180910390fd5b611cbc7fd5292dbefa99e49d1a0adc290c2c7d32783b85dee85edac36b48a85225d70c1a60001b6126f9565b611ce87f1ac50f8bd7f427e5294bc4c32b01664bdf3e4e0a8f0784a33daa2b8867869f8f60001b6126f9565b611d147fba1787bbfd1647f56d56bda6d7f511d7dcd51f11be89fb60af512528b8d5da4360001b6126f9565b600080600084815260200190815260200160002060000160008373ffffffffffffffffffffffffffffffffffffffff1673ffffffffffffffffffffffffffffffffffffffff16815260200190815260200160002060006101000a81548160ff021916908315150217905550611dab7fb0d26afe6038a80c5585b03d20222aee14c3b221be34cfa484e81c2978fffbfa60001b6126f9565b611dd77ff37d257e644580fccaef244743cc679d48b9c47c998d57f77394c2c45ed571f660001b6126f9565b8073ffffffffffffffffffffffffffffffffffffffff16827f155aaafb6329a2098580462df33ec4b7441b19729b9601c5fc17ae1cf99a8a5260405160405180910390a35050565b611e4b7ff9e7b45e6eed8dac5f5fba2593ee0c9d1a5740901d85295b22a41587a0f7626b60001b6126f9565b611e777f7bfb09b59d09bf0c9f52f7c05e21754670029069de4ee39511c66532b9a2d93360001b6126f9565b611ea37f1d6e24af9c6516b98bdc3411f041711934024bbc2eae7cc03400120e7efd78e660001b6126f9565b611ecf7fa8b9591fc1c005534159bf9262654835c3c68450904cc9dc93ad4f8c849f529060001b6126f9565b600073ffffffffffffffffffffffffffffffffffffffff168173ffffffffffffffffffffffffffffffffffffffff1603611f3e576040517f08c379a0000000000000000000000000000000000000000000000000000000008152600401611f3590612f4b565b60405180910390fd5b611f6a7f7a6b2773831ff7f043c20fdee6e878b569eca30275df0af57d46986c5f714f6360001b6126f9565b611f967f73ceec7daa429b458506bec01aa33110c0f484fc5cbd0946c22a2d03c367548b60001b6126f9565b611fc27f45f3dbd0d426c96c2226ebd7945e9ec473aa22e0231b5075c5ee33129e7ed81260001b6126f9565b600160008084815260200190815260200160002060000160008373ffffffffffffffffffffffffffffffffffffffff1673ffffffffffffffffffffffffffffffffffffffff16815260200190815260200160002060006101000a81548160ff0219169083151502179055506120597fefe01b23c3c3273945b7c3ec7930a09f366f4002279f4b9551163f2613137cc960001b6126f9565b6120857f588cfb41f86ca3e847422696f1bcd4607af25dc8926f0fb4b985fc954573b16060001b6126f9565b8073ffffffffffffffffffffffffffffffffffffffff16827f2ae6a113c0ed5b78a53413ffbb7679881f11145ccfba4fb92e863dfcd5a1d2f360405160405180910390a35050565b6120d561274f565b6121017fdf4a4d2fc1a81406fbe794fb084760fb46ff9b6b5ebd1b794b131a051b1b3b9f60001b6126f6565b61212d7f7f0d10c169dd2002fbbc6f3a5dc69cc2cb19043b3502b36d8c1677dbb45ad23160001b6126f6565b6121597f32c083b4021e9d80473ccf869f8e8a20f16468ed654db0969ea49551611eba9460001b6126f6565b600360008381526020019081526020016000206040518060c0016040529081600082015481526020016001820160009054906101000a900473ffffffffffffffffffffffffffffffffffffffff1673ffffffffffffffffffffffffffffffffffffffff1673ffffffffffffffffffffffffffffffffffffffff1681526020016002820180546121e790612db3565b80601f016020809104026020016040519081016040528092919081815260200182805461221390612db3565b80156122605780601f1061223557610100808354040283529160200191612260565b820191906000526020600020905b81548152906001019060200180831161224357829003601f168201915b505050505081526020016003820160405180608001604052908160008201805461228990612db3565b80601f01602080910402602001604051908101604052809291908181526020018280546122b590612db3565b80156123025780601f106122d757610100808354040283529160200191612302565b820191906000526020600020905b8154815290600101906020018083116122e557829003601f168201915b5050505050815260200160018201805461231b90612db3565b80601f016020809104026020016040519081016040528092919081815260200182805461234790612db3565b80156123945780601f1061236957610100808354040283529160200191612394565b820191906000526020600020905b81548152906001019060200180831161237757829003601f168201915b505050505081526020016002820180546123ad90612db3565b80601f01602080910402602001604051908101604052809291908181526020018280546123d990612db3565b80156124265780601f106123fb57610100808354040283529160200191612426565b820191906000526020600020905b81548152906001019060200180831161240957829003601f168201915b5050505050815260200160038201805461243f90612db3565b80601f016020809104026020016040519081016040528092919081815260200182805461246b90612db3565b80156124b85780601f1061248d576101008083540402835291602001916124b8565b820191906000526020600020905b81548152906001019060200180831161249b57829003601f168201915b5050505050815250508152602001600782016040518060e0016040529081600082015481526020016001820160009054906101000a900473ffffffffffffffffffffffffffffffffffffffff1673ffffffffffffffffffffffffffffffffffffffff1673ffffffffffffffffffffffffffffffffffffffff168152602001600282015481526020016003820154815260200160048201548152602001600582015481526020016006820154815250508152602001600e82018054806020026020016040519081016040528092919081815260200182805480156125ba57602002820191906000526020600020905b8154815260200190600101908083116125a6575b5050505050815250509050919050565b60606125f87f5ea6e8149c2f0c3ba864e3f051710d8dcf194f2d1fbd86a78b5f80a2d078691060001b6126f6565b6126247f5d177a8d23a6c647afc382ecb593c0757f357ede3580fe22a9b4b05bf884ea2660001b6126f6565b6126507f1c5525993889c4d17605ae680b4fe38556a34b2e8466f556d7dde79aa8fb7d8660001b6126f6565b60036000838152602001908152602001600020600201805461267190612db3565b80601f016020809104026020016040519081016040528092919081815260200182805461269d90612db3565b80156126ea5780601f106126bf576101008083540402835291602001916126ea565b820191906000526020600020905b8154815290600101906020018083116126cd57829003601f168201915b50505050509050919050565b50565b50565b6040518060e0016040528060008152602001600073ffffffffffffffffffffffffffffffffffffffff16815260200160008152602001600081526020016000815260200160008152602001600081525090565b6040518060c0016040528060008019168152602001600073ffffffffffffffffffffffffffffffffffffffff168152602001606081526020016127906127aa565b815260200161279d6126fc565b8152602001606081525090565b6040518060800160405280606081526020016060815260200160608152602001606081525090565b6000819050919050565b6127e5816127d2565b82525050565b600060208201905061280060008301846127dc565b92915050565b600080fd5b612814816127d2565b811461281f57600080fd5b50565b6000813590506128318161280b565b92915050565b60006020828403121561284d5761284c612806565b5b600061285b84828501612822565b91505092915050565b60008115159050919050565b61287981612864565b82525050565b60006020820190506128946000830184612870565b92915050565b6000819050919050565b6128ad8161289a565b82525050565b600073ffffffffffffffffffffffffffffffffffffffff82169050919050565b60006128de826128b3565b9050919050565b6128ee816128d3565b82525050565b60e08201600082015161290a60008501826128a4565b50602082015161291d60208501826128e5565b50604082015161293060408501826128a4565b50606082015161294360608501826128a4565b50608082015161295660808501826128a4565b5060a082015161296960a08501826128a4565b5060c082015161297c60c08501826128a4565b50505050565b600060e08201905061299760008301846128f4565b92915050565b6129a6816128d3565b81146129b157600080fd5b50565b6000813590506129c38161299d565b92915050565b600080604083850312156129e0576129df612806565b5b60006129ee85828601612822565b92505060206129ff858286016129b4565b9150509250929050565b612a12816127d2565b82525050565b600081519050919050565b600082825260208201905092915050565b60005b83811015612a52578082015181840152602081019050612a37565b60008484015250505050565b6000601f19601f8301169050919050565b6000612a7a82612a18565b612a848185612a23565b9350612a94818560208601612a34565b612a9d81612a5e565b840191505092915050565b60006080830160008301518482036000860152612ac58282612a6f565b91505060208301518482036020860152612adf8282612a6f565b91505060408301518482036040860152612af98282612a6f565b91505060608301518482036060860152612b138282612a6f565b9150508091505092915050565b60e082016000820151612b3660008501826128a4565b506020820151612b4960208501826128e5565b506040820151612b5c60408501826128a4565b506060820151612b6f60608501826128a4565b506080820151612b8260808501826128a4565b5060a0820151612b9560a08501826128a4565b5060c0820151612ba860c08501826128a4565b50505050565b600081519050919050565b600082825260208201905092915050565b6000819050602082019050919050565b6000612be683836128a4565b60208301905092915050565b6000602082019050919050565b6000612c0a82612bae565b612c148185612bb9565b9350612c1f83612bca565b8060005b83811015612c50578151612c378882612bda565b9750612c4283612bf2565b925050600181019050612c23565b5085935050505092915050565b600061018083016000830151612c766000860182612a09565b506020830151612c8960208601826128e5565b5060408301518482036040860152612ca18282612a6f565b91505060608301518482036060860152612cbb8282612aa8565b9150506080830151612cd06080860182612b20565b5060a0830151848203610160860152612ce98282612bff565b9150508091505092915050565b60006020820190508181036000830152612d108184612c5d565b905092915050565b600082825260208201905092915050565b6000612d3482612a18565b612d3e8185612d18565b9350612d4e818560208601612a34565b612d5781612a5e565b840191505092915050565b60006020820190508181036000830152612d7c8184612d29565b905092915050565b7f4e487b7100000000000000000000000000000000000000000000000000000000600052602260045260246000fd5b60006002820490506001821680612dcb57607f821691505b602082108103612dde57612ddd612d84565b5b50919050565b7f4e487b7100000000000000000000000000000000000000000000000000000000600052601160045260246000fd5b6000612e1e8261289a565b9150612e298361289a565b9250828201905080821115612e4157612e40612de4565b5b92915050565b7f416363657373436f6e74726f6c3a2063616e6e6f74207265766f6b6520726f6c60008201527f652066726f6d207a65726f206164647265737300000000000000000000000000602082015250565b6000612ea3603383612d18565b9150612eae82612e47565b604082019050919050565b60006020820190508181036000830152612ed281612e96565b9050919050565b7f416363657373436f6e74726f6c3a2063616e6e6f74206772616e7420726f6c6560008201527f20746f207a65726f206164647265737300000000000000000000000000000000602082015250565b6000612f35603083612d18565b9150612f4082612ed9565b604082019050919050565b60006020820190508181036000830152612f6481612f28565b905091905056fea26469706673582212207d15ff69c5b35ad1565531ba3e0aaa95f89e25987a1b8f3b320666e49bc895cb64736f6c63430008120033",
  "linkReferences": {},
  "deployedLinkReferences": {}
}