{
  "_format": "hh-sol-artifact-1",
  "contractName": "HypePoolBase",
  "sourceName": "contracts/HypePoolBase.sol",
  "abi": [
    {
      "anonymous": false,
      "inputs": [
        {
          "indexed": false,
          "internalType": "bytes32",
          "name": "poolId",
          "type": "bytes32"
        },
        {
          "indexed": false,
          "internalType": "address",
          "name": "activator",
          "type": "address"
        },
        {
          "indexed": false,
          "internalType": "uint256",
          "name": "startDate",
          "type": "uint256"
        },
        {
          "indexed": false,
          "internalType": "uint256",
          "name": "endDate",
          "type": "uint256"
        }
      ],
      "name": "PoolActivated",
      "type": "event"
    },
    {
      "anonymous": false,
      "inputs": [
        {
          "indexed": false,
          "internalType": "bytes32",
          "name": "poolId",
          "type": "bytes32"
        },
        {
          "indexed": false,
          "internalType": "address",
          "name": "creator",
          "type": "address"
        },
        {
          "indexed": false,
          "internalType": "string",
          "name": "uri",
          "type": "string"
        }
      ],
      "name": "PoolCreated",
      "type": "event"
    },
    {
      "anonymous": false,
      "inputs": [
        {
          "indexed": false,
          "internalType": "bytes32",
          "name": "poolId",
          "type": "bytes32"
        },
        {
          "indexed": false,
          "internalType": "address",
          "name": "deactivator",
          "type": "address"
        }
      ],
      "name": "PoolDeactivated",
      "type": "event"
    },
    {
      "anonymous": false,
      "inputs": [
        {
          "indexed": false,
          "internalType": "bytes32",
          "name": "poolId",
          "type": "bytes32"
        },
        {
          "indexed": false,
          "internalType": "string",
          "name": "title",
          "type": "string"
        },
        {
          "indexed": false,
          "internalType": "string",
          "name": "projectName",
          "type": "string"
        },
        {
          "indexed": false,
          "internalType": "string",
          "name": "tokenName",
          "type": "string"
        },
        {
          "indexed": false,
          "internalType": "string",
          "name": "word",
          "type": "string"
        }
      ],
      "name": "PoolDetailsCreated",
      "type": "event"
    },
    {
      "anonymous": false,
      "inputs": [
        {
          "indexed": false,
          "internalType": "bytes32",
          "name": "poolId",
          "type": "bytes32"
        },
        {
          "indexed": false,
          "internalType": "uint256",
          "name": "network",
          "type": "uint256"
        },
        {
          "indexed": false,
          "internalType": "address",
          "name": "tokenAddress",
          "type": "address"
        },
        {
          "indexed": false,
          "internalType": "uint256",
          "name": "impressionReward",
          "type": "uint256"
        },
        {
          "indexed": false,
          "internalType": "uint256",
          "name": "cap",
          "type": "uint256"
        },
        {
          "indexed": false,
          "internalType": "uint256",
          "name": "startDate",
          "type": "uint256"
        },
        {
          "indexed": false,
          "internalType": "uint256",
          "name": "endDate",
          "type": "uint256"
        },
        {
          "indexed": false,
          "internalType": "uint256",
          "name": "duration",
          "type": "uint256"
        },
        {
          "indexed": false,
          "internalType": "uint256",
          "name": "firstLeaderRewards",
          "type": "uint256"
        },
        {
          "indexed": false,
          "internalType": "uint256",
          "name": "secondLeaderRewards",
          "type": "uint256"
        },
        {
          "indexed": false,
          "internalType": "uint256",
          "name": "thirdLeaderRewards",
          "type": "uint256"
        }
      ],
      "name": "PoolRewardsCreated",
      "type": "event"
    },
    {
      "anonymous": false,
      "inputs": [
        {
          "indexed": false,
          "internalType": "bytes32",
          "name": "poolId",
          "type": "bytes32"
        },
        {
          "indexed": false,
          "internalType": "string",
          "name": "uri",
          "type": "string"
        }
      ],
      "name": "PoolUriSet",
      "type": "event"
    },
    {
      "anonymous": false,
      "inputs": [
        {
          "indexed": true,
          "internalType": "bytes32",
          "name": "role",
          "type": "bytes32"
        },
        {
          "indexed": true,
          "internalType": "address",
          "name": "account",
          "type": "address"
        }
      ],
      "name": "RoleGranted",
      "type": "event"
    },
    {
      "anonymous": false,
      "inputs": [
        {
          "indexed": true,
          "internalType": "bytes32",
          "name": "role",
          "type": "bytes32"
        },
        {
          "indexed": true,
          "internalType": "address",
          "name": "account",
          "type": "address"
        }
      ],
      "name": "RoleRevoked",
      "type": "event"
    },
    {
      "inputs": [],
      "name": "ACTIVATOR_ROLE",
      "outputs": [
        {
          "internalType": "bytes32",
          "name": "",
          "type": "bytes32"
        }
      ],
      "stateMutability": "view",
      "type": "function"
    },
    {
      "inputs": [
        {
          "internalType": "bytes32",
          "name": "role",
          "type": "bytes32"
        },
        {
          "internalType": "address",
          "name": "account",
          "type": "address"
        }
      ],
      "name": "addRole",
      "outputs": [],
      "stateMutability": "nonpayable",
      "type": "function"
    },
    {
      "inputs": [],
      "name": "getCurrentIndex",
      "outputs": [
        {
          "internalType": "bytes32",
          "name": "",
          "type": "bytes32"
        }
      ],
      "stateMutability": "view",
      "type": "function"
    },
    {
      "inputs": [
        {
          "internalType": "bytes32",
          "name": "uuid",
          "type": "bytes32"
        }
      ],
      "name": "getPool",
      "outputs": [
        {
          "components": [
            {
              "internalType": "bytes32",
              "name": "id",
              "type": "bytes32"
            },
            {
              "internalType": "address",
              "name": "creator",
              "type": "address"
            },
            {
              "components": [
                {
                  "internalType": "string",
                  "name": "title",
                  "type": "string"
                },
                {
                  "internalType": "string",
                  "name": "projectName",
                  "type": "string"
                },
                {
                  "internalType": "string",
                  "name": "tokenName",
                  "type": "string"
                },
                {
                  "internalType": "string",
                  "name": "word",
                  "type": "string"
                }
              ],
              "internalType": "struct IHypePool.Details",
              "name": "details",
              "type": "tuple"
            },
            {
              "components": [
                {
                  "internalType": "uint256",
                  "name": "network",
                  "type": "uint256"
                },
                {
                  "internalType": "address",
                  "name": "tokenAddress",
                  "type": "address"
                },
                {
                  "internalType": "uint256",
                  "name": "impressionReward",
                  "type": "uint256"
                },
                {
                  "internalType": "uint256",
                  "name": "cap",
                  "type": "uint256"
                },
                {
                  "internalType": "uint256",
                  "name": "startDate",
                  "type": "uint256"
                },
                {
                  "internalType": "uint256",
                  "name": "endDate",
                  "type": "uint256"
                },
                {
                  "internalType": "uint256",
                  "name": "duration",
                  "type": "uint256"
                },
                {
                  "internalType": "uint256",
                  "name": "firstLeaderRewards",
                  "type": "uint256"
                },
                {
                  "internalType": "uint256",
                  "name": "secondLeaderRewards",
                  "type": "uint256"
                },
                {
                  "internalType": "uint256",
                  "name": "thirdLeaderRewards",
                  "type": "uint256"
                }
              ],
              "internalType": "struct IHypePool.Rewards",
              "name": "rewards",
              "type": "tuple"
            }
          ],
          "internalType": "struct IHypePool.HypePool",
          "name": "",
          "type": "tuple"
        }
      ],
      "stateMutability": "view",
      "type": "function"
    },
    {
      "inputs": [
        {
          "internalType": "bytes32",
          "name": "uuid",
          "type": "bytes32"
        }
      ],
      "name": "getPoolRewards",
      "outputs": [
        {
          "components": [
            {
              "internalType": "uint256",
              "name": "network",
              "type": "uint256"
            },
            {
              "internalType": "address",
              "name": "tokenAddress",
              "type": "address"
            },
            {
              "internalType": "uint256",
              "name": "impressionReward",
              "type": "uint256"
            },
            {
              "internalType": "uint256",
              "name": "cap",
              "type": "uint256"
            },
            {
              "internalType": "uint256",
              "name": "startDate",
              "type": "uint256"
            },
            {
              "internalType": "uint256",
              "name": "endDate",
              "type": "uint256"
            },
            {
              "internalType": "uint256",
              "name": "duration",
              "type": "uint256"
            },
            {
              "internalType": "uint256",
              "name": "firstLeaderRewards",
              "type": "uint256"
            },
            {
              "internalType": "uint256",
              "name": "secondLeaderRewards",
              "type": "uint256"
            },
            {
              "internalType": "uint256",
              "name": "thirdLeaderRewards",
              "type": "uint256"
            }
          ],
          "internalType": "struct IHypePool.Rewards",
          "name": "",
          "type": "tuple"
        }
      ],
      "stateMutability": "view",
      "type": "function"
    },
    {
      "inputs": [
        {
          "internalType": "bytes32",
          "name": "role",
          "type": "bytes32"
        },
        {
          "internalType": "address",
          "name": "account",
          "type": "address"
        }
      ],
      "name": "hasRole",
      "outputs": [
        {
          "internalType": "bool",
          "name": "",
          "type": "bool"
        }
      ],
      "stateMutability": "view",
      "type": "function"
    },
    {
      "inputs": [
        {
          "internalType": "bytes32",
          "name": "uuid",
          "type": "bytes32"
        }
      ],
      "name": "isActive",
      "outputs": [
        {
          "internalType": "bool",
          "name": "",
          "type": "bool"
        }
      ],
      "stateMutability": "view",
      "type": "function"
    },
    {
      "inputs": [
        {
          "internalType": "bytes32",
          "name": "uuid",
          "type": "bytes32"
        }
      ],
      "name": "isExpired",
      "outputs": [
        {
          "internalType": "bool",
          "name": "",
          "type": "bool"
        }
      ],
      "stateMutability": "view",
      "type": "function"
    },
    {
      "inputs": [
        {
          "internalType": "bytes32",
          "name": "uuid",
          "type": "bytes32"
        }
      ],
      "name": "isGracePeriod",
      "outputs": [
        {
          "internalType": "bool",
          "name": "",
          "type": "bool"
        }
      ],
      "stateMutability": "view",
      "type": "function"
    },
    {
      "inputs": [
        {
          "internalType": "bytes32",
          "name": "uuid",
          "type": "bytes32"
        }
      ],
      "name": "poolURI",
      "outputs": [
        {
          "internalType": "string",
          "name": "",
          "type": "string"
        }
      ],
      "stateMutability": "view",
      "type": "function"
    },
    {
      "inputs": [
        {
          "internalType": "bytes32",
          "name": "role",
          "type": "bytes32"
        },
        {
          "internalType": "address",
          "name": "account",
          "type": "address"
        }
      ],
      "name": "revokeRole",
      "outputs": [],
      "stateMutability": "nonpayable",
      "type": "function"
    }
  ],
  "bytecode": "0x608060405234801561001057600080fd5b50611567806100206000396000f3fe608060405234801561001057600080fd5b50600436106100c95760003560e01c806391d1485411610081578063e959b38a1161005b578063e959b38a146101a1578063f6c00927146101b4578063f8607fb1146101d457600080fd5b806391d1485414610166578063bd033bd014610179578063d547741f1461018c57600080fd5b806324bc5972116100b257806324bc5972146101105780635c36901c146101305780636db2feb21461015357600080fd5b806308740a3b146100ce5780630d9005ae14610108575b600080fd5b6100f57fec5aad7bdface20c35bc02d6d2d5760df981277427368525d634f4e2603ea19281565b6040519081526020015b60405180910390f35b6006546100f5565b61012361011e3660046112e2565b6101f4565b6040516100ff9190611372565b61014361013e3660046112e2565b610269565b60405190151581526020016100ff565b6101436101613660046112e2565b6105c2565b610143610174366004611381565b610918565b6101436101873660046112e2565b610943565b61019f61019a366004611381565b610cbb565b005b61019f6101af366004611381565b610d92565b6101c76101c23660046112e2565b610e67565b6040516100ff9190611403565b6101e76101e23660046112e2565b611187565b6040516100ff91906114c3565b6102536040518061014001604052806000815260200160006001600160a01b0316815260200160008152602001600081526020016000815260200160008152602001600081526020016000815260200160008152602001600081525090565b600061025e83610e67565b606001519392505050565b60008181526003602090815260408083208151608080820184528254825260018301546001600160a01b03169482019490945282519384018352600282018054869592948501929190829082906102bf906114d6565b80601f01602080910402602001604051908101604052809291908181526020018280546102eb906114d6565b80156103385780601f1061030d57610100808354040283529160200191610338565b820191906000526020600020905b81548152906001019060200180831161031b57829003601f168201915b50505050508152602001600182018054610351906114d6565b80601f016020809104026020016040519081016040528092919081815260200182805461037d906114d6565b80156103ca5780601f1061039f576101008083540402835291602001916103ca565b820191906000526020600020905b8154815290600101906020018083116103ad57829003601f168201915b505050505081526020016002820180546103e3906114d6565b80601f016020809104026020016040519081016040528092919081815260200182805461040f906114d6565b801561045c5780601f106104315761010080835404028352916020019161045c565b820191906000526020600020905b81548152906001019060200180831161043f57829003601f168201915b50505050508152602001600382018054610475906114d6565b80601f01602080910402602001604051908101604052809291908181526020018280546104a1906114d6565b80156104ee5780601f106104c3576101008083540402835291602001916104ee565b820191906000526020600020905b8154815290600101906020018083116104d157829003601f168201915b50505050508152505081526020016006820160405180610140016040529081600082015481526020016001820160009054906101000a90046001600160a01b03166001600160a01b03166001600160a01b0316815260200160028201548152602001600382015481526020016004820154815260200160058201548152602001600682015481526020016007820154815260200160088201548152602001600982015481525050815250509050806060015160a001516000141580156105bb575042816060015160a00151115b9392505050565b60008181526003602090815260408083208151608080820184528254825260018301546001600160a01b0316948201949094528251938401835260028201805486959294850192919082908290610618906114d6565b80601f0160208091040260200160405190810160405280929190818152602001828054610644906114d6565b80156106915780601f1061066657610100808354040283529160200191610691565b820191906000526020600020905b81548152906001019060200180831161067457829003601f168201915b505050505081526020016001820180546106aa906114d6565b80601f01602080910402602001604051908101604052809291908181526020018280546106d6906114d6565b80156107235780601f106106f857610100808354040283529160200191610723565b820191906000526020600020905b81548152906001019060200180831161070657829003601f168201915b5050505050815260200160028201805461073c906114d6565b80601f0160208091040260200160405190810160405280929190818152602001828054610768906114d6565b80156107b55780601f1061078a576101008083540402835291602001916107b5565b820191906000526020600020905b81548152906001019060200180831161079857829003601f168201915b505050505081526020016003820180546107ce906114d6565b80601f01602080910402602001604051908101604052809291908181526020018280546107fa906114d6565b80156108475780601f1061081c57610100808354040283529160200191610847565b820191906000526020600020905b81548152906001019060200180831161082a57829003601f168201915b50505050508152505081526020016006820160405180610140016040529081600082015481526020016001820160009054906101000a90046001600160a01b03166001600160a01b03166001600160a01b0316815260200160028201548152602001600382015481526020016004820154815260200160058201548152602001600682015481526020016007820154815260200160088201548152602001600982015481525050815250509050806060015160a001516000141580156105bb57506060015160a00151421192915050565b6000828152602081815260408083206001600160a01b038516845290915290205460ff165b92915050565b60008181526003602090815260408083208151608080820184528254825260018301546001600160a01b0316948201949094528251938401835260028201805486959294850192919082908290610999906114d6565b80601f01602080910402602001604051908101604052809291908181526020018280546109c5906114d6565b8015610a125780601f106109e757610100808354040283529160200191610a12565b820191906000526020600020905b8154815290600101906020018083116109f557829003601f168201915b50505050508152602001600182018054610a2b906114d6565b80601f0160208091040260200160405190810160405280929190818152602001828054610a57906114d6565b8015610aa45780601f10610a7957610100808354040283529160200191610aa4565b820191906000526020600020905b815481529060010190602001808311610a8757829003601f168201915b50505050508152602001600282018054610abd906114d6565b80601f0160208091040260200160405190810160405280929190818152602001828054610ae9906114d6565b8015610b365780601f10610b0b57610100808354040283529160200191610b36565b820191906000526020600020905b815481529060010190602001808311610b1957829003601f168201915b50505050508152602001600382018054610b4f906114d6565b80601f0160208091040260200160405190810160405280929190818152602001828054610b7b906114d6565b8015610bc85780601f10610b9d57610100808354040283529160200191610bc8565b820191906000526020600020905b815481529060010190602001808311610bab57829003601f168201915b50505050508152505081526020016006820160405180610140016040529081600082015481526020016001820160009054906101000a90046001600160a01b03166001600160a01b03166001600160a01b0316815260200160028201548152602001600382015481526020016004820154815260200160058201548152602001600682015481526020016007820154815260200160088201548152602001600982015481525050815250509050806060015160a00151600014158015610c95575042816060015160a00151105b80156105bb5750606081015160a00151610cb29062093a80611510565b42109392505050565b6001600160a01b038116610d3c5760405162461bcd60e51b815260206004820152603360248201527f416363657373436f6e74726f6c3a2063616e6e6f74207265766f6b6520726f6c60448201527f652066726f6d207a65726f20616464726573730000000000000000000000000060648201526084015b60405180910390fd5b6000828152602081815260408083206001600160a01b0385168085529252808320805460ff1916905551909184917f155aaafb6329a2098580462df33ec4b7441b19729b9601c5fc17ae1cf99a8a529190a35050565b6001600160a01b038116610e0e5760405162461bcd60e51b815260206004820152603060248201527f416363657373436f6e74726f6c3a2063616e6e6f74206772616e7420726f6c6560448201527f20746f207a65726f2061646472657373000000000000000000000000000000006064820152608401610d33565b6000828152602081815260408083206001600160a01b0385168085529252808320805460ff1916600117905551909184917f2ae6a113c0ed5b78a53413ffbb7679881f11145ccfba4fb92e863dfcd5a1d2f39190a35050565b610e6f611229565b6000828152600360209081526040918290208251608080820185528254825260018301546001600160a01b0316938201939093528351928301845260028201805491949293928501929182908290610ec6906114d6565b80601f0160208091040260200160405190810160405280929190818152602001828054610ef2906114d6565b8015610f3f5780601f10610f1457610100808354040283529160200191610f3f565b820191906000526020600020905b815481529060010190602001808311610f2257829003601f168201915b50505050508152602001600182018054610f58906114d6565b80601f0160208091040260200160405190810160405280929190818152602001828054610f84906114d6565b8015610fd15780601f10610fa657610100808354040283529160200191610fd1565b820191906000526020600020905b815481529060010190602001808311610fb457829003601f168201915b50505050508152602001600282018054610fea906114d6565b80601f0160208091040260200160405190810160405280929190818152602001828054611016906114d6565b80156110635780601f1061103857610100808354040283529160200191611063565b820191906000526020600020905b81548152906001019060200180831161104657829003601f168201915b5050505050815260200160038201805461107c906114d6565b80601f01602080910402602001604051908101604052809291908181526020018280546110a8906114d6565b80156110f55780601f106110ca576101008083540402835291602001916110f5565b820191906000526020600020905b8154815290600101906020018083116110d857829003601f168201915b50505091909252505050815260408051610140810182526006840154815260078401546001600160a01b031660208281019190915260088501549282019290925260098401546060820152600a8401546080820152600b84015460a0820152600c84015460c0820152600d84015460e0820152600e840154610100820152600f90930154610120840152015292915050565b60008181526004602052604090208054606091906111a4906114d6565b80601f01602080910402602001604051908101604052809291908181526020018280546111d0906114d6565b801561121d5780601f106111f25761010080835404028352916020019161121d565b820191906000526020600020905b81548152906001019060200180831161120057829003601f168201915b50505050509050919050565b60405180608001604052806000801916815260200160006001600160a01b031681526020016112796040518060800160405280606081526020016060815260200160608152602001606081525090565b81526020016112dd6040518061014001604052806000815260200160006001600160a01b0316815260200160008152602001600081526020016000815260200160008152602001600081526020016000815260200160008152602001600081525090565b905290565b6000602082840312156112f457600080fd5b5035919050565b80518252602081015161131960208401826001600160a01b03169052565b5060408101516040830152606081015160608301526080810151608083015260a081015160a083015260c081015160c083015260e081015160e08301526101008082015181840152506101208082015181840152505050565b610140810161093d82846112fb565b6000806040838503121561139457600080fd5b8235915060208301356001600160a01b03811681146113b257600080fd5b809150509250929050565b6000815180845260005b818110156113e3576020818501810151868301820152016113c7565b506000602082860101526020601f19601f83011685010191505092915050565b60208152815160208201526001600160a01b036020830151166040820152600060408301516101a06060840152805160806101c08501526114486102408501826113bd565b905060208201516101bf1980868403016101e087015261146883836113bd565b925060408401519150808684030161020087015261148683836113bd565b925060608401519350808684030161022087015250506114a681836113bd565b91505060608401516114bb60808501826112fb565b509392505050565b6020815260006105bb60208301846113bd565b600181811c908216806114ea57607f821691505b60208210810361150a57634e487b7160e01b600052602260045260246000fd5b50919050565b8082018082111561093d57634e487b7160e01b600052601160045260246000fdfea2646970667358221220ea5bbca37f8faeb4c36faaa5da711638c262d62c8a28fa702b2400203c4b782964736f6c63430008120033",
  "linkReferences": {},
  "deployedLinkReferences": {}
}