{
  "_format": "hh-sol-artifact-1",
  "contractName": "HypePoolBase",
  "sourceName": "contracts/HypePoolBase.sol",
  "abi": [
    {
      "anonymous": false,
      "inputs": [
        {
          "indexed": false,
          "internalType": "bytes32",
          "name": "poolId",
          "type": "bytes32"
        },
        {
          "indexed": false,
          "internalType": "address",
          "name": "activator",
          "type": "address"
        },
        {
          "indexed": false,
          "internalType": "uint256",
          "name": "startDate",
          "type": "uint256"
        },
        {
          "indexed": false,
          "internalType": "uint256",
          "name": "endDate",
          "type": "uint256"
        }
      ],
      "name": "PoolActivated",
      "type": "event"
    },
    {
      "anonymous": false,
      "inputs": [
        {
          "indexed": false,
          "internalType": "bytes32",
          "name": "poolId",
          "type": "bytes32"
        },
        {
          "indexed": false,
          "internalType": "address",
          "name": "creator",
          "type": "address"
        },
        {
          "indexed": false,
          "internalType": "string",
          "name": "uri",
          "type": "string"
        }
      ],
      "name": "PoolCreated",
      "type": "event"
    },
    {
      "anonymous": false,
      "inputs": [
        {
          "indexed": false,
          "internalType": "bytes32",
          "name": "poolId",
          "type": "bytes32"
        },
        {
          "indexed": false,
          "internalType": "address",
          "name": "deactivator",
          "type": "address"
        }
      ],
      "name": "PoolDeactivated",
      "type": "event"
    },
    {
      "anonymous": false,
      "inputs": [
        {
          "indexed": false,
          "internalType": "bytes32",
          "name": "poolId",
          "type": "bytes32"
        },
        {
          "indexed": false,
          "internalType": "string",
          "name": "title",
          "type": "string"
        },
        {
          "indexed": false,
          "internalType": "string",
          "name": "projectName",
          "type": "string"
        },
        {
          "indexed": false,
          "internalType": "string",
          "name": "tokenName",
          "type": "string"
        },
        {
          "indexed": false,
          "internalType": "string",
          "name": "word",
          "type": "string"
        }
      ],
      "name": "PoolDetailsCreated",
      "type": "event"
    },
    {
      "anonymous": false,
      "inputs": [
        {
          "indexed": false,
          "internalType": "bytes32",
          "name": "poolId",
          "type": "bytes32"
        },
        {
          "indexed": false,
          "internalType": "uint256",
          "name": "network",
          "type": "uint256"
        },
        {
          "indexed": false,
          "internalType": "address",
          "name": "tokenAddress",
          "type": "address"
        },
        {
          "indexed": false,
          "internalType": "uint256",
          "name": "impressionReward",
          "type": "uint256"
        },
        {
          "indexed": false,
          "internalType": "uint256",
          "name": "cap",
          "type": "uint256"
        },
        {
          "indexed": false,
          "internalType": "uint256",
          "name": "startDate",
          "type": "uint256"
        },
        {
          "indexed": false,
          "internalType": "uint256",
          "name": "endDate",
          "type": "uint256"
        },
        {
          "indexed": false,
          "internalType": "uint256",
          "name": "duration",
          "type": "uint256"
        }
      ],
      "name": "PoolRewardsCreated",
      "type": "event"
    },
    {
      "anonymous": false,
      "inputs": [
        {
          "indexed": false,
          "internalType": "bytes32",
          "name": "poolId",
          "type": "bytes32"
        },
        {
          "indexed": false,
          "internalType": "string",
          "name": "uri",
          "type": "string"
        }
      ],
      "name": "PoolUriSet",
      "type": "event"
    },
    {
      "anonymous": false,
      "inputs": [
        {
          "indexed": true,
          "internalType": "bytes32",
          "name": "role",
          "type": "bytes32"
        },
        {
          "indexed": true,
          "internalType": "address",
          "name": "account",
          "type": "address"
        }
      ],
      "name": "RoleGranted",
      "type": "event"
    },
    {
      "anonymous": false,
      "inputs": [
        {
          "indexed": true,
          "internalType": "bytes32",
          "name": "role",
          "type": "bytes32"
        },
        {
          "indexed": true,
          "internalType": "address",
          "name": "account",
          "type": "address"
        }
      ],
      "name": "RoleRevoked",
      "type": "event"
    },
    {
      "inputs": [],
      "name": "ACTIVATOR_ROLE",
      "outputs": [
        {
          "internalType": "bytes32",
          "name": "",
          "type": "bytes32"
        }
      ],
      "stateMutability": "view",
      "type": "function"
    },
    {
      "inputs": [
        {
          "internalType": "bytes32",
          "name": "role",
          "type": "bytes32"
        },
        {
          "internalType": "address",
          "name": "account",
          "type": "address"
        }
      ],
      "name": "addRole",
      "outputs": [],
      "stateMutability": "nonpayable",
      "type": "function"
    },
    {
      "inputs": [],
      "name": "getCurrentIndex",
      "outputs": [
        {
          "internalType": "bytes32",
          "name": "",
          "type": "bytes32"
        }
      ],
      "stateMutability": "view",
      "type": "function"
    },
    {
      "inputs": [
        {
          "internalType": "bytes32",
          "name": "uuid",
          "type": "bytes32"
        }
      ],
      "name": "getPool",
      "outputs": [
        {
          "components": [
            {
              "internalType": "bytes32",
              "name": "id",
              "type": "bytes32"
            },
            {
              "internalType": "address",
              "name": "creator",
              "type": "address"
            },
            {
              "internalType": "bool",
              "name": "active",
              "type": "bool"
            },
            {
              "components": [
                {
                  "internalType": "string",
                  "name": "title",
                  "type": "string"
                },
                {
                  "internalType": "string",
                  "name": "projectName",
                  "type": "string"
                },
                {
                  "internalType": "string",
                  "name": "tokenName",
                  "type": "string"
                },
                {
                  "internalType": "string",
                  "name": "word",
                  "type": "string"
                }
              ],
              "internalType": "struct IHypePool.Details",
              "name": "details",
              "type": "tuple"
            },
            {
              "components": [
                {
                  "internalType": "uint256",
                  "name": "network",
                  "type": "uint256"
                },
                {
                  "internalType": "address",
                  "name": "tokenAddress",
                  "type": "address"
                },
                {
                  "internalType": "uint256",
                  "name": "impressionReward",
                  "type": "uint256"
                },
                {
                  "internalType": "uint256",
                  "name": "cap",
                  "type": "uint256"
                },
                {
                  "internalType": "uint256",
                  "name": "startDate",
                  "type": "uint256"
                },
                {
                  "internalType": "uint256",
                  "name": "endDate",
                  "type": "uint256"
                },
                {
                  "internalType": "uint256",
                  "name": "duration",
                  "type": "uint256"
                }
              ],
              "internalType": "struct IHypePool.Rewards",
              "name": "rewards",
              "type": "tuple"
            }
          ],
          "internalType": "struct IHypePool.HypePool",
          "name": "",
          "type": "tuple"
        }
      ],
      "stateMutability": "view",
      "type": "function"
    },
    {
      "inputs": [
        {
          "internalType": "bytes32",
          "name": "role",
          "type": "bytes32"
        },
        {
          "internalType": "address",
          "name": "account",
          "type": "address"
        }
      ],
      "name": "hasRole",
      "outputs": [
        {
          "internalType": "bool",
          "name": "",
          "type": "bool"
        }
      ],
      "stateMutability": "view",
      "type": "function"
    },
    {
      "inputs": [
        {
          "internalType": "bytes32",
          "name": "uuid",
          "type": "bytes32"
        }
      ],
      "name": "poolURI",
      "outputs": [
        {
          "internalType": "string",
          "name": "",
          "type": "string"
        }
      ],
      "stateMutability": "view",
      "type": "function"
    },
    {
      "inputs": [
        {
          "internalType": "bytes32",
          "name": "role",
          "type": "bytes32"
        },
        {
          "internalType": "address",
          "name": "account",
          "type": "address"
        }
      ],
      "name": "revokeRole",
      "outputs": [],
      "stateMutability": "nonpayable",
      "type": "function"
    }
  ],
  "bytecode": "0x608060405234801561001057600080fd5b506109e4806100206000396000f3fe608060405234801561001057600080fd5b506004361061007d5760003560e01c8063d547741f1161005b578063d547741f1461010b578063e959b38a14610120578063f6c0092714610133578063f8607fb11461015357600080fd5b806308740a3b146100825780630d9005ae146100bc57806391d14854146100c4575b600080fd5b6100a97fec5aad7bdface20c35bc02d6d2d5760df981277427368525d634f4e2603ea19281565b6040519081526020015b60405180910390f35b6006546100a9565b6100fb6100d2366004610792565b6000918252602082815260408084206001600160a01b0393909316845291905290205460ff1690565b60405190151581526020016100b3565b61011e610119366004610792565b610173565b005b61011e61012e366004610792565b61024a565b6101466101413660046107ce565b61031f565b6040516100b3919061082d565b6101666101613660046107ce565b610644565b6040516100b39190610941565b6001600160a01b0381166101f45760405162461bcd60e51b815260206004820152603360248201527f416363657373436f6e74726f6c3a2063616e6e6f74207265766f6b6520726f6c60448201527f652066726f6d207a65726f20616464726573730000000000000000000000000060648201526084015b60405180910390fd5b6000828152602081815260408083206001600160a01b0385168085529252808320805460ff1916905551909184917f155aaafb6329a2098580462df33ec4b7441b19729b9601c5fc17ae1cf99a8a529190a35050565b6001600160a01b0381166102c65760405162461bcd60e51b815260206004820152603060248201527f416363657373436f6e74726f6c3a2063616e6e6f74206772616e7420726f6c6560448201527f20746f207a65726f20616464726573730000000000000000000000000000000060648201526084016101eb565b6000828152602081815260408083206001600160a01b0385168085529252808320805460ff1916600117905551909184917f2ae6a113c0ed5b78a53413ffbb7679881f11145ccfba4fb92e863dfcd5a1d2f39190a35050565b6103276106e6565b600082815260036020908152604091829020825160a0810184528154815260018201546001600160a01b038116938201939093527401000000000000000000000000000000000000000090920460ff161515828401528251608081019093526002810180549293919260608501929190829082906103a49061095b565b80601f01602080910402602001604051908101604052809291908181526020018280546103d09061095b565b801561041d5780601f106103f25761010080835404028352916020019161041d565b820191906000526020600020905b81548152906001019060200180831161040057829003601f168201915b505050505081526020016001820180546104369061095b565b80601f01602080910402602001604051908101604052809291908181526020018280546104629061095b565b80156104af5780601f10610484576101008083540402835291602001916104af565b820191906000526020600020905b81548152906001019060200180831161049257829003601f168201915b505050505081526020016002820180546104c89061095b565b80601f01602080910402602001604051908101604052809291908181526020018280546104f49061095b565b80156105415780601f1061051657610100808354040283529160200191610541565b820191906000526020600020905b81548152906001019060200180831161052457829003601f168201915b5050505050815260200160038201805461055a9061095b565b80601f01602080910402602001604051908101604052809291908181526020018280546105869061095b565b80156105d35780601f106105a8576101008083540402835291602001916105d3565b820191906000526020600020905b8154815290600101906020018083116105b657829003601f168201915b5050509190925250505081526040805160e0810182526006840154815260078401546001600160a01b031660208281019190915260088501549282019290925260098401546060820152600a8401546080820152600b84015460a0820152600c9093015460c0840152015292915050565b60008181526004602052604090208054606091906106619061095b565b80601f016020809104026020016040519081016040528092919081815260200182805461068d9061095b565b80156106da5780601f106106af576101008083540402835291602001916106da565b820191906000526020600020905b8154815290600101906020018083116106bd57829003601f168201915b50505050509050919050565b6040518060a001604052806000801916815260200160006001600160a01b0316815260200160001515815260200161073f6040518060800160405280606081526020016060815260200160608152602001606081525090565b815260200161078d6040518060e001604052806000815260200160006001600160a01b0316815260200160008152602001600081526020016000815260200160008152602001600081525090565b905290565b600080604083850312156107a557600080fd5b8235915060208301356001600160a01b03811681146107c357600080fd5b809150509250929050565b6000602082840312156107e057600080fd5b5035919050565b6000815180845260005b8181101561080d576020818501810151868301820152016107f1565b506000602082860101526020601f19601f83011685010191505092915050565b60208152815160208201526001600160a01b0360208301511660408201526040820151151560608201526000606083015161016060808401528051608061018085015261087e6102008501826107e7565b9050602082015161017f1980868403016101a087015261089e83836107e7565b92506040840151915080868403016101c08701526108bc83836107e7565b92506060840151935080868403016101e087015250506108dc81836107e7565b915050608084015161093960a0850182805182526001600160a01b03602082015116602083015260408101516040830152606081015160608301526080810151608083015260a081015160a083015260c081015160c08301525050565b509392505050565b60208152600061095460208301846107e7565b9392505050565b600181811c9082168061096f57607f821691505b6020821081036109a8577f4e487b7100000000000000000000000000000000000000000000000000000000600052602260045260246000fd5b5091905056fea26469706673582212209244b6d48b862b71f994ad8137fc0e76edd7cd8c4f2fa9690bc8d805ee7bef9e64736f6c63430008120033",
  "linkReferences": {},
  "deployedLinkReferences": {}
}