{
  "_format": "hh-sol-artifact-1",
  "contractName": "HypePoolBase",
  "sourceName": "contracts/HypePoolBase.sol",
  "abi": [
    {
      "anonymous": false,
      "inputs": [
        {
          "indexed": false,
          "internalType": "bytes32",
          "name": "poolId",
          "type": "bytes32"
        },
        {
          "indexed": false,
          "internalType": "address",
          "name": "activator",
          "type": "address"
        },
        {
          "indexed": false,
          "internalType": "uint256",
          "name": "startDate",
          "type": "uint256"
        },
        {
          "indexed": false,
          "internalType": "uint256",
          "name": "endDate",
          "type": "uint256"
        }
      ],
      "name": "PoolActivated",
      "type": "event"
    },
    {
      "anonymous": false,
      "inputs": [
        {
          "indexed": false,
          "internalType": "bytes32",
          "name": "poolId",
          "type": "bytes32"
        },
        {
          "indexed": false,
          "internalType": "address",
          "name": "creator",
          "type": "address"
        },
        {
          "indexed": false,
          "internalType": "string",
          "name": "uri",
          "type": "string"
        }
      ],
      "name": "PoolCreated",
      "type": "event"
    },
    {
      "anonymous": false,
      "inputs": [
        {
          "indexed": false,
          "internalType": "bytes32",
          "name": "poolId",
          "type": "bytes32"
        },
        {
          "indexed": false,
          "internalType": "address",
          "name": "deactivator",
          "type": "address"
        }
      ],
      "name": "PoolDeactivated",
      "type": "event"
    },
    {
      "anonymous": false,
      "inputs": [
        {
          "indexed": false,
          "internalType": "bytes32",
          "name": "poolId",
          "type": "bytes32"
        },
        {
          "indexed": false,
          "internalType": "string",
          "name": "title",
          "type": "string"
        },
        {
          "indexed": false,
          "internalType": "string",
          "name": "projectName",
          "type": "string"
        },
        {
          "indexed": false,
          "internalType": "string",
          "name": "tokenName",
          "type": "string"
        },
        {
          "indexed": false,
          "internalType": "string",
          "name": "campaignWord",
          "type": "string"
        },
        {
          "indexed": false,
          "internalType": "uint256",
          "name": "network",
          "type": "uint256"
        },
        {
          "indexed": false,
          "internalType": "address",
          "name": "tokenAddress",
          "type": "address"
        },
        {
          "indexed": false,
          "internalType": "uint256",
          "name": "impressionReward",
          "type": "uint256"
        },
        {
          "indexed": false,
          "internalType": "uint256",
          "name": "cap",
          "type": "uint256"
        },
        {
          "indexed": false,
          "internalType": "uint256",
          "name": "startDate",
          "type": "uint256"
        },
        {
          "indexed": false,
          "internalType": "uint256",
          "name": "endDate",
          "type": "uint256"
        },
        {
          "indexed": false,
          "internalType": "uint256",
          "name": "duration",
          "type": "uint256"
        },
        {
          "indexed": false,
          "internalType": "uint256[]",
          "name": "leaderRewards",
          "type": "uint256[]"
        }
      ],
      "name": "PoolDetailsAndRewardsCreated",
      "type": "event"
    },
    {
      "anonymous": false,
      "inputs": [
        {
          "indexed": true,
          "internalType": "bytes32",
          "name": "role",
          "type": "bytes32"
        },
        {
          "indexed": true,
          "internalType": "address",
          "name": "account",
          "type": "address"
        }
      ],
      "name": "RoleGranted",
      "type": "event"
    },
    {
      "anonymous": false,
      "inputs": [
        {
          "indexed": true,
          "internalType": "bytes32",
          "name": "role",
          "type": "bytes32"
        },
        {
          "indexed": true,
          "internalType": "address",
          "name": "account",
          "type": "address"
        }
      ],
      "name": "RoleRevoked",
      "type": "event"
    },
    {
      "inputs": [],
      "name": "ACTIVATOR_ROLE",
      "outputs": [
        {
          "internalType": "bytes32",
          "name": "",
          "type": "bytes32"
        }
      ],
      "stateMutability": "view",
      "type": "function"
    },
    {
      "inputs": [
        {
          "internalType": "bytes32",
          "name": "role",
          "type": "bytes32"
        },
        {
          "internalType": "address",
          "name": "account",
          "type": "address"
        }
      ],
      "name": "addRole",
      "outputs": [],
      "stateMutability": "nonpayable",
      "type": "function"
    },
    {
      "inputs": [
        {
          "internalType": "bytes32",
          "name": "uuid",
          "type": "bytes32"
        }
      ],
      "name": "doesPoolExist",
      "outputs": [
        {
          "internalType": "bool",
          "name": "",
          "type": "bool"
        }
      ],
      "stateMutability": "view",
      "type": "function"
    },
    {
      "inputs": [],
      "name": "getCurrentIndex",
      "outputs": [
        {
          "internalType": "bytes32",
          "name": "",
          "type": "bytes32"
        }
      ],
      "stateMutability": "view",
      "type": "function"
    },
    {
      "inputs": [
        {
          "internalType": "bytes32",
          "name": "uuid",
          "type": "bytes32"
        }
      ],
      "name": "getPool",
      "outputs": [
        {
          "components": [
            {
              "internalType": "bytes32",
              "name": "id",
              "type": "bytes32"
            },
            {
              "internalType": "address",
              "name": "creator",
              "type": "address"
            },
            {
              "internalType": "string",
              "name": "uri",
              "type": "string"
            },
            {
              "components": [
                {
                  "internalType": "string",
                  "name": "title",
                  "type": "string"
                },
                {
                  "internalType": "string",
                  "name": "projectName",
                  "type": "string"
                },
                {
                  "internalType": "string",
                  "name": "tokenName",
                  "type": "string"
                },
                {
                  "internalType": "string",
                  "name": "campaignWord",
                  "type": "string"
                }
              ],
              "internalType": "struct IHypePool.Details",
              "name": "details",
              "type": "tuple"
            },
            {
              "components": [
                {
                  "internalType": "uint256",
                  "name": "network",
                  "type": "uint256"
                },
                {
                  "internalType": "address",
                  "name": "tokenAddress",
                  "type": "address"
                },
                {
                  "internalType": "uint256",
                  "name": "impressionReward",
                  "type": "uint256"
                },
                {
                  "internalType": "uint256",
                  "name": "cap",
                  "type": "uint256"
                },
                {
                  "internalType": "uint256",
                  "name": "startDate",
                  "type": "uint256"
                },
                {
                  "internalType": "uint256",
                  "name": "endDate",
                  "type": "uint256"
                },
                {
                  "internalType": "uint256",
                  "name": "duration",
                  "type": "uint256"
                }
              ],
              "internalType": "struct IHypePool.Rewards",
              "name": "rewards",
              "type": "tuple"
            },
            {
              "internalType": "uint256[]",
              "name": "leaderRewards",
              "type": "uint256[]"
            }
          ],
          "internalType": "struct IHypePool.HypePool",
          "name": "",
          "type": "tuple"
        }
      ],
      "stateMutability": "view",
      "type": "function"
    },
    {
      "inputs": [
        {
          "internalType": "bytes32",
          "name": "uuid",
          "type": "bytes32"
        }
      ],
      "name": "getPoolRewards",
      "outputs": [
        {
          "components": [
            {
              "internalType": "uint256",
              "name": "network",
              "type": "uint256"
            },
            {
              "internalType": "address",
              "name": "tokenAddress",
              "type": "address"
            },
            {
              "internalType": "uint256",
              "name": "impressionReward",
              "type": "uint256"
            },
            {
              "internalType": "uint256",
              "name": "cap",
              "type": "uint256"
            },
            {
              "internalType": "uint256",
              "name": "startDate",
              "type": "uint256"
            },
            {
              "internalType": "uint256",
              "name": "endDate",
              "type": "uint256"
            },
            {
              "internalType": "uint256",
              "name": "duration",
              "type": "uint256"
            }
          ],
          "internalType": "struct IHypePool.Rewards",
          "name": "",
          "type": "tuple"
        }
      ],
      "stateMutability": "view",
      "type": "function"
    },
    {
      "inputs": [
        {
          "internalType": "bytes32",
          "name": "role",
          "type": "bytes32"
        },
        {
          "internalType": "address",
          "name": "account",
          "type": "address"
        }
      ],
      "name": "hasRole",
      "outputs": [
        {
          "internalType": "bool",
          "name": "",
          "type": "bool"
        }
      ],
      "stateMutability": "view",
      "type": "function"
    },
    {
      "inputs": [
        {
          "internalType": "bytes32",
          "name": "uuid",
          "type": "bytes32"
        }
      ],
      "name": "isActive",
      "outputs": [
        {
          "internalType": "bool",
          "name": "",
          "type": "bool"
        }
      ],
      "stateMutability": "view",
      "type": "function"
    },
    {
      "inputs": [
        {
          "internalType": "bytes32",
          "name": "uuid",
          "type": "bytes32"
        }
      ],
      "name": "isExpired",
      "outputs": [
        {
          "internalType": "bool",
          "name": "",
          "type": "bool"
        }
      ],
      "stateMutability": "view",
      "type": "function"
    },
    {
      "inputs": [
        {
          "internalType": "bytes32",
          "name": "uuid",
          "type": "bytes32"
        }
      ],
      "name": "isGracePeriod",
      "outputs": [
        {
          "internalType": "bool",
          "name": "",
          "type": "bool"
        }
      ],
      "stateMutability": "view",
      "type": "function"
    },
    {
      "inputs": [
        {
          "internalType": "bytes32",
          "name": "uuid",
          "type": "bytes32"
        }
      ],
      "name": "poolURI",
      "outputs": [
        {
          "internalType": "string",
          "name": "",
          "type": "string"
        }
      ],
      "stateMutability": "view",
      "type": "function"
    },
    {
      "inputs": [
        {
          "internalType": "bytes32",
          "name": "role",
          "type": "bytes32"
        },
        {
          "internalType": "address",
          "name": "account",
          "type": "address"
        }
      ],
      "name": "revokeRole",
      "outputs": [],
      "stateMutability": "nonpayable",
      "type": "function"
    }
  ],
  "bytecode": "0x608060405234801561001057600080fd5b50611c9c806100206000396000f3fe608060405234801561001057600080fd5b50600436106100d45760003560e01c806391d1485411610081578063e959b38a1161005b578063e959b38a146101bf578063f6c00927146101d2578063f8607fb1146101f257600080fd5b806391d1485414610184578063bd033bd014610197578063d547741f146101aa57600080fd5b806324bc5972116100b257806324bc59721461013e5780635c36901c1461015e5780636db2feb21461017157600080fd5b806308740a3b146100d95780630d9005ae1461011357806323692edd1461011b575b600080fd5b6101007fec5aad7bdface20c35bc02d6d2d5760df981277427368525d634f4e2603ea19281565b6040519081526020015b60405180910390f35b600454610100565b61012e610129366004611996565b610212565b604051901515815260200161010a565b61015161014c366004611996565b610601565b60405161010a91906119af565b61012e61016c366004611996565b610660565b61012e61017f366004611996565b610a61565b61012e610192366004611a05565b610e5f565b61012e6101a5366004611996565b610e8a565b6101bd6101b8366004611a05565b6112aa565b005b6101bd6101cd366004611a05565b611381565b6101e56101e0366004611996565b611456565b60405161010a9190611ac2565b610205610200366004611996565b61183f565b60405161010a9190611bf8565b6000818152600360209081526040808320815160c0810183528154815260018201546001600160a01b0316938101939093526002810180548594938401919061025a90611c0b565b80601f016020809104026020016040519081016040528092919081815260200182805461028690611c0b565b80156102d35780601f106102a8576101008083540402835291602001916102d3565b820191906000526020600020905b8154815290600101906020018083116102b657829003601f168201915b50505050508152602001600382016040518060800160405290816000820180546102fc90611c0b565b80601f016020809104026020016040519081016040528092919081815260200182805461032890611c0b565b80156103755780601f1061034a57610100808354040283529160200191610375565b820191906000526020600020905b81548152906001019060200180831161035857829003601f168201915b5050505050815260200160018201805461038e90611c0b565b80601f01602080910402602001604051908101604052809291908181526020018280546103ba90611c0b565b80156104075780601f106103dc57610100808354040283529160200191610407565b820191906000526020600020905b8154815290600101906020018083116103ea57829003601f168201915b5050505050815260200160028201805461042090611c0b565b80601f016020809104026020016040519081016040528092919081815260200182805461044c90611c0b565b80156104995780601f1061046e57610100808354040283529160200191610499565b820191906000526020600020905b81548152906001019060200180831161047c57829003601f168201915b505050505081526020016003820180546104b290611c0b565b80601f01602080910402602001604051908101604052809291908181526020018280546104de90611c0b565b801561052b5780601f106105005761010080835404028352916020019161052b565b820191906000526020600020905b81548152906001019060200180831161050e57829003601f168201915b5050509190925250505081526040805160e0810182526007840154815260088401546001600160a01b0316602082810191909152600985015482840152600a8501546060830152600b8501546080830152600c85015460a0830152600d85015460c083015280840191909152600e840180548351818402810184018552818152939094019390918301828280156105e157602002820191906000526020600020905b8154815260200190600101908083116105cd575b50505091909252505050602001516001600160a01b031615159392505050565b61064a6040518060e001604052806000815260200160006001600160a01b0316815260200160008152602001600081526020016000815260200160008152602001600081525090565b600061065583611456565b608001519392505050565b6000818152600360209081526040808320815160c0810183528154815260018201546001600160a01b031693810193909352600281018054859493840191906106a890611c0b565b80601f01602080910402602001604051908101604052809291908181526020018280546106d490611c0b565b80156107215780601f106106f657610100808354040283529160200191610721565b820191906000526020600020905b81548152906001019060200180831161070457829003601f168201915b505050505081526020016003820160405180608001604052908160008201805461074a90611c0b565b80601f016020809104026020016040519081016040528092919081815260200182805461077690611c0b565b80156107c35780601f10610798576101008083540402835291602001916107c3565b820191906000526020600020905b8154815290600101906020018083116107a657829003601f168201915b505050505081526020016001820180546107dc90611c0b565b80601f016020809104026020016040519081016040528092919081815260200182805461080890611c0b565b80156108555780601f1061082a57610100808354040283529160200191610855565b820191906000526020600020905b81548152906001019060200180831161083857829003601f168201915b5050505050815260200160028201805461086e90611c0b565b80601f016020809104026020016040519081016040528092919081815260200182805461089a90611c0b565b80156108e75780601f106108bc576101008083540402835291602001916108e7565b820191906000526020600020905b8154815290600101906020018083116108ca57829003601f168201915b5050505050815260200160038201805461090090611c0b565b80601f016020809104026020016040519081016040528092919081815260200182805461092c90611c0b565b80156109795780601f1061094e57610100808354040283529160200191610979565b820191906000526020600020905b81548152906001019060200180831161095c57829003601f168201915b5050509190925250505081526040805160e0810182526007840154815260088401546001600160a01b0316602082810191909152600985015482840152600a8501546060830152600b8501546080830152600c85015460a0830152600d85015460c083015280840191909152600e84018054835181840281018401855281815293909401939091830182828015610a2f57602002820191906000526020600020905b815481526020019060010190808311610a1b575b5050505050815250509050806080015160a00151600014158015610a5a575042816080015160a00151115b9392505050565b6000818152600360209081526040808320815160c0810183528154815260018201546001600160a01b03169381019390935260028101805485949384019190610aa990611c0b565b80601f0160208091040260200160405190810160405280929190818152602001828054610ad590611c0b565b8015610b225780601f10610af757610100808354040283529160200191610b22565b820191906000526020600020905b815481529060010190602001808311610b0557829003601f168201915b5050505050815260200160038201604051806080016040529081600082018054610b4b90611c0b565b80601f0160208091040260200160405190810160405280929190818152602001828054610b7790611c0b565b8015610bc45780601f10610b9957610100808354040283529160200191610bc4565b820191906000526020600020905b815481529060010190602001808311610ba757829003601f168201915b50505050508152602001600182018054610bdd90611c0b565b80601f0160208091040260200160405190810160405280929190818152602001828054610c0990611c0b565b8015610c565780601f10610c2b57610100808354040283529160200191610c56565b820191906000526020600020905b815481529060010190602001808311610c3957829003601f168201915b50505050508152602001600282018054610c6f90611c0b565b80601f0160208091040260200160405190810160405280929190818152602001828054610c9b90611c0b565b8015610ce85780601f10610cbd57610100808354040283529160200191610ce8565b820191906000526020600020905b815481529060010190602001808311610ccb57829003601f168201915b50505050508152602001600382018054610d0190611c0b565b80601f0160208091040260200160405190810160405280929190818152602001828054610d2d90611c0b565b8015610d7a5780601f10610d4f57610100808354040283529160200191610d7a565b820191906000526020600020905b815481529060010190602001808311610d5d57829003601f168201915b5050509190925250505081526040805160e0810182526007840154815260088401546001600160a01b0316602082810191909152600985015482840152600a8501546060830152600b8501546080830152600c85015460a0830152600d85015460c083015280840191909152600e84018054835181840281018401855281815293909401939091830182828015610e3057602002820191906000526020600020905b815481526020019060010190808311610e1c575b5050505050815250509050806080015160a00151600014158015610a5a57506080015160a00151421192915050565b6000828152602081815260408083206001600160a01b038516845290915290205460ff165b92915050565b6000818152600360209081526040808320815160c0810183528154815260018201546001600160a01b03169381019390935260028101805485949384019190610ed290611c0b565b80601f0160208091040260200160405190810160405280929190818152602001828054610efe90611c0b565b8015610f4b5780601f10610f2057610100808354040283529160200191610f4b565b820191906000526020600020905b815481529060010190602001808311610f2e57829003601f168201915b5050505050815260200160038201604051806080016040529081600082018054610f7490611c0b565b80601f0160208091040260200160405190810160405280929190818152602001828054610fa090611c0b565b8015610fed5780601f10610fc257610100808354040283529160200191610fed565b820191906000526020600020905b815481529060010190602001808311610fd057829003601f168201915b5050505050815260200160018201805461100690611c0b565b80601f016020809104026020016040519081016040528092919081815260200182805461103290611c0b565b801561107f5780601f106110545761010080835404028352916020019161107f565b820191906000526020600020905b81548152906001019060200180831161106257829003601f168201915b5050505050815260200160028201805461109890611c0b565b80601f01602080910402602001604051908101604052809291908181526020018280546110c490611c0b565b80156111115780601f106110e657610100808354040283529160200191611111565b820191906000526020600020905b8154815290600101906020018083116110f457829003601f168201915b5050505050815260200160038201805461112a90611c0b565b80601f016020809104026020016040519081016040528092919081815260200182805461115690611c0b565b80156111a35780601f10611178576101008083540402835291602001916111a3565b820191906000526020600020905b81548152906001019060200180831161118657829003601f168201915b5050509190925250505081526040805160e0810182526007840154815260088401546001600160a01b0316602082810191909152600985015482840152600a8501546060830152600b8501546080830152600c85015460a0830152600d85015460c083015280840191909152600e8401805483518184028101840185528181529390940193909183018282801561125957602002820191906000526020600020905b815481526020019060010190808311611245575b5050505050815250509050806080015160a00151600014158015611284575042816080015160a00151105b8015610a5a5750608081015160a001516112a19062093a80611c45565b42109392505050565b6001600160a01b03811661132b5760405162461bcd60e51b815260206004820152603360248201527f416363657373436f6e74726f6c3a2063616e6e6f74207265766f6b6520726f6c60448201527f652066726f6d207a65726f20616464726573730000000000000000000000000060648201526084015b60405180910390fd5b6000828152602081815260408083206001600160a01b0385168085529252808320805460ff1916905551909184917f155aaafb6329a2098580462df33ec4b7441b19729b9601c5fc17ae1cf99a8a529190a35050565b6001600160a01b0381166113fd5760405162461bcd60e51b815260206004820152603060248201527f416363657373436f6e74726f6c3a2063616e6e6f74206772616e7420726f6c6560448201527f20746f207a65726f2061646472657373000000000000000000000000000000006064820152608401611322565b6000828152602081815260408083206001600160a01b0385168085529252808320805460ff1916600117905551909184917f2ae6a113c0ed5b78a53413ffbb7679881f11145ccfba4fb92e863dfcd5a1d2f39190a35050565b61145e6118e4565b600082815260036020908152604091829020825160c0810184528154815260018201546001600160a01b03169281019290925260028101805492939192918401916114a890611c0b565b80601f01602080910402602001604051908101604052809291908181526020018280546114d490611c0b565b80156115215780601f106114f657610100808354040283529160200191611521565b820191906000526020600020905b81548152906001019060200180831161150457829003601f168201915b505050505081526020016003820160405180608001604052908160008201805461154a90611c0b565b80601f016020809104026020016040519081016040528092919081815260200182805461157690611c0b565b80156115c35780601f10611598576101008083540402835291602001916115c3565b820191906000526020600020905b8154815290600101906020018083116115a657829003601f168201915b505050505081526020016001820180546115dc90611c0b565b80601f016020809104026020016040519081016040528092919081815260200182805461160890611c0b565b80156116555780601f1061162a57610100808354040283529160200191611655565b820191906000526020600020905b81548152906001019060200180831161163857829003601f168201915b5050505050815260200160028201805461166e90611c0b565b80601f016020809104026020016040519081016040528092919081815260200182805461169a90611c0b565b80156116e75780601f106116bc576101008083540402835291602001916116e7565b820191906000526020600020905b8154815290600101906020018083116116ca57829003601f168201915b5050505050815260200160038201805461170090611c0b565b80601f016020809104026020016040519081016040528092919081815260200182805461172c90611c0b565b80156117795780601f1061174e57610100808354040283529160200191611779565b820191906000526020600020905b81548152906001019060200180831161175c57829003601f168201915b5050509190925250505081526040805160e0810182526007840154815260088401546001600160a01b0316602082810191909152600985015482840152600a8501546060830152600b8501546080830152600c85015460a0830152600d85015460c083015280840191909152600e8401805483518184028101840185528181529390940193909183018282801561182f57602002820191906000526020600020905b81548152602001906001019080831161181b575b5050505050815250509050919050565b600081815260036020526040902060020180546060919061185f90611c0b565b80601f016020809104026020016040519081016040528092919081815260200182805461188b90611c0b565b80156118d85780601f106118ad576101008083540402835291602001916118d8565b820191906000526020600020905b8154815290600101906020018083116118bb57829003601f168201915b50505050509050919050565b6040518060c001604052806000801916815260200160006001600160a01b031681526020016060815260200161193b6040518060800160405280606081526020016060815260200160608152602001606081525090565b81526020016119896040518060e001604052806000815260200160006001600160a01b0316815260200160008152602001600081526020016000815260200160008152602001600081525090565b8152602001606081525090565b6000602082840312156119a857600080fd5b5035919050565b60e08101610e848284805182526001600160a01b03602082015116602083015260408101516040830152606081015160608301526080810151608083015260a081015160a083015260c081015160c08301525050565b60008060408385031215611a1857600080fd5b8235915060208301356001600160a01b0381168114611a3657600080fd5b809150509250929050565b6000815180845260005b81811015611a6757602081850181015186830182015201611a4b565b506000602082860101526020601f19601f83011685010191505092915050565b600081518084526020808501945080840160005b83811015611ab757815187529582019590820190600101611a9b565b509495945050505050565b60208152815160208201526001600160a01b03602083015116604082015260006040830151610180806060850152611afe6101a0850183611a41565b91506060850151601f1980868503016080870152815160808552611b256080860182611a41565b905060208301518582036020870152611b3e8282611a41565b91505060408301518582036040870152611b588282611a41565b915050606083015192508481036060860152611b748184611a41565b94505060808701519150611bd360a0870183805182526001600160a01b03602082015116602083015260408101516040830152606081015160608301526080810151608083015260a081015160a083015260c081015160c08301525050565b60a0870151915080868503018387015250611bee8382611a87565b9695505050505050565b602081526000610a5a6020830184611a41565b600181811c90821680611c1f57607f821691505b602082108103611c3f57634e487b7160e01b600052602260045260246000fd5b50919050565b80820180821115610e8457634e487b7160e01b600052601160045260246000fdfea2646970667358221220ba84227b60037f57337e2b3f1d716224a492cd145844992167637cf2e710c63a64736f6c63430008120033",
  "linkReferences": {},
  "deployedLinkReferences": {}
}