{
  "_format": "hh-sol-artifact-1",
  "contractName": "DynamicEscrowBase",
  "sourceName": "contracts/DynamicEscrowBase.sol",
  "abi": [
    {
      "anonymous": false,
      "inputs": [
        {
          "indexed": true,
          "internalType": "address",
          "name": "receiver",
          "type": "address"
        },
        {
          "indexed": false,
          "internalType": "uint256",
          "name": "weiAmount",
          "type": "uint256"
        },
        {
          "indexed": false,
          "internalType": "bytes32",
          "name": "poolId",
          "type": "bytes32"
        }
      ],
      "name": "Claimed",
      "type": "event"
    },
    {
      "anonymous": false,
      "inputs": [
        {
          "indexed": true,
          "internalType": "address",
          "name": "spender",
          "type": "address"
        },
        {
          "indexed": false,
          "internalType": "uint256",
          "name": "weiAmount",
          "type": "uint256"
        },
        {
          "indexed": false,
          "internalType": "bytes32",
          "name": "poolId",
          "type": "bytes32"
        }
      ],
      "name": "Deposited",
      "type": "event"
    },
    {
      "anonymous": false,
      "inputs": [
        {
          "indexed": true,
          "internalType": "address",
          "name": "receiver",
          "type": "address"
        },
        {
          "indexed": false,
          "internalType": "uint256",
          "name": "weiAmount",
          "type": "uint256"
        },
        {
          "indexed": false,
          "internalType": "bytes32",
          "name": "poolId",
          "type": "bytes32"
        }
      ],
      "name": "Withdrawn",
      "type": "event"
    },
    {
      "inputs": [
        {
          "internalType": "address",
          "name": "payee",
          "type": "address"
        },
        {
          "internalType": "bytes32",
          "name": "poolId",
          "type": "bytes32"
        }
      ],
      "name": "depositsOf",
      "outputs": [
        {
          "components": [
            {
              "internalType": "uint256",
              "name": "weiAmount",
              "type": "uint256"
            },
            {
              "internalType": "address",
              "name": "tokenAddress",
              "type": "address"
            }
          ],
          "internalType": "struct IEscrow.DynamicDeposit",
          "name": "",
          "type": "tuple"
        }
      ],
      "stateMutability": "view",
      "type": "function"
    }
  ],
  "bytecode": "0x608060405234801561001057600080fd5b50610363806100206000396000f3fe608060405234801561001057600080fd5b506004361061002b5760003560e01c80631aa9e74214610030575b600080fd5b61004a6004803603810190610045919061027b565b610060565b6040516100579190610312565b60405180910390f35b6100686101b2565b6100947f82e79a4835e9b785ce5733a8383a810224ac629d3c5880c254aef6275f06a89c60001b6101af565b6100c07f446463cbedbf51d78d4452402683bd992b6c00da1da4401ee3f0a9a5b817328a60001b6101af565b6100ec7fa6d25c80ad24e837eac9c92746750d6b3523c752f6a0f1f18c6f0727b540d39f60001b6101af565b6001600083815260200190815260200160002060008473ffffffffffffffffffffffffffffffffffffffff1673ffffffffffffffffffffffffffffffffffffffff168152602001908152602001600020604051806040016040529081600082015481526020016001820160009054906101000a900473ffffffffffffffffffffffffffffffffffffffff1673ffffffffffffffffffffffffffffffffffffffff1673ffffffffffffffffffffffffffffffffffffffff1681525050905092915050565b50565b604051806040016040528060008152602001600073ffffffffffffffffffffffffffffffffffffffff1681525090565b600080fd5b600073ffffffffffffffffffffffffffffffffffffffff82169050919050565b6000610212826101e7565b9050919050565b61022281610207565b811461022d57600080fd5b50565b60008135905061023f81610219565b92915050565b6000819050919050565b61025881610245565b811461026357600080fd5b50565b6000813590506102758161024f565b92915050565b60008060408385031215610292576102916101e2565b5b60006102a085828601610230565b92505060206102b185828601610266565b9150509250929050565b6000819050919050565b6102ce816102bb565b82525050565b6102dd81610207565b82525050565b6040820160008201516102f960008501826102c5565b50602082015161030c60208501826102d4565b50505050565b600060408201905061032760008301846102e3565b9291505056fea2646970667358221220a8248bacaa6aef57c7736ed4f09cc9fefa18ce8fccb108d8f6ae82239eb470aa64736f6c63430008120033",
  "linkReferences": {},
  "deployedLinkReferences": {}
}