{
  "_format": "hh-sol-artifact-1",
  "contractName": "DataGatheringFacet",
  "sourceName": "contracts/facets/DataGatheringFacet.sol",
  "abi": [
    {
      "inputs": [],
      "name": "UintUtils__InsufficientHexLength",
      "type": "error"
    },
    {
      "anonymous": false,
      "inputs": [
        {
          "indexed": true,
          "internalType": "address",
          "name": "newIngesterProxy",
          "type": "address"
        }
      ],
      "name": "IngesterProxyAddressUpdated",
      "type": "event"
    },
    {
      "anonymous": false,
      "inputs": [
        {
          "indexed": true,
          "internalType": "address",
          "name": "ingesterAddress",
          "type": "address"
        },
        {
          "indexed": false,
          "internalType": "string",
          "name": "usersIpfsHash",
          "type": "string"
        },
        {
          "indexed": false,
          "internalType": "string",
          "name": "chatsIpfsHash",
          "type": "string"
        },
        {
          "indexed": false,
          "internalType": "string",
          "name": "messagesIpfsHash",
          "type": "string"
        }
      ],
      "name": "IpfsHashAdded",
      "type": "event"
    },
    {
      "anonymous": false,
      "inputs": [
        {
          "indexed": true,
          "internalType": "bytes32",
          "name": "role",
          "type": "bytes32"
        },
        {
          "indexed": true,
          "internalType": "bytes32",
          "name": "previousAdminRole",
          "type": "bytes32"
        },
        {
          "indexed": true,
          "internalType": "bytes32",
          "name": "newAdminRole",
          "type": "bytes32"
        }
      ],
      "name": "RoleAdminChanged",
      "type": "event"
    },
    {
      "anonymous": false,
      "inputs": [
        {
          "indexed": true,
          "internalType": "bytes32",
          "name": "role",
          "type": "bytes32"
        },
        {
          "indexed": true,
          "internalType": "address",
          "name": "account",
          "type": "address"
        },
        {
          "indexed": true,
          "internalType": "address",
          "name": "sender",
          "type": "address"
        }
      ],
      "name": "RoleGranted",
      "type": "event"
    },
    {
      "anonymous": false,
      "inputs": [
        {
          "indexed": true,
          "internalType": "bytes32",
          "name": "role",
          "type": "bytes32"
        },
        {
          "indexed": true,
          "internalType": "address",
          "name": "account",
          "type": "address"
        },
        {
          "indexed": true,
          "internalType": "address",
          "name": "sender",
          "type": "address"
        }
      ],
      "name": "RoleRevoked",
      "type": "event"
    },
    {
      "inputs": [
        {
          "internalType": "string",
          "name": "usersHash",
          "type": "string"
        },
        {
          "internalType": "string",
          "name": "chatsHash",
          "type": "string"
        },
        {
          "internalType": "string",
          "name": "messagesHash",
          "type": "string"
        }
      ],
      "name": "addIpfsHash",
      "outputs": [],
      "stateMutability": "nonpayable",
      "type": "function"
    },
    {
      "inputs": [],
      "name": "getActiveClusters",
      "outputs": [
        {
          "internalType": "uint256[]",
          "name": "",
          "type": "uint256[]"
        }
      ],
      "stateMutability": "view",
      "type": "function"
    },
    {
      "inputs": [
        {
          "internalType": "uint256",
          "name": "clusterId",
          "type": "uint256"
        }
      ],
      "name": "getCluster",
      "outputs": [
        {
          "components": [
            {
              "internalType": "bool",
              "name": "isActive",
              "type": "bool"
            },
            {
              "internalType": "string[]",
              "name": "groupUsernames",
              "type": "string[]"
            },
            {
              "internalType": "address[]",
              "name": "ingesterAddresses",
              "type": "address[]"
            },
            {
              "internalType": "uint256",
              "name": "clusterIndex",
              "type": "uint256"
            }
          ],
          "internalType": "struct IIngesterGroupManager.GroupsCluster",
          "name": "",
          "type": "tuple"
        }
      ],
      "stateMutability": "view",
      "type": "function"
    },
    {
      "inputs": [],
      "name": "getClusterCount",
      "outputs": [
        {
          "internalType": "uint256",
          "name": "",
          "type": "uint256"
        }
      ],
      "stateMutability": "view",
      "type": "function"
    },
    {
      "inputs": [],
      "name": "getClusters",
      "outputs": [
        {
          "internalType": "uint256[]",
          "name": "",
          "type": "uint256[]"
        }
      ],
      "stateMutability": "view",
      "type": "function"
    },
    {
      "inputs": [
        {
          "internalType": "address",
          "name": "controllerAddress",
          "type": "address"
        }
      ],
      "name": "getControllerIngesters",
      "outputs": [
        {
          "components": [
            {
              "internalType": "address",
              "name": "ingesterAddress",
              "type": "address"
            },
            {
              "internalType": "bool",
              "name": "isAllocated",
              "type": "bool"
            },
            {
              "internalType": "uint256",
              "name": "clusterId",
              "type": "uint256"
            }
          ],
          "internalType": "struct IIngesterRegistration.Ingester[]",
          "name": "",
          "type": "tuple[]"
        }
      ],
      "stateMutability": "view",
      "type": "function"
    },
    {
      "inputs": [],
      "name": "getGroupCount",
      "outputs": [
        {
          "internalType": "uint256",
          "name": "",
          "type": "uint256"
        }
      ],
      "stateMutability": "view",
      "type": "function"
    },
    {
      "inputs": [],
      "name": "getGroups",
      "outputs": [
        {
          "internalType": "string[]",
          "name": "",
          "type": "string[]"
        }
      ],
      "stateMutability": "view",
      "type": "function"
    },
    {
      "inputs": [
        {
          "internalType": "address",
          "name": "ingesterAddress",
          "type": "address"
        }
      ],
      "name": "getIngester",
      "outputs": [
        {
          "components": [
            {
              "internalType": "address",
              "name": "ingesterAddress",
              "type": "address"
            },
            {
              "internalType": "bool",
              "name": "isAllocated",
              "type": "bool"
            },
            {
              "internalType": "uint256",
              "name": "clusterId",
              "type": "uint256"
            }
          ],
          "internalType": "struct IIngesterRegistration.Ingester",
          "name": "",
          "type": "tuple"
        }
      ],
      "stateMutability": "view",
      "type": "function"
    },
    {
      "inputs": [
        {
          "internalType": "address",
          "name": "ingesterAddress",
          "type": "address"
        }
      ],
      "name": "getIngesterController",
      "outputs": [
        {
          "internalType": "address",
          "name": "",
          "type": "address"
        }
      ],
      "stateMutability": "view",
      "type": "function"
    },
    {
      "inputs": [],
      "name": "getIngesterCount",
      "outputs": [
        {
          "internalType": "uint256",
          "name": "",
          "type": "uint256"
        }
      ],
      "stateMutability": "view",
      "type": "function"
    },
    {
      "inputs": [
        {
          "internalType": "address",
          "name": "ingesterAddress",
          "type": "address"
        }
      ],
      "name": "getIngesterWithGroups",
      "outputs": [
        {
          "components": [
            {
              "internalType": "address",
              "name": "ingesterAddress",
              "type": "address"
            },
            {
              "internalType": "bool",
              "name": "isAllocated",
              "type": "bool"
            },
            {
              "internalType": "uint256",
              "name": "clusterId",
              "type": "uint256"
            },
            {
              "internalType": "string[]",
              "name": "assignedGroups",
              "type": "string[]"
            }
          ],
          "internalType": "struct IIngesterRegistration.IngesterWithGroups",
          "name": "",
          "type": "tuple"
        }
      ],
      "stateMutability": "view",
      "type": "function"
    },
    {
      "inputs": [],
      "name": "getIngesters",
      "outputs": [
        {
          "internalType": "address[]",
          "name": "",
          "type": "address[]"
        }
      ],
      "stateMutability": "view",
      "type": "function"
    },
    {
      "inputs": [
        {
          "internalType": "address",
          "name": "ingesterAddress",
          "type": "address"
        }
      ],
      "name": "getIpfsHashes",
      "outputs": [
        {
          "components": [
            {
              "internalType": "string",
              "name": "usersIpfsHash",
              "type": "string"
            },
            {
              "internalType": "string",
              "name": "chatsIpfsHash",
              "type": "string"
            },
            {
              "internalType": "string",
              "name": "messagesIpfsHash",
              "type": "string"
            }
          ],
          "internalType": "struct IIngesterDataGathering.IpfsHash",
          "name": "ipfsHashes",
          "type": "tuple"
        }
      ],
      "stateMutability": "view",
      "type": "function"
    },
    {
      "inputs": [
        {
          "internalType": "bytes32",
          "name": "role",
          "type": "bytes32"
        }
      ],
      "name": "getRoleAdmin",
      "outputs": [
        {
          "internalType": "bytes32",
          "name": "",
          "type": "bytes32"
        }
      ],
      "stateMutability": "view",
      "type": "function"
    },
    {
      "inputs": [],
      "name": "getinactiveClusters",
      "outputs": [
        {
          "internalType": "uint256[]",
          "name": "",
          "type": "uint256[]"
        }
      ],
      "stateMutability": "view",
      "type": "function"
    },
    {
      "inputs": [],
      "name": "getunallocatedGroups",
      "outputs": [
        {
          "internalType": "string[]",
          "name": "",
          "type": "string[]"
        }
      ],
      "stateMutability": "view",
      "type": "function"
    },
    {
      "inputs": [],
      "name": "getunallocatedIngesters",
      "outputs": [
        {
          "internalType": "address[]",
          "name": "",
          "type": "address[]"
        }
      ],
      "stateMutability": "view",
      "type": "function"
    },
    {
      "inputs": [
        {
          "internalType": "bytes32",
          "name": "role",
          "type": "bytes32"
        },
        {
          "internalType": "address",
          "name": "account",
          "type": "address"
        }
      ],
      "name": "grantRole",
      "outputs": [],
      "stateMutability": "nonpayable",
      "type": "function"
    },
    {
      "inputs": [
        {
          "internalType": "bytes32",
          "name": "role",
          "type": "bytes32"
        },
        {
          "internalType": "address",
          "name": "account",
          "type": "address"
        }
      ],
      "name": "hasRole",
      "outputs": [
        {
          "internalType": "bool",
          "name": "",
          "type": "bool"
        }
      ],
      "stateMutability": "view",
      "type": "function"
    },
    {
      "inputs": [
        {
          "internalType": "address",
          "name": "ingester",
          "type": "address"
        },
        {
          "internalType": "address",
          "name": "controller",
          "type": "address"
        }
      ],
      "name": "isIngesterOwnedByController",
      "outputs": [
        {
          "internalType": "bool",
          "name": "",
          "type": "bool"
        }
      ],
      "stateMutability": "view",
      "type": "function"
    },
    {
      "inputs": [
        {
          "internalType": "address",
          "name": "controller",
          "type": "address"
        }
      ],
      "name": "isRegisteredController",
      "outputs": [
        {
          "internalType": "bool",
          "name": "",
          "type": "bool"
        }
      ],
      "stateMutability": "view",
      "type": "function"
    },
    {
      "inputs": [
        {
          "internalType": "address",
          "name": "ingesterAddress",
          "type": "address"
        }
      ],
      "name": "isRegisteredIngester",
      "outputs": [
        {
          "internalType": "bool",
          "name": "",
          "type": "bool"
        }
      ],
      "stateMutability": "view",
      "type": "function"
    },
    {
      "inputs": [
        {
          "internalType": "bytes32",
          "name": "role",
          "type": "bytes32"
        }
      ],
      "name": "renounceRole",
      "outputs": [],
      "stateMutability": "nonpayable",
      "type": "function"
    },
    {
      "inputs": [
        {
          "internalType": "bytes32",
          "name": "role",
          "type": "bytes32"
        },
        {
          "internalType": "address",
          "name": "account",
          "type": "address"
        }
      ],
      "name": "revokeRole",
      "outputs": [],
      "stateMutability": "nonpayable",
      "type": "function"
    }
  ],
  "bytecode": "0x608060405234801561001057600080fd5b506120fa806100206000396000f3fe608060405234801561001057600080fd5b50600436106101735760003560e01c80638bb9c5bf116100de578063ae12151811610097578063c4df500711610071578063c4df500714610341578063c72b517614610361578063d547741f14610369578063e17a77f61461037c57600080fd5b8063ae12151814610304578063af0e176114610319578063be43fb6c1461032157600080fd5b80638bb9c5bf1461029b5780638cdcb3e6146102ae57806391d14854146102c1578063926f6104146102d4578063978abee0146102dc5780639af281e8146102fc57600080fd5b80632f2ff15d116101305780632f2ff15d14610210578063307f4f0a1461022557806332fa7d2114610265578063594920901461026d5780635e91a74a14610275578063812e53d21461028857600080fd5b80630179240c1461017857806306545a93146101a157806316f1d42a146101b35780631a5d7f3e146101c85780631f6fd3df146101e8578063248a9ca3146101fd575b600080fd5b61018b6101863660046118ec565b6103c0565b60405161019891906119ad565b60405180910390f35b6009545b604051908152602001610198565b6101bb61055b565b6040516101989190611a37565b6101db6101d6366004611a97565b6105b6565b6040516101989190611ab2565b6101f06107b9565b6040516101989190611b13565b6101a561020b3660046118ec565b61081d565b61022361021e366004611b54565b61082e565b005b610255610233366004611b80565b6001600160a01b03918216600090815260208190526040902054821691161490565b6040519015158152602001610198565b6101f061084f565b6002546101a5565b610255610283366004611a97565b6108b7565b610223610296366004611bf3565b6108e3565b6102236102a93660046118ec565b610ad5565b6102556102bc366004611a97565b610ae1565b6102556102cf366004611b54565b610b0d565b6101bb610b20565b6102ef6102ea366004611a97565b610c73565b6040516101989190611c8d565b6101bb610f0c565b61030c610f65565b6040516101989190611cd8565b6007546101a5565b61033461032f366004611a97565b611207565b6040516101989190611d3a565b61035461034f366004611a97565b6112a6565b6040516101989190611d9b565b61030c6113ba565b610223610377366004611b54565b611496565b6103a861038a366004611a97565b6001600160a01b039081166000908152602081905260409020541690565b6040516001600160a01b039091168152602001610198565b6103ed60405180608001604052806000151581526020016060815260200160608152602001600081525090565b60008281526006602090815260408083208151608081018352815460ff16151581526001820180548451818702810187019095528085529195929486810194939192919084015b828210156104e057838290600052602060002001805461045390611dc7565b80601f016020809104026020016040519081016040528092919081815260200182805461047f90611dc7565b80156104cc5780601f106104a1576101008083540402835291602001916104cc565b820191906000526020600020905b8154815290600101906020018083116104af57829003601f168201915b505050505081526020019060010190610434565b5050505081526020016002820180548060200260200160405190810160405280929190818152602001828054801561054157602002820191906000526020600020905b81546001600160a01b03168152600190910190602001808311610523575b505050505081526020016003820154815250509050919050565b606060006007018054806020026020016040519081016040528092919081815260200182805480156105ac57602002820191906000526020600020905b815481526020019060010190808311610598575b5050505050905090565b6105da60405180606001604052806060815260200160608152602001606081525090565b6001600160a01b0382166000908152600c60205260409081902081516060810190925280548290829061060c90611dc7565b80601f016020809104026020016040519081016040528092919081815260200182805461063890611dc7565b80156106855780601f1061065a57610100808354040283529160200191610685565b820191906000526020600020905b81548152906001019060200180831161066857829003601f168201915b5050505050815260200160018201805461069e90611dc7565b80601f01602080910402602001604051908101604052809291908181526020018280546106ca90611dc7565b80156107175780601f106106ec57610100808354040283529160200191610717565b820191906000526020600020905b8154815290600101906020018083116106fa57829003601f168201915b5050505050815260200160028201805461073090611dc7565b80601f016020809104026020016040519081016040528092919081815260200182805461075c90611dc7565b80156107a95780601f1061077e576101008083540402835291602001916107a9565b820191906000526020600020905b81548152906001019060200180831161078c57829003601f168201915b5050505050815250509050919050565b606060006003018054806020026020016040519081016040528092919081815260200182805480156105ac57602002820191906000526020600020905b81546001600160a01b031681526001909101906020018083116107f6575050505050905090565b6000610828826114b2565b92915050565b610837826114b2565b610840816114d4565b61084a83836114de565b505050565b60606000806002018054806020026020016040519081016040528092919081815260200182805480156108ab57602002820191906000526020600020905b81546001600160a01b0316815260019091019060200180831161088d575b50939695505050505050565b60006108287f5e4113f64ef62a4dcf877571d6adf627b68af233a523753b8dcf1d3fb18974ed83611540565b61090d7f5e4113f64ef62a4dcf877571d6adf627b68af233a523753b8dcf1d3fb18974ed33611540565b61096f5760405162461bcd60e51b815260206004820152602860248201527f4c696241707053746f726167653a204e6f74206120726567697374657265642060448201526734b733b2b9ba32b960c11b60648201526084015b60405180910390fd5b6040805160806020601f890181900402820181019092526060810187815233926000929182918b908b9081908501838280828437600092019190915250505090825250604080516020601f8a0181900481028201810190925288815291810191908990899081908401838280828437600092019190915250505090825250604080516020601f88018190048102820181019092528681529181019190879087908190840183828082843760009201829052509390945250506001600160a01b0385168152600c60205260409020825192935083929091508190610a529082611e65565b5060208201516001820190610a679082611e65565b5060408201516002820190610a7c9082611e65565b50905050816001600160a01b03167f4a91c5c6c2b23e82aa7b3e531ffa0ec1f52cc09186bfb1a33e0a1823ebe82a44898989898989604051610ac396959493929190611f4e565b60405180910390a25050505050505050565b610ade81611565565b50565b60006108287f7b765e0e932d348852a6f810bfa1ab891e259123f02db8cdcde614c57022335783611540565b6000610b198383611540565b9392505050565b60606000805b600754811015610b84576007805460069160009184908110610b4a57610b4a611f97565b6000918252602080832090910154835282019290925260400190205460ff1615610b7c5781610b7881611fc3565b9250505b600101610b26565b5060008167ffffffffffffffff811115610ba057610ba0611e01565b604051908082528060200260200182016040528015610bc9578160200160208202803683370190505b5090506000805b600754811015610c6a576007805460069160009184908110610bf457610bf4611f97565b6000918252602080832090910154835282019290925260400190205460ff1615610c62576007805482908110610c2c57610c2c611f97565b9060005260206000200154838381518110610c4957610c49611f97565b602090810291909101015281610c5e81611fc3565b9250505b600101610bd0565b50909392505050565b60408051608081018252600080825260208201819052918101919091526060808201526001600160a01b0382811660009081526020819052604090205416610cf85760405162461bcd60e51b815260206004820152601860248201527724b733b2b9ba32b9103237b2b9903737ba1032bc34b9ba1760411b6044820152606401610966565b6001600160a01b03808316600090815260208181526040808320805460019182015495168085529252822080549193929183908110610d3957610d39611f97565b600091825260209182902060408051606081018252600290930290910180546001600160a01b038116845260ff600160a01b90910416151593830184905260010154908201529150610ded576040805160008082526020820190925281610db0565b6060815260200190600190039081610d9b5790505b50604080516080810182526001600160a01b0390981688526020848101511515908901529283015192870192909252506060850152509192915050565b60408082015160009081526006602090815282822060010180548451818402810184019095528085529293929091849084015b82821015610ecc578382906000526020600020018054610e3f90611dc7565b80601f0160208091040260200160405190810160405280929190818152602001828054610e6b90611dc7565b8015610eb85780601f10610e8d57610100808354040283529160200191610eb8565b820191906000526020600020905b815481529060010190602001808311610e9b57829003601f168201915b505050505081526020019060010190610e20565b5050604080516080810182526001600160a01b03909a168a526020868101511515908b015294850151948901949094525060608701525093949350505050565b60606000600b018054806020026020016040519081016040528092919081815260200182805480156105ac5760200282019190600052602060002090815481526020019060010190808311610598575050505050905090565b60606000805b600754811015611006576007805460069160009184908110610f8f57610f8f611f97565b9060005260206000200154815260200190815260200160002060020180549050600003610ffe576007805460069160009184908110610fd057610fd0611f97565b906000526020600020015481526020019081526020016000206001018054905082610ffb9190611fdc565b91505b600101610f6b565b5060008167ffffffffffffffff81111561102257611022611e01565b60405190808252806020026020018201604052801561105557816020015b60608152602001906001900390816110405790505b5090506000805b600754811015610c6a57600780546006916000918490811061108057611080611f97565b90600052602060002001548152602001908152602001600020600201805490506000036111ff5760008060060160008060070184815481106110c4576110c4611f97565b9060005260206000200154815260200190815260200160002060010180549050905060005b818110156111fc57600780546006916000918690811061110b5761110b611f97565b90600052602060002001548152602001908152602001600020600101818154811061113857611138611f97565b90600052602060002001805461114d90611dc7565b80601f016020809104026020016040519081016040528092919081815260200182805461117990611dc7565b80156111c65780601f1061119b576101008083540402835291602001916111c6565b820191906000526020600020905b8154815290600101906020018083116111a957829003601f168201915b50505050508585815181106111dd576111dd611f97565b6020026020010181905250836111f290611fc3565b93506001016110e9565b50505b60010161105c565b6001600160a01b0381166000908152600160209081526040808320805482518185028101850190935280835260609492939192909184015b8282101561129b576000848152602090819020604080516060810182526002860290920180546001600160a01b0381168452600160a01b900460ff1615158385015260019081015491830191909152908352909201910161123f565b505050509050919050565b60408051606081018252600080825260208201819052918101919091526001600160a01b03828116600090815260208190526040902054166113255760405162461bcd60e51b815260206004820152601860248201527724b733b2b9ba32b9103237b2b9903737ba1032bc34b9ba1760411b6044820152606401610966565b6001600160a01b0380831660009081526020818152604080832080546001918201549516808552925290912080549192918290811061136657611366611f97565b600091825260209182902060408051606081018252600290930290910180546001600160a01b038116845260ff600160a01b9091041615159383019390935260019092015491810191909152949350505050565b60606000600901805480602002602001604051908101604052809291908181526020016000905b8282101561148d57838290600052602060002001805461140090611dc7565b80601f016020809104026020016040519081016040528092919081815260200182805461142c90611dc7565b80156114795780601f1061144e57610100808354040283529160200191611479565b820191906000526020600020905b81548152906001019060200180831161145c57829003601f168201915b5050505050815260200190600101906113e1565b50505050905090565b61149f826114b2565b6114a8816114d4565b61084a838361156b565b60009081526000805160206120a5833981519152602052604090206002015490565b610ade81336115cd565b60008281526000805160206120a5833981519152602052604090206115039082611633565b5060405133906001600160a01b0383169084907f2f8788117e7eff1d82e926ec794901d17c78024a50270940304540a733656f0d90600090a45050565b60008281526000805160206120a583398151915260205260408120610b199083611648565b610ade81335b60008281526000805160206120a583398151915260205260409020611590908261166a565b5060405133906001600160a01b0383169084907ff6391f5c32d9c69d2a47ea670b442974b53935d1edc7fd64eb21e047a839171b90600090a45050565b6115d78282611540565b61162f576115ed816001600160a01b031661167f565b6115f8836020611691565b604051602001611609929190611fef565b60408051601f198184030181529082905262461bcd60e51b825261096691600401612064565b5050565b6000610b19836001600160a01b0384166117e4565b6001600160a01b03811660009081526001830160205260408120541515610b19565b6000610b19836001600160a01b038416611827565b60606108286001600160a01b03831660145b606060006116a0836002612077565b6116ab906002611fdc565b67ffffffffffffffff8111156116c3576116c3611e01565b6040519080825280601f01601f1916602001820160405280156116ed576020820181803683370190505b509050600360fc1b8160008151811061170857611708611f97565b60200101906001600160f81b031916908160001a905350600f60fb1b8160018151811061173757611737611f97565b60200101906001600160f81b031916908160001a905350600160028402015b60018111156117c4576f181899199a1a9b1b9c1cb0b131b232b360811b85600f166010811061178757611787611f97565b1a60f81b82828151811061179d5761179d611f97565b60200101906001600160f81b031916908160001a90535060049490941c9360001901611756565b508315610b195760405163c913478560e01b815260040160405180910390fd5b6000818152600183016020526040812054610828575081546001808201845560008481526020808220909301849055845493815293810190915260409092205590565b600081815260018301602052604081205480156118e55783546000908590600019810190811061185957611859611f97565b906000526020600020015490508085600001600184038154811061187f5761187f611f97565b60009182526020808320909101929092559182526001860190526040902081905583548490806118b1576118b161208e565b6001900381819060005260206000200160009055905583600101600084815260200190815260200160002060009055600191505b5092915050565b6000602082840312156118fe57600080fd5b5035919050565b60005b83811015611920578181015183820152602001611908565b50506000910152565b60008151808452611941816020860160208601611905565b601f01601f19169290920160200192915050565b600082825180855260208086019550808260051b84010181860160005b848110156119a057601f1986840301895261198e838351611929565b98840198925090830190600101611972565b5090979650505050505050565b60006020808352835115158184015280840151608060408501526119d460a0850182611955565b6040860151858203601f19016060870152805180835290840192506000918401905b80831015611a1f5783516001600160a01b031682529284019260019290920191908401906119f6565b50606087015160808701528094505050505092915050565b6020808252825182820181905260009190848201906040850190845b81811015611a6f57835183529284019291840191600101611a53565b50909695505050505050565b80356001600160a01b0381168114611a9257600080fd5b919050565b600060208284031215611aa957600080fd5b610b1982611a7b565b602081526000825160606020840152611ace6080840182611929565b90506020840151601f1980858403016040860152611aec8383611929565b9250604086015191508085840301606086015250611b0a8282611929565b95945050505050565b6020808252825182820181905260009190848201906040850190845b81811015611a6f5783516001600160a01b031683529284019291840191600101611b2f565b60008060408385031215611b6757600080fd5b82359150611b7760208401611a7b565b90509250929050565b60008060408385031215611b9357600080fd5b611b9c83611a7b565b9150611b7760208401611a7b565b60008083601f840112611bbc57600080fd5b50813567ffffffffffffffff811115611bd457600080fd5b602083019150836020828501011115611bec57600080fd5b9250929050565b60008060008060008060608789031215611c0c57600080fd5b863567ffffffffffffffff80821115611c2457600080fd5b611c308a838b01611baa565b90985096506020890135915080821115611c4957600080fd5b611c558a838b01611baa565b90965094506040890135915080821115611c6e57600080fd5b50611c7b89828a01611baa565b979a9699509497509295939492505050565b6020815260018060a01b0382511660208201526020820151151560408201526040820151606082015260006060830151608080840152611cd060a0840182611955565b949350505050565b6000602080830181845280855180835260408601915060408160051b870101925083870160005b82811015611d2d57603f19888603018452611d1b858351611929565b94509285019290850190600101611cff565b5092979650505050505050565b6020808252825182820181905260009190848201906040850190845b81811015611a6f57611d8883855180516001600160a01b03168252602080820151151590830152604090810151910152565b9284019260609290920191600101611d56565b81516001600160a01b031681526020808301511515908201526040808301519082015260608101610828565b600181811c90821680611ddb57607f821691505b602082108103611dfb57634e487b7160e01b600052602260045260246000fd5b50919050565b634e487b7160e01b600052604160045260246000fd5b601f82111561084a57600081815260208120601f850160051c81016020861015611e3e5750805b601f850160051c820191505b81811015611e5d57828155600101611e4a565b505050505050565b815167ffffffffffffffff811115611e7f57611e7f611e01565b611e9381611e8d8454611dc7565b84611e17565b602080601f831160018114611ec85760008415611eb05750858301515b600019600386901b1c1916600185901b178555611e5d565b600085815260208120601f198616915b82811015611ef757888601518255948401946001909101908401611ed8565b5085821015611f155787850151600019600388901b60f8161c191681555b5050505050600190811b01905550565b81835281816020850137506000828201602090810191909152601f909101601f19169091010190565b606081526000611f6260608301888a611f25565b8281036020840152611f75818789611f25565b90508281036040840152611f8a818587611f25565b9998505050505050505050565b634e487b7160e01b600052603260045260246000fd5b634e487b7160e01b600052601160045260246000fd5b600060018201611fd557611fd5611fad565b5060010190565b8082018082111561082857610828611fad565b7f416363657373436f6e74726f6c3a206163636f756e7420000000000000000000815260008351612027816017850160208801611905565b7001034b99036b4b9b9b4b733903937b6329607d1b6017918401918201528351612058816028840160208801611905565b01602801949350505050565b602081526000610b196020830184611929565b808202811582820484141761082857610828611fad565b634e487b7160e01b600052603160045260246000fdfed3889cc5458b268d0544e5534672df1296288ca3f93cbd39bd6f497a5c622811a2646970667358221220cd6552ada3bfcd6418f412673c922618382a60c346f7145e708c1bdd3310e6b464736f6c63430008120033",
  "linkReferences": {},
  "deployedLinkReferences": {}
}