{
  "_format": "hh-sol-artifact-1",
  "contractName": "DynamicEscrow",
  "sourceName": "contracts/DynamicEscrow.sol",
  "abi": [
    {
      "inputs": [
        {
          "internalType": "address",
          "name": "trustedAccountAddress",
          "type": "address"
        }
      ],
      "stateMutability": "nonpayable",
      "type": "constructor"
    },
    {
      "anonymous": false,
      "inputs": [
        {
          "indexed": true,
          "internalType": "address",
          "name": "receiver",
          "type": "address"
        },
        {
          "indexed": false,
          "internalType": "uint256",
          "name": "weiAmount",
          "type": "uint256"
        },
        {
          "indexed": false,
          "internalType": "bytes32",
          "name": "poolId",
          "type": "bytes32"
        }
      ],
      "name": "Claimed",
      "type": "event"
    },
    {
      "anonymous": false,
      "inputs": [
        {
          "indexed": true,
          "internalType": "address",
          "name": "spender",
          "type": "address"
        },
        {
          "indexed": false,
          "internalType": "uint256",
          "name": "weiAmount",
          "type": "uint256"
        },
        {
          "indexed": false,
          "internalType": "bytes32",
          "name": "poolId",
          "type": "bytes32"
        }
      ],
      "name": "Deposited",
      "type": "event"
    },
    {
      "anonymous": false,
      "inputs": [
        {
          "indexed": true,
          "internalType": "address",
          "name": "previousOwner",
          "type": "address"
        },
        {
          "indexed": true,
          "internalType": "address",
          "name": "newOwner",
          "type": "address"
        }
      ],
      "name": "OwnershipTransferred",
      "type": "event"
    },
    {
      "anonymous": false,
      "inputs": [
        {
          "indexed": false,
          "internalType": "address",
          "name": "account",
          "type": "address"
        }
      ],
      "name": "Paused",
      "type": "event"
    },
    {
      "anonymous": false,
      "inputs": [
        {
          "indexed": false,
          "internalType": "address",
          "name": "account",
          "type": "address"
        }
      ],
      "name": "Unpaused",
      "type": "event"
    },
    {
      "anonymous": false,
      "inputs": [
        {
          "indexed": true,
          "internalType": "address",
          "name": "receiver",
          "type": "address"
        },
        {
          "indexed": false,
          "internalType": "uint256",
          "name": "weiAmount",
          "type": "uint256"
        },
        {
          "indexed": false,
          "internalType": "bytes32",
          "name": "poolId",
          "type": "bytes32"
        }
      ],
      "name": "Withdrawn",
      "type": "event"
    },
    {
      "inputs": [
        {
          "internalType": "address payable",
          "name": "receiver",
          "type": "address"
        },
        {
          "internalType": "bytes32",
          "name": "poolId",
          "type": "bytes32"
        },
        {
          "internalType": "uint256",
          "name": "amount",
          "type": "uint256"
        },
        {
          "internalType": "address",
          "name": "tokenAddress",
          "type": "address"
        },
        {
          "internalType": "uint256",
          "name": "nonce",
          "type": "uint256"
        },
        {
          "internalType": "bytes",
          "name": "sig",
          "type": "bytes"
        }
      ],
      "name": "claim",
      "outputs": [],
      "stateMutability": "nonpayable",
      "type": "function"
    },
    {
      "inputs": [
        {
          "internalType": "address",
          "name": "spender",
          "type": "address"
        },
        {
          "internalType": "bytes32",
          "name": "poolId",
          "type": "bytes32"
        },
        {
          "internalType": "uint256",
          "name": "amount",
          "type": "uint256"
        },
        {
          "internalType": "address",
          "name": "tokenAddress",
          "type": "address"
        }
      ],
      "name": "deposit",
      "outputs": [],
      "stateMutability": "payable",
      "type": "function"
    },
    {
      "inputs": [
        {
          "internalType": "address",
          "name": "payee",
          "type": "address"
        },
        {
          "internalType": "bytes32",
          "name": "poolId",
          "type": "bytes32"
        }
      ],
      "name": "depositsOf",
      "outputs": [
        {
          "components": [
            {
              "internalType": "uint256",
              "name": "weiAmount",
              "type": "uint256"
            },
            {
              "internalType": "address",
              "name": "tokenAddress",
              "type": "address"
            }
          ],
          "internalType": "struct IEscrow.DynamicDeposit",
          "name": "",
          "type": "tuple"
        }
      ],
      "stateMutability": "view",
      "type": "function"
    },
    {
      "inputs": [],
      "name": "getTrustedAccount",
      "outputs": [
        {
          "internalType": "address",
          "name": "",
          "type": "address"
        }
      ],
      "stateMutability": "view",
      "type": "function"
    },
    {
      "inputs": [],
      "name": "owner",
      "outputs": [
        {
          "internalType": "address",
          "name": "",
          "type": "address"
        }
      ],
      "stateMutability": "view",
      "type": "function"
    },
    {
      "inputs": [],
      "name": "pause",
      "outputs": [],
      "stateMutability": "nonpayable",
      "type": "function"
    },
    {
      "inputs": [],
      "name": "paused",
      "outputs": [
        {
          "internalType": "bool",
          "name": "",
          "type": "bool"
        }
      ],
      "stateMutability": "view",
      "type": "function"
    },
    {
      "inputs": [],
      "name": "renounceOwnership",
      "outputs": [],
      "stateMutability": "nonpayable",
      "type": "function"
    },
    {
      "inputs": [
        {
          "internalType": "address",
          "name": "hypePool",
          "type": "address"
        }
      ],
      "name": "setHypePoolAddress",
      "outputs": [],
      "stateMutability": "nonpayable",
      "type": "function"
    },
    {
      "inputs": [
        {
          "internalType": "address",
          "name": "newOwner",
          "type": "address"
        }
      ],
      "name": "transferOwnership",
      "outputs": [],
      "stateMutability": "nonpayable",
      "type": "function"
    },
    {
      "inputs": [],
      "name": "unpause",
      "outputs": [],
      "stateMutability": "nonpayable",
      "type": "function"
    },
    {
      "inputs": [
        {
          "internalType": "address payable",
          "name": "receiver",
          "type": "address"
        },
        {
          "internalType": "bytes32",
          "name": "poolId",
          "type": "bytes32"
        },
        {
          "internalType": "uint256",
          "name": "amount",
          "type": "uint256"
        }
      ],
      "name": "withdraw",
      "outputs": [],
      "stateMutability": "nonpayable",
      "type": "function"
    }
  ],
  "bytecode": "0x6080346100be57601f61147638819003918201601f19168301916001600160401b038311848410176100c3578084926020946040528339810103126100be57516001600160a01b0390818116908190036100be5760035460405192339082167f8be0079c531659141344cd1fd0a4f28419497f9722a3daafe3b4186f6b6457e0600080a36001600160a81b0319163360ff60a01b1916176003556001600455600580546001600160a01b03191691909117905561139c90816100da8239f35b600080fd5b634e487b7160e01b600052604160045260246000fdfe6080604081815260048036101561001557600080fd5b600092833560e01c9081631aa9e74214610d34575080632917173a14610a9d5780633f4ba83a146109f95780635c975abb146109d2578063715018a6146109695780638456cb59146108f7578063880d49ed146106555780638da5cb5b1461062d578063aa5974d31461020e578063ca72a6e5146101bf578063dee8667f146101935763f2fde38b146100a757600080fd5b3461018f57602036600319011261018f576100c0610dae565b906100c9610e42565b6001600160a01b038092169283156101265750506003548273ffffffffffffffffffffffffffffffffffffffff19821617600355167f8be0079c531659141344cd1fd0a4f28419497f9722a3daafe3b4186f6b6457e0600080a380f35b906020608492519162461bcd60e51b8352820152602660248201527f4f776e61626c653a206e6577206f776e657220697320746865207a65726f206160448201527f64647265737300000000000000000000000000000000000000000000000000006064820152fd5b8280fd5b5050346101bb57816003193601126101bb576020906001600160a01b03600554169051908152f35b5080fd5b833461020b57602036600319011261020b576001600160a01b036101e1610dae565b6101e9610e42565b1673ffffffffffffffffffffffffffffffffffffffff19600054161760005580f35b80fd5b50608036600319011261018f57610223610dae565b60449283356024803590610235610dc4565b9461023e610eed565b610246610e9a565b82895260209160018352858a20966001600160a01b038093169788600052845286600020875161027581610dda565b858560018454948585520154169101526105c75782169889156105485786517f70a08231000000000000000000000000000000000000000000000000000000008152808a01899052848184818f8f5af19081156104cd579087918d91610517575b50106104d75786517fdd62ed3e000000000000000000000000000000000000000000000000000000008152808a018990523083820152848183818f8f5af19081156104cd579087918d91610497575b501061043157908a918a3b1561018f578860648b858e8b82968e5198899788967f23b872dd00000000000000000000000000000000000000000000000000000000885287015230908601528401525af1801561042757610405575b5050906001977fd7eda976cf4919f13172eb15bb39c64cecb7172258c741dab31d14c855eff402959493925b8986516103b881610dda565b868152848101938452858d52818552878d208a600052855287600020905181550191511673ffffffffffffffffffffffffffffffffffffffff198254161790558351928352820152a25580f35b61041490969594939296610e0c565b61042357909192938838610380565b8880fd5b87513d84823e3d90fd5b7f436f6e7472616374206e6f7420616c6c6f77656420746f207370656e6420656e8991602b608494878b519562461bcd60e51b87528601528401528201527f6f75676820746f6b656e730000000000000000000000000000000000000000006064820152fd5b809250868092503d83116104c6575b6104b08183610e20565b810103126104c15786905138610325565b600080fd5b503d6104a6565b88513d8e823e3d90fd5b7f496e73756666696369656e742062616c616e636500000000000000000000000089916014606494878b519562461bcd60e51b8752860152840152820152fd5b809250868092503d8311610541575b6105308183610e20565b810103126104c157869051386102d6565b503d610526565b9085969a999394953403610587575050916001979893917fd7eda976cf4919f13172eb15bb39c64cecb7172258c741dab31d14c855eff40295936103ac565b7f496e76616c696420616d6f756e74000000000000000000000000000000000000606492600e8b93888f519562461bcd60e51b8752860152840152820152fd5b6084897f41206465706f7369742077617320616c7265616479206d61646520666f7220748c602886898d519562461bcd60e51b87528601528401528201527f68697320706f6f6c0000000000000000000000000000000000000000000000006064820152fd5b5050346101bb57816003193601126101bb576020906001600160a01b03600354169051908152f35b503461018f5760c036600319011261018f5761066f610dae565b602480356044359261067f610dc4565b9060843560a4359267ffffffffffffffff958685116108f357366023860112156108f357848901359687116108e2578951928b6020966106c888601f19601f8d01160187610e20565b89865236848b830101116101bb57898b9a858a930183890137860101526106ed610eed565b6106f5610e9a565b6107206107186001600160a01b039561071384888a169d8e8d611312565b611074565b919091610f42565b8480600554169116036108a15761073990888a89611312565b90818c52600286528a8c205461086057508a5260028452888a2086905589929116806107bf57505083858282156107b6575b839283928392f1156107ac5791600195917fd95107f4584744c6c893a04c43058aadd1ce8aac8ca5d64140eaf277de6c1d57935b8351928352820152a25580f35b85513d88823e3d90fd5b506108fc61076b565b80989594983b1561018f57855163a9059cbb60e01b81526001600160a01b03909216828901908152602081018690528391839182908490829060400103925af1801561085657610838575b5050906001957fd95107f4584744c6c893a04c43058aadd1ce8aac8ca5d64140eaf277de6c1d57939261079f565b6108459094939294610e0c565b610852579091863861080a565b8680fd5b85513d84823e3d90fd5b89601b606492888e519362461bcd60e51b85528401528201527f436c61696d3a204861736820616c726561647920636c61696d656400000000006044820152fd5b60648a601884898f519362461bcd60e51b85528401528201527f436c61696d3a20496e76616c6964207369676e617475726500000000000000006044820152fd5b8a60418a634e487b7160e01b835252fd5b8a80fd5b5050346101bb57816003193601126101bb5760207f62e78cea01bee320cd4e420270b5ea74000d11b0c9f74754ebdbfc544b05a25891610935610e42565b61093d610e9a565b7401000000000000000000000000000000000000000060ff60a01b19600354161760035551338152a180f35b833461020b578060031936011261020b57610982610e42565b60006001600160a01b0360035473ffffffffffffffffffffffffffffffffffffffff198116600355167f8be0079c531659141344cd1fd0a4f28419497f9722a3daafe3b4186f6b6457e08280a380f35b5050346101bb57816003193601126101bb5760209060ff60035460a01c1690519015158152f35b503461018f578260031936011261018f57610a12610e42565b6003549060ff8260a01c1615610a5a57507f5db9ee0a495bf2e6ff9c91a7834c1ba4fdd244a5e8aa4e537bd38aeae4b073aa9160ff60a01b196020921660035551338152a180f35b606490602084519162461bcd60e51b8352820152601460248201527f5061757361626c653a206e6f74207061757365640000000000000000000000006044820152fd5b503461018f57606036600319011261018f57610ab7610dae565b60243560443591610ac6610eed565b610ace610e9a565b610ad78261113b565b15610ccb57818652602091600183528587203388528352858720926001600160a01b03938460018201541690805490878210610c8957818803610c6657505082895260018252878920338a52825288600189822082815501555b80610b9d57508780868015610b93575b82809291819289891690f115610b8957917f510b30a02fc9b7506980950b9c615af8c13e88658555c0ea22acffd73d9ea2229391600197935b84519687528601521692a25580f35b86513d89823e3d90fd5b6108fc9150610b41565b80989794939291983b15610c6257845163a9059cbb60e01b81526001600160a01b038416818901908152602081018890529091899183919082908490829060400103925af18015610c5857610c1c575b50907f510b30a02fc9b7506980950b9c615af8c13e88658555c0ea22acffd73d9ea22293929160019798610b7a565b90600197610c4d7f510b30a02fc9b7506980950b9c615af8c13e88658555c0ea22acffd73d9ea22296959493610e0c565b975090919293610bed565b85513d8a823e3d90fd5b8780fd5b878203918211610c765755610b31565b60248b60118b634e487b7160e01b835252fd5b606489858c519162461bcd60e51b8352820152601060248201527f4e6f7420656e6f7567682066756e6473000000000000000000000000000000006044820152fd5b608484602087519162461bcd60e51b8352820152603b60248201527f57697468647261773a20506f6f6c20686173206e6f742079657420656e64656460448201527f206f7220677261636520706572696f64206e6f742070617373656400000000006064820152fd5b8390853461020b578260031936011261020b578083916020610d54610dae565b94610d5e81610dda565b8281520152602435815260016020528181206001600160a01b03809416825260205220908251610d8d81610dda565b60208260018554958685520154169101908152835192835251166020820152f35b600435906001600160a01b03821682036104c157565b606435906001600160a01b03821682036104c157565b6040810190811067ffffffffffffffff821117610df657604052565b634e487b7160e01b600052604160045260246000fd5b67ffffffffffffffff8111610df657604052565b90601f8019910116810190811067ffffffffffffffff821117610df657604052565b6001600160a01b03600354163303610e5657565b606460405162461bcd60e51b815260206004820152602060248201527f4f776e61626c653a2063616c6c6572206973206e6f7420746865206f776e65726044820152fd5b60ff60035460a01c16610ea957565b606460405162461bcd60e51b815260206004820152601060248201527f5061757361626c653a20706175736564000000000000000000000000000000006044820152fd5b600260045414610efe576002600455565b606460405162461bcd60e51b815260206004820152601f60248201527f5265656e7472616e637947756172643a207265656e7472616e742063616c6c006044820152fd5b600581101561105e5780610f535750565b60018103610f9f57606460405162461bcd60e51b815260206004820152601860248201527f45434453413a20696e76616c6964207369676e617475726500000000000000006044820152fd5b60028103610feb57606460405162461bcd60e51b815260206004820152601f60248201527f45434453413a20696e76616c6964207369676e6174757265206c656e677468006044820152fd5b600314610ff457565b608460405162461bcd60e51b815260206004820152602260248201527f45434453413a20696e76616c6964207369676e6174757265202773272076616c60448201527f75650000000000000000000000000000000000000000000000000000000000006064820152fd5b634e487b7160e01b600052602160045260246000fd5b9060418151146000146110a25761109e916020820151906060604084015193015160001a906110ac565b9091565b5050600090600290565b9291907f7fffffffffffffffffffffffffffffff5d576e7357a4501ddfe92f46681b20a0831161112f5791608094939160ff602094604051948552168484015260408301526060820152600093849182805260015afa156111225781516001600160a01b0381161561111c579190565b50600190565b50604051903d90823e3d90fd5b50505050600090600390565b6001600160a01b03906000918083541660408051937f23692edd0000000000000000000000000000000000000000000000000000000085528060048601526020948581602481875afa9081156113085787916112d2575b50156112ca5760e09060248351809581937f24bc597200000000000000000000000000000000000000000000000000000000835260048301525afa9283156112c057859361120c575b50505060a0915001519062093a8082018092116111f85750421190565b80634e487b7160e01b602492526011600452fd5b9091925060e0833d82116112b8575b8161122860e09383610e20565b810103126112b45781519360e0850185811067ffffffffffffffff8211176112a05783528351855280840151918216820361129c579184939160c09360a0960152808201519084015260608101516060840152608081015160808401528381015184840152015160c08201523880806111db565b8580fd5b602487634e487b7160e01b81526041600452fd5b8480fd5b3d915061121b565b81513d87823e3d90fd5b505050505090565b90508581813d8311611301575b6112e98183610e20565b81010312610852575180151581036108525738611192565b503d6112df565b83513d89823e3d90fd5b92909160405192602084019485526bffffffffffffffffffffffff199060601b166040840152605483015260748201526074815260a0810181811067ffffffffffffffff821117610df6576040525190209056fea2646970667358221220afd461a436d2fb9dcbb19c3ce960f9c91fc92266e9e4f7c4a5d36c0aa92c4d7864736f6c63430008120033",
  "linkReferences": {},
  "deployedLinkReferences": {}
}