{
  "_format": "hh-sol-artifact-1",
  "contractName": "DynamicEscrow",
  "sourceName": "contracts/DynamicEscrow.sol",
  "abi": [
    {
      "inputs": [
        {
          "internalType": "address",
          "name": "rewarder",
          "type": "address"
        }
      ],
      "stateMutability": "nonpayable",
      "type": "constructor"
    },
    {
      "anonymous": false,
      "inputs": [
        {
          "indexed": true,
          "internalType": "address",
          "name": "spender",
          "type": "address"
        },
        {
          "indexed": false,
          "internalType": "uint256",
          "name": "weiAmount",
          "type": "uint256"
        },
        {
          "indexed": false,
          "internalType": "uint256",
          "name": "poolId",
          "type": "uint256"
        }
      ],
      "name": "Deposited",
      "type": "event"
    },
    {
      "anonymous": false,
      "inputs": [
        {
          "indexed": true,
          "internalType": "address",
          "name": "previousOwner",
          "type": "address"
        },
        {
          "indexed": true,
          "internalType": "address",
          "name": "newOwner",
          "type": "address"
        }
      ],
      "name": "OwnershipTransferred",
      "type": "event"
    },
    {
      "anonymous": false,
      "inputs": [
        {
          "indexed": false,
          "internalType": "address",
          "name": "account",
          "type": "address"
        }
      ],
      "name": "Paused",
      "type": "event"
    },
    {
      "anonymous": false,
      "inputs": [
        {
          "indexed": true,
          "internalType": "address",
          "name": "receiver",
          "type": "address"
        },
        {
          "indexed": false,
          "internalType": "uint256",
          "name": "weiAmount",
          "type": "uint256"
        },
        {
          "indexed": false,
          "internalType": "uint256",
          "name": "poolId",
          "type": "uint256"
        }
      ],
      "name": "RewardCredited",
      "type": "event"
    },
    {
      "anonymous": false,
      "inputs": [
        {
          "indexed": false,
          "internalType": "address",
          "name": "account",
          "type": "address"
        }
      ],
      "name": "Unpaused",
      "type": "event"
    },
    {
      "anonymous": false,
      "inputs": [
        {
          "indexed": true,
          "internalType": "address",
          "name": "receiver",
          "type": "address"
        },
        {
          "indexed": false,
          "internalType": "uint256",
          "name": "weiAmount",
          "type": "uint256"
        },
        {
          "indexed": false,
          "internalType": "uint256",
          "name": "poolId",
          "type": "uint256"
        }
      ],
      "name": "Withdrawn",
      "type": "event"
    },
    {
      "inputs": [
        {
          "internalType": "address",
          "name": "payee",
          "type": "address"
        },
        {
          "internalType": "uint256",
          "name": "poolId",
          "type": "uint256"
        },
        {
          "internalType": "uint256",
          "name": "amount",
          "type": "uint256"
        }
      ],
      "name": "accrueRewardFor",
      "outputs": [],
      "stateMutability": "nonpayable",
      "type": "function"
    },
    {
      "inputs": [
        {
          "internalType": "address",
          "name": "payee",
          "type": "address"
        },
        {
          "internalType": "uint256",
          "name": "poolId",
          "type": "uint256"
        }
      ],
      "name": "accruedRewardsOf",
      "outputs": [
        {
          "internalType": "uint256",
          "name": "",
          "type": "uint256"
        }
      ],
      "stateMutability": "view",
      "type": "function"
    },
    {
      "inputs": [
        {
          "internalType": "address",
          "name": "spender",
          "type": "address"
        },
        {
          "internalType": "uint256",
          "name": "poolId",
          "type": "uint256"
        },
        {
          "internalType": "uint256",
          "name": "amount",
          "type": "uint256"
        },
        {
          "internalType": "address",
          "name": "tokenAddress",
          "type": "address"
        }
      ],
      "name": "deposit",
      "outputs": [],
      "stateMutability": "payable",
      "type": "function"
    },
    {
      "inputs": [
        {
          "internalType": "address",
          "name": "payee",
          "type": "address"
        },
        {
          "internalType": "uint256",
          "name": "poolId",
          "type": "uint256"
        }
      ],
      "name": "depositsOf",
      "outputs": [
        {
          "components": [
            {
              "internalType": "uint256",
              "name": "weiAmount",
              "type": "uint256"
            },
            {
              "internalType": "address",
              "name": "tokenAddress",
              "type": "address"
            },
            {
              "internalType": "uint256",
              "name": "poolId",
              "type": "uint256"
            }
          ],
          "internalType": "struct IEscrow.DynamicDeposit",
          "name": "",
          "type": "tuple"
        }
      ],
      "stateMutability": "view",
      "type": "function"
    },
    {
      "inputs": [],
      "name": "getRewarder",
      "outputs": [
        {
          "internalType": "address",
          "name": "",
          "type": "address"
        }
      ],
      "stateMutability": "view",
      "type": "function"
    },
    {
      "inputs": [],
      "name": "owner",
      "outputs": [
        {
          "internalType": "address",
          "name": "",
          "type": "address"
        }
      ],
      "stateMutability": "view",
      "type": "function"
    },
    {
      "inputs": [],
      "name": "pause",
      "outputs": [],
      "stateMutability": "nonpayable",
      "type": "function"
    },
    {
      "inputs": [],
      "name": "paused",
      "outputs": [
        {
          "internalType": "bool",
          "name": "",
          "type": "bool"
        }
      ],
      "stateMutability": "view",
      "type": "function"
    },
    {
      "inputs": [
        {
          "internalType": "address",
          "name": "receiver",
          "type": "address"
        },
        {
          "internalType": "address",
          "name": "tokenAddress",
          "type": "address"
        },
        {
          "internalType": "uint256",
          "name": "poolId",
          "type": "uint256"
        }
      ],
      "name": "redeemRewards",
      "outputs": [],
      "stateMutability": "nonpayable",
      "type": "function"
    },
    {
      "inputs": [],
      "name": "renounceOwnership",
      "outputs": [],
      "stateMutability": "nonpayable",
      "type": "function"
    },
    {
      "inputs": [
        {
          "internalType": "address",
          "name": "newOwner",
          "type": "address"
        }
      ],
      "name": "transferOwnership",
      "outputs": [],
      "stateMutability": "nonpayable",
      "type": "function"
    },
    {
      "inputs": [],
      "name": "unpause",
      "outputs": [],
      "stateMutability": "nonpayable",
      "type": "function"
    },
    {
      "inputs": [
        {
          "internalType": "address payable",
          "name": "receiver",
          "type": "address"
        },
        {
          "internalType": "uint256",
          "name": "poolId",
          "type": "uint256"
        },
        {
          "internalType": "uint256",
          "name": "amount",
          "type": "uint256"
        }
      ],
      "name": "withdraw",
      "outputs": [],
      "stateMutability": "nonpayable",
      "type": "function"
    }
  ],
  "bytecode": "0x608060405234801561001057600080fd5b506040516112ab3803806112ab83398101604081905261002f916100be565b6100383361006e565b6000805460ff60a01b1916905560018055600280546001600160a01b0319166001600160a01b03929092169190911790556100ee565b600080546001600160a01b038381166001600160a01b0319831681178455604051919092169283917f8be0079c531659141344cd1fd0a4f28419497f9722a3daafe3b4186f6b6457e09190a35050565b6000602082840312156100d057600080fd5b81516001600160a01b03811681146100e757600080fd5b9392505050565b6111ae806100fd6000396000f3fe6080604052600436106100d25760003560e01c80639015dcc91161007f578063ae22192e11610059578063ae22192e1461021a578063b5c5f67214610265578063f2fde38b14610285578063f9fb6b1a146102a557600080fd5b80639015dcc91461018c578063a7d9e05e146101aa578063abfc083c146101fa57600080fd5b80638456cb59116100b05780638456cb59146101325780638b6099db146101475780638da5cb5b1461015a57600080fd5b80633f4ba83a146100d75780635c975abb146100ee578063715018a61461011d575b600080fd5b3480156100e357600080fd5b506100ec6102c5565b005b3480156100fa57600080fd5b50600054600160a01b900460ff1660405190151581526020015b60405180910390f35b34801561012957600080fd5b506100ec6102d7565b34801561013e57600080fd5b506100ec6102e9565b6100ec610155366004610ff1565b6102f9565b34801561016657600080fd5b506000546001600160a01b03165b6040516001600160a01b039091168152602001610114565b34801561019857600080fd5b506002546001600160a01b0316610174565b3480156101b657600080fd5b506101ec6101c536600461103b565b60009081526004602090815260408083206001600160a01b03949094168352929052205490565b604051908152602001610114565b34801561020657600080fd5b506100ec610215366004611067565b6105b7565b34801561022657600080fd5b5061023a61023536600461103b565b61075f565b60408051825181526020808401516001600160a01b0316908201529181015190820152606001610114565b34801561027157600080fd5b506100ec610280366004611067565b6107d7565b34801561029157600080fd5b506100ec6102a036600461109c565b610a5d565b3480156102b157600080fd5b506100ec6102c03660046110c0565b610aed565b6102cd610cbc565b6102d5610d16565b565b6102df610cbc565b6102d56000610d6b565b6102f1610cbc565b6102d5610dc8565b6002600154036103505760405162461bcd60e51b815260206004820152601f60248201527f5265656e7472616e637947756172643a207265656e7472616e742063616c6c0060448201526064015b60405180910390fd5b60026001556001600160a01b038116156104af576040517f70a082310000000000000000000000000000000000000000000000000000000081526001600160a01b03858116600483015282916000918316906370a08231906024016020604051808303816000875af11580156103ca573d6000803e3d6000fd5b505050506040513d601f19601f820116820180604052508101906103ee9190611101565b9050838110156104405760405162461bcd60e51b815260206004820152601460248201527f496e73756666696369656e742062616c616e63650000000000000000000000006044820152606401610347565b6040516323b872dd60e01b81526001600160a01b038781166004830152306024830152604482018690528316906323b872dd90606401600060405180830381600087803b15801561049057600080fd5b505af11580156104a4573d6000803e3d6000fd5b5050505050506104fe565b8134146104fe5760405162461bcd60e51b815260206004820152600e60248201527f496e76616c696420616d6f756e740000000000000000000000000000000000006044820152606401610347565b604080516060810182528381526001600160a01b0383811660208084019182528385018881526000898152600383528681208b86168083529084529087902086518155935160018501805473ffffffffffffffffffffffffffffffffffffffff19169190961617909455516002909201919091558351868152908101879052919290917f73a19dd210f1a7f902193214c0ee91dd35ee5b4d920cba8d519eca65a7b488ca910160405180910390a2505060018055505050565b6002546001600160a01b031633146106115760405162461bcd60e51b815260206004820152600c60248201527f4f6e6c79526577617264657200000000000000000000000000000000000000006044820152606401610347565b6002600154036106635760405162461bcd60e51b815260206004820152601f60248201527f5265656e7472616e637947756172643a207265656e7472616e742063616c6c006044820152606401610347565b600260015560008281526004602090815260408083206001600160a01b03871684529091528120805483929061069a908490611149565b909155505060008281526004602090815260408083206001600160a01b03871684529091529020548111156107115760405162461bcd60e51b815260206004820152601560248201527f416363727565645265776172644f766572666c6f7700000000000000000000006044820152606401610347565b60408051828152602081018490526001600160a01b038516917f81bfcf71989b04bc9c4a30aa5659f50d7b2964773dc38029019aa1c8752fbe8f91015b60405180910390a250506001805550565b61078c60405180606001604052806000815260200160006001600160a01b03168152602001600081525090565b5060009081526003602090815260408083206001600160a01b039485168452825291829020825160608101845281548152600182015490941691840191909152600201549082015290565b6002600154036108295760405162461bcd60e51b815260206004820152601f60248201527f5265656e7472616e637947756172643a207265656e7472616e742063616c6c006044820152606401610347565b600260015560008281526003602090815260408083203384529091529020548111156108975760405162461bcd60e51b815260206004820152601060248201527f4e6f7420656e6f7567682066756e6473000000000000000000000000000000006044820152606401610347565b60008281526003602090815260408083203384529091529020548190036108fc576000828152600360209081526040808320338452909152812081815560018101805473ffffffffffffffffffffffffffffffffffffffff191690556002015561092b565b600082815260036020908152604080832033845290915281208054839290610925908490611161565b90915550505b60008281526003602090815260408083203384529091529020600101546001600160a01b0316610991576040516001600160a01b0384169082156108fc029083906000818181858888f1935050505015801561098b573d6000803e3d6000fd5b50610a1c565b6000828152600360209081526040808320338452909152908190206001015490516323b872dd60e01b81523060048201526001600160a01b038581166024830152604482018490529091169081906323b872dd90606401600060405180830381600087803b158015610a0257600080fd5b505af1158015610a16573d6000803e3d6000fd5b50505050505b60408051828152602081018490526001600160a01b038516917f92ccf450a286a957af52509bc1c9939d1a6a481783e142e41e2499f0bb66ebc6910161074e565b610a65610cbc565b6001600160a01b038116610ae15760405162461bcd60e51b815260206004820152602660248201527f4f776e61626c653a206e6577206f776e657220697320746865207a65726f206160448201527f64647265737300000000000000000000000000000000000000000000000000006064820152608401610347565b610aea81610d6b565b50565b600260015403610b3f5760405162461bcd60e51b815260206004820152601f60248201527f5265656e7472616e637947756172643a207265656e7472616e742063616c6c006044820152606401610347565b60026001556000818152600460209081526040808320338452909152902054610baa5760405162461bcd60e51b815260206004820152601a60248201527f4e6f7420656e6f756768206163637275656420726577617264730000000000006044820152606401610347565b6000818152600460209081526040808320338452909152812080549190556001600160a01b03831615610c5b576040517fa9059cbb0000000000000000000000000000000000000000000000000000000081526001600160a01b0385811660048301526024820183905284919082169063a9059cbb90604401600060405180830381600087803b158015610c3d57600080fd5b505af1158015610c51573d6000803e3d6000fd5b5050505050610c6e565b610c6e6001600160a01b03851682610e0b565b60408051828152602081018490526001600160a01b038616917f92ccf450a286a957af52509bc1c9939d1a6a481783e142e41e2499f0bb66ebc6910160405180910390a25050600180555050565b6000546001600160a01b031633146102d55760405162461bcd60e51b815260206004820181905260248201527f4f776e61626c653a2063616c6c6572206973206e6f7420746865206f776e65726044820152606401610347565b610d1e610f29565b6000805460ff60a01b191690557f5db9ee0a495bf2e6ff9c91a7834c1ba4fdd244a5e8aa4e537bd38aeae4b073aa335b6040516001600160a01b03909116815260200160405180910390a1565b600080546001600160a01b0383811673ffffffffffffffffffffffffffffffffffffffff19831681178455604051919092169283917f8be0079c531659141344cd1fd0a4f28419497f9722a3daafe3b4186f6b6457e09190a35050565b610dd0610f82565b6000805460ff60a01b1916600160a01b1790557f62e78cea01bee320cd4e420270b5ea74000d11b0c9f74754ebdbfc544b05a258610d4e3390565b80471015610e5b5760405162461bcd60e51b815260206004820152601d60248201527f416464726573733a20696e73756666696369656e742062616c616e63650000006044820152606401610347565b6000826001600160a01b03168260405160006040518083038185875af1925050503d8060008114610ea8576040519150601f19603f3d011682016040523d82523d6000602084013e610ead565b606091505b5050905080610f245760405162461bcd60e51b815260206004820152603a60248201527f416464726573733a20756e61626c6520746f2073656e642076616c75652c207260448201527f6563697069656e74206d617920686176652072657665727465640000000000006064820152608401610347565b505050565b600054600160a01b900460ff166102d55760405162461bcd60e51b815260206004820152601460248201527f5061757361626c653a206e6f74207061757365640000000000000000000000006044820152606401610347565b600054600160a01b900460ff16156102d55760405162461bcd60e51b815260206004820152601060248201527f5061757361626c653a20706175736564000000000000000000000000000000006044820152606401610347565b6001600160a01b0381168114610aea57600080fd5b6000806000806080858703121561100757600080fd5b843561101281610fdc565b93506020850135925060408501359150606085013561103081610fdc565b939692955090935050565b6000806040838503121561104e57600080fd5b823561105981610fdc565b946020939093013593505050565b60008060006060848603121561107c57600080fd5b833561108781610fdc565b95602085013595506040909401359392505050565b6000602082840312156110ae57600080fd5b81356110b981610fdc565b9392505050565b6000806000606084860312156110d557600080fd5b83356110e081610fdc565b925060208401356110f081610fdc565b929592945050506040919091013590565b60006020828403121561111357600080fd5b5051919050565b7f4e487b7100000000000000000000000000000000000000000000000000000000600052601160045260246000fd5b6000821982111561115c5761115c61111a565b500190565b6000828210156111735761117361111a565b50039056fea2646970667358221220653c6841d7cfce4c825bfaddbe709e2cf8497d08809fa4b5b71e5713c9b2d7d864736f6c634300080e0033",
  "linkReferences": {},
  "deployedLinkReferences": {}
}