{
  "_format": "hh-sol-artifact-1",
  "contractName": "DynamicEscrow",
  "sourceName": "contracts/DynamicEscrow.sol",
  "abi": [
    {
      "inputs": [
        {
          "internalType": "address",
          "name": "trustedAccountAddress",
          "type": "address"
        }
      ],
      "stateMutability": "nonpayable",
      "type": "constructor"
    },
    {
      "anonymous": false,
      "inputs": [
        {
          "indexed": true,
          "internalType": "address",
          "name": "receiver",
          "type": "address"
        },
        {
          "indexed": false,
          "internalType": "uint256",
          "name": "weiAmount",
          "type": "uint256"
        },
        {
          "indexed": false,
          "internalType": "bytes32",
          "name": "poolId",
          "type": "bytes32"
        }
      ],
      "name": "Claimed",
      "type": "event"
    },
    {
      "anonymous": false,
      "inputs": [
        {
          "indexed": true,
          "internalType": "address",
          "name": "spender",
          "type": "address"
        },
        {
          "indexed": false,
          "internalType": "uint256",
          "name": "weiAmount",
          "type": "uint256"
        },
        {
          "indexed": false,
          "internalType": "bytes32",
          "name": "poolId",
          "type": "bytes32"
        }
      ],
      "name": "Deposited",
      "type": "event"
    },
    {
      "anonymous": false,
      "inputs": [
        {
          "indexed": true,
          "internalType": "address",
          "name": "previousOwner",
          "type": "address"
        },
        {
          "indexed": true,
          "internalType": "address",
          "name": "newOwner",
          "type": "address"
        }
      ],
      "name": "OwnershipTransferred",
      "type": "event"
    },
    {
      "anonymous": false,
      "inputs": [
        {
          "indexed": false,
          "internalType": "address",
          "name": "account",
          "type": "address"
        }
      ],
      "name": "Paused",
      "type": "event"
    },
    {
      "anonymous": false,
      "inputs": [
        {
          "indexed": false,
          "internalType": "address",
          "name": "account",
          "type": "address"
        }
      ],
      "name": "Unpaused",
      "type": "event"
    },
    {
      "anonymous": false,
      "inputs": [
        {
          "indexed": true,
          "internalType": "address",
          "name": "receiver",
          "type": "address"
        },
        {
          "indexed": false,
          "internalType": "uint256",
          "name": "weiAmount",
          "type": "uint256"
        },
        {
          "indexed": false,
          "internalType": "bytes32",
          "name": "poolId",
          "type": "bytes32"
        }
      ],
      "name": "Withdrawn",
      "type": "event"
    },
    {
      "inputs": [
        {
          "internalType": "address payable",
          "name": "receiver",
          "type": "address"
        },
        {
          "internalType": "bytes32",
          "name": "poolId",
          "type": "bytes32"
        },
        {
          "internalType": "uint256",
          "name": "amount",
          "type": "uint256"
        },
        {
          "internalType": "address",
          "name": "tokenAddress",
          "type": "address"
        },
        {
          "internalType": "uint256",
          "name": "nonce",
          "type": "uint256"
        },
        {
          "internalType": "bytes",
          "name": "sig",
          "type": "bytes"
        }
      ],
      "name": "claim",
      "outputs": [],
      "stateMutability": "nonpayable",
      "type": "function"
    },
    {
      "inputs": [
        {
          "internalType": "address",
          "name": "spender",
          "type": "address"
        },
        {
          "internalType": "bytes32",
          "name": "poolId",
          "type": "bytes32"
        },
        {
          "internalType": "uint256",
          "name": "amount",
          "type": "uint256"
        },
        {
          "internalType": "address",
          "name": "tokenAddress",
          "type": "address"
        }
      ],
      "name": "deposit",
      "outputs": [],
      "stateMutability": "payable",
      "type": "function"
    },
    {
      "inputs": [
        {
          "internalType": "address",
          "name": "payee",
          "type": "address"
        },
        {
          "internalType": "bytes32",
          "name": "poolId",
          "type": "bytes32"
        }
      ],
      "name": "depositsOf",
      "outputs": [
        {
          "components": [
            {
              "internalType": "uint256",
              "name": "weiAmount",
              "type": "uint256"
            },
            {
              "internalType": "address",
              "name": "tokenAddress",
              "type": "address"
            },
            {
              "internalType": "bytes32",
              "name": "poolId",
              "type": "bytes32"
            }
          ],
          "internalType": "struct IEscrow.DynamicDeposit",
          "name": "",
          "type": "tuple"
        }
      ],
      "stateMutability": "view",
      "type": "function"
    },
    {
      "inputs": [],
      "name": "getTrustedAccount",
      "outputs": [
        {
          "internalType": "address",
          "name": "",
          "type": "address"
        }
      ],
      "stateMutability": "view",
      "type": "function"
    },
    {
      "inputs": [],
      "name": "owner",
      "outputs": [
        {
          "internalType": "address",
          "name": "",
          "type": "address"
        }
      ],
      "stateMutability": "view",
      "type": "function"
    },
    {
      "inputs": [],
      "name": "pause",
      "outputs": [],
      "stateMutability": "nonpayable",
      "type": "function"
    },
    {
      "inputs": [],
      "name": "paused",
      "outputs": [
        {
          "internalType": "bool",
          "name": "",
          "type": "bool"
        }
      ],
      "stateMutability": "view",
      "type": "function"
    },
    {
      "inputs": [],
      "name": "renounceOwnership",
      "outputs": [],
      "stateMutability": "nonpayable",
      "type": "function"
    },
    {
      "inputs": [
        {
          "internalType": "address",
          "name": "newOwner",
          "type": "address"
        }
      ],
      "name": "transferOwnership",
      "outputs": [],
      "stateMutability": "nonpayable",
      "type": "function"
    },
    {
      "inputs": [],
      "name": "unpause",
      "outputs": [],
      "stateMutability": "nonpayable",
      "type": "function"
    },
    {
      "inputs": [
        {
          "internalType": "address payable",
          "name": "receiver",
          "type": "address"
        },
        {
          "internalType": "bytes32",
          "name": "poolId",
          "type": "bytes32"
        },
        {
          "internalType": "uint256",
          "name": "amount",
          "type": "uint256"
        }
      ],
      "name": "withdraw",
      "outputs": [],
      "stateMutability": "nonpayable",
      "type": "function"
    }
  ],
  "bytecode": "0x608060405234801561001057600080fd5b5060405161141d38038061141d83398101604081905261002f916100c1565b6100383361006f565b6002805460ff60a01b191690556001600355600480546001600160a01b0319166001600160a01b03929092169190911790556100f1565b600280546001600160a01b038381166001600160a01b0319831681179093556040519116919082907f8be0079c531659141344cd1fd0a4f28419497f9722a3daafe3b4186f6b6457e090600090a35050565b6000602082840312156100d357600080fd5b81516001600160a01b03811681146100ea57600080fd5b9392505050565b61131d806101006000396000f3fe6080604052600436106100bc5760003560e01c80638456cb5911610074578063aa5974d31161004e578063aa5974d3146101ee578063dee8667f14610201578063f2fde38b1461021f57600080fd5b80638456cb5914610187578063880d49ed1461019c5780638da5cb5b146101bc57600080fd5b80633f4ba83a116100a55780633f4ba83a146101335780635c975abb14610148578063715018a61461017257600080fd5b80631aa9e742146100c15780632917173a14610111575b600080fd5b3480156100cd57600080fd5b506100e16100dc3660046110c0565b61023f565b60408051825181526020808401516001600160a01b03169082015291810151908201526060015b60405180910390f35b34801561011d57600080fd5b5061013161012c3660046110ec565b6102ac565b005b34801561013f57600080fd5b506101316102d6565b34801561015457600080fd5b50600254600160a01b900460ff166040519015158152602001610108565b34801561017e57600080fd5b506101316102e8565b34801561019357600080fd5b506101316102fa565b3480156101a857600080fd5b506101316101b7366004611137565b61030a565b3480156101c857600080fd5b506002546001600160a01b03165b6040516001600160a01b039091168152602001610108565b6101316101fc366004611229565b6103f2565b34801561020d57600080fd5b506004546001600160a01b03166101d6565b34801561022b57600080fd5b5061013161023a366004611273565b61041e565b6040805160608101825260008082526020820181905291810191909152506000818152602081815260408083206001600160a01b03808716855290835292819020815160608101835281548152600182015490941692840192909252600290910154908201525b92915050565b6102b46104ae565b6102bc610507565b6102c7838383610561565b6102d16001600355565b505050565b6102de61073b565b6102e6610795565b565b6102f061073b565b6102e660006107ea565b61030261073b565b6102e6610849565b6103126104ae565b61031a610507565b604080516bffffffffffffffffffffffff19606089901b1660208083019190915260348201879052605480830186905283518084039091018152607490920190925280519101206004546001600160a01b0316610377828461088c565b6001600160a01b0316146103d25760405162461bcd60e51b815260206004820152601860248201527f436c61696d3a20496e76616c6964207369676e6174757265000000000000000060448201526064015b60405180910390fd5b6103df87878787876108b0565b506103ea6001600355565b505050505050565b6103fa6104ae565b610402610507565b61040e84848484610a64565b6104186001600355565b50505050565b61042661073b565b6001600160a01b0381166104a25760405162461bcd60e51b815260206004820152602660248201527f4f776e61626c653a206e6577206f776e657220697320746865207a65726f206160448201527f646472657373000000000000000000000000000000000000000000000000000060648201526084016103c9565b6104ab816107ea565b50565b6002600354036105005760405162461bcd60e51b815260206004820152601f60248201527f5265656e7472616e637947756172643a207265656e7472616e742063616c6c0060448201526064016103c9565b6002600355565b600254600160a01b900460ff16156102e65760405162461bcd60e51b815260206004820152601060248201527f5061757361626c653a207061757365640000000000000000000000000000000060448201526064016103c9565b6000828152602081815260408083203384529091529020600181015481546001600160a01b03909116908311156105da5760405162461bcd60e51b815260206004820152601060248201527f4e6f7420656e6f7567682066756e64730000000000000000000000000000000060448201526064016103c9565b815483900361062557600084815260208181526040808320338452909152812081815560018101805473ffffffffffffffffffffffffffffffffffffffff191690556002015561063f565b828260000160008282546106399190611297565b90915550505b6001600160a01b038116610689576040516001600160a01b0386169084156108fc029085906000818181858888f19350505050158015610683573d6000803e3d6000fd5b506106f0565b60405163a9059cbb60e01b81526001600160a01b0386811660048301526024820185905282919082169063a9059cbb90604401600060405180830381600087803b1580156106d657600080fd5b505af11580156106ea573d6000803e3d6000fd5b50505050505b60408051848152602081018690526001600160a01b038716917f510b30a02fc9b7506980950b9c615af8c13e88658555c0ea22acffd73d9ea222910160405180910390a25050505050565b6002546001600160a01b031633146102e65760405162461bcd60e51b815260206004820181905260248201527f4f776e61626c653a2063616c6c6572206973206e6f7420746865206f776e657260448201526064016103c9565b61079d610de4565b6002805460ff60a01b191690557f5db9ee0a495bf2e6ff9c91a7834c1ba4fdd244a5e8aa4e537bd38aeae4b073aa335b6040516001600160a01b03909116815260200160405180910390a1565b600280546001600160a01b0383811673ffffffffffffffffffffffffffffffffffffffff19831681179093556040519116919082907f8be0079c531659141344cd1fd0a4f28419497f9722a3daafe3b4186f6b6457e090600090a35050565b610851610507565b6002805460ff60a01b1916600160a01b1790557f62e78cea01bee320cd4e420270b5ea74000d11b0c9f74754ebdbfc544b05a2586107cd3390565b600080600061089b8585610e3d565b915091506108a881610e82565b509392505050565b604080516bffffffffffffffffffffffff19606088901b1660208083019190915260348201869052605480830185905283518084039091018152607490920183528151918101919091206000818152600190925291902054156109555760405162461bcd60e51b815260206004820152601b60248201527f436c61696d3a204861736820616c726561647920636c61696d6564000000000060448201526064016103c9565b60008181526001602052604090208490556001600160a01b0383166109b0576040516001600160a01b0387169085156108fc029086906000818181858888f193505050501580156109aa573d6000803e3d6000fd5b50610a17565b60405163a9059cbb60e01b81526001600160a01b0387811660048301526024820186905284919082169063a9059cbb90604401600060405180830381600087803b1580156109fd57600080fd5b505af1158015610a11573d6000803e3d6000fd5b50505050505b60408051858152602081018790526001600160a01b038816917fd95107f4584744c6c893a04c43058aadd1ce8aac8ca5d64140eaf277de6c1d5791015b60405180910390a2505050505050565b6000838152602081815260408083206001600160a01b038089168552908352928190208151606081018352815480825260018301549095169381019390935260020154908201529015610b1f5760405162461bcd60e51b815260206004820152602860248201527f41206465706f7369742077617320616c7265616479206d61646520666f72207460448201527f68697320706f6f6c00000000000000000000000000000000000000000000000060648201526084016103c9565b6001600160a01b03821615610c92576040517f70a082310000000000000000000000000000000000000000000000000000000081526001600160a01b03868116600483015283916000918316906370a08231906024016020604051808303816000875af1158015610b94573d6000803e3d6000fd5b505050506040513d601f19601f82011682018060405250810190610bb891906112b8565b905084811015610c0a5760405162461bcd60e51b815260206004820152601460248201527f496e73756666696369656e742062616c616e636500000000000000000000000060448201526064016103c9565b6040517f23b872dd0000000000000000000000000000000000000000000000000000000081526001600160a01b038881166004830152306024830152604482018790528316906323b872dd90606401600060405180830381600087803b158015610c7357600080fd5b505af1158015610c87573d6000803e3d6000fd5b505050505050610ce1565b823414610ce15760405162461bcd60e51b815260206004820152600e60248201527f496e76616c696420616d6f756e7400000000000000000000000000000000000060448201526064016103c9565b604080516060810182528481526001600160a01b03848116602080840191825283850189815260008a81528083528681208c861682529092529481208451808255925160018201805473ffffffffffffffffffffffffffffffffffffffff191691909516179093559351600290920191909155909103610da35760405162461bcd60e51b815260206004820181905260248201527f4661696c656420746f2073617665206465706f736974206f6e20636861696e2160448201526064016103c9565b60408051858152602081018790526001600160a01b038816917fd7eda976cf4919f13172eb15bb39c64cecb7172258c741dab31d14c855eff4029101610a54565b600254600160a01b900460ff166102e65760405162461bcd60e51b815260206004820152601460248201527f5061757361626c653a206e6f742070617573656400000000000000000000000060448201526064016103c9565b6000808251604103610e735760208301516040840151606085015160001a610e6787828585610fe7565b94509450505050610e7b565b506000905060025b9250929050565b6000816004811115610e9657610e966112d1565b03610e9e5750565b6001816004811115610eb257610eb26112d1565b03610eff5760405162461bcd60e51b815260206004820152601860248201527f45434453413a20696e76616c6964207369676e6174757265000000000000000060448201526064016103c9565b6002816004811115610f1357610f136112d1565b03610f605760405162461bcd60e51b815260206004820152601f60248201527f45434453413a20696e76616c6964207369676e6174757265206c656e6774680060448201526064016103c9565b6003816004811115610f7457610f746112d1565b036104ab5760405162461bcd60e51b815260206004820152602260248201527f45434453413a20696e76616c6964207369676e6174757265202773272076616c60448201527f756500000000000000000000000000000000000000000000000000000000000060648201526084016103c9565b6000807f7fffffffffffffffffffffffffffffff5d576e7357a4501ddfe92f46681b20a083111561101e57506000905060036110a2565b6040805160008082526020820180845289905260ff881692820192909252606081018690526080810185905260019060a0016020604051602081039080840390855afa158015611072573d6000803e3d6000fd5b5050604051601f1901519150506001600160a01b03811661109b576000600192509250506110a2565b9150600090505b94509492505050565b6001600160a01b03811681146104ab57600080fd5b600080604083850312156110d357600080fd5b82356110de816110ab565b946020939093013593505050565b60008060006060848603121561110157600080fd5b833561110c816110ab565b95602085013595506040909401359392505050565b634e487b7160e01b600052604160045260246000fd5b60008060008060008060c0878903121561115057600080fd5b863561115b816110ab565b955060208701359450604087013593506060870135611179816110ab565b92506080870135915060a087013567ffffffffffffffff8082111561119d57600080fd5b818901915089601f8301126111b157600080fd5b8135818111156111c3576111c3611121565b604051601f8201601f19908116603f011681019083821181831017156111eb576111eb611121565b816040528281528c602084870101111561120457600080fd5b8260208601602083013760006020848301015280955050505050509295509295509295565b6000806000806080858703121561123f57600080fd5b843561124a816110ab565b935060208501359250604085013591506060850135611268816110ab565b939692955090935050565b60006020828403121561128557600080fd5b8135611290816110ab565b9392505050565b818103818111156102a657634e487b7160e01b600052601160045260246000fd5b6000602082840312156112ca57600080fd5b5051919050565b634e487b7160e01b600052602160045260246000fdfea2646970667358221220e0729dd6bebf48b50e7c71fec6fb830474177a5390a27df46936c6b897c9976e64736f6c63430008120033",
  "linkReferences": {},
  "deployedLinkReferences": {}
}