{
  "_format": "hh-sol-artifact-1",
  "contractName": "DynamicEscrow",
  "sourceName": "contracts/DynamicEscrow.sol",
  "abi": [
    {
      "inputs": [
        {
          "internalType": "address",
          "name": "rewarder",
          "type": "address"
        },
        {
          "internalType": "address",
          "name": "trustedAccountAddress",
          "type": "address"
        }
      ],
      "stateMutability": "nonpayable",
      "type": "constructor"
    },
    {
      "anonymous": false,
      "inputs": [
        {
          "indexed": true,
          "internalType": "address",
          "name": "receiver",
          "type": "address"
        },
        {
          "indexed": false,
          "internalType": "uint256",
          "name": "weiAmount",
          "type": "uint256"
        },
        {
          "indexed": false,
          "internalType": "bytes32",
          "name": "poolId",
          "type": "bytes32"
        }
      ],
      "name": "Claimed",
      "type": "event"
    },
    {
      "anonymous": false,
      "inputs": [
        {
          "indexed": true,
          "internalType": "address",
          "name": "spender",
          "type": "address"
        },
        {
          "indexed": false,
          "internalType": "uint256",
          "name": "weiAmount",
          "type": "uint256"
        },
        {
          "indexed": false,
          "internalType": "bytes32",
          "name": "poolId",
          "type": "bytes32"
        }
      ],
      "name": "Deposited",
      "type": "event"
    },
    {
      "anonymous": false,
      "inputs": [
        {
          "indexed": true,
          "internalType": "address",
          "name": "previousOwner",
          "type": "address"
        },
        {
          "indexed": true,
          "internalType": "address",
          "name": "newOwner",
          "type": "address"
        }
      ],
      "name": "OwnershipTransferred",
      "type": "event"
    },
    {
      "anonymous": false,
      "inputs": [
        {
          "indexed": false,
          "internalType": "address",
          "name": "account",
          "type": "address"
        }
      ],
      "name": "Paused",
      "type": "event"
    },
    {
      "anonymous": false,
      "inputs": [
        {
          "indexed": false,
          "internalType": "address",
          "name": "account",
          "type": "address"
        }
      ],
      "name": "Unpaused",
      "type": "event"
    },
    {
      "anonymous": false,
      "inputs": [
        {
          "indexed": true,
          "internalType": "address",
          "name": "receiver",
          "type": "address"
        },
        {
          "indexed": false,
          "internalType": "uint256",
          "name": "weiAmount",
          "type": "uint256"
        },
        {
          "indexed": false,
          "internalType": "bytes32",
          "name": "poolId",
          "type": "bytes32"
        }
      ],
      "name": "Withdrawn",
      "type": "event"
    },
    {
      "inputs": [
        {
          "internalType": "address payable",
          "name": "receiver",
          "type": "address"
        },
        {
          "internalType": "bytes32",
          "name": "poolId",
          "type": "bytes32"
        },
        {
          "internalType": "uint256",
          "name": "amount",
          "type": "uint256"
        },
        {
          "internalType": "address",
          "name": "tokenAddress",
          "type": "address"
        },
        {
          "internalType": "uint256",
          "name": "nonce",
          "type": "uint256"
        },
        {
          "internalType": "bytes",
          "name": "sig",
          "type": "bytes"
        }
      ],
      "name": "claim",
      "outputs": [],
      "stateMutability": "nonpayable",
      "type": "function"
    },
    {
      "inputs": [
        {
          "internalType": "address",
          "name": "spender",
          "type": "address"
        },
        {
          "internalType": "bytes32",
          "name": "poolId",
          "type": "bytes32"
        },
        {
          "internalType": "uint256",
          "name": "amount",
          "type": "uint256"
        },
        {
          "internalType": "address",
          "name": "tokenAddress",
          "type": "address"
        }
      ],
      "name": "deposit",
      "outputs": [],
      "stateMutability": "payable",
      "type": "function"
    },
    {
      "inputs": [
        {
          "internalType": "address",
          "name": "payee",
          "type": "address"
        },
        {
          "internalType": "bytes32",
          "name": "poolId",
          "type": "bytes32"
        }
      ],
      "name": "depositsOf",
      "outputs": [
        {
          "components": [
            {
              "internalType": "uint256",
              "name": "weiAmount",
              "type": "uint256"
            },
            {
              "internalType": "address",
              "name": "tokenAddress",
              "type": "address"
            },
            {
              "internalType": "bytes32",
              "name": "poolId",
              "type": "bytes32"
            }
          ],
          "internalType": "struct IEscrow.DynamicDeposit",
          "name": "",
          "type": "tuple"
        }
      ],
      "stateMutability": "view",
      "type": "function"
    },
    {
      "inputs": [],
      "name": "getRewarder",
      "outputs": [
        {
          "internalType": "address",
          "name": "",
          "type": "address"
        }
      ],
      "stateMutability": "view",
      "type": "function"
    },
    {
      "inputs": [],
      "name": "getTrustedAccount",
      "outputs": [
        {
          "internalType": "address",
          "name": "",
          "type": "address"
        }
      ],
      "stateMutability": "view",
      "type": "function"
    },
    {
      "inputs": [],
      "name": "owner",
      "outputs": [
        {
          "internalType": "address",
          "name": "",
          "type": "address"
        }
      ],
      "stateMutability": "view",
      "type": "function"
    },
    {
      "inputs": [],
      "name": "pause",
      "outputs": [],
      "stateMutability": "nonpayable",
      "type": "function"
    },
    {
      "inputs": [],
      "name": "paused",
      "outputs": [
        {
          "internalType": "bool",
          "name": "",
          "type": "bool"
        }
      ],
      "stateMutability": "view",
      "type": "function"
    },
    {
      "inputs": [],
      "name": "renounceOwnership",
      "outputs": [],
      "stateMutability": "nonpayable",
      "type": "function"
    },
    {
      "inputs": [
        {
          "internalType": "address",
          "name": "newOwner",
          "type": "address"
        }
      ],
      "name": "transferOwnership",
      "outputs": [],
      "stateMutability": "nonpayable",
      "type": "function"
    },
    {
      "inputs": [],
      "name": "unpause",
      "outputs": [],
      "stateMutability": "nonpayable",
      "type": "function"
    },
    {
      "inputs": [
        {
          "internalType": "address payable",
          "name": "receiver",
          "type": "address"
        },
        {
          "internalType": "bytes32",
          "name": "poolId",
          "type": "bytes32"
        },
        {
          "internalType": "uint256",
          "name": "amount",
          "type": "uint256"
        }
      ],
      "name": "withdraw",
      "outputs": [],
      "stateMutability": "nonpayable",
      "type": "function"
    }
  ],
  "bytecode": "0x60806040523480156200001157600080fd5b5060405162001547380380620015478339810160408190526200003491620000ef565b6200003f3362000082565b6000805460ff60a01b1916905560018055600280546001600160a01b039384166001600160a01b0319918216179091556003805492909316911617905562000127565b600080546001600160a01b038381166001600160a01b0319831681178455604051919092169283917f8be0079c531659141344cd1fd0a4f28419497f9722a3daafe3b4186f6b6457e09190a35050565b80516001600160a01b0381168114620000ea57600080fd5b919050565b600080604083850312156200010357600080fd5b6200010e83620000d2565b91506200011e60208401620000d2565b90509250929050565b61141080620001376000396000f3fe6080604052600436106100c75760003560e01c8063880d49ed11610074578063aa5974d31161004e578063aa5974d314610274578063dee8667f14610287578063f2fde38b146102a557600080fd5b8063880d49ed146102045780638da5cb5b146102245780639015dcc91461025657600080fd5b80635c975abb116100a55780635c975abb146101b0578063715018a6146101da5780638456cb59146101ef57600080fd5b80631aa9e742146100cc5780632917173a146101795780633f4ba83a1461019b575b600080fd5b3480156100d857600080fd5b506101496100e7366004611149565b604080516060808201835260008083526020808401829052928401819052938452600482528284206001600160a01b03958616855282529282902082519384018352805484526001810154909416908301526002909201549181019190915290565b60408051825181526020808401516001600160a01b03169082015291810151908201526060015b60405180910390f35b34801561018557600080fd5b50610199610194366004611175565b6102c5565b005b3480156101a757600080fd5b5061019961050d565b3480156101bc57600080fd5b50600054600160a01b900460ff166040519015158152602001610170565b3480156101e657600080fd5b5061019961051f565b3480156101fb57600080fd5b50610199610531565b34801561021057600080fd5b5061019961021f3660046111c0565b610541565b34801561023057600080fd5b506000546001600160a01b03165b6040516001600160a01b039091168152602001610170565b34801561026257600080fd5b506002546001600160a01b031661023e565b6101996102823660046112b2565b610778565b34801561029357600080fd5b506003546001600160a01b031661023e565b3480156102b157600080fd5b506101996102c03660046112fc565b610b1f565b6102cd610baf565b6102d5610c08565b60008281526004602090815260408083203384529091529020600181015481546001600160a01b03909116908311156103555760405162461bcd60e51b815260206004820152601060248201527f4e6f7420656e6f7567682066756e64730000000000000000000000000000000060448201526064015b60405180910390fd5b60408051808201909152601081527f746f6b656e206164647265737320697300000000000000000000000000000000602082015260018301546103a191906001600160a01b0316610c62565b81548390036103ee576000848152600460209081526040808320338452909152812081815560018101805473ffffffffffffffffffffffffffffffffffffffff1916905560020155610408565b828260000160008282546104029190611320565b90915550505b6001600160a01b038116610452576040516001600160a01b0386169084156108fc029085906000818181858888f1935050505015801561044c573d6000803e3d6000fd5b506104b9565b60405163a9059cbb60e01b81526001600160a01b0386811660048301526024820185905282919082169063a9059cbb90604401600060405180830381600087803b15801561049f57600080fd5b505af11580156104b3573d6000803e3d6000fd5b50505050505b60408051848152602081018690526001600160a01b038716917f510b30a02fc9b7506980950b9c615af8c13e88658555c0ea22acffd73d9ea222910160405180910390a2505061050860018055565b505050565b610515610cd9565b61051d610d33565b565b610527610cd9565b61051d6000610d88565b610539610cd9565b61051d610de5565b610549610baf565b610551610c08565b604080516bffffffffffffffffffffffff19606089901b1660208083019190915260348201879052605480830186905283518084039091018152607490920190925280519101206003546001600160a01b03166105ae8284610e28565b6001600160a01b0316146106045760405162461bcd60e51b815260206004820152601860248201527f436c61696d3a20496e76616c6964207369676e61747572650000000000000000604482015260640161034c565b600081815260056020526040902054156106605760405162461bcd60e51b815260206004820152601b60248201527f436c61696d3a204861736820616c726561647920636c61696d65640000000000604482015260640161034c565b60008181526005602052604090208590556001600160a01b0384166106bb576040516001600160a01b0388169086156108fc029087906000818181858888f193505050501580156106b5573d6000803e3d6000fd5b50610722565b60405163a9059cbb60e01b81526001600160a01b0388811660048301526024820187905285919082169063a9059cbb90604401600060405180830381600087803b15801561070857600080fd5b505af115801561071c573d6000803e3d6000fd5b50505050505b60408051868152602081018890526001600160a01b038916917fd95107f4584744c6c893a04c43058aadd1ce8aac8ca5d64140eaf277de6c1d57910160405180910390a25061077060018055565b505050505050565b610780610baf565b610788610c08565b60008381526004602090815260408083206001600160a01b0380891685529083529281902081516060810183528154808252600183015490951693810193909352600201549082015290156108455760405162461bcd60e51b815260206004820152602860248201527f41206465706f7369742077617320616c7265616479206d61646520666f72207460448201527f68697320706f6f6c000000000000000000000000000000000000000000000000606482015260840161034c565b6001600160a01b038216156109b8576040517f70a082310000000000000000000000000000000000000000000000000000000081526001600160a01b03868116600483015283916000918316906370a08231906024016020604051808303816000875af11580156108ba573d6000803e3d6000fd5b505050506040513d601f19601f820116820180604052508101906108de9190611345565b9050848110156109305760405162461bcd60e51b815260206004820152601460248201527f496e73756666696369656e742062616c616e6365000000000000000000000000604482015260640161034c565b6040517f23b872dd0000000000000000000000000000000000000000000000000000000081526001600160a01b038881166004830152306024830152604482018790528316906323b872dd90606401600060405180830381600087803b15801561099957600080fd5b505af11580156109ad573d6000803e3d6000fd5b505050505050610a07565b823414610a075760405162461bcd60e51b815260206004820152600e60248201527f496e76616c696420616d6f756e74000000000000000000000000000000000000604482015260640161034c565b604080516060810182528481526001600160a01b03848116602080840191825283850189815260008a8152600483528681208c861682529092529481208451808255925160018201805473ffffffffffffffffffffffffffffffffffffffff191691909516179093559351600290920191909155909103610aca5760405162461bcd60e51b815260206004820181905260248201527f4661696c656420746f2073617665206465706f736974206f6e20636861696e21604482015260640161034c565b60408051858152602081018790526001600160a01b038816917fd7eda976cf4919f13172eb15bb39c64cecb7172258c741dab31d14c855eff402910160405180910390a25050610b1960018055565b50505050565b610b27610cd9565b6001600160a01b038116610ba35760405162461bcd60e51b815260206004820152602660248201527f4f776e61626c653a206e6577206f776e657220697320746865207a65726f206160448201527f6464726573730000000000000000000000000000000000000000000000000000606482015260840161034c565b610bac81610d88565b50565b600260015403610c015760405162461bcd60e51b815260206004820152601f60248201527f5265656e7472616e637947756172643a207265656e7472616e742063616c6c00604482015260640161034c565b6002600155565b600054600160a01b900460ff161561051d5760405162461bcd60e51b815260206004820152601060248201527f5061757361626c653a2070617573656400000000000000000000000000000000604482015260640161034c565b610cd58282604051602401610c7892919061135e565b60408051601f198184030181529190526020810180517bffffffffffffffffffffffffffffffffffffffffffffffffffffffff167f319af33300000000000000000000000000000000000000000000000000000000179052610e4c565b5050565b6000546001600160a01b0316331461051d5760405162461bcd60e51b815260206004820181905260248201527f4f776e61626c653a2063616c6c6572206973206e6f7420746865206f776e6572604482015260640161034c565b610d3b610e6d565b6000805460ff60a01b191690557f5db9ee0a495bf2e6ff9c91a7834c1ba4fdd244a5e8aa4e537bd38aeae4b073aa335b6040516001600160a01b03909116815260200160405180910390a1565b600080546001600160a01b0383811673ffffffffffffffffffffffffffffffffffffffff19831681178455604051919092169283917f8be0079c531659141344cd1fd0a4f28419497f9722a3daafe3b4186f6b6457e09190a35050565b610ded610c08565b6000805460ff60a01b1916600160a01b1790557f62e78cea01bee320cd4e420270b5ea74000d11b0c9f74754ebdbfc544b05a258610d6b3390565b6000806000610e378585610ec6565b91509150610e4481610f0b565b509392505050565b80516a636f6e736f6c652e6c6f67602083016000808483855afa5050505050565b600054600160a01b900460ff1661051d5760405162461bcd60e51b815260206004820152601460248201527f5061757361626c653a206e6f7420706175736564000000000000000000000000604482015260640161034c565b6000808251604103610efc5760208301516040840151606085015160001a610ef087828585611070565b94509450505050610f04565b506000905060025b9250929050565b6000816004811115610f1f57610f1f6113c4565b03610f275750565b6001816004811115610f3b57610f3b6113c4565b03610f885760405162461bcd60e51b815260206004820152601860248201527f45434453413a20696e76616c6964207369676e61747572650000000000000000604482015260640161034c565b6002816004811115610f9c57610f9c6113c4565b03610fe95760405162461bcd60e51b815260206004820152601f60248201527f45434453413a20696e76616c6964207369676e6174757265206c656e67746800604482015260640161034c565b6003816004811115610ffd57610ffd6113c4565b03610bac5760405162461bcd60e51b815260206004820152602260248201527f45434453413a20696e76616c6964207369676e6174757265202773272076616c60448201527f7565000000000000000000000000000000000000000000000000000000000000606482015260840161034c565b6000807f7fffffffffffffffffffffffffffffff5d576e7357a4501ddfe92f46681b20a08311156110a7575060009050600361112b565b6040805160008082526020820180845289905260ff881692820192909252606081018690526080810185905260019060a0016020604051602081039080840390855afa1580156110fb573d6000803e3d6000fd5b5050604051601f1901519150506001600160a01b0381166111245760006001925092505061112b565b9150600090505b94509492505050565b6001600160a01b0381168114610bac57600080fd5b6000806040838503121561115c57600080fd5b823561116781611134565b946020939093013593505050565b60008060006060848603121561118a57600080fd5b833561119581611134565b95602085013595506040909401359392505050565b634e487b7160e01b600052604160045260246000fd5b60008060008060008060c087890312156111d957600080fd5b86356111e481611134565b95506020870135945060408701359350606087013561120281611134565b92506080870135915060a087013567ffffffffffffffff8082111561122657600080fd5b818901915089601f83011261123a57600080fd5b81358181111561124c5761124c6111aa565b604051601f8201601f19908116603f01168101908382118183101715611274576112746111aa565b816040528281528c602084870101111561128d57600080fd5b8260208601602083013760006020848301015280955050505050509295509295509295565b600080600080608085870312156112c857600080fd5b84356112d381611134565b9350602085013592506040850135915060608501356112f181611134565b939692955090935050565b60006020828403121561130e57600080fd5b813561131981611134565b9392505050565b60008282101561134057634e487b7160e01b600052601160045260246000fd5b500390565b60006020828403121561135757600080fd5b5051919050565b604081526000835180604084015260005b8181101561138c576020818701810151606086840101520161136f565b8181111561139e576000606083860101525b506001600160a01b0393909316602083015250601f91909101601f191601606001919050565b634e487b7160e01b600052602160045260246000fdfea26469706673582212203fadfafb4582b0766d2f342dab6f6f684d001a9eed2784485e519c6ef327014464736f6c634300080e0033",
  "linkReferences": {},
  "deployedLinkReferences": {}
}