{
  "_format": "hh-sol-artifact-1",
  "contractName": "DynamicEscrow",
  "sourceName": "contracts/DynamicEscrow.sol",
  "abi": [
    {
      "inputs": [
        {
          "internalType": "address",
          "name": "rewarder",
          "type": "address"
        }
      ],
      "stateMutability": "nonpayable",
      "type": "constructor"
    },
    {
      "anonymous": false,
      "inputs": [
        {
          "indexed": true,
          "internalType": "address",
          "name": "spender",
          "type": "address"
        },
        {
          "indexed": false,
          "internalType": "uint256",
          "name": "weiAmount",
          "type": "uint256"
        },
        {
          "indexed": false,
          "internalType": "uint256",
          "name": "poolId",
          "type": "uint256"
        }
      ],
      "name": "Deposited",
      "type": "event"
    },
    {
      "anonymous": false,
      "inputs": [
        {
          "indexed": true,
          "internalType": "address",
          "name": "previousOwner",
          "type": "address"
        },
        {
          "indexed": true,
          "internalType": "address",
          "name": "newOwner",
          "type": "address"
        }
      ],
      "name": "OwnershipTransferred",
      "type": "event"
    },
    {
      "anonymous": false,
      "inputs": [
        {
          "indexed": false,
          "internalType": "address",
          "name": "account",
          "type": "address"
        }
      ],
      "name": "Paused",
      "type": "event"
    },
    {
      "anonymous": false,
      "inputs": [
        {
          "indexed": true,
          "internalType": "address",
          "name": "receiver",
          "type": "address"
        },
        {
          "indexed": false,
          "internalType": "uint256",
          "name": "weiAmount",
          "type": "uint256"
        },
        {
          "indexed": false,
          "internalType": "uint256",
          "name": "poolId",
          "type": "uint256"
        }
      ],
      "name": "RewardCredited",
      "type": "event"
    },
    {
      "anonymous": false,
      "inputs": [
        {
          "indexed": false,
          "internalType": "address",
          "name": "account",
          "type": "address"
        }
      ],
      "name": "Unpaused",
      "type": "event"
    },
    {
      "anonymous": false,
      "inputs": [
        {
          "indexed": true,
          "internalType": "address",
          "name": "receiver",
          "type": "address"
        },
        {
          "indexed": false,
          "internalType": "uint256",
          "name": "weiAmount",
          "type": "uint256"
        },
        {
          "indexed": false,
          "internalType": "uint256",
          "name": "poolId",
          "type": "uint256"
        }
      ],
      "name": "Withdrawn",
      "type": "event"
    },
    {
      "inputs": [
        {
          "internalType": "address",
          "name": "payee",
          "type": "address"
        },
        {
          "internalType": "uint256",
          "name": "poolId",
          "type": "uint256"
        },
        {
          "internalType": "uint256",
          "name": "amount",
          "type": "uint256"
        }
      ],
      "name": "accrueRewardFor",
      "outputs": [],
      "stateMutability": "nonpayable",
      "type": "function"
    },
    {
      "inputs": [
        {
          "internalType": "address",
          "name": "payee",
          "type": "address"
        },
        {
          "internalType": "uint256",
          "name": "poolId",
          "type": "uint256"
        }
      ],
      "name": "accruedRewardsOf",
      "outputs": [
        {
          "internalType": "uint256",
          "name": "",
          "type": "uint256"
        }
      ],
      "stateMutability": "view",
      "type": "function"
    },
    {
      "inputs": [
        {
          "internalType": "address",
          "name": "spender",
          "type": "address"
        },
        {
          "internalType": "uint256",
          "name": "poolId",
          "type": "uint256"
        },
        {
          "internalType": "uint256",
          "name": "amount",
          "type": "uint256"
        },
        {
          "internalType": "address",
          "name": "tokenAddress",
          "type": "address"
        }
      ],
      "name": "deposit",
      "outputs": [],
      "stateMutability": "payable",
      "type": "function"
    },
    {
      "inputs": [
        {
          "internalType": "address",
          "name": "payee",
          "type": "address"
        },
        {
          "internalType": "uint256",
          "name": "poolId",
          "type": "uint256"
        }
      ],
      "name": "depositsOf",
      "outputs": [
        {
          "components": [
            {
              "internalType": "uint256",
              "name": "weiAmount",
              "type": "uint256"
            },
            {
              "internalType": "address",
              "name": "tokenAddress",
              "type": "address"
            },
            {
              "internalType": "uint256",
              "name": "poolId",
              "type": "uint256"
            }
          ],
          "internalType": "struct IEscrow.DynamicDeposit",
          "name": "",
          "type": "tuple"
        }
      ],
      "stateMutability": "view",
      "type": "function"
    },
    {
      "inputs": [],
      "name": "getRewarder",
      "outputs": [
        {
          "internalType": "address",
          "name": "",
          "type": "address"
        }
      ],
      "stateMutability": "view",
      "type": "function"
    },
    {
      "inputs": [],
      "name": "owner",
      "outputs": [
        {
          "internalType": "address",
          "name": "",
          "type": "address"
        }
      ],
      "stateMutability": "view",
      "type": "function"
    },
    {
      "inputs": [],
      "name": "pause",
      "outputs": [],
      "stateMutability": "nonpayable",
      "type": "function"
    },
    {
      "inputs": [],
      "name": "paused",
      "outputs": [
        {
          "internalType": "bool",
          "name": "",
          "type": "bool"
        }
      ],
      "stateMutability": "view",
      "type": "function"
    },
    {
      "inputs": [
        {
          "internalType": "address",
          "name": "receiver",
          "type": "address"
        },
        {
          "internalType": "address",
          "name": "tokenAddress",
          "type": "address"
        },
        {
          "internalType": "uint256",
          "name": "poolId",
          "type": "uint256"
        }
      ],
      "name": "redeemRewards",
      "outputs": [],
      "stateMutability": "nonpayable",
      "type": "function"
    },
    {
      "inputs": [],
      "name": "renounceOwnership",
      "outputs": [],
      "stateMutability": "nonpayable",
      "type": "function"
    },
    {
      "inputs": [
        {
          "internalType": "address",
          "name": "newOwner",
          "type": "address"
        }
      ],
      "name": "transferOwnership",
      "outputs": [],
      "stateMutability": "nonpayable",
      "type": "function"
    },
    {
      "inputs": [],
      "name": "unpause",
      "outputs": [],
      "stateMutability": "nonpayable",
      "type": "function"
    },
    {
      "inputs": [
        {
          "internalType": "address payable",
          "name": "receiver",
          "type": "address"
        },
        {
          "internalType": "uint256",
          "name": "poolId",
          "type": "uint256"
        },
        {
          "internalType": "uint256",
          "name": "amount",
          "type": "uint256"
        }
      ],
      "name": "withdraw",
      "outputs": [],
      "stateMutability": "nonpayable",
      "type": "function"
    }
  ],
  "bytecode": "0x608060405234801561001057600080fd5b506040516111cd3803806111cd83398101604081905261002f916100be565b6100383361006e565b6000805460ff60a01b1916905560018055600280546001600160a01b0319166001600160a01b03929092169190911790556100ee565b600080546001600160a01b038381166001600160a01b0319831681178455604051919092169283917f8be0079c531659141344cd1fd0a4f28419497f9722a3daafe3b4186f6b6457e09190a35050565b6000602082840312156100d057600080fd5b81516001600160a01b03811681146100e757600080fd5b9392505050565b6110d0806100fd6000396000f3fe6080604052600436106100d25760003560e01c80639015dcc91161007f578063ae22192e11610059578063ae22192e1461021a578063b5c5f67214610265578063f2fde38b14610285578063f9fb6b1a146102a557600080fd5b80639015dcc91461018c578063a7d9e05e146101aa578063abfc083c146101fa57600080fd5b80638456cb59116100b05780638456cb59146101325780638b6099db146101475780638da5cb5b1461015a57600080fd5b80633f4ba83a146100d75780635c975abb146100ee578063715018a61461011d575b600080fd5b3480156100e357600080fd5b506100ec6102c5565b005b3480156100fa57600080fd5b50600054600160a01b900460ff1660405190151581526020015b60405180910390f35b34801561012957600080fd5b506100ec6102d7565b34801561013e57600080fd5b506100ec6102e9565b6100ec610155366004610f13565b6102f9565b34801561016657600080fd5b506000546001600160a01b03165b6040516001600160a01b039091168152602001610114565b34801561019857600080fd5b506002546001600160a01b0316610174565b3480156101b657600080fd5b506101ec6101c5366004610f5d565b60009081526004602090815260408083206001600160a01b03949094168352929052205490565b604051908152602001610114565b34801561020657600080fd5b506100ec610215366004610f89565b61056d565b34801561022657600080fd5b5061023a610235366004610f5d565b6106cb565b60408051825181526020808401516001600160a01b0316908201529181015190820152606001610114565b34801561027157600080fd5b506100ec610280366004610f89565b610743565b34801561029157600080fd5b506100ec6102a0366004610fbe565b61097a565b3480156102b157600080fd5b506100ec6102c0366004610fe2565b610a0a565b6102cd610b8a565b6102d5610be4565b565b6102df610b8a565b6102d56000610c39565b6102f1610b8a565b6102d5610c96565b610301610cd9565b6001600160a01b03811615610460576040517f70a082310000000000000000000000000000000000000000000000000000000081526001600160a01b03858116600483015282916000918316906370a08231906024016020604051808303816000875af1158015610376573d6000803e3d6000fd5b505050506040513d601f19601f8201168201806040525081019061039a9190611023565b9050838110156103f15760405162461bcd60e51b815260206004820152601460248201527f496e73756666696369656e742062616c616e636500000000000000000000000060448201526064015b60405180910390fd5b6040516323b872dd60e01b81526001600160a01b038781166004830152306024830152604482018690528316906323b872dd90606401600060405180830381600087803b15801561044157600080fd5b505af1158015610455573d6000803e3d6000fd5b5050505050506104af565b8134146104af5760405162461bcd60e51b815260206004820152600e60248201527f496e76616c696420616d6f756e7400000000000000000000000000000000000060448201526064016103e8565b604080516060810182528381526001600160a01b0383811660208084019182528385018881526000898152600383528681208b86168083529084529087902086518155935160018501805473ffffffffffffffffffffffffffffffffffffffff19169190961617909455516002909201919091558351868152908101879052919290917f73a19dd210f1a7f902193214c0ee91dd35ee5b4d920cba8d519eca65a7b488ca910160405180910390a25061056760018055565b50505050565b6002546001600160a01b031633146105c75760405162461bcd60e51b815260206004820152600c60248201527f4f6e6c795265776172646572000000000000000000000000000000000000000060448201526064016103e8565b6105cf610cd9565b60008281526004602090815260408083206001600160a01b03871684529091528120805483929061060190849061106b565b909155505060008281526004602090815260408083206001600160a01b03871684529091529020548111156106785760405162461bcd60e51b815260206004820152601560248201527f416363727565645265776172644f766572666c6f77000000000000000000000060448201526064016103e8565b60408051828152602081018490526001600160a01b038516917f81bfcf71989b04bc9c4a30aa5659f50d7b2964773dc38029019aa1c8752fbe8f91015b60405180910390a26106c660018055565b505050565b6106f860405180606001604052806000815260200160006001600160a01b03168152602001600081525090565b5060009081526003602090815260408083206001600160a01b039485168452825291829020825160608101845281548152600182015490941691840191909152600201549082015290565b61074b610cd9565b60008281526003602090815260408083203384529091529020548111156107b45760405162461bcd60e51b815260206004820152601060248201527f4e6f7420656e6f7567682066756e64730000000000000000000000000000000060448201526064016103e8565b6000828152600360209081526040808320338452909152902054819003610819576000828152600360209081526040808320338452909152812081815560018101805473ffffffffffffffffffffffffffffffffffffffff1916905560020155610848565b600082815260036020908152604080832033845290915281208054839290610842908490611083565b90915550505b60008281526003602090815260408083203384529091529020600101546001600160a01b03166108ae576040516001600160a01b0384169082156108fc029083906000818181858888f193505050501580156108a8573d6000803e3d6000fd5b50610939565b6000828152600360209081526040808320338452909152908190206001015490516323b872dd60e01b81523060048201526001600160a01b038581166024830152604482018490529091169081906323b872dd90606401600060405180830381600087803b15801561091f57600080fd5b505af1158015610933573d6000803e3d6000fd5b50505050505b60408051828152602081018490526001600160a01b038516917f92ccf450a286a957af52509bc1c9939d1a6a481783e142e41e2499f0bb66ebc691016106b5565b610982610b8a565b6001600160a01b0381166109fe5760405162461bcd60e51b815260206004820152602660248201527f4f776e61626c653a206e6577206f776e657220697320746865207a65726f206160448201527f646472657373000000000000000000000000000000000000000000000000000060648201526084016103e8565b610a0781610c39565b50565b610a12610cd9565b6000818152600460209081526040808320338452909152902054610a785760405162461bcd60e51b815260206004820152601a60248201527f4e6f7420656e6f7567682061636372756564207265776172647300000000000060448201526064016103e8565b6000818152600460209081526040808320338452909152812080549190556001600160a01b03831615610b29576040517fa9059cbb0000000000000000000000000000000000000000000000000000000081526001600160a01b0385811660048301526024820183905284919082169063a9059cbb90604401600060405180830381600087803b158015610b0b57600080fd5b505af1158015610b1f573d6000803e3d6000fd5b5050505050610b3c565b610b3c6001600160a01b03851682610d32565b60408051828152602081018490526001600160a01b038616917f92ccf450a286a957af52509bc1c9939d1a6a481783e142e41e2499f0bb66ebc6910160405180910390a2506106c660018055565b6000546001600160a01b031633146102d55760405162461bcd60e51b815260206004820181905260248201527f4f776e61626c653a2063616c6c6572206973206e6f7420746865206f776e657260448201526064016103e8565b610bec610e4b565b6000805460ff60a01b191690557f5db9ee0a495bf2e6ff9c91a7834c1ba4fdd244a5e8aa4e537bd38aeae4b073aa335b6040516001600160a01b03909116815260200160405180910390a1565b600080546001600160a01b0383811673ffffffffffffffffffffffffffffffffffffffff19831681178455604051919092169283917f8be0079c531659141344cd1fd0a4f28419497f9722a3daafe3b4186f6b6457e09190a35050565b610c9e610ea4565b6000805460ff60a01b1916600160a01b1790557f62e78cea01bee320cd4e420270b5ea74000d11b0c9f74754ebdbfc544b05a258610c1c3390565b600260015403610d2b5760405162461bcd60e51b815260206004820152601f60248201527f5265656e7472616e637947756172643a207265656e7472616e742063616c6c0060448201526064016103e8565b6002600155565b80471015610d825760405162461bcd60e51b815260206004820152601d60248201527f416464726573733a20696e73756666696369656e742062616c616e636500000060448201526064016103e8565b6000826001600160a01b03168260405160006040518083038185875af1925050503d8060008114610dcf576040519150601f19603f3d011682016040523d82523d6000602084013e610dd4565b606091505b50509050806106c65760405162461bcd60e51b815260206004820152603a60248201527f416464726573733a20756e61626c6520746f2073656e642076616c75652c207260448201527f6563697069656e74206d6179206861766520726576657274656400000000000060648201526084016103e8565b600054600160a01b900460ff166102d55760405162461bcd60e51b815260206004820152601460248201527f5061757361626c653a206e6f742070617573656400000000000000000000000060448201526064016103e8565b600054600160a01b900460ff16156102d55760405162461bcd60e51b815260206004820152601060248201527f5061757361626c653a207061757365640000000000000000000000000000000060448201526064016103e8565b6001600160a01b0381168114610a0757600080fd5b60008060008060808587031215610f2957600080fd5b8435610f3481610efe565b935060208501359250604085013591506060850135610f5281610efe565b939692955090935050565b60008060408385031215610f7057600080fd5b8235610f7b81610efe565b946020939093013593505050565b600080600060608486031215610f9e57600080fd5b8335610fa981610efe565b95602085013595506040909401359392505050565b600060208284031215610fd057600080fd5b8135610fdb81610efe565b9392505050565b600080600060608486031215610ff757600080fd5b833561100281610efe565b9250602084013561101281610efe565b929592945050506040919091013590565b60006020828403121561103557600080fd5b5051919050565b7f4e487b7100000000000000000000000000000000000000000000000000000000600052601160045260246000fd5b6000821982111561107e5761107e61103c565b500190565b6000828210156110955761109561103c565b50039056fea26469706673582212201fdd0d592db390c5a8798a1c90898e7f1d3509d7570a1fd7d97e862654bdb37364736f6c634300080e0033",
  "linkReferences": {},
  "deployedLinkReferences": {}
}