{
  "_format": "hh-sol-artifact-1",
  "contractName": "DynamicEscrow",
  "sourceName": "contracts/DynamicEscrow.sol",
  "abi": [
    {
      "inputs": [
        {
          "internalType": "address",
          "name": "trustedAccountAddress",
          "type": "address"
        }
      ],
      "stateMutability": "nonpayable",
      "type": "constructor"
    },
    {
      "anonymous": false,
      "inputs": [
        {
          "indexed": true,
          "internalType": "address",
          "name": "receiver",
          "type": "address"
        },
        {
          "indexed": false,
          "internalType": "uint256",
          "name": "weiAmount",
          "type": "uint256"
        },
        {
          "indexed": false,
          "internalType": "bytes32",
          "name": "poolId",
          "type": "bytes32"
        }
      ],
      "name": "Claimed",
      "type": "event"
    },
    {
      "anonymous": false,
      "inputs": [
        {
          "indexed": true,
          "internalType": "address",
          "name": "spender",
          "type": "address"
        },
        {
          "indexed": false,
          "internalType": "uint256",
          "name": "weiAmount",
          "type": "uint256"
        },
        {
          "indexed": false,
          "internalType": "bytes32",
          "name": "poolId",
          "type": "bytes32"
        }
      ],
      "name": "Deposited",
      "type": "event"
    },
    {
      "anonymous": false,
      "inputs": [
        {
          "indexed": true,
          "internalType": "address",
          "name": "previousOwner",
          "type": "address"
        },
        {
          "indexed": true,
          "internalType": "address",
          "name": "newOwner",
          "type": "address"
        }
      ],
      "name": "OwnershipTransferred",
      "type": "event"
    },
    {
      "anonymous": false,
      "inputs": [
        {
          "indexed": false,
          "internalType": "address",
          "name": "account",
          "type": "address"
        }
      ],
      "name": "Paused",
      "type": "event"
    },
    {
      "anonymous": false,
      "inputs": [
        {
          "indexed": false,
          "internalType": "address",
          "name": "account",
          "type": "address"
        }
      ],
      "name": "Unpaused",
      "type": "event"
    },
    {
      "anonymous": false,
      "inputs": [
        {
          "indexed": true,
          "internalType": "address",
          "name": "receiver",
          "type": "address"
        },
        {
          "indexed": false,
          "internalType": "uint256",
          "name": "weiAmount",
          "type": "uint256"
        },
        {
          "indexed": false,
          "internalType": "bytes32",
          "name": "poolId",
          "type": "bytes32"
        }
      ],
      "name": "Withdrawn",
      "type": "event"
    },
    {
      "inputs": [
        {
          "internalType": "address payable",
          "name": "receiver",
          "type": "address"
        },
        {
          "internalType": "bytes32",
          "name": "poolId",
          "type": "bytes32"
        },
        {
          "internalType": "uint256",
          "name": "amount",
          "type": "uint256"
        },
        {
          "internalType": "address",
          "name": "tokenAddress",
          "type": "address"
        },
        {
          "internalType": "uint256",
          "name": "nonce",
          "type": "uint256"
        },
        {
          "internalType": "bytes",
          "name": "sig",
          "type": "bytes"
        }
      ],
      "name": "claim",
      "outputs": [],
      "stateMutability": "nonpayable",
      "type": "function"
    },
    {
      "inputs": [
        {
          "internalType": "address",
          "name": "spender",
          "type": "address"
        },
        {
          "internalType": "bytes32",
          "name": "poolId",
          "type": "bytes32"
        },
        {
          "internalType": "uint256",
          "name": "amount",
          "type": "uint256"
        },
        {
          "internalType": "address",
          "name": "tokenAddress",
          "type": "address"
        }
      ],
      "name": "deposit",
      "outputs": [],
      "stateMutability": "payable",
      "type": "function"
    },
    {
      "inputs": [
        {
          "internalType": "address",
          "name": "payee",
          "type": "address"
        },
        {
          "internalType": "bytes32",
          "name": "poolId",
          "type": "bytes32"
        }
      ],
      "name": "depositsOf",
      "outputs": [
        {
          "components": [
            {
              "internalType": "uint256",
              "name": "weiAmount",
              "type": "uint256"
            },
            {
              "internalType": "address",
              "name": "tokenAddress",
              "type": "address"
            },
            {
              "internalType": "bytes32",
              "name": "poolId",
              "type": "bytes32"
            }
          ],
          "internalType": "struct IEscrow.DynamicDeposit",
          "name": "",
          "type": "tuple"
        }
      ],
      "stateMutability": "view",
      "type": "function"
    },
    {
      "inputs": [],
      "name": "getTrustedAccount",
      "outputs": [
        {
          "internalType": "address",
          "name": "",
          "type": "address"
        }
      ],
      "stateMutability": "view",
      "type": "function"
    },
    {
      "inputs": [],
      "name": "owner",
      "outputs": [
        {
          "internalType": "address",
          "name": "",
          "type": "address"
        }
      ],
      "stateMutability": "view",
      "type": "function"
    },
    {
      "inputs": [],
      "name": "pause",
      "outputs": [],
      "stateMutability": "nonpayable",
      "type": "function"
    },
    {
      "inputs": [],
      "name": "paused",
      "outputs": [
        {
          "internalType": "bool",
          "name": "",
          "type": "bool"
        }
      ],
      "stateMutability": "view",
      "type": "function"
    },
    {
      "inputs": [],
      "name": "renounceOwnership",
      "outputs": [],
      "stateMutability": "nonpayable",
      "type": "function"
    },
    {
      "inputs": [
        {
          "internalType": "address",
          "name": "_hypePool",
          "type": "address"
        }
      ],
      "name": "setHypePoolAddress",
      "outputs": [],
      "stateMutability": "nonpayable",
      "type": "function"
    },
    {
      "inputs": [
        {
          "internalType": "address",
          "name": "newOwner",
          "type": "address"
        }
      ],
      "name": "transferOwnership",
      "outputs": [],
      "stateMutability": "nonpayable",
      "type": "function"
    },
    {
      "inputs": [],
      "name": "unpause",
      "outputs": [],
      "stateMutability": "nonpayable",
      "type": "function"
    },
    {
      "inputs": [
        {
          "internalType": "address payable",
          "name": "receiver",
          "type": "address"
        },
        {
          "internalType": "bytes32",
          "name": "poolId",
          "type": "bytes32"
        },
        {
          "internalType": "uint256",
          "name": "amount",
          "type": "uint256"
        }
      ],
      "name": "withdraw",
      "outputs": [],
      "stateMutability": "nonpayable",
      "type": "function"
    }
  ],
  "bytecode": "0x608060405234801561001057600080fd5b5060405161169d38038061169d83398101604081905261002f916100c1565b6100383361006f565b6003805460ff60a01b191690556001600455600580546001600160a01b0319166001600160a01b03929092169190911790556100f1565b600380546001600160a01b038381166001600160a01b0319831681179093556040519116919082907f8be0079c531659141344cd1fd0a4f28419497f9722a3daafe3b4186f6b6457e090600090a35050565b6000602082840312156100d357600080fd5b81516001600160a01b03811681146100ea57600080fd5b9392505050565b61159d806101006000396000f3fe6080604052600436106100c75760003560e01c8063880d49ed11610074578063ca72a6e51161004e578063ca72a6e51461020c578063dee8667f1461022c578063f2fde38b1461024a57600080fd5b8063880d49ed146101a75780638da5cb5b146101c7578063aa5974d3146101f957600080fd5b80635c975abb116100a55780635c975abb14610153578063715018a61461017d5780638456cb591461019257600080fd5b80631aa9e742146100cc5780632917173a1461011c5780633f4ba83a1461013e575b600080fd5b3480156100d857600080fd5b506100ec6100e7366004611248565b61026a565b60408051825181526020808401516001600160a01b03169082015291810151908201526060015b60405180910390f35b34801561012857600080fd5b5061013c610137366004611274565b6102d4565b005b34801561014a57600080fd5b5061013c6102fe565b34801561015f57600080fd5b50600354600160a01b900460ff166040519015158152602001610113565b34801561018957600080fd5b5061013c610310565b34801561019e57600080fd5b5061013c610322565b3480156101b357600080fd5b5061013c6101c236600461131a565b610332565b3480156101d357600080fd5b506003546001600160a01b03165b6040516001600160a01b039091168152602001610113565b61013c6102073660046113f0565b61041a565b34801561021857600080fd5b5061013c61022736600461143a565b610446565b34801561023857600080fd5b506005546001600160a01b03166101e1565b34801561025657600080fd5b5061013c61026536600461143a565b61047c565b60408051606080820183526000808352602080840182905292840181905284815260018084528482206001600160a01b0388811684529085529185902085519384018652805484529081015490911692820192909252600290910154918101919091525b92915050565b6102dc610509565b6102e4610562565b6102ef8383836105bc565b6102f96001600455565b505050565b610306610814565b61030e61086e565b565b610318610814565b61030e60006108c3565b61032a610814565b61030e610922565b61033a610509565b610342610562565b604080516bffffffffffffffffffffffff19606089901b1660208083019190915260348201879052605480830186905283518084039091018152607490920190925280519101206005546001600160a01b031661039f8284610965565b6001600160a01b0316146103fa5760405162461bcd60e51b815260206004820152601860248201527f436c61696d3a20496e76616c6964207369676e6174757265000000000000000060448201526064015b60405180910390fd5b6104078787878787610989565b506104126001600455565b505050505050565b610422610509565b61042a610562565b61043684848484610b3d565b6104406001600455565b50505050565b61044e610814565b6000805473ffffffffffffffffffffffffffffffffffffffff19166001600160a01b03831617905550565b50565b610484610814565b6001600160a01b0381166105005760405162461bcd60e51b815260206004820152602660248201527f4f776e61626c653a206e6577206f776e657220697320746865207a65726f206160448201527f646472657373000000000000000000000000000000000000000000000000000060648201526084016103f1565b610479816108c3565b60026004540361055b5760405162461bcd60e51b815260206004820152601f60248201527f5265656e7472616e637947756172643a207265656e7472616e742063616c6c0060448201526064016103f1565b6002600455565b600354600160a01b900460ff161561030e5760405162461bcd60e51b815260206004820152601060248201527f5061757361626c653a207061757365640000000000000000000000000000000060448201526064016103f1565b6105c582610ec3565b6106375760405162461bcd60e51b815260206004820152603b60248201527f57697468647261773a20506f6f6c20686173206e6f742079657420656e64656460448201527f206f7220677261636520706572696f64206e6f7420706173736564000000000060648201526084016103f1565b60008281526001602081815260408084203385529091529091209081015481546001600160a01b03909116908311156106b25760405162461bcd60e51b815260206004820152601060248201527f4e6f7420656e6f7567682066756e64730000000000000000000000000000000060448201526064016103f1565b81548390036106fe5760008481526001602081815260408084203385529091528220828155908101805473ffffffffffffffffffffffffffffffffffffffff1916905560020155610718565b828260000160008282546107129190611474565b90915550505b6001600160a01b038116610762576040516001600160a01b0386169084156108fc029085906000818181858888f1935050505015801561075c573d6000803e3d6000fd5b506107c9565b60405163a9059cbb60e01b81526001600160a01b0386811660048301526024820185905282919082169063a9059cbb90604401600060405180830381600087803b1580156107af57600080fd5b505af11580156107c3573d6000803e3d6000fd5b50505050505b60408051848152602081018690526001600160a01b038716917f510b30a02fc9b7506980950b9c615af8c13e88658555c0ea22acffd73d9ea222910160405180910390a25050505050565b6003546001600160a01b0316331461030e5760405162461bcd60e51b815260206004820181905260248201527f4f776e61626c653a2063616c6c6572206973206e6f7420746865206f776e657260448201526064016103f1565b610876610f6c565b6003805460ff60a01b191690557f5db9ee0a495bf2e6ff9c91a7834c1ba4fdd244a5e8aa4e537bd38aeae4b073aa335b6040516001600160a01b03909116815260200160405180910390a1565b600380546001600160a01b0383811673ffffffffffffffffffffffffffffffffffffffff19831681179093556040519116919082907f8be0079c531659141344cd1fd0a4f28419497f9722a3daafe3b4186f6b6457e090600090a35050565b61092a610562565b6003805460ff60a01b1916600160a01b1790557f62e78cea01bee320cd4e420270b5ea74000d11b0c9f74754ebdbfc544b05a2586108a63390565b60008060006109748585610fc5565b915091506109818161100a565b509392505050565b604080516bffffffffffffffffffffffff19606088901b166020808301919091526034820186905260548083018590528351808403909101815260749092018352815191810191909120600081815260029092529190205415610a2e5760405162461bcd60e51b815260206004820152601b60248201527f436c61696d3a204861736820616c726561647920636c61696d6564000000000060448201526064016103f1565b60008181526002602052604090208490556001600160a01b038316610a89576040516001600160a01b0387169085156108fc029086906000818181858888f19350505050158015610a83573d6000803e3d6000fd5b50610af0565b60405163a9059cbb60e01b81526001600160a01b0387811660048301526024820186905284919082169063a9059cbb90604401600060405180830381600087803b158015610ad657600080fd5b505af1158015610aea573d6000803e3d6000fd5b50505050505b60408051858152602081018790526001600160a01b038816917fd95107f4584744c6c893a04c43058aadd1ce8aac8ca5d64140eaf277de6c1d5791015b60405180910390a2505050505050565b60008381526001602081815260408084206001600160a01b03808a168652908352938190208151606081018352815480825294820154909516928501929092526002909101549083015215610bfa5760405162461bcd60e51b815260206004820152602860248201527f41206465706f7369742077617320616c7265616479206d61646520666f72207460448201527f68697320706f6f6c00000000000000000000000000000000000000000000000060648201526084016103f1565b6001600160a01b03821615610d6d576040517f70a082310000000000000000000000000000000000000000000000000000000081526001600160a01b03868116600483015283916000918316906370a08231906024016020604051808303816000875af1158015610c6f573d6000803e3d6000fd5b505050506040513d601f19601f82011682018060405250810190610c939190611487565b905084811015610ce55760405162461bcd60e51b815260206004820152601460248201527f496e73756666696369656e742062616c616e636500000000000000000000000060448201526064016103f1565b6040517f23b872dd0000000000000000000000000000000000000000000000000000000081526001600160a01b038881166004830152306024830152604482018790528316906323b872dd90606401600060405180830381600087803b158015610d4e57600080fd5b505af1158015610d62573d6000803e3d6000fd5b505050505050610dbc565b823414610dbc5760405162461bcd60e51b815260206004820152600e60248201527f496e76616c696420616d6f756e7400000000000000000000000000000000000060448201526064016103f1565b604080516060810182528481526001600160a01b03848116602080840191825283850189815260008a815260018084528782208d8716835290935295862085518082559351928101805473ffffffffffffffffffffffffffffffffffffffff191693909516929092179093559151600290920191909155909103610e825760405162461bcd60e51b815260206004820181905260248201527f4661696c656420746f2073617665206465706f736974206f6e20636861696e2160448201526064016103f1565b60408051858152602081018790526001600160a01b038816917fd7eda976cf4919f13172eb15bb39c64cecb7172258c741dab31d14c855eff4029101610b2d565b600080546040517f24bc5972000000000000000000000000000000000000000000000000000000008152600481018490526001600160a01b0390911690829082906324bc59729060240161014060405180830381865afa158015610f2b573d6000803e3d6000fd5b505050506040513d601f19601f82011682018060405250810190610f4f91906114b0565b60a001519050610f628162093a8061153e565b4211949350505050565b600354600160a01b900460ff1661030e5760405162461bcd60e51b815260206004820152601460248201527f5061757361626c653a206e6f742070617573656400000000000000000000000060448201526064016103f1565b6000808251604103610ffb5760208301516040840151606085015160001a610fef8782858561116f565b94509450505050611003565b506000905060025b9250929050565b600081600481111561101e5761101e611551565b036110265750565b600181600481111561103a5761103a611551565b036110875760405162461bcd60e51b815260206004820152601860248201527f45434453413a20696e76616c6964207369676e6174757265000000000000000060448201526064016103f1565b600281600481111561109b5761109b611551565b036110e85760405162461bcd60e51b815260206004820152601f60248201527f45434453413a20696e76616c6964207369676e6174757265206c656e6774680060448201526064016103f1565b60038160048111156110fc576110fc611551565b036104795760405162461bcd60e51b815260206004820152602260248201527f45434453413a20696e76616c6964207369676e6174757265202773272076616c60448201527f756500000000000000000000000000000000000000000000000000000000000060648201526084016103f1565b6000807f7fffffffffffffffffffffffffffffff5d576e7357a4501ddfe92f46681b20a08311156111a6575060009050600361122a565b6040805160008082526020820180845289905260ff881692820192909252606081018690526080810185905260019060a0016020604051602081039080840390855afa1580156111fa573d6000803e3d6000fd5b5050604051601f1901519150506001600160a01b0381166112235760006001925092505061122a565b9150600090505b94509492505050565b6001600160a01b038116811461047957600080fd5b6000806040838503121561125b57600080fd5b823561126681611233565b946020939093013593505050565b60008060006060848603121561128957600080fd5b833561129481611233565b95602085013595506040909401359392505050565b634e487b7160e01b600052604160045260246000fd5b604051610140810167ffffffffffffffff811182821017156112e3576112e36112a9565b60405290565b604051601f8201601f1916810167ffffffffffffffff81118282101715611312576113126112a9565b604052919050565b60008060008060008060c0878903121561133357600080fd5b863561133e81611233565b9550602087810135955060408801359450606088013561135d81611233565b93506080880135925060a088013567ffffffffffffffff8082111561138157600080fd5b818a0191508a601f83011261139557600080fd5b8135818111156113a7576113a76112a9565b6113b9601f8201601f191685016112e9565b91508082528b848285010111156113cf57600080fd5b80848401858401376000848284010152508093505050509295509295509295565b6000806000806080858703121561140657600080fd5b843561141181611233565b93506020850135925060408501359150606085013561142f81611233565b939692955090935050565b60006020828403121561144c57600080fd5b813561145781611233565b9392505050565b634e487b7160e01b600052601160045260246000fd5b818103818111156102ce576102ce61145e565b60006020828403121561149957600080fd5b5051919050565b80516114ab81611233565b919050565b600061014082840312156114c357600080fd5b6114cb6112bf565b825181526114db602084016114a0565b602082015260408301516040820152606083015160608201526080830151608082015260a083015160a082015260c083015160c082015260e083015160e08201526101008084015181830152506101208084015181830152508091505092915050565b808201808211156102ce576102ce61145e565b634e487b7160e01b600052602160045260246000fdfea2646970667358221220ef69c478819172a307f6862979eeabe0fd9165c0b0d95e47fe76e68e28f55a9564736f6c63430008120033",
  "linkReferences": {},
  "deployedLinkReferences": {}
}