{
  "_format": "hh-sol-artifact-1",
  "contractName": "DynamicEscrow",
  "sourceName": "contracts/DynamicEscrow.sol",
  "abi": [
    {
      "inputs": [
        {
          "internalType": "address",
          "name": "trustedAccountAddress",
          "type": "address"
        }
      ],
      "stateMutability": "nonpayable",
      "type": "constructor"
    },
    {
      "anonymous": false,
      "inputs": [
        {
          "indexed": true,
          "internalType": "address",
          "name": "receiver",
          "type": "address"
        },
        {
          "indexed": false,
          "internalType": "uint256",
          "name": "weiAmount",
          "type": "uint256"
        },
        {
          "indexed": false,
          "internalType": "bytes32",
          "name": "poolId",
          "type": "bytes32"
        }
      ],
      "name": "Claimed",
      "type": "event"
    },
    {
      "anonymous": false,
      "inputs": [
        {
          "indexed": true,
          "internalType": "address",
          "name": "spender",
          "type": "address"
        },
        {
          "indexed": false,
          "internalType": "uint256",
          "name": "weiAmount",
          "type": "uint256"
        },
        {
          "indexed": false,
          "internalType": "bytes32",
          "name": "poolId",
          "type": "bytes32"
        }
      ],
      "name": "Deposited",
      "type": "event"
    },
    {
      "anonymous": false,
      "inputs": [
        {
          "indexed": true,
          "internalType": "address",
          "name": "previousOwner",
          "type": "address"
        },
        {
          "indexed": true,
          "internalType": "address",
          "name": "newOwner",
          "type": "address"
        }
      ],
      "name": "OwnershipTransferred",
      "type": "event"
    },
    {
      "anonymous": false,
      "inputs": [
        {
          "indexed": false,
          "internalType": "address",
          "name": "account",
          "type": "address"
        }
      ],
      "name": "Paused",
      "type": "event"
    },
    {
      "anonymous": false,
      "inputs": [
        {
          "indexed": false,
          "internalType": "address",
          "name": "account",
          "type": "address"
        }
      ],
      "name": "Unpaused",
      "type": "event"
    },
    {
      "anonymous": false,
      "inputs": [
        {
          "indexed": true,
          "internalType": "address",
          "name": "receiver",
          "type": "address"
        },
        {
          "indexed": false,
          "internalType": "uint256",
          "name": "weiAmount",
          "type": "uint256"
        },
        {
          "indexed": false,
          "internalType": "bytes32",
          "name": "poolId",
          "type": "bytes32"
        }
      ],
      "name": "Withdrawn",
      "type": "event"
    },
    {
      "inputs": [
        {
          "internalType": "address payable",
          "name": "receiver",
          "type": "address"
        },
        {
          "internalType": "bytes32",
          "name": "poolId",
          "type": "bytes32"
        },
        {
          "internalType": "uint256",
          "name": "amount",
          "type": "uint256"
        },
        {
          "internalType": "address",
          "name": "tokenAddress",
          "type": "address"
        },
        {
          "internalType": "uint256",
          "name": "nonce",
          "type": "uint256"
        },
        {
          "internalType": "bytes",
          "name": "sig",
          "type": "bytes"
        }
      ],
      "name": "claim",
      "outputs": [],
      "stateMutability": "nonpayable",
      "type": "function"
    },
    {
      "inputs": [
        {
          "internalType": "address",
          "name": "spender",
          "type": "address"
        },
        {
          "internalType": "bytes32",
          "name": "poolId",
          "type": "bytes32"
        },
        {
          "internalType": "uint256",
          "name": "amount",
          "type": "uint256"
        },
        {
          "internalType": "address",
          "name": "tokenAddress",
          "type": "address"
        }
      ],
      "name": "deposit",
      "outputs": [],
      "stateMutability": "payable",
      "type": "function"
    },
    {
      "inputs": [
        {
          "internalType": "address",
          "name": "payee",
          "type": "address"
        },
        {
          "internalType": "bytes32",
          "name": "poolId",
          "type": "bytes32"
        }
      ],
      "name": "depositsOf",
      "outputs": [
        {
          "components": [
            {
              "internalType": "uint256",
              "name": "weiAmount",
              "type": "uint256"
            },
            {
              "internalType": "address",
              "name": "tokenAddress",
              "type": "address"
            },
            {
              "internalType": "bytes32",
              "name": "poolId",
              "type": "bytes32"
            }
          ],
          "internalType": "struct IEscrow.DynamicDeposit",
          "name": "",
          "type": "tuple"
        }
      ],
      "stateMutability": "view",
      "type": "function"
    },
    {
      "inputs": [],
      "name": "getTrustedAccount",
      "outputs": [
        {
          "internalType": "address",
          "name": "",
          "type": "address"
        }
      ],
      "stateMutability": "view",
      "type": "function"
    },
    {
      "inputs": [],
      "name": "owner",
      "outputs": [
        {
          "internalType": "address",
          "name": "",
          "type": "address"
        }
      ],
      "stateMutability": "view",
      "type": "function"
    },
    {
      "inputs": [],
      "name": "pause",
      "outputs": [],
      "stateMutability": "nonpayable",
      "type": "function"
    },
    {
      "inputs": [],
      "name": "paused",
      "outputs": [
        {
          "internalType": "bool",
          "name": "",
          "type": "bool"
        }
      ],
      "stateMutability": "view",
      "type": "function"
    },
    {
      "inputs": [],
      "name": "renounceOwnership",
      "outputs": [],
      "stateMutability": "nonpayable",
      "type": "function"
    },
    {
      "inputs": [
        {
          "internalType": "address",
          "name": "newOwner",
          "type": "address"
        }
      ],
      "name": "transferOwnership",
      "outputs": [],
      "stateMutability": "nonpayable",
      "type": "function"
    },
    {
      "inputs": [],
      "name": "unpause",
      "outputs": [],
      "stateMutability": "nonpayable",
      "type": "function"
    },
    {
      "inputs": [
        {
          "internalType": "address payable",
          "name": "receiver",
          "type": "address"
        },
        {
          "internalType": "bytes32",
          "name": "poolId",
          "type": "bytes32"
        },
        {
          "internalType": "uint256",
          "name": "amount",
          "type": "uint256"
        }
      ],
      "name": "withdraw",
      "outputs": [],
      "stateMutability": "nonpayable",
      "type": "function"
    }
  ],
  "bytecode": "0x608060405234801561001057600080fd5b506040516113a33803806113a383398101604081905261002f916100be565b6100383361006e565b6000805460ff60a01b1916905560018055600280546001600160a01b0319166001600160a01b03929092169190911790556100ee565b600080546001600160a01b038381166001600160a01b0319831681178455604051919092169283917f8be0079c531659141344cd1fd0a4f28419497f9722a3daafe3b4186f6b6457e09190a35050565b6000602082840312156100d057600080fd5b81516001600160a01b03811681146100e757600080fd5b9392505050565b6112a6806100fd6000396000f3fe6080604052600436106100bc5760003560e01c80638456cb5911610074578063aa5974d31161004e578063aa5974d3146101ee578063dee8667f14610201578063f2fde38b1461021f57600080fd5b80638456cb5914610187578063880d49ed1461019c5780638da5cb5b146101bc57600080fd5b80633f4ba83a116100a55780633f4ba83a146101335780635c975abb14610148578063715018a61461017257600080fd5b80631aa9e742146100c15780632917173a14610111575b600080fd5b3480156100cd57600080fd5b506100e16100dc366004611049565b61023f565b60408051825181526020808401516001600160a01b03169082015291810151908201526060015b60405180910390f35b34801561011d57600080fd5b5061013161012c366004611075565b6102a9565b005b34801561013f57600080fd5b506101316104a5565b34801561015457600080fd5b50600054600160a01b900460ff166040519015158152602001610108565b34801561017e57600080fd5b506101316104b7565b34801561019357600080fd5b506101316104c9565b3480156101a857600080fd5b506101316101b73660046110c0565b6104d9565b3480156101c857600080fd5b506000546001600160a01b03165b6040516001600160a01b039091168152602001610108565b6101316101fc3660046111b2565b610710565b34801561020d57600080fd5b506002546001600160a01b03166101d6565b34801561022b57600080fd5b5061013161023a3660046111fc565b610ab7565b604080516060808201835260008083526020808401829052928401819052848152600383528381206001600160a01b038781168352908452908490208451928301855280548352600181015490911692820192909252600290910154918101919091525b92915050565b6102b1610b47565b6102b9610ba0565b60008281526003602090815260408083203384529091529020600181015481546001600160a01b03909116908311156103395760405162461bcd60e51b815260206004820152601060248201527f4e6f7420656e6f7567682066756e64730000000000000000000000000000000060448201526064015b60405180910390fd5b8154839003610386576000848152600360209081526040808320338452909152812081815560018101805473ffffffffffffffffffffffffffffffffffffffff19169055600201556103a0565b8282600001600082825461039a9190611220565b90915550505b6001600160a01b0381166103ea576040516001600160a01b0386169084156108fc029085906000818181858888f193505050501580156103e4573d6000803e3d6000fd5b50610451565b60405163a9059cbb60e01b81526001600160a01b0386811660048301526024820185905282919082169063a9059cbb90604401600060405180830381600087803b15801561043757600080fd5b505af115801561044b573d6000803e3d6000fd5b50505050505b60408051848152602081018690526001600160a01b038716917f510b30a02fc9b7506980950b9c615af8c13e88658555c0ea22acffd73d9ea222910160405180910390a250506104a060018055565b505050565b6104ad610bfa565b6104b5610c54565b565b6104bf610bfa565b6104b56000610ca9565b6104d1610bfa565b6104b5610d06565b6104e1610b47565b6104e9610ba0565b604080516bffffffffffffffffffffffff19606089901b1660208083019190915260348201879052605480830186905283518084039091018152607490920190925280519101206002546001600160a01b03166105468284610d49565b6001600160a01b03161461059c5760405162461bcd60e51b815260206004820152601860248201527f436c61696d3a20496e76616c6964207369676e617475726500000000000000006044820152606401610330565b600081815260046020526040902054156105f85760405162461bcd60e51b815260206004820152601b60248201527f436c61696d3a204861736820616c726561647920636c61696d656400000000006044820152606401610330565b60008181526004602052604090208590556001600160a01b038416610653576040516001600160a01b0388169086156108fc029087906000818181858888f1935050505015801561064d573d6000803e3d6000fd5b506106ba565b60405163a9059cbb60e01b81526001600160a01b0388811660048301526024820187905285919082169063a9059cbb90604401600060405180830381600087803b1580156106a057600080fd5b505af11580156106b4573d6000803e3d6000fd5b50505050505b60408051868152602081018890526001600160a01b038916917fd95107f4584744c6c893a04c43058aadd1ce8aac8ca5d64140eaf277de6c1d57910160405180910390a25061070860018055565b505050505050565b610718610b47565b610720610ba0565b60008381526003602090815260408083206001600160a01b0380891685529083529281902081516060810183528154808252600183015490951693810193909352600201549082015290156107dd5760405162461bcd60e51b815260206004820152602860248201527f41206465706f7369742077617320616c7265616479206d61646520666f72207460448201527f68697320706f6f6c0000000000000000000000000000000000000000000000006064820152608401610330565b6001600160a01b03821615610950576040517f70a082310000000000000000000000000000000000000000000000000000000081526001600160a01b03868116600483015283916000918316906370a08231906024016020604051808303816000875af1158015610852573d6000803e3d6000fd5b505050506040513d601f19601f820116820180604052508101906108769190611241565b9050848110156108c85760405162461bcd60e51b815260206004820152601460248201527f496e73756666696369656e742062616c616e63650000000000000000000000006044820152606401610330565b6040517f23b872dd0000000000000000000000000000000000000000000000000000000081526001600160a01b038881166004830152306024830152604482018790528316906323b872dd90606401600060405180830381600087803b15801561093157600080fd5b505af1158015610945573d6000803e3d6000fd5b50505050505061099f565b82341461099f5760405162461bcd60e51b815260206004820152600e60248201527f496e76616c696420616d6f756e740000000000000000000000000000000000006044820152606401610330565b604080516060810182528481526001600160a01b03848116602080840191825283850189815260008a8152600383528681208c861682529092529481208451808255925160018201805473ffffffffffffffffffffffffffffffffffffffff191691909516179093559351600290920191909155909103610a625760405162461bcd60e51b815260206004820181905260248201527f4661696c656420746f2073617665206465706f736974206f6e20636861696e216044820152606401610330565b60408051858152602081018790526001600160a01b038816917fd7eda976cf4919f13172eb15bb39c64cecb7172258c741dab31d14c855eff402910160405180910390a25050610ab160018055565b50505050565b610abf610bfa565b6001600160a01b038116610b3b5760405162461bcd60e51b815260206004820152602660248201527f4f776e61626c653a206e6577206f776e657220697320746865207a65726f206160448201527f64647265737300000000000000000000000000000000000000000000000000006064820152608401610330565b610b4481610ca9565b50565b600260015403610b995760405162461bcd60e51b815260206004820152601f60248201527f5265656e7472616e637947756172643a207265656e7472616e742063616c6c006044820152606401610330565b6002600155565b600054600160a01b900460ff16156104b55760405162461bcd60e51b815260206004820152601060248201527f5061757361626c653a20706175736564000000000000000000000000000000006044820152606401610330565b6000546001600160a01b031633146104b55760405162461bcd60e51b815260206004820181905260248201527f4f776e61626c653a2063616c6c6572206973206e6f7420746865206f776e65726044820152606401610330565b610c5c610d6d565b6000805460ff60a01b191690557f5db9ee0a495bf2e6ff9c91a7834c1ba4fdd244a5e8aa4e537bd38aeae4b073aa335b6040516001600160a01b03909116815260200160405180910390a1565b600080546001600160a01b0383811673ffffffffffffffffffffffffffffffffffffffff19831681178455604051919092169283917f8be0079c531659141344cd1fd0a4f28419497f9722a3daafe3b4186f6b6457e09190a35050565b610d0e610ba0565b6000805460ff60a01b1916600160a01b1790557f62e78cea01bee320cd4e420270b5ea74000d11b0c9f74754ebdbfc544b05a258610c8c3390565b6000806000610d588585610dc6565b91509150610d6581610e0b565b509392505050565b600054600160a01b900460ff166104b55760405162461bcd60e51b815260206004820152601460248201527f5061757361626c653a206e6f74207061757365640000000000000000000000006044820152606401610330565b6000808251604103610dfc5760208301516040840151606085015160001a610df087828585610f70565b94509450505050610e04565b506000905060025b9250929050565b6000816004811115610e1f57610e1f61125a565b03610e275750565b6001816004811115610e3b57610e3b61125a565b03610e885760405162461bcd60e51b815260206004820152601860248201527f45434453413a20696e76616c6964207369676e617475726500000000000000006044820152606401610330565b6002816004811115610e9c57610e9c61125a565b03610ee95760405162461bcd60e51b815260206004820152601f60248201527f45434453413a20696e76616c6964207369676e6174757265206c656e677468006044820152606401610330565b6003816004811115610efd57610efd61125a565b03610b445760405162461bcd60e51b815260206004820152602260248201527f45434453413a20696e76616c6964207369676e6174757265202773272076616c60448201527f75650000000000000000000000000000000000000000000000000000000000006064820152608401610330565b6000807f7fffffffffffffffffffffffffffffff5d576e7357a4501ddfe92f46681b20a0831115610fa7575060009050600361102b565b6040805160008082526020820180845289905260ff881692820192909252606081018690526080810185905260019060a0016020604051602081039080840390855afa158015610ffb573d6000803e3d6000fd5b5050604051601f1901519150506001600160a01b0381166110245760006001925092505061102b565b9150600090505b94509492505050565b6001600160a01b0381168114610b4457600080fd5b6000806040838503121561105c57600080fd5b823561106781611034565b946020939093013593505050565b60008060006060848603121561108a57600080fd5b833561109581611034565b95602085013595506040909401359392505050565b634e487b7160e01b600052604160045260246000fd5b60008060008060008060c087890312156110d957600080fd5b86356110e481611034565b95506020870135945060408701359350606087013561110281611034565b92506080870135915060a087013567ffffffffffffffff8082111561112657600080fd5b818901915089601f83011261113a57600080fd5b81358181111561114c5761114c6110aa565b604051601f8201601f19908116603f01168101908382118183101715611174576111746110aa565b816040528281528c602084870101111561118d57600080fd5b8260208601602083013760006020848301015280955050505050509295509295509295565b600080600080608085870312156111c857600080fd5b84356111d381611034565b9350602085013592506040850135915060608501356111f181611034565b939692955090935050565b60006020828403121561120e57600080fd5b813561121981611034565b9392505050565b818103818111156102a357634e487b7160e01b600052601160045260246000fd5b60006020828403121561125357600080fd5b5051919050565b634e487b7160e01b600052602160045260246000fdfea264697066735822122096cfed2f154e985548b300e0ad290ecb4dfbb7d9e438c5013f8e42f2f4c572a164736f6c63430008120033",
  "linkReferences": {},
  "deployedLinkReferences": {}
}