{
  "_format": "hh-sol-artifact-1",
  "contractName": "DynamicEscrow",
  "sourceName": "contracts/DynamicEscrow.sol",
  "abi": [
    {
      "inputs": [
        {
          "internalType": "address",
          "name": "rewarder",
          "type": "address"
        },
        {
          "internalType": "address",
          "name": "trustedAccountAddress",
          "type": "address"
        }
      ],
      "stateMutability": "nonpayable",
      "type": "constructor"
    },
    {
      "anonymous": false,
      "inputs": [
        {
          "indexed": true,
          "internalType": "address",
          "name": "receiver",
          "type": "address"
        },
        {
          "indexed": false,
          "internalType": "uint256",
          "name": "weiAmount",
          "type": "uint256"
        },
        {
          "indexed": false,
          "internalType": "uint256",
          "name": "poolId",
          "type": "uint256"
        }
      ],
      "name": "Claimed",
      "type": "event"
    },
    {
      "anonymous": false,
      "inputs": [
        {
          "indexed": true,
          "internalType": "address",
          "name": "spender",
          "type": "address"
        },
        {
          "indexed": false,
          "internalType": "uint256",
          "name": "weiAmount",
          "type": "uint256"
        },
        {
          "indexed": false,
          "internalType": "uint256",
          "name": "poolId",
          "type": "uint256"
        }
      ],
      "name": "Deposited",
      "type": "event"
    },
    {
      "anonymous": false,
      "inputs": [
        {
          "indexed": true,
          "internalType": "address",
          "name": "previousOwner",
          "type": "address"
        },
        {
          "indexed": true,
          "internalType": "address",
          "name": "newOwner",
          "type": "address"
        }
      ],
      "name": "OwnershipTransferred",
      "type": "event"
    },
    {
      "anonymous": false,
      "inputs": [
        {
          "indexed": false,
          "internalType": "address",
          "name": "account",
          "type": "address"
        }
      ],
      "name": "Paused",
      "type": "event"
    },
    {
      "anonymous": false,
      "inputs": [
        {
          "indexed": true,
          "internalType": "address",
          "name": "receiver",
          "type": "address"
        },
        {
          "indexed": false,
          "internalType": "uint256",
          "name": "weiAmount",
          "type": "uint256"
        },
        {
          "indexed": false,
          "internalType": "uint256",
          "name": "poolId",
          "type": "uint256"
        }
      ],
      "name": "RewardCredited",
      "type": "event"
    },
    {
      "anonymous": false,
      "inputs": [
        {
          "indexed": false,
          "internalType": "address",
          "name": "account",
          "type": "address"
        }
      ],
      "name": "Unpaused",
      "type": "event"
    },
    {
      "anonymous": false,
      "inputs": [
        {
          "indexed": true,
          "internalType": "address",
          "name": "receiver",
          "type": "address"
        },
        {
          "indexed": false,
          "internalType": "uint256",
          "name": "weiAmount",
          "type": "uint256"
        },
        {
          "indexed": false,
          "internalType": "uint256",
          "name": "poolId",
          "type": "uint256"
        }
      ],
      "name": "Withdrawn",
      "type": "event"
    },
    {
      "inputs": [
        {
          "internalType": "address payable",
          "name": "receiver",
          "type": "address"
        },
        {
          "internalType": "uint256",
          "name": "poolId",
          "type": "uint256"
        },
        {
          "internalType": "uint256",
          "name": "amount",
          "type": "uint256"
        },
        {
          "internalType": "address",
          "name": "tokenAddress",
          "type": "address"
        },
        {
          "internalType": "uint256",
          "name": "nonce",
          "type": "uint256"
        },
        {
          "internalType": "bytes",
          "name": "sig",
          "type": "bytes"
        }
      ],
      "name": "claim",
      "outputs": [],
      "stateMutability": "nonpayable",
      "type": "function"
    },
    {
      "inputs": [
        {
          "internalType": "address",
          "name": "spender",
          "type": "address"
        },
        {
          "internalType": "uint256",
          "name": "poolId",
          "type": "uint256"
        },
        {
          "internalType": "uint256",
          "name": "amount",
          "type": "uint256"
        },
        {
          "internalType": "address",
          "name": "tokenAddress",
          "type": "address"
        }
      ],
      "name": "deposit",
      "outputs": [],
      "stateMutability": "payable",
      "type": "function"
    },
    {
      "inputs": [
        {
          "internalType": "address",
          "name": "payee",
          "type": "address"
        },
        {
          "internalType": "uint256",
          "name": "poolId",
          "type": "uint256"
        }
      ],
      "name": "depositsOf",
      "outputs": [
        {
          "components": [
            {
              "internalType": "uint256",
              "name": "weiAmount",
              "type": "uint256"
            },
            {
              "internalType": "address",
              "name": "tokenAddress",
              "type": "address"
            },
            {
              "internalType": "uint256",
              "name": "poolId",
              "type": "uint256"
            }
          ],
          "internalType": "struct IEscrow.DynamicDeposit",
          "name": "",
          "type": "tuple"
        }
      ],
      "stateMutability": "view",
      "type": "function"
    },
    {
      "inputs": [],
      "name": "getRewarder",
      "outputs": [
        {
          "internalType": "address",
          "name": "",
          "type": "address"
        }
      ],
      "stateMutability": "view",
      "type": "function"
    },
    {
      "inputs": [],
      "name": "getTrustedAccount",
      "outputs": [
        {
          "internalType": "address",
          "name": "",
          "type": "address"
        }
      ],
      "stateMutability": "view",
      "type": "function"
    },
    {
      "inputs": [],
      "name": "owner",
      "outputs": [
        {
          "internalType": "address",
          "name": "",
          "type": "address"
        }
      ],
      "stateMutability": "view",
      "type": "function"
    },
    {
      "inputs": [],
      "name": "pause",
      "outputs": [],
      "stateMutability": "nonpayable",
      "type": "function"
    },
    {
      "inputs": [],
      "name": "paused",
      "outputs": [
        {
          "internalType": "bool",
          "name": "",
          "type": "bool"
        }
      ],
      "stateMutability": "view",
      "type": "function"
    },
    {
      "inputs": [],
      "name": "renounceOwnership",
      "outputs": [],
      "stateMutability": "nonpayable",
      "type": "function"
    },
    {
      "inputs": [
        {
          "internalType": "address",
          "name": "newOwner",
          "type": "address"
        }
      ],
      "name": "transferOwnership",
      "outputs": [],
      "stateMutability": "nonpayable",
      "type": "function"
    },
    {
      "inputs": [],
      "name": "unpause",
      "outputs": [],
      "stateMutability": "nonpayable",
      "type": "function"
    },
    {
      "inputs": [
        {
          "internalType": "address payable",
          "name": "receiver",
          "type": "address"
        },
        {
          "internalType": "uint256",
          "name": "poolId",
          "type": "uint256"
        },
        {
          "internalType": "uint256",
          "name": "amount",
          "type": "uint256"
        }
      ],
      "name": "withdraw",
      "outputs": [],
      "stateMutability": "nonpayable",
      "type": "function"
    }
  ],
  "bytecode": "0x608060405234801561001057600080fd5b50604051620014e9380380620014e9833981016040819052610031916100e8565b61003a3361007c565b6000805460ff60a01b1916905560018055600280546001600160a01b039384166001600160a01b0319918216179091556003805492909316911617905561011b565b600080546001600160a01b038381166001600160a01b0319831681178455604051919092169283917f8be0079c531659141344cd1fd0a4f28419497f9722a3daafe3b4186f6b6457e09190a35050565b80516001600160a01b03811681146100e357600080fd5b919050565b600080604083850312156100fb57600080fd5b610104836100cc565b9150610112602084016100cc565b90509250929050565b6113be806200012b6000396000f3fe6080604052600436106100c75760003560e01c80639015dcc911610074578063ba7cfb441161004e578063ba7cfb441461020a578063dee8667f1461022a578063f2fde38b1461024857600080fd5b80639015dcc914610181578063ae22192e1461019f578063b5c5f672146101ea57600080fd5b80638456cb59116100a55780638456cb59146101275780638b6099db1461013c5780638da5cb5b1461014f57600080fd5b80633f4ba83a146100cc5780635c975abb146100e3578063715018a614610112575b600080fd5b3480156100d857600080fd5b506100e1610268565b005b3480156100ef57600080fd5b50600054600160a01b900460ff1660405190151581526020015b60405180910390f35b34801561011e57600080fd5b506100e161027a565b34801561013357600080fd5b506100e161028c565b6100e161014a3660046110f7565b61029c565b34801561015b57600080fd5b506000546001600160a01b03165b6040516001600160a01b039091168152602001610109565b34801561018d57600080fd5b506002546001600160a01b0316610169565b3480156101ab57600080fd5b506101bf6101ba366004611141565b610648565b60408051825181526020808401516001600160a01b0316908201529181015190820152606001610109565b3480156101f657600080fd5b506100e161020536600461116d565b6106c0565b34801561021657600080fd5b506100e16102253660046111b8565b610903565b34801561023657600080fd5b506003546001600160a01b0316610169565b34801561025457600080fd5b506100e16102633660046112aa565b610acd565b610270610b5d565b610278610bb7565b565b610282610b5d565b6102786000610c0c565b610294610b5d565b610278610c69565b6102a4610cac565b6102ac610d05565b60008381526004602090815260408083206001600160a01b03808916855290835292819020815160608101835281548082526001830154909516938101939093526002015490820152901561036e5760405162461bcd60e51b815260206004820152602860248201527f41206465706f7369742077617320616c7265616479206d61646520666f72207460448201527f68697320706f6f6c00000000000000000000000000000000000000000000000060648201526084015b60405180910390fd5b6001600160a01b038216156104e1576040517f70a082310000000000000000000000000000000000000000000000000000000081526001600160a01b03868116600483015283916000918316906370a08231906024016020604051808303816000875af11580156103e3573d6000803e3d6000fd5b505050506040513d601f19601f8201168201806040525081019061040791906112ce565b9050848110156104595760405162461bcd60e51b815260206004820152601460248201527f496e73756666696369656e742062616c616e63650000000000000000000000006044820152606401610365565b6040517f23b872dd0000000000000000000000000000000000000000000000000000000081526001600160a01b038881166004830152306024830152604482018790528316906323b872dd90606401600060405180830381600087803b1580156104c257600080fd5b505af11580156104d6573d6000803e3d6000fd5b505050505050610530565b8234146105305760405162461bcd60e51b815260206004820152600e60248201527f496e76616c696420616d6f756e740000000000000000000000000000000000006044820152606401610365565b604080516060810182528481526001600160a01b03848116602080840191825283850189815260008a8152600483528681208c861682529092529481208451808255925160018201805473ffffffffffffffffffffffffffffffffffffffff1916919095161790935593516002909201919091559091036105f35760405162461bcd60e51b815260206004820181905260248201527f4661696c656420746f2073617665206465706f736974206f6e20636861696e216044820152606401610365565b60408051858152602081018790526001600160a01b038816917f73a19dd210f1a7f902193214c0ee91dd35ee5b4d920cba8d519eca65a7b488ca910160405180910390a2505061064260018055565b50505050565b61067560405180606001604052806000815260200160006001600160a01b03168152602001600081525090565b5060009081526004602090815260408083206001600160a01b039485168452825291829020825160608101845281548152600182015490941691840191909152600201549082015290565b6106c8610cac565b6106d0610d05565b60008281526004602090815260408083203384529091529020600181015481546001600160a01b039091169083111561074b5760405162461bcd60e51b815260206004820152601060248201527f4e6f7420656e6f7567682066756e6473000000000000000000000000000000006044820152606401610365565b60408051808201909152601081527f746f6b656e2061646472657373206973000000000000000000000000000000006020820152600183015461079791906001600160a01b0316610d5f565b81548390036107e4576000848152600460209081526040808320338452909152812081815560018101805473ffffffffffffffffffffffffffffffffffffffff19169055600201556107fe565b828260000160008282546107f891906112e7565b90915550505b6001600160a01b038116610848576040516001600160a01b0386169084156108fc029085906000818181858888f19350505050158015610842573d6000803e3d6000fd5b506108af565b60405163a9059cbb60e01b81526001600160a01b0386811660048301526024820185905282919082169063a9059cbb90604401600060405180830381600087803b15801561089557600080fd5b505af11580156108a9573d6000803e3d6000fd5b50505050505b60408051848152602081018690526001600160a01b038716917f92ccf450a286a957af52509bc1c9939d1a6a481783e142e41e2499f0bb66ebc6910160405180910390a250506108fe60018055565b505050565b61090b610cac565b610913610d05565b604080516bffffffffffffffffffffffff19606089901b1660208083019190915260348201879052605480830186905283518084039091018152607490920190925280519101206003546001600160a01b03166109708284610dd6565b6001600160a01b0316146109c65760405162461bcd60e51b815260206004820152601860248201527f436c61696d3a20496e76616c6964207369676e617475726500000000000000006044820152606401610365565b6001600160a01b038416610a10576040516001600160a01b0388169086156108fc029087906000818181858888f19350505050158015610a0a573d6000803e3d6000fd5b50610a77565b60405163a9059cbb60e01b81526001600160a01b0388811660048301526024820187905285919082169063a9059cbb90604401600060405180830381600087803b158015610a5d57600080fd5b505af1158015610a71573d6000803e3d6000fd5b50505050505b60408051868152602081018890526001600160a01b038916917f987d620f307ff6b94d58743cb7a7509f24071586a77759b77c2d4e29f75a2f9a910160405180910390a250610ac560018055565b505050505050565b610ad5610b5d565b6001600160a01b038116610b515760405162461bcd60e51b815260206004820152602660248201527f4f776e61626c653a206e6577206f776e657220697320746865207a65726f206160448201527f64647265737300000000000000000000000000000000000000000000000000006064820152608401610365565b610b5a81610c0c565b50565b6000546001600160a01b031633146102785760405162461bcd60e51b815260206004820181905260248201527f4f776e61626c653a2063616c6c6572206973206e6f7420746865206f776e65726044820152606401610365565b610bbf610dfa565b6000805460ff60a01b191690557f5db9ee0a495bf2e6ff9c91a7834c1ba4fdd244a5e8aa4e537bd38aeae4b073aa335b6040516001600160a01b03909116815260200160405180910390a1565b600080546001600160a01b0383811673ffffffffffffffffffffffffffffffffffffffff19831681178455604051919092169283917f8be0079c531659141344cd1fd0a4f28419497f9722a3daafe3b4186f6b6457e09190a35050565b610c71610d05565b6000805460ff60a01b1916600160a01b1790557f62e78cea01bee320cd4e420270b5ea74000d11b0c9f74754ebdbfc544b05a258610bef3390565b600260015403610cfe5760405162461bcd60e51b815260206004820152601f60248201527f5265656e7472616e637947756172643a207265656e7472616e742063616c6c006044820152606401610365565b6002600155565b600054600160a01b900460ff16156102785760405162461bcd60e51b815260206004820152601060248201527f5061757361626c653a20706175736564000000000000000000000000000000006044820152606401610365565b610dd28282604051602401610d7592919061130c565b60408051601f198184030181529190526020810180517bffffffffffffffffffffffffffffffffffffffffffffffffffffffff167f319af33300000000000000000000000000000000000000000000000000000000179052610e53565b5050565b6000806000610de58585610e74565b91509150610df281610eb9565b509392505050565b600054600160a01b900460ff166102785760405162461bcd60e51b815260206004820152601460248201527f5061757361626c653a206e6f74207061757365640000000000000000000000006044820152606401610365565b80516a636f6e736f6c652e6c6f67602083016000808483855afa5050505050565b6000808251604103610eaa5760208301516040840151606085015160001a610e9e8782858561101e565b94509450505050610eb2565b506000905060025b9250929050565b6000816004811115610ecd57610ecd611372565b03610ed55750565b6001816004811115610ee957610ee9611372565b03610f365760405162461bcd60e51b815260206004820152601860248201527f45434453413a20696e76616c6964207369676e617475726500000000000000006044820152606401610365565b6002816004811115610f4a57610f4a611372565b03610f975760405162461bcd60e51b815260206004820152601f60248201527f45434453413a20696e76616c6964207369676e6174757265206c656e677468006044820152606401610365565b6003816004811115610fab57610fab611372565b03610b5a5760405162461bcd60e51b815260206004820152602260248201527f45434453413a20696e76616c6964207369676e6174757265202773272076616c60448201527f75650000000000000000000000000000000000000000000000000000000000006064820152608401610365565b6000807f7fffffffffffffffffffffffffffffff5d576e7357a4501ddfe92f46681b20a083111561105557506000905060036110d9565b6040805160008082526020820180845289905260ff881692820192909252606081018690526080810185905260019060a0016020604051602081039080840390855afa1580156110a9573d6000803e3d6000fd5b5050604051601f1901519150506001600160a01b0381166110d2576000600192509250506110d9565b9150600090505b94509492505050565b6001600160a01b0381168114610b5a57600080fd5b6000806000806080858703121561110d57600080fd5b8435611118816110e2565b935060208501359250604085013591506060850135611136816110e2565b939692955090935050565b6000806040838503121561115457600080fd5b823561115f816110e2565b946020939093013593505050565b60008060006060848603121561118257600080fd5b833561118d816110e2565b95602085013595506040909401359392505050565b634e487b7160e01b600052604160045260246000fd5b60008060008060008060c087890312156111d157600080fd5b86356111dc816110e2565b9550602087013594506040870135935060608701356111fa816110e2565b92506080870135915060a087013567ffffffffffffffff8082111561121e57600080fd5b818901915089601f83011261123257600080fd5b813581811115611244576112446111a2565b604051601f8201601f19908116603f0116810190838211818310171561126c5761126c6111a2565b816040528281528c602084870101111561128557600080fd5b8260208601602083013760006020848301015280955050505050509295509295509295565b6000602082840312156112bc57600080fd5b81356112c7816110e2565b9392505050565b6000602082840312156112e057600080fd5b5051919050565b60008282101561130757634e487b7160e01b600052601160045260246000fd5b500390565b604081526000835180604084015260005b8181101561133a576020818701810151606086840101520161131d565b8181111561134c576000606083860101525b506001600160a01b0393909316602083015250601f91909101601f191601606001919050565b634e487b7160e01b600052602160045260246000fdfea2646970667358221220b48f5be0c6c1d36806c280cc6ca3d15c9ebed0db21f7116e6f218dd926145e8664736f6c634300080e0033",
  "linkReferences": {},
  "deployedLinkReferences": {}
}