{
  "_format": "hh-sol-artifact-1",
  "contractName": "DynamicEscrow",
  "sourceName": "contracts/DynamicEscrow.sol",
  "abi": [
    {
      "inputs": [
        {
          "internalType": "address",
          "name": "rewarder",
          "type": "address"
        },
        {
          "internalType": "address",
          "name": "trustedAccountAddress",
          "type": "address"
        }
      ],
      "stateMutability": "nonpayable",
      "type": "constructor"
    },
    {
      "anonymous": false,
      "inputs": [
        {
          "indexed": true,
          "internalType": "address",
          "name": "receiver",
          "type": "address"
        },
        {
          "indexed": false,
          "internalType": "uint256",
          "name": "weiAmount",
          "type": "uint256"
        },
        {
          "indexed": false,
          "internalType": "uint256",
          "name": "poolId",
          "type": "uint256"
        }
      ],
      "name": "Claimed",
      "type": "event"
    },
    {
      "anonymous": false,
      "inputs": [
        {
          "indexed": true,
          "internalType": "address",
          "name": "spender",
          "type": "address"
        },
        {
          "indexed": false,
          "internalType": "uint256",
          "name": "weiAmount",
          "type": "uint256"
        },
        {
          "indexed": false,
          "internalType": "uint256",
          "name": "poolId",
          "type": "uint256"
        }
      ],
      "name": "Deposited",
      "type": "event"
    },
    {
      "anonymous": false,
      "inputs": [
        {
          "indexed": true,
          "internalType": "address",
          "name": "previousOwner",
          "type": "address"
        },
        {
          "indexed": true,
          "internalType": "address",
          "name": "newOwner",
          "type": "address"
        }
      ],
      "name": "OwnershipTransferred",
      "type": "event"
    },
    {
      "anonymous": false,
      "inputs": [
        {
          "indexed": false,
          "internalType": "address",
          "name": "account",
          "type": "address"
        }
      ],
      "name": "Paused",
      "type": "event"
    },
    {
      "anonymous": false,
      "inputs": [
        {
          "indexed": true,
          "internalType": "address",
          "name": "receiver",
          "type": "address"
        },
        {
          "indexed": false,
          "internalType": "uint256",
          "name": "weiAmount",
          "type": "uint256"
        },
        {
          "indexed": false,
          "internalType": "uint256",
          "name": "poolId",
          "type": "uint256"
        }
      ],
      "name": "RewardCredited",
      "type": "event"
    },
    {
      "anonymous": false,
      "inputs": [
        {
          "indexed": false,
          "internalType": "address",
          "name": "account",
          "type": "address"
        }
      ],
      "name": "Unpaused",
      "type": "event"
    },
    {
      "anonymous": false,
      "inputs": [
        {
          "indexed": true,
          "internalType": "address",
          "name": "receiver",
          "type": "address"
        },
        {
          "indexed": false,
          "internalType": "uint256",
          "name": "weiAmount",
          "type": "uint256"
        },
        {
          "indexed": false,
          "internalType": "uint256",
          "name": "poolId",
          "type": "uint256"
        }
      ],
      "name": "Withdrawn",
      "type": "event"
    },
    {
      "inputs": [
        {
          "internalType": "address payable",
          "name": "receiver",
          "type": "address"
        },
        {
          "internalType": "uint256",
          "name": "poolId",
          "type": "uint256"
        },
        {
          "internalType": "uint256",
          "name": "amount",
          "type": "uint256"
        },
        {
          "internalType": "address",
          "name": "tokenAddress",
          "type": "address"
        },
        {
          "internalType": "uint256",
          "name": "nonce",
          "type": "uint256"
        },
        {
          "internalType": "bytes",
          "name": "sig",
          "type": "bytes"
        }
      ],
      "name": "claim",
      "outputs": [],
      "stateMutability": "nonpayable",
      "type": "function"
    },
    {
      "inputs": [
        {
          "internalType": "address",
          "name": "spender",
          "type": "address"
        },
        {
          "internalType": "uint256",
          "name": "poolId",
          "type": "uint256"
        },
        {
          "internalType": "uint256",
          "name": "amount",
          "type": "uint256"
        },
        {
          "internalType": "address",
          "name": "tokenAddress",
          "type": "address"
        }
      ],
      "name": "deposit",
      "outputs": [],
      "stateMutability": "payable",
      "type": "function"
    },
    {
      "inputs": [
        {
          "internalType": "address",
          "name": "payee",
          "type": "address"
        },
        {
          "internalType": "uint256",
          "name": "poolId",
          "type": "uint256"
        }
      ],
      "name": "depositsOf",
      "outputs": [
        {
          "components": [
            {
              "internalType": "uint256",
              "name": "weiAmount",
              "type": "uint256"
            },
            {
              "internalType": "address",
              "name": "tokenAddress",
              "type": "address"
            },
            {
              "internalType": "uint256",
              "name": "poolId",
              "type": "uint256"
            }
          ],
          "internalType": "struct IEscrow.DynamicDeposit",
          "name": "",
          "type": "tuple"
        }
      ],
      "stateMutability": "view",
      "type": "function"
    },
    {
      "inputs": [],
      "name": "getRewarder",
      "outputs": [
        {
          "internalType": "address",
          "name": "",
          "type": "address"
        }
      ],
      "stateMutability": "view",
      "type": "function"
    },
    {
      "inputs": [],
      "name": "getTrustedAccount",
      "outputs": [
        {
          "internalType": "address",
          "name": "",
          "type": "address"
        }
      ],
      "stateMutability": "view",
      "type": "function"
    },
    {
      "inputs": [],
      "name": "owner",
      "outputs": [
        {
          "internalType": "address",
          "name": "",
          "type": "address"
        }
      ],
      "stateMutability": "view",
      "type": "function"
    },
    {
      "inputs": [],
      "name": "pause",
      "outputs": [],
      "stateMutability": "nonpayable",
      "type": "function"
    },
    {
      "inputs": [],
      "name": "paused",
      "outputs": [
        {
          "internalType": "bool",
          "name": "",
          "type": "bool"
        }
      ],
      "stateMutability": "view",
      "type": "function"
    },
    {
      "inputs": [],
      "name": "renounceOwnership",
      "outputs": [],
      "stateMutability": "nonpayable",
      "type": "function"
    },
    {
      "inputs": [
        {
          "internalType": "address",
          "name": "newOwner",
          "type": "address"
        }
      ],
      "name": "transferOwnership",
      "outputs": [],
      "stateMutability": "nonpayable",
      "type": "function"
    },
    {
      "inputs": [],
      "name": "unpause",
      "outputs": [],
      "stateMutability": "nonpayable",
      "type": "function"
    },
    {
      "inputs": [
        {
          "internalType": "address payable",
          "name": "receiver",
          "type": "address"
        },
        {
          "internalType": "uint256",
          "name": "poolId",
          "type": "uint256"
        },
        {
          "internalType": "uint256",
          "name": "amount",
          "type": "uint256"
        }
      ],
      "name": "withdraw",
      "outputs": [],
      "stateMutability": "nonpayable",
      "type": "function"
    }
  ],
  "bytecode": "0x608060405234801561001057600080fd5b5060405161129a38038061129a83398101604081905261002f916100e6565b6100383361007a565b6000805460ff60a01b1916905560018055600280546001600160a01b039384166001600160a01b03199182161790915560038054929093169116179055610119565b600080546001600160a01b038381166001600160a01b0319831681178455604051919092169283917f8be0079c531659141344cd1fd0a4f28419497f9722a3daafe3b4186f6b6457e09190a35050565b80516001600160a01b03811681146100e157600080fd5b919050565b600080604083850312156100f957600080fd5b610102836100ca565b9150610110602084016100ca565b90509250929050565b611172806101286000396000f3fe6080604052600436106100c75760003560e01c80639015dcc911610074578063ba7cfb441161004e578063ba7cfb441461020a578063dee8667f1461022a578063f2fde38b1461024857600080fd5b80639015dcc914610181578063ae22192e1461019f578063b5c5f672146101ea57600080fd5b80638456cb59116100a55780638456cb59146101275780638b6099db1461013c5780638da5cb5b1461014f57600080fd5b80633f4ba83a146100cc5780635c975abb146100e3578063715018a614610112575b600080fd5b3480156100d857600080fd5b506100e1610268565b005b3480156100ef57600080fd5b50600054600160a01b900460ff1660405190151581526020015b60405180910390f35b34801561011e57600080fd5b506100e161027a565b34801561013357600080fd5b506100e161028c565b6100e161014a366004610f11565b61029c565b34801561015b57600080fd5b506000546001600160a01b03165b6040516001600160a01b039091168152602001610109565b34801561018d57600080fd5b506002546001600160a01b0316610169565b3480156101ab57600080fd5b506101bf6101ba366004610f5b565b610516565b60408051825181526020808401516001600160a01b0316908201529181015190820152606001610109565b3480156101f657600080fd5b506100e1610205366004610f87565b61058e565b34801561021657600080fd5b506100e1610225366004610fd2565b6107b3565b34801561023657600080fd5b506003546001600160a01b0316610169565b34801561025457600080fd5b506100e16102633660046110c4565b61097f565b610270610a0f565b610278610a69565b565b610282610a0f565b6102786000610abe565b610294610a0f565b610278610b1b565b6102a4610b5e565b6001600160a01b03811615610409576040517f70a082310000000000000000000000000000000000000000000000000000000081526001600160a01b03858116600483015282916000918316906370a08231906024016020604051808303816000875af1158015610319573d6000803e3d6000fd5b505050506040513d601f19601f8201168201806040525081019061033d91906110e8565b9050838110156103945760405162461bcd60e51b815260206004820152601460248201527f496e73756666696369656e742062616c616e636500000000000000000000000060448201526064015b60405180910390fd5b6003546040516323b872dd60e01b81526001600160a01b038881166004830152918216602482015260448101869052908316906323b872dd90606401600060405180830381600087803b1580156103ea57600080fd5b505af11580156103fe573d6000803e3d6000fd5b505050505050610458565b8134146104585760405162461bcd60e51b815260206004820152600e60248201527f496e76616c696420616d6f756e74000000000000000000000000000000000000604482015260640161038b565b604080516060810182528381526001600160a01b0383811660208084019182528385018881526000898152600483528681208b86168083529084529087902086518155935160018501805473ffffffffffffffffffffffffffffffffffffffff19169190961617909455516002909201919091558351868152908101879052919290917f73a19dd210f1a7f902193214c0ee91dd35ee5b4d920cba8d519eca65a7b488ca910160405180910390a25061051060018055565b50505050565b61054360405180606001604052806000815260200160006001600160a01b03168152602001600081525090565b5060009081526004602090815260408083206001600160a01b039485168452825291829020825160608101845281548152600182015490941691840191909152600201549082015290565b610596610b5e565b60008281526004602090815260408083203384529091529020548111156105ff5760405162461bcd60e51b815260206004820152601060248201527f4e6f7420656e6f7567682066756e647300000000000000000000000000000000604482015260640161038b565b60008281526004602090815260408083203384529091529020600181015490546001600160a01b0390911690829003610676576000838152600460209081526040808320338452909152812081815560018101805473ffffffffffffffffffffffffffffffffffffffff19169055600201556106a5565b60008381526004602090815260408083203384529091528120805484929061069f908490611101565b90915550505b6001600160a01b0381166106ef576040516001600160a01b0385169083156108fc029084906000818181858888f193505050501580156106e9573d6000803e3d6000fd5b50610760565b6003546040516323b872dd60e01b81526001600160a01b03918216600482015285821660248201526044810184905282918216906323b872dd90606401600060405180830381600087803b15801561074657600080fd5b505af115801561075a573d6000803e3d6000fd5b50505050505b60408051838152602081018590526001600160a01b038616917f92ccf450a286a957af52509bc1c9939d1a6a481783e142e41e2499f0bb66ebc6910160405180910390a2506107ae60018055565b505050565b6107bb610b5e565b604080516bffffffffffffffffffffffff19606089901b1660208083019190915260348201879052605480830186905283518084039091018152607490920190925280519101206003546001600160a01b03166108188284610bb7565b6001600160a01b03161461086e5760405162461bcd60e51b815260206004820152601860248201527f436c61696d3a20496e76616c6964207369676e61747572650000000000000000604482015260640161038b565b6001600160a01b0384166108b8576040516001600160a01b0388169086156108fc029087906000818181858888f193505050501580156108b2573d6000803e3d6000fd5b50610929565b6003546040516323b872dd60e01b81526001600160a01b03918216600482015288821660248201526044810187905285918216906323b872dd90606401600060405180830381600087803b15801561090f57600080fd5b505af1158015610923573d6000803e3d6000fd5b50505050505b60408051868152602081018890526001600160a01b038916917f987d620f307ff6b94d58743cb7a7509f24071586a77759b77c2d4e29f75a2f9a910160405180910390a25061097760018055565b505050505050565b610987610a0f565b6001600160a01b038116610a035760405162461bcd60e51b815260206004820152602660248201527f4f776e61626c653a206e6577206f776e657220697320746865207a65726f206160448201527f6464726573730000000000000000000000000000000000000000000000000000606482015260840161038b565b610a0c81610abe565b50565b6000546001600160a01b031633146102785760405162461bcd60e51b815260206004820181905260248201527f4f776e61626c653a2063616c6c6572206973206e6f7420746865206f776e6572604482015260640161038b565b610a71610bdb565b6000805460ff60a01b191690557f5db9ee0a495bf2e6ff9c91a7834c1ba4fdd244a5e8aa4e537bd38aeae4b073aa335b6040516001600160a01b03909116815260200160405180910390a1565b600080546001600160a01b0383811673ffffffffffffffffffffffffffffffffffffffff19831681178455604051919092169283917f8be0079c531659141344cd1fd0a4f28419497f9722a3daafe3b4186f6b6457e09190a35050565b610b23610c34565b6000805460ff60a01b1916600160a01b1790557f62e78cea01bee320cd4e420270b5ea74000d11b0c9f74754ebdbfc544b05a258610aa13390565b600260015403610bb05760405162461bcd60e51b815260206004820152601f60248201527f5265656e7472616e637947756172643a207265656e7472616e742063616c6c00604482015260640161038b565b6002600155565b6000806000610bc68585610c8e565b91509150610bd381610cd3565b509392505050565b600054600160a01b900460ff166102785760405162461bcd60e51b815260206004820152601460248201527f5061757361626c653a206e6f7420706175736564000000000000000000000000604482015260640161038b565b600054600160a01b900460ff16156102785760405162461bcd60e51b815260206004820152601060248201527f5061757361626c653a2070617573656400000000000000000000000000000000604482015260640161038b565b6000808251604103610cc45760208301516040840151606085015160001a610cb887828585610e38565b94509450505050610ccc565b506000905060025b9250929050565b6000816004811115610ce757610ce7611126565b03610cef5750565b6001816004811115610d0357610d03611126565b03610d505760405162461bcd60e51b815260206004820152601860248201527f45434453413a20696e76616c6964207369676e61747572650000000000000000604482015260640161038b565b6002816004811115610d6457610d64611126565b03610db15760405162461bcd60e51b815260206004820152601f60248201527f45434453413a20696e76616c6964207369676e6174757265206c656e67746800604482015260640161038b565b6003816004811115610dc557610dc5611126565b03610a0c5760405162461bcd60e51b815260206004820152602260248201527f45434453413a20696e76616c6964207369676e6174757265202773272076616c60448201527f7565000000000000000000000000000000000000000000000000000000000000606482015260840161038b565b6000807f7fffffffffffffffffffffffffffffff5d576e7357a4501ddfe92f46681b20a0831115610e6f5750600090506003610ef3565b6040805160008082526020820180845289905260ff881692820192909252606081018690526080810185905260019060a0016020604051602081039080840390855afa158015610ec3573d6000803e3d6000fd5b5050604051601f1901519150506001600160a01b038116610eec57600060019250925050610ef3565b9150600090505b94509492505050565b6001600160a01b0381168114610a0c57600080fd5b60008060008060808587031215610f2757600080fd5b8435610f3281610efc565b935060208501359250604085013591506060850135610f5081610efc565b939692955090935050565b60008060408385031215610f6e57600080fd5b8235610f7981610efc565b946020939093013593505050565b600080600060608486031215610f9c57600080fd5b8335610fa781610efc565b95602085013595506040909401359392505050565b634e487b7160e01b600052604160045260246000fd5b60008060008060008060c08789031215610feb57600080fd5b8635610ff681610efc565b95506020870135945060408701359350606087013561101481610efc565b92506080870135915060a087013567ffffffffffffffff8082111561103857600080fd5b818901915089601f83011261104c57600080fd5b81358181111561105e5761105e610fbc565b604051601f8201601f19908116603f0116810190838211818310171561108657611086610fbc565b816040528281528c602084870101111561109f57600080fd5b8260208601602083013760006020848301015280955050505050509295509295509295565b6000602082840312156110d657600080fd5b81356110e181610efc565b9392505050565b6000602082840312156110fa57600080fd5b5051919050565b60008282101561112157634e487b7160e01b600052601160045260246000fd5b500390565b634e487b7160e01b600052602160045260246000fdfea2646970667358221220ea63b7f0a98463d365c60ec5bcaa1a3b8a4019bd3a6c7e5204be24de8a91bc4f64736f6c634300080e0033",
  "linkReferences": {},
  "deployedLinkReferences": {}
}