{
  "_format": "hh-sol-artifact-1",
  "contractName": "DynamicEscrow",
  "sourceName": "contracts/DynamicEscrow.sol",
  "abi": [
    {
      "inputs": [
        {
          "internalType": "address",
          "name": "rewarder",
          "type": "address"
        },
        {
          "internalType": "address",
          "name": "trustedAccountAddress",
          "type": "address"
        }
      ],
      "stateMutability": "nonpayable",
      "type": "constructor"
    },
    {
      "anonymous": false,
      "inputs": [
        {
          "indexed": true,
          "internalType": "address",
          "name": "receiver",
          "type": "address"
        },
        {
          "indexed": false,
          "internalType": "uint256",
          "name": "weiAmount",
          "type": "uint256"
        },
        {
          "indexed": false,
          "internalType": "bytes32",
          "name": "poolId",
          "type": "bytes32"
        }
      ],
      "name": "Claimed",
      "type": "event"
    },
    {
      "anonymous": false,
      "inputs": [
        {
          "indexed": true,
          "internalType": "address",
          "name": "spender",
          "type": "address"
        },
        {
          "indexed": false,
          "internalType": "uint256",
          "name": "weiAmount",
          "type": "uint256"
        },
        {
          "indexed": false,
          "internalType": "bytes32",
          "name": "poolId",
          "type": "bytes32"
        }
      ],
      "name": "Deposited",
      "type": "event"
    },
    {
      "anonymous": false,
      "inputs": [
        {
          "indexed": true,
          "internalType": "address",
          "name": "previousOwner",
          "type": "address"
        },
        {
          "indexed": true,
          "internalType": "address",
          "name": "newOwner",
          "type": "address"
        }
      ],
      "name": "OwnershipTransferred",
      "type": "event"
    },
    {
      "anonymous": false,
      "inputs": [
        {
          "indexed": false,
          "internalType": "address",
          "name": "account",
          "type": "address"
        }
      ],
      "name": "Paused",
      "type": "event"
    },
    {
      "anonymous": false,
      "inputs": [
        {
          "indexed": false,
          "internalType": "address",
          "name": "account",
          "type": "address"
        }
      ],
      "name": "Unpaused",
      "type": "event"
    },
    {
      "anonymous": false,
      "inputs": [
        {
          "indexed": true,
          "internalType": "address",
          "name": "receiver",
          "type": "address"
        },
        {
          "indexed": false,
          "internalType": "uint256",
          "name": "weiAmount",
          "type": "uint256"
        },
        {
          "indexed": false,
          "internalType": "bytes32",
          "name": "poolId",
          "type": "bytes32"
        }
      ],
      "name": "Withdrawn",
      "type": "event"
    },
    {
      "inputs": [
        {
          "internalType": "address payable",
          "name": "receiver",
          "type": "address"
        },
        {
          "internalType": "bytes32",
          "name": "poolId",
          "type": "bytes32"
        },
        {
          "internalType": "uint256",
          "name": "amount",
          "type": "uint256"
        },
        {
          "internalType": "address",
          "name": "tokenAddress",
          "type": "address"
        },
        {
          "internalType": "uint256",
          "name": "nonce",
          "type": "uint256"
        },
        {
          "internalType": "bytes",
          "name": "sig",
          "type": "bytes"
        }
      ],
      "name": "claim",
      "outputs": [],
      "stateMutability": "nonpayable",
      "type": "function"
    },
    {
      "inputs": [
        {
          "internalType": "address",
          "name": "spender",
          "type": "address"
        },
        {
          "internalType": "bytes32",
          "name": "poolId",
          "type": "bytes32"
        },
        {
          "internalType": "uint256",
          "name": "amount",
          "type": "uint256"
        },
        {
          "internalType": "address",
          "name": "tokenAddress",
          "type": "address"
        }
      ],
      "name": "deposit",
      "outputs": [],
      "stateMutability": "payable",
      "type": "function"
    },
    {
      "inputs": [
        {
          "internalType": "address",
          "name": "payee",
          "type": "address"
        },
        {
          "internalType": "bytes32",
          "name": "poolId",
          "type": "bytes32"
        }
      ],
      "name": "depositsOf",
      "outputs": [
        {
          "components": [
            {
              "internalType": "uint256",
              "name": "weiAmount",
              "type": "uint256"
            },
            {
              "internalType": "address",
              "name": "tokenAddress",
              "type": "address"
            },
            {
              "internalType": "bytes32",
              "name": "poolId",
              "type": "bytes32"
            }
          ],
          "internalType": "struct IEscrow.DynamicDeposit",
          "name": "",
          "type": "tuple"
        }
      ],
      "stateMutability": "view",
      "type": "function"
    },
    {
      "inputs": [],
      "name": "getRewarder",
      "outputs": [
        {
          "internalType": "address",
          "name": "",
          "type": "address"
        }
      ],
      "stateMutability": "view",
      "type": "function"
    },
    {
      "inputs": [],
      "name": "getTrustedAccount",
      "outputs": [
        {
          "internalType": "address",
          "name": "",
          "type": "address"
        }
      ],
      "stateMutability": "view",
      "type": "function"
    },
    {
      "inputs": [],
      "name": "owner",
      "outputs": [
        {
          "internalType": "address",
          "name": "",
          "type": "address"
        }
      ],
      "stateMutability": "view",
      "type": "function"
    },
    {
      "inputs": [],
      "name": "pause",
      "outputs": [],
      "stateMutability": "nonpayable",
      "type": "function"
    },
    {
      "inputs": [],
      "name": "paused",
      "outputs": [
        {
          "internalType": "bool",
          "name": "",
          "type": "bool"
        }
      ],
      "stateMutability": "view",
      "type": "function"
    },
    {
      "inputs": [],
      "name": "renounceOwnership",
      "outputs": [],
      "stateMutability": "nonpayable",
      "type": "function"
    },
    {
      "inputs": [
        {
          "internalType": "address",
          "name": "newOwner",
          "type": "address"
        }
      ],
      "name": "transferOwnership",
      "outputs": [],
      "stateMutability": "nonpayable",
      "type": "function"
    },
    {
      "inputs": [],
      "name": "unpause",
      "outputs": [],
      "stateMutability": "nonpayable",
      "type": "function"
    },
    {
      "inputs": [
        {
          "internalType": "address payable",
          "name": "receiver",
          "type": "address"
        },
        {
          "internalType": "bytes32",
          "name": "poolId",
          "type": "bytes32"
        },
        {
          "internalType": "uint256",
          "name": "amount",
          "type": "uint256"
        }
      ],
      "name": "withdraw",
      "outputs": [],
      "stateMutability": "nonpayable",
      "type": "function"
    }
  ],
  "bytecode": "0x60806040523480156200001157600080fd5b5060405162001548380380620015488339810160408190526200003491620000ef565b6200003f3362000082565b6000805460ff60a01b1916905560018055600280546001600160a01b039384166001600160a01b0319918216179091556003805492909316911617905562000127565b600080546001600160a01b038381166001600160a01b0319831681178455604051919092169283917f8be0079c531659141344cd1fd0a4f28419497f9722a3daafe3b4186f6b6457e09190a35050565b80516001600160a01b0381168114620000ea57600080fd5b919050565b600080604083850312156200010357600080fd5b6200010e83620000d2565b91506200011e60208401620000d2565b90509250929050565b61141180620001376000396000f3fe6080604052600436106100c75760003560e01c8063880d49ed11610074578063aa5974d31161004e578063aa5974d314610217578063dee8667f1461022a578063f2fde38b1461024857600080fd5b8063880d49ed146101a75780638da5cb5b146101c75780639015dcc9146101f957600080fd5b80635c975abb116100a55780635c975abb14610153578063715018a61461017d5780638456cb591461019257600080fd5b80631aa9e742146100cc5780632917173a1461011c5780633f4ba83a1461013e575b600080fd5b3480156100d857600080fd5b506100ec6100e7366004611156565b610268565b60408051825181526020808401516001600160a01b03169082015291810151908201526060015b60405180910390f35b34801561012857600080fd5b5061013c610137366004611182565b6102d2565b005b34801561014a57600080fd5b5061013c61051a565b34801561015f57600080fd5b50600054600160a01b900460ff166040519015158152602001610113565b34801561018957600080fd5b5061013c61052c565b34801561019e57600080fd5b5061013c61053e565b3480156101b357600080fd5b5061013c6101c23660046111cd565b61054e565b3480156101d357600080fd5b506000546001600160a01b03165b6040516001600160a01b039091168152602001610113565b34801561020557600080fd5b506002546001600160a01b03166101e1565b61013c6102253660046112bf565b610785565b34801561023657600080fd5b506003546001600160a01b03166101e1565b34801561025457600080fd5b5061013c610263366004611309565b610b2c565b604080516060808201835260008083526020808401829052928401819052848152600483528381206001600160a01b038781168352908452908490208451928301855280548352600181015490911692820192909252600290910154918101919091525b92915050565b6102da610bbc565b6102e2610c15565b60008281526004602090815260408083203384529091529020600181015481546001600160a01b03909116908311156103625760405162461bcd60e51b815260206004820152601060248201527f4e6f7420656e6f7567682066756e64730000000000000000000000000000000060448201526064015b60405180910390fd5b60408051808201909152601081527f746f6b656e206164647265737320697300000000000000000000000000000000602082015260018301546103ae91906001600160a01b0316610c6f565b81548390036103fb576000848152600460209081526040808320338452909152812081815560018101805473ffffffffffffffffffffffffffffffffffffffff1916905560020155610415565b8282600001600082825461040f919061132d565b90915550505b6001600160a01b03811661045f576040516001600160a01b0386169084156108fc029085906000818181858888f19350505050158015610459573d6000803e3d6000fd5b506104c6565b60405163a9059cbb60e01b81526001600160a01b0386811660048301526024820185905282919082169063a9059cbb90604401600060405180830381600087803b1580156104ac57600080fd5b505af11580156104c0573d6000803e3d6000fd5b50505050505b60408051848152602081018690526001600160a01b038716917f510b30a02fc9b7506980950b9c615af8c13e88658555c0ea22acffd73d9ea222910160405180910390a2505061051560018055565b505050565b610522610ce6565b61052a610d40565b565b610534610ce6565b61052a6000610d95565b610546610ce6565b61052a610df2565b610556610bbc565b61055e610c15565b604080516bffffffffffffffffffffffff19606089901b1660208083019190915260348201879052605480830186905283518084039091018152607490920190925280519101206003546001600160a01b03166105bb8284610e35565b6001600160a01b0316146106115760405162461bcd60e51b815260206004820152601860248201527f436c61696d3a20496e76616c6964207369676e617475726500000000000000006044820152606401610359565b6000818152600560205260409020541561066d5760405162461bcd60e51b815260206004820152601b60248201527f436c61696d3a204861736820616c726561647920636c61696d656400000000006044820152606401610359565b60008181526005602052604090208590556001600160a01b0384166106c8576040516001600160a01b0388169086156108fc029087906000818181858888f193505050501580156106c2573d6000803e3d6000fd5b5061072f565b60405163a9059cbb60e01b81526001600160a01b0388811660048301526024820187905285919082169063a9059cbb90604401600060405180830381600087803b15801561071557600080fd5b505af1158015610729573d6000803e3d6000fd5b50505050505b60408051868152602081018890526001600160a01b038916917fd95107f4584744c6c893a04c43058aadd1ce8aac8ca5d64140eaf277de6c1d57910160405180910390a25061077d60018055565b505050505050565b61078d610bbc565b610795610c15565b60008381526004602090815260408083206001600160a01b0380891685529083529281902081516060810183528154808252600183015490951693810193909352600201549082015290156108525760405162461bcd60e51b815260206004820152602860248201527f41206465706f7369742077617320616c7265616479206d61646520666f72207460448201527f68697320706f6f6c0000000000000000000000000000000000000000000000006064820152608401610359565b6001600160a01b038216156109c5576040517f70a082310000000000000000000000000000000000000000000000000000000081526001600160a01b03868116600483015283916000918316906370a08231906024016020604051808303816000875af11580156108c7573d6000803e3d6000fd5b505050506040513d601f19601f820116820180604052508101906108eb919061134e565b90508481101561093d5760405162461bcd60e51b815260206004820152601460248201527f496e73756666696369656e742062616c616e63650000000000000000000000006044820152606401610359565b6040517f23b872dd0000000000000000000000000000000000000000000000000000000081526001600160a01b038881166004830152306024830152604482018790528316906323b872dd90606401600060405180830381600087803b1580156109a657600080fd5b505af11580156109ba573d6000803e3d6000fd5b505050505050610a14565b823414610a145760405162461bcd60e51b815260206004820152600e60248201527f496e76616c696420616d6f756e740000000000000000000000000000000000006044820152606401610359565b604080516060810182528481526001600160a01b03848116602080840191825283850189815260008a8152600483528681208c861682529092529481208451808255925160018201805473ffffffffffffffffffffffffffffffffffffffff191691909516179093559351600290920191909155909103610ad75760405162461bcd60e51b815260206004820181905260248201527f4661696c656420746f2073617665206465706f736974206f6e20636861696e216044820152606401610359565b60408051858152602081018790526001600160a01b038816917fd7eda976cf4919f13172eb15bb39c64cecb7172258c741dab31d14c855eff402910160405180910390a25050610b2660018055565b50505050565b610b34610ce6565b6001600160a01b038116610bb05760405162461bcd60e51b815260206004820152602660248201527f4f776e61626c653a206e6577206f776e657220697320746865207a65726f206160448201527f64647265737300000000000000000000000000000000000000000000000000006064820152608401610359565b610bb981610d95565b50565b600260015403610c0e5760405162461bcd60e51b815260206004820152601f60248201527f5265656e7472616e637947756172643a207265656e7472616e742063616c6c006044820152606401610359565b6002600155565b600054600160a01b900460ff161561052a5760405162461bcd60e51b815260206004820152601060248201527f5061757361626c653a20706175736564000000000000000000000000000000006044820152606401610359565b610ce28282604051602401610c85929190611367565b60408051601f198184030181529190526020810180517bffffffffffffffffffffffffffffffffffffffffffffffffffffffff167f319af33300000000000000000000000000000000000000000000000000000000179052610e59565b5050565b6000546001600160a01b0316331461052a5760405162461bcd60e51b815260206004820181905260248201527f4f776e61626c653a2063616c6c6572206973206e6f7420746865206f776e65726044820152606401610359565b610d48610e7a565b6000805460ff60a01b191690557f5db9ee0a495bf2e6ff9c91a7834c1ba4fdd244a5e8aa4e537bd38aeae4b073aa335b6040516001600160a01b03909116815260200160405180910390a1565b600080546001600160a01b0383811673ffffffffffffffffffffffffffffffffffffffff19831681178455604051919092169283917f8be0079c531659141344cd1fd0a4f28419497f9722a3daafe3b4186f6b6457e09190a35050565b610dfa610c15565b6000805460ff60a01b1916600160a01b1790557f62e78cea01bee320cd4e420270b5ea74000d11b0c9f74754ebdbfc544b05a258610d783390565b6000806000610e448585610ed3565b91509150610e5181610f18565b509392505050565b80516a636f6e736f6c652e6c6f67602083016000808483855afa5050505050565b600054600160a01b900460ff1661052a5760405162461bcd60e51b815260206004820152601460248201527f5061757361626c653a206e6f74207061757365640000000000000000000000006044820152606401610359565b6000808251604103610f095760208301516040840151606085015160001a610efd8782858561107d565b94509450505050610f11565b506000905060025b9250929050565b6000816004811115610f2c57610f2c6113c5565b03610f345750565b6001816004811115610f4857610f486113c5565b03610f955760405162461bcd60e51b815260206004820152601860248201527f45434453413a20696e76616c6964207369676e617475726500000000000000006044820152606401610359565b6002816004811115610fa957610fa96113c5565b03610ff65760405162461bcd60e51b815260206004820152601f60248201527f45434453413a20696e76616c6964207369676e6174757265206c656e677468006044820152606401610359565b600381600481111561100a5761100a6113c5565b03610bb95760405162461bcd60e51b815260206004820152602260248201527f45434453413a20696e76616c6964207369676e6174757265202773272076616c60448201527f75650000000000000000000000000000000000000000000000000000000000006064820152608401610359565b6000807f7fffffffffffffffffffffffffffffff5d576e7357a4501ddfe92f46681b20a08311156110b45750600090506003611138565b6040805160008082526020820180845289905260ff881692820192909252606081018690526080810185905260019060a0016020604051602081039080840390855afa158015611108573d6000803e3d6000fd5b5050604051601f1901519150506001600160a01b03811661113157600060019250925050611138565b9150600090505b94509492505050565b6001600160a01b0381168114610bb957600080fd5b6000806040838503121561116957600080fd5b823561117481611141565b946020939093013593505050565b60008060006060848603121561119757600080fd5b83356111a281611141565b95602085013595506040909401359392505050565b634e487b7160e01b600052604160045260246000fd5b60008060008060008060c087890312156111e657600080fd5b86356111f181611141565b95506020870135945060408701359350606087013561120f81611141565b92506080870135915060a087013567ffffffffffffffff8082111561123357600080fd5b818901915089601f83011261124757600080fd5b813581811115611259576112596111b7565b604051601f8201601f19908116603f01168101908382118183101715611281576112816111b7565b816040528281528c602084870101111561129a57600080fd5b8260208601602083013760006020848301015280955050505050509295509295509295565b600080600080608085870312156112d557600080fd5b84356112e081611141565b9350602085013592506040850135915060608501356112fe81611141565b939692955090935050565b60006020828403121561131b57600080fd5b813561132681611141565b9392505050565b818103818111156102cc57634e487b7160e01b600052601160045260246000fd5b60006020828403121561136057600080fd5b5051919050565b604081526000835180604084015260005b818110156113955760208187018101516060868401015201611378565b506000606082850101526060601f19601f8301168401019150506001600160a01b03831660208301529392505050565b634e487b7160e01b600052602160045260246000fdfea26469706673582212201fc3efbe24b5a2a80588d783c40b0cecd534bf8383acb3b628e9344c9da18e2864736f6c63430008120033",
  "linkReferences": {},
  "deployedLinkReferences": {}
}