{
  "_format": "hh-sol-artifact-1",
  "contractName": "HypePool",
  "sourceName": "contracts/HypePool.sol",
  "abi": [
    {
      "inputs": [
        {
          "internalType": "address",
          "name": "escrowContractAddress",
          "type": "address"
        }
      ],
      "stateMutability": "nonpayable",
      "type": "constructor"
    },
    {
      "anonymous": false,
      "inputs": [
        {
          "indexed": true,
          "internalType": "address",
          "name": "previousOwner",
          "type": "address"
        },
        {
          "indexed": true,
          "internalType": "address",
          "name": "newOwner",
          "type": "address"
        }
      ],
      "name": "OwnershipTransferred",
      "type": "event"
    },
    {
      "anonymous": false,
      "inputs": [
        {
          "indexed": false,
          "internalType": "address",
          "name": "account",
          "type": "address"
        }
      ],
      "name": "Paused",
      "type": "event"
    },
    {
      "anonymous": false,
      "inputs": [
        {
          "indexed": false,
          "internalType": "uint256",
          "name": "poolId",
          "type": "uint256"
        },
        {
          "indexed": false,
          "internalType": "address",
          "name": "activator",
          "type": "address"
        }
      ],
      "name": "PoolActivated",
      "type": "event"
    },
    {
      "anonymous": false,
      "inputs": [
        {
          "indexed": false,
          "internalType": "uint256",
          "name": "poolId",
          "type": "uint256"
        },
        {
          "indexed": false,
          "internalType": "address",
          "name": "creator",
          "type": "address"
        },
        {
          "indexed": false,
          "internalType": "string",
          "name": "uri",
          "type": "string"
        }
      ],
      "name": "PoolCreated",
      "type": "event"
    },
    {
      "anonymous": false,
      "inputs": [
        {
          "indexed": false,
          "internalType": "uint256",
          "name": "poolId",
          "type": "uint256"
        },
        {
          "indexed": false,
          "internalType": "address",
          "name": "deactivator",
          "type": "address"
        }
      ],
      "name": "PoolDeactivated",
      "type": "event"
    },
    {
      "anonymous": false,
      "inputs": [
        {
          "indexed": false,
          "internalType": "uint256",
          "name": "poolId",
          "type": "uint256"
        },
        {
          "indexed": false,
          "internalType": "string",
          "name": "title",
          "type": "string"
        },
        {
          "indexed": false,
          "internalType": "string",
          "name": "projectName",
          "type": "string"
        },
        {
          "indexed": false,
          "internalType": "string",
          "name": "tokenName",
          "type": "string"
        },
        {
          "indexed": false,
          "internalType": "string",
          "name": "word",
          "type": "string"
        }
      ],
      "name": "PoolDetailsCreated",
      "type": "event"
    },
    {
      "anonymous": false,
      "inputs": [
        {
          "indexed": false,
          "internalType": "uint256",
          "name": "poolId",
          "type": "uint256"
        },
        {
          "indexed": false,
          "internalType": "uint256",
          "name": "network",
          "type": "uint256"
        },
        {
          "indexed": false,
          "internalType": "address",
          "name": "tokenAddress",
          "type": "address"
        },
        {
          "indexed": false,
          "internalType": "uint256",
          "name": "minReward",
          "type": "uint256"
        },
        {
          "indexed": false,
          "internalType": "uint256",
          "name": "impressionReward",
          "type": "uint256"
        },
        {
          "indexed": false,
          "internalType": "uint256",
          "name": "cap",
          "type": "uint256"
        },
        {
          "indexed": false,
          "internalType": "uint256",
          "name": "endDate",
          "type": "uint256"
        }
      ],
      "name": "PoolRewardsCreated",
      "type": "event"
    },
    {
      "anonymous": false,
      "inputs": [
        {
          "indexed": false,
          "internalType": "uint256",
          "name": "poolId",
          "type": "uint256"
        },
        {
          "indexed": false,
          "internalType": "string",
          "name": "uri",
          "type": "string"
        }
      ],
      "name": "PoolUriSet",
      "type": "event"
    },
    {
      "anonymous": false,
      "inputs": [
        {
          "indexed": false,
          "internalType": "address",
          "name": "account",
          "type": "address"
        }
      ],
      "name": "Unpaused",
      "type": "event"
    },
    {
      "inputs": [
        {
          "internalType": "uint256",
          "name": "id",
          "type": "uint256"
        }
      ],
      "name": "activatePool",
      "outputs": [],
      "stateMutability": "nonpayable",
      "type": "function"
    },
    {
      "inputs": [
        {
          "internalType": "string",
          "name": "uri",
          "type": "string"
        },
        {
          "components": [
            {
              "internalType": "string",
              "name": "title",
              "type": "string"
            },
            {
              "internalType": "string",
              "name": "projectName",
              "type": "string"
            },
            {
              "internalType": "string",
              "name": "tokenName",
              "type": "string"
            },
            {
              "internalType": "string",
              "name": "word",
              "type": "string"
            }
          ],
          "internalType": "struct IHypePool.Details",
          "name": "details",
          "type": "tuple"
        },
        {
          "components": [
            {
              "internalType": "uint256",
              "name": "network",
              "type": "uint256"
            },
            {
              "internalType": "address",
              "name": "tokenAddress",
              "type": "address"
            },
            {
              "internalType": "uint256",
              "name": "minReward",
              "type": "uint256"
            },
            {
              "internalType": "uint256",
              "name": "impressionReward",
              "type": "uint256"
            },
            {
              "internalType": "uint256",
              "name": "cap",
              "type": "uint256"
            },
            {
              "internalType": "uint256",
              "name": "endDate",
              "type": "uint256"
            }
          ],
          "internalType": "struct IHypePool.Rewards",
          "name": "rewards",
          "type": "tuple"
        }
      ],
      "name": "createPool",
      "outputs": [
        {
          "components": [
            {
              "internalType": "uint256",
              "name": "id",
              "type": "uint256"
            },
            {
              "internalType": "address",
              "name": "creator",
              "type": "address"
            },
            {
              "internalType": "bool",
              "name": "active",
              "type": "bool"
            },
            {
              "components": [
                {
                  "internalType": "string",
                  "name": "title",
                  "type": "string"
                },
                {
                  "internalType": "string",
                  "name": "projectName",
                  "type": "string"
                },
                {
                  "internalType": "string",
                  "name": "tokenName",
                  "type": "string"
                },
                {
                  "internalType": "string",
                  "name": "word",
                  "type": "string"
                }
              ],
              "internalType": "struct IHypePool.Details",
              "name": "details",
              "type": "tuple"
            },
            {
              "components": [
                {
                  "internalType": "uint256",
                  "name": "network",
                  "type": "uint256"
                },
                {
                  "internalType": "address",
                  "name": "tokenAddress",
                  "type": "address"
                },
                {
                  "internalType": "uint256",
                  "name": "minReward",
                  "type": "uint256"
                },
                {
                  "internalType": "uint256",
                  "name": "impressionReward",
                  "type": "uint256"
                },
                {
                  "internalType": "uint256",
                  "name": "cap",
                  "type": "uint256"
                },
                {
                  "internalType": "uint256",
                  "name": "endDate",
                  "type": "uint256"
                }
              ],
              "internalType": "struct IHypePool.Rewards",
              "name": "rewards",
              "type": "tuple"
            }
          ],
          "internalType": "struct IHypePool.HypePool",
          "name": "",
          "type": "tuple"
        }
      ],
      "stateMutability": "nonpayable",
      "type": "function"
    },
    {
      "inputs": [
        {
          "internalType": "uint256",
          "name": "id",
          "type": "uint256"
        }
      ],
      "name": "deactivatePool",
      "outputs": [],
      "stateMutability": "nonpayable",
      "type": "function"
    },
    {
      "inputs": [],
      "name": "getCurrentIndex",
      "outputs": [
        {
          "internalType": "uint256",
          "name": "",
          "type": "uint256"
        }
      ],
      "stateMutability": "view",
      "type": "function"
    },
    {
      "inputs": [
        {
          "internalType": "uint256",
          "name": "tokenId",
          "type": "uint256"
        }
      ],
      "name": "getPool",
      "outputs": [
        {
          "components": [
            {
              "internalType": "uint256",
              "name": "id",
              "type": "uint256"
            },
            {
              "internalType": "address",
              "name": "creator",
              "type": "address"
            },
            {
              "internalType": "bool",
              "name": "active",
              "type": "bool"
            },
            {
              "components": [
                {
                  "internalType": "string",
                  "name": "title",
                  "type": "string"
                },
                {
                  "internalType": "string",
                  "name": "projectName",
                  "type": "string"
                },
                {
                  "internalType": "string",
                  "name": "tokenName",
                  "type": "string"
                },
                {
                  "internalType": "string",
                  "name": "word",
                  "type": "string"
                }
              ],
              "internalType": "struct IHypePool.Details",
              "name": "details",
              "type": "tuple"
            },
            {
              "components": [
                {
                  "internalType": "uint256",
                  "name": "network",
                  "type": "uint256"
                },
                {
                  "internalType": "address",
                  "name": "tokenAddress",
                  "type": "address"
                },
                {
                  "internalType": "uint256",
                  "name": "minReward",
                  "type": "uint256"
                },
                {
                  "internalType": "uint256",
                  "name": "impressionReward",
                  "type": "uint256"
                },
                {
                  "internalType": "uint256",
                  "name": "cap",
                  "type": "uint256"
                },
                {
                  "internalType": "uint256",
                  "name": "endDate",
                  "type": "uint256"
                }
              ],
              "internalType": "struct IHypePool.Rewards",
              "name": "rewards",
              "type": "tuple"
            }
          ],
          "internalType": "struct IHypePool.HypePool",
          "name": "",
          "type": "tuple"
        }
      ],
      "stateMutability": "view",
      "type": "function"
    },
    {
      "inputs": [],
      "name": "owner",
      "outputs": [
        {
          "internalType": "address",
          "name": "",
          "type": "address"
        }
      ],
      "stateMutability": "view",
      "type": "function"
    },
    {
      "inputs": [],
      "name": "pause",
      "outputs": [],
      "stateMutability": "nonpayable",
      "type": "function"
    },
    {
      "inputs": [],
      "name": "paused",
      "outputs": [
        {
          "internalType": "bool",
          "name": "",
          "type": "bool"
        }
      ],
      "stateMutability": "view",
      "type": "function"
    },
    {
      "inputs": [
        {
          "internalType": "uint256",
          "name": "tokenId",
          "type": "uint256"
        }
      ],
      "name": "poolURI",
      "outputs": [
        {
          "internalType": "string",
          "name": "",
          "type": "string"
        }
      ],
      "stateMutability": "view",
      "type": "function"
    },
    {
      "inputs": [],
      "name": "renounceOwnership",
      "outputs": [],
      "stateMutability": "nonpayable",
      "type": "function"
    },
    {
      "inputs": [
        {
          "internalType": "address",
          "name": "newOwner",
          "type": "address"
        }
      ],
      "name": "transferOwnership",
      "outputs": [],
      "stateMutability": "nonpayable",
      "type": "function"
    },
    {
      "inputs": [],
      "name": "unpause",
      "outputs": [],
      "stateMutability": "nonpayable",
      "type": "function"
    }
  ],
  "bytecode": "0x60806040523480156200001157600080fd5b50604051620048d4380380620048d483398181016040528101906200003791906200028f565b60008060006101000a81548160ff02191690831515021790555062000071620000656200015560201b60201c565b6200015d60201b60201c565b620000a57fdc06c99611b4a9b78a8ea2d0a5e18f5f16a6c33d447eee6f4ccdd8dcfbeb149960001b6200022260201b60201c565b620000d97fc9f04220f28dc4d8a106b8294ff8d5f7b6e1a2092f2a6a8f0f3c0d6e34e607d860001b6200022260201b60201c565b6200010d7ffafe4df638d10fce1085ba1145fc51ac85b567327f843bc1ed2bb5acc5836aa660001b6200022260201b60201c565b80600260006101000a81548173ffffffffffffffffffffffffffffffffffffffff021916908373ffffffffffffffffffffffffffffffffffffffff16021790555050620002c1565b600033905090565b60008060019054906101000a900473ffffffffffffffffffffffffffffffffffffffff16905081600060016101000a81548173ffffffffffffffffffffffffffffffffffffffff021916908373ffffffffffffffffffffffffffffffffffffffff1602179055508173ffffffffffffffffffffffffffffffffffffffff168173ffffffffffffffffffffffffffffffffffffffff167f8be0079c531659141344cd1fd0a4f28419497f9722a3daafe3b4186f6b6457e060405160405180910390a35050565b50565b600080fd5b600073ffffffffffffffffffffffffffffffffffffffff82169050919050565b600062000257826200022a565b9050919050565b62000269816200024a565b81146200027557600080fd5b50565b60008151905062000289816200025e565b92915050565b600060208284031215620002a857620002a762000225565b5b6000620002b88482850162000278565b91505092915050565b61460380620002d16000396000f3fe608060405234801561001057600080fd5b50600436106100d45760003560e01c80636e6c0558116100815780638da5cb5b1161005b5780638da5cb5b146101df5780639abd9b05146101fd578063f2fde38b14610219576100d4565b80636e6c05581461019b578063715018a6146101cb5780638456cb59146101d5576100d4565b80631e2f4adc116100b25780631e2f4adc146101435780633f4ba83a146101735780635c975abb1461017d576100d4565b8063068bcd8d146100d957806308f747dd146101095780630d9005ae14610125575b600080fd5b6100f360048036038101906100ee9190613541565b610235565b60405161010091906137dc565b60405180910390f35b610123600480360381019061011e9190613541565b610659565b005b61012d6112d2565b60405161013a919061380d565b60405180910390f35b61015d60048036038101906101589190613541565b611367565b60405161016a9190613872565b60405180910390f35b61017b611490565b005b610185611526565b60405161019291906138a3565b60405180910390f35b6101b560048036038101906101b09190613bb1565b61153c565b6040516101c291906137dc565b60405180910390f35b6101d3611fc8565b005b6101dd611fdc565b005b6101e7612072565b6040516101f49190613c4c565b60405180910390f35b61021760048036038101906102129190613541565b61209b565b005b610233600480360381019061022e9190613c67565b61299b565b005b61023d61338d565b6102697f14f503080ba2beb733be62a063a2879ec47cb981d48980c9e70cfd04d26c05bd60001b612a1e565b6102957fa28cf48c3c044582c0e267760c6fdc614f0ceed2aff4631f98b6f99d0e5841ea60001b612a1e565b6102c17f88d81c1d5c3b8f755b343de81f6e55c1ed33508e92fc9d3b647b0d8c61a357a560001b612a1e565b600360008381526020019081526020016000206040518060a0016040529081600082015481526020016001820160009054906101000a900473ffffffffffffffffffffffffffffffffffffffff1673ffffffffffffffffffffffffffffffffffffffff1673ffffffffffffffffffffffffffffffffffffffff1681526020016001820160149054906101000a900460ff161515151581526020016002820160405180608001604052908160008201805461037a90613cc3565b80601f01602080910402602001604051908101604052809291908181526020018280546103a690613cc3565b80156103f35780601f106103c8576101008083540402835291602001916103f3565b820191906000526020600020905b8154815290600101906020018083116103d657829003601f168201915b5050505050815260200160018201805461040c90613cc3565b80601f016020809104026020016040519081016040528092919081815260200182805461043890613cc3565b80156104855780601f1061045a57610100808354040283529160200191610485565b820191906000526020600020905b81548152906001019060200180831161046857829003601f168201915b5050505050815260200160028201805461049e90613cc3565b80601f01602080910402602001604051908101604052809291908181526020018280546104ca90613cc3565b80156105175780601f106104ec57610100808354040283529160200191610517565b820191906000526020600020905b8154815290600101906020018083116104fa57829003601f168201915b5050505050815260200160038201805461053090613cc3565b80601f016020809104026020016040519081016040528092919081815260200182805461055c90613cc3565b80156105a95780601f1061057e576101008083540402835291602001916105a9565b820191906000526020600020905b81548152906001019060200180831161058c57829003601f168201915b5050505050815250508152602001600682016040518060c0016040529081600082015481526020016001820160009054906101000a900473ffffffffffffffffffffffffffffffffffffffff1673ffffffffffffffffffffffffffffffffffffffff1673ffffffffffffffffffffffffffffffffffffffff168152602001600282015481526020016003820154815260200160048201548152602001600582015481525050815250509050919050565b610661612a21565b61068d7f582e2fa351d2d11466c1c841ff6e666554960ac571168607ad4fc0aa0ae2976860001b612a1e565b6106b97f1d3935485ea80d40f370e12744f1896e5ae711c3719f11d289e627fcb30bc2ec60001b612a1e565b6106e57f8434df101aa45f29028bfcc07aaca001a8e258a204427fb7dcc79efad4416dc160001b612a1e565b6000600360008381526020019081526020016000206040518060a0016040529081600082015481526020016001820160009054906101000a900473ffffffffffffffffffffffffffffffffffffffff1673ffffffffffffffffffffffffffffffffffffffff1673ffffffffffffffffffffffffffffffffffffffff1681526020016001820160149054906101000a900460ff16151515158152602001600282016040518060800160405290816000820180546107a090613cc3565b80601f01602080910402602001604051908101604052809291908181526020018280546107cc90613cc3565b80156108195780601f106107ee57610100808354040283529160200191610819565b820191906000526020600020905b8154815290600101906020018083116107fc57829003601f168201915b5050505050815260200160018201805461083290613cc3565b80601f016020809104026020016040519081016040528092919081815260200182805461085e90613cc3565b80156108ab5780601f10610880576101008083540402835291602001916108ab565b820191906000526020600020905b81548152906001019060200180831161088e57829003601f168201915b505050505081526020016002820180546108c490613cc3565b80601f01602080910402602001604051908101604052809291908181526020018280546108f090613cc3565b801561093d5780601f106109125761010080835404028352916020019161093d565b820191906000526020600020905b81548152906001019060200180831161092057829003601f168201915b5050505050815260200160038201805461095690613cc3565b80601f016020809104026020016040519081016040528092919081815260200182805461098290613cc3565b80156109cf5780601f106109a4576101008083540402835291602001916109cf565b820191906000526020600020905b8154815290600101906020018083116109b257829003601f168201915b5050505050815250508152602001600682016040518060c0016040529081600082015481526020016001820160009054906101000a900473ffffffffffffffffffffffffffffffffffffffff1673ffffffffffffffffffffffffffffffffffffffff1673ffffffffffffffffffffffffffffffffffffffff168152602001600282015481526020016003820154815260200160048201548152602001600582015481525050815250509050610aa67f0d35d4ffdc79157df51abfaf223c66c13a7684854feeda6262a574b84a3b03c660001b612a1e565b610ad27fc440e387eff5658364de46851f637c5d02b41d4870ca8348941136476822de8760001b612a1e565b610afe7ff341fbda7da6ca8a6aa9c76d44e99249cf335fba5f533c460ac2a20be336c13c60001b612a1e565b600081608001516040015103610b49576040517f08c379a0000000000000000000000000000000000000000000000000000000008152600401610b4090613d40565b60405180910390fd5b610b757f46c304940271b702c7b365016b63eed7a7aa73936ec06ee28e2c974811eb660260001b612a1e565b610ba17fb3a0cc6fcc6723b842604f293af1f98fa4817db7e1f2e7e82e9505ac1674d38f60001b612a1e565b610bcd7f218010334f94a43215afbdaaea63882f49f8bd6a523cbdf9ae914608b084d66f60001b612a1e565b610bf97fe7677d308ba08857ce5f6cd3ff057c74757316517e75da5485b3ffe72f19206560001b612a1e565b600015158160400151151514610c44576040517f08c379a0000000000000000000000000000000000000000000000000000000008152600401610c3b90613dac565b60405180910390fd5b610c707f435dea04d6dbf809fa734fc82e3cffe42456fa4fde48fc3101e1f604a20de27d60001b612a1e565b610c9c7fb2aff56b013ade5389446cfa2a050d5086acd9db64bbc09b5d9ca3a2b239b90a60001b612a1e565b610cc87fec6b68120ebcfbfb1deefaf0961ddfc60f7b3fbe19a7af9bea0d10f7c32bd48e60001b612a1e565b6000600260009054906101000a900473ffffffffffffffffffffffffffffffffffffffff169050610d1b7f1609130a9ef7571bd2a51181103bf8b297a003f0cf1a797b1269ed35e19d83a660001b612a1e565b610d477f6864dbc354e63b8049b1d890a6e524f1a671aca049c92b7a094f262e69c4e43f60001b612a1e565b60008173ffffffffffffffffffffffffffffffffffffffff1663ae22192e33866040518363ffffffff1660e01b8152600401610d84929190613dcc565b606060405180830381865afa158015610da1573d6000803e3d6000fd5b505050506040513d601f19601f82011682018060405250810190610dc59190613e83565b9050610df37f2b3af6c9b810c6b1c60ae1575045ef039c8582c7362f9e9289b257f42649f5c960001b612a1e565b610e1f7f6fe2030d1a835886fab2ea75dd8f7b1df1b09810972b003c73850e3a76536b8060001b612a1e565b610e4b7fa5cfa403e1d05cfcb7981eb54fee0badb686f85fd4ba6c62095428ed5fcda28a60001b612a1e565b826080015160800151816000015114610e99576040517f08c379a0000000000000000000000000000000000000000000000000000000008152600401610e9090613f22565b60405180910390fd5b610ec57fcc97016fbf832515393c8ce3f18e7920b0fa63a2ac25ded59eda2434c55c5fab60001b612a1e565b610ef17f39efdbf969132deebecc6eea38a2298a0bb70c5315b1ca1147bce8de77be57a860001b612a1e565b610f1d7f11d921220206a3d10949eb2334be156ee472632563ed1d8a0189075fd9a3c2a160001b612a1e565b610f497f821c9c0ba25003f29eb411ec26888e391ff1b5fbe7980353607ebc9854974d3760001b612a1e565b82608001516020015173ffffffffffffffffffffffffffffffffffffffff16816020015173ffffffffffffffffffffffffffffffffffffffff1614610fc3576040517f08c379a0000000000000000000000000000000000000000000000000000000008152600401610fba90613fb4565b60405180910390fd5b610fef7f2f4205ade3e02891609ca0b4da35383f44a11c123b9a60f2e690a8a1ad398e0060001b612a1e565b61101b7fc681322b5d4759041b236648513c24951156905149927162dfab21089986e87a60001b612a1e565b6110477f3c47cf0569ffcb7873b73d2cea5fca7781aa67dfeb19f94bd65b358ff29d7bf460001b612a1e565b60018360400190151590811515815250506110847f5c1d44f0eb0090907cc50d95b0c4b329050c3b7364ae2eddb066deb8de35d68660001b612a1e565b6110b07f0f736bf98fed1a16d3a05ce31205eb18f7e2312f5978459cd2a2de2f1f9a0ed260001b612a1e565b82600360008681526020019081526020016000206000820151816000015560208201518160010160006101000a81548173ffffffffffffffffffffffffffffffffffffffff021916908373ffffffffffffffffffffffffffffffffffffffff16021790555060408201518160010160146101000a81548160ff021916908315150217905550606082015181600201600082015181600001908051906020019061115a9291906133e0565b5060208201518160010190805190602001906111779291906133e0565b5060408201518160020190805190602001906111949291906133e0565b5060608201518160030190805190602001906111b19291906133e0565b5050506080820151816006016000820151816000015560208201518160010160006101000a81548173ffffffffffffffffffffffffffffffffffffffff021916908373ffffffffffffffffffffffffffffffffffffffff16021790555060408201518160020155606082015181600301556080820151816004015560a0820151816005015550509050506112677febbbff76b5692d2cf0939cab78014d1ad891eb186a61b8b866a4f6ced36095e960001b612a1e565b6112937f9e7dc1dfd2f19f129495dee9a780d6b6f31252ea6240822681667413b024362960001b612a1e565b7f4f7e91eea279f21fac65109d86b7d1dfceb5607c89313be67d8c2bf537f9ae0c84336040516112c4929190613fd4565b60405180910390a150505050565b60006113007f28983f58d242efb31186957bf3dbd3adc1e595f7ac4962b2f4a329c675b4a52660001b612a1e565b61132c7fe132bcf5ce6940bc982be162869fb21f84f9f3826ef58199a326fab42628b21660001b612a1e565b6113587f88459f2c30375f73533145982d0f44bee7a99b9ef6c04027d273b137ef7c7d8d60001b612a1e565b6113626001612a6b565b905090565b60606113957f2bce451fb12668e7ab7e15878a56c335177f387fe5ae36943e738e579b174d7360001b612a1e565b6113c17f15c079fdcd314c535f0cf334943fe968dad427cdb62e76ea1f851adf96f042e560001b612a1e565b6113ed7f69bd8b04a0b91b354fba675a8ca2e1b4ed3b6c598a4fc2c166222d7d3fb9e69b60001b612a1e565b60046000838152602001908152602001600020805461140b90613cc3565b80601f016020809104026020016040519081016040528092919081815260200182805461143790613cc3565b80156114845780601f1061145957610100808354040283529160200191611484565b820191906000526020600020905b81548152906001019060200180831161146757829003601f168201915b50505050509050919050565b611498612a79565b6114c47f8d6f37b7f13fbe6d44c03b2d7a351c217b03268d8095ea2b9aa0344705d2a98d60001b612a1e565b6114f07f98684b927a4f2cccc82c152dff2a9ffba7cb06ea59dfcc89171cabd4a5fee90060001b612a1e565b61151c7f2dc82b82b38e295e93f7842a95d0885cac55ec629d158551f91aa86bc032978360001b612a1e565b611524612af7565b565b60008060009054906101000a900460ff16905090565b61154461338d565b61154c612a21565b6115787fe4fd50d6fa3a0885e54ac2dcfc652eaa2facb7b184e9d94ad29be6bcf017f10060001b612a1e565b6115a47f38e863eb442923ddba7a34bb8b20fff5b8bc1331277ca76bf89b733b53e07a4260001b612a1e565b6115d07fb0ba286d8c3936d90fef45ab3d9eaccf0a8ed263f1367e581d1a2350e2d863a960001b612a1e565b6115fc7f1badcc0e06aaba3b5c1fbdc90c33e369c057df6ecbd45e9559cb413b7dc149c460001b612a1e565b6000845111611640576040517f08c379a000000000000000000000000000000000000000000000000000000000815260040161163790614049565b60405180910390fd5b61166c7f5dd900ca2ab51c96f12f481b432ad6293c1f61d0627e59511add569ca14d550a60001b612a1e565b6116987ff961a141b0c336eea7215d903605b6f841ae201acae68d5287055c6b567ce0e160001b612a1e565b6116c47ff67ee19c8b6ed9c2826d5bb8f9015a3cbd56f2d3f8f4ed89de8f78d3d3c9fda660001b612a1e565b6116f07f79eca3af4291489dd272a27f69a29043f5679681c5ae0c53dc672ae675bbb02560001b612a1e565b6000826080015111611737576040517f08c379a000000000000000000000000000000000000000000000000000000000815260040161172e906140b5565b60405180910390fd5b6117637f0294ad17c64af99d60cd8d9d5709e7aecb160f8481813bb2069035b6873513fb60001b612a1e565b61178f7f288bc42d072f5497263f8c8a3ba040daed86e369eb01749832cdf199048c091460001b612a1e565b6117bb7f0572f0099d84d806a5983a72a471ef3509322fa33f03e96a4d8bfeec1cdf58d360001b612a1e565b6117e77f5b0b60a7e0440c01d9a92864b610f2c354805886f6b0f96124cacbded138bae260001b612a1e565b428260a001511161182d576040517f08c379a000000000000000000000000000000000000000000000000000000000815260040161182490614147565b60405180910390fd5b6118597fd998480e7a78100f0d6f7844ced92888feb45db66ac6ac15ca13d9e43b396ded60001b612a1e565b6118857f5a9b526abd600785316622c4d3d31a5d12ecf7a7fcb17beb544a4276c45dc7bd60001b612a1e565b6118b17f8a2e32f0c45aa3c611822ba03a8dbcda6c9819279816a2e6a6cff458a8ab9ce460001b612a1e565b6118dd7fcbcdf30dff1b4f6afc010ad023ce607bb767574f87d931d2816a5d6646a5564c60001b612a1e565b6000826040015111611924576040517f08c379a000000000000000000000000000000000000000000000000000000000815260040161191b906141b3565b60405180910390fd5b6119507f271825a4f273debc1c3df5117e6bd92ab023b3fe9bc0bf15cdb5e5035d7fa2ae60001b612a1e565b61197c7ffc31c5845dab4ba34e6a896ab46308ab58547b928509e4f2e6ab12d55b0531c960001b612a1e565b6119a87ffe63195f82255cf1d01d7a3361a5b56eca9d7cb125c9a08386afc318cecd3cd460001b612a1e565b6119d47fe7b05fb7d5db7647309bcb07b77333acc1c213eaa3b08a8e8f99cebcecdd65c260001b612a1e565b6000826060015111611a1b576040517f08c379a0000000000000000000000000000000000000000000000000000000008152600401611a129061421f565b60405180910390fd5b611a477f349a48dcde13c97f025690083865e07b774add106d4c7470f6c346cdd1a681bf60001b612a1e565b611a737f929070e1b0a91c91c111319095ca3fea8b39dc1783d1885911f7ad014b1679ec60001b612a1e565b611a9f7f6b8c8dc70ecc3b528af3ab8e4ee9bc6e42ef50a81e5d81b7ae3b2e136e1b859360001b612a1e565b6000611aab6001612a6b565b9050611ad97f60ae154a4ea04387a04872323b962baed5aee2e145310406720b9f0a7fdb48b660001b612a1e565b611b057fcab40b07745e64e223608c8f737bb5898cf8286c13af025bc19386cfd6efdeb760001b612a1e565b611b1181868686612b59565b611b3d7f67dc252e4cafedb0cbc0a9b635ccb95dd4ab86a606eca40ae196137e6885cc7f60001b612a1e565b611b697fddf1ed4350ca5822be017ab7f7d5db97ff25e434b4743dd35499192ae136b9a260001b612a1e565b611b738186612f04565b611b9f7f2cf1665eb4458e53976b031e65ac7f57a3376dcef606fb80a1cbed77fe74299460001b612a1e565b611bcb7f52870e1417cf1477b73ff7312d45a7aaef121589c906804520b12622c9eb4d7960001b612a1e565b611bd56001613045565b611c017f4f94e6536f68fa4e092d72271f02767939e110ae556dbf9980030506c53770d260001b612a1e565b611c2d7fc9fc33ea34f170730d16f76bfc486fc92992052d88931b654202ae6142c46efc60001b612a1e565b600360008281526020019081526020016000206040518060a0016040529081600082015481526020016001820160009054906101000a900473ffffffffffffffffffffffffffffffffffffffff1673ffffffffffffffffffffffffffffffffffffffff1673ffffffffffffffffffffffffffffffffffffffff1681526020016001820160149054906101000a900460ff1615151515815260200160028201604051806080016040529081600082018054611ce690613cc3565b80601f0160208091040260200160405190810160405280929190818152602001828054611d1290613cc3565b8015611d5f5780601f10611d3457610100808354040283529160200191611d5f565b820191906000526020600020905b815481529060010190602001808311611d4257829003601f168201915b50505050508152602001600182018054611d7890613cc3565b80601f0160208091040260200160405190810160405280929190818152602001828054611da490613cc3565b8015611df15780601f10611dc657610100808354040283529160200191611df1565b820191906000526020600020905b815481529060010190602001808311611dd457829003601f168201915b50505050508152602001600282018054611e0a90613cc3565b80601f0160208091040260200160405190810160405280929190818152602001828054611e3690613cc3565b8015611e835780601f10611e5857610100808354040283529160200191611e83565b820191906000526020600020905b815481529060010190602001808311611e6657829003601f168201915b50505050508152602001600382018054611e9c90613cc3565b80601f0160208091040260200160405190810160405280929190818152602001828054611ec890613cc3565b8015611f155780601f10611eea57610100808354040283529160200191611f15565b820191906000526020600020905b815481529060010190602001808311611ef857829003601f168201915b5050505050815250508152602001600682016040518060c0016040529081600082015481526020016001820160009054906101000a900473ffffffffffffffffffffffffffffffffffffffff1673ffffffffffffffffffffffffffffffffffffffff1673ffffffffffffffffffffffffffffffffffffffff168152602001600282015481526020016003820154815260200160048201548152602001600582015481525050815250509150509392505050565b611fd0612a79565b611fda600061305b565b565b611fe4612a79565b6120107feb77039ee1acc6e7727ac83484c9ae8ccde7935a6dd10456ed3640a88126ba4460001b612a1e565b61203c7fd3de7c45a0160b715e7e9e47f64046238c04055862c8a0188d05e7d3b5418b3d60001b612a1e565b6120687f91c1f024ba1647ba7af5c91fb7ca310f979ee1458e88abfc81e5c8da03c31ba060001b612a1e565b612070613120565b565b60008060019054906101000a900473ffffffffffffffffffffffffffffffffffffffff16905090565b6120a3612a21565b6120ab612a79565b6120d77fa36ce700c2df273dad269ae860e64fa54c1d20f14703309aa978b4640f4f81a160001b612a1e565b6121037fade4247a21a5f9f6425625751ec9661aa4764b510aa61f24ad7744f4500ff6b860001b612a1e565b61212f7fbdcb11e2a6f7f225e8a916e631f78c79a5bcd275467c33a05975e325b6d5687560001b612a1e565b6000600360008381526020019081526020016000206040518060a0016040529081600082015481526020016001820160009054906101000a900473ffffffffffffffffffffffffffffffffffffffff1673ffffffffffffffffffffffffffffffffffffffff1673ffffffffffffffffffffffffffffffffffffffff1681526020016001820160149054906101000a900460ff16151515158152602001600282016040518060800160405290816000820180546121ea90613cc3565b80601f016020809104026020016040519081016040528092919081815260200182805461221690613cc3565b80156122635780601f1061223857610100808354040283529160200191612263565b820191906000526020600020905b81548152906001019060200180831161224657829003601f168201915b5050505050815260200160018201805461227c90613cc3565b80601f01602080910402602001604051908101604052809291908181526020018280546122a890613cc3565b80156122f55780601f106122ca576101008083540402835291602001916122f5565b820191906000526020600020905b8154815290600101906020018083116122d857829003601f168201915b5050505050815260200160028201805461230e90613cc3565b80601f016020809104026020016040519081016040528092919081815260200182805461233a90613cc3565b80156123875780601f1061235c57610100808354040283529160200191612387565b820191906000526020600020905b81548152906001019060200180831161236a57829003601f168201915b505050505081526020016003820180546123a090613cc3565b80601f01602080910402602001604051908101604052809291908181526020018280546123cc90613cc3565b80156124195780601f106123ee57610100808354040283529160200191612419565b820191906000526020600020905b8154815290600101906020018083116123fc57829003601f168201915b5050505050815250508152602001600682016040518060c0016040529081600082015481526020016001820160009054906101000a900473ffffffffffffffffffffffffffffffffffffffff1673ffffffffffffffffffffffffffffffffffffffff1673ffffffffffffffffffffffffffffffffffffffff1681526020016002820154815260200160038201548152602001600482015481526020016005820154815250508152505090506124f07fa0a0996a5d7968bfb851d03839a3fb2e2f5106d3b361a4026c534a68f6deb37860001b612a1e565b61251c7fc4e6a379cad5890ce1581205a6a007a8859fb1cdd4744ed6c83bf82c25561fc160001b612a1e565b6125487f47cf31b13ee7e16c544df429923c23efef728dd94b52480ddba258908a73db1660001b612a1e565b600081608001516040015103612593576040517f08c379a000000000000000000000000000000000000000000000000000000000815260040161258a90613d40565b60405180910390fd5b6125bf7f55ceff8704cb126cd5032c0204bd1ec97870ee1af7b4b674d1c4eae0287c21eb60001b612a1e565b6125eb7f0e76ff3918c79f3c64ec636d3367dc323e3fbd360f16f95dfe31bd4f73c3a90660001b612a1e565b6126177f487cd278880dc932d681d3a6192aaf69da42afd8335a480d628bc94196d6f68760001b612a1e565b6126437f5c055f848ae5dde76c2695e80cccc4f9aa342ecf04002a821ece2337732707ef60001b612a1e565b60011515816040015115151461268e576040517f08c379a00000000000000000000000000000000000000000000000000000000081526004016126859061428b565b60405180910390fd5b6126ba7fc70adf90760065c0ddb24ab607a82f3b44bbedfb9630b3dc200093154b948d2a60001b612a1e565b6126e67fb07796ea0ae05085c84ba1caa0a30a97426ded7791de2740ddeb02aa597314d260001b612a1e565b6127127fc67f12e5f957212d7c3d60534b5196469a41cc8863b792bcb1186e2f07f66caf60001b612a1e565b600081604001901515908115158152505061274f7fd32e0844599188785083b49cfdac9be09f3d9c87907a705ce978a64ab0bc56cb60001b612a1e565b61277b7f8e6be20e494d8e7db7e9272b80c7dcf375f88273214429a72d333cd91a079fad60001b612a1e565b80600360008481526020019081526020016000206000820151816000015560208201518160010160006101000a81548173ffffffffffffffffffffffffffffffffffffffff021916908373ffffffffffffffffffffffffffffffffffffffff16021790555060408201518160010160146101000a81548160ff02191690831515021790555060608201518160020160008201518160000190805190602001906128259291906133e0565b5060208201518160010190805190602001906128429291906133e0565b50604082015181600201908051906020019061285f9291906133e0565b50606082015181600301908051906020019061287c9291906133e0565b5050506080820151816006016000820151816000015560208201518160010160006101000a81548173ffffffffffffffffffffffffffffffffffffffff021916908373ffffffffffffffffffffffffffffffffffffffff16021790555060408201518160020155606082015181600301556080820151816004015560a0820151816005015550509050506129327f100605524aa067c52ef85e1c78f376d37430c0d474977ddb15c91e93d94e62ea60001b612a1e565b61295e7fb216e86780fe29d5f0d61df922548d95f7e0b173ae5de080911428b717b80c9760001b612a1e565b7f72e6fc67ca93cc3cedc1e023204888c2cab750fbb5526e1faf3445c0327ee0ef823360405161298f929190613fd4565b60405180910390a15050565b6129a3612a79565b600073ffffffffffffffffffffffffffffffffffffffff168173ffffffffffffffffffffffffffffffffffffffff1603612a12576040517f08c379a0000000000000000000000000000000000000000000000000000000008152600401612a099061431d565b60405180910390fd5b612a1b8161305b565b50565b50565b612a29611526565b15612a69576040517f08c379a0000000000000000000000000000000000000000000000000000000008152600401612a6090614389565b60405180910390fd5b565b600081600001549050919050565b612a81613182565b73ffffffffffffffffffffffffffffffffffffffff16612a9f612072565b73ffffffffffffffffffffffffffffffffffffffff1614612af5576040517f08c379a0000000000000000000000000000000000000000000000000000000008152600401612aec906143f5565b60405180910390fd5b565b612aff61318a565b60008060006101000a81548160ff0219169083151502179055507f5db9ee0a495bf2e6ff9c91a7834c1ba4fdd244a5e8aa4e537bd38aeae4b073aa612b42613182565b604051612b4f9190613c4c565b60405180910390a1565b612b857fe13ad9bd133a28bd9faa263d3d594a2c1942b1feb92ad0450741e36a591aeeba60001b612a1e565b612bb17f6e593179dcca1722c81976e981ae1a339507db193b16961c3f6bdb6697dc529260001b612a1e565b612bdd7f4458cd50bc1add4ea3c16ed295772b57ceff01aa17eab5ed75586571595d8fc360001b612a1e565b6040518060a001604052808581526020013373ffffffffffffffffffffffffffffffffffffffff16815260200160001515815260200183815260200182815250600360008681526020019081526020016000206000820151816000015560208201518160010160006101000a81548173ffffffffffffffffffffffffffffffffffffffff021916908373ffffffffffffffffffffffffffffffffffffffff16021790555060408201518160010160146101000a81548160ff0219169083151502179055506060820151816002016000820151816000019080519060200190612cc69291906133e0565b506020820151816001019080519060200190612ce39291906133e0565b506040820151816002019080519060200190612d009291906133e0565b506060820151816003019080519060200190612d1d9291906133e0565b5050506080820151816006016000820151816000015560208201518160010160006101000a81548173ffffffffffffffffffffffffffffffffffffffff021916908373ffffffffffffffffffffffffffffffffffffffff16021790555060408201518160020155606082015181600301556080820151816004015560a082015181600501555050905050612dd37f7804dfaa88682ad0af03cba4a162108c364d1f92946245c9398df99120526aec60001b612a1e565b612dff7fd092ce884790011b93bcd6bd5f6b3049c23bb76f92611b7b6ff6c361a0773bb760001b612a1e565b7fb22862363d492c0c7b9bcbfe63bcfbc715494dafb3b41d198d4bfcefea8a7c03843385604051612e3293929190614415565b60405180910390a1612e667f0c408eb569af9aa74f14d54082874d52e0d2404070b80185cfaafa071f23958460001b612a1e565b612e927f6725e23432ea55bc76b0ea48a195c8dae8583f7199f6c84dfad6dd98b71a069060001b612a1e565b612e9c84836131d3565b612ec87f750fcd82e094f59dd7eea5beb58b110d416c115e52794499e13bfdec69d9d1f360001b612a1e565b612ef47fb3d184ec17d6189c23d11c64ad1f042741fa078dd330e00f79e1695b3330148d60001b612a1e565b612efe84826132aa565b50505050565b612f307ffb699f8a64c834951efd709e3073286c857aaf48e8c6c8864c251e09604b5c8260001b612a1e565b612f5c7ffe519c9f9201140a15b132c385dd1040e6a59d03239e9fed56accd9506034be660001b612a1e565b612f887f777af18482c318b68298fcda61ad5f9c3fc9ca62b724da10d0c970ba0a54078f60001b612a1e565b80600460008481526020019081526020016000209080519060200190612faf9291906133e0565b50612fdc7f78d61b5431c4b1775da77b8b69d483308bbe79a5325662adee4643ec20300c9860001b612a1e565b6130087fe2132e67708d3c8a3b47ab5ab155efb9e96eb5d2b576e7a65c05891433c2851a60001b612a1e565b7f514efc4dbca754e32bfeb5dcb0c2d277953187ffd3b3eae36f7f9b5202e6f8ff8282604051613039929190614453565b60405180910390a15050565b6001816000016000828254019250508190555050565b60008060019054906101000a900473ffffffffffffffffffffffffffffffffffffffff16905081600060016101000a81548173ffffffffffffffffffffffffffffffffffffffff021916908373ffffffffffffffffffffffffffffffffffffffff1602179055508173ffffffffffffffffffffffffffffffffffffffff168173ffffffffffffffffffffffffffffffffffffffff167f8be0079c531659141344cd1fd0a4f28419497f9722a3daafe3b4186f6b6457e060405160405180910390a35050565b613128612a21565b60016000806101000a81548160ff0219169083151502179055507f62e78cea01bee320cd4e420270b5ea74000d11b0c9f74754ebdbfc544b05a25861316b613182565b6040516131789190613c4c565b60405180910390a1565b600033905090565b613192611526565b6131d1576040517f08c379a00000000000000000000000000000000000000000000000000000000081526004016131c8906144cf565b60405180910390fd5b565b6131ff7f52ae634a4d9eda7f253f5a7796dfcf962f4f2c15e7b9a74d8875640a3525167460001b612a1e565b61322b7f9c6bd15d683407b701c7c0400bad5b46f54e01b42737fc9733f2dbcd2210ab1560001b612a1e565b6132577f388eeff3112f0a7d2121cf3343cc3ad703fdf2a3069244d3db4b2fec4017322f60001b612a1e565b7f6c22bc8b6f750ff89627f593fa727443337309735486d0abf55f95f848f7368382826000015183602001518460400151856060015160405161329e9594939291906144ef565b60405180910390a15050565b6132d67f1c44325ada455812824c5676423c2664af6cb7166e3012a36b23ed8335c375a860001b612a1e565b6133027f1ea4dd7e286241f2e055de7b532ed7bcf058815483c370e61b81eac495e73e5460001b612a1e565b61332e7fe6e994cfba78b5ee8188047a2877a8d4de7ea5ac301aeb124c8eb9cd96042f1c60001b612a1e565b7f5deb9781f96d18bcc1ccd3667ca16c58a2f72fc9f98460a620492fe7001c89ca82826000015183602001518460400151856060015186608001518760a00151604051613381979695949392919061455e565b60405180910390a15050565b6040518060a0016040528060008152602001600073ffffffffffffffffffffffffffffffffffffffff1681526020016000151581526020016133cd613466565b81526020016133da61348e565b81525090565b8280546133ec90613cc3565b90600052602060002090601f01602090048101928261340e5760008555613455565b82601f1061342757805160ff1916838001178555613455565b82800160010185558215613455579182015b82811115613454578251825591602001919060010190613439565b5b50905061346291906134da565b5090565b6040518060800160405280606081526020016060815260200160608152602001606081525090565b6040518060c0016040528060008152602001600073ffffffffffffffffffffffffffffffffffffffff168152602001600081526020016000815260200160008152602001600081525090565b5b808211156134f35760008160009055506001016134db565b5090565b6000604051905090565b600080fd5b600080fd5b6000819050919050565b61351e8161350b565b811461352957600080fd5b50565b60008135905061353b81613515565b92915050565b60006020828403121561355757613556613501565b5b60006135658482850161352c565b91505092915050565b6135778161350b565b82525050565b600073ffffffffffffffffffffffffffffffffffffffff82169050919050565b60006135a88261357d565b9050919050565b6135b88161359d565b82525050565b60008115159050919050565b6135d3816135be565b82525050565b600081519050919050565b600082825260208201905092915050565b60005b838110156136135780820151818401526020810190506135f8565b83811115613622576000848401525b50505050565b6000601f19601f8301169050919050565b6000613644826135d9565b61364e81856135e4565b935061365e8185602086016135f5565b61366781613628565b840191505092915050565b6000608083016000830151848203600086015261368f8282613639565b915050602083015184820360208601526136a98282613639565b915050604083015184820360408601526136c38282613639565b915050606083015184820360608601526136dd8282613639565b9150508091505092915050565b60c082016000820151613700600085018261356e565b50602082015161371360208501826135af565b506040820151613726604085018261356e565b506060820151613739606085018261356e565b50608082015161374c608085018261356e565b5060a082015161375f60a085018261356e565b50505050565b60006101408301600083015161377e600086018261356e565b50602083015161379160208601826135af565b5060408301516137a460408601826135ca565b50606083015184820360608601526137bc8282613672565b91505060808301516137d160808601826136ea565b508091505092915050565b600060208201905081810360008301526137f68184613765565b905092915050565b6138078161350b565b82525050565b600060208201905061382260008301846137fe565b92915050565b600082825260208201905092915050565b6000613844826135d9565b61384e8185613828565b935061385e8185602086016135f5565b61386781613628565b840191505092915050565b6000602082019050818103600083015261388c8184613839565b905092915050565b61389d816135be565b82525050565b60006020820190506138b86000830184613894565b92915050565b600080fd5b600080fd5b7f4e487b7100000000000000000000000000000000000000000000000000000000600052604160045260246000fd5b61390082613628565b810181811067ffffffffffffffff8211171561391f5761391e6138c8565b5b80604052505050565b60006139326134f7565b905061393e82826138f7565b919050565b600067ffffffffffffffff82111561395e5761395d6138c8565b5b61396782613628565b9050602081019050919050565b82818337600083830152505050565b600061399661399184613943565b613928565b9050828152602081018484840111156139b2576139b16138c3565b5b6139bd848285613974565b509392505050565b600082601f8301126139da576139d96138be565b5b81356139ea848260208601613983565b91505092915050565b600080fd5b600080fd5b600060808284031215613a1357613a126139f3565b5b613a1d6080613928565b9050600082013567ffffffffffffffff811115613a3d57613a3c6139f8565b5b613a49848285016139c5565b600083015250602082013567ffffffffffffffff811115613a6d57613a6c6139f8565b5b613a79848285016139c5565b602083015250604082013567ffffffffffffffff811115613a9d57613a9c6139f8565b5b613aa9848285016139c5565b604083015250606082013567ffffffffffffffff811115613acd57613acc6139f8565b5b613ad9848285016139c5565b60608301525092915050565b613aee8161359d565b8114613af957600080fd5b50565b600081359050613b0b81613ae5565b92915050565b600060c08284031215613b2757613b266139f3565b5b613b3160c0613928565b90506000613b418482850161352c565b6000830152506020613b5584828501613afc565b6020830152506040613b698482850161352c565b6040830152506060613b7d8482850161352c565b6060830152506080613b918482850161352c565b60808301525060a0613ba58482850161352c565b60a08301525092915050565b60008060006101008486031215613bcb57613bca613501565b5b600084013567ffffffffffffffff811115613be957613be8613506565b5b613bf5868287016139c5565b935050602084013567ffffffffffffffff811115613c1657613c15613506565b5b613c22868287016139fd565b9250506040613c3386828701613b11565b9150509250925092565b613c468161359d565b82525050565b6000602082019050613c616000830184613c3d565b92915050565b600060208284031215613c7d57613c7c613501565b5b6000613c8b84828501613afc565b91505092915050565b7f4e487b7100000000000000000000000000000000000000000000000000000000600052602260045260246000fd5b60006002820490506001821680613cdb57607f821691505b602082108103613cee57613ced613c94565b5b50919050565b7f506f6f6c20646f65736e27742065786973740000000000000000000000000000600082015250565b6000613d2a601283613828565b9150613d3582613cf4565b602082019050919050565b60006020820190508181036000830152613d5981613d1d565b9050919050565b7f506f6f6c20697320616c72656164792061637469766500000000000000000000600082015250565b6000613d96601683613828565b9150613da182613d60565b602082019050919050565b60006020820190508181036000830152613dc581613d89565b9050919050565b6000604082019050613de16000830185613c3d565b613dee60208301846137fe565b9392505050565b600081519050613e0481613515565b92915050565b600081519050613e1981613ae5565b92915050565b600060608284031215613e3557613e346139f3565b5b613e3f6060613928565b90506000613e4f84828501613df5565b6000830152506020613e6384828501613e0a565b6020830152506040613e7784828501613df5565b60408301525092915050565b600060608284031215613e9957613e98613501565b5b6000613ea784828501613e1f565b91505092915050565b7f4465706f736974656420616d6f756e7420646f6573206e6f74206d617463682060008201527f706f6f6c20636170000000000000000000000000000000000000000000000000602082015250565b6000613f0c602883613828565b9150613f1782613eb0565b604082019050919050565b60006020820190508181036000830152613f3b81613eff565b9050919050565b7f4465706f736974656420746f6b656e206164647265737320646f6573206e6f7460008201527f206d6174636820706f6f6c20746f6b656e206164647265737300000000000000602082015250565b6000613f9e603983613828565b9150613fa982613f42565b604082019050919050565b60006020820190508181036000830152613fcd81613f91565b9050919050565b6000604082019050613fe960008301856137fe565b613ff66020830184613c3d565b9392505050565b7f4d697373696e67206d6574616461746120555249000000000000000000000000600082015250565b6000614033601483613828565b915061403e82613ffd565b602082019050919050565b6000602082019050818103600083015261406281614026565b9050919050565b7f496e76616c696420706f6f6c2063617000000000000000000000000000000000600082015250565b600061409f601083613828565b91506140aa82614069565b602082019050919050565b600060208201905081810360008301526140ce81614092565b9050919050565b7f456e642064617465206d7573742062652061667465722063757272656e74206260008201527f6c6f636b2074696d650000000000000000000000000000000000000000000000602082015250565b6000614131602983613828565b915061413c826140d5565b604082019050919050565b6000602082019050818103600083015261416081614124565b9050919050565b7f496e76616c6964206d696e696d616c2068797065207265776172640000000000600082015250565b600061419d601b83613828565b91506141a882614167565b602082019050919050565b600060208201905081810360008301526141cc81614190565b9050919050565b7f496e76616c696420696d7072657373696f6e2068797065207265776172640000600082015250565b6000614209601e83613828565b9150614214826141d3565b602082019050919050565b60006020820190508181036000830152614238816141fc565b9050919050565b7f506f6f6c20697320616c726561647920696e6163746976650000000000000000600082015250565b6000614275601883613828565b91506142808261423f565b602082019050919050565b600060208201905081810360008301526142a481614268565b9050919050565b7f4f776e61626c653a206e6577206f776e657220697320746865207a65726f206160008201527f6464726573730000000000000000000000000000000000000000000000000000602082015250565b6000614307602683613828565b9150614312826142ab565b604082019050919050565b60006020820190508181036000830152614336816142fa565b9050919050565b7f5061757361626c653a2070617573656400000000000000000000000000000000600082015250565b6000614373601083613828565b915061437e8261433d565b602082019050919050565b600060208201905081810360008301526143a281614366565b9050919050565b7f4f776e61626c653a2063616c6c6572206973206e6f7420746865206f776e6572600082015250565b60006143df602083613828565b91506143ea826143a9565b602082019050919050565b6000602082019050818103600083015261440e816143d2565b9050919050565b600060608201905061442a60008301866137fe565b6144376020830185613c3d565b81810360408301526144498184613839565b9050949350505050565b600060408201905061446860008301856137fe565b818103602083015261447a8184613839565b90509392505050565b7f5061757361626c653a206e6f7420706175736564000000000000000000000000600082015250565b60006144b9601483613828565b91506144c482614483565b602082019050919050565b600060208201905081810360008301526144e8816144ac565b9050919050565b600060a08201905061450460008301886137fe565b81810360208301526145168187613839565b9050818103604083015261452a8186613839565b9050818103606083015261453e8185613839565b905081810360808301526145528184613839565b90509695505050505050565b600060e082019050614573600083018a6137fe565b61458060208301896137fe565b61458d6040830188613c3d565b61459a60608301876137fe565b6145a760808301866137fe565b6145b460a08301856137fe565b6145c160c08301846137fe565b9897505050505050505056fea264697066735822122042139ac489abfd59cb108cd8a66b3e0f8e086ff1a7718e5dd029413c95b4260464736f6c634300080e0033",
  "linkReferences": {},
  "deployedLinkReferences": {}
}