{
  "_format": "hh-sol-artifact-1",
  "contractName": "HypePool",
  "sourceName": "contracts/HypePool.sol",
  "abi": [
    {
      "inputs": [
        {
          "internalType": "address",
          "name": "escrowContractAddress",
          "type": "address"
        }
      ],
      "stateMutability": "nonpayable",
      "type": "constructor"
    },
    {
      "anonymous": false,
      "inputs": [
        {
          "indexed": true,
          "internalType": "address",
          "name": "previousOwner",
          "type": "address"
        },
        {
          "indexed": true,
          "internalType": "address",
          "name": "newOwner",
          "type": "address"
        }
      ],
      "name": "OwnershipTransferred",
      "type": "event"
    },
    {
      "anonymous": false,
      "inputs": [
        {
          "indexed": false,
          "internalType": "address",
          "name": "account",
          "type": "address"
        }
      ],
      "name": "Paused",
      "type": "event"
    },
    {
      "anonymous": false,
      "inputs": [
        {
          "indexed": false,
          "internalType": "bytes32",
          "name": "poolId",
          "type": "bytes32"
        },
        {
          "indexed": false,
          "internalType": "address",
          "name": "activator",
          "type": "address"
        },
        {
          "indexed": false,
          "internalType": "uint256",
          "name": "startDate",
          "type": "uint256"
        },
        {
          "indexed": false,
          "internalType": "uint256",
          "name": "endDate",
          "type": "uint256"
        }
      ],
      "name": "PoolActivated",
      "type": "event"
    },
    {
      "anonymous": false,
      "inputs": [
        {
          "indexed": false,
          "internalType": "bytes32",
          "name": "poolId",
          "type": "bytes32"
        },
        {
          "indexed": false,
          "internalType": "address",
          "name": "creator",
          "type": "address"
        },
        {
          "indexed": false,
          "internalType": "string",
          "name": "uri",
          "type": "string"
        }
      ],
      "name": "PoolCreated",
      "type": "event"
    },
    {
      "anonymous": false,
      "inputs": [
        {
          "indexed": false,
          "internalType": "bytes32",
          "name": "poolId",
          "type": "bytes32"
        },
        {
          "indexed": false,
          "internalType": "address",
          "name": "deactivator",
          "type": "address"
        }
      ],
      "name": "PoolDeactivated",
      "type": "event"
    },
    {
      "anonymous": false,
      "inputs": [
        {
          "indexed": false,
          "internalType": "bytes32",
          "name": "poolId",
          "type": "bytes32"
        },
        {
          "indexed": false,
          "internalType": "string",
          "name": "title",
          "type": "string"
        },
        {
          "indexed": false,
          "internalType": "string",
          "name": "projectName",
          "type": "string"
        },
        {
          "indexed": false,
          "internalType": "string",
          "name": "tokenName",
          "type": "string"
        },
        {
          "indexed": false,
          "internalType": "string",
          "name": "word",
          "type": "string"
        }
      ],
      "name": "PoolDetailsCreated",
      "type": "event"
    },
    {
      "anonymous": false,
      "inputs": [
        {
          "indexed": false,
          "internalType": "bytes32",
          "name": "poolId",
          "type": "bytes32"
        },
        {
          "indexed": false,
          "internalType": "uint256",
          "name": "network",
          "type": "uint256"
        },
        {
          "indexed": false,
          "internalType": "address",
          "name": "tokenAddress",
          "type": "address"
        },
        {
          "indexed": false,
          "internalType": "uint256",
          "name": "impressionReward",
          "type": "uint256"
        },
        {
          "indexed": false,
          "internalType": "uint256",
          "name": "cap",
          "type": "uint256"
        },
        {
          "indexed": false,
          "internalType": "uint256",
          "name": "startDate",
          "type": "uint256"
        },
        {
          "indexed": false,
          "internalType": "uint256",
          "name": "endDate",
          "type": "uint256"
        },
        {
          "indexed": false,
          "internalType": "uint256",
          "name": "duration",
          "type": "uint256"
        }
      ],
      "name": "PoolRewardsCreated",
      "type": "event"
    },
    {
      "anonymous": false,
      "inputs": [
        {
          "indexed": false,
          "internalType": "bytes32",
          "name": "poolId",
          "type": "bytes32"
        },
        {
          "indexed": false,
          "internalType": "string",
          "name": "uri",
          "type": "string"
        }
      ],
      "name": "PoolUriSet",
      "type": "event"
    },
    {
      "anonymous": false,
      "inputs": [
        {
          "indexed": false,
          "internalType": "address",
          "name": "account",
          "type": "address"
        }
      ],
      "name": "Unpaused",
      "type": "event"
    },
    {
      "inputs": [
        {
          "internalType": "bytes32",
          "name": "uuid",
          "type": "bytes32"
        }
      ],
      "name": "activatePool",
      "outputs": [],
      "stateMutability": "nonpayable",
      "type": "function"
    },
    {
      "inputs": [
        {
          "internalType": "string",
          "name": "uri",
          "type": "string"
        },
        {
          "components": [
            {
              "internalType": "string",
              "name": "title",
              "type": "string"
            },
            {
              "internalType": "string",
              "name": "projectName",
              "type": "string"
            },
            {
              "internalType": "string",
              "name": "tokenName",
              "type": "string"
            },
            {
              "internalType": "string",
              "name": "word",
              "type": "string"
            }
          ],
          "internalType": "struct IHypePool.Details",
          "name": "details",
          "type": "tuple"
        },
        {
          "components": [
            {
              "internalType": "uint256",
              "name": "network",
              "type": "uint256"
            },
            {
              "internalType": "address",
              "name": "tokenAddress",
              "type": "address"
            },
            {
              "internalType": "uint256",
              "name": "impressionReward",
              "type": "uint256"
            },
            {
              "internalType": "uint256",
              "name": "cap",
              "type": "uint256"
            },
            {
              "internalType": "uint256",
              "name": "startDate",
              "type": "uint256"
            },
            {
              "internalType": "uint256",
              "name": "endDate",
              "type": "uint256"
            },
            {
              "internalType": "uint256",
              "name": "duration",
              "type": "uint256"
            }
          ],
          "internalType": "struct IHypePool.Rewards",
          "name": "rewards",
          "type": "tuple"
        }
      ],
      "name": "createPool",
      "outputs": [
        {
          "components": [
            {
              "internalType": "bytes32",
              "name": "id",
              "type": "bytes32"
            },
            {
              "internalType": "address",
              "name": "creator",
              "type": "address"
            },
            {
              "internalType": "bool",
              "name": "active",
              "type": "bool"
            },
            {
              "components": [
                {
                  "internalType": "string",
                  "name": "title",
                  "type": "string"
                },
                {
                  "internalType": "string",
                  "name": "projectName",
                  "type": "string"
                },
                {
                  "internalType": "string",
                  "name": "tokenName",
                  "type": "string"
                },
                {
                  "internalType": "string",
                  "name": "word",
                  "type": "string"
                }
              ],
              "internalType": "struct IHypePool.Details",
              "name": "details",
              "type": "tuple"
            },
            {
              "components": [
                {
                  "internalType": "uint256",
                  "name": "network",
                  "type": "uint256"
                },
                {
                  "internalType": "address",
                  "name": "tokenAddress",
                  "type": "address"
                },
                {
                  "internalType": "uint256",
                  "name": "impressionReward",
                  "type": "uint256"
                },
                {
                  "internalType": "uint256",
                  "name": "cap",
                  "type": "uint256"
                },
                {
                  "internalType": "uint256",
                  "name": "startDate",
                  "type": "uint256"
                },
                {
                  "internalType": "uint256",
                  "name": "endDate",
                  "type": "uint256"
                },
                {
                  "internalType": "uint256",
                  "name": "duration",
                  "type": "uint256"
                }
              ],
              "internalType": "struct IHypePool.Rewards",
              "name": "rewards",
              "type": "tuple"
            }
          ],
          "internalType": "struct IHypePool.HypePool",
          "name": "",
          "type": "tuple"
        }
      ],
      "stateMutability": "nonpayable",
      "type": "function"
    },
    {
      "inputs": [
        {
          "internalType": "bytes32",
          "name": "uuid",
          "type": "bytes32"
        }
      ],
      "name": "deactivatePool",
      "outputs": [],
      "stateMutability": "nonpayable",
      "type": "function"
    },
    {
      "inputs": [],
      "name": "getCurrentIndex",
      "outputs": [
        {
          "internalType": "bytes32",
          "name": "",
          "type": "bytes32"
        }
      ],
      "stateMutability": "view",
      "type": "function"
    },
    {
      "inputs": [
        {
          "internalType": "bytes32",
          "name": "uuid",
          "type": "bytes32"
        }
      ],
      "name": "getPool",
      "outputs": [
        {
          "components": [
            {
              "internalType": "bytes32",
              "name": "id",
              "type": "bytes32"
            },
            {
              "internalType": "address",
              "name": "creator",
              "type": "address"
            },
            {
              "internalType": "bool",
              "name": "active",
              "type": "bool"
            },
            {
              "components": [
                {
                  "internalType": "string",
                  "name": "title",
                  "type": "string"
                },
                {
                  "internalType": "string",
                  "name": "projectName",
                  "type": "string"
                },
                {
                  "internalType": "string",
                  "name": "tokenName",
                  "type": "string"
                },
                {
                  "internalType": "string",
                  "name": "word",
                  "type": "string"
                }
              ],
              "internalType": "struct IHypePool.Details",
              "name": "details",
              "type": "tuple"
            },
            {
              "components": [
                {
                  "internalType": "uint256",
                  "name": "network",
                  "type": "uint256"
                },
                {
                  "internalType": "address",
                  "name": "tokenAddress",
                  "type": "address"
                },
                {
                  "internalType": "uint256",
                  "name": "impressionReward",
                  "type": "uint256"
                },
                {
                  "internalType": "uint256",
                  "name": "cap",
                  "type": "uint256"
                },
                {
                  "internalType": "uint256",
                  "name": "startDate",
                  "type": "uint256"
                },
                {
                  "internalType": "uint256",
                  "name": "endDate",
                  "type": "uint256"
                },
                {
                  "internalType": "uint256",
                  "name": "duration",
                  "type": "uint256"
                }
              ],
              "internalType": "struct IHypePool.Rewards",
              "name": "rewards",
              "type": "tuple"
            }
          ],
          "internalType": "struct IHypePool.HypePool",
          "name": "",
          "type": "tuple"
        }
      ],
      "stateMutability": "view",
      "type": "function"
    },
    {
      "inputs": [],
      "name": "owner",
      "outputs": [
        {
          "internalType": "address",
          "name": "",
          "type": "address"
        }
      ],
      "stateMutability": "view",
      "type": "function"
    },
    {
      "inputs": [],
      "name": "pause",
      "outputs": [],
      "stateMutability": "nonpayable",
      "type": "function"
    },
    {
      "inputs": [],
      "name": "paused",
      "outputs": [
        {
          "internalType": "bool",
          "name": "",
          "type": "bool"
        }
      ],
      "stateMutability": "view",
      "type": "function"
    },
    {
      "inputs": [
        {
          "internalType": "bytes32",
          "name": "uuid",
          "type": "bytes32"
        }
      ],
      "name": "poolURI",
      "outputs": [
        {
          "internalType": "string",
          "name": "",
          "type": "string"
        }
      ],
      "stateMutability": "view",
      "type": "function"
    },
    {
      "inputs": [],
      "name": "renounceOwnership",
      "outputs": [],
      "stateMutability": "nonpayable",
      "type": "function"
    },
    {
      "inputs": [
        {
          "internalType": "address",
          "name": "newOwner",
          "type": "address"
        }
      ],
      "name": "transferOwnership",
      "outputs": [],
      "stateMutability": "nonpayable",
      "type": "function"
    },
    {
      "inputs": [],
      "name": "unpause",
      "outputs": [],
      "stateMutability": "nonpayable",
      "type": "function"
    }
  ],
  "bytecode": "0x60806040523480156200001157600080fd5b50604051620026fa380380620026fa8339810160408190526200003491620000c8565b6000805460ff1916905562000049336200006f565b600180546001600160a01b0319166001600160a01b0392909216919091179055620000fa565b600080546001600160a01b03838116610100818102610100600160a81b0319851617855560405193049190911692909183917f8be0079c531659141344cd1fd0a4f28419497f9722a3daafe3b4186f6b6457e091a35050565b600060208284031215620000db57600080fd5b81516001600160a01b0381168114620000f357600080fd5b9392505050565b6125f0806200010a6000396000f3fe608060405234801561001057600080fd5b50600436106100d45760003560e01c80638456cb5911610081578063f2fde38b1161005b578063f2fde38b1461018e578063f6c00927146101a1578063f8607fb1146101b457600080fd5b80638456cb591461014a5780638da5cb5b14610152578063d9d978591461017b57600080fd5b8063715018a6116100b2578063715018a61461010f57806373dfe0da1461011757806377108fcc1461012a57600080fd5b80630d9005ae146100d95780633f4ba83a146100ef5780635c975abb146100f9575b600080fd5b6005546040519081526020015b60405180910390f35b6100f76101d4565b005b60005460ff1660405190151581526020016100e6565b6100f76101e6565b6100f7610125366004611ef4565b6101f8565b61013d61013836600461207b565b61096b565b6040516100e691906121d3565b6100f7610f21565b60005461010090046001600160a01b03166040516001600160a01b0390911681526020016100e6565b6100f7610189366004611ef4565b610f31565b6100f761019c3660046122e7565b61147f565b61013d6101af366004611ef4565b61150f565b6101c76101c2366004611ef4565b611821565b6040516100e6919061230b565b6101dc6118c3565b6101e4611923565b565b6101ee6118c3565b6101e46000611975565b6102006119e5565b6000818152600260208181526040808420815160a0810183528154815260018201546001600160a01b03811694820194909452600160a01b90930460ff16151583830152815160808101909252928301805492939260608501929190829082906102699061231e565b80601f01602080910402602001604051908101604052809291908181526020018280546102959061231e565b80156102e25780601f106102b7576101008083540402835291602001916102e2565b820191906000526020600020905b8154815290600101906020018083116102c557829003601f168201915b505050505081526020016001820180546102fb9061231e565b80601f01602080910402602001604051908101604052809291908181526020018280546103279061231e565b80156103745780601f1061034957610100808354040283529160200191610374565b820191906000526020600020905b81548152906001019060200180831161035757829003601f168201915b5050505050815260200160028201805461038d9061231e565b80601f01602080910402602001604051908101604052809291908181526020018280546103b99061231e565b80156104065780601f106103db57610100808354040283529160200191610406565b820191906000526020600020905b8154815290600101906020018083116103e957829003601f168201915b5050505050815260200160038201805461041f9061231e565b80601f016020809104026020016040519081016040528092919081815260200182805461044b9061231e565b80156104985780601f1061046d57610100808354040283529160200191610498565b820191906000526020600020905b81548152906001019060200180831161047b57829003601f168201915b5050509190925250505081526040805160e0810182526006840154815260078401546001600160a01b031660208281019190915260088501548284015260098501546060830152600a850154608080840191909152600b86015460a0840152600c9095015460c0830152909201919091529082015101519091506000036105665760405162461bcd60e51b815260206004820152601260248201527f506f6f6c20646f65736e2774206578697374000000000000000000000000000060448201526064015b60405180910390fd5b60008281526004602052604090205460ff166105c45760405162461bcd60e51b815260206004820152601360248201527f506f6f6c20646f6573206e6f7420657869737400000000000000000000000000604482015260640161055d565b6040810151156106165760405162461bcd60e51b815260206004820152601660248201527f506f6f6c20697320616c72656164792061637469766500000000000000000000604482015260640161055d565b6001546040517f1aa9e742000000000000000000000000000000000000000000000000000000008152336004820152602481018490526001600160a01b03909116906000908290631aa9e74290604401606060405180830381865afa158015610683573d6000803e3d6000fd5b505050506040513d601f19601f820116820180604052508101906106a79190612358565b6080840151606001518151919250146107285760405162461bcd60e51b815260206004820152602860248201527f4465706f736974656420616d6f756e7420646f6573206e6f74206d617463682060448201527f706f6f6c20636170000000000000000000000000000000000000000000000000606482015260840161055d565b8260800151602001516001600160a01b031681602001516001600160a01b0316146107bb5760405162461bcd60e51b815260206004820152603960248201527f4465706f736974656420746f6b656e206164647265737320646f6573206e6f7460448201527f206d6174636820706f6f6c20746f6b656e206164647265737300000000000000606482015260840161055d565b60016040840152608080840180514292018290525160c001516107dd916123d0565b608084015160a001526000848152600260208181526040928390208651815590860151600182018054948801511515600160a01b0274ffffffffffffffffffffffffffffffffffffffffff199095166001600160a01b03909216919091179390931790925560608501518051869392830190819061085b9082612438565b50602082015160018201906108709082612438565b50604082015160028201906108859082612438565b506060820151600382019061089a9082612438565b5050506080918201518051600683015560208082015160078401805473ffffffffffffffffffffffffffffffffffffffff19166001600160a01b039092169190911790556040808301516008850155606080840151600986015583860151600a86015560a080850151600b87015560c090940151600c90950194909455878501518086015193015181518a8152339381019390935290820192909252918201527ff1e6981b3d18841dad1ef7f8db1d40663aaa4b8cd2022e5349498c4d406d00df910160405180910390a150505050565b610973611e48565b61097b6119e5565b60008451116109cc5760405162461bcd60e51b815260206004820152601460248201527f4d697373696e67206d6574616461746120555249000000000000000000000000604482015260640161055d565b6000826060015111610a205760405162461bcd60e51b815260206004820152601060248201527f496e76616c696420706f6f6c2063617000000000000000000000000000000000604482015260640161055d565b60008260c0015111610a9a5760405162461bcd60e51b815260206004820152602160248201527f4475726174696f6e206d757374206265206174206c65617374206f6e6520646160448201527f7900000000000000000000000000000000000000000000000000000000000000606482015260840161055d565b608082015115610aec5760405162461bcd60e51b815260206004820152601760248201527f53746172742064617465206d757374206265207a65726f000000000000000000604482015260640161055d565b60a082015115610b3e5760405162461bcd60e51b815260206004820152601560248201527f456e642064617465206d757374206265207a65726f0000000000000000000000604482015260640161055d565b6000826040015111610b925760405162461bcd60e51b815260206004820152601e60248201527f496e76616c696420696d7072657373696f6e2068797065207265776172640000604482015260640161055d565b6000610b9c611a38565b60008181526004602052604090205490915060ff1615610bfe5760405162461bcd60e51b815260206004820152601360248201527f5575696420616c72656164792065786973747300000000000000000000000000604482015260640161055d565b610c0a81868686611add565b610c148186611ca0565b600081815260026020818152604092839020835160a0810185528154815260018201546001600160a01b03811693820193909352600160a01b90920460ff1615158285015283516080810190945291820180549193606085019290919082908290610c7e9061231e565b80601f0160208091040260200160405190810160405280929190818152602001828054610caa9061231e565b8015610cf75780601f10610ccc57610100808354040283529160200191610cf7565b820191906000526020600020905b815481529060010190602001808311610cda57829003601f168201915b50505050508152602001600182018054610d109061231e565b80601f0160208091040260200160405190810160405280929190818152602001828054610d3c9061231e565b8015610d895780601f10610d5e57610100808354040283529160200191610d89565b820191906000526020600020905b815481529060010190602001808311610d6c57829003601f168201915b50505050508152602001600282018054610da29061231e565b80601f0160208091040260200160405190810160405280929190818152602001828054610dce9061231e565b8015610e1b5780601f10610df057610100808354040283529160200191610e1b565b820191906000526020600020905b815481529060010190602001808311610dfe57829003601f168201915b50505050508152602001600382018054610e349061231e565b80601f0160208091040260200160405190810160405280929190818152602001828054610e609061231e565b8015610ead5780601f10610e8257610100808354040283529160200191610ead565b820191906000526020600020905b815481529060010190602001808311610e9057829003601f168201915b5050509190925250505081526040805160e0810182526006840154815260078401546001600160a01b031660208083019190915260088501549282019290925260098401546060820152600a8401546080820152600b84015460a0820152600c9093015460c0840152015295945050505050565b610f296118c3565b6101e4611cea565b610f396119e5565b610f416118c3565b6000818152600260208181526040808420815160a0810183528154815260018201546001600160a01b03811694820194909452600160a01b90930460ff1615158383015281516080810190925292830180549293926060850192919082908290610faa9061231e565b80601f0160208091040260200160405190810160405280929190818152602001828054610fd69061231e565b80156110235780601f10610ff857610100808354040283529160200191611023565b820191906000526020600020905b81548152906001019060200180831161100657829003601f168201915b5050505050815260200160018201805461103c9061231e565b80601f01602080910402602001604051908101604052809291908181526020018280546110689061231e565b80156110b55780601f1061108a576101008083540402835291602001916110b5565b820191906000526020600020905b81548152906001019060200180831161109857829003601f168201915b505050505081526020016002820180546110ce9061231e565b80601f01602080910402602001604051908101604052809291908181526020018280546110fa9061231e565b80156111475780601f1061111c57610100808354040283529160200191611147565b820191906000526020600020905b81548152906001019060200180831161112a57829003601f168201915b505050505081526020016003820180546111609061231e565b80601f016020809104026020016040519081016040528092919081815260200182805461118c9061231e565b80156111d95780601f106111ae576101008083540402835291602001916111d9565b820191906000526020600020905b8154815290600101906020018083116111bc57829003601f168201915b5050509190925250505081526040805160e0810182526006840154815260078401546001600160a01b031660208281019190915260088501548284015260098501546060830152600a850154608080840191909152600b86015460a0840152600c9095015460c0830152909201919091529082015101519091506000036112a25760405162461bcd60e51b815260206004820152601260248201527f506f6f6c20646f65736e27742065786973740000000000000000000000000000604482015260640161055d565b604081015115156001146112f85760405162461bcd60e51b815260206004820152601860248201527f506f6f6c20697320616c726561647920696e6163746976650000000000000000604482015260640161055d565b6000604080830182815260808401514260a0909101528483526002602081815292909320845181559184015160018301805492511515600160a01b0274ffffffffffffffffffffffffffffffffffffffffff199093166001600160a01b0390921691909117919091179055606083015180518493830190819061137b9082612438565b50602082015160018201906113909082612438565b50604082015160028201906113a59082612438565b50606082015160038201906113ba9082612438565b5050506080918201518051600683015560208101516007830180546001600160a01b0390921673ffffffffffffffffffffffffffffffffffffffff1990921691909117905560408082015160088401556060820151600984015592810151600a83015560a0810151600b83015560c00151600c90910155517f0522afc663a576de692143f1e714306778ade438ea7c739c3a3964bd78eb2cc69061147390849033909182526001600160a01b0316602082015260400190565b60405180910390a15050565b6114876118c3565b6001600160a01b0381166115035760405162461bcd60e51b815260206004820152602660248201527f4f776e61626c653a206e6577206f776e657220697320746865207a65726f206160448201527f6464726573730000000000000000000000000000000000000000000000000000606482015260840161055d565b61150c81611975565b50565b611517611e48565b600082815260026020818152604092839020835160a0810185528154815260018201546001600160a01b03811693820193909352600160a01b90920460ff16151582850152835160808101909452918201805491936060850192909190829082906115819061231e565b80601f01602080910402602001604051908101604052809291908181526020018280546115ad9061231e565b80156115fa5780601f106115cf576101008083540402835291602001916115fa565b820191906000526020600020905b8154815290600101906020018083116115dd57829003601f168201915b505050505081526020016001820180546116139061231e565b80601f016020809104026020016040519081016040528092919081815260200182805461163f9061231e565b801561168c5780601f106116615761010080835404028352916020019161168c565b820191906000526020600020905b81548152906001019060200180831161166f57829003601f168201915b505050505081526020016002820180546116a59061231e565b80601f01602080910402602001604051908101604052809291908181526020018280546116d19061231e565b801561171e5780601f106116f35761010080835404028352916020019161171e565b820191906000526020600020905b81548152906001019060200180831161170157829003601f168201915b505050505081526020016003820180546117379061231e565b80601f01602080910402602001604051908101604052809291908181526020018280546117639061231e565b80156117b05780601f10611785576101008083540402835291602001916117b0565b820191906000526020600020905b81548152906001019060200180831161179357829003601f168201915b5050509190925250505081526040805160e0810182526006840154815260078401546001600160a01b031660208281019190915260088501549282019290925260098401546060820152600a8401546080820152600b84015460a0820152600c9093015460c0840152015292915050565b600081815260036020526040902080546060919061183e9061231e565b80601f016020809104026020016040519081016040528092919081815260200182805461186a9061231e565b80156118b75780601f1061188c576101008083540402835291602001916118b7565b820191906000526020600020905b81548152906001019060200180831161189a57829003601f168201915b50505050509050919050565b6000546001600160a01b036101009091041633146101e45760405162461bcd60e51b815260206004820181905260248201527f4f776e61626c653a2063616c6c6572206973206e6f7420746865206f776e6572604482015260640161055d565b61192b611d27565b6000805460ff191690557f5db9ee0a495bf2e6ff9c91a7834c1ba4fdd244a5e8aa4e537bd38aeae4b073aa335b6040516001600160a01b03909116815260200160405180910390a1565b600080546001600160a01b038381166101008181027fffffffffffffffffffffff0000000000000000000000000000000000000000ff851617855560405193049190911692909183917f8be0079c531659141344cd1fd0a4f28419497f9722a3daafe3b4186f6b6457e091a35050565b60005460ff16156101e45760405162461bcd60e51b815260206004820152601060248201527f5061757361626c653a2070617573656400000000000000000000000000000000604482015260640161055d565b60408051436020820181905242928201839052600060608301819052929091839081906080016040516020818303038152906040528051906020012090505b60008181526004602052604090205460ff1615611ad55781611a98816124f8565b6040805160208101889052908101869052606081018290529093506080019050604051602081830303815290604052805190602001209050611a77565b949350505050565b6040805160a081018252858152336020808301918252600083850181815260608501888152608086018890528a83526002938490529590912084518155925160018401805492511515600160a01b0274ffffffffffffffffffffffffffffffffffffffffff199093166001600160a01b039290921691909117919091179055925180519293919290918301908190611b759082612438565b5060208201516001820190611b8a9082612438565b5060408201516002820190611b9f9082612438565b5060608201516003820190611bb49082612438565b5050506080918201518051600683015560208082015160078401805473ffffffffffffffffffffffffffffffffffffffff19166001600160a01b0390921691909117905560408083015160088501556060830151600985015593820151600a84015560a0820151600b84015560c090910151600c9092019190915560008681526004909152819020805460ff191660011790556005859055517f3a21eb0a9afc1353da741f39aaea48014c074c6720b61baf41e1e18d6ae7b2fb90611c7e90869033908790612511565b60405180910390a1611c908483611d79565b611c9a8482611dc0565b50505050565b6000828152600360205260409020611cb88282612438565b507fa9397f16db6e1e1b43c1c813233f16139006d56a3d1a24412ebdfb0661b5bfff8282604051611473929190612542565b611cf26119e5565b6000805460ff191660011790557f62e78cea01bee320cd4e420270b5ea74000d11b0c9f74754ebdbfc544b05a2586119583390565b60005460ff166101e45760405162461bcd60e51b815260206004820152601460248201527f5061757361626c653a206e6f7420706175736564000000000000000000000000604482015260640161055d565b7f764b3686bd9a8c04d487da87edb364f64d505149c22a8b2664d353539ecf6a3382826000015183602001518460400151856060015160405161147395949392919061255b565b805160208083015160408085015160608087015160808089015160a0808b015160c0808d015189518f81529b8c019c909c526001600160a01b03909916978a0197909752938801949094528601528401529082015260e08101919091527fd3c186ca228d0fefdb5e931894eda7415bb30b75f95c5b4f41deee5da40f18d29061010001611473565b6040518060a001604052806000801916815260200160006001600160a01b03168152602001600015158152602001611ea16040518060800160405280606081526020016060815260200160608152602001606081525090565b8152602001611eef6040518060e001604052806000815260200160006001600160a01b0316815260200160008152602001600081526020016000815260200160008152602001600081525090565b905290565b600060208284031215611f0657600080fd5b5035919050565b634e487b7160e01b600052604160045260246000fd5b6040516080810167ffffffffffffffff81118282101715611f4657611f46611f0d565b60405290565b600082601f830112611f5d57600080fd5b813567ffffffffffffffff80821115611f7857611f78611f0d565b604051601f8301601f19908116603f01168101908282118183101715611fa057611fa0611f0d565b81604052838152866020858801011115611fb957600080fd5b836020870160208301376000602085830101528094505050505092915050565b6001600160a01b038116811461150c57600080fd5b600060e0828403121561200057600080fd5b60405160e0810181811067ffffffffffffffff8211171561202357612023611f0d565b60405282358152905080602083013561203b81611fd9565b8060208301525060408301356040820152606083013560608201526080830135608082015260a083013560a082015260c083013560c08201525092915050565b6000806000610120848603121561209157600080fd5b833567ffffffffffffffff808211156120a957600080fd5b6120b587838801611f4c565b945060208601359150808211156120cb57600080fd5b90850190608082880312156120df57600080fd5b6120e7611f23565b8235828111156120f657600080fd5b61210289828601611f4c565b82525060208301358281111561211757600080fd5b61212389828601611f4c565b60208301525060408301358281111561213b57600080fd5b61214789828601611f4c565b60408301525060608301358281111561215f57600080fd5b61216b89828601611f4c565b6060830152508094505050506121848560408601611fee565b90509250925092565b6000815180845260005b818110156121b357602081850181015186830182015201612197565b506000602082860101526020601f19601f83011685010191505092915050565b60208152815160208201526001600160a01b0360208301511660408201526040820151151560608201526000606083015161016060808401528051608061018085015261222461020085018261218d565b9050602082015161017f1980868403016101a0870152612244838361218d565b92506040840151915080868403016101c0870152612262838361218d565b92506060840151935080868403016101e08701525050612282818361218d565b91505060808401516122df60a0850182805182526001600160a01b03602082015116602083015260408101516040830152606081015160608301526080810151608083015260a081015160a083015260c081015160c08301525050565b509392505050565b6000602082840312156122f957600080fd5b813561230481611fd9565b9392505050565b602081526000612304602083018461218d565b600181811c9082168061233257607f821691505b60208210810361235257634e487b7160e01b600052602260045260246000fd5b50919050565b60006060828403121561236a57600080fd5b6040516060810181811067ffffffffffffffff8211171561238d5761238d611f0d565b6040528251815260208301516123a281611fd9565b60208201526040928301519281019290925250919050565b634e487b7160e01b600052601160045260246000fd5b808201808211156123e3576123e36123ba565b92915050565b601f82111561243357600081815260208120601f850160051c810160208610156124105750805b601f850160051c820191505b8181101561242f5782815560010161241c565b5050505b505050565b815167ffffffffffffffff81111561245257612452611f0d565b61246681612460845461231e565b846123e9565b602080601f83116001811461249b57600084156124835750858301515b600019600386901b1c1916600185901b17855561242f565b600085815260208120601f198616915b828110156124ca578886015182559484019460019091019084016124ab565b50858210156124e85787850151600019600388901b60f8161c191681555b5050505050600190811b01905550565b60006001820161250a5761250a6123ba565b5060010190565b8381526001600160a01b0383166020820152606060408201526000612539606083018461218d565b95945050505050565b828152604060208201526000611ad5604083018461218d565b85815260a06020820152600061257460a083018761218d565b8281036040840152612586818761218d565b9050828103606084015261259a818661218d565b905082810360808401526125ae818561218d565b9897505050505050505056fea26469706673582212202978521b99968758499c0b2a92d14dc25cf334bca51392267775efba7635ac2b64736f6c63430008120033",
  "linkReferences": {},
  "deployedLinkReferences": {}
}