{
  "_format": "hh-sol-artifact-1",
  "contractName": "HypePool",
  "sourceName": "contracts/HypePool.sol",
  "abi": [
    {
      "inputs": [
        {
          "internalType": "address",
          "name": "escrowContractAddress",
          "type": "address"
        }
      ],
      "stateMutability": "nonpayable",
      "type": "constructor"
    },
    {
      "anonymous": false,
      "inputs": [
        {
          "indexed": true,
          "internalType": "address",
          "name": "previousOwner",
          "type": "address"
        },
        {
          "indexed": true,
          "internalType": "address",
          "name": "newOwner",
          "type": "address"
        }
      ],
      "name": "OwnershipTransferred",
      "type": "event"
    },
    {
      "anonymous": false,
      "inputs": [
        {
          "indexed": false,
          "internalType": "address",
          "name": "account",
          "type": "address"
        }
      ],
      "name": "Paused",
      "type": "event"
    },
    {
      "anonymous": false,
      "inputs": [
        {
          "indexed": false,
          "internalType": "uint256",
          "name": "poolId",
          "type": "uint256"
        },
        {
          "indexed": false,
          "internalType": "address",
          "name": "activator",
          "type": "address"
        }
      ],
      "name": "PoolActivated",
      "type": "event"
    },
    {
      "anonymous": false,
      "inputs": [
        {
          "indexed": false,
          "internalType": "uint256",
          "name": "poolId",
          "type": "uint256"
        },
        {
          "indexed": false,
          "internalType": "address",
          "name": "creator",
          "type": "address"
        },
        {
          "indexed": false,
          "internalType": "string",
          "name": "uri",
          "type": "string"
        },
        {
          "indexed": false,
          "internalType": "string",
          "name": "title",
          "type": "string"
        },
        {
          "indexed": false,
          "internalType": "string",
          "name": "projectName",
          "type": "string"
        },
        {
          "indexed": false,
          "internalType": "string",
          "name": "tokenName",
          "type": "string"
        },
        {
          "indexed": false,
          "internalType": "string",
          "name": "word",
          "type": "string"
        },
        {
          "indexed": false,
          "internalType": "bool",
          "name": "active",
          "type": "bool"
        },
        {
          "indexed": false,
          "internalType": "uint256",
          "name": "cap",
          "type": "uint256"
        },
        {
          "indexed": false,
          "internalType": "address",
          "name": "tokenAddress",
          "type": "address"
        },
        {
          "indexed": false,
          "internalType": "uint256",
          "name": "network",
          "type": "uint256"
        },
        {
          "indexed": false,
          "internalType": "uint256",
          "name": "minReward",
          "type": "uint256"
        },
        {
          "indexed": false,
          "internalType": "uint256",
          "name": "impressionReward",
          "type": "uint256"
        },
        {
          "indexed": false,
          "internalType": "uint256",
          "name": "endDate",
          "type": "uint256"
        }
      ],
      "name": "PoolCreated",
      "type": "event"
    },
    {
      "anonymous": false,
      "inputs": [
        {
          "indexed": false,
          "internalType": "uint256",
          "name": "poolId",
          "type": "uint256"
        },
        {
          "indexed": false,
          "internalType": "string",
          "name": "uri",
          "type": "string"
        }
      ],
      "name": "PoolUriSet",
      "type": "event"
    },
    {
      "anonymous": false,
      "inputs": [
        {
          "indexed": false,
          "internalType": "address",
          "name": "account",
          "type": "address"
        }
      ],
      "name": "Unpaused",
      "type": "event"
    },
    {
      "inputs": [
        {
          "internalType": "uint256",
          "name": "id",
          "type": "uint256"
        }
      ],
      "name": "activatePool",
      "outputs": [],
      "stateMutability": "nonpayable",
      "type": "function"
    },
    {
      "inputs": [
        {
          "internalType": "string",
          "name": "uri",
          "type": "string"
        },
        {
          "internalType": "string",
          "name": "projectName",
          "type": "string"
        },
        {
          "internalType": "string",
          "name": "title",
          "type": "string"
        },
        {
          "internalType": "string",
          "name": "tokenName",
          "type": "string"
        },
        {
          "internalType": "string",
          "name": "word",
          "type": "string"
        },
        {
          "internalType": "uint256",
          "name": "cap",
          "type": "uint256"
        },
        {
          "internalType": "address",
          "name": "tokenAddress",
          "type": "address"
        },
        {
          "internalType": "uint256",
          "name": "network",
          "type": "uint256"
        },
        {
          "internalType": "uint256",
          "name": "minReward",
          "type": "uint256"
        },
        {
          "internalType": "uint256",
          "name": "impressionReward",
          "type": "uint256"
        },
        {
          "internalType": "uint256",
          "name": "endDate",
          "type": "uint256"
        }
      ],
      "name": "createPool",
      "outputs": [
        {
          "components": [
            {
              "internalType": "uint256",
              "name": "id",
              "type": "uint256"
            },
            {
              "internalType": "address",
              "name": "creator",
              "type": "address"
            },
            {
              "internalType": "string",
              "name": "title",
              "type": "string"
            },
            {
              "internalType": "string",
              "name": "projectName",
              "type": "string"
            },
            {
              "internalType": "string",
              "name": "tokenName",
              "type": "string"
            },
            {
              "internalType": "string",
              "name": "word",
              "type": "string"
            },
            {
              "internalType": "uint256",
              "name": "network",
              "type": "uint256"
            },
            {
              "internalType": "bool",
              "name": "active",
              "type": "bool"
            },
            {
              "internalType": "uint256",
              "name": "cap",
              "type": "uint256"
            },
            {
              "internalType": "address",
              "name": "tokenAddress",
              "type": "address"
            },
            {
              "internalType": "uint256",
              "name": "minReward",
              "type": "uint256"
            },
            {
              "internalType": "uint256",
              "name": "impressionReward",
              "type": "uint256"
            },
            {
              "internalType": "uint256",
              "name": "endDate",
              "type": "uint256"
            }
          ],
          "internalType": "struct IHypePool.HypePool",
          "name": "",
          "type": "tuple"
        }
      ],
      "stateMutability": "nonpayable",
      "type": "function"
    },
    {
      "inputs": [],
      "name": "getCurrentIndex",
      "outputs": [
        {
          "internalType": "uint256",
          "name": "",
          "type": "uint256"
        }
      ],
      "stateMutability": "view",
      "type": "function"
    },
    {
      "inputs": [
        {
          "internalType": "uint256",
          "name": "tokenId",
          "type": "uint256"
        }
      ],
      "name": "getPool",
      "outputs": [
        {
          "components": [
            {
              "internalType": "uint256",
              "name": "id",
              "type": "uint256"
            },
            {
              "internalType": "address",
              "name": "creator",
              "type": "address"
            },
            {
              "internalType": "string",
              "name": "title",
              "type": "string"
            },
            {
              "internalType": "string",
              "name": "projectName",
              "type": "string"
            },
            {
              "internalType": "string",
              "name": "tokenName",
              "type": "string"
            },
            {
              "internalType": "string",
              "name": "word",
              "type": "string"
            },
            {
              "internalType": "uint256",
              "name": "network",
              "type": "uint256"
            },
            {
              "internalType": "bool",
              "name": "active",
              "type": "bool"
            },
            {
              "internalType": "uint256",
              "name": "cap",
              "type": "uint256"
            },
            {
              "internalType": "address",
              "name": "tokenAddress",
              "type": "address"
            },
            {
              "internalType": "uint256",
              "name": "minReward",
              "type": "uint256"
            },
            {
              "internalType": "uint256",
              "name": "impressionReward",
              "type": "uint256"
            },
            {
              "internalType": "uint256",
              "name": "endDate",
              "type": "uint256"
            }
          ],
          "internalType": "struct IHypePool.HypePool",
          "name": "",
          "type": "tuple"
        }
      ],
      "stateMutability": "view",
      "type": "function"
    },
    {
      "inputs": [],
      "name": "owner",
      "outputs": [
        {
          "internalType": "address",
          "name": "",
          "type": "address"
        }
      ],
      "stateMutability": "view",
      "type": "function"
    },
    {
      "inputs": [],
      "name": "pause",
      "outputs": [],
      "stateMutability": "nonpayable",
      "type": "function"
    },
    {
      "inputs": [],
      "name": "paused",
      "outputs": [
        {
          "internalType": "bool",
          "name": "",
          "type": "bool"
        }
      ],
      "stateMutability": "view",
      "type": "function"
    },
    {
      "inputs": [
        {
          "internalType": "uint256",
          "name": "tokenId",
          "type": "uint256"
        }
      ],
      "name": "poolURI",
      "outputs": [
        {
          "internalType": "string",
          "name": "",
          "type": "string"
        }
      ],
      "stateMutability": "view",
      "type": "function"
    },
    {
      "inputs": [],
      "name": "renounceOwnership",
      "outputs": [],
      "stateMutability": "nonpayable",
      "type": "function"
    },
    {
      "inputs": [
        {
          "internalType": "address",
          "name": "newOwner",
          "type": "address"
        }
      ],
      "name": "transferOwnership",
      "outputs": [],
      "stateMutability": "nonpayable",
      "type": "function"
    },
    {
      "inputs": [],
      "name": "unpause",
      "outputs": [],
      "stateMutability": "nonpayable",
      "type": "function"
    }
  ],
  "bytecode": "0x60806040523480156200001157600080fd5b5060405162001db838038062001db88339810160408190526200003491620000c8565b6000805460ff1916905562000049336200006f565b600280546001600160a01b0319166001600160a01b0392909216919091179055620000fa565b600080546001600160a01b03838116610100818102610100600160a81b0319851617855560405193049190911692909183917f8be0079c531659141344cd1fd0a4f28419497f9722a3daafe3b4186f6b6457e091a35050565b600060208284031215620000db57600080fd5b81516001600160a01b0381168114620000f357600080fd5b9392505050565b611cae806200010a6000396000f3fe608060405234801561001057600080fd5b50600436106100c95760003560e01c806352a9aeb5116100815780638456cb591161005b5780638456cb591461017b5780638da5cb5b14610183578063f2fde38b146101ac57600080fd5b806352a9aeb51461014a5780635c975abb1461015d578063715018a61461017357600080fd5b80630d9005ae116100b25780630d9005ae1461010c5780631e2f4adc146101225780633f4ba83a1461014257600080fd5b8063068bcd8d146100ce57806308f747dd146100f7575b600080fd5b6100e16100dc366004611756565b6101bf565b6040516100ee91906117bc565b60405180910390f35b61010a610105366004611756565b61051c565b005b610114610bc8565b6040519081526020016100ee565b610135610130366004611756565b610bd8565b6040516100ee91906118ce565b61010a610c7a565b6100e16101583660046119b0565b610c8c565b60005460ff1660405190151581526020016100ee565b61010a61119b565b61010a6111ad565b60005461010090046001600160a01b03166040516001600160a01b0390911681526020016100ee565b61010a6101ba366004611ac9565b6111bd565b61023e604051806101a001604052806000815260200160006001600160a01b0316815260200160608152602001606081526020016060815260200160608152602001600081526020016000151581526020016000815260200160006001600160a01b031681526020016000815260200160008152602001600081525090565b60008281526003602090815260409182902082516101a0810184528154815260018201546001600160a01b031692810192909252600281018054929391929184019161028990611ae6565b80601f01602080910402602001604051908101604052809291908181526020018280546102b590611ae6565b80156103025780601f106102d757610100808354040283529160200191610302565b820191906000526020600020905b8154815290600101906020018083116102e557829003601f168201915b5050505050815260200160038201805461031b90611ae6565b80601f016020809104026020016040519081016040528092919081815260200182805461034790611ae6565b80156103945780601f1061036957610100808354040283529160200191610394565b820191906000526020600020905b81548152906001019060200180831161037757829003601f168201915b505050505081526020016004820180546103ad90611ae6565b80601f01602080910402602001604051908101604052809291908181526020018280546103d990611ae6565b80156104265780601f106103fb57610100808354040283529160200191610426565b820191906000526020600020905b81548152906001019060200180831161040957829003601f168201915b5050505050815260200160058201805461043f90611ae6565b80601f016020809104026020016040519081016040528092919081815260200182805461046b90611ae6565b80156104b85780601f1061048d576101008083540402835291602001916104b8565b820191906000526020600020905b81548152906001019060200180831161049b57829003601f168201915b505050918352505060068201546020820152600782015460ff16151560408201526008820154606082015260098201546001600160a01b03166080820152600a82015460a0820152600b82015460c0820152600c9091015460e09091015292915050565b61052461124d565b600081815260036020908152604080832081516101a0810183528154815260018201546001600160a01b031693810193909352600281018054919284019161056b90611ae6565b80601f016020809104026020016040519081016040528092919081815260200182805461059790611ae6565b80156105e45780601f106105b9576101008083540402835291602001916105e4565b820191906000526020600020905b8154815290600101906020018083116105c757829003601f168201915b505050505081526020016003820180546105fd90611ae6565b80601f016020809104026020016040519081016040528092919081815260200182805461062990611ae6565b80156106765780601f1061064b57610100808354040283529160200191610676565b820191906000526020600020905b81548152906001019060200180831161065957829003601f168201915b5050505050815260200160048201805461068f90611ae6565b80601f01602080910402602001604051908101604052809291908181526020018280546106bb90611ae6565b80156107085780601f106106dd57610100808354040283529160200191610708565b820191906000526020600020905b8154815290600101906020018083116106eb57829003601f168201915b5050505050815260200160058201805461072190611ae6565b80601f016020809104026020016040519081016040528092919081815260200182805461074d90611ae6565b801561079a5780601f1061076f5761010080835404028352916020019161079a565b820191906000526020600020905b81548152906001019060200180831161077d57829003601f168201915b505050918352505060068201546020820152600782015460ff16151560408201526008820154606082015260098201546001600160a01b03166080820152600a82015460a0820152600b82015460c0820152600c9091015460e0909101526101408101519091506000036108555760405162461bcd60e51b815260206004820152601260248201527f506f6f6c20646f65736e2774206578697374000000000000000000000000000060448201526064015b60405180910390fd5b60e0810151156108a75760405162461bcd60e51b815260206004820152601660248201527f506f6f6c20697320616c72656164792061637469766500000000000000000000604482015260640161084c565b6002546040517fae22192e000000000000000000000000000000000000000000000000000000008152336004820152602481018490526001600160a01b0390911690600090829063ae22192e90604401606060405180830381865afa158015610914573d6000803e3d6000fd5b505050506040513d601f19601f820116820180604052508101906109389190611b20565b6101008401518151919250146109b65760405162461bcd60e51b815260206004820152602860248201527f4465706f736974656420616d6f756e7420646f6573206e6f74206d617463682060448201527f706f6f6c20636170000000000000000000000000000000000000000000000000606482015260840161084c565b8261012001516001600160a01b031681602001516001600160a01b031614610a465760405162461bcd60e51b815260206004820152603960248201527f4465706f736974656420746f6b656e206164647265737320646f6573206e6f7460448201527f206d6174636820706f6f6c20746f6b656e206164647265737300000000000000606482015260840161084c565b600160e084018190526000858152600360209081526040918290208651815581870151938101805473ffffffffffffffffffffffffffffffffffffffff19166001600160a01b0390951694909417909355908501518051869392610ab19260028501929101906116bd565b5060608201518051610acd9160038401916020909101906116bd565b5060808201518051610ae99160048401916020909101906116bd565b5060a08201518051610b059160058401916020909101906116bd565b5060c0820151600682015560e082015160078201805460ff1916911515919091179055610100820151600882015561012082015160098201805473ffffffffffffffffffffffffffffffffffffffff19166001600160a01b03909216919091179055610140820151600a820155610160820151600b82015561018090910151600c90910155604080518581523360208201527f4f7e91eea279f21fac65109d86b7d1dfceb5607c89313be67d8c2bf537f9ae0c910160405180910390a150505050565b6000610bd360015490565b905090565b6000818152600460205260409020805460609190610bf590611ae6565b80601f0160208091040260200160405190810160405280929190818152602001828054610c2190611ae6565b8015610c6e5780601f10610c4357610100808354040283529160200191610c6e565b820191906000526020600020905b815481529060010190602001808311610c5157829003601f168201915b50505050509050919050565b610c826112a0565b610c8a611300565b565b610d0b604051806101a001604052806000815260200160006001600160a01b0316815260200160608152602001606081526020016060815260200160608152602001600081526020016000151581526020016000815260200160006001600160a01b031681526020016000815260200160008152602001600081525090565b610d1361124d565b60008c5111610d645760405162461bcd60e51b815260206004820152601460248201527f4d697373696e67206d6574616461746120555249000000000000000000000000604482015260640161084c565b60008711610db45760405162461bcd60e51b815260206004820152601060248201527f496e76616c696420706f6f6c2063617000000000000000000000000000000000604482015260640161084c565b428211610e295760405162461bcd60e51b815260206004820152602960248201527f456e642064617465206d7573742062652061667465722063757272656e74206260448201527f6c6f636b2074696d650000000000000000000000000000000000000000000000606482015260840161084c565b60008411610e795760405162461bcd60e51b815260206004820152601b60248201527f496e76616c6964206d696e696d616c2068797065207265776172640000000000604482015260640161084c565b6000610e8460015490565b9050610e9a818e8e8e8e8e8e8e8e8e8e8e611352565b610ea4818e611561565b610eb2600180546001019055565b60008181526003602090815260409182902082516101a0810184528154815260018201546001600160a01b0316928101929092526002810180549293919291840191610efd90611ae6565b80601f0160208091040260200160405190810160405280929190818152602001828054610f2990611ae6565b8015610f765780601f10610f4b57610100808354040283529160200191610f76565b820191906000526020600020905b815481529060010190602001808311610f5957829003601f168201915b50505050508152602001600382018054610f8f90611ae6565b80601f0160208091040260200160405190810160405280929190818152602001828054610fbb90611ae6565b80156110085780601f10610fdd57610100808354040283529160200191611008565b820191906000526020600020905b815481529060010190602001808311610feb57829003601f168201915b5050505050815260200160048201805461102190611ae6565b80601f016020809104026020016040519081016040528092919081815260200182805461104d90611ae6565b801561109a5780601f1061106f5761010080835404028352916020019161109a565b820191906000526020600020905b81548152906001019060200180831161107d57829003601f168201915b505050505081526020016005820180546110b390611ae6565b80601f01602080910402602001604051908101604052809291908181526020018280546110df90611ae6565b801561112c5780601f106111015761010080835404028352916020019161112c565b820191906000526020600020905b81548152906001019060200180831161110f57829003601f168201915b505050918352505060068201546020820152600782015460ff16151560408201526008820154606082015260098201546001600160a01b03166080820152600a82015460a0820152600b82015460c0820152600c9091015460e0909101529d9c50505050505050505050505050565b6111a36112a0565b610c8a60006115be565b6111b56112a0565b610c8a61162e565b6111c56112a0565b6001600160a01b0381166112415760405162461bcd60e51b815260206004820152602660248201527f4f776e61626c653a206e6577206f776e657220697320746865207a65726f206160448201527f6464726573730000000000000000000000000000000000000000000000000000606482015260840161084c565b61124a816115be565b50565b60005460ff1615610c8a5760405162461bcd60e51b815260206004820152601060248201527f5061757361626c653a2070617573656400000000000000000000000000000000604482015260640161084c565b6000546001600160a01b03610100909104163314610c8a5760405162461bcd60e51b815260206004820181905260248201527f4f776e61626c653a2063616c6c6572206973206e6f7420746865206f776e6572604482015260640161084c565b61130861166b565b6000805460ff191690557f5db9ee0a495bf2e6ff9c91a7834c1ba4fdd244a5e8aa4e537bd38aeae4b073aa335b6040516001600160a01b03909116815260200160405180910390a1565b604051806101a001604052808d8152602001336001600160a01b031681526020018a81526020018b8152602001898152602001888152602001858152602001600015158152602001878152602001866001600160a01b0316815260200184815260200183815260200182815250600360008e81526020019081526020016000206000820151816000015560208201518160010160006101000a8154816001600160a01b0302191690836001600160a01b0316021790555060408201518160020190805190602001906114259291906116bd565b50606082015180516114419160038401916020909101906116bd565b506080820151805161145d9160048401916020909101906116bd565b5060a082015180516114799160058401916020909101906116bd565b5060c0820151816006015560e08201518160070160006101000a81548160ff02191690831515021790555061010082015181600801556101208201518160090160006101000a8154816001600160a01b0302191690836001600160a01b0316021790555061014082015181600a015561016082015181600b015561018082015181600c01559050507f6f149b718bdd8c3f234647a776a0d97ceb40f4268ef95d17caab66f246c1288a8c338d8c8e8d8d60008e8e8e8e8e8e60405161154b9e9d9c9b9a99989796959493929190611b82565b60405180910390a1505050505050505050505050565b60008281526004602090815260409091208251611580928401906116bd565b507f514efc4dbca754e32bfeb5dcb0c2d277953187ffd3b3eae36f7f9b5202e6f8ff82826040516115b2929190611c57565b60405180910390a15050565b600080546001600160a01b038381166101008181027fffffffffffffffffffffff0000000000000000000000000000000000000000ff851617855560405193049190911692909183917f8be0079c531659141344cd1fd0a4f28419497f9722a3daafe3b4186f6b6457e091a35050565b61163661124d565b6000805460ff191660011790557f62e78cea01bee320cd4e420270b5ea74000d11b0c9f74754ebdbfc544b05a2586113353390565b60005460ff16610c8a5760405162461bcd60e51b815260206004820152601460248201527f5061757361626c653a206e6f7420706175736564000000000000000000000000604482015260640161084c565b8280546116c990611ae6565b90600052602060002090601f0160209004810192826116eb5760008555611731565b82601f1061170457805160ff1916838001178555611731565b82800160010185558215611731579182015b82811115611731578251825591602001919060010190611716565b5061173d929150611741565b5090565b5b8082111561173d5760008155600101611742565b60006020828403121561176857600080fd5b5035919050565b6000815180845260005b8181101561179557602081850181015186830182015201611779565b818111156117a7576000602083870101525b50601f01601f19169290920160200192915050565b6020815281516020820152600060208301516117e360408401826001600160a01b03169052565b5060408301516101a08060608501526118006101c085018361176f565b91506060850151601f198086850301608087015261181e848361176f565b935060808701519150808685030160a087015261183b848361176f565b935060a08701519150808685030160c087015250611859838261176f565b92505060c085015160e085015260e085015161010061187b8187018315159052565b8601516101208681019190915286015190506101406118a4818701836001600160a01b03169052565b86015161016086810191909152860151610180808701919091529095015193019290925250919050565b6020815260006118e1602083018461176f565b9392505050565b634e487b7160e01b600052604160045260246000fd5b600082601f83011261190f57600080fd5b813567ffffffffffffffff8082111561192a5761192a6118e8565b604051601f8301601f19908116603f01168101908282118183101715611952576119526118e8565b8160405283815286602085880101111561196b57600080fd5b836020870160208301376000602085830101528094505050505092915050565b6001600160a01b038116811461124a57600080fd5b80356119ab8161198b565b919050565b60008060008060008060008060008060006101608c8e0312156119d257600080fd5b67ffffffffffffffff808d3511156119e957600080fd5b6119f68e8e358f016118fe565b9b508060208e01351115611a0957600080fd5b611a198e60208f01358f016118fe565b9a508060408e01351115611a2c57600080fd5b611a3c8e60408f01358f016118fe565b99508060608e01351115611a4f57600080fd5b611a5f8e60608f01358f016118fe565b98508060808e01351115611a7257600080fd5b50611a838d60808e01358e016118fe565b965060a08c01359550611a9860c08d016119a0565b945060e08c013593506101008c013592506101208c013591506101408c013590509295989b509295989b9093969950565b600060208284031215611adb57600080fd5b81356118e18161198b565b600181811c90821680611afa57607f821691505b602082108103611b1a57634e487b7160e01b600052602260045260246000fd5b50919050565b600060608284031215611b3257600080fd5b6040516060810181811067ffffffffffffffff82111715611b5557611b556118e8565b604052825181526020830151611b6a8161198b565b60208201526040928301519281019290925250919050565b8e81526001600160a01b038e1660208201526101c060408201526000611bac6101c083018f61176f565b8281036060840152611bbe818f61176f565b90508281036080840152611bd2818e61176f565b905082810360a0840152611be6818d61176f565b905082810360c0840152611bfa818c61176f565b915050611c0b60e083018a15159052565b87610100830152611c286101208301886001600160a01b03169052565b856101408301528461016083015283610180830152826101a08301529f9e505050505050505050505050505050565b828152604060208201526000611c70604083018461176f565b94935050505056fea2646970667358221220591194214ab85101619033ab67ac99cefa19421d46e3482d0569dc78983ea00364736f6c634300080e0033",
  "linkReferences": {},
  "deployedLinkReferences": {}
}