{
  "_format": "hh-sol-artifact-1",
  "contractName": "HypePool",
  "sourceName": "contracts/HypePool.sol",
  "abi": [
    {
      "inputs": [
        {
          "internalType": "address",
          "name": "escrowContractAddress",
          "type": "address"
        },
        {
          "internalType": "address",
          "name": "activator",
          "type": "address"
        }
      ],
      "stateMutability": "nonpayable",
      "type": "constructor"
    },
    {
      "anonymous": false,
      "inputs": [
        {
          "indexed": true,
          "internalType": "address",
          "name": "previousOwner",
          "type": "address"
        },
        {
          "indexed": true,
          "internalType": "address",
          "name": "newOwner",
          "type": "address"
        }
      ],
      "name": "OwnershipTransferred",
      "type": "event"
    },
    {
      "anonymous": false,
      "inputs": [
        {
          "indexed": false,
          "internalType": "address",
          "name": "account",
          "type": "address"
        }
      ],
      "name": "Paused",
      "type": "event"
    },
    {
      "anonymous": false,
      "inputs": [
        {
          "indexed": false,
          "internalType": "bytes32",
          "name": "poolId",
          "type": "bytes32"
        },
        {
          "indexed": false,
          "internalType": "address",
          "name": "activator",
          "type": "address"
        },
        {
          "indexed": false,
          "internalType": "uint256",
          "name": "startDate",
          "type": "uint256"
        },
        {
          "indexed": false,
          "internalType": "uint256",
          "name": "endDate",
          "type": "uint256"
        }
      ],
      "name": "PoolActivated",
      "type": "event"
    },
    {
      "anonymous": false,
      "inputs": [
        {
          "indexed": false,
          "internalType": "bytes32",
          "name": "poolId",
          "type": "bytes32"
        },
        {
          "indexed": false,
          "internalType": "address",
          "name": "creator",
          "type": "address"
        },
        {
          "indexed": false,
          "internalType": "string",
          "name": "uri",
          "type": "string"
        }
      ],
      "name": "PoolCreated",
      "type": "event"
    },
    {
      "anonymous": false,
      "inputs": [
        {
          "indexed": false,
          "internalType": "bytes32",
          "name": "poolId",
          "type": "bytes32"
        },
        {
          "indexed": false,
          "internalType": "address",
          "name": "deactivator",
          "type": "address"
        }
      ],
      "name": "PoolDeactivated",
      "type": "event"
    },
    {
      "anonymous": false,
      "inputs": [
        {
          "indexed": false,
          "internalType": "bytes32",
          "name": "poolId",
          "type": "bytes32"
        },
        {
          "indexed": false,
          "internalType": "string",
          "name": "title",
          "type": "string"
        },
        {
          "indexed": false,
          "internalType": "string",
          "name": "projectName",
          "type": "string"
        },
        {
          "indexed": false,
          "internalType": "string",
          "name": "tokenName",
          "type": "string"
        },
        {
          "indexed": false,
          "internalType": "string",
          "name": "word",
          "type": "string"
        }
      ],
      "name": "PoolDetailsCreated",
      "type": "event"
    },
    {
      "anonymous": false,
      "inputs": [
        {
          "indexed": false,
          "internalType": "bytes32",
          "name": "poolId",
          "type": "bytes32"
        },
        {
          "indexed": false,
          "internalType": "uint256",
          "name": "network",
          "type": "uint256"
        },
        {
          "indexed": false,
          "internalType": "address",
          "name": "tokenAddress",
          "type": "address"
        },
        {
          "indexed": false,
          "internalType": "uint256",
          "name": "impressionReward",
          "type": "uint256"
        },
        {
          "indexed": false,
          "internalType": "uint256",
          "name": "cap",
          "type": "uint256"
        },
        {
          "indexed": false,
          "internalType": "uint256",
          "name": "startDate",
          "type": "uint256"
        },
        {
          "indexed": false,
          "internalType": "uint256",
          "name": "endDate",
          "type": "uint256"
        },
        {
          "indexed": false,
          "internalType": "uint256",
          "name": "duration",
          "type": "uint256"
        }
      ],
      "name": "PoolRewardsCreated",
      "type": "event"
    },
    {
      "anonymous": false,
      "inputs": [
        {
          "indexed": false,
          "internalType": "bytes32",
          "name": "poolId",
          "type": "bytes32"
        },
        {
          "indexed": false,
          "internalType": "string",
          "name": "uri",
          "type": "string"
        }
      ],
      "name": "PoolUriSet",
      "type": "event"
    },
    {
      "anonymous": false,
      "inputs": [
        {
          "indexed": true,
          "internalType": "bytes32",
          "name": "role",
          "type": "bytes32"
        },
        {
          "indexed": true,
          "internalType": "address",
          "name": "account",
          "type": "address"
        }
      ],
      "name": "RoleGranted",
      "type": "event"
    },
    {
      "anonymous": false,
      "inputs": [
        {
          "indexed": true,
          "internalType": "bytes32",
          "name": "role",
          "type": "bytes32"
        },
        {
          "indexed": true,
          "internalType": "address",
          "name": "account",
          "type": "address"
        }
      ],
      "name": "RoleRevoked",
      "type": "event"
    },
    {
      "anonymous": false,
      "inputs": [
        {
          "indexed": false,
          "internalType": "address",
          "name": "account",
          "type": "address"
        }
      ],
      "name": "Unpaused",
      "type": "event"
    },
    {
      "inputs": [],
      "name": "ACTIVATOR_ROLE",
      "outputs": [
        {
          "internalType": "bytes32",
          "name": "",
          "type": "bytes32"
        }
      ],
      "stateMutability": "view",
      "type": "function"
    },
    {
      "inputs": [
        {
          "internalType": "bytes32",
          "name": "uuid",
          "type": "bytes32"
        }
      ],
      "name": "activatePool",
      "outputs": [],
      "stateMutability": "nonpayable",
      "type": "function"
    },
    {
      "inputs": [
        {
          "internalType": "bytes32",
          "name": "role",
          "type": "bytes32"
        },
        {
          "internalType": "address",
          "name": "account",
          "type": "address"
        }
      ],
      "name": "addRole",
      "outputs": [],
      "stateMutability": "nonpayable",
      "type": "function"
    },
    {
      "inputs": [
        {
          "internalType": "string",
          "name": "uri",
          "type": "string"
        },
        {
          "components": [
            {
              "internalType": "string",
              "name": "title",
              "type": "string"
            },
            {
              "internalType": "string",
              "name": "projectName",
              "type": "string"
            },
            {
              "internalType": "string",
              "name": "tokenName",
              "type": "string"
            },
            {
              "internalType": "string",
              "name": "word",
              "type": "string"
            }
          ],
          "internalType": "struct IHypePool.Details",
          "name": "details",
          "type": "tuple"
        },
        {
          "components": [
            {
              "internalType": "uint256",
              "name": "network",
              "type": "uint256"
            },
            {
              "internalType": "address",
              "name": "tokenAddress",
              "type": "address"
            },
            {
              "internalType": "uint256",
              "name": "impressionReward",
              "type": "uint256"
            },
            {
              "internalType": "uint256",
              "name": "cap",
              "type": "uint256"
            },
            {
              "internalType": "uint256",
              "name": "startDate",
              "type": "uint256"
            },
            {
              "internalType": "uint256",
              "name": "endDate",
              "type": "uint256"
            },
            {
              "internalType": "uint256",
              "name": "duration",
              "type": "uint256"
            }
          ],
          "internalType": "struct IHypePool.Rewards",
          "name": "rewards",
          "type": "tuple"
        }
      ],
      "name": "createPool",
      "outputs": [
        {
          "components": [
            {
              "internalType": "bytes32",
              "name": "id",
              "type": "bytes32"
            },
            {
              "internalType": "address",
              "name": "creator",
              "type": "address"
            },
            {
              "internalType": "bool",
              "name": "active",
              "type": "bool"
            },
            {
              "components": [
                {
                  "internalType": "string",
                  "name": "title",
                  "type": "string"
                },
                {
                  "internalType": "string",
                  "name": "projectName",
                  "type": "string"
                },
                {
                  "internalType": "string",
                  "name": "tokenName",
                  "type": "string"
                },
                {
                  "internalType": "string",
                  "name": "word",
                  "type": "string"
                }
              ],
              "internalType": "struct IHypePool.Details",
              "name": "details",
              "type": "tuple"
            },
            {
              "components": [
                {
                  "internalType": "uint256",
                  "name": "network",
                  "type": "uint256"
                },
                {
                  "internalType": "address",
                  "name": "tokenAddress",
                  "type": "address"
                },
                {
                  "internalType": "uint256",
                  "name": "impressionReward",
                  "type": "uint256"
                },
                {
                  "internalType": "uint256",
                  "name": "cap",
                  "type": "uint256"
                },
                {
                  "internalType": "uint256",
                  "name": "startDate",
                  "type": "uint256"
                },
                {
                  "internalType": "uint256",
                  "name": "endDate",
                  "type": "uint256"
                },
                {
                  "internalType": "uint256",
                  "name": "duration",
                  "type": "uint256"
                }
              ],
              "internalType": "struct IHypePool.Rewards",
              "name": "rewards",
              "type": "tuple"
            }
          ],
          "internalType": "struct IHypePool.HypePool",
          "name": "",
          "type": "tuple"
        }
      ],
      "stateMutability": "nonpayable",
      "type": "function"
    },
    {
      "inputs": [
        {
          "internalType": "bytes32",
          "name": "uuid",
          "type": "bytes32"
        }
      ],
      "name": "deactivatePool",
      "outputs": [],
      "stateMutability": "nonpayable",
      "type": "function"
    },
    {
      "inputs": [],
      "name": "getCurrentIndex",
      "outputs": [
        {
          "internalType": "bytes32",
          "name": "",
          "type": "bytes32"
        }
      ],
      "stateMutability": "view",
      "type": "function"
    },
    {
      "inputs": [
        {
          "internalType": "bytes32",
          "name": "uuid",
          "type": "bytes32"
        }
      ],
      "name": "getPool",
      "outputs": [
        {
          "components": [
            {
              "internalType": "bytes32",
              "name": "id",
              "type": "bytes32"
            },
            {
              "internalType": "address",
              "name": "creator",
              "type": "address"
            },
            {
              "internalType": "bool",
              "name": "active",
              "type": "bool"
            },
            {
              "components": [
                {
                  "internalType": "string",
                  "name": "title",
                  "type": "string"
                },
                {
                  "internalType": "string",
                  "name": "projectName",
                  "type": "string"
                },
                {
                  "internalType": "string",
                  "name": "tokenName",
                  "type": "string"
                },
                {
                  "internalType": "string",
                  "name": "word",
                  "type": "string"
                }
              ],
              "internalType": "struct IHypePool.Details",
              "name": "details",
              "type": "tuple"
            },
            {
              "components": [
                {
                  "internalType": "uint256",
                  "name": "network",
                  "type": "uint256"
                },
                {
                  "internalType": "address",
                  "name": "tokenAddress",
                  "type": "address"
                },
                {
                  "internalType": "uint256",
                  "name": "impressionReward",
                  "type": "uint256"
                },
                {
                  "internalType": "uint256",
                  "name": "cap",
                  "type": "uint256"
                },
                {
                  "internalType": "uint256",
                  "name": "startDate",
                  "type": "uint256"
                },
                {
                  "internalType": "uint256",
                  "name": "endDate",
                  "type": "uint256"
                },
                {
                  "internalType": "uint256",
                  "name": "duration",
                  "type": "uint256"
                }
              ],
              "internalType": "struct IHypePool.Rewards",
              "name": "rewards",
              "type": "tuple"
            }
          ],
          "internalType": "struct IHypePool.HypePool",
          "name": "",
          "type": "tuple"
        }
      ],
      "stateMutability": "view",
      "type": "function"
    },
    {
      "inputs": [
        {
          "internalType": "bytes32",
          "name": "uuid",
          "type": "bytes32"
        }
      ],
      "name": "getPoolRewards",
      "outputs": [
        {
          "components": [
            {
              "internalType": "uint256",
              "name": "network",
              "type": "uint256"
            },
            {
              "internalType": "address",
              "name": "tokenAddress",
              "type": "address"
            },
            {
              "internalType": "uint256",
              "name": "impressionReward",
              "type": "uint256"
            },
            {
              "internalType": "uint256",
              "name": "cap",
              "type": "uint256"
            },
            {
              "internalType": "uint256",
              "name": "startDate",
              "type": "uint256"
            },
            {
              "internalType": "uint256",
              "name": "endDate",
              "type": "uint256"
            },
            {
              "internalType": "uint256",
              "name": "duration",
              "type": "uint256"
            }
          ],
          "internalType": "struct IHypePool.Rewards",
          "name": "",
          "type": "tuple"
        }
      ],
      "stateMutability": "view",
      "type": "function"
    },
    {
      "inputs": [
        {
          "internalType": "bytes32",
          "name": "role",
          "type": "bytes32"
        },
        {
          "internalType": "address",
          "name": "account",
          "type": "address"
        }
      ],
      "name": "hasRole",
      "outputs": [
        {
          "internalType": "bool",
          "name": "",
          "type": "bool"
        }
      ],
      "stateMutability": "view",
      "type": "function"
    },
    {
      "inputs": [],
      "name": "owner",
      "outputs": [
        {
          "internalType": "address",
          "name": "",
          "type": "address"
        }
      ],
      "stateMutability": "view",
      "type": "function"
    },
    {
      "inputs": [],
      "name": "pause",
      "outputs": [],
      "stateMutability": "nonpayable",
      "type": "function"
    },
    {
      "inputs": [],
      "name": "paused",
      "outputs": [
        {
          "internalType": "bool",
          "name": "",
          "type": "bool"
        }
      ],
      "stateMutability": "view",
      "type": "function"
    },
    {
      "inputs": [
        {
          "internalType": "bytes32",
          "name": "uuid",
          "type": "bytes32"
        }
      ],
      "name": "poolURI",
      "outputs": [
        {
          "internalType": "string",
          "name": "",
          "type": "string"
        }
      ],
      "stateMutability": "view",
      "type": "function"
    },
    {
      "inputs": [],
      "name": "renounceOwnership",
      "outputs": [],
      "stateMutability": "nonpayable",
      "type": "function"
    },
    {
      "inputs": [
        {
          "internalType": "bytes32",
          "name": "role",
          "type": "bytes32"
        },
        {
          "internalType": "address",
          "name": "account",
          "type": "address"
        }
      ],
      "name": "revokeRole",
      "outputs": [],
      "stateMutability": "nonpayable",
      "type": "function"
    },
    {
      "inputs": [
        {
          "internalType": "address",
          "name": "newOwner",
          "type": "address"
        }
      ],
      "name": "transferOwnership",
      "outputs": [],
      "stateMutability": "nonpayable",
      "type": "function"
    },
    {
      "inputs": [],
      "name": "unpause",
      "outputs": [],
      "stateMutability": "nonpayable",
      "type": "function"
    }
  ],
  "bytecode": "0x60806040523480156200001157600080fd5b5060405162002d0f38038062002d0f8339810160408190526200003491620002f0565b6007805460ff1916905562000049336200005d565b620000558282620000b7565b505062000328565b600780546001600160a01b03838116610100818102610100600160a81b031985161790945560405193909204169182907f8be0079c531659141344cd1fd0a4f28419497f9722a3daafe3b4186f6b6457e090600090a35050565b6001600160a01b0382166200012a5760405162461bcd60e51b815260206004820152602e60248201527f457363726f7720636f6e747261637420616464726573732063616e6e6f74206260448201526d65207a65726f206164647265737360901b60648201526084015b60405180910390fd5b6001600160a01b038116620001935760405162461bcd60e51b815260206004820152602860248201527f416374697661746f7220616464726573732063616e6e6f74206265207a65726f604482015267206164647265737360c01b606482015260840162000121565b600280546001600160a01b0319166001600160a01b038416179055620001e67fec5aad7bdface20c35bc02d6d2d5760df981277427368525d634f4e2603ea1928262000209602090811b6200048617901c565b600180546001600160a01b0319166001600160a01b039290921691909117905550565b6001600160a01b0381166200027a5760405162461bcd60e51b815260206004820152603060248201527f416363657373436f6e74726f6c3a2063616e6e6f74206772616e7420726f6c6560448201526f20746f207a65726f206164647265737360801b606482015260840162000121565b6000828152602081815260408083206001600160a01b0385168085529252808320805460ff1916600117905551909184917f2ae6a113c0ed5b78a53413ffbb7679881f11145ccfba4fb92e863dfcd5a1d2f39190a35050565b80516001600160a01b0381168114620002eb57600080fd5b919050565b600080604083850312156200030457600080fd5b6200030f83620002d3565b91506200031f60208401620002d3565b90509250929050565b6129d780620003386000396000f3fe608060405234801561001057600080fd5b506004361061011b5760003560e01c80638456cb59116100b2578063d9d9785911610081578063f2fde38b11610066578063f2fde38b1461025b578063f6c009271461026e578063f8607fb11461028157600080fd5b8063d9d9785914610235578063e959b38a1461024857600080fd5b80638456cb59146101de5780638da5cb5b146101e657806391d148541461020f578063d547741f1461022257600080fd5b80635c975abb116100ee5780635c975abb1461018c578063715018a6146101a357806373dfe0da146101ab57806377108fcc146101be57600080fd5b806308740a3b146101205780630d9005ae1461015a57806324bc5972146101625780633f4ba83a14610182575b600080fd5b6101477fec5aad7bdface20c35bc02d6d2d5760df981277427368525d634f4e2603ea19281565b6040519081526020015b60405180910390f35b600654610147565b61017561017036600461225b565b6102a1565b6040516101519190612274565b61018a610300565b005b60075460ff165b6040519015158152602001610151565b61018a610312565b61018a6101b936600461225b565b610324565b6101d16101cc366004612438565b610338565b6040516101519190612590565b61018a61035b565b60075461010090046001600160a01b03166040516001600160a01b039091168152602001610151565b61019361021d3660046126a4565b61036b565b61018a6102303660046126a4565b610396565b61018a61024336600461225b565b61046d565b61018a6102563660046126a4565b610486565b61018a6102693660046126d4565b61055b565b6101d161027c36600461225b565b6105e8565b61029461028f36600461225b565b6108fc565b60405161015191906126f8565b6102ea6040518060e001604052806000815260200160006001600160a01b0316815260200160008152602001600081526020016000815260200160008152602001600081525090565b60006102f5836105e8565b608001519392505050565b61030861099e565b6103106109fe565b565b61031a61099e565b6103106000610a50565b61032c610ac1565b61033581610b14565b50565b6103406121af565b610348610ac1565b6103538484846112b3565b949350505050565b61036361099e565b610310611863565b6000828152602081815260408083206001600160a01b038516845290915290205460ff165b92915050565b6001600160a01b0381166104175760405162461bcd60e51b815260206004820152603360248201527f416363657373436f6e74726f6c3a2063616e6e6f74207265766f6b6520726f6c60448201527f652066726f6d207a65726f20616464726573730000000000000000000000000060648201526084015b60405180910390fd5b6000828152602081815260408083206001600160a01b0385168085529252808320805460ff1916905551909184917f155aaafb6329a2098580462df33ec4b7441b19729b9601c5fc17ae1cf99a8a529190a35050565b610475610ac1565b61047d61099e565b610335816118a0565b6001600160a01b0381166105025760405162461bcd60e51b815260206004820152603060248201527f416363657373436f6e74726f6c3a2063616e6e6f74206772616e7420726f6c6560448201527f20746f207a65726f206164647265737300000000000000000000000000000000606482015260840161040e565b6000828152602081815260408083206001600160a01b0385168085529252808320805460ff1916600117905551909184917f2ae6a113c0ed5b78a53413ffbb7679881f11145ccfba4fb92e863dfcd5a1d2f39190a35050565b61056361099e565b6001600160a01b0381166105df5760405162461bcd60e51b815260206004820152602660248201527f4f776e61626c653a206e6577206f776e657220697320746865207a65726f206160448201527f6464726573730000000000000000000000000000000000000000000000000000606482015260840161040e565b61033581610a50565b6105f06121af565b600082815260036020908152604091829020825160a0810184528154815260018201546001600160a01b03811693820193909352600160a01b90920460ff1615158284015282516080810190935260028101805492939192606085019291908290829061065c9061270b565b80601f01602080910402602001604051908101604052809291908181526020018280546106889061270b565b80156106d55780601f106106aa576101008083540402835291602001916106d5565b820191906000526020600020905b8154815290600101906020018083116106b857829003601f168201915b505050505081526020016001820180546106ee9061270b565b80601f016020809104026020016040519081016040528092919081815260200182805461071a9061270b565b80156107675780601f1061073c57610100808354040283529160200191610767565b820191906000526020600020905b81548152906001019060200180831161074a57829003601f168201915b505050505081526020016002820180546107809061270b565b80601f01602080910402602001604051908101604052809291908181526020018280546107ac9061270b565b80156107f95780601f106107ce576101008083540402835291602001916107f9565b820191906000526020600020905b8154815290600101906020018083116107dc57829003601f168201915b505050505081526020016003820180546108129061270b565b80601f016020809104026020016040519081016040528092919081815260200182805461083e9061270b565b801561088b5780601f106108605761010080835404028352916020019161088b565b820191906000526020600020905b81548152906001019060200180831161086e57829003601f168201915b5050509190925250505081526040805160e0810182526006840154815260078401546001600160a01b031660208281019190915260088501549282019290925260098401546060820152600a8401546080820152600b84015460a0820152600c9093015460c0840152015292915050565b60008181526004602052604090208054606091906109199061270b565b80601f01602080910402602001604051908101604052809291908181526020018280546109459061270b565b80156109925780601f1061096757610100808354040283529160200191610992565b820191906000526020600020905b81548152906001019060200180831161097557829003601f168201915b50505050509050919050565b6007546001600160a01b036101009091041633146103105760405162461bcd60e51b815260206004820181905260248201527f4f776e61626c653a2063616c6c6572206973206e6f7420746865206f776e6572604482015260640161040e565b610a06611de4565b6007805460ff191690557f5db9ee0a495bf2e6ff9c91a7834c1ba4fdd244a5e8aa4e537bd38aeae4b073aa335b6040516001600160a01b03909116815260200160405180910390a1565b600780546001600160a01b038381166101008181027fffffffffffffffffffffff0000000000000000000000000000000000000000ff85161790945560405193909204169182907f8be0079c531659141344cd1fd0a4f28419497f9722a3daafe3b4186f6b6457e090600090a35050565b60075460ff16156103105760405162461bcd60e51b815260206004820152601060248201527f5061757361626c653a2070617573656400000000000000000000000000000000604482015260640161040e565b6000818152600360209081526040808320815160a0810183528154815260018201546001600160a01b03811694820194909452600160a01b90930460ff161515838301528151608081019092526002810180549192606085019290919082908290610b7e9061270b565b80601f0160208091040260200160405190810160405280929190818152602001828054610baa9061270b565b8015610bf75780601f10610bcc57610100808354040283529160200191610bf7565b820191906000526020600020905b815481529060010190602001808311610bda57829003601f168201915b50505050508152602001600182018054610c109061270b565b80601f0160208091040260200160405190810160405280929190818152602001828054610c3c9061270b565b8015610c895780601f10610c5e57610100808354040283529160200191610c89565b820191906000526020600020905b815481529060010190602001808311610c6c57829003601f168201915b50505050508152602001600282018054610ca29061270b565b80601f0160208091040260200160405190810160405280929190818152602001828054610cce9061270b565b8015610d1b5780601f10610cf057610100808354040283529160200191610d1b565b820191906000526020600020905b815481529060010190602001808311610cfe57829003601f168201915b50505050508152602001600382018054610d349061270b565b80601f0160208091040260200160405190810160405280929190818152602001828054610d609061270b565b8015610dad5780601f10610d8257610100808354040283529160200191610dad565b820191906000526020600020905b815481529060010190602001808311610d9057829003601f168201915b5050509190925250505081526040805160e0810182526006840154815260078401546001600160a01b031660208281019190915260088501548284015260098501546060830152600a850154608080840191909152600b86015460a0840152600c9095015460c083015290920191909152908201510151909150600003610e765760405162461bcd60e51b815260206004820152601260248201527f506f6f6c20646f65736e27742065786973740000000000000000000000000000604482015260640161040e565b60008281526005602052604090205460ff16610ed45760405162461bcd60e51b815260206004820152601360248201527f506f6f6c20646f6573206e6f7420657869737400000000000000000000000000604482015260640161040e565b604081015115610f265760405162461bcd60e51b815260206004820152601660248201527f506f6f6c20697320616c72656164792061637469766500000000000000000000604482015260640161040e565b6000610f527fec5aad7bdface20c35bc02d6d2d5760df981277427368525d634f4e2603ea1923361036b565b905080611101576002546040517f1aa9e742000000000000000000000000000000000000000000000000000000008152336004820152602481018590526001600160a01b03909116906000908290631aa9e74290604401606060405180830381865afa158015610fc6573d6000803e3d6000fd5b505050506040513d601f19601f82011682018060405250810190610fea9190612745565b60808501516060015181519192501461106b5760405162461bcd60e51b815260206004820152602860248201527f4465706f736974656420616d6f756e7420646f6573206e6f74206d617463682060448201527f706f6f6c20636170000000000000000000000000000000000000000000000000606482015260840161040e565b8360800151602001516001600160a01b031681602001516001600160a01b0316146110fe5760405162461bcd60e51b815260206004820152603960248201527f4465706f736974656420746f6b656e206164647265737320646f6573206e6f7460448201527f206d6174636820706f6f6c20746f6b656e206164647265737300000000000000606482015260840161040e565b50505b60016040830152608080830180514292018290525160c00151611123916127bd565b608083015160a001526000838152600360209081526040918290208451815590840151600182018054938601511515600160a01b0274ffffffffffffffffffffffffffffffffffffffffff199094166001600160a01b0390921691909117929092179091556060830151805184929190600283019081906111a4908261281f565b50602082015160018201906111b9908261281f565b50604082015160028201906111ce908261281f565b50606082015160038201906111e3908261281f565b5050506080918201518051600683015560208082015160078401805473ffffffffffffffffffffffffffffffffffffffff19166001600160a01b039092169190911790556040808301516008850155606080840151600986015583860151600a86015560a080850151600b87015560c090940151600c9095019490945586850151808601519301518151898152339381019390935290820192909252918201527ff1e6981b3d18841dad1ef7f8db1d40663aaa4b8cd2022e5349498c4d406d00df910160405180910390a1505050565b6112bb6121af565b600084511161130c5760405162461bcd60e51b815260206004820152601460248201527f4d697373696e67206d6574616461746120555249000000000000000000000000604482015260640161040e565b60008260600151116113605760405162461bcd60e51b815260206004820152601060248201527f496e76616c696420706f6f6c2063617000000000000000000000000000000000604482015260640161040e565b60008260c00151116113da5760405162461bcd60e51b815260206004820152602160248201527f4475726174696f6e206d757374206265206174206c65617374206f6e6520646160448201527f7900000000000000000000000000000000000000000000000000000000000000606482015260840161040e565b60808201511561142c5760405162461bcd60e51b815260206004820152601760248201527f53746172742064617465206d757374206265207a65726f000000000000000000604482015260640161040e565b60a08201511561147e5760405162461bcd60e51b815260206004820152601560248201527f456e642064617465206d757374206265207a65726f0000000000000000000000604482015260640161040e565b60008260400151116114d25760405162461bcd60e51b815260206004820152601e60248201527f496e76616c696420696d7072657373696f6e2068797065207265776172640000604482015260640161040e565b60006114dc611e36565b60008181526005602052604090205490915060ff161561153e5760405162461bcd60e51b815260206004820152601360248201527f5575696420616c72656164792065786973747300000000000000000000000000604482015260640161040e565b61154a81868686611ed3565b6115548186612096565b600081815260036020908152604091829020825160a0810184528154815260018201546001600160a01b03811693820193909352600160a01b90920460ff161515828401528251608081019093526002810180549293919260608501929190829082906115c09061270b565b80601f01602080910402602001604051908101604052809291908181526020018280546115ec9061270b565b80156116395780601f1061160e57610100808354040283529160200191611639565b820191906000526020600020905b81548152906001019060200180831161161c57829003601f168201915b505050505081526020016001820180546116529061270b565b80601f016020809104026020016040519081016040528092919081815260200182805461167e9061270b565b80156116cb5780601f106116a0576101008083540402835291602001916116cb565b820191906000526020600020905b8154815290600101906020018083116116ae57829003601f168201915b505050505081526020016002820180546116e49061270b565b80601f01602080910402602001604051908101604052809291908181526020018280546117109061270b565b801561175d5780601f106117325761010080835404028352916020019161175d565b820191906000526020600020905b81548152906001019060200180831161174057829003601f168201915b505050505081526020016003820180546117769061270b565b80601f01602080910402602001604051908101604052809291908181526020018280546117a29061270b565b80156117ef5780601f106117c4576101008083540402835291602001916117ef565b820191906000526020600020905b8154815290600101906020018083116117d257829003601f168201915b5050509190925250505081526040805160e0810182526006840154815260078401546001600160a01b031660208083019190915260088501549282019290925260098401546060820152600a8401546080820152600b84015460a0820152600c9093015460c0840152015295945050505050565b61186b610ac1565b6007805460ff191660011790557f62e78cea01bee320cd4e420270b5ea74000d11b0c9f74754ebdbfc544b05a258610a333390565b6000818152600360209081526040808320815160a0810183528154815260018201546001600160a01b03811694820194909452600160a01b90930460ff16151583830152815160808101909252600281018054919260608501929091908290829061190a9061270b565b80601f01602080910402602001604051908101604052809291908181526020018280546119369061270b565b80156119835780601f1061195857610100808354040283529160200191611983565b820191906000526020600020905b81548152906001019060200180831161196657829003601f168201915b5050505050815260200160018201805461199c9061270b565b80601f01602080910402602001604051908101604052809291908181526020018280546119c89061270b565b8015611a155780601f106119ea57610100808354040283529160200191611a15565b820191906000526020600020905b8154815290600101906020018083116119f857829003601f168201915b50505050508152602001600282018054611a2e9061270b565b80601f0160208091040260200160405190810160405280929190818152602001828054611a5a9061270b565b8015611aa75780601f10611a7c57610100808354040283529160200191611aa7565b820191906000526020600020905b815481529060010190602001808311611a8a57829003601f168201915b50505050508152602001600382018054611ac09061270b565b80601f0160208091040260200160405190810160405280929190818152602001828054611aec9061270b565b8015611b395780601f10611b0e57610100808354040283529160200191611b39565b820191906000526020600020905b815481529060010190602001808311611b1c57829003601f168201915b5050509190925250505081526040805160e0810182526006840154815260078401546001600160a01b031660208281019190915260088501548284015260098501546060830152600a850154608080840191909152600b86015460a0840152600c9095015460c083015290920191909152908201510151909150600003611c025760405162461bcd60e51b815260206004820152601260248201527f506f6f6c20646f65736e27742065786973740000000000000000000000000000604482015260640161040e565b60408101511515600114611c585760405162461bcd60e51b815260206004820152601860248201527f506f6f6c20697320616c726561647920696e6163746976650000000000000000604482015260640161040e565b6000604080830182815260808401514260a0909101528483526003602090815291909220835181559083015160018201805493511515600160a01b0274ffffffffffffffffffffffffffffffffffffffffff199094166001600160a01b039092169190911792909217909155606082015180518392919060028301908190611ce0908261281f565b5060208201516001820190611cf5908261281f565b5060408201516002820190611d0a908261281f565b5060608201516003820190611d1f908261281f565b5050506080918201518051600683015560208101516007830180546001600160a01b0390921673ffffffffffffffffffffffffffffffffffffffff1990921691909117905560408082015160088401556060820151600984015592810151600a83015560a0810151600b83015560c00151600c90910155517f0522afc663a576de692143f1e714306778ade438ea7c739c3a3964bd78eb2cc690611dd890849033909182526001600160a01b0316602082015260400190565b60405180910390a15050565b60075460ff166103105760405162461bcd60e51b815260206004820152601460248201527f5061757361626c653a206e6f7420706175736564000000000000000000000000604482015260640161040e565b60408051436020820181905242928201839052600060608301819052929091839081906080016040516020818303038152906040528051906020012090505b60008181526005602052604090205460ff16156103535781611e96816128df565b6040805160208101889052908101869052606081018290529093506080019050604051602081830303815290604052805190602001209050611e75565b6040805160a081018252858152336020808301918252600083850181815260608501888152608086018890528a8352600390935294902083518155915160018301805495511515600160a01b0274ffffffffffffffffffffffffffffffffffffffffff199096166001600160a01b039290921691909117949094179093559151805191929160028301908190611f69908261281f565b5060208201516001820190611f7e908261281f565b5060408201516002820190611f93908261281f565b5060608201516003820190611fa8908261281f565b505050608091820151805160068381019190915560208083015160078501805473ffffffffffffffffffffffffffffffffffffffff19166001600160a01b0390921691909117905560408084015160088601556060840151600986015594830151600a85015560a0830151600b85015560c090920151600c9093019290925560008781526005909152829020805460ff19166001179055859055517f3a21eb0a9afc1353da741f39aaea48014c074c6720b61baf41e1e18d6ae7b2fb90612074908690339087906128f8565b60405180910390a161208684836120e0565b6120908482612127565b50505050565b60008281526004602052604090206120ae828261281f565b507fa9397f16db6e1e1b43c1c813233f16139006d56a3d1a24412ebdfb0661b5bfff8282604051611dd8929190612929565b7f764b3686bd9a8c04d487da87edb364f64d505149c22a8b2664d353539ecf6a33828260000151836020015184604001518560600151604051611dd8959493929190612942565b805160208083015160408085015160608087015160808089015160a0808b015160c0808d015189518f81529b8c019c909c526001600160a01b03909916978a0197909752938801949094528601528401529082015260e08101919091527fd3c186ca228d0fefdb5e931894eda7415bb30b75f95c5b4f41deee5da40f18d29061010001611dd8565b6040518060a001604052806000801916815260200160006001600160a01b031681526020016000151581526020016122086040518060800160405280606081526020016060815260200160608152602001606081525090565b81526020016122566040518060e001604052806000815260200160006001600160a01b0316815260200160008152602001600081526020016000815260200160008152602001600081525090565b905290565b60006020828403121561226d57600080fd5b5035919050565b60e081016103908284805182526001600160a01b03602082015116602083015260408101516040830152606081015160608301526080810151608083015260a081015160a083015260c081015160c08301525050565b634e487b7160e01b600052604160045260246000fd5b6040516080810167ffffffffffffffff81118282101715612303576123036122ca565b60405290565b600082601f83011261231a57600080fd5b813567ffffffffffffffff80821115612335576123356122ca565b604051601f8301601f19908116603f0116810190828211818310171561235d5761235d6122ca565b8160405283815286602085880101111561237657600080fd5b836020870160208301376000602085830101528094505050505092915050565b6001600160a01b038116811461033557600080fd5b600060e082840312156123bd57600080fd5b60405160e0810181811067ffffffffffffffff821117156123e0576123e06122ca565b6040528235815290508060208301356123f881612396565b8060208301525060408301356040820152606083013560608201526080830135608082015260a083013560a082015260c083013560c08201525092915050565b6000806000610120848603121561244e57600080fd5b833567ffffffffffffffff8082111561246657600080fd5b61247287838801612309565b9450602086013591508082111561248857600080fd5b908501906080828803121561249c57600080fd5b6124a46122e0565b8235828111156124b357600080fd5b6124bf89828601612309565b8252506020830135828111156124d457600080fd5b6124e089828601612309565b6020830152506040830135828111156124f857600080fd5b61250489828601612309565b60408301525060608301358281111561251c57600080fd5b61252889828601612309565b60608301525080945050505061254185604086016123ab565b90509250925092565b6000815180845260005b8181101561257057602081850181015186830182015201612554565b506000602082860101526020601f19601f83011685010191505092915050565b60208152815160208201526001600160a01b036020830151166040820152604082015115156060820152600060608301516101606080840152805160806101808501526125e161020085018261254a565b9050602082015161017f1980868403016101a0870152612601838361254a565b92506040840151915080868403016101c087015261261f838361254a565b92506060840151935080868403016101e0870152505061263f818361254a565b915050608084015161269c60a0850182805182526001600160a01b03602082015116602083015260408101516040830152606081015160608301526080810151608083015260a081015160a083015260c081015160c08301525050565b509392505050565b600080604083850312156126b757600080fd5b8235915060208301356126c981612396565b809150509250929050565b6000602082840312156126e657600080fd5b81356126f181612396565b9392505050565b6020815260006126f1602083018461254a565b600181811c9082168061271f57607f821691505b60208210810361273f57634e487b7160e01b600052602260045260246000fd5b50919050565b60006060828403121561275757600080fd5b6040516060810181811067ffffffffffffffff8211171561277a5761277a6122ca565b60405282518152602083015161278f81612396565b60208201526040928301519281019290925250919050565b634e487b7160e01b600052601160045260246000fd5b80820180821115610390576103906127a7565b601f82111561281a57600081815260208120601f850160051c810160208610156127f75750805b601f850160051c820191505b8181101561281657828155600101612803565b5050505b505050565b815167ffffffffffffffff811115612839576128396122ca565b61284d81612847845461270b565b846127d0565b602080601f831160018114612882576000841561286a5750858301515b600019600386901b1c1916600185901b178555612816565b600085815260208120601f198616915b828110156128b157888601518255948401946001909101908401612892565b50858210156128cf5787850151600019600388901b60f8161c191681555b5050505050600190811b01905550565b6000600182016128f1576128f16127a7565b5060010190565b8381526001600160a01b0383166020820152606060408201526000612920606083018461254a565b95945050505050565b828152604060208201526000610353604083018461254a565b85815260a06020820152600061295b60a083018761254a565b828103604084015261296d818761254a565b90508281036060840152612981818661254a565b90508281036080840152612995818561254a565b9897505050505050505056fea2646970667358221220c3fa250a3530a383dcecf9078d591f92b5d1b762edbb2dbd64929b9aa5ad963864736f6c63430008120033",
  "linkReferences": {},
  "deployedLinkReferences": {}
}