{
  "_format": "hh-sol-artifact-1",
  "contractName": "HypePool",
  "sourceName": "contracts/HypePool.sol",
  "abi": [
    {
      "inputs": [
        {
          "internalType": "address",
          "name": "escrowContractAddress",
          "type": "address"
        },
        {
          "internalType": "address",
          "name": "activator",
          "type": "address"
        }
      ],
      "stateMutability": "nonpayable",
      "type": "constructor"
    },
    {
      "anonymous": false,
      "inputs": [
        {
          "indexed": true,
          "internalType": "address",
          "name": "previousOwner",
          "type": "address"
        },
        {
          "indexed": true,
          "internalType": "address",
          "name": "newOwner",
          "type": "address"
        }
      ],
      "name": "OwnershipTransferred",
      "type": "event"
    },
    {
      "anonymous": false,
      "inputs": [
        {
          "indexed": false,
          "internalType": "address",
          "name": "account",
          "type": "address"
        }
      ],
      "name": "Paused",
      "type": "event"
    },
    {
      "anonymous": false,
      "inputs": [
        {
          "indexed": false,
          "internalType": "bytes32",
          "name": "poolId",
          "type": "bytes32"
        },
        {
          "indexed": false,
          "internalType": "address",
          "name": "activator",
          "type": "address"
        },
        {
          "indexed": false,
          "internalType": "uint256",
          "name": "startDate",
          "type": "uint256"
        },
        {
          "indexed": false,
          "internalType": "uint256",
          "name": "endDate",
          "type": "uint256"
        }
      ],
      "name": "PoolActivated",
      "type": "event"
    },
    {
      "anonymous": false,
      "inputs": [
        {
          "indexed": false,
          "internalType": "bytes32",
          "name": "poolId",
          "type": "bytes32"
        },
        {
          "indexed": false,
          "internalType": "address",
          "name": "creator",
          "type": "address"
        },
        {
          "indexed": false,
          "internalType": "string",
          "name": "uri",
          "type": "string"
        }
      ],
      "name": "PoolCreated",
      "type": "event"
    },
    {
      "anonymous": false,
      "inputs": [
        {
          "indexed": false,
          "internalType": "bytes32",
          "name": "poolId",
          "type": "bytes32"
        },
        {
          "indexed": false,
          "internalType": "address",
          "name": "deactivator",
          "type": "address"
        }
      ],
      "name": "PoolDeactivated",
      "type": "event"
    },
    {
      "anonymous": false,
      "inputs": [
        {
          "indexed": false,
          "internalType": "bytes32",
          "name": "poolId",
          "type": "bytes32"
        },
        {
          "indexed": false,
          "internalType": "string",
          "name": "title",
          "type": "string"
        },
        {
          "indexed": false,
          "internalType": "string",
          "name": "projectName",
          "type": "string"
        },
        {
          "indexed": false,
          "internalType": "string",
          "name": "tokenName",
          "type": "string"
        },
        {
          "indexed": false,
          "internalType": "string",
          "name": "word",
          "type": "string"
        }
      ],
      "name": "PoolDetailsCreated",
      "type": "event"
    },
    {
      "anonymous": false,
      "inputs": [
        {
          "indexed": false,
          "internalType": "bytes32",
          "name": "poolId",
          "type": "bytes32"
        },
        {
          "indexed": false,
          "internalType": "uint256",
          "name": "network",
          "type": "uint256"
        },
        {
          "indexed": false,
          "internalType": "address",
          "name": "tokenAddress",
          "type": "address"
        },
        {
          "indexed": false,
          "internalType": "uint256",
          "name": "impressionReward",
          "type": "uint256"
        },
        {
          "indexed": false,
          "internalType": "uint256",
          "name": "cap",
          "type": "uint256"
        },
        {
          "indexed": false,
          "internalType": "uint256",
          "name": "startDate",
          "type": "uint256"
        },
        {
          "indexed": false,
          "internalType": "uint256",
          "name": "endDate",
          "type": "uint256"
        },
        {
          "indexed": false,
          "internalType": "uint256",
          "name": "duration",
          "type": "uint256"
        },
        {
          "indexed": false,
          "internalType": "uint256",
          "name": "firstLeaderRewards",
          "type": "uint256"
        },
        {
          "indexed": false,
          "internalType": "uint256",
          "name": "secondLeaderRewards",
          "type": "uint256"
        },
        {
          "indexed": false,
          "internalType": "uint256",
          "name": "thirdLeaderRewards",
          "type": "uint256"
        }
      ],
      "name": "PoolRewardsCreated",
      "type": "event"
    },
    {
      "anonymous": false,
      "inputs": [
        {
          "indexed": false,
          "internalType": "bytes32",
          "name": "poolId",
          "type": "bytes32"
        },
        {
          "indexed": false,
          "internalType": "string",
          "name": "uri",
          "type": "string"
        }
      ],
      "name": "PoolUriSet",
      "type": "event"
    },
    {
      "anonymous": false,
      "inputs": [
        {
          "indexed": true,
          "internalType": "bytes32",
          "name": "role",
          "type": "bytes32"
        },
        {
          "indexed": true,
          "internalType": "address",
          "name": "account",
          "type": "address"
        }
      ],
      "name": "RoleGranted",
      "type": "event"
    },
    {
      "anonymous": false,
      "inputs": [
        {
          "indexed": true,
          "internalType": "bytes32",
          "name": "role",
          "type": "bytes32"
        },
        {
          "indexed": true,
          "internalType": "address",
          "name": "account",
          "type": "address"
        }
      ],
      "name": "RoleRevoked",
      "type": "event"
    },
    {
      "anonymous": false,
      "inputs": [
        {
          "indexed": false,
          "internalType": "address",
          "name": "account",
          "type": "address"
        }
      ],
      "name": "Unpaused",
      "type": "event"
    },
    {
      "inputs": [],
      "name": "ACTIVATOR_ROLE",
      "outputs": [
        {
          "internalType": "bytes32",
          "name": "",
          "type": "bytes32"
        }
      ],
      "stateMutability": "view",
      "type": "function"
    },
    {
      "inputs": [
        {
          "internalType": "bytes32",
          "name": "uuid",
          "type": "bytes32"
        }
      ],
      "name": "activatePool",
      "outputs": [],
      "stateMutability": "nonpayable",
      "type": "function"
    },
    {
      "inputs": [
        {
          "internalType": "bytes32",
          "name": "role",
          "type": "bytes32"
        },
        {
          "internalType": "address",
          "name": "account",
          "type": "address"
        }
      ],
      "name": "addRole",
      "outputs": [],
      "stateMutability": "nonpayable",
      "type": "function"
    },
    {
      "inputs": [
        {
          "internalType": "string",
          "name": "uri",
          "type": "string"
        },
        {
          "components": [
            {
              "internalType": "string",
              "name": "title",
              "type": "string"
            },
            {
              "internalType": "string",
              "name": "projectName",
              "type": "string"
            },
            {
              "internalType": "string",
              "name": "tokenName",
              "type": "string"
            },
            {
              "internalType": "string",
              "name": "word",
              "type": "string"
            }
          ],
          "internalType": "struct IHypePool.Details",
          "name": "details",
          "type": "tuple"
        },
        {
          "components": [
            {
              "internalType": "uint256",
              "name": "network",
              "type": "uint256"
            },
            {
              "internalType": "address",
              "name": "tokenAddress",
              "type": "address"
            },
            {
              "internalType": "uint256",
              "name": "impressionReward",
              "type": "uint256"
            },
            {
              "internalType": "uint256",
              "name": "cap",
              "type": "uint256"
            },
            {
              "internalType": "uint256",
              "name": "startDate",
              "type": "uint256"
            },
            {
              "internalType": "uint256",
              "name": "endDate",
              "type": "uint256"
            },
            {
              "internalType": "uint256",
              "name": "duration",
              "type": "uint256"
            },
            {
              "internalType": "uint256",
              "name": "firstLeaderRewards",
              "type": "uint256"
            },
            {
              "internalType": "uint256",
              "name": "secondLeaderRewards",
              "type": "uint256"
            },
            {
              "internalType": "uint256",
              "name": "thirdLeaderRewards",
              "type": "uint256"
            }
          ],
          "internalType": "struct IHypePool.Rewards",
          "name": "rewards",
          "type": "tuple"
        }
      ],
      "name": "createPool",
      "outputs": [
        {
          "components": [
            {
              "internalType": "bytes32",
              "name": "id",
              "type": "bytes32"
            },
            {
              "internalType": "address",
              "name": "creator",
              "type": "address"
            },
            {
              "internalType": "bool",
              "name": "active",
              "type": "bool"
            },
            {
              "components": [
                {
                  "internalType": "string",
                  "name": "title",
                  "type": "string"
                },
                {
                  "internalType": "string",
                  "name": "projectName",
                  "type": "string"
                },
                {
                  "internalType": "string",
                  "name": "tokenName",
                  "type": "string"
                },
                {
                  "internalType": "string",
                  "name": "word",
                  "type": "string"
                }
              ],
              "internalType": "struct IHypePool.Details",
              "name": "details",
              "type": "tuple"
            },
            {
              "components": [
                {
                  "internalType": "uint256",
                  "name": "network",
                  "type": "uint256"
                },
                {
                  "internalType": "address",
                  "name": "tokenAddress",
                  "type": "address"
                },
                {
                  "internalType": "uint256",
                  "name": "impressionReward",
                  "type": "uint256"
                },
                {
                  "internalType": "uint256",
                  "name": "cap",
                  "type": "uint256"
                },
                {
                  "internalType": "uint256",
                  "name": "startDate",
                  "type": "uint256"
                },
                {
                  "internalType": "uint256",
                  "name": "endDate",
                  "type": "uint256"
                },
                {
                  "internalType": "uint256",
                  "name": "duration",
                  "type": "uint256"
                },
                {
                  "internalType": "uint256",
                  "name": "firstLeaderRewards",
                  "type": "uint256"
                },
                {
                  "internalType": "uint256",
                  "name": "secondLeaderRewards",
                  "type": "uint256"
                },
                {
                  "internalType": "uint256",
                  "name": "thirdLeaderRewards",
                  "type": "uint256"
                }
              ],
              "internalType": "struct IHypePool.Rewards",
              "name": "rewards",
              "type": "tuple"
            }
          ],
          "internalType": "struct IHypePool.HypePool",
          "name": "",
          "type": "tuple"
        }
      ],
      "stateMutability": "nonpayable",
      "type": "function"
    },
    {
      "inputs": [
        {
          "internalType": "bytes32",
          "name": "uuid",
          "type": "bytes32"
        }
      ],
      "name": "deactivatePool",
      "outputs": [],
      "stateMutability": "nonpayable",
      "type": "function"
    },
    {
      "inputs": [],
      "name": "getCurrentIndex",
      "outputs": [
        {
          "internalType": "bytes32",
          "name": "",
          "type": "bytes32"
        }
      ],
      "stateMutability": "view",
      "type": "function"
    },
    {
      "inputs": [
        {
          "internalType": "bytes32",
          "name": "uuid",
          "type": "bytes32"
        }
      ],
      "name": "getPool",
      "outputs": [
        {
          "components": [
            {
              "internalType": "bytes32",
              "name": "id",
              "type": "bytes32"
            },
            {
              "internalType": "address",
              "name": "creator",
              "type": "address"
            },
            {
              "internalType": "bool",
              "name": "active",
              "type": "bool"
            },
            {
              "components": [
                {
                  "internalType": "string",
                  "name": "title",
                  "type": "string"
                },
                {
                  "internalType": "string",
                  "name": "projectName",
                  "type": "string"
                },
                {
                  "internalType": "string",
                  "name": "tokenName",
                  "type": "string"
                },
                {
                  "internalType": "string",
                  "name": "word",
                  "type": "string"
                }
              ],
              "internalType": "struct IHypePool.Details",
              "name": "details",
              "type": "tuple"
            },
            {
              "components": [
                {
                  "internalType": "uint256",
                  "name": "network",
                  "type": "uint256"
                },
                {
                  "internalType": "address",
                  "name": "tokenAddress",
                  "type": "address"
                },
                {
                  "internalType": "uint256",
                  "name": "impressionReward",
                  "type": "uint256"
                },
                {
                  "internalType": "uint256",
                  "name": "cap",
                  "type": "uint256"
                },
                {
                  "internalType": "uint256",
                  "name": "startDate",
                  "type": "uint256"
                },
                {
                  "internalType": "uint256",
                  "name": "endDate",
                  "type": "uint256"
                },
                {
                  "internalType": "uint256",
                  "name": "duration",
                  "type": "uint256"
                },
                {
                  "internalType": "uint256",
                  "name": "firstLeaderRewards",
                  "type": "uint256"
                },
                {
                  "internalType": "uint256",
                  "name": "secondLeaderRewards",
                  "type": "uint256"
                },
                {
                  "internalType": "uint256",
                  "name": "thirdLeaderRewards",
                  "type": "uint256"
                }
              ],
              "internalType": "struct IHypePool.Rewards",
              "name": "rewards",
              "type": "tuple"
            }
          ],
          "internalType": "struct IHypePool.HypePool",
          "name": "",
          "type": "tuple"
        }
      ],
      "stateMutability": "view",
      "type": "function"
    },
    {
      "inputs": [
        {
          "internalType": "bytes32",
          "name": "uuid",
          "type": "bytes32"
        }
      ],
      "name": "getPoolRewards",
      "outputs": [
        {
          "components": [
            {
              "internalType": "uint256",
              "name": "network",
              "type": "uint256"
            },
            {
              "internalType": "address",
              "name": "tokenAddress",
              "type": "address"
            },
            {
              "internalType": "uint256",
              "name": "impressionReward",
              "type": "uint256"
            },
            {
              "internalType": "uint256",
              "name": "cap",
              "type": "uint256"
            },
            {
              "internalType": "uint256",
              "name": "startDate",
              "type": "uint256"
            },
            {
              "internalType": "uint256",
              "name": "endDate",
              "type": "uint256"
            },
            {
              "internalType": "uint256",
              "name": "duration",
              "type": "uint256"
            },
            {
              "internalType": "uint256",
              "name": "firstLeaderRewards",
              "type": "uint256"
            },
            {
              "internalType": "uint256",
              "name": "secondLeaderRewards",
              "type": "uint256"
            },
            {
              "internalType": "uint256",
              "name": "thirdLeaderRewards",
              "type": "uint256"
            }
          ],
          "internalType": "struct IHypePool.Rewards",
          "name": "",
          "type": "tuple"
        }
      ],
      "stateMutability": "view",
      "type": "function"
    },
    {
      "inputs": [
        {
          "internalType": "bytes32",
          "name": "role",
          "type": "bytes32"
        },
        {
          "internalType": "address",
          "name": "account",
          "type": "address"
        }
      ],
      "name": "hasRole",
      "outputs": [
        {
          "internalType": "bool",
          "name": "",
          "type": "bool"
        }
      ],
      "stateMutability": "view",
      "type": "function"
    },
    {
      "inputs": [
        {
          "internalType": "bytes32",
          "name": "uuid",
          "type": "bytes32"
        }
      ],
      "name": "isActive",
      "outputs": [
        {
          "internalType": "bool",
          "name": "",
          "type": "bool"
        }
      ],
      "stateMutability": "view",
      "type": "function"
    },
    {
      "inputs": [
        {
          "internalType": "bytes32",
          "name": "uuid",
          "type": "bytes32"
        }
      ],
      "name": "isExpired",
      "outputs": [
        {
          "internalType": "bool",
          "name": "",
          "type": "bool"
        }
      ],
      "stateMutability": "view",
      "type": "function"
    },
    {
      "inputs": [
        {
          "internalType": "bytes32",
          "name": "uuid",
          "type": "bytes32"
        }
      ],
      "name": "isGracePeriod",
      "outputs": [
        {
          "internalType": "bool",
          "name": "",
          "type": "bool"
        }
      ],
      "stateMutability": "view",
      "type": "function"
    },
    {
      "inputs": [],
      "name": "owner",
      "outputs": [
        {
          "internalType": "address",
          "name": "",
          "type": "address"
        }
      ],
      "stateMutability": "view",
      "type": "function"
    },
    {
      "inputs": [],
      "name": "pause",
      "outputs": [],
      "stateMutability": "nonpayable",
      "type": "function"
    },
    {
      "inputs": [],
      "name": "paused",
      "outputs": [
        {
          "internalType": "bool",
          "name": "",
          "type": "bool"
        }
      ],
      "stateMutability": "view",
      "type": "function"
    },
    {
      "inputs": [
        {
          "internalType": "bytes32",
          "name": "uuid",
          "type": "bytes32"
        }
      ],
      "name": "poolURI",
      "outputs": [
        {
          "internalType": "string",
          "name": "",
          "type": "string"
        }
      ],
      "stateMutability": "view",
      "type": "function"
    },
    {
      "inputs": [],
      "name": "renounceOwnership",
      "outputs": [],
      "stateMutability": "nonpayable",
      "type": "function"
    },
    {
      "inputs": [
        {
          "internalType": "bytes32",
          "name": "role",
          "type": "bytes32"
        },
        {
          "internalType": "address",
          "name": "account",
          "type": "address"
        }
      ],
      "name": "revokeRole",
      "outputs": [],
      "stateMutability": "nonpayable",
      "type": "function"
    },
    {
      "inputs": [
        {
          "internalType": "address",
          "name": "newOwner",
          "type": "address"
        }
      ],
      "name": "transferOwnership",
      "outputs": [],
      "stateMutability": "nonpayable",
      "type": "function"
    },
    {
      "inputs": [],
      "name": "unpause",
      "outputs": [],
      "stateMutability": "nonpayable",
      "type": "function"
    }
  ],
  "bytecode": "0x60806040523480156200001157600080fd5b506040516200395b3803806200395b8339810160408190526200003491620002f0565b6007805460ff1916905562000049336200005d565b620000558282620000b7565b505062000328565b600780546001600160a01b03838116610100818102610100600160a81b031985161790945560405193909204169182907f8be0079c531659141344cd1fd0a4f28419497f9722a3daafe3b4186f6b6457e090600090a35050565b6001600160a01b0382166200012a5760405162461bcd60e51b815260206004820152602e60248201527f457363726f7720636f6e747261637420616464726573732063616e6e6f74206260448201526d65207a65726f206164647265737360901b60648201526084015b60405180910390fd5b6001600160a01b038116620001935760405162461bcd60e51b815260206004820152602860248201527f416374697661746f7220616464726573732063616e6e6f74206265207a65726f604482015267206164647265737360c01b606482015260840162000121565b600280546001600160a01b0319166001600160a01b038416179055620001e67fec5aad7bdface20c35bc02d6d2d5760df981277427368525d634f4e2603ea1928262000209602090811b62000f8d17901c565b600180546001600160a01b0319166001600160a01b039290921691909117905550565b6001600160a01b0381166200027a5760405162461bcd60e51b815260206004820152603060248201527f416363657373436f6e74726f6c3a2063616e6e6f74206772616e7420726f6c6560448201526f20746f207a65726f206164647265737360801b606482015260840162000121565b6000828152602081815260408083206001600160a01b0385168085529252808320805460ff1916600117905551909184917f2ae6a113c0ed5b78a53413ffbb7679881f11145ccfba4fb92e863dfcd5a1d2f39190a35050565b80516001600160a01b0381168114620002eb57600080fd5b919050565b600080604083850312156200030457600080fd5b6200030f83620002d3565b91506200031f60208401620002d3565b90509250929050565b61362380620003386000396000f3fe608060405234801561001057600080fd5b506004361061016c5760003560e01c80638456cb59116100cd578063d9d9785911610081578063f2fde38b11610066578063f2fde38b146102e9578063f6c00927146102fc578063f8607fb11461030f57600080fd5b8063d9d97859146102c3578063e959b38a146102d657600080fd5b806391d14854116100b257806391d148541461028a578063bd033bd01461029d578063d547741f146102b057600080fd5b80638456cb59146102595780638da5cb5b1461026157600080fd5b80635c975abb116101245780637081321711610109578063708132171461021e578063715018a61461023e57806373dfe0da1461024657600080fd5b80635c975abb146102005780636db2feb21461020b57600080fd5b806324bc59721161015557806324bc5972146101b35780633f4ba83a146101d35780635c36901c146101dd57600080fd5b806308740a3b146101715780630d9005ae146101ab575b600080fd5b6101987fec5aad7bdface20c35bc02d6d2d5760df981277427368525d634f4e2603ea19281565b6040519081526020015b60405180910390f35b600654610198565b6101c66101c1366004612e93565b61032f565b6040516101a29190612f23565b6101db6103a4565b005b6101f06101eb366004612e93565b6103b6565b60405190151581526020016101a2565b60075460ff166101f0565b6101f0610219366004612e93565b610723565b61023161022c3660046130d3565b610a8d565b6040516101a2919061322b565b6101db610ab0565b6101db610254366004612e93565b610ac2565b6101db610ad6565b60075461010090046001600160a01b03166040516001600160a01b0390911681526020016101a2565b6101f06102983660046132f7565b610ae6565b6101f06102ab366004612e93565b610b11565b6101db6102be3660046132f7565b610e9d565b6101db6102d1366004612e93565b610f74565b6101db6102e43660046132f7565b610f8d565b6101db6102f7366004613327565b611062565b61023161030a366004612e93565b6110ef565b61032261031d366004612e93565b611424565b6040516101a29190613344565b61038e6040518061014001604052806000815260200160006001600160a01b0316815260200160008152602001600081526020016000815260200160008152602001600081526020016000815260200160008152602001600081525090565b6000610399836110ef565b608001519392505050565b6103ac6114c6565b6103b4611526565b565b6000818152600360209081526040808320815160a0810183528154815260018201546001600160a01b03811694820194909452600160a01b90930460ff16151583830152815160808101909252600281018054859493606085019290918290829061042090613357565b80601f016020809104026020016040519081016040528092919081815260200182805461044c90613357565b80156104995780601f1061046e57610100808354040283529160200191610499565b820191906000526020600020905b81548152906001019060200180831161047c57829003601f168201915b505050505081526020016001820180546104b290613357565b80601f01602080910402602001604051908101604052809291908181526020018280546104de90613357565b801561052b5780601f106105005761010080835404028352916020019161052b565b820191906000526020600020905b81548152906001019060200180831161050e57829003601f168201915b5050505050815260200160028201805461054490613357565b80601f016020809104026020016040519081016040528092919081815260200182805461057090613357565b80156105bd5780601f10610592576101008083540402835291602001916105bd565b820191906000526020600020905b8154815290600101906020018083116105a057829003601f168201915b505050505081526020016003820180546105d690613357565b80601f016020809104026020016040519081016040528092919081815260200182805461060290613357565b801561064f5780601f106106245761010080835404028352916020019161064f565b820191906000526020600020905b81548152906001019060200180831161063257829003601f168201915b50505050508152505081526020016006820160405180610140016040529081600082015481526020016001820160009054906101000a90046001600160a01b03166001600160a01b03166001600160a01b0316815260200160028201548152602001600382015481526020016004820154815260200160058201548152602001600682015481526020016007820154815260200160088201548152602001600982015481525050815250509050806080015160a0015160001415801561071c575042816080015160a00151115b9392505050565b6000818152600360209081526040808320815160a0810183528154815260018201546001600160a01b03811694820194909452600160a01b90930460ff16151583830152815160808101909252600281018054859493606085019290918290829061078d90613357565b80601f01602080910402602001604051908101604052809291908181526020018280546107b990613357565b80156108065780601f106107db57610100808354040283529160200191610806565b820191906000526020600020905b8154815290600101906020018083116107e957829003601f168201915b5050505050815260200160018201805461081f90613357565b80601f016020809104026020016040519081016040528092919081815260200182805461084b90613357565b80156108985780601f1061086d57610100808354040283529160200191610898565b820191906000526020600020905b81548152906001019060200180831161087b57829003601f168201915b505050505081526020016002820180546108b190613357565b80601f01602080910402602001604051908101604052809291908181526020018280546108dd90613357565b801561092a5780601f106108ff5761010080835404028352916020019161092a565b820191906000526020600020905b81548152906001019060200180831161090d57829003601f168201915b5050505050815260200160038201805461094390613357565b80601f016020809104026020016040519081016040528092919081815260200182805461096f90613357565b80156109bc5780601f10610991576101008083540402835291602001916109bc565b820191906000526020600020905b81548152906001019060200180831161099f57829003601f168201915b50505050508152505081526020016006820160405180610140016040529081600082015481526020016001820160009054906101000a90046001600160a01b03166001600160a01b03166001600160a01b0316815260200160028201548152602001600382015481526020016004820154815260200160058201548152602001600682015481526020016007820154815260200160088201548152602001600982015481525050815250509050806080015160a0015160001415801561071c57506080015160a00151421192915050565b610a95612dd1565b610a9d611578565b610aa88484846115cb565b949350505050565b610ab86114c6565b6103b46000611b9c565b610aca611578565b610ad381611c0d565b50565b610ade6114c6565b6103b46123ed565b6000828152602081815260408083206001600160a01b038516845290915290205460ff165b92915050565b6000818152600360209081526040808320815160a0810183528154815260018201546001600160a01b03811694820194909452600160a01b90930460ff161515838301528151608081019092526002810180548594936060850192909182908290610b7b90613357565b80601f0160208091040260200160405190810160405280929190818152602001828054610ba790613357565b8015610bf45780601f10610bc957610100808354040283529160200191610bf4565b820191906000526020600020905b815481529060010190602001808311610bd757829003601f168201915b50505050508152602001600182018054610c0d90613357565b80601f0160208091040260200160405190810160405280929190818152602001828054610c3990613357565b8015610c865780601f10610c5b57610100808354040283529160200191610c86565b820191906000526020600020905b815481529060010190602001808311610c6957829003601f168201915b50505050508152602001600282018054610c9f90613357565b80601f0160208091040260200160405190810160405280929190818152602001828054610ccb90613357565b8015610d185780601f10610ced57610100808354040283529160200191610d18565b820191906000526020600020905b815481529060010190602001808311610cfb57829003601f168201915b50505050508152602001600382018054610d3190613357565b80601f0160208091040260200160405190810160405280929190818152602001828054610d5d90613357565b8015610daa5780601f10610d7f57610100808354040283529160200191610daa565b820191906000526020600020905b815481529060010190602001808311610d8d57829003601f168201915b50505050508152505081526020016006820160405180610140016040529081600082015481526020016001820160009054906101000a90046001600160a01b03166001600160a01b03166001600160a01b0316815260200160028201548152602001600382015481526020016004820154815260200160058201548152602001600682015481526020016007820154815260200160088201548152602001600982015481525050815250509050806080015160a00151600014158015610e77575042816080015160a00151105b801561071c5750608081015160a00151610e949062093a806133a7565b42109392505050565b6001600160a01b038116610f1e5760405162461bcd60e51b815260206004820152603360248201527f416363657373436f6e74726f6c3a2063616e6e6f74207265766f6b6520726f6c60448201527f652066726f6d207a65726f20616464726573730000000000000000000000000060648201526084015b60405180910390fd5b6000828152602081815260408083206001600160a01b0385168085529252808320805460ff1916905551909184917f155aaafb6329a2098580462df33ec4b7441b19729b9601c5fc17ae1cf99a8a529190a35050565b610f7c611578565b610f846114c6565b610ad38161242a565b6001600160a01b0381166110095760405162461bcd60e51b815260206004820152603060248201527f416363657373436f6e74726f6c3a2063616e6e6f74206772616e7420726f6c6560448201527f20746f207a65726f2061646472657373000000000000000000000000000000006064820152608401610f15565b6000828152602081815260408083206001600160a01b0385168085529252808320805460ff1916600117905551909184917f2ae6a113c0ed5b78a53413ffbb7679881f11145ccfba4fb92e863dfcd5a1d2f39190a35050565b61106a6114c6565b6001600160a01b0381166110e65760405162461bcd60e51b815260206004820152602660248201527f4f776e61626c653a206e6577206f776e657220697320746865207a65726f206160448201527f64647265737300000000000000000000000000000000000000000000000000006064820152608401610f15565b610ad381611b9c565b6110f7612dd1565b600082815260036020908152604091829020825160a0810184528154815260018201546001600160a01b03811693820193909352600160a01b90920460ff1615158284015282516080810190935260028101805492939192606085019291908290829061116390613357565b80601f016020809104026020016040519081016040528092919081815260200182805461118f90613357565b80156111dc5780601f106111b1576101008083540402835291602001916111dc565b820191906000526020600020905b8154815290600101906020018083116111bf57829003601f168201915b505050505081526020016001820180546111f590613357565b80601f016020809104026020016040519081016040528092919081815260200182805461122190613357565b801561126e5780601f106112435761010080835404028352916020019161126e565b820191906000526020600020905b81548152906001019060200180831161125157829003601f168201915b5050505050815260200160028201805461128790613357565b80601f01602080910402602001604051908101604052809291908181526020018280546112b390613357565b80156113005780601f106112d557610100808354040283529160200191611300565b820191906000526020600020905b8154815290600101906020018083116112e357829003601f168201915b5050505050815260200160038201805461131990613357565b80601f016020809104026020016040519081016040528092919081815260200182805461134590613357565b80156113925780601f1061136757610100808354040283529160200191611392565b820191906000526020600020905b81548152906001019060200180831161137557829003601f168201915b50505091909252505050815260408051610140810182526006840154815260078401546001600160a01b031660208281019190915260088501549282019290925260098401546060820152600a8401546080820152600b84015460a0820152600c84015460c0820152600d84015460e0820152600e840154610100820152600f90930154610120840152015292915050565b600081815260046020526040902080546060919061144190613357565b80601f016020809104026020016040519081016040528092919081815260200182805461146d90613357565b80156114ba5780601f1061148f576101008083540402835291602001916114ba565b820191906000526020600020905b81548152906001019060200180831161149d57829003601f168201915b50505050509050919050565b6007546001600160a01b036101009091041633146103b45760405162461bcd60e51b815260206004820181905260248201527f4f776e61626c653a2063616c6c6572206973206e6f7420746865206f776e65726044820152606401610f15565b61152e6129af565b6007805460ff191690557f5db9ee0a495bf2e6ff9c91a7834c1ba4fdd244a5e8aa4e537bd38aeae4b073aa335b6040516001600160a01b03909116815260200160405180910390a1565b60075460ff16156103b45760405162461bcd60e51b815260206004820152601060248201527f5061757361626c653a20706175736564000000000000000000000000000000006044820152606401610f15565b6115d3612dd1565b60008451116116245760405162461bcd60e51b815260206004820152601460248201527f4d697373696e67206d65746164617461205552490000000000000000000000006044820152606401610f15565b60008260600151116116785760405162461bcd60e51b815260206004820152601060248201527f496e76616c696420706f6f6c20636170000000000000000000000000000000006044820152606401610f15565b60008260c00151116116f25760405162461bcd60e51b815260206004820152602160248201527f4475726174696f6e206d757374206265206174206c65617374206f6e6520646160448201527f79000000000000000000000000000000000000000000000000000000000000006064820152608401610f15565b6080820151156117445760405162461bcd60e51b815260206004820152601760248201527f53746172742064617465206d757374206265207a65726f0000000000000000006044820152606401610f15565b60a0820151156117965760405162461bcd60e51b815260206004820152601560248201527f456e642064617465206d757374206265207a65726f00000000000000000000006044820152606401610f15565b60008260400151116117ea5760405162461bcd60e51b815260206004820152601e60248201527f496e76616c696420696d7072657373696f6e20687970652072657761726400006044820152606401610f15565b60006117f4612a01565b60008181526005602052604090205490915060ff16156118565760405162461bcd60e51b815260206004820152601360248201527f5575696420616c726561647920657869737473000000000000000000000000006044820152606401610f15565b61186281868686612a9e565b61186c8186612c81565b600081815260036020908152604091829020825160a0810184528154815260018201546001600160a01b03811693820193909352600160a01b90920460ff161515828401528251608081019093526002810180549293919260608501929190829082906118d890613357565b80601f016020809104026020016040519081016040528092919081815260200182805461190490613357565b80156119515780601f1061192657610100808354040283529160200191611951565b820191906000526020600020905b81548152906001019060200180831161193457829003601f168201915b5050505050815260200160018201805461196a90613357565b80601f016020809104026020016040519081016040528092919081815260200182805461199690613357565b80156119e35780601f106119b8576101008083540402835291602001916119e3565b820191906000526020600020905b8154815290600101906020018083116119c657829003601f168201915b505050505081526020016002820180546119fc90613357565b80601f0160208091040260200160405190810160405280929190818152602001828054611a2890613357565b8015611a755780601f10611a4a57610100808354040283529160200191611a75565b820191906000526020600020905b815481529060010190602001808311611a5857829003601f168201915b50505050508152602001600382018054611a8e90613357565b80601f0160208091040260200160405190810160405280929190818152602001828054611aba90613357565b8015611b075780601f10611adc57610100808354040283529160200191611b07565b820191906000526020600020905b815481529060010190602001808311611aea57829003601f168201915b50505091909252505050815260408051610140810182526006840154815260078401546001600160a01b031660208083019190915260088501549282019290925260098401546060820152600a8401546080820152600b84015460a0820152600c84015460c0820152600d84015460e0820152600e840154610100820152600f90930154610120840152015295945050505050565b600780546001600160a01b038381166101008181027fffffffffffffffffffffff0000000000000000000000000000000000000000ff85161790945560405193909204169182907f8be0079c531659141344cd1fd0a4f28419497f9722a3daafe3b4186f6b6457e090600090a35050565b6000818152600360209081526040808320815160a0810183528154815260018201546001600160a01b03811694820194909452600160a01b90930460ff161515838301528151608081019092526002810180549192606085019290919082908290611c7790613357565b80601f0160208091040260200160405190810160405280929190818152602001828054611ca390613357565b8015611cf05780601f10611cc557610100808354040283529160200191611cf0565b820191906000526020600020905b815481529060010190602001808311611cd357829003601f168201915b50505050508152602001600182018054611d0990613357565b80601f0160208091040260200160405190810160405280929190818152602001828054611d3590613357565b8015611d825780601f10611d5757610100808354040283529160200191611d82565b820191906000526020600020905b815481529060010190602001808311611d6557829003601f168201915b50505050508152602001600282018054611d9b90613357565b80601f0160208091040260200160405190810160405280929190818152602001828054611dc790613357565b8015611e145780601f10611de957610100808354040283529160200191611e14565b820191906000526020600020905b815481529060010190602001808311611df757829003601f168201915b50505050508152602001600382018054611e2d90613357565b80601f0160208091040260200160405190810160405280929190818152602001828054611e5990613357565b8015611ea65780601f10611e7b57610100808354040283529160200191611ea6565b820191906000526020600020905b815481529060010190602001808311611e8957829003601f168201915b50505091909252505050815260408051610140810182526006840154815260078401546001600160a01b031660208281019190915260088501548284015260098501546060830152600a850154608080840191909152600b86015460a0840152600c86015460c0840152600d86015460e0840152600e860154610100840152600f9095015461012083015290920191909152908201510151909150600003611f905760405162461bcd60e51b815260206004820152601260248201527f506f6f6c20646f65736e277420657869737400000000000000000000000000006044820152606401610f15565b60008281526005602052604090205460ff16611fee5760405162461bcd60e51b815260206004820152601360248201527f506f6f6c20646f6573206e6f74206578697374000000000000000000000000006044820152606401610f15565b6040810151156120405760405162461bcd60e51b815260206004820152601660248201527f506f6f6c20697320616c726561647920616374697665000000000000000000006044820152606401610f15565b600061206c7fec5aad7bdface20c35bc02d6d2d5760df981277427368525d634f4e2603ea19233610ae6565b90508061221b576002546040517f1aa9e742000000000000000000000000000000000000000000000000000000008152336004820152602481018590526001600160a01b03909116906000908290631aa9e74290604401606060405180830381865afa1580156120e0573d6000803e3d6000fd5b505050506040513d601f19601f8201168201806040525081019061210491906133ba565b6080850151606001518151919250146121855760405162461bcd60e51b815260206004820152602860248201527f4465706f736974656420616d6f756e7420646f6573206e6f74206d617463682060448201527f706f6f6c206361700000000000000000000000000000000000000000000000006064820152608401610f15565b8360800151602001516001600160a01b031681602001516001600160a01b0316146122185760405162461bcd60e51b815260206004820152603960248201527f4465706f736974656420746f6b656e206164647265737320646f6573206e6f7460448201527f206d6174636820706f6f6c20746f6b656e2061646472657373000000000000006064820152608401610f15565b50505b60016040830152608080830180514292018290525160c0015161223d916133a7565b608083015160a001526000838152600360209081526040918290208451815590840151600182018054938601511515600160a01b0274ffffffffffffffffffffffffffffffffffffffffff199094166001600160a01b0390921691909117929092179091556060830151805184929190600283019081906122be908261346b565b50602082015160018201906122d3908261346b565b50604082015160028201906122e8908261346b565b50606082015160038201906122fd908261346b565b5050506080918201518051600683015560208082015160078401805473ffffffffffffffffffffffffffffffffffffffff19166001600160a01b039092169190911790556040808301516008850155606080840151600986015583860151600a86015560a080850151600b87015560c0850151600c87015560e0850151600d870155610100850151600e87015561012090940151600f9095019490945586850151808601519301518151898152339381019390935290820192909252918201527ff1e6981b3d18841dad1ef7f8db1d40663aaa4b8cd2022e5349498c4d406d00df910160405180910390a1505050565b6123f5611578565b6007805460ff191660011790557f62e78cea01bee320cd4e420270b5ea74000d11b0c9f74754ebdbfc544b05a25861155b3390565b6000818152600360209081526040808320815160a0810183528154815260018201546001600160a01b03811694820194909452600160a01b90930460ff16151583830152815160808101909252600281018054919260608501929091908290829061249490613357565b80601f01602080910402602001604051908101604052809291908181526020018280546124c090613357565b801561250d5780601f106124e25761010080835404028352916020019161250d565b820191906000526020600020905b8154815290600101906020018083116124f057829003601f168201915b5050505050815260200160018201805461252690613357565b80601f016020809104026020016040519081016040528092919081815260200182805461255290613357565b801561259f5780601f106125745761010080835404028352916020019161259f565b820191906000526020600020905b81548152906001019060200180831161258257829003601f168201915b505050505081526020016002820180546125b890613357565b80601f01602080910402602001604051908101604052809291908181526020018280546125e490613357565b80156126315780601f1061260657610100808354040283529160200191612631565b820191906000526020600020905b81548152906001019060200180831161261457829003601f168201915b5050505050815260200160038201805461264a90613357565b80601f016020809104026020016040519081016040528092919081815260200182805461267690613357565b80156126c35780601f10612698576101008083540402835291602001916126c3565b820191906000526020600020905b8154815290600101906020018083116126a657829003601f168201915b50505091909252505050815260408051610140810182526006840154815260078401546001600160a01b031660208281019190915260088501548284015260098501546060830152600a850154608080840191909152600b86015460a0840152600c86015460c0840152600d86015460e0840152600e860154610100840152600f90950154610120830152909201919091529082015101519091506000036127ad5760405162461bcd60e51b815260206004820152601260248201527f506f6f6c20646f65736e277420657869737400000000000000000000000000006044820152606401610f15565b604081015115156001146128035760405162461bcd60e51b815260206004820152601860248201527f506f6f6c20697320616c726561647920696e61637469766500000000000000006044820152606401610f15565b6000604080830182815260808401514260a0909101528483526003602090815291909220835181559083015160018201805493511515600160a01b0274ffffffffffffffffffffffffffffffffffffffffff199094166001600160a01b03909216919091179290921790915560608201518051839291906002830190819061288b908261346b565b50602082015160018201906128a0908261346b565b50604082015160028201906128b5908261346b565b50606082015160038201906128ca908261346b565b5050506080918201518051600683015560208101516007830180546001600160a01b0390921673ffffffffffffffffffffffffffffffffffffffff1990921691909117905560408082015160088401556060820151600984015592810151600a83015560a0810151600b83015560c0810151600c83015560e0810151600d830155610100810151600e8301556101200151600f90910155517f0522afc663a576de692143f1e714306778ade438ea7c739c3a3964bd78eb2cc6906129a390849033909182526001600160a01b0316602082015260400190565b60405180910390a15050565b60075460ff166103b45760405162461bcd60e51b815260206004820152601460248201527f5061757361626c653a206e6f74207061757365640000000000000000000000006044820152606401610f15565b60408051436020820181905242928201839052600060608301819052929091839081906080016040516020818303038152906040528051906020012090505b60008181526005602052604090205460ff1615610aa85781612a618161352b565b6040805160208101889052908101869052606081018290529093506080019050604051602081830303815290604052805190602001209050612a40565b6040805160a081018252858152336020808301918252600083850181815260608501888152608086018890528a8352600390935294902083518155915160018301805495511515600160a01b0274ffffffffffffffffffffffffffffffffffffffffff199096166001600160a01b039290921691909117949094179093559151805191929160028301908190612b34908261346b565b5060208201516001820190612b49908261346b565b5060408201516002820190612b5e908261346b565b5060608201516003820190612b73908261346b565b505050608091820151805160068381019190915560208083015160078501805473ffffffffffffffffffffffffffffffffffffffff19166001600160a01b0390921691909117905560408084015160088601556060840151600986015594830151600a85015560a0830151600b85015560c0830151600c85015560e0830151600d850155610100830151600e85015561012090920151600f9093019290925560008781526005909152829020805460ff19166001179055859055517f3a21eb0a9afc1353da741f39aaea48014c074c6720b61baf41e1e18d6ae7b2fb90612c5f90869033908790613544565b60405180910390a1612c718483612ccb565b612c7b8482612d12565b50505050565b6000828152600460205260409020612c99828261346b565b507fa9397f16db6e1e1b43c1c813233f16139006d56a3d1a24412ebdfb0661b5bfff82826040516129a3929190613575565b7f764b3686bd9a8c04d487da87edb364f64d505149c22a8b2664d353539ecf6a338282600001518360200151846040015185606001516040516129a395949392919061358e565b7fbd9958b57e49a74ca231cded8239733651bec95f7d338b5bce7fe13a207a8c4b82826000015183602001518460400151856060015186608001518760a001518860c001518960e001518a61010001518b61012001516040516129a39b9a999897969594939291909a8b5260208b01999099526001600160a01b039790971660408a01526060890195909552608088019390935260a087019190915260c086015260e08501526101008401526101208301526101408201526101600190565b6040518060a001604052806000801916815260200160006001600160a01b03168152602001600015158152602001612e2a6040518060800160405280606081526020016060815260200160608152602001606081525090565b8152602001612e8e6040518061014001604052806000815260200160006001600160a01b0316815260200160008152602001600081526020016000815260200160008152602001600081526020016000815260200160008152602001600081525090565b905290565b600060208284031215612ea557600080fd5b5035919050565b805182526020810151612eca60208401826001600160a01b03169052565b5060408101516040830152606081015160608301526080810151608083015260a081015160a083015260c081015160c083015260e081015160e08301526101008082015181840152506101208082015181840152505050565b6101408101610b0b8284612eac565b634e487b7160e01b600052604160045260246000fd5b604051610140810167ffffffffffffffff81118282101715612f6c57612f6c612f32565b60405290565b6040516080810167ffffffffffffffff81118282101715612f6c57612f6c612f32565b600082601f830112612fa657600080fd5b813567ffffffffffffffff80821115612fc157612fc1612f32565b604051601f8301601f19908116603f01168101908282118183101715612fe957612fe9612f32565b8160405283815286602085880101111561300257600080fd5b836020870160208301376000602085830101528094505050505092915050565b6001600160a01b0381168114610ad357600080fd5b803561304281613022565b919050565b6000610140828403121561305a57600080fd5b613062612f48565b90508135815261307460208301613037565b602082015260408201356040820152606082013560608201526080820135608082015260a082013560a082015260c082013560c082015260e082013560e082015261010080830135818301525061012080830135818301525092915050565b600080600061018084860312156130e957600080fd5b833567ffffffffffffffff8082111561310157600080fd5b61310d87838801612f95565b9450602086013591508082111561312357600080fd5b908501906080828803121561313757600080fd5b61313f612f72565b82358281111561314e57600080fd5b61315a89828601612f95565b82525060208301358281111561316f57600080fd5b61317b89828601612f95565b60208301525060408301358281111561319357600080fd5b61319f89828601612f95565b6040830152506060830135828111156131b757600080fd5b6131c389828601612f95565b6060830152508094505050506131dc8560408601613047565b90509250925092565b6000815180845260005b8181101561320b576020818501810151868301820152016131ef565b506000602082860101526020601f19601f83011685010191505092915050565b60208152815160208201526001600160a01b036020830151166040820152604082015115156060820152600060608301516101c06080840152805160806101e085015261327c6102608501826131e5565b905060208201516101df19808684030161020087015261329c83836131e5565b92506040840151915080868403016102208701526132ba83836131e5565b925060608401519350808684030161024087015250506132da81836131e5565b91505060808401516132ef60a0850182612eac565b509392505050565b6000806040838503121561330a57600080fd5b82359150602083013561331c81613022565b809150509250929050565b60006020828403121561333957600080fd5b813561071c81613022565b60208152600061071c60208301846131e5565b600181811c9082168061336b57607f821691505b60208210810361338b57634e487b7160e01b600052602260045260246000fd5b50919050565b634e487b7160e01b600052601160045260246000fd5b80820180821115610b0b57610b0b613391565b6000606082840312156133cc57600080fd5b6040516060810181811067ffffffffffffffff821117156133ef576133ef612f32565b60405282518152602083015161340481613022565b60208201526040928301519281019290925250919050565b601f82111561346657600081815260208120601f850160051c810160208610156134435750805b601f850160051c820191505b818110156134625782815560010161344f565b5050505b505050565b815167ffffffffffffffff81111561348557613485612f32565b613499816134938454613357565b8461341c565b602080601f8311600181146134ce57600084156134b65750858301515b600019600386901b1c1916600185901b178555613462565b600085815260208120601f198616915b828110156134fd578886015182559484019460019091019084016134de565b508582101561351b5787850151600019600388901b60f8161c191681555b5050505050600190811b01905550565b60006001820161353d5761353d613391565b5060010190565b8381526001600160a01b038316602082015260606040820152600061356c60608301846131e5565b95945050505050565b828152604060208201526000610aa860408301846131e5565b85815260a0602082015260006135a760a08301876131e5565b82810360408401526135b981876131e5565b905082810360608401526135cd81866131e5565b905082810360808401526135e181856131e5565b9897505050505050505056fea2646970667358221220ff909ef4cd8348c03e9838580d726bb6882524fb1e6dbf0b2909adfa1b9fd09f64736f6c63430008120033",
  "linkReferences": {},
  "deployedLinkReferences": {}
}