{
  "_format": "hh-sol-artifact-1",
  "contractName": "HypePool",
  "sourceName": "contracts/HypePool.sol",
  "abi": [
    {
      "inputs": [
        {
          "internalType": "address",
          "name": "escrowContractAddress",
          "type": "address"
        }
      ],
      "stateMutability": "nonpayable",
      "type": "constructor"
    },
    {
      "anonymous": false,
      "inputs": [
        {
          "indexed": true,
          "internalType": "address",
          "name": "previousOwner",
          "type": "address"
        },
        {
          "indexed": true,
          "internalType": "address",
          "name": "newOwner",
          "type": "address"
        }
      ],
      "name": "OwnershipTransferred",
      "type": "event"
    },
    {
      "anonymous": false,
      "inputs": [
        {
          "indexed": false,
          "internalType": "address",
          "name": "account",
          "type": "address"
        }
      ],
      "name": "Paused",
      "type": "event"
    },
    {
      "anonymous": false,
      "inputs": [
        {
          "indexed": false,
          "internalType": "uint256",
          "name": "poolId",
          "type": "uint256"
        },
        {
          "indexed": false,
          "internalType": "address",
          "name": "activator",
          "type": "address"
        }
      ],
      "name": "PoolActivated",
      "type": "event"
    },
    {
      "anonymous": false,
      "inputs": [
        {
          "indexed": false,
          "internalType": "uint256",
          "name": "poolId",
          "type": "uint256"
        },
        {
          "indexed": false,
          "internalType": "address",
          "name": "creator",
          "type": "address"
        },
        {
          "indexed": false,
          "internalType": "string",
          "name": "uri",
          "type": "string"
        },
        {
          "indexed": false,
          "internalType": "string",
          "name": "title",
          "type": "string"
        },
        {
          "indexed": false,
          "internalType": "string",
          "name": "projectName",
          "type": "string"
        },
        {
          "indexed": false,
          "internalType": "string",
          "name": "tokenName",
          "type": "string"
        },
        {
          "indexed": false,
          "internalType": "string",
          "name": "word",
          "type": "string"
        },
        {
          "indexed": false,
          "internalType": "bool",
          "name": "active",
          "type": "bool"
        },
        {
          "indexed": false,
          "internalType": "uint256",
          "name": "cap",
          "type": "uint256"
        },
        {
          "indexed": false,
          "internalType": "address",
          "name": "tokenAddress",
          "type": "address"
        },
        {
          "indexed": false,
          "internalType": "address",
          "name": "network",
          "type": "address"
        },
        {
          "indexed": false,
          "internalType": "uint256",
          "name": "minReward",
          "type": "uint256"
        },
        {
          "indexed": false,
          "internalType": "uint256",
          "name": "impressionReward",
          "type": "uint256"
        },
        {
          "indexed": false,
          "internalType": "uint256",
          "name": "endDate",
          "type": "uint256"
        }
      ],
      "name": "PoolCreated",
      "type": "event"
    },
    {
      "anonymous": false,
      "inputs": [
        {
          "indexed": false,
          "internalType": "uint256",
          "name": "poolId",
          "type": "uint256"
        },
        {
          "indexed": false,
          "internalType": "string",
          "name": "uri",
          "type": "string"
        }
      ],
      "name": "PoolUriSet",
      "type": "event"
    },
    {
      "anonymous": false,
      "inputs": [
        {
          "indexed": false,
          "internalType": "address",
          "name": "account",
          "type": "address"
        }
      ],
      "name": "Unpaused",
      "type": "event"
    },
    {
      "inputs": [
        {
          "internalType": "uint256",
          "name": "id",
          "type": "uint256"
        }
      ],
      "name": "activatePool",
      "outputs": [],
      "stateMutability": "nonpayable",
      "type": "function"
    },
    {
      "inputs": [
        {
          "internalType": "string",
          "name": "uri",
          "type": "string"
        },
        {
          "internalType": "string",
          "name": "projectName",
          "type": "string"
        },
        {
          "internalType": "string",
          "name": "title",
          "type": "string"
        },
        {
          "internalType": "string",
          "name": "tokenName",
          "type": "string"
        },
        {
          "internalType": "string",
          "name": "word",
          "type": "string"
        },
        {
          "internalType": "uint256",
          "name": "cap",
          "type": "uint256"
        },
        {
          "internalType": "address",
          "name": "tokenAddress",
          "type": "address"
        },
        {
          "internalType": "address",
          "name": "network",
          "type": "address"
        },
        {
          "internalType": "uint256",
          "name": "minReward",
          "type": "uint256"
        },
        {
          "internalType": "uint256",
          "name": "impressionReward",
          "type": "uint256"
        },
        {
          "internalType": "uint256",
          "name": "endDate",
          "type": "uint256"
        }
      ],
      "name": "createPool",
      "outputs": [
        {
          "components": [
            {
              "internalType": "uint256",
              "name": "id",
              "type": "uint256"
            },
            {
              "internalType": "address",
              "name": "creator",
              "type": "address"
            },
            {
              "internalType": "string",
              "name": "title",
              "type": "string"
            },
            {
              "internalType": "string",
              "name": "projectName",
              "type": "string"
            },
            {
              "internalType": "string",
              "name": "tokenName",
              "type": "string"
            },
            {
              "internalType": "string",
              "name": "word",
              "type": "string"
            },
            {
              "internalType": "address",
              "name": "network",
              "type": "address"
            },
            {
              "internalType": "bool",
              "name": "active",
              "type": "bool"
            },
            {
              "internalType": "uint256",
              "name": "cap",
              "type": "uint256"
            },
            {
              "internalType": "address",
              "name": "tokenAddress",
              "type": "address"
            },
            {
              "internalType": "uint256",
              "name": "minReward",
              "type": "uint256"
            },
            {
              "internalType": "uint256",
              "name": "impressionReward",
              "type": "uint256"
            },
            {
              "internalType": "uint256",
              "name": "endDate",
              "type": "uint256"
            }
          ],
          "internalType": "struct IHypePool.HypePool",
          "name": "",
          "type": "tuple"
        }
      ],
      "stateMutability": "nonpayable",
      "type": "function"
    },
    {
      "inputs": [],
      "name": "getCurrentIndex",
      "outputs": [
        {
          "internalType": "uint256",
          "name": "",
          "type": "uint256"
        }
      ],
      "stateMutability": "view",
      "type": "function"
    },
    {
      "inputs": [
        {
          "internalType": "uint256",
          "name": "tokenId",
          "type": "uint256"
        }
      ],
      "name": "getPool",
      "outputs": [
        {
          "components": [
            {
              "internalType": "uint256",
              "name": "id",
              "type": "uint256"
            },
            {
              "internalType": "address",
              "name": "creator",
              "type": "address"
            },
            {
              "internalType": "string",
              "name": "title",
              "type": "string"
            },
            {
              "internalType": "string",
              "name": "projectName",
              "type": "string"
            },
            {
              "internalType": "string",
              "name": "tokenName",
              "type": "string"
            },
            {
              "internalType": "string",
              "name": "word",
              "type": "string"
            },
            {
              "internalType": "address",
              "name": "network",
              "type": "address"
            },
            {
              "internalType": "bool",
              "name": "active",
              "type": "bool"
            },
            {
              "internalType": "uint256",
              "name": "cap",
              "type": "uint256"
            },
            {
              "internalType": "address",
              "name": "tokenAddress",
              "type": "address"
            },
            {
              "internalType": "uint256",
              "name": "minReward",
              "type": "uint256"
            },
            {
              "internalType": "uint256",
              "name": "impressionReward",
              "type": "uint256"
            },
            {
              "internalType": "uint256",
              "name": "endDate",
              "type": "uint256"
            }
          ],
          "internalType": "struct IHypePool.HypePool",
          "name": "",
          "type": "tuple"
        }
      ],
      "stateMutability": "view",
      "type": "function"
    },
    {
      "inputs": [],
      "name": "owner",
      "outputs": [
        {
          "internalType": "address",
          "name": "",
          "type": "address"
        }
      ],
      "stateMutability": "view",
      "type": "function"
    },
    {
      "inputs": [],
      "name": "pause",
      "outputs": [],
      "stateMutability": "nonpayable",
      "type": "function"
    },
    {
      "inputs": [],
      "name": "paused",
      "outputs": [
        {
          "internalType": "bool",
          "name": "",
          "type": "bool"
        }
      ],
      "stateMutability": "view",
      "type": "function"
    },
    {
      "inputs": [
        {
          "internalType": "uint256",
          "name": "tokenId",
          "type": "uint256"
        }
      ],
      "name": "poolURI",
      "outputs": [
        {
          "internalType": "string",
          "name": "",
          "type": "string"
        }
      ],
      "stateMutability": "view",
      "type": "function"
    },
    {
      "inputs": [],
      "name": "renounceOwnership",
      "outputs": [],
      "stateMutability": "nonpayable",
      "type": "function"
    },
    {
      "inputs": [
        {
          "internalType": "address",
          "name": "newOwner",
          "type": "address"
        }
      ],
      "name": "transferOwnership",
      "outputs": [],
      "stateMutability": "nonpayable",
      "type": "function"
    },
    {
      "inputs": [],
      "name": "unpause",
      "outputs": [],
      "stateMutability": "nonpayable",
      "type": "function"
    }
  ],
  "bytecode": "0x60806040523480156200001157600080fd5b5060405162001e4a38038062001e4a8339810160408190526200003491620000c8565b6000805460ff1916905562000049336200006f565b600280546001600160a01b0319166001600160a01b0392909216919091179055620000fa565b600080546001600160a01b03838116610100818102610100600160a81b0319851617855560405193049190911692909183917f8be0079c531659141344cd1fd0a4f28419497f9722a3daafe3b4186f6b6457e091a35050565b600060208284031215620000db57600080fd5b81516001600160a01b0381168114620000f357600080fd5b9392505050565b611d40806200010a6000396000f3fe608060405234801561001057600080fd5b50600436106100c95760003560e01c80635c975abb116100815780638da5cb5b1161005b5780638da5cb5b14610170578063f022124814610199578063f2fde38b146101ac57600080fd5b80635c975abb1461014a578063715018a6146101605780638456cb591461016857600080fd5b80630d9005ae116100b25780630d9005ae1461010c5780631e2f4adc146101225780633f4ba83a1461014257600080fd5b8063068bcd8d146100ce57806308f747dd146100f7575b600080fd5b6100e16100dc3660046117c7565b6101bf565b6040516100ee919061182d565b60405180910390f35b61010a6101053660046117c7565b61052b565b005b610114610bfe565b6040519081526020016100ee565b6101356101303660046117c7565b610c0e565b6040516100ee9190611950565b61010a610cb0565b60005460ff1660405190151581526020016100ee565b61010a610cc2565b61010a610cd4565b60005461010090046001600160a01b03166040516001600160a01b0390911681526020016100ee565b6100e16101a7366004611a32565b610ce4565b61010a6101ba366004611b52565b611202565b610247604051806101a001604052806000815260200160006001600160a01b031681526020016060815260200160608152602001606081526020016060815260200160006001600160a01b031681526020016000151581526020016000815260200160006001600160a01b031681526020016000815260200160008152602001600081525090565b60008281526003602090815260409182902082516101a0810184528154815260018201546001600160a01b031692810192909252600281018054929391929184019161029290611b6f565b80601f01602080910402602001604051908101604052809291908181526020018280546102be90611b6f565b801561030b5780601f106102e05761010080835404028352916020019161030b565b820191906000526020600020905b8154815290600101906020018083116102ee57829003601f168201915b5050505050815260200160038201805461032490611b6f565b80601f016020809104026020016040519081016040528092919081815260200182805461035090611b6f565b801561039d5780601f106103725761010080835404028352916020019161039d565b820191906000526020600020905b81548152906001019060200180831161038057829003601f168201915b505050505081526020016004820180546103b690611b6f565b80601f01602080910402602001604051908101604052809291908181526020018280546103e290611b6f565b801561042f5780601f106104045761010080835404028352916020019161042f565b820191906000526020600020905b81548152906001019060200180831161041257829003601f168201915b5050505050815260200160058201805461044890611b6f565b80601f016020809104026020016040519081016040528092919081815260200182805461047490611b6f565b80156104c15780601f10610496576101008083540402835291602001916104c1565b820191906000526020600020905b8154815290600101906020018083116104a457829003601f168201915b505050918352505060068201546001600160a01b038082166020840152600160a01b90910460ff1615156040830152600783015460608301526008830154166080820152600982015460a0820152600a82015460c0820152600b9091015460e09091015292915050565b610533611292565b600081815260036020908152604080832081516101a0810183528154815260018201546001600160a01b031693810193909352600281018054919284019161057a90611b6f565b80601f01602080910402602001604051908101604052809291908181526020018280546105a690611b6f565b80156105f35780601f106105c8576101008083540402835291602001916105f3565b820191906000526020600020905b8154815290600101906020018083116105d657829003601f168201915b5050505050815260200160038201805461060c90611b6f565b80601f016020809104026020016040519081016040528092919081815260200182805461063890611b6f565b80156106855780601f1061065a57610100808354040283529160200191610685565b820191906000526020600020905b81548152906001019060200180831161066857829003601f168201915b5050505050815260200160048201805461069e90611b6f565b80601f01602080910402602001604051908101604052809291908181526020018280546106ca90611b6f565b80156107175780601f106106ec57610100808354040283529160200191610717565b820191906000526020600020905b8154815290600101906020018083116106fa57829003601f168201915b5050505050815260200160058201805461073090611b6f565b80601f016020809104026020016040519081016040528092919081815260200182805461075c90611b6f565b80156107a95780601f1061077e576101008083540402835291602001916107a9565b820191906000526020600020905b81548152906001019060200180831161078c57829003601f168201915b505050918352505060068201546001600160a01b038082166020840152600160a01b90910460ff1615156040830152600783015460608301526008830154166080820152600982015460a0820152600a82015460c0820152600b9091015460e09091015261014081015190915060000361086a5760405162461bcd60e51b815260206004820152601260248201527f506f6f6c20646f65736e2774206578697374000000000000000000000000000060448201526064015b60405180910390fd5b60e0810151156108bc5760405162461bcd60e51b815260206004820152601660248201527f506f6f6c20697320616c726561647920616374697665000000000000000000006044820152606401610861565b6002546040517fae22192e000000000000000000000000000000000000000000000000000000008152336004820152602481018490526001600160a01b0390911690600090829063ae22192e90604401606060405180830381865afa158015610929573d6000803e3d6000fd5b505050506040513d601f19601f8201168201806040525081019061094d9190611ba9565b6101008401518151919250146109cb5760405162461bcd60e51b815260206004820152602860248201527f4465706f736974656420616d6f756e7420646f6573206e6f74206d617463682060448201527f706f6f6c206361700000000000000000000000000000000000000000000000006064820152608401610861565b8261012001516001600160a01b031681602001516001600160a01b031614610a5b5760405162461bcd60e51b815260206004820152603960248201527f4465706f736974656420746f6b656e206164647265737320646f6573206e6f7460448201527f206d6174636820706f6f6c20746f6b656e2061646472657373000000000000006064820152608401610861565b600160e084018190526000858152600360209081526040918290208651815581870151938101805473ffffffffffffffffffffffffffffffffffffffff19166001600160a01b0390951694909417909355908501518051869392610ac692600285019291019061172e565b5060608201518051610ae291600384019160209091019061172e565b5060808201518051610afe91600484019160209091019061172e565b5060a08201518051610b1a91600584019160209091019061172e565b5060c082015160068201805460e08501511515600160a01b027fffffffffffffffffffffff0000000000000000000000000000000000000000009091166001600160a01b039384161717905561010083015160078301556101208301516008830180549190921673ffffffffffffffffffffffffffffffffffffffff199091161790556101408201516009820155610160820151600a82015561018090910151600b90910155604080518581523360208201527f4f7e91eea279f21fac65109d86b7d1dfceb5607c89313be67d8c2bf537f9ae0c910160405180910390a150505050565b6000610c0960015490565b905090565b6000818152600460205260409020805460609190610c2b90611b6f565b80601f0160208091040260200160405190810160405280929190818152602001828054610c5790611b6f565b8015610ca45780601f10610c7957610100808354040283529160200191610ca4565b820191906000526020600020905b815481529060010190602001808311610c8757829003601f168201915b50505050509050919050565b610cb86112e5565b610cc0611345565b565b610cca6112e5565b610cc06000611397565b610cdc6112e5565b610cc0611407565b610d6c604051806101a001604052806000815260200160006001600160a01b031681526020016060815260200160608152602001606081526020016060815260200160006001600160a01b031681526020016000151581526020016000815260200160006001600160a01b031681526020016000815260200160008152602001600081525090565b610d74611292565b60008c5111610dc55760405162461bcd60e51b815260206004820152601460248201527f4d697373696e67206d65746164617461205552490000000000000000000000006044820152606401610861565b60008711610e155760405162461bcd60e51b815260206004820152601060248201527f496e76616c696420706f6f6c20636170000000000000000000000000000000006044820152606401610861565b428211610e8a5760405162461bcd60e51b815260206004820152602960248201527f456e642064617465206d7573742062652061667465722063757272656e74206260448201527f6c6f636b2074696d6500000000000000000000000000000000000000000000006064820152608401610861565b60008411610eda5760405162461bcd60e51b815260206004820152601b60248201527f496e76616c6964206d696e696d616c20687970652072657761726400000000006044820152606401610861565b6000610ee560015490565b9050610efb818e8e8e8e8e8e8e8e8e8e8e611444565b610f05818e61167f565b610f13600180546001019055565b60008181526003602090815260409182902082516101a0810184528154815260018201546001600160a01b0316928101929092526002810180549293919291840191610f5e90611b6f565b80601f0160208091040260200160405190810160405280929190818152602001828054610f8a90611b6f565b8015610fd75780601f10610fac57610100808354040283529160200191610fd7565b820191906000526020600020905b815481529060010190602001808311610fba57829003601f168201915b50505050508152602001600382018054610ff090611b6f565b80601f016020809104026020016040519081016040528092919081815260200182805461101c90611b6f565b80156110695780601f1061103e57610100808354040283529160200191611069565b820191906000526020600020905b81548152906001019060200180831161104c57829003601f168201915b5050505050815260200160048201805461108290611b6f565b80601f01602080910402602001604051908101604052809291908181526020018280546110ae90611b6f565b80156110fb5780601f106110d0576101008083540402835291602001916110fb565b820191906000526020600020905b8154815290600101906020018083116110de57829003601f168201915b5050505050815260200160058201805461111490611b6f565b80601f016020809104026020016040519081016040528092919081815260200182805461114090611b6f565b801561118d5780601f106111625761010080835404028352916020019161118d565b820191906000526020600020905b81548152906001019060200180831161117057829003601f168201915b505050918352505060068201546001600160a01b038082166020840152600160a01b90910460ff1615156040830152600783015460608301526008830154166080820152600982015460a0820152600a82015460c0820152600b9091015460e0909101529d9c50505050505050505050505050565b61120a6112e5565b6001600160a01b0381166112865760405162461bcd60e51b815260206004820152602660248201527f4f776e61626c653a206e6577206f776e657220697320746865207a65726f206160448201527f64647265737300000000000000000000000000000000000000000000000000006064820152608401610861565b61128f81611397565b50565b60005460ff1615610cc05760405162461bcd60e51b815260206004820152601060248201527f5061757361626c653a20706175736564000000000000000000000000000000006044820152606401610861565b6000546001600160a01b03610100909104163314610cc05760405162461bcd60e51b815260206004820181905260248201527f4f776e61626c653a2063616c6c6572206973206e6f7420746865206f776e65726044820152606401610861565b61134d6116dc565b6000805460ff191690557f5db9ee0a495bf2e6ff9c91a7834c1ba4fdd244a5e8aa4e537bd38aeae4b073aa335b6040516001600160a01b03909116815260200160405180910390a1565b600080546001600160a01b038381166101008181027fffffffffffffffffffffff0000000000000000000000000000000000000000ff851617855560405193049190911692909183917f8be0079c531659141344cd1fd0a4f28419497f9722a3daafe3b4186f6b6457e091a35050565b61140f611292565b6000805460ff191660011790557f62e78cea01bee320cd4e420270b5ea74000d11b0c9f74754ebdbfc544b05a25861137a3390565b604051806101a001604052808d8152602001336001600160a01b031681526020018a81526020018b8152602001898152602001888152602001856001600160a01b03168152602001600015158152602001878152602001866001600160a01b0316815260200184815260200183815260200182815250600360008e81526020019081526020016000206000820151816000015560208201518160010160006101000a8154816001600160a01b0302191690836001600160a01b03160217905550604082015181600201908051906020019061152092919061172e565b506060820151805161153c91600384019160209091019061172e565b506080820151805161155891600484019160209091019061172e565b5060a0820151805161157491600584019160209091019061172e565b5060c08201518160060160006101000a8154816001600160a01b0302191690836001600160a01b0316021790555060e08201518160060160146101000a81548160ff02191690831515021790555061010082015181600701556101208201518160080160006101000a8154816001600160a01b0302191690836001600160a01b03160217905550610140820151816009015561016082015181600a015561018082015181600b01559050507f01431c1f2f75b37fa2a7a25ef6873d3c03e3415c0d960f795fbe1e2fff4939a68c338d8c8e8d8d60008e8e8e8e8e8e6040516116699e9d9c9b9a99989796959493929190611c0b565b60405180910390a1505050505050505050505050565b6000828152600460209081526040909120825161169e9284019061172e565b507f514efc4dbca754e32bfeb5dcb0c2d277953187ffd3b3eae36f7f9b5202e6f8ff82826040516116d0929190611ce9565b60405180910390a15050565b60005460ff16610cc05760405162461bcd60e51b815260206004820152601460248201527f5061757361626c653a206e6f74207061757365640000000000000000000000006044820152606401610861565b82805461173a90611b6f565b90600052602060002090601f01602090048101928261175c57600085556117a2565b82601f1061177557805160ff19168380011785556117a2565b828001600101855582156117a2579182015b828111156117a2578251825591602001919060010190611787565b506117ae9291506117b2565b5090565b5b808211156117ae57600081556001016117b3565b6000602082840312156117d957600080fd5b5035919050565b6000815180845260005b81811015611806576020818501810151868301820152016117ea565b81811115611818576000602083870101525b50601f01601f19169290920160200192915050565b60208152815160208201526000602083015161185460408401826001600160a01b03169052565b5060408301516101a08060608501526118716101c08501836117e0565b91506060850151601f198086850301608087015261188f84836117e0565b935060808701519150808685030160a08701526118ac84836117e0565b935060a08701519150808685030160c0870152506118ca83826117e0565b92505060c08501516118e760e08601826001600160a01b03169052565b5060e08501516101006118fd8187018315159052565b860151610120868101919091528601519050610140611926818701836001600160a01b03169052565b86015161016086810191909152860151610180808701919091529095015193019290925250919050565b60208152600061196360208301846117e0565b9392505050565b634e487b7160e01b600052604160045260246000fd5b600082601f83011261199157600080fd5b813567ffffffffffffffff808211156119ac576119ac61196a565b604051601f8301601f19908116603f011681019082821181831017156119d4576119d461196a565b816040528381528660208588010111156119ed57600080fd5b836020870160208301376000602085830101528094505050505092915050565b6001600160a01b038116811461128f57600080fd5b8035611a2d81611a0d565b919050565b60008060008060008060008060008060006101608c8e031215611a5457600080fd5b67ffffffffffffffff808d351115611a6b57600080fd5b611a788e8e358f01611980565b9b508060208e01351115611a8b57600080fd5b611a9b8e60208f01358f01611980565b9a508060408e01351115611aae57600080fd5b611abe8e60408f01358f01611980565b99508060608e01351115611ad157600080fd5b611ae18e60608f01358f01611980565b98508060808e01351115611af457600080fd5b50611b058d60808e01358e01611980565b965060a08c01359550611b1a60c08d01611a22565b9450611b2860e08d01611a22565b93506101008c013592506101208c013591506101408c013590509295989b509295989b9093969950565b600060208284031215611b6457600080fd5b813561196381611a0d565b600181811c90821680611b8357607f821691505b602082108103611ba357634e487b7160e01b600052602260045260246000fd5b50919050565b600060608284031215611bbb57600080fd5b6040516060810181811067ffffffffffffffff82111715611bde57611bde61196a565b604052825181526020830151611bf381611a0d565b60208201526040928301519281019290925250919050565b8e81526001600160a01b038e1660208201526101c060408201526000611c356101c083018f6117e0565b8281036060840152611c47818f6117e0565b90508281036080840152611c5b818e6117e0565b905082810360a0840152611c6f818d6117e0565b905082810360c0840152611c83818c6117e0565b915050611c9460e083018a15159052565b87610100830152611cb16101208301886001600160a01b03169052565b6001600160a01b0386166101408301528461016083015283610180830152826101a08301529f9e505050505050505050505050505050565b828152604060208201526000611d0260408301846117e0565b94935050505056fea26469706673582212205031a507657d0675c9ff56b4e7321ba9f69063b4ec8a09c336728e74059432ad64736f6c634300080e0033",
  "linkReferences": {},
  "deployedLinkReferences": {}
}