{
  "_format": "hh-sol-artifact-1",
  "contractName": "HypePool",
  "sourceName": "contracts/HypePool.sol",
  "abi": [
    {
      "inputs": [
        {
          "internalType": "address",
          "name": "escrowContractAddress",
          "type": "address"
        }
      ],
      "stateMutability": "nonpayable",
      "type": "constructor"
    },
    {
      "anonymous": false,
      "inputs": [
        {
          "indexed": true,
          "internalType": "address",
          "name": "previousOwner",
          "type": "address"
        },
        {
          "indexed": true,
          "internalType": "address",
          "name": "newOwner",
          "type": "address"
        }
      ],
      "name": "OwnershipTransferred",
      "type": "event"
    },
    {
      "anonymous": false,
      "inputs": [
        {
          "indexed": false,
          "internalType": "address",
          "name": "account",
          "type": "address"
        }
      ],
      "name": "Paused",
      "type": "event"
    },
    {
      "anonymous": false,
      "inputs": [
        {
          "indexed": false,
          "internalType": "uint256",
          "name": "poolId",
          "type": "uint256"
        },
        {
          "indexed": false,
          "internalType": "address",
          "name": "activator",
          "type": "address"
        }
      ],
      "name": "PoolActivated",
      "type": "event"
    },
    {
      "anonymous": false,
      "inputs": [
        {
          "indexed": false,
          "internalType": "uint256",
          "name": "poolId",
          "type": "uint256"
        },
        {
          "indexed": false,
          "internalType": "address",
          "name": "creator",
          "type": "address"
        },
        {
          "indexed": false,
          "internalType": "string",
          "name": "uri",
          "type": "string"
        },
        {
          "indexed": false,
          "internalType": "bool",
          "name": "active",
          "type": "bool"
        },
        {
          "indexed": false,
          "internalType": "string",
          "name": "title",
          "type": "string"
        },
        {
          "indexed": false,
          "internalType": "string",
          "name": "projectName",
          "type": "string"
        },
        {
          "indexed": false,
          "internalType": "string",
          "name": "tokenName",
          "type": "string"
        },
        {
          "indexed": false,
          "internalType": "string",
          "name": "word",
          "type": "string"
        },
        {
          "indexed": false,
          "internalType": "uint256",
          "name": "cap",
          "type": "uint256"
        },
        {
          "indexed": false,
          "internalType": "address",
          "name": "tokenAddress",
          "type": "address"
        },
        {
          "indexed": false,
          "internalType": "uint256",
          "name": "network",
          "type": "uint256"
        },
        {
          "indexed": false,
          "internalType": "uint256",
          "name": "minReward",
          "type": "uint256"
        },
        {
          "indexed": false,
          "internalType": "uint256",
          "name": "impressionReward",
          "type": "uint256"
        },
        {
          "indexed": false,
          "internalType": "uint256",
          "name": "endDate",
          "type": "uint256"
        }
      ],
      "name": "PoolCreated",
      "type": "event"
    },
    {
      "anonymous": false,
      "inputs": [
        {
          "indexed": false,
          "internalType": "uint256",
          "name": "poolId",
          "type": "uint256"
        },
        {
          "indexed": false,
          "internalType": "string",
          "name": "uri",
          "type": "string"
        }
      ],
      "name": "PoolUriSet",
      "type": "event"
    },
    {
      "anonymous": false,
      "inputs": [
        {
          "indexed": false,
          "internalType": "address",
          "name": "account",
          "type": "address"
        }
      ],
      "name": "Unpaused",
      "type": "event"
    },
    {
      "inputs": [
        {
          "internalType": "uint256",
          "name": "id",
          "type": "uint256"
        }
      ],
      "name": "activatePool",
      "outputs": [],
      "stateMutability": "nonpayable",
      "type": "function"
    },
    {
      "inputs": [
        {
          "internalType": "string",
          "name": "uri",
          "type": "string"
        },
        {
          "components": [
            {
              "internalType": "string",
              "name": "title",
              "type": "string"
            },
            {
              "internalType": "string",
              "name": "projectName",
              "type": "string"
            },
            {
              "internalType": "string",
              "name": "tokenName",
              "type": "string"
            },
            {
              "internalType": "string",
              "name": "word",
              "type": "string"
            }
          ],
          "internalType": "struct IHypePool.Details",
          "name": "details",
          "type": "tuple"
        },
        {
          "components": [
            {
              "internalType": "uint256",
              "name": "network",
              "type": "uint256"
            },
            {
              "internalType": "address",
              "name": "tokenAddress",
              "type": "address"
            },
            {
              "internalType": "uint256",
              "name": "minReward",
              "type": "uint256"
            },
            {
              "internalType": "uint256",
              "name": "impressionReward",
              "type": "uint256"
            },
            {
              "internalType": "uint256",
              "name": "cap",
              "type": "uint256"
            },
            {
              "internalType": "uint256",
              "name": "endDate",
              "type": "uint256"
            }
          ],
          "internalType": "struct IHypePool.Rewards",
          "name": "rewards",
          "type": "tuple"
        }
      ],
      "name": "createPool",
      "outputs": [
        {
          "components": [
            {
              "internalType": "uint256",
              "name": "id",
              "type": "uint256"
            },
            {
              "internalType": "address",
              "name": "creator",
              "type": "address"
            },
            {
              "internalType": "bool",
              "name": "active",
              "type": "bool"
            },
            {
              "components": [
                {
                  "internalType": "string",
                  "name": "title",
                  "type": "string"
                },
                {
                  "internalType": "string",
                  "name": "projectName",
                  "type": "string"
                },
                {
                  "internalType": "string",
                  "name": "tokenName",
                  "type": "string"
                },
                {
                  "internalType": "string",
                  "name": "word",
                  "type": "string"
                }
              ],
              "internalType": "struct IHypePool.Details",
              "name": "details",
              "type": "tuple"
            },
            {
              "components": [
                {
                  "internalType": "uint256",
                  "name": "network",
                  "type": "uint256"
                },
                {
                  "internalType": "address",
                  "name": "tokenAddress",
                  "type": "address"
                },
                {
                  "internalType": "uint256",
                  "name": "minReward",
                  "type": "uint256"
                },
                {
                  "internalType": "uint256",
                  "name": "impressionReward",
                  "type": "uint256"
                },
                {
                  "internalType": "uint256",
                  "name": "cap",
                  "type": "uint256"
                },
                {
                  "internalType": "uint256",
                  "name": "endDate",
                  "type": "uint256"
                }
              ],
              "internalType": "struct IHypePool.Rewards",
              "name": "rewards",
              "type": "tuple"
            }
          ],
          "internalType": "struct IHypePool.HypePool",
          "name": "",
          "type": "tuple"
        }
      ],
      "stateMutability": "nonpayable",
      "type": "function"
    },
    {
      "inputs": [],
      "name": "getCurrentIndex",
      "outputs": [
        {
          "internalType": "uint256",
          "name": "",
          "type": "uint256"
        }
      ],
      "stateMutability": "view",
      "type": "function"
    },
    {
      "inputs": [
        {
          "internalType": "uint256",
          "name": "tokenId",
          "type": "uint256"
        }
      ],
      "name": "getPool",
      "outputs": [
        {
          "components": [
            {
              "internalType": "uint256",
              "name": "id",
              "type": "uint256"
            },
            {
              "internalType": "address",
              "name": "creator",
              "type": "address"
            },
            {
              "internalType": "bool",
              "name": "active",
              "type": "bool"
            },
            {
              "components": [
                {
                  "internalType": "string",
                  "name": "title",
                  "type": "string"
                },
                {
                  "internalType": "string",
                  "name": "projectName",
                  "type": "string"
                },
                {
                  "internalType": "string",
                  "name": "tokenName",
                  "type": "string"
                },
                {
                  "internalType": "string",
                  "name": "word",
                  "type": "string"
                }
              ],
              "internalType": "struct IHypePool.Details",
              "name": "details",
              "type": "tuple"
            },
            {
              "components": [
                {
                  "internalType": "uint256",
                  "name": "network",
                  "type": "uint256"
                },
                {
                  "internalType": "address",
                  "name": "tokenAddress",
                  "type": "address"
                },
                {
                  "internalType": "uint256",
                  "name": "minReward",
                  "type": "uint256"
                },
                {
                  "internalType": "uint256",
                  "name": "impressionReward",
                  "type": "uint256"
                },
                {
                  "internalType": "uint256",
                  "name": "cap",
                  "type": "uint256"
                },
                {
                  "internalType": "uint256",
                  "name": "endDate",
                  "type": "uint256"
                }
              ],
              "internalType": "struct IHypePool.Rewards",
              "name": "rewards",
              "type": "tuple"
            }
          ],
          "internalType": "struct IHypePool.HypePool",
          "name": "",
          "type": "tuple"
        }
      ],
      "stateMutability": "view",
      "type": "function"
    },
    {
      "inputs": [],
      "name": "owner",
      "outputs": [
        {
          "internalType": "address",
          "name": "",
          "type": "address"
        }
      ],
      "stateMutability": "view",
      "type": "function"
    },
    {
      "inputs": [],
      "name": "pause",
      "outputs": [],
      "stateMutability": "nonpayable",
      "type": "function"
    },
    {
      "inputs": [],
      "name": "paused",
      "outputs": [
        {
          "internalType": "bool",
          "name": "",
          "type": "bool"
        }
      ],
      "stateMutability": "view",
      "type": "function"
    },
    {
      "inputs": [
        {
          "internalType": "uint256",
          "name": "tokenId",
          "type": "uint256"
        }
      ],
      "name": "poolURI",
      "outputs": [
        {
          "internalType": "string",
          "name": "",
          "type": "string"
        }
      ],
      "stateMutability": "view",
      "type": "function"
    },
    {
      "inputs": [],
      "name": "renounceOwnership",
      "outputs": [],
      "stateMutability": "nonpayable",
      "type": "function"
    },
    {
      "inputs": [
        {
          "internalType": "address",
          "name": "newOwner",
          "type": "address"
        }
      ],
      "name": "transferOwnership",
      "outputs": [],
      "stateMutability": "nonpayable",
      "type": "function"
    },
    {
      "inputs": [],
      "name": "unpause",
      "outputs": [],
      "stateMutability": "nonpayable",
      "type": "function"
    }
  ],
  "bytecode": "0x60806040523480156200001157600080fd5b5060405162001e9338038062001e938339810160408190526200003491620000c8565b6000805460ff1916905562000049336200006f565b600280546001600160a01b0319166001600160a01b0392909216919091179055620000fa565b600080546001600160a01b03838116610100818102610100600160a81b0319851617855560405193049190911692909183917f8be0079c531659141344cd1fd0a4f28419497f9722a3daafe3b4186f6b6457e091a35050565b600060208284031215620000db57600080fd5b81516001600160a01b0381168114620000f357600080fd5b9392505050565b611d89806200010a6000396000f3fe608060405234801561001057600080fd5b50600436106100c95760003560e01c80635c975abb116100815780638456cb591161005b5780638456cb591461017b5780638da5cb5b14610183578063f2fde38b146101ac57600080fd5b80635c975abb1461014a5780636e6c055814610160578063715018a61461017357600080fd5b80630d9005ae116100b25780630d9005ae1461010c5780631e2f4adc146101225780633f4ba83a1461014257600080fd5b8063068bcd8d146100ce57806308f747dd146100f7575b600080fd5b6100e16100dc3660046117aa565b6101bf565b6040516100ee9190611810565b60405180910390f35b61010a6101053660046117aa565b6104c9565b005b610114610bbe565b6040519081526020016100ee565b6101356101303660046117aa565b610bce565b6040516100ee919061191a565b61010a610c70565b60005460ff1660405190151581526020016100ee565b6100e161016e366004611a98565b610c82565b61010a61118e565b61010a6111a0565b60005461010090046001600160a01b03166040516001600160a01b0390911681526020016100ee565b61010a6101ba366004611baa565b6111b0565b6101c761166f565b600082815260036020908152604091829020825160a0810184528154815260018201546001600160a01b03811693820193909352600160a01b90920460ff1615158284015282516080810190935260028101805492939192606085019291908290829061023390611bc7565b80601f016020809104026020016040519081016040528092919081815260200182805461025f90611bc7565b80156102ac5780601f10610281576101008083540402835291602001916102ac565b820191906000526020600020905b81548152906001019060200180831161028f57829003601f168201915b505050505081526020016001820180546102c590611bc7565b80601f01602080910402602001604051908101604052809291908181526020018280546102f190611bc7565b801561033e5780601f106103135761010080835404028352916020019161033e565b820191906000526020600020905b81548152906001019060200180831161032157829003601f168201915b5050505050815260200160028201805461035790611bc7565b80601f016020809104026020016040519081016040528092919081815260200182805461038390611bc7565b80156103d05780601f106103a5576101008083540402835291602001916103d0565b820191906000526020600020905b8154815290600101906020018083116103b357829003601f168201915b505050505081526020016003820180546103e990611bc7565b80601f016020809104026020016040519081016040528092919081815260200182805461041590611bc7565b80156104625780601f1061043757610100808354040283529160200191610462565b820191906000526020600020905b81548152906001019060200180831161044557829003601f168201915b5050509190925250505081526040805160c0810182526006840154815260078401546001600160a01b031660208281019190915260088501549282019290925260098401546060820152600a8401546080820152600b9093015460a0840152015292915050565b6104d1611240565b6000818152600360209081526040808320815160a0810183528154815260018201546001600160a01b03811694820194909452600160a01b90930460ff16151583830152815160808101909252600281018054919260608501929091908290829061053b90611bc7565b80601f016020809104026020016040519081016040528092919081815260200182805461056790611bc7565b80156105b45780601f10610589576101008083540402835291602001916105b4565b820191906000526020600020905b81548152906001019060200180831161059757829003601f168201915b505050505081526020016001820180546105cd90611bc7565b80601f01602080910402602001604051908101604052809291908181526020018280546105f990611bc7565b80156106465780601f1061061b57610100808354040283529160200191610646565b820191906000526020600020905b81548152906001019060200180831161062957829003601f168201915b5050505050815260200160028201805461065f90611bc7565b80601f016020809104026020016040519081016040528092919081815260200182805461068b90611bc7565b80156106d85780601f106106ad576101008083540402835291602001916106d8565b820191906000526020600020905b8154815290600101906020018083116106bb57829003601f168201915b505050505081526020016003820180546106f190611bc7565b80601f016020809104026020016040519081016040528092919081815260200182805461071d90611bc7565b801561076a5780601f1061073f5761010080835404028352916020019161076a565b820191906000526020600020905b81548152906001019060200180831161074d57829003601f168201915b5050509190925250505081526040805160c0810182526006840154815260078401546001600160a01b031660208281019190915260088501548284015260098501546060830152600a850154608080840191909152600b9095015460a08301529092019190915290820151015190915060000361082e5760405162461bcd60e51b815260206004820152601260248201527f506f6f6c20646f65736e2774206578697374000000000000000000000000000060448201526064015b60405180910390fd5b6040810151156108805760405162461bcd60e51b815260206004820152601660248201527f506f6f6c20697320616c726561647920616374697665000000000000000000006044820152606401610825565b6002546040517fae22192e000000000000000000000000000000000000000000000000000000008152336004820152602481018490526001600160a01b0390911690600090829063ae22192e90604401606060405180830381865afa1580156108ed573d6000803e3d6000fd5b505050506040513d601f19601f820116820180604052508101906109119190611c01565b60808085015101518151919250146109915760405162461bcd60e51b815260206004820152602860248201527f4465706f736974656420616d6f756e7420646f6573206e6f74206d617463682060448201527f706f6f6c206361700000000000000000000000000000000000000000000000006064820152608401610825565b8260800151602001516001600160a01b031681602001516001600160a01b031614610a245760405162461bcd60e51b815260206004820152603960248201527f4465706f736974656420746f6b656e206164647265737320646f6573206e6f7460448201527f206d6174636820706f6f6c20746f6b656e2061646472657373000000000000006064820152608401610825565b600160408085018281526000878152600360209081529290208651815582870151938101805492511515600160a01b0274ffffffffffffffffffffffffffffffffffffffffff199093166001600160a01b0390951694909417919091179092556060850151805180518794936002850192610aa59284929190910190611711565b506020828101518051610abe9260018501920190611711565b5060408201518051610ada916002840191602090910190611711565b5060608201518051610af6916003840191602090910190611711565b5050506080918201518051600683015560208101516007830180546001600160a01b039092167fffffffffffffffffffffffff000000000000000000000000000000000000000090921691909117905560408082015160088401556060820151600984015592810151600a83015560a00151600b90910155517f4f7e91eea279f21fac65109d86b7d1dfceb5607c89313be67d8c2bf537f9ae0c90610bb090869033909182526001600160a01b0316602082015260400190565b60405180910390a150505050565b6000610bc960015490565b905090565b6000818152600460205260409020805460609190610beb90611bc7565b80601f0160208091040260200160405190810160405280929190818152602001828054610c1790611bc7565b8015610c645780601f10610c3957610100808354040283529160200191610c64565b820191906000526020600020905b815481529060010190602001808311610c4757829003601f168201915b50505050509050919050565b610c78611293565b610c806112f3565b565b610c8a61166f565b610c92611240565b6000845111610ce35760405162461bcd60e51b815260206004820152601460248201527f4d697373696e67206d65746164617461205552490000000000000000000000006044820152606401610825565b6000826080015111610d375760405162461bcd60e51b815260206004820152601060248201527f496e76616c696420706f6f6c20636170000000000000000000000000000000006044820152606401610825565b428260a0015111610db05760405162461bcd60e51b815260206004820152602960248201527f456e642064617465206d7573742062652061667465722063757272656e74206260448201527f6c6f636b2074696d6500000000000000000000000000000000000000000000006064820152608401610825565b6000826040015111610e045760405162461bcd60e51b815260206004820152601b60248201527f496e76616c6964206d696e696d616c20687970652072657761726400000000006044820152606401610825565b6000826060015111610e585760405162461bcd60e51b815260206004820152601e60248201527f496e76616c696420696d7072657373696f6e20687970652072657761726400006044820152606401610825565b6000610e6360015490565b9050610e7181868686611345565b610e7b8186611513565b610e89600180546001019055565b600081815260036020908152604091829020825160a0810184528154815260018201546001600160a01b03811693820193909352600160a01b90920460ff16151582840152825160808101909352600281018054929391926060850192919082908290610ef590611bc7565b80601f0160208091040260200160405190810160405280929190818152602001828054610f2190611bc7565b8015610f6e5780601f10610f4357610100808354040283529160200191610f6e565b820191906000526020600020905b815481529060010190602001808311610f5157829003601f168201915b50505050508152602001600182018054610f8790611bc7565b80601f0160208091040260200160405190810160405280929190818152602001828054610fb390611bc7565b80156110005780601f10610fd557610100808354040283529160200191611000565b820191906000526020600020905b815481529060010190602001808311610fe357829003601f168201915b5050505050815260200160028201805461101990611bc7565b80601f016020809104026020016040519081016040528092919081815260200182805461104590611bc7565b80156110925780601f1061106757610100808354040283529160200191611092565b820191906000526020600020905b81548152906001019060200180831161107557829003601f168201915b505050505081526020016003820180546110ab90611bc7565b80601f01602080910402602001604051908101604052809291908181526020018280546110d790611bc7565b80156111245780601f106110f957610100808354040283529160200191611124565b820191906000526020600020905b81548152906001019060200180831161110757829003601f168201915b5050509190925250505081526040805160c0810182526006840154815260078401546001600160a01b031660208083019190915260088501549282019290925260098401546060820152600a8401546080820152600b9093015460a0840152015295945050505050565b611196611293565b610c806000611570565b6111a8611293565b610c806115e0565b6111b8611293565b6001600160a01b0381166112345760405162461bcd60e51b815260206004820152602660248201527f4f776e61626c653a206e6577206f776e657220697320746865207a65726f206160448201527f64647265737300000000000000000000000000000000000000000000000000006064820152608401610825565b61123d81611570565b50565b60005460ff1615610c805760405162461bcd60e51b815260206004820152601060248201527f5061757361626c653a20706175736564000000000000000000000000000000006044820152606401610825565b6000546001600160a01b03610100909104163314610c805760405162461bcd60e51b815260206004820181905260248201527f4f776e61626c653a2063616c6c6572206973206e6f7420746865206f776e65726044820152606401610825565b6112fb61161d565b6000805460ff191690557f5db9ee0a495bf2e6ff9c91a7834c1ba4fdd244a5e8aa4e537bd38aeae4b073aa335b6040516001600160a01b03909116815260200160405180910390a1565b6040805160a081018252858152336020808301918252600083850181815260608501888152608086018890528a8352600384529590912084518155925160018401805492511515600160a01b0274ffffffffffffffffffffffffffffffffffffffffff199093166001600160a01b03929092169190911791909117905592518051805193949293919260028501926113e09284920190611711565b5060208281015180516113f99260018501920190611711565b5060408201518051611415916002840191602090910190611711565b5060608201518051611431916003840191602090910190611711565b5050506080820151816006016000820151816000015560208201518160010160006101000a8154816001600160a01b0302191690836001600160a01b0316021790555060408201518160020155606082015181600301556080820151816004015560a0820151816005015550509050507f7141f420f439b1eeb9440a64c0c54d74982ec367ca535b5a3a878b490bfce43a8433856000866000015187602001518860400151896060015189608001518a602001518b600001518c604001518d606001518e60a00151604051610bb09e9d9c9b9a99989796959493929190611c63565b6000828152600460209081526040909120825161153292840190611711565b507f514efc4dbca754e32bfeb5dcb0c2d277953187ffd3b3eae36f7f9b5202e6f8ff8282604051611564929190611d32565b60405180910390a15050565b600080546001600160a01b038381166101008181027fffffffffffffffffffffff0000000000000000000000000000000000000000ff851617855560405193049190911692909183917f8be0079c531659141344cd1fd0a4f28419497f9722a3daafe3b4186f6b6457e091a35050565b6115e8611240565b6000805460ff191660011790557f62e78cea01bee320cd4e420270b5ea74000d11b0c9f74754ebdbfc544b05a2586113283390565b60005460ff16610c805760405162461bcd60e51b815260206004820152601460248201527f5061757361626c653a206e6f74207061757365640000000000000000000000006044820152606401610825565b6040518060a001604052806000815260200160006001600160a01b031681526020016000151581526020016116c56040518060800160405280606081526020016060815260200160608152602001606081525090565b815260200161170c6040518060c001604052806000815260200160006001600160a01b03168152602001600081526020016000815260200160008152602001600081525090565b905290565b82805461171d90611bc7565b90600052602060002090601f01602090048101928261173f5760008555611785565b82601f1061175857805160ff1916838001178555611785565b82800160010185558215611785579182015b8281111561178557825182559160200191906001019061176a565b50611791929150611795565b5090565b5b808211156117915760008155600101611796565b6000602082840312156117bc57600080fd5b5035919050565b6000815180845260005b818110156117e9576020818501810151868301820152016117cd565b818111156117fb576000602083870101525b50601f01601f19169290920160200192915050565b60208152815160208201526001600160a01b036020830151166040820152604082015115156060820152600060608301516101406080840152805160806101608501526118616101e08501826117c3565b9050602082015161015f19808684030161018087015261188183836117c3565b92506040840151915080868403016101a087015261189f83836117c3565b92506060840151935080868403016101c087015250506118bf81836117c3565b915050608084015161191260a0850182805182526001600160a01b03602082015116602083015260408101516040830152606081015160608301526080810151608083015260a081015160a08301525050565b509392505050565b60208152600061192d60208301846117c3565b9392505050565b634e487b7160e01b600052604160045260246000fd5b6040516080810167ffffffffffffffff8111828210171561196d5761196d611934565b60405290565b600082601f83011261198457600080fd5b813567ffffffffffffffff8082111561199f5761199f611934565b604051601f8301601f19908116603f011681019082821181831017156119c7576119c7611934565b816040528381528660208588010111156119e057600080fd5b836020870160208301376000602085830101528094505050505092915050565b6001600160a01b038116811461123d57600080fd5b600060c08284031215611a2757600080fd5b60405160c0810181811067ffffffffffffffff82111715611a4a57611a4a611934565b604052823581529050806020830135611a6281611a00565b8060208301525060408301356040820152606083013560608201526080830135608082015260a083013560a08201525092915050565b60008060006101008486031215611aae57600080fd5b833567ffffffffffffffff80821115611ac657600080fd5b611ad287838801611973565b94506020860135915080821115611ae857600080fd5b9085019060808288031215611afc57600080fd5b611b0461194a565b823582811115611b1357600080fd5b611b1f89828601611973565b825250602083013582811115611b3457600080fd5b611b4089828601611973565b602083015250604083013582811115611b5857600080fd5b611b6489828601611973565b604083015250606083013582811115611b7c57600080fd5b611b8889828601611973565b606083015250809450505050611ba18560408601611a15565b90509250925092565b600060208284031215611bbc57600080fd5b813561192d81611a00565b600181811c90821680611bdb57607f821691505b602082108103611bfb57634e487b7160e01b600052602260045260246000fd5b50919050565b600060608284031215611c1357600080fd5b6040516060810181811067ffffffffffffffff82111715611c3657611c36611934565b604052825181526020830151611c4b81611a00565b60208201526040928301519281019290925250919050565b8e81526001600160a01b038e1660208201526101c060408201526000611c8d6101c083018f6117c3565b8d151560608401528281036080840152611ca7818e6117c3565b905082810360a0840152611cbb818d6117c3565b905082810360c0840152611ccf818c6117c3565b905082810360e0840152611ce3818b6117c3565b91505087610100830152611d036101208301886001600160a01b03169052565b856101408301528461016083015283610180830152826101a08301529f9e505050505050505050505050505050565b828152604060208201526000611d4b60408301846117c3565b94935050505056fea264697066735822122031a6ef85fa69a0cab5a98c935739b0853a28019b1fe1761a71603e17f859fcfb64736f6c634300080e0033",
  "linkReferences": {},
  "deployedLinkReferences": {}
}