{
  "_format": "hh-sol-artifact-1",
  "contractName": "HypePool",
  "sourceName": "contracts/HypePool.sol",
  "abi": [
    {
      "inputs": [
        {
          "internalType": "address",
          "name": "escrowContractAddress",
          "type": "address"
        },
        {
          "internalType": "address",
          "name": "activator",
          "type": "address"
        }
      ],
      "stateMutability": "nonpayable",
      "type": "constructor"
    },
    {
      "anonymous": false,
      "inputs": [
        {
          "indexed": true,
          "internalType": "address",
          "name": "previousOwner",
          "type": "address"
        },
        {
          "indexed": true,
          "internalType": "address",
          "name": "newOwner",
          "type": "address"
        }
      ],
      "name": "OwnershipTransferred",
      "type": "event"
    },
    {
      "anonymous": false,
      "inputs": [
        {
          "indexed": false,
          "internalType": "address",
          "name": "account",
          "type": "address"
        }
      ],
      "name": "Paused",
      "type": "event"
    },
    {
      "anonymous": false,
      "inputs": [
        {
          "indexed": false,
          "internalType": "bytes32",
          "name": "poolId",
          "type": "bytes32"
        },
        {
          "indexed": false,
          "internalType": "address",
          "name": "activator",
          "type": "address"
        },
        {
          "indexed": false,
          "internalType": "uint256",
          "name": "startDate",
          "type": "uint256"
        },
        {
          "indexed": false,
          "internalType": "uint256",
          "name": "endDate",
          "type": "uint256"
        }
      ],
      "name": "PoolActivated",
      "type": "event"
    },
    {
      "anonymous": false,
      "inputs": [
        {
          "indexed": false,
          "internalType": "bytes32",
          "name": "poolId",
          "type": "bytes32"
        },
        {
          "indexed": false,
          "internalType": "address",
          "name": "creator",
          "type": "address"
        },
        {
          "indexed": false,
          "internalType": "string",
          "name": "uri",
          "type": "string"
        }
      ],
      "name": "PoolCreated",
      "type": "event"
    },
    {
      "anonymous": false,
      "inputs": [
        {
          "indexed": false,
          "internalType": "bytes32",
          "name": "poolId",
          "type": "bytes32"
        },
        {
          "indexed": false,
          "internalType": "address",
          "name": "deactivator",
          "type": "address"
        }
      ],
      "name": "PoolDeactivated",
      "type": "event"
    },
    {
      "anonymous": false,
      "inputs": [
        {
          "indexed": false,
          "internalType": "bytes32",
          "name": "poolId",
          "type": "bytes32"
        },
        {
          "indexed": false,
          "internalType": "string",
          "name": "title",
          "type": "string"
        },
        {
          "indexed": false,
          "internalType": "string",
          "name": "projectName",
          "type": "string"
        },
        {
          "indexed": false,
          "internalType": "string",
          "name": "tokenName",
          "type": "string"
        },
        {
          "indexed": false,
          "internalType": "string",
          "name": "campaignWord",
          "type": "string"
        }
      ],
      "name": "PoolDetailsCreated",
      "type": "event"
    },
    {
      "anonymous": false,
      "inputs": [
        {
          "indexed": false,
          "internalType": "bytes32",
          "name": "poolId",
          "type": "bytes32"
        },
        {
          "indexed": false,
          "internalType": "uint256",
          "name": "network",
          "type": "uint256"
        },
        {
          "indexed": false,
          "internalType": "address",
          "name": "tokenAddress",
          "type": "address"
        },
        {
          "indexed": false,
          "internalType": "uint256",
          "name": "impressionReward",
          "type": "uint256"
        },
        {
          "indexed": false,
          "internalType": "uint256",
          "name": "cap",
          "type": "uint256"
        },
        {
          "indexed": false,
          "internalType": "uint256",
          "name": "startDate",
          "type": "uint256"
        },
        {
          "indexed": false,
          "internalType": "uint256",
          "name": "endDate",
          "type": "uint256"
        },
        {
          "indexed": false,
          "internalType": "uint256",
          "name": "duration",
          "type": "uint256"
        },
        {
          "indexed": false,
          "internalType": "uint256[]",
          "name": "leaderRewards",
          "type": "uint256[]"
        }
      ],
      "name": "PoolRewardsCreated",
      "type": "event"
    },
    {
      "anonymous": false,
      "inputs": [
        {
          "indexed": true,
          "internalType": "bytes32",
          "name": "role",
          "type": "bytes32"
        },
        {
          "indexed": true,
          "internalType": "address",
          "name": "account",
          "type": "address"
        }
      ],
      "name": "RoleGranted",
      "type": "event"
    },
    {
      "anonymous": false,
      "inputs": [
        {
          "indexed": true,
          "internalType": "bytes32",
          "name": "role",
          "type": "bytes32"
        },
        {
          "indexed": true,
          "internalType": "address",
          "name": "account",
          "type": "address"
        }
      ],
      "name": "RoleRevoked",
      "type": "event"
    },
    {
      "anonymous": false,
      "inputs": [
        {
          "indexed": false,
          "internalType": "address",
          "name": "account",
          "type": "address"
        }
      ],
      "name": "Unpaused",
      "type": "event"
    },
    {
      "inputs": [],
      "name": "ACTIVATOR_ROLE",
      "outputs": [
        {
          "internalType": "bytes32",
          "name": "",
          "type": "bytes32"
        }
      ],
      "stateMutability": "view",
      "type": "function"
    },
    {
      "inputs": [
        {
          "internalType": "bytes32",
          "name": "uuid",
          "type": "bytes32"
        }
      ],
      "name": "activatePool",
      "outputs": [],
      "stateMutability": "nonpayable",
      "type": "function"
    },
    {
      "inputs": [
        {
          "internalType": "bytes32",
          "name": "role",
          "type": "bytes32"
        },
        {
          "internalType": "address",
          "name": "account",
          "type": "address"
        }
      ],
      "name": "addRole",
      "outputs": [],
      "stateMutability": "nonpayable",
      "type": "function"
    },
    {
      "inputs": [
        {
          "internalType": "string",
          "name": "uri",
          "type": "string"
        },
        {
          "components": [
            {
              "internalType": "string",
              "name": "title",
              "type": "string"
            },
            {
              "internalType": "string",
              "name": "projectName",
              "type": "string"
            },
            {
              "internalType": "string",
              "name": "tokenName",
              "type": "string"
            },
            {
              "internalType": "string",
              "name": "campaignWord",
              "type": "string"
            }
          ],
          "internalType": "struct IHypePool.Details",
          "name": "details",
          "type": "tuple"
        },
        {
          "components": [
            {
              "internalType": "uint256",
              "name": "network",
              "type": "uint256"
            },
            {
              "internalType": "address",
              "name": "tokenAddress",
              "type": "address"
            },
            {
              "internalType": "uint256",
              "name": "impressionReward",
              "type": "uint256"
            },
            {
              "internalType": "uint256",
              "name": "cap",
              "type": "uint256"
            },
            {
              "internalType": "uint256",
              "name": "startDate",
              "type": "uint256"
            },
            {
              "internalType": "uint256",
              "name": "endDate",
              "type": "uint256"
            },
            {
              "internalType": "uint256",
              "name": "duration",
              "type": "uint256"
            }
          ],
          "internalType": "struct IHypePool.Rewards",
          "name": "rewards",
          "type": "tuple"
        },
        {
          "internalType": "uint256[]",
          "name": "leaderRewards",
          "type": "uint256[]"
        }
      ],
      "name": "createPool",
      "outputs": [
        {
          "components": [
            {
              "internalType": "bytes32",
              "name": "id",
              "type": "bytes32"
            },
            {
              "internalType": "address",
              "name": "creator",
              "type": "address"
            },
            {
              "internalType": "string",
              "name": "uri",
              "type": "string"
            },
            {
              "components": [
                {
                  "internalType": "string",
                  "name": "title",
                  "type": "string"
                },
                {
                  "internalType": "string",
                  "name": "projectName",
                  "type": "string"
                },
                {
                  "internalType": "string",
                  "name": "tokenName",
                  "type": "string"
                },
                {
                  "internalType": "string",
                  "name": "campaignWord",
                  "type": "string"
                }
              ],
              "internalType": "struct IHypePool.Details",
              "name": "details",
              "type": "tuple"
            },
            {
              "components": [
                {
                  "internalType": "uint256",
                  "name": "network",
                  "type": "uint256"
                },
                {
                  "internalType": "address",
                  "name": "tokenAddress",
                  "type": "address"
                },
                {
                  "internalType": "uint256",
                  "name": "impressionReward",
                  "type": "uint256"
                },
                {
                  "internalType": "uint256",
                  "name": "cap",
                  "type": "uint256"
                },
                {
                  "internalType": "uint256",
                  "name": "startDate",
                  "type": "uint256"
                },
                {
                  "internalType": "uint256",
                  "name": "endDate",
                  "type": "uint256"
                },
                {
                  "internalType": "uint256",
                  "name": "duration",
                  "type": "uint256"
                }
              ],
              "internalType": "struct IHypePool.Rewards",
              "name": "rewards",
              "type": "tuple"
            },
            {
              "internalType": "uint256[]",
              "name": "leaderRewards",
              "type": "uint256[]"
            }
          ],
          "internalType": "struct IHypePool.HypePool",
          "name": "",
          "type": "tuple"
        }
      ],
      "stateMutability": "nonpayable",
      "type": "function"
    },
    {
      "inputs": [
        {
          "internalType": "bytes32",
          "name": "uuid",
          "type": "bytes32"
        }
      ],
      "name": "deactivatePool",
      "outputs": [],
      "stateMutability": "nonpayable",
      "type": "function"
    },
    {
      "inputs": [
        {
          "internalType": "bytes32",
          "name": "uuid",
          "type": "bytes32"
        }
      ],
      "name": "doesPoolExist",
      "outputs": [
        {
          "internalType": "bool",
          "name": "",
          "type": "bool"
        }
      ],
      "stateMutability": "view",
      "type": "function"
    },
    {
      "inputs": [],
      "name": "getCurrentIndex",
      "outputs": [
        {
          "internalType": "bytes32",
          "name": "",
          "type": "bytes32"
        }
      ],
      "stateMutability": "view",
      "type": "function"
    },
    {
      "inputs": [
        {
          "internalType": "bytes32",
          "name": "uuid",
          "type": "bytes32"
        }
      ],
      "name": "getPool",
      "outputs": [
        {
          "components": [
            {
              "internalType": "bytes32",
              "name": "id",
              "type": "bytes32"
            },
            {
              "internalType": "address",
              "name": "creator",
              "type": "address"
            },
            {
              "internalType": "string",
              "name": "uri",
              "type": "string"
            },
            {
              "components": [
                {
                  "internalType": "string",
                  "name": "title",
                  "type": "string"
                },
                {
                  "internalType": "string",
                  "name": "projectName",
                  "type": "string"
                },
                {
                  "internalType": "string",
                  "name": "tokenName",
                  "type": "string"
                },
                {
                  "internalType": "string",
                  "name": "campaignWord",
                  "type": "string"
                }
              ],
              "internalType": "struct IHypePool.Details",
              "name": "details",
              "type": "tuple"
            },
            {
              "components": [
                {
                  "internalType": "uint256",
                  "name": "network",
                  "type": "uint256"
                },
                {
                  "internalType": "address",
                  "name": "tokenAddress",
                  "type": "address"
                },
                {
                  "internalType": "uint256",
                  "name": "impressionReward",
                  "type": "uint256"
                },
                {
                  "internalType": "uint256",
                  "name": "cap",
                  "type": "uint256"
                },
                {
                  "internalType": "uint256",
                  "name": "startDate",
                  "type": "uint256"
                },
                {
                  "internalType": "uint256",
                  "name": "endDate",
                  "type": "uint256"
                },
                {
                  "internalType": "uint256",
                  "name": "duration",
                  "type": "uint256"
                }
              ],
              "internalType": "struct IHypePool.Rewards",
              "name": "rewards",
              "type": "tuple"
            },
            {
              "internalType": "uint256[]",
              "name": "leaderRewards",
              "type": "uint256[]"
            }
          ],
          "internalType": "struct IHypePool.HypePool",
          "name": "",
          "type": "tuple"
        }
      ],
      "stateMutability": "view",
      "type": "function"
    },
    {
      "inputs": [
        {
          "internalType": "bytes32",
          "name": "uuid",
          "type": "bytes32"
        }
      ],
      "name": "getPoolRewards",
      "outputs": [
        {
          "components": [
            {
              "internalType": "uint256",
              "name": "network",
              "type": "uint256"
            },
            {
              "internalType": "address",
              "name": "tokenAddress",
              "type": "address"
            },
            {
              "internalType": "uint256",
              "name": "impressionReward",
              "type": "uint256"
            },
            {
              "internalType": "uint256",
              "name": "cap",
              "type": "uint256"
            },
            {
              "internalType": "uint256",
              "name": "startDate",
              "type": "uint256"
            },
            {
              "internalType": "uint256",
              "name": "endDate",
              "type": "uint256"
            },
            {
              "internalType": "uint256",
              "name": "duration",
              "type": "uint256"
            }
          ],
          "internalType": "struct IHypePool.Rewards",
          "name": "",
          "type": "tuple"
        }
      ],
      "stateMutability": "view",
      "type": "function"
    },
    {
      "inputs": [
        {
          "internalType": "bytes32",
          "name": "role",
          "type": "bytes32"
        },
        {
          "internalType": "address",
          "name": "account",
          "type": "address"
        }
      ],
      "name": "hasRole",
      "outputs": [
        {
          "internalType": "bool",
          "name": "",
          "type": "bool"
        }
      ],
      "stateMutability": "view",
      "type": "function"
    },
    {
      "inputs": [
        {
          "internalType": "bytes32",
          "name": "uuid",
          "type": "bytes32"
        }
      ],
      "name": "isActive",
      "outputs": [
        {
          "internalType": "bool",
          "name": "",
          "type": "bool"
        }
      ],
      "stateMutability": "view",
      "type": "function"
    },
    {
      "inputs": [
        {
          "internalType": "bytes32",
          "name": "uuid",
          "type": "bytes32"
        }
      ],
      "name": "isExpired",
      "outputs": [
        {
          "internalType": "bool",
          "name": "",
          "type": "bool"
        }
      ],
      "stateMutability": "view",
      "type": "function"
    },
    {
      "inputs": [
        {
          "internalType": "bytes32",
          "name": "uuid",
          "type": "bytes32"
        }
      ],
      "name": "isGracePeriod",
      "outputs": [
        {
          "internalType": "bool",
          "name": "",
          "type": "bool"
        }
      ],
      "stateMutability": "view",
      "type": "function"
    },
    {
      "inputs": [],
      "name": "owner",
      "outputs": [
        {
          "internalType": "address",
          "name": "",
          "type": "address"
        }
      ],
      "stateMutability": "view",
      "type": "function"
    },
    {
      "inputs": [],
      "name": "pause",
      "outputs": [],
      "stateMutability": "nonpayable",
      "type": "function"
    },
    {
      "inputs": [],
      "name": "paused",
      "outputs": [
        {
          "internalType": "bool",
          "name": "",
          "type": "bool"
        }
      ],
      "stateMutability": "view",
      "type": "function"
    },
    {
      "inputs": [
        {
          "internalType": "bytes32",
          "name": "uuid",
          "type": "bytes32"
        }
      ],
      "name": "poolURI",
      "outputs": [
        {
          "internalType": "string",
          "name": "",
          "type": "string"
        }
      ],
      "stateMutability": "view",
      "type": "function"
    },
    {
      "inputs": [],
      "name": "renounceOwnership",
      "outputs": [],
      "stateMutability": "nonpayable",
      "type": "function"
    },
    {
      "inputs": [
        {
          "internalType": "bytes32",
          "name": "role",
          "type": "bytes32"
        },
        {
          "internalType": "address",
          "name": "account",
          "type": "address"
        }
      ],
      "name": "revokeRole",
      "outputs": [],
      "stateMutability": "nonpayable",
      "type": "function"
    },
    {
      "inputs": [
        {
          "internalType": "address",
          "name": "newOwner",
          "type": "address"
        }
      ],
      "name": "transferOwnership",
      "outputs": [],
      "stateMutability": "nonpayable",
      "type": "function"
    },
    {
      "inputs": [],
      "name": "unpause",
      "outputs": [],
      "stateMutability": "nonpayable",
      "type": "function"
    }
  ],
  "bytecode": "0x6080346200020b5762003721601f38829003908101601f19168301906001600160401b038211848310176200021057808491604094859485528339810103126200020b576200005c6020620000548462000226565b930162000226565b600580546001600160a81b0319811633600881811b610100600160a81b031692909217909355845160009690946001600160a01b0394909385931c83167f8be0079c531659141344cd1fd0a4f28419497f9722a3daafe3b4186f6b6457e08980a316928315620001b25750169182156200015e57829060018060a01b0319928360025416176002557f2ae6a113c0ed5b78a53413ffbb7679881f11145ccfba4fb92e863dfcd5a1d2f37fec5aad7bdface20c35bc02d6d2d5760df981277427368525d634f4e2603ea1929182875286602052808720848852602052808720600160ff19825416179055519580a360015416176001556134e590816200023c8239f35b5162461bcd60e51b815260206004820152602860248201527f416374697661746f7220616464726573732063616e6e6f74206265207a65726f604482015267206164647265737360c01b6064820152608490fd5b62461bcd60e51b815260206004820152602e60248201527f457363726f7720636f6e747261637420616464726573732063616e6e6f74206260448201526d65207a65726f206164647265737360901b6064820152608490fd5b600080fd5b634e487b7160e01b600052604160045260246000fd5b51906001600160a01b03821682036200020b5756fe608080604052600436101561001357600080fd5b60003560e01c90816308740a3b14612bad575080630d9005ae14612b8f57806323692edd14612b7157806324bc597214612af25780633f4ba83a14612a565780634a3ddf3e14611c2d5780635c36901c14611c055780635c975abb14611be25780636db2feb214611a74578063715018a614611a0857806373dfe0da14610f5d5780638456cb5914610f035780638da5cb5b14610ed957806391d1485414610e8b578063bd033bd014610cff578063d547741f14610c20578063d9d9785914610364578063e959b38a14610282578063f2fde38b1461017d578063f6c00927146101525763f8607fb11461010657600080fd5b3461014d57602036600319011261014d5760043560005260036020526101496101356002604060002001612fc6565b604051918291602083526020830190612cc9565b0390f35b600080fd5b3461014d57602036600319011261014d576101496101716004356131b1565b60405191829182612d3d565b3461014d57602036600319011261014d576004356001600160a01b038082169182810361014d576101ac612e50565b82156102185774ffffffffffffffffffffffffffffffffffffffff006005549160081b1674ffffffffffffffffffffffffffffffffffffffff001982161760055560081c167f8be0079c531659141344cd1fd0a4f28419497f9722a3daafe3b4186f6b6457e0600080a3005b608460405162461bcd60e51b815260206004820152602660248201527f4f776e61626c653a206e6577206f776e657220697320746865207a65726f206160448201527f64647265737300000000000000000000000000000000000000000000000000006064820152fd5b3461014d57604036600319011261014d576004356001600160a01b036102a6612cb3565b169081156102fa578060005260006020526040600020826000526020526040600020600160ff198254161790557f2ae6a113c0ed5b78a53413ffbb7679881f11145ccfba4fb92e863dfcd5a1d2f3600080a3005b608460405162461bcd60e51b815260206004820152603060248201527f416363657373436f6e74726f6c3a2063616e6e6f74206772616e7420726f6c6560448201527f20746f207a65726f2061646472657373000000000000000000000000000000006064820152fd5b3461014d57602036600319011261014d5761037d612f3c565b610385612e50565b60043560005260036020526040600020600e604051916103a483612c1e565b805483526001600160a01b0360018201541660208401526103c760028201612fc6565b60408401526040516103d881612be6565b6103e460038301612fc6565b81526103f260048301612fc6565b602082015261040360058301612fc6565b604082015261041460068301612fc6565b6060820152606084015260405161042a81612c02565b600782015481526001600160a01b03600883015416602082015260098201546040820152600a8201546060820152600b8201546080820152600c82015460a0820152600d82015460c08201526080840152016040518082602082945493848152019060005260206000209260005b818110610c075750506104ad92500382612c3a565b60a08201526104c56104c060043561306c565b613464565b60016104d26004356132fa565b151503610bc35762093a7f194201428111610bad5760a060808301510152600435600052600360205260406000209080518255600182016001600160a01b036020830151166001600160a01b0319825416179055604081015191825167ffffffffffffffff81116108185761054a6002830154612f8c565b601f8111610b78575b506020601f8211600114610b0a5781929394600092610aff575b50508160011b916000199060031b1c19161760028201555b6060820151805192835167ffffffffffffffff8111610818576105ab6003850154612f8c565b601f8111610aca575b506020601f8211600114610a5b578192939495600092610a50575b50508160011b916000199060031b1c19161760038401555b602082015192835167ffffffffffffffff81116108185761060b6004830154612f8c565b601f8111610a1b575b506020601f82116001146109ac5781929394956000926109a1575b50508160011b916000199060031b1c19161760048201555b604083015192835167ffffffffffffffff81116108185761066b6005840154612f8c565b601f811161096c575b506020601f82116001146108f957819060609495966000926108ee575b50508160011b916000199060031b1c19161760058401555b015180519067ffffffffffffffff8211610818576106ca6006840154612f8c565b601f81116108ae575b50602090601f831160011461083957918060a09492600e9460009261082e575b50508160011b916000199060031b1c19161760068201555b60c0608085015180516007840155600883016001600160a01b036020830151166001600160a01b0319825416179055604081015160098401556060810151600a8401556080810151600b84015584810151600c8401550151600d8201550191015180519067ffffffffffffffff8211610818576801000000000000000082116108185760209083548385558084106107fb575b50019160005260206000209160005b8281106107e7577f0522afc663a576de692143f1e714306778ade438ea7c739c3a3964bd78eb2cc6604080516004358152336020820152a1005b6001906020835193019281860155016107ad565b61081290856000528484600020918201910161344d565b8461079e565b634e487b7160e01b600052604160045260246000fd5b0151905086806106f3565b906006840160005260206000209160005b601f198516811061089657509260a09492600192600e9583601f1981161061087d575b505050811b01600682015561070b565b015160001960f88460031b161c1916905586808061086d565b9192602060018192868501518155019401920161084a565b6108de90600685016000526020600020601f850160051c810191602086106108e4575b601f0160051c019061344d565b846106d3565b90915081906108d1565b015190508680610691565b6005840160005260206000209560005b601f198416811061095457509582916060959697600194601f1981161061093b575b505050811b0160058401556106a9565b015160001960f88460031b161c1916905586808061092b565b82820151885560019097019660209283019201610909565b61099b90600585016000526020600020601f840160051c810191602085106108e457601f0160051c019061344d565b85610674565b01519050858061062f565b6004830160005260206000209060005b601f1984168110610a03575060019394959683601f198116106109ea575b505050811b016004820155610647565b015160001960f88460031b161c191690558580806109da565b9091602060018192858b0151815501930191016109bc565b610a4a90600484016000526020600020601f840160051c810191602085106108e457601f0160051c019061344d565b85610614565b0151905085806105cf565b6003850160005260206000209060005b601f1984168110610ab2575060019394959683601f19811610610a99575b505050811b0160038401556105e7565b015160001960f88460031b161c19169055858080610a89565b9091602060018192858b015181550193019101610a6b565b610af990600386016000526020600020601f840160051c810191602085106108e457601f0160051c019061344d565b856105b4565b01519050848061056d565b6002830160005260206000209060005b601f1984168110610b605750600193949583601f19811610610b47575b505050811b016002820155610585565b015160001960f88460031b161c19169055848080610b37565b9091602060018192858a015181550193019101610b1a565b610ba790600284016000526020600020601f840160051c810191602085106108e457601f0160051c019061344d565b84610553565b634e487b7160e01b600052601160045260246000fd5b606460405162461bcd60e51b815260206004820152601860248201527f506f6f6c20697320616c726561647920696e61637469766500000000000000006044820152fd5b8454835260019485019486945060209093019201610498565b3461014d57604036600319011261014d576004356001600160a01b03610c44612cb3565b16908115610c9557806000526000602052604060002082600052602052604060002060ff1981541690557f155aaafb6329a2098580462df33ec4b7441b19729b9601c5fc17ae1cf99a8a52600080a3005b608460405162461bcd60e51b815260206004820152603360248201527f416363657373436f6e74726f6c3a2063616e6e6f74207265766f6b6520726f6c60448201527f652066726f6d207a65726f2061646472657373000000000000000000000000006064820152fd5b3461014d5760208060031936011261014d576004356000526003815260406000209060405191610d2e83612c1e565b805483526001600160a01b0390600e60019183838201541685870152610d5660028201612fc6565b6040870152604051610d6781612be6565b610d7360038301612fc6565b8152610d8160048301612fc6565b86820152610d9160058301612fc6565b6040820152610da260068301612fc6565b6060820152606087015260405193610db985612c02565b600782015485526008820154168585015260098101546040850152600a8101546060850152600b8101546080850152600c81015460a0850152600d81015460c085015260808601938452016040519182858354918281520192600052856000209060005b818110610e78578760a08888828d610e37838c0384612c3a565b01525101518015159081610e6e575b81610e57575b506040519015158152f35b905062093a808101809111610bad57421082610e4c565b4281109150610e46565b8254855293870193918301918301610e1d565b3461014d57604036600319011261014d57610ea4612cb3565b60043560005260006020526001600160a01b0360406000209116600052602052602060ff604060002054166040519015158152f35b3461014d57600036600319011261014d5760206001600160a01b0360055460081c16604051908152f35b3461014d57600036600319011261014d57610f1c612e50565b610f24612f3c565b600160ff1960055416176005557f62e78cea01bee320cd4e420270b5ea74000d11b0c9f74754ebdbfc544b05a2586020604051338152a1005b3461014d57602036600319011261014d57610f76612f3c565b60043560005260036020526040600020600e60405191610f9583612c1e565b805483526001600160a01b036001820154166020840152610fb860028201612fc6565b6040840152604051610fc981612be6565b610fd560038301612fc6565b8152610fe360048301612fc6565b6020820152610ff460058301612fc6565b604082015261100560068301612fc6565b6060820152606084015260405161101b81612c02565b600782015481526001600160a01b03600883015416602082015260098201546040820152600a8201546060820152600b8201546080820152600c82015460a0820152600d82015460c08201526080840152016040518082602082945493848152019060005260206000209260005b8181106119ef57505061109e92500382612c3a565b60a08201526110b16104c060043561306c565b6110bc6004356132fa565b6119ab573360009081527f7b11379db96bb3d54beb11781be5e345f18ff19de2caada93c24b1c167c1b98b602052604090205460ff16156117cf575b42608080830151015260c0608082015101514201804211610bad5760a060808301510152600435600052600360205260406000209080518255600182016001600160a01b036020830151166001600160a01b0319825416179055604081015191825167ffffffffffffffff8111610818576111766002830154612f8c565b601f811161179a575b506020601f821160011461172c5781929394600092611721575b50508160011b916000199060031b1c19161760028201555b6060820151805192835167ffffffffffffffff8111610818576111d76003850154612f8c565b601f81116116ec575b506020601f821160011461167d578192939495600092611672575b50508160011b916000199060031b1c19161760038401555b602082015192835167ffffffffffffffff8111610818576112376004830154612f8c565b601f811161163d575b506020601f82116001146115ce5781929394956000926115c3575b50508160011b916000199060031b1c19161760048201555b604083015192835167ffffffffffffffff8111610818576112976005840154612f8c565b601f811161158e575b506020601f821160011461151b5781906060949596600092611510575b50508160011b916000199060031b1c19161760058401555b015180519067ffffffffffffffff8211610818576112f66006840154612f8c565b601f81116114db575b50602090601f831160011461146857600e9392916000918361145d575b50508160011b916000199060031b1c19161760068201555b60c0608084015180516007840155600883016001600160a01b036020830151166001600160a01b0319825416179055604081015160098401556060810151600a8401556080810151600b84015560a0810151600c8401550151600d8201550160a08201519081519167ffffffffffffffff831161081857680100000000000000008311610818576020908254848455808510611440575b500190600052602060002060005b83811061142c577ff1e6981b3d18841dad1ef7f8db1d40663aaa4b8cd2022e5349498c4d406d00df60808087015160a08282015191015160405191600435835233602084015260408301526060820152a1005b6001906020845194019381840155016113d9565b61145790846000528584600020918201910161344d565b856113cb565b01519050858061131c565b906006840160005260206000209160005b601f19851681106114c35750918391600193600e9695601f198116106114aa575b505050811b016006820155611334565b015160001960f88460031b161c1916905585808061149a565b91926020600181928685015181550194019201611479565b61150a90600685016000526020600020601f850160051c810191602086106108e457601f0160051c019061344d565b846112ff565b0151905086806112bd565b6005840160005260206000209560005b601f198416811061157657509582916060959697600194601f1981161061155d575b505050811b0160058401556112d5565b015160001960f88460031b161c1916905586808061154d565b8282015188556001909701966020928301920161152b565b6115bd90600585016000526020600020601f840160051c810191602085106108e457601f0160051c019061344d565b856112a0565b01519050858061125b565b6004830160005260206000209060005b601f1984168110611625575060019394959683601f1981161061160c575b505050811b016004820155611273565b015160001960f88460031b161c191690558580806115fc565b9091602060018192858b0151815501930191016115de565b61166c90600484016000526020600020601f840160051c810191602085106108e457601f0160051c019061344d565b85611240565b0151905085806111fb565b6003850160005260206000209060005b601f19841681106116d4575060019394959683601f198116106116bb575b505050811b016003840155611213565b015160001960f88460031b161c191690558580806116ab565b9091602060018192858b01518155019301910161168d565b61171b90600386016000526020600020601f840160051c810191602085106108e457601f0160051c019061344d565b856111e0565b015190508480611199565b6002830160005260206000209060005b601f19841681106117825750600193949583601f19811610611769575b505050811b0160028201556111b1565b015160001960f88460031b161c19169055848080611759565b9091602060018192858a01518155019301910161173c565b6117c990600284016000526020600020601f840160051c810191602085106108e457601f0160051c019061344d565b8461117f565b604460406001600160a01b03600254168151928380927f1aa9e74200000000000000000000000000000000000000000000000000000000825233600483015260043560248301525afa90811561199f57600091611931575b508051606060808401510151036118c75760206001600160a01b03910151166001600160a01b0360206080840151015116146110f857608460405162461bcd60e51b815260206004820152603960248201527f4465706f736974656420746f6b656e206164647265737320646f6573206e6f7460448201527f206d6174636820706f6f6c20746f6b656e2061646472657373000000000000006064820152fd5b608460405162461bcd60e51b815260206004820152602860248201527f4465706f736974656420616d6f756e7420646f6573206e6f74206d617463682060448201527f706f6f6c206361700000000000000000000000000000000000000000000000006064820152fd5b90506040813d604011611997575b8161194c60409383612c3a565b8101031261014d5760405190604082019082821067ffffffffffffffff831117610818576020916040528051835201516001600160a01b038116810361014d57602082015282611827565b3d915061193f565b6040513d6000823e3d90fd5b606460405162461bcd60e51b815260206004820152601660248201527f506f6f6c20697320616c726561647920616374697665000000000000000000006044820152fd5b8454835260019485019486945060209093019201611089565b3461014d57600036600319011261014d57611a21612e50565b60006001600160a01b0360055474ffffffffffffffffffffffffffffffffffffffff0019811660055560081c167f8be0079c531659141344cd1fd0a4f28419497f9722a3daafe3b4186f6b6457e08280a3005b3461014d5760208060031936011261014d576004356000526003815260406000209060405191611aa383612c1e565b805483526001600160a01b0390600e60019183838201541685870152611acb60028201612fc6565b6040870152604051611adc81612be6565b611ae860038301612fc6565b8152611af660048301612fc6565b86820152611b0660058301612fc6565b6040820152611b1760068301612fc6565b6060820152606087015260405193611b2e85612c02565b600782015485526008820154168585015260098101546040850152600a8101546060850152600b8101546080850152600c81015460a0850152600d81015460c085015260808601938452016040519182858354918281520192600052856000209060005b818110611bcf578760a08888828d611bac838c0384612c3a565b01525101518015159081611bc557506040519015158152f35b9050421182610e4c565b8254855293870193918301918301611b92565b3461014d57600036600319011261014d57602060ff600554166040519015158152f35b3461014d57602036600319011261014d576020611c236004356132fa565b6040519015158152f35b3461014d576003196101403682011261014d5760043567ffffffffffffffff811161014d57611c60903690600401612c5c565b6024359167ffffffffffffffff831161014d57608090833603011261014d5760405191611c8c83612be6565b806004013567ffffffffffffffff811161014d57611cb09060043691840101612c5c565b8352602481013567ffffffffffffffff811161014d57611cd69060043691840101612c5c565b6020840152604481013567ffffffffffffffff811161014d57611cff9060043691840101612c5c565b604084015260648101359067ffffffffffffffff821161014d576004611d289236920101612c5c565b606083015260e036604319011261014d5760405191611d4683612c02565b60443583526064356001600160a01b038116810361014d576020840152608435604084015260a435606084015260c435608084015260e43560a08401526101043560c084015267ffffffffffffffff610124351161014d573660236101243501121561014d5767ffffffffffffffff6101243560040135116108185760405192610124356004013560051b611dde6020820186612c3a565b6101243560040135855260208501366024836101243501011161014d5760246101243501905b6024836101243501018210612a4657505050611e1e612ee3565b50611e27612f3c565b611e2f612ee3565b50825115612a02576060810151156129be5760c0810151156129545760808101516129105760a08101516128cc5760408101511561288857600060405160208101904382524260408201526000606082015260608152611e8e81612be6565b5190205b611e9b8161306c565b15611edd57506000198114610bad5760010193604051602081019043825242604082015286606082015260608152611ed281612be6565b519020949094611e92565b92859150611eea8461306c565b6128445760405194611efb86612c1e565b8486523360208701528060408701528160608701528360808701528260a087015284600052600360205260406000209580518755600187016001600160a01b036020830151166001600160a01b0319825416179055604081015180519067ffffffffffffffff8211610818578190611f7660028b0154612f8c565b601f811161280f575b50602090601f831160011461279d57600092612792575b50508160011b916000199060031b1c19161760028801555b6060810151805180519067ffffffffffffffff8211610818578190611fd660038c0154612f8c565b601f811161275d575b50602090601f83116001146126eb576000926126e0575b50508160011b916000199060031b1c19161760038901555b602081015180519067ffffffffffffffff821161081857819061203460048c0154612f8c565b601f81116126ab575b50602090601f83116001146126395760009261262e575b50508160011b916000199060031b1c19161760048901555b604081015180519067ffffffffffffffff82116108185761209060058b0154612f8c565b601f81116125f9575b50602090601f83116001146125865760609392916000918361257b575b50508160011b916000199060031b1c19161760058a01555b015180519067ffffffffffffffff8211610818576120ef60068a0154612f8c565b601f8111612546575b50602090601f83116001146124d35760a0939291600091836124c8575b50508160011b916000199060031b1c19161760068901555b60c06080820151805160078b015560088a016001600160a01b036020830151166001600160a01b0319825416179055604081015160098b01556060810151600a8b01556080810151600b8b015583810151600c8b01550151600d890155015180519067ffffffffffffffff821161081857680100000000000000008211610818576020600e91828a015484848c01558085106124a9575b5001970160005260206000209660005b82811061249557877f658a37a2d0d90ccd8026f4154a00fc72211da5b1fb273a7e0cc585493357696788887f764b3686bd9a8c04d487da87edb364f64d505149c22a8b2664d353539ecf6a33897f3a21eb0a9afc1353da741f39aaea48014c074c6720b61baf41e1e18d6ae7b2fb61226a8b886004556040519182918a8352336020840152606060408401526060830190612cc9565b0390a1856122d18251926122c36020820151916122b560606040830151920151936122a7604051988998895260a060208a015260a0890190612cc9565b908782036040890152612cc9565b908582036060870152612cc9565b908382036080850152612cc9565b0390a16123438251916001600160a01b0360208501511693604081015190606081015160808201519060c060a0840151930151936040519889988c8a5260208a015260408901526060880152608087015260a086015260c085015260e084015261012080610100850152830190612d09565b0390a160005260036020526040600020600e6040519161236283612c1e565b805483526001600160a01b03600182015416602084015261238560028201612fc6565b604084015260405161239681612be6565b6123a260038301612fc6565b81526123b060048301612fc6565b60208201526123c160058301612fc6565b60408201526123d260068301612fc6565b606082015260608401526040516123e881612c02565b600782015481526001600160a01b03600883015416602082015260098201546040820152600a8201546060820152600b8201546080820152600c82015460a0820152600d82015460c08201526080840152019060405191826020825491828152019160005260206000209060005b81811061247f57610149858761246e81880382612c3a565b60a082015260405191829182612d3d565b8254845260209093019260019283019201612456565b60019060208351930192818b0155016121d4565b6124c290848c016000528584600020918201910161344d565b8a6121c4565b015190508a80612115565b9060068a0160005260206000209160005b601f198516811061252e575091839160019360a09695601f19811610612515575b505050811b01600689015561212d565b015160001960f88460031b161c191690558a8080612505565b919260206001819286850151815501940192016124e4565b6125759060068b016000526020600020601f850160051c810191602086106108e457601f0160051c019061344d565b896120f8565b015190508b806120b6565b9060058b0160005260206000209160005b601f19851681106125e1575091839160019360609695601f198116106125c8575b505050811b0160058a01556120ce565b015160001960f88460031b161c191690558b80806125b8565b91926020600181928685015181550194019201612597565b6126289060058c016000526020600020601f850160051c810191602086106108e457601f0160051c019061344d565b8a612099565b015190508a80612054565b925060048b016000526020600020906000935b601f1984168510612690576001945083601f19811610612677575b505050811b01600489015561206c565b015160001960f88460031b161c191690558a8080612667565b8181015183556020948501946001909301929091019061264c565b6126da9060048d016000526020600020601f850160051c810191602086106108e457601f0160051c019061344d565b8b61203d565b015190508a80611ff6565b925060038b016000526020600020906000935b601f1984168510612742576001945083601f19811610612729575b505050811b01600389015561200e565b015160001960f88460031b161c191690558a8080612719565b818101518355602094850194600190930192909101906126fe565b61278c9060038d016000526020600020601f850160051c810191602086106108e457601f0160051c019061344d565b8b611fdf565b015190508980611f96565b925060028a016000526020600020906000935b601f19841685106127f4576001945083601f198116106127db575b505050811b016002880155611fae565b015160001960f88460031b161c191690558980806127cb565b818101518355602094850194600190930192909101906127b0565b61283e9060028c016000526020600020601f850160051c810191602086106108e457601f0160051c019061344d565b8a611f7f565b606460405162461bcd60e51b815260206004820152601360248201527f5575696420616c726561647920657869737473000000000000000000000000006044820152fd5b606460405162461bcd60e51b815260206004820152601e60248201527f496e76616c696420696d7072657373696f6e20687970652072657761726400006044820152fd5b606460405162461bcd60e51b815260206004820152601560248201527f456e642064617465206d757374206265207a65726f00000000000000000000006044820152fd5b606460405162461bcd60e51b815260206004820152601760248201527f53746172742064617465206d757374206265207a65726f0000000000000000006044820152fd5b608460405162461bcd60e51b815260206004820152602160248201527f4475726174696f6e206d757374206265206174206c65617374206f6e6520646160448201527f79000000000000000000000000000000000000000000000000000000000000006064820152fd5b606460405162461bcd60e51b815260206004820152601060248201527f496e76616c696420706f6f6c20636170000000000000000000000000000000006044820152fd5b606460405162461bcd60e51b815260206004820152601460248201527f4d697373696e67206d65746164617461205552490000000000000000000000006044820152fd5b8135815260209182019101611e04565b3461014d57600036600319011261014d57612a6f612e50565b60055460ff811615612aae5760ff19166005557f5db9ee0a495bf2e6ff9c91a7834c1ba4fdd244a5e8aa4e537bd38aeae4b073aa6020604051338152a1005b606460405162461bcd60e51b815260206004820152601460248201527f5061757361626c653a206e6f74207061757365640000000000000000000000006044820152fd5b3461014d57602036600319011261014d57612b0b612eab565b5060e06080612b1b6004356131b1565b0151612b6f604051809260c08091805184526001600160a01b03602082015116602085015260408101516040850152606081015160608501526080810151608085015260a081015160a08501520151910152565bf35b3461014d57602036600319011261014d576020611c2360043561306c565b3461014d57600036600319011261014d576020600454604051908152f35b3461014d57600036600319011261014d57807fec5aad7bdface20c35bc02d6d2d5760df981277427368525d634f4e2603ea19260209252f35b6080810190811067ffffffffffffffff82111761081857604052565b60e0810190811067ffffffffffffffff82111761081857604052565b60c0810190811067ffffffffffffffff82111761081857604052565b90601f8019910116810190811067ffffffffffffffff82111761081857604052565b81601f8201121561014d5780359067ffffffffffffffff82116108185760405192612c91601f8401601f191660200185612c3a565b8284526020838301011161014d57816000926020809301838601378301015290565b602435906001600160a01b038216820361014d57565b919082519283825260005b848110612cf5575050826000602080949584010152601f8019910116010190565b602081830181015184830182015201612cd4565b90815180825260208080930193019160005b828110612d29575050505090565b835185529381019392810192600101612d1b565b90612e4d9160208152815160208201526001600160a01b036020830151166040820152604082015190612d7e610180928360608401526101a0830190612cc9565b9160a0612de76060860151601f1995868682030160808701526060612dd6612dc4612db28551608086526080860190612cc9565b60208601518582036020870152612cc9565b60408501518482036040860152612cc9565b920151906060818403910152612cc9565b94612e3e60808201518386019060c08091805184526001600160a01b03602082015116602085015260408101516040850152606081015160608501526080810151608085015260a081015160a08501520151910152565b01519282850301910152612d09565b90565b6001600160a01b0360055460081c163303612e6757565b606460405162461bcd60e51b815260206004820152602060248201527f4f776e61626c653a2063616c6c6572206973206e6f7420746865206f776e65726044820152fd5b60405190612eb882612c02565b8160c06000918281528260208201528260408201528260608201528260808201528260a08201520152565b60405190612ef082612c1e565b81600081526000602082015260a0606091826040820152604051612f1381612be6565b838152836020820152836040820152838082015283820152612f33612eab565b60808201520152565b60ff60055416612f4857565b606460405162461bcd60e51b815260206004820152601060248201527f5061757361626c653a20706175736564000000000000000000000000000000006044820152fd5b90600182811c92168015612fbc575b6020831014612fa657565b634e487b7160e01b600052602260045260246000fd5b91607f1691612f9b565b9060405191826000825492612fda84612f8c565b9081845260019485811690816000146130495750600114613006575b505061300492500383612c3a565b565b9093915060005260209081600020936000915b81831061303157505061300493508201013880612ff6565b85548884018501529485019487945091830191613019565b91505061300494506020925060ff191682840152151560051b8201013880612ff6565b60005260206003815260408060002090805161308781612c1e565b825481526001600160a01b0393600192600e868587015416958385019687526130b260028201612fc6565b8386015282516130c181612be6565b6130cd60038301612fc6565b81526130db60048301612fc6565b858201526130eb60058301612fc6565b848201526130fb60068301612fc6565b60608201526060860152825161311081612c02565b600782015481528860088301541685820152600982015484820152600a8201546060820152600b8201546080820152600c82015460a0820152600d82015460c08201526080860152019051918294859382845491828152019360005282600020926000905b82821061319957505050505060a09291613190910384612c3a565b01525116151590565b84548652889650948501949383019390830190613175565b6131b9612ee3565b5060005260206003815260409081600020908251926131d784612c1e565b82548452600e6001600160a01b0393600194808683015416858801526131ff60028301612fc6565b84880152835161320e81612be6565b61321a60038401612fc6565b815261322860048401612fc6565b8682015261323860058401612fc6565b8582015261324860068401612fc6565b6060820152606088015283519061325e82612c02565b6007830154825260088301541685820152600982015484820152600a8201546060820152600b8201546080820152600c82015460a0820152600d82015460c08201526080870152019051918293849382845491828152019360005282600020926000905b8282106132e2575050505050906132da910382612c3a565b60a082015290565b845486528796509485019493830193908301906132c2565b60005260209060038252604091826000209083519361331885612c1e565b825485526001600160a01b0392600e6001918583820154168589015261334060028201612fc6565b84890152835161334f81612be6565b61335b60038301612fc6565b815261336960048301612fc6565b8682015261337960058301612fc6565b8582015261338960068301612fc6565b6060820152606089015283519561339f87612c02565b6007820154875260088201541685870152600981015484870152600a8101546060870152600b8101546080870152600c81015460a0870152600d81015460c087015260808801958652019151928381845491828152019360005281600020916000905b82821061343857505050505060a0939461341f8386930384612c3a565b01525101518015159081613431575090565b9050421090565b83548652948501949284019290840190613402565b818110613458575050565b6000815560010161344d565b1561346b57565b606460405162461bcd60e51b815260206004820152601360248201527f506f6f6c20646f6573206e6f74206578697374000000000000000000000000006044820152fdfea26469706673582212205695c2dbab6694b550553aaec3d90cf7175335452eaea0db52cdb08b20323dd464736f6c63430008120033",
  "linkReferences": {},
  "deployedLinkReferences": {}
}