{
  "_format": "hh-sol-artifact-1",
  "contractName": "HypePool",
  "sourceName": "contracts/HypePool.sol",
  "abi": [
    {
      "inputs": [
        {
          "internalType": "address",
          "name": "escrowContractAddress",
          "type": "address"
        }
      ],
      "stateMutability": "nonpayable",
      "type": "constructor"
    },
    {
      "anonymous": false,
      "inputs": [
        {
          "indexed": true,
          "internalType": "address",
          "name": "previousOwner",
          "type": "address"
        },
        {
          "indexed": true,
          "internalType": "address",
          "name": "newOwner",
          "type": "address"
        }
      ],
      "name": "OwnershipTransferred",
      "type": "event"
    },
    {
      "anonymous": false,
      "inputs": [
        {
          "indexed": false,
          "internalType": "address",
          "name": "account",
          "type": "address"
        }
      ],
      "name": "Paused",
      "type": "event"
    },
    {
      "anonymous": false,
      "inputs": [
        {
          "indexed": false,
          "internalType": "uint256",
          "name": "poolId",
          "type": "uint256"
        },
        {
          "indexed": false,
          "internalType": "address",
          "name": "activator",
          "type": "address"
        }
      ],
      "name": "PoolActivated",
      "type": "event"
    },
    {
      "anonymous": false,
      "inputs": [
        {
          "indexed": false,
          "internalType": "uint256",
          "name": "poolId",
          "type": "uint256"
        },
        {
          "indexed": false,
          "internalType": "address",
          "name": "creator",
          "type": "address"
        },
        {
          "indexed": false,
          "internalType": "string",
          "name": "uri",
          "type": "string"
        },
        {
          "indexed": false,
          "internalType": "string",
          "name": "projectName",
          "type": "string"
        },
        {
          "indexed": false,
          "internalType": "string",
          "name": "title",
          "type": "string"
        },
        {
          "indexed": false,
          "internalType": "bool",
          "name": "active",
          "type": "bool"
        },
        {
          "indexed": false,
          "internalType": "uint256",
          "name": "poolCap",
          "type": "uint256"
        },
        {
          "indexed": false,
          "internalType": "address",
          "name": "poolToken",
          "type": "address"
        },
        {
          "indexed": false,
          "internalType": "uint256",
          "name": "minHypeReward",
          "type": "uint256"
        },
        {
          "indexed": false,
          "internalType": "uint256",
          "name": "endDate",
          "type": "uint256"
        }
      ],
      "name": "PoolCreated",
      "type": "event"
    },
    {
      "anonymous": false,
      "inputs": [
        {
          "indexed": false,
          "internalType": "uint256",
          "name": "poolId",
          "type": "uint256"
        },
        {
          "indexed": false,
          "internalType": "string",
          "name": "uri",
          "type": "string"
        }
      ],
      "name": "PoolUriSet",
      "type": "event"
    },
    {
      "anonymous": false,
      "inputs": [
        {
          "indexed": false,
          "internalType": "address",
          "name": "account",
          "type": "address"
        }
      ],
      "name": "Unpaused",
      "type": "event"
    },
    {
      "inputs": [
        {
          "internalType": "uint256",
          "name": "id",
          "type": "uint256"
        }
      ],
      "name": "activatePool",
      "outputs": [],
      "stateMutability": "nonpayable",
      "type": "function"
    },
    {
      "inputs": [
        {
          "internalType": "string",
          "name": "uri",
          "type": "string"
        },
        {
          "internalType": "string",
          "name": "projectName",
          "type": "string"
        },
        {
          "internalType": "string",
          "name": "title",
          "type": "string"
        },
        {
          "internalType": "uint256",
          "name": "poolCap",
          "type": "uint256"
        },
        {
          "internalType": "address",
          "name": "tokenAddress",
          "type": "address"
        },
        {
          "internalType": "uint256",
          "name": "minHypeReward",
          "type": "uint256"
        },
        {
          "internalType": "uint256",
          "name": "endDate",
          "type": "uint256"
        }
      ],
      "name": "createPool",
      "outputs": [
        {
          "components": [
            {
              "internalType": "uint256",
              "name": "id",
              "type": "uint256"
            },
            {
              "internalType": "address",
              "name": "creator",
              "type": "address"
            },
            {
              "internalType": "string",
              "name": "projectName",
              "type": "string"
            },
            {
              "internalType": "string",
              "name": "title",
              "type": "string"
            },
            {
              "internalType": "bool",
              "name": "active",
              "type": "bool"
            },
            {
              "internalType": "uint256",
              "name": "cap",
              "type": "uint256"
            },
            {
              "internalType": "address",
              "name": "token",
              "type": "address"
            },
            {
              "internalType": "uint256",
              "name": "minReward",
              "type": "uint256"
            },
            {
              "internalType": "uint256",
              "name": "endDate",
              "type": "uint256"
            }
          ],
          "internalType": "struct IHypePool.HypePool",
          "name": "",
          "type": "tuple"
        }
      ],
      "stateMutability": "nonpayable",
      "type": "function"
    },
    {
      "inputs": [],
      "name": "getCurrentIndex",
      "outputs": [
        {
          "internalType": "uint256",
          "name": "",
          "type": "uint256"
        }
      ],
      "stateMutability": "view",
      "type": "function"
    },
    {
      "inputs": [
        {
          "internalType": "uint256",
          "name": "tokenId",
          "type": "uint256"
        }
      ],
      "name": "getPool",
      "outputs": [
        {
          "components": [
            {
              "internalType": "uint256",
              "name": "id",
              "type": "uint256"
            },
            {
              "internalType": "address",
              "name": "creator",
              "type": "address"
            },
            {
              "internalType": "string",
              "name": "projectName",
              "type": "string"
            },
            {
              "internalType": "string",
              "name": "title",
              "type": "string"
            },
            {
              "internalType": "bool",
              "name": "active",
              "type": "bool"
            },
            {
              "internalType": "uint256",
              "name": "cap",
              "type": "uint256"
            },
            {
              "internalType": "address",
              "name": "token",
              "type": "address"
            },
            {
              "internalType": "uint256",
              "name": "minReward",
              "type": "uint256"
            },
            {
              "internalType": "uint256",
              "name": "endDate",
              "type": "uint256"
            }
          ],
          "internalType": "struct IHypePool.HypePool",
          "name": "",
          "type": "tuple"
        }
      ],
      "stateMutability": "view",
      "type": "function"
    },
    {
      "inputs": [],
      "name": "owner",
      "outputs": [
        {
          "internalType": "address",
          "name": "",
          "type": "address"
        }
      ],
      "stateMutability": "view",
      "type": "function"
    },
    {
      "inputs": [],
      "name": "pause",
      "outputs": [],
      "stateMutability": "nonpayable",
      "type": "function"
    },
    {
      "inputs": [],
      "name": "paused",
      "outputs": [
        {
          "internalType": "bool",
          "name": "",
          "type": "bool"
        }
      ],
      "stateMutability": "view",
      "type": "function"
    },
    {
      "inputs": [
        {
          "internalType": "uint256",
          "name": "tokenId",
          "type": "uint256"
        }
      ],
      "name": "poolURI",
      "outputs": [
        {
          "internalType": "string",
          "name": "",
          "type": "string"
        }
      ],
      "stateMutability": "view",
      "type": "function"
    },
    {
      "inputs": [],
      "name": "renounceOwnership",
      "outputs": [],
      "stateMutability": "nonpayable",
      "type": "function"
    },
    {
      "inputs": [
        {
          "internalType": "address",
          "name": "newOwner",
          "type": "address"
        }
      ],
      "name": "transferOwnership",
      "outputs": [],
      "stateMutability": "nonpayable",
      "type": "function"
    },
    {
      "inputs": [],
      "name": "unpause",
      "outputs": [],
      "stateMutability": "nonpayable",
      "type": "function"
    }
  ],
  "bytecode": "0x608060405234801561001057600080fd5b506040516117c83803806117c883398101604081905261002f916100c0565b6000805460ff1916905561004233610067565b600280546001600160a01b0319166001600160a01b03929092169190911790556100f0565b600080546001600160a01b03838116610100818102610100600160a81b0319851617855560405193049190911692909183917f8be0079c531659141344cd1fd0a4f28419497f9722a3daafe3b4186f6b6457e091a35050565b6000602082840312156100d257600080fd5b81516001600160a01b03811681146100e957600080fd5b9392505050565b6116c9806100ff6000396000f3fe608060405234801561001057600080fd5b50600436106100c95760003560e01c80633f4ba83a116100815780638456cb591161005b5780638456cb591461017b5780638da5cb5b14610183578063f2fde38b146101ac57600080fd5b80633f4ba83a146101555780635c975abb1461015d578063715018a61461017357600080fd5b80630d9005ae116100b25780630d9005ae1461010c5780631e2f4adc1461012257806335a7017a1461014257600080fd5b8063068bcd8d146100ce57806308f747dd146100f7575b600080fd5b6100e16100dc36600461128a565b6101bf565b6040516100ee91906112f0565b60405180910390f35b61010a61010536600461128a565b6103c8565b005b6101146108e9565b6040519081526020016100ee565b61013561013036600461128a565b6108f9565b6040516100ee91906113ad565b6100e161015036600461147f565b61099b565b61010a610d4e565b60005460ff1660405190151581526020016100ee565b61010a610d60565b61010a610d72565b60005461010090046001600160a01b03166040516001600160a01b0390911681526020016100ee565b61010a6101ba366004611538565b610d82565b6102226040518061012001604052806000815260200160006001600160a01b0316815260200160608152602001606081526020016000151581526020016000815260200160006001600160a01b0316815260200160008152602001600081525090565b6000828152600360209081526040918290208251610120810184528154815260018201546001600160a01b031692810192909252600281018054929391929184019161026d90611555565b80601f016020809104026020016040519081016040528092919081815260200182805461029990611555565b80156102e65780601f106102bb576101008083540402835291602001916102e6565b820191906000526020600020905b8154815290600101906020018083116102c957829003601f168201915b505050505081526020016003820180546102ff90611555565b80601f016020809104026020016040519081016040528092919081815260200182805461032b90611555565b80156103785780601f1061034d57610100808354040283529160200191610378565b820191906000526020600020905b81548152906001019060200180831161035b57829003601f168201915b5050509183525050600482015460ff16151560208201526005820154604082015260068201546001600160a01b031660608201526007820154608082015260089091015460a09091015292915050565b6103d0610e12565b60008181526003602090815260408083208151610120810183528154815260018201546001600160a01b031693810193909352600281018054919284019161041790611555565b80601f016020809104026020016040519081016040528092919081815260200182805461044390611555565b80156104905780601f1061046557610100808354040283529160200191610490565b820191906000526020600020905b81548152906001019060200180831161047357829003601f168201915b505050505081526020016003820180546104a990611555565b80601f01602080910402602001604051908101604052809291908181526020018280546104d590611555565b80156105225780601f106104f757610100808354040283529160200191610522565b820191906000526020600020905b81548152906001019060200180831161050557829003601f168201915b5050509183525050600482015460ff16151560208201526005820154604082015260068201546001600160a01b031660608201526007820154608082015260089091015460a09091015260e08101519091506000036105c85760405162461bcd60e51b815260206004820152601260248201527f506f6f6c20646f65736e2774206578697374000000000000000000000000000060448201526064015b60405180910390fd5b60808101511561061a5760405162461bcd60e51b815260206004820152601660248201527f506f6f6c20697320616c7265616479206163746976650000000000000000000060448201526064016105bf565b6002546040517fae22192e000000000000000000000000000000000000000000000000000000008152336004820152602481018490526001600160a01b0390911690600090829063ae22192e90604401606060405180830381865afa158015610687573d6000803e3d6000fd5b505050506040513d601f19601f820116820180604052508101906106ab919061158f565b60a08401518151919250146107285760405162461bcd60e51b815260206004820152602860248201527f4465706f736974656420616d6f756e7420646f6573206e6f74206d617463682060448201527f706f6f6c2063617000000000000000000000000000000000000000000000000060648201526084016105bf565b8260c001516001600160a01b031681602001516001600160a01b0316146107b75760405162461bcd60e51b815260206004820152603960248201527f4465706f736974656420746f6b656e206164647265737320646f6573206e6f7460448201527f206d6174636820706f6f6c20746f6b656e20616464726573730000000000000060648201526084016105bf565b6001608084018190526000858152600360209081526040918290208651815581870151938101805473ffffffffffffffffffffffffffffffffffffffff19166001600160a01b03909516949094179093559085015180518693926108229260028501929101906111f1565b506060820151805161083e9160038401916020909101906111f1565b50608082015160048201805460ff191691151591909117905560a0820151600582015560c082015160068201805473ffffffffffffffffffffffffffffffffffffffff19166001600160a01b0390921691909117905560e0820151600782015561010090910151600890910155604080518581523360208201527f4f7e91eea279f21fac65109d86b7d1dfceb5607c89313be67d8c2bf537f9ae0c910160405180910390a150505050565b60006108f460015490565b905090565b600081815260046020526040902080546060919061091690611555565b80601f016020809104026020016040519081016040528092919081815260200182805461094290611555565b801561098f5780601f106109645761010080835404028352916020019161098f565b820191906000526020600020905b81548152906001019060200180831161097257829003601f168201915b50505050509050919050565b6109fe6040518061012001604052806000815260200160006001600160a01b0316815260200160608152602001606081526020016000151581526020016000815260200160006001600160a01b0316815260200160008152602001600081525090565b610a06610e12565b6000885111610a575760405162461bcd60e51b815260206004820152601460248201527f4d697373696e67206d657461646174612055524900000000000000000000000060448201526064016105bf565b60008511610aa75760405162461bcd60e51b815260206004820152601060248201527f496e76616c696420706f6f6c206361700000000000000000000000000000000060448201526064016105bf565b428211610b1c5760405162461bcd60e51b815260206004820152602960248201527f456e642064617465206d7573742062652061667465722063757272656e74206260448201527f6c6f636b2074696d65000000000000000000000000000000000000000000000060648201526084016105bf565b60008311610b6c5760405162461bcd60e51b815260206004820152601b60248201527f496e76616c6964206d696e696d616c206879706520726577617264000000000060448201526064016105bf565b6000610b7760015490565b9050610b89818a8a8a8a8a8a8a610e65565b610b93818a610fe3565b610ba1600180546001019055565b6000818152600360209081526040918290208251610120810184528154815260018201546001600160a01b0316928101929092526002810180549293919291840191610bec90611555565b80601f0160208091040260200160405190810160405280929190818152602001828054610c1890611555565b8015610c655780601f10610c3a57610100808354040283529160200191610c65565b820191906000526020600020905b815481529060010190602001808311610c4857829003601f168201915b50505050508152602001600382018054610c7e90611555565b80601f0160208091040260200160405190810160405280929190818152602001828054610caa90611555565b8015610cf75780601f10610ccc57610100808354040283529160200191610cf7565b820191906000526020600020905b815481529060010190602001808311610cda57829003601f168201915b5050509183525050600482015460ff16151560208201526005820154604082015260068201546001600160a01b031660608201526007820154608082015260089091015460a0909101529998505050505050505050565b610d56611040565b610d5e6110a0565b565b610d68611040565b610d5e60006110f2565b610d7a611040565b610d5e611162565b610d8a611040565b6001600160a01b038116610e065760405162461bcd60e51b815260206004820152602660248201527f4f776e61626c653a206e6577206f776e657220697320746865207a65726f206160448201527f646472657373000000000000000000000000000000000000000000000000000060648201526084016105bf565b610e0f816110f2565b50565b60005460ff1615610d5e5760405162461bcd60e51b815260206004820152601060248201527f5061757361626c653a207061757365640000000000000000000000000000000060448201526064016105bf565b60408051610120810182528981523360208083019182528284018a8152606084018a905260006080850181905260a085018a90526001600160a01b0389811660c087015260e0860189905261010086018890528e82526003845295902084518155925160018401805473ffffffffffffffffffffffffffffffffffffffff191691909616179094559251805192939192610f0592600285019201906111f1565b5060608201518051610f219160038401916020909101906111f1565b50608082015160048201805460ff191691151591909117905560a0820151600582015560c082015160068201805473ffffffffffffffffffffffffffffffffffffffff19166001600160a01b0390921691909117905560e08201516007820155610100909101516008909101556040517f83312587fc5cd827e0f94498e3a4c766f66c32778d0c6489d98242d21f3a3b6b90610fd1908a9033908b908b908b906000908c908c908c908c906115f1565b60405180910390a15050505050505050565b60008281526004602090815260409091208251611002928401906111f1565b507f514efc4dbca754e32bfeb5dcb0c2d277953187ffd3b3eae36f7f9b5202e6f8ff8282604051611034929190611672565b60405180910390a15050565b6000546001600160a01b03610100909104163314610d5e5760405162461bcd60e51b815260206004820181905260248201527f4f776e61626c653a2063616c6c6572206973206e6f7420746865206f776e657260448201526064016105bf565b6110a861119f565b6000805460ff191690557f5db9ee0a495bf2e6ff9c91a7834c1ba4fdd244a5e8aa4e537bd38aeae4b073aa335b6040516001600160a01b03909116815260200160405180910390a1565b600080546001600160a01b038381166101008181027fffffffffffffffffffffff0000000000000000000000000000000000000000ff851617855560405193049190911692909183917f8be0079c531659141344cd1fd0a4f28419497f9722a3daafe3b4186f6b6457e091a35050565b61116a610e12565b6000805460ff191660011790557f62e78cea01bee320cd4e420270b5ea74000d11b0c9f74754ebdbfc544b05a2586110d53390565b60005460ff16610d5e5760405162461bcd60e51b815260206004820152601460248201527f5061757361626c653a206e6f742070617573656400000000000000000000000060448201526064016105bf565b8280546111fd90611555565b90600052602060002090601f01602090048101928261121f5760008555611265565b82601f1061123857805160ff1916838001178555611265565b82800160010185558215611265579182015b8281111561126557825182559160200191906001019061124a565b50611271929150611275565b5090565b5b808211156112715760008155600101611276565b60006020828403121561129c57600080fd5b5035919050565b6000815180845260005b818110156112c9576020818501810151868301820152016112ad565b818111156112db576000602083870101525b50601f01601f19169290920160200192915050565b60208152815160208201526000602083015161131760408401826001600160a01b03169052565b5060408301516101208060608501526113346101408501836112a3565b91506060850151601f1985840301608086015261135183826112a3565b925050608085015161136760a086018215159052565b5060a085015160c085015260c085015161138c60e08601826001600160a01b03169052565b5060e085015161010085810191909152909401519390920192909252919050565b6020815260006113c060208301846112a3565b9392505050565b634e487b7160e01b600052604160045260246000fd5b600082601f8301126113ee57600080fd5b813567ffffffffffffffff80821115611409576114096113c7565b604051601f8301601f19908116603f01168101908282118183101715611431576114316113c7565b8160405283815286602085880101111561144a57600080fd5b836020870160208301376000602085830101528094505050505092915050565b6001600160a01b0381168114610e0f57600080fd5b600080600080600080600060e0888a03121561149a57600080fd5b873567ffffffffffffffff808211156114b257600080fd5b6114be8b838c016113dd565b985060208a01359150808211156114d457600080fd5b6114e08b838c016113dd565b975060408a01359150808211156114f657600080fd5b506115038a828b016113dd565b95505060608801359350608088013561151b8161146a565b9699959850939692959460a0840135945060c09093013592915050565b60006020828403121561154a57600080fd5b81356113c08161146a565b600181811c9082168061156957607f821691505b60208210810361158957634e487b7160e01b600052602260045260246000fd5b50919050565b6000606082840312156115a157600080fd5b6040516060810181811067ffffffffffffffff821117156115c4576115c46113c7565b6040528251815260208301516115d98161146a565b60208201526040928301519281019290925250919050565b60006101408c83526001600160a01b03808d16602085015281604085015261161b8285018d6112a3565b9150838203606085015261162f828c6112a3565b91508382036080850152611643828b6112a3565b98151560a085015260c084019790975250509290931660e0830152610100820152610120015295945050505050565b82815260406020820152600061168b60408301846112a3565b94935050505056fea2646970667358221220a0aeae1c17408b121ca61bce352b35a482b41a96a7ca50770e1eeb24dc842b3d64736f6c634300080e0033",
  "linkReferences": {},
  "deployedLinkReferences": {}
}