{
  "_format": "hh-sol-artifact-1",
  "contractName": "HypePool",
  "sourceName": "contracts/HypePool.sol",
  "abi": [
    {
      "inputs": [
        {
          "internalType": "address",
          "name": "escrowContractAddress",
          "type": "address"
        },
        {
          "internalType": "address",
          "name": "activator",
          "type": "address"
        }
      ],
      "stateMutability": "nonpayable",
      "type": "constructor"
    },
    {
      "anonymous": false,
      "inputs": [
        {
          "indexed": true,
          "internalType": "address",
          "name": "previousOwner",
          "type": "address"
        },
        {
          "indexed": true,
          "internalType": "address",
          "name": "newOwner",
          "type": "address"
        }
      ],
      "name": "OwnershipTransferred",
      "type": "event"
    },
    {
      "anonymous": false,
      "inputs": [
        {
          "indexed": false,
          "internalType": "address",
          "name": "account",
          "type": "address"
        }
      ],
      "name": "Paused",
      "type": "event"
    },
    {
      "anonymous": false,
      "inputs": [
        {
          "indexed": false,
          "internalType": "bytes32",
          "name": "poolId",
          "type": "bytes32"
        },
        {
          "indexed": false,
          "internalType": "address",
          "name": "activator",
          "type": "address"
        },
        {
          "indexed": false,
          "internalType": "uint256",
          "name": "startDate",
          "type": "uint256"
        },
        {
          "indexed": false,
          "internalType": "uint256",
          "name": "endDate",
          "type": "uint256"
        }
      ],
      "name": "PoolActivated",
      "type": "event"
    },
    {
      "anonymous": false,
      "inputs": [
        {
          "indexed": false,
          "internalType": "bytes32",
          "name": "poolId",
          "type": "bytes32"
        },
        {
          "indexed": false,
          "internalType": "address",
          "name": "creator",
          "type": "address"
        },
        {
          "indexed": false,
          "internalType": "string",
          "name": "uri",
          "type": "string"
        }
      ],
      "name": "PoolCreated",
      "type": "event"
    },
    {
      "anonymous": false,
      "inputs": [
        {
          "indexed": false,
          "internalType": "bytes32",
          "name": "poolId",
          "type": "bytes32"
        },
        {
          "indexed": false,
          "internalType": "address",
          "name": "deactivator",
          "type": "address"
        }
      ],
      "name": "PoolDeactivated",
      "type": "event"
    },
    {
      "anonymous": false,
      "inputs": [
        {
          "indexed": false,
          "internalType": "bytes32",
          "name": "poolId",
          "type": "bytes32"
        },
        {
          "indexed": false,
          "internalType": "string",
          "name": "title",
          "type": "string"
        },
        {
          "indexed": false,
          "internalType": "string",
          "name": "projectName",
          "type": "string"
        },
        {
          "indexed": false,
          "internalType": "string",
          "name": "tokenName",
          "type": "string"
        },
        {
          "indexed": false,
          "internalType": "string",
          "name": "word",
          "type": "string"
        }
      ],
      "name": "PoolDetailsCreated",
      "type": "event"
    },
    {
      "anonymous": false,
      "inputs": [
        {
          "indexed": false,
          "internalType": "bytes32",
          "name": "poolId",
          "type": "bytes32"
        },
        {
          "indexed": false,
          "internalType": "uint256",
          "name": "network",
          "type": "uint256"
        },
        {
          "indexed": false,
          "internalType": "address",
          "name": "tokenAddress",
          "type": "address"
        },
        {
          "indexed": false,
          "internalType": "uint256",
          "name": "impressionReward",
          "type": "uint256"
        },
        {
          "indexed": false,
          "internalType": "uint256",
          "name": "cap",
          "type": "uint256"
        },
        {
          "indexed": false,
          "internalType": "uint256",
          "name": "startDate",
          "type": "uint256"
        },
        {
          "indexed": false,
          "internalType": "uint256",
          "name": "endDate",
          "type": "uint256"
        },
        {
          "indexed": false,
          "internalType": "uint256",
          "name": "duration",
          "type": "uint256"
        }
      ],
      "name": "PoolRewardsCreated",
      "type": "event"
    },
    {
      "anonymous": false,
      "inputs": [
        {
          "indexed": false,
          "internalType": "bytes32",
          "name": "poolId",
          "type": "bytes32"
        },
        {
          "indexed": false,
          "internalType": "string",
          "name": "uri",
          "type": "string"
        }
      ],
      "name": "PoolUriSet",
      "type": "event"
    },
    {
      "anonymous": false,
      "inputs": [
        {
          "indexed": true,
          "internalType": "bytes32",
          "name": "role",
          "type": "bytes32"
        },
        {
          "indexed": true,
          "internalType": "bytes32",
          "name": "previousAdminRole",
          "type": "bytes32"
        },
        {
          "indexed": true,
          "internalType": "bytes32",
          "name": "newAdminRole",
          "type": "bytes32"
        }
      ],
      "name": "RoleAdminChanged",
      "type": "event"
    },
    {
      "anonymous": false,
      "inputs": [
        {
          "indexed": true,
          "internalType": "bytes32",
          "name": "role",
          "type": "bytes32"
        },
        {
          "indexed": true,
          "internalType": "address",
          "name": "account",
          "type": "address"
        },
        {
          "indexed": true,
          "internalType": "address",
          "name": "sender",
          "type": "address"
        }
      ],
      "name": "RoleGranted",
      "type": "event"
    },
    {
      "anonymous": false,
      "inputs": [
        {
          "indexed": true,
          "internalType": "bytes32",
          "name": "role",
          "type": "bytes32"
        },
        {
          "indexed": true,
          "internalType": "address",
          "name": "account",
          "type": "address"
        },
        {
          "indexed": true,
          "internalType": "address",
          "name": "sender",
          "type": "address"
        }
      ],
      "name": "RoleRevoked",
      "type": "event"
    },
    {
      "anonymous": false,
      "inputs": [
        {
          "indexed": false,
          "internalType": "address",
          "name": "account",
          "type": "address"
        }
      ],
      "name": "Unpaused",
      "type": "event"
    },
    {
      "inputs": [],
      "name": "ACTIVATOR_ROLE",
      "outputs": [
        {
          "internalType": "bytes32",
          "name": "",
          "type": "bytes32"
        }
      ],
      "stateMutability": "view",
      "type": "function"
    },
    {
      "inputs": [],
      "name": "DEFAULT_ADMIN_ROLE",
      "outputs": [
        {
          "internalType": "bytes32",
          "name": "",
          "type": "bytes32"
        }
      ],
      "stateMutability": "view",
      "type": "function"
    },
    {
      "inputs": [
        {
          "internalType": "bytes32",
          "name": "uuid",
          "type": "bytes32"
        }
      ],
      "name": "activatePool",
      "outputs": [],
      "stateMutability": "nonpayable",
      "type": "function"
    },
    {
      "inputs": [
        {
          "internalType": "string",
          "name": "uri",
          "type": "string"
        },
        {
          "components": [
            {
              "internalType": "string",
              "name": "title",
              "type": "string"
            },
            {
              "internalType": "string",
              "name": "projectName",
              "type": "string"
            },
            {
              "internalType": "string",
              "name": "tokenName",
              "type": "string"
            },
            {
              "internalType": "string",
              "name": "word",
              "type": "string"
            }
          ],
          "internalType": "struct IHypePool.Details",
          "name": "details",
          "type": "tuple"
        },
        {
          "components": [
            {
              "internalType": "uint256",
              "name": "network",
              "type": "uint256"
            },
            {
              "internalType": "address",
              "name": "tokenAddress",
              "type": "address"
            },
            {
              "internalType": "uint256",
              "name": "impressionReward",
              "type": "uint256"
            },
            {
              "internalType": "uint256",
              "name": "cap",
              "type": "uint256"
            },
            {
              "internalType": "uint256",
              "name": "startDate",
              "type": "uint256"
            },
            {
              "internalType": "uint256",
              "name": "endDate",
              "type": "uint256"
            },
            {
              "internalType": "uint256",
              "name": "duration",
              "type": "uint256"
            }
          ],
          "internalType": "struct IHypePool.Rewards",
          "name": "rewards",
          "type": "tuple"
        }
      ],
      "name": "createPool",
      "outputs": [
        {
          "components": [
            {
              "internalType": "bytes32",
              "name": "id",
              "type": "bytes32"
            },
            {
              "internalType": "address",
              "name": "creator",
              "type": "address"
            },
            {
              "internalType": "bool",
              "name": "active",
              "type": "bool"
            },
            {
              "components": [
                {
                  "internalType": "string",
                  "name": "title",
                  "type": "string"
                },
                {
                  "internalType": "string",
                  "name": "projectName",
                  "type": "string"
                },
                {
                  "internalType": "string",
                  "name": "tokenName",
                  "type": "string"
                },
                {
                  "internalType": "string",
                  "name": "word",
                  "type": "string"
                }
              ],
              "internalType": "struct IHypePool.Details",
              "name": "details",
              "type": "tuple"
            },
            {
              "components": [
                {
                  "internalType": "uint256",
                  "name": "network",
                  "type": "uint256"
                },
                {
                  "internalType": "address",
                  "name": "tokenAddress",
                  "type": "address"
                },
                {
                  "internalType": "uint256",
                  "name": "impressionReward",
                  "type": "uint256"
                },
                {
                  "internalType": "uint256",
                  "name": "cap",
                  "type": "uint256"
                },
                {
                  "internalType": "uint256",
                  "name": "startDate",
                  "type": "uint256"
                },
                {
                  "internalType": "uint256",
                  "name": "endDate",
                  "type": "uint256"
                },
                {
                  "internalType": "uint256",
                  "name": "duration",
                  "type": "uint256"
                }
              ],
              "internalType": "struct IHypePool.Rewards",
              "name": "rewards",
              "type": "tuple"
            }
          ],
          "internalType": "struct IHypePool.HypePool",
          "name": "",
          "type": "tuple"
        }
      ],
      "stateMutability": "nonpayable",
      "type": "function"
    },
    {
      "inputs": [
        {
          "internalType": "bytes32",
          "name": "uuid",
          "type": "bytes32"
        }
      ],
      "name": "deactivatePool",
      "outputs": [],
      "stateMutability": "nonpayable",
      "type": "function"
    },
    {
      "inputs": [],
      "name": "getCurrentIndex",
      "outputs": [
        {
          "internalType": "bytes32",
          "name": "",
          "type": "bytes32"
        }
      ],
      "stateMutability": "view",
      "type": "function"
    },
    {
      "inputs": [
        {
          "internalType": "bytes32",
          "name": "uuid",
          "type": "bytes32"
        }
      ],
      "name": "getPool",
      "outputs": [
        {
          "components": [
            {
              "internalType": "bytes32",
              "name": "id",
              "type": "bytes32"
            },
            {
              "internalType": "address",
              "name": "creator",
              "type": "address"
            },
            {
              "internalType": "bool",
              "name": "active",
              "type": "bool"
            },
            {
              "components": [
                {
                  "internalType": "string",
                  "name": "title",
                  "type": "string"
                },
                {
                  "internalType": "string",
                  "name": "projectName",
                  "type": "string"
                },
                {
                  "internalType": "string",
                  "name": "tokenName",
                  "type": "string"
                },
                {
                  "internalType": "string",
                  "name": "word",
                  "type": "string"
                }
              ],
              "internalType": "struct IHypePool.Details",
              "name": "details",
              "type": "tuple"
            },
            {
              "components": [
                {
                  "internalType": "uint256",
                  "name": "network",
                  "type": "uint256"
                },
                {
                  "internalType": "address",
                  "name": "tokenAddress",
                  "type": "address"
                },
                {
                  "internalType": "uint256",
                  "name": "impressionReward",
                  "type": "uint256"
                },
                {
                  "internalType": "uint256",
                  "name": "cap",
                  "type": "uint256"
                },
                {
                  "internalType": "uint256",
                  "name": "startDate",
                  "type": "uint256"
                },
                {
                  "internalType": "uint256",
                  "name": "endDate",
                  "type": "uint256"
                },
                {
                  "internalType": "uint256",
                  "name": "duration",
                  "type": "uint256"
                }
              ],
              "internalType": "struct IHypePool.Rewards",
              "name": "rewards",
              "type": "tuple"
            }
          ],
          "internalType": "struct IHypePool.HypePool",
          "name": "",
          "type": "tuple"
        }
      ],
      "stateMutability": "view",
      "type": "function"
    },
    {
      "inputs": [
        {
          "internalType": "bytes32",
          "name": "role",
          "type": "bytes32"
        }
      ],
      "name": "getRoleAdmin",
      "outputs": [
        {
          "internalType": "bytes32",
          "name": "",
          "type": "bytes32"
        }
      ],
      "stateMutability": "view",
      "type": "function"
    },
    {
      "inputs": [
        {
          "internalType": "bytes32",
          "name": "role",
          "type": "bytes32"
        },
        {
          "internalType": "address",
          "name": "account",
          "type": "address"
        }
      ],
      "name": "grantRole",
      "outputs": [],
      "stateMutability": "nonpayable",
      "type": "function"
    },
    {
      "inputs": [
        {
          "internalType": "bytes32",
          "name": "role",
          "type": "bytes32"
        },
        {
          "internalType": "address",
          "name": "account",
          "type": "address"
        }
      ],
      "name": "hasRole",
      "outputs": [
        {
          "internalType": "bool",
          "name": "",
          "type": "bool"
        }
      ],
      "stateMutability": "view",
      "type": "function"
    },
    {
      "inputs": [],
      "name": "owner",
      "outputs": [
        {
          "internalType": "address",
          "name": "",
          "type": "address"
        }
      ],
      "stateMutability": "view",
      "type": "function"
    },
    {
      "inputs": [],
      "name": "pause",
      "outputs": [],
      "stateMutability": "nonpayable",
      "type": "function"
    },
    {
      "inputs": [],
      "name": "paused",
      "outputs": [
        {
          "internalType": "bool",
          "name": "",
          "type": "bool"
        }
      ],
      "stateMutability": "view",
      "type": "function"
    },
    {
      "inputs": [
        {
          "internalType": "bytes32",
          "name": "uuid",
          "type": "bytes32"
        }
      ],
      "name": "poolURI",
      "outputs": [
        {
          "internalType": "string",
          "name": "",
          "type": "string"
        }
      ],
      "stateMutability": "view",
      "type": "function"
    },
    {
      "inputs": [],
      "name": "renounceOwnership",
      "outputs": [],
      "stateMutability": "nonpayable",
      "type": "function"
    },
    {
      "inputs": [
        {
          "internalType": "bytes32",
          "name": "role",
          "type": "bytes32"
        },
        {
          "internalType": "address",
          "name": "account",
          "type": "address"
        }
      ],
      "name": "renounceRole",
      "outputs": [],
      "stateMutability": "nonpayable",
      "type": "function"
    },
    {
      "inputs": [
        {
          "internalType": "bytes32",
          "name": "role",
          "type": "bytes32"
        },
        {
          "internalType": "address",
          "name": "account",
          "type": "address"
        }
      ],
      "name": "revokeRole",
      "outputs": [],
      "stateMutability": "nonpayable",
      "type": "function"
    },
    {
      "inputs": [
        {
          "internalType": "bytes4",
          "name": "interfaceId",
          "type": "bytes4"
        }
      ],
      "name": "supportsInterface",
      "outputs": [
        {
          "internalType": "bool",
          "name": "",
          "type": "bool"
        }
      ],
      "stateMutability": "view",
      "type": "function"
    },
    {
      "inputs": [
        {
          "internalType": "address",
          "name": "newOwner",
          "type": "address"
        }
      ],
      "name": "transferOwnership",
      "outputs": [],
      "stateMutability": "nonpayable",
      "type": "function"
    },
    {
      "inputs": [],
      "name": "unpause",
      "outputs": [],
      "stateMutability": "nonpayable",
      "type": "function"
    }
  ],
  "bytecode": "0x60806040523480156200001157600080fd5b506040516200303d3803806200303d8339810160408190526200003491620001c5565b6000805460ff191690556200004933620000b7565b600380546001600160a01b0319166001600160a01b038416179055620000907fec5aad7bdface20c35bc02d6d2d5760df981277427368525d634f4e2603ea1928262000110565b600280546001600160a01b0319166001600160a01b039290921691909117905550620001fd565b600080546001600160a01b03838116610100818102610100600160a81b0319851617855560405193049190911692909183917f8be0079c531659141344cd1fd0a4f28419497f9722a3daafe3b4186f6b6457e091a35050565b6200011c828262000120565b5050565b60008281526001602090815260408083206001600160a01b038516845290915290205460ff166200011c5760008281526001602081815260408084206001600160a01b0386168086529252808420805460ff19169093179092559051339285917f2f8788117e7eff1d82e926ec794901d17c78024a50270940304540a733656f0d9190a45050565b80516001600160a01b0381168114620001c057600080fd5b919050565b60008060408385031215620001d957600080fd5b620001e483620001a8565b9150620001f460208401620001a8565b90509250929050565b612e30806200020d6000396000f3fe608060405234801561001057600080fd5b506004361061016c5760003560e01c806377108fcc116100cd578063d547741f11610081578063f2fde38b11610066578063f2fde38b14610308578063f6c009271461031b578063f8607fb11461032e57600080fd5b8063d547741f146102e2578063d9d97859146102f557600080fd5b80638da5cb5b116100b25780638da5cb5b1461027857806391d14854146102a1578063a217fddf146102da57600080fd5b806377108fcc146102505780638456cb591461027057600080fd5b806336568abe116101245780635c975abb116101095780635c975abb1461022a578063715018a61461023557806373dfe0da1461023d57600080fd5b806336568abe1461020f5780633f4ba83a1461022257600080fd5b80630d9005ae116101555780630d9005ae146101ce578063248a9ca3146101d65780632f2ff15d146101fa57600080fd5b806301ffc9a71461017157806308740a3b14610199575b600080fd5b61018461017f366004612601565b61034e565b60405190151581526020015b60405180910390f35b6101c07fec5aad7bdface20c35bc02d6d2d5760df981277427368525d634f4e2603ea19281565b604051908152602001610190565b6007546101c0565b6101c06101e4366004612643565b6000908152600160208190526040909120015490565b61020d610208366004612671565b6103e7565b005b61020d61021d366004612671565b610412565b61020d6104a3565b60005460ff16610184565b61020d6104b5565b61020d61024b366004612643565b6104c7565b61026361025e3660046127fa565b610cc5565b604051610190919061295c565b61020d61127d565b60005461010090046001600160a01b03166040516001600160a01b039091168152602001610190565b6101846102af366004612671565b60009182526001602090815260408084206001600160a01b0393909316845291905290205460ff1690565b6101c0600081565b61020d6102f0366004612671565b61128d565b61020d610303366004612643565b6112b3565b61020d610316366004612a70565b611807565b610263610329366004612643565b611897565b61034161033c366004612643565b611bab565b6040516101909190612a8d565b60007fffffffff0000000000000000000000000000000000000000000000000000000082167f7965db0b0000000000000000000000000000000000000000000000000000000014806103e157507f01ffc9a7000000000000000000000000000000000000000000000000000000007fffffffff000000000000000000000000000000000000000000000000000000008316145b92915050565b6000828152600160208190526040909120015461040381611c4d565b61040d8383611c57565b505050565b6001600160a01b03811633146104955760405162461bcd60e51b815260206004820152602f60248201527f416363657373436f6e74726f6c3a2063616e206f6e6c792072656e6f756e636560448201527f20726f6c657320666f722073656c66000000000000000000000000000000000060648201526084015b60405180910390fd5b61049f8282611cde565b5050565b6104ab611d61565b6104b3611dc1565b565b6104bd611d61565b6104b36000611e13565b6104cf611e83565b6000818152600460209081526040808320815160a0810183528154815260018201546001600160a01b03811694820194909452600160a01b90930460ff16151583830152815160808101909252600281018054919260608501929091908290829061053990612aa0565b80601f016020809104026020016040519081016040528092919081815260200182805461056590612aa0565b80156105b25780601f10610587576101008083540402835291602001916105b2565b820191906000526020600020905b81548152906001019060200180831161059557829003601f168201915b505050505081526020016001820180546105cb90612aa0565b80601f01602080910402602001604051908101604052809291908181526020018280546105f790612aa0565b80156106445780601f1061061957610100808354040283529160200191610644565b820191906000526020600020905b81548152906001019060200180831161062757829003601f168201915b5050505050815260200160028201805461065d90612aa0565b80601f016020809104026020016040519081016040528092919081815260200182805461068990612aa0565b80156106d65780601f106106ab576101008083540402835291602001916106d6565b820191906000526020600020905b8154815290600101906020018083116106b957829003601f168201915b505050505081526020016003820180546106ef90612aa0565b80601f016020809104026020016040519081016040528092919081815260200182805461071b90612aa0565b80156107685780601f1061073d57610100808354040283529160200191610768565b820191906000526020600020905b81548152906001019060200180831161074b57829003601f168201915b5050509190925250505081526040805160e0810182526006840154815260078401546001600160a01b031660208281019190915260088501548284015260098501546060830152600a850154608080840191909152600b86015460a0840152600c9095015460c0830152909201919091529082015101519091506000036108315760405162461bcd60e51b815260206004820152601260248201527f506f6f6c20646f65736e27742065786973740000000000000000000000000000604482015260640161048c565b60008281526006602052604090205460ff1661088f5760405162461bcd60e51b815260206004820152601360248201527f506f6f6c20646f6573206e6f7420657869737400000000000000000000000000604482015260640161048c565b6040810151156108e15760405162461bcd60e51b815260206004820152601660248201527f506f6f6c20697320616c72656164792061637469766500000000000000000000604482015260640161048c565b3360009081527f83f536429adf6630904d25916b54242bffdaeb3b8c76a6f1b526cc6ae788bc62602052604090205460ff16801561096b57806109665760405162461bcd60e51b815260206004820152601b60248201527f43616c6c6572206973206e6f742074686520616374697661746f720000000000604482015260640161048c565b610b13565b6003546040517f1aa9e742000000000000000000000000000000000000000000000000000000008152336004820152602481018590526001600160a01b03909116906000908290631aa9e74290604401606060405180830381865afa1580156109d8573d6000803e3d6000fd5b505050506040513d601f19601f820116820180604052508101906109fc9190612ada565b608085015160600151815191925014610a7d5760405162461bcd60e51b815260206004820152602860248201527f4465706f736974656420616d6f756e7420646f6573206e6f74206d617463682060448201527f706f6f6c20636170000000000000000000000000000000000000000000000000606482015260840161048c565b8360800151602001516001600160a01b031681602001516001600160a01b031614610b105760405162461bcd60e51b815260206004820152603960248201527f4465706f736974656420746f6b656e206164647265737320646f6573206e6f7460448201527f206d6174636820706f6f6c20746f6b656e206164647265737300000000000000606482015260840161048c565b50505b60016040830152608080830180514292018290525160c00151610b3591612b52565b608083015160a001526000838152600460209081526040918290208451815590840151600182018054938601511515600160a01b0274ffffffffffffffffffffffffffffffffffffffffff199094166001600160a01b039092169190911792909217909155606083015180518492919060028301908190610bb69082612bb3565b5060208201516001820190610bcb9082612bb3565b5060408201516002820190610be09082612bb3565b5060608201516003820190610bf59082612bb3565b5050506080918201518051600683015560208082015160078401805473ffffffffffffffffffffffffffffffffffffffff19166001600160a01b039092169190911790556040808301516008850155606080840151600986015583860151600a86015560a080850151600b87015560c090940151600c9095019490945586850151808601519301518151898152339381019390935290820192909252918201527ff1e6981b3d18841dad1ef7f8db1d40663aaa4b8cd2022e5349498c4d406d00df910160405180910390a1505050565b610ccd612555565b610cd5611e83565b6000845111610d265760405162461bcd60e51b815260206004820152601460248201527f4d697373696e67206d6574616461746120555249000000000000000000000000604482015260640161048c565b6000826060015111610d7a5760405162461bcd60e51b815260206004820152601060248201527f496e76616c696420706f6f6c2063617000000000000000000000000000000000604482015260640161048c565b60008260c0015111610df45760405162461bcd60e51b815260206004820152602160248201527f4475726174696f6e206d757374206265206174206c65617374206f6e6520646160448201527f7900000000000000000000000000000000000000000000000000000000000000606482015260840161048c565b608082015115610e465760405162461bcd60e51b815260206004820152601760248201527f53746172742064617465206d757374206265207a65726f000000000000000000604482015260640161048c565b60a082015115610e985760405162461bcd60e51b815260206004820152601560248201527f456e642064617465206d757374206265207a65726f0000000000000000000000604482015260640161048c565b6000826040015111610eec5760405162461bcd60e51b815260206004820152601e60248201527f496e76616c696420696d7072657373696f6e2068797065207265776172640000604482015260640161048c565b6000610ef6611ed6565b60008181526006602052604090205490915060ff1615610f585760405162461bcd60e51b815260206004820152601360248201527f5575696420616c72656164792065786973747300000000000000000000000000604482015260640161048c565b610f6481868686611f7b565b610f6e818661213e565b600081815260046020908152604091829020825160a0810184528154815260018201546001600160a01b03811693820193909352600160a01b90920460ff16151582840152825160808101909352600281018054929391926060850192919082908290610fda90612aa0565b80601f016020809104026020016040519081016040528092919081815260200182805461100690612aa0565b80156110535780601f1061102857610100808354040283529160200191611053565b820191906000526020600020905b81548152906001019060200180831161103657829003601f168201915b5050505050815260200160018201805461106c90612aa0565b80601f016020809104026020016040519081016040528092919081815260200182805461109890612aa0565b80156110e55780601f106110ba576101008083540402835291602001916110e5565b820191906000526020600020905b8154815290600101906020018083116110c857829003601f168201915b505050505081526020016002820180546110fe90612aa0565b80601f016020809104026020016040519081016040528092919081815260200182805461112a90612aa0565b80156111775780601f1061114c57610100808354040283529160200191611177565b820191906000526020600020905b81548152906001019060200180831161115a57829003601f168201915b5050505050815260200160038201805461119090612aa0565b80601f01602080910402602001604051908101604052809291908181526020018280546111bc90612aa0565b80156112095780601f106111de57610100808354040283529160200191611209565b820191906000526020600020905b8154815290600101906020018083116111ec57829003601f168201915b5050509190925250505081526040805160e0810182526006840154815260078401546001600160a01b031660208083019190915260088501549282019290925260098401546060820152600a8401546080820152600b84015460a0820152600c9093015460c0840152015295945050505050565b611285611d61565b6104b3612188565b600082815260016020819052604090912001546112a981611c4d565b61040d8383611cde565b6112bb611e83565b6112c3611d61565b6000818152600460209081526040808320815160a0810183528154815260018201546001600160a01b03811694820194909452600160a01b90930460ff16151583830152815160808101909252600281018054919260608501929091908290829061132d90612aa0565b80601f016020809104026020016040519081016040528092919081815260200182805461135990612aa0565b80156113a65780601f1061137b576101008083540402835291602001916113a6565b820191906000526020600020905b81548152906001019060200180831161138957829003601f168201915b505050505081526020016001820180546113bf90612aa0565b80601f01602080910402602001604051908101604052809291908181526020018280546113eb90612aa0565b80156114385780601f1061140d57610100808354040283529160200191611438565b820191906000526020600020905b81548152906001019060200180831161141b57829003601f168201915b5050505050815260200160028201805461145190612aa0565b80601f016020809104026020016040519081016040528092919081815260200182805461147d90612aa0565b80156114ca5780601f1061149f576101008083540402835291602001916114ca565b820191906000526020600020905b8154815290600101906020018083116114ad57829003601f168201915b505050505081526020016003820180546114e390612aa0565b80601f016020809104026020016040519081016040528092919081815260200182805461150f90612aa0565b801561155c5780601f106115315761010080835404028352916020019161155c565b820191906000526020600020905b81548152906001019060200180831161153f57829003601f168201915b5050509190925250505081526040805160e0810182526006840154815260078401546001600160a01b031660208281019190915260088501548284015260098501546060830152600a850154608080840191909152600b86015460a0840152600c9095015460c0830152909201919091529082015101519091506000036116255760405162461bcd60e51b815260206004820152601260248201527f506f6f6c20646f65736e27742065786973740000000000000000000000000000604482015260640161048c565b6040810151151560011461167b5760405162461bcd60e51b815260206004820152601860248201527f506f6f6c20697320616c726561647920696e6163746976650000000000000000604482015260640161048c565b6000604080830182815260808401514260a0909101528483526004602090815291909220835181559083015160018201805493511515600160a01b0274ffffffffffffffffffffffffffffffffffffffffff199094166001600160a01b0390921691909117929092179091556060820151805183929190600283019081906117039082612bb3565b50602082015160018201906117189082612bb3565b506040820151600282019061172d9082612bb3565b50606082015160038201906117429082612bb3565b5050506080918201518051600683015560208101516007830180546001600160a01b0390921673ffffffffffffffffffffffffffffffffffffffff1990921691909117905560408082015160088401556060820151600984015592810151600a83015560a0810151600b83015560c00151600c90910155517f0522afc663a576de692143f1e714306778ade438ea7c739c3a3964bd78eb2cc6906117fb90849033909182526001600160a01b0316602082015260400190565b60405180910390a15050565b61180f611d61565b6001600160a01b03811661188b5760405162461bcd60e51b815260206004820152602660248201527f4f776e61626c653a206e6577206f776e657220697320746865207a65726f206160448201527f6464726573730000000000000000000000000000000000000000000000000000606482015260840161048c565b61189481611e13565b50565b61189f612555565b600082815260046020908152604091829020825160a0810184528154815260018201546001600160a01b03811693820193909352600160a01b90920460ff1615158284015282516080810190935260028101805492939192606085019291908290829061190b90612aa0565b80601f016020809104026020016040519081016040528092919081815260200182805461193790612aa0565b80156119845780601f1061195957610100808354040283529160200191611984565b820191906000526020600020905b81548152906001019060200180831161196757829003601f168201915b5050505050815260200160018201805461199d90612aa0565b80601f01602080910402602001604051908101604052809291908181526020018280546119c990612aa0565b8015611a165780601f106119eb57610100808354040283529160200191611a16565b820191906000526020600020905b8154815290600101906020018083116119f957829003601f168201915b50505050508152602001600282018054611a2f90612aa0565b80601f0160208091040260200160405190810160405280929190818152602001828054611a5b90612aa0565b8015611aa85780601f10611a7d57610100808354040283529160200191611aa8565b820191906000526020600020905b815481529060010190602001808311611a8b57829003601f168201915b50505050508152602001600382018054611ac190612aa0565b80601f0160208091040260200160405190810160405280929190818152602001828054611aed90612aa0565b8015611b3a5780601f10611b0f57610100808354040283529160200191611b3a565b820191906000526020600020905b815481529060010190602001808311611b1d57829003601f168201915b5050509190925250505081526040805160e0810182526006840154815260078401546001600160a01b031660208281019190915260088501549282019290925260098401546060820152600a8401546080820152600b84015460a0820152600c9093015460c0840152015292915050565b6000818152600560205260409020805460609190611bc890612aa0565b80601f0160208091040260200160405190810160405280929190818152602001828054611bf490612aa0565b8015611c415780601f10611c1657610100808354040283529160200191611c41565b820191906000526020600020905b815481529060010190602001808311611c2457829003601f168201915b50505050509050919050565b61189481336121c5565b60008281526001602090815260408083206001600160a01b038516845290915290205460ff1661049f5760008281526001602081815260408084206001600160a01b0386168086529252808420805460ff19169093179092559051339285917f2f8788117e7eff1d82e926ec794901d17c78024a50270940304540a733656f0d9190a45050565b60008281526001602090815260408083206001600160a01b038516845290915290205460ff161561049f5760008281526001602090815260408083206001600160a01b0385168085529252808320805460ff1916905551339285917ff6391f5c32d9c69d2a47ea670b442974b53935d1edc7fd64eb21e047a839171b9190a45050565b6000546001600160a01b036101009091041633146104b35760405162461bcd60e51b815260206004820181905260248201527f4f776e61626c653a2063616c6c6572206973206e6f7420746865206f776e6572604482015260640161048c565b611dc961223a565b6000805460ff191690557f5db9ee0a495bf2e6ff9c91a7834c1ba4fdd244a5e8aa4e537bd38aeae4b073aa335b6040516001600160a01b03909116815260200160405180910390a1565b600080546001600160a01b038381166101008181027fffffffffffffffffffffff0000000000000000000000000000000000000000ff851617855560405193049190911692909183917f8be0079c531659141344cd1fd0a4f28419497f9722a3daafe3b4186f6b6457e091a35050565b60005460ff16156104b35760405162461bcd60e51b815260206004820152601060248201527f5061757361626c653a2070617573656400000000000000000000000000000000604482015260640161048c565b60408051436020820181905242928201839052600060608301819052929091839081906080016040516020818303038152906040528051906020012090505b60008181526006602052604090205460ff1615611f735781611f3681612c73565b6040805160208101889052908101869052606081018290529093506080019050604051602081830303815290604052805190602001209050611f15565b949350505050565b6040805160a081018252858152336020808301918252600083850181815260608501888152608086018890528a8352600490935294902083518155915160018301805495511515600160a01b0274ffffffffffffffffffffffffffffffffffffffffff199096166001600160a01b0392909216919091179490941790935591518051919291600283019081906120119082612bb3565b50602082015160018201906120269082612bb3565b506040820151600282019061203b9082612bb3565b50606082015160038201906120509082612bb3565b50505060809182015180516006838101919091556020808301516007808601805473ffffffffffffffffffffffffffffffffffffffff19166001600160a01b039093169290921790915560408085015160088701556060850151600987015595840151600a86015560a0840151600b86015560c090930151600c909401939093556000888152925290829020805460ff19166001179055859055517f3a21eb0a9afc1353da741f39aaea48014c074c6720b61baf41e1e18d6ae7b2fb9061211c90869033908790612c8c565b60405180910390a161212e848361228c565b61213884826122d3565b50505050565b60008281526005602052604090206121568282612bb3565b507fa9397f16db6e1e1b43c1c813233f16139006d56a3d1a24412ebdfb0661b5bfff82826040516117fb929190612cbd565b612190611e83565b6000805460ff191660011790557f62e78cea01bee320cd4e420270b5ea74000d11b0c9f74754ebdbfc544b05a258611df63390565b60008281526001602090815260408083206001600160a01b038516845290915290205460ff1661049f576121f88161235b565b61220383602061236d565b604051602001612214929190612cd6565b60408051601f198184030181529082905262461bcd60e51b825261048c91600401612a8d565b60005460ff166104b35760405162461bcd60e51b815260206004820152601460248201527f5061757361626c653a206e6f7420706175736564000000000000000000000000604482015260640161048c565b7f764b3686bd9a8c04d487da87edb364f64d505149c22a8b2664d353539ecf6a338282600001518360200151846040015185606001516040516117fb959493929190612d57565b805160208083015160408085015160608087015160808089015160a0808b015160c0808d015189518f81529b8c019c909c526001600160a01b03909916978a0197909752938801949094528601528401529082015260e08101919091527fd3c186ca228d0fefdb5e931894eda7415bb30b75f95c5b4f41deee5da40f18d290610100016117fb565b60606103e16001600160a01b03831660145b6060600061237c836002612db6565b612387906002612b52565b67ffffffffffffffff81111561239f5761239f6126a1565b6040519080825280601f01601f1916602001820160405280156123c9576020820181803683370190505b5090507f30000000000000000000000000000000000000000000000000000000000000008160008151811061240057612400612dcd565b60200101906001600160f81b031916908160001a9053507f78000000000000000000000000000000000000000000000000000000000000008160018151811061244b5761244b612dcd565b60200101906001600160f81b031916908160001a905350600061246f846002612db6565b61247a906001612b52565b90505b60018111156124ff577f303132333435363738396162636465660000000000000000000000000000000085600f16601081106124bb576124bb612dcd565b1a60f81b8282815181106124d1576124d1612dcd565b60200101906001600160f81b031916908160001a90535060049490941c936124f881612de3565b905061247d565b50831561254e5760405162461bcd60e51b815260206004820181905260248201527f537472696e67733a20686578206c656e67746820696e73756666696369656e74604482015260640161048c565b9392505050565b6040518060a001604052806000801916815260200160006001600160a01b031681526020016000151581526020016125ae6040518060800160405280606081526020016060815260200160608152602001606081525090565b81526020016125fc6040518060e001604052806000815260200160006001600160a01b0316815260200160008152602001600081526020016000815260200160008152602001600081525090565b905290565b60006020828403121561261357600080fd5b81357fffffffff000000000000000000000000000000000000000000000000000000008116811461254e57600080fd5b60006020828403121561265557600080fd5b5035919050565b6001600160a01b038116811461189457600080fd5b6000806040838503121561268457600080fd5b8235915060208301356126968161265c565b809150509250929050565b634e487b7160e01b600052604160045260246000fd5b6040516080810167ffffffffffffffff811182821017156126da576126da6126a1565b60405290565b600082601f8301126126f157600080fd5b813567ffffffffffffffff8082111561270c5761270c6126a1565b604051601f8301601f19908116603f01168101908282118183101715612734576127346126a1565b8160405283815286602085880101111561274d57600080fd5b836020870160208301376000602085830101528094505050505092915050565b600060e0828403121561277f57600080fd5b60405160e0810181811067ffffffffffffffff821117156127a2576127a26126a1565b6040528235815290508060208301356127ba8161265c565b8060208301525060408301356040820152606083013560608201526080830135608082015260a083013560a082015260c083013560c08201525092915050565b6000806000610120848603121561281057600080fd5b833567ffffffffffffffff8082111561282857600080fd5b612834878388016126e0565b9450602086013591508082111561284a57600080fd5b908501906080828803121561285e57600080fd5b6128666126b7565b82358281111561287557600080fd5b612881898286016126e0565b82525060208301358281111561289657600080fd5b6128a2898286016126e0565b6020830152506040830135828111156128ba57600080fd5b6128c6898286016126e0565b6040830152506060830135828111156128de57600080fd5b6128ea898286016126e0565b606083015250809450505050612903856040860161276d565b90509250925092565b60005b8381101561292757818101518382015260200161290f565b50506000910152565b6000815180845261294881602086016020860161290c565b601f01601f19169290920160200192915050565b60208152815160208201526001600160a01b036020830151166040820152604082015115156060820152600060608301516101606080840152805160806101808501526129ad610200850182612930565b9050602082015161017f1980868403016101a08701526129cd8383612930565b92506040840151915080868403016101c08701526129eb8383612930565b92506060840151935080868403016101e08701525050612a0b8183612930565b9150506080840151612a6860a0850182805182526001600160a01b03602082015116602083015260408101516040830152606081015160608301526080810151608083015260a081015160a083015260c081015160c08301525050565b509392505050565b600060208284031215612a8257600080fd5b813561254e8161265c565b60208152600061254e6020830184612930565b600181811c90821680612ab457607f821691505b602082108103612ad457634e487b7160e01b600052602260045260246000fd5b50919050565b600060608284031215612aec57600080fd5b6040516060810181811067ffffffffffffffff82111715612b0f57612b0f6126a1565b604052825181526020830151612b248161265c565b60208201526040928301519281019290925250919050565b634e487b7160e01b600052601160045260246000fd5b808201808211156103e1576103e1612b3c565b601f82111561040d57600081815260208120601f850160051c81016020861015612b8c5750805b601f850160051c820191505b81811015612bab57828155600101612b98565b505050505050565b815167ffffffffffffffff811115612bcd57612bcd6126a1565b612be181612bdb8454612aa0565b84612b65565b602080601f831160018114612c165760008415612bfe5750858301515b600019600386901b1c1916600185901b178555612bab565b600085815260208120601f198616915b82811015612c4557888601518255948401946001909101908401612c26565b5085821015612c635787850151600019600388901b60f8161c191681555b5050505050600190811b01905550565b600060018201612c8557612c85612b3c565b5060010190565b8381526001600160a01b0383166020820152606060408201526000612cb46060830184612930565b95945050505050565b828152604060208201526000611f736040830184612930565b7f416363657373436f6e74726f6c3a206163636f756e7420000000000000000000815260008351612d0e81601785016020880161290c565b7f206973206d697373696e6720726f6c65200000000000000000000000000000006017918401918201528351612d4b81602884016020880161290c565b01602801949350505050565b85815260a060208201526000612d7060a0830187612930565b8281036040840152612d828187612930565b90508281036060840152612d968186612930565b90508281036080840152612daa8185612930565b98975050505050505050565b80820281158282048414176103e1576103e1612b3c565b634e487b7160e01b600052603260045260246000fd5b600081612df257612df2612b3c565b50600019019056fea2646970667358221220a737dfe5d05f17de625b65fba056d821bcf41dcd6f2235326007ca622fd2944e64736f6c63430008120033",
  "linkReferences": {},
  "deployedLinkReferences": {}
}