{
  "_format": "hh-sol-artifact-1",
  "contractName": "HypePool",
  "sourceName": "contracts/HypePool.sol",
  "abi": [
    {
      "inputs": [
        {
          "internalType": "address",
          "name": "escrowContractAddress",
          "type": "address"
        },
        {
          "internalType": "address",
          "name": "activator",
          "type": "address"
        }
      ],
      "stateMutability": "nonpayable",
      "type": "constructor"
    },
    {
      "anonymous": false,
      "inputs": [
        {
          "indexed": true,
          "internalType": "address",
          "name": "previousOwner",
          "type": "address"
        },
        {
          "indexed": true,
          "internalType": "address",
          "name": "newOwner",
          "type": "address"
        }
      ],
      "name": "OwnershipTransferred",
      "type": "event"
    },
    {
      "anonymous": false,
      "inputs": [
        {
          "indexed": false,
          "internalType": "address",
          "name": "account",
          "type": "address"
        }
      ],
      "name": "Paused",
      "type": "event"
    },
    {
      "anonymous": false,
      "inputs": [
        {
          "indexed": false,
          "internalType": "bytes32",
          "name": "poolId",
          "type": "bytes32"
        },
        {
          "indexed": false,
          "internalType": "address",
          "name": "activator",
          "type": "address"
        },
        {
          "indexed": false,
          "internalType": "uint256",
          "name": "startDate",
          "type": "uint256"
        },
        {
          "indexed": false,
          "internalType": "uint256",
          "name": "endDate",
          "type": "uint256"
        }
      ],
      "name": "PoolActivated",
      "type": "event"
    },
    {
      "anonymous": false,
      "inputs": [
        {
          "indexed": false,
          "internalType": "bytes32",
          "name": "poolId",
          "type": "bytes32"
        },
        {
          "indexed": false,
          "internalType": "address",
          "name": "creator",
          "type": "address"
        },
        {
          "indexed": false,
          "internalType": "string",
          "name": "uri",
          "type": "string"
        }
      ],
      "name": "PoolCreated",
      "type": "event"
    },
    {
      "anonymous": false,
      "inputs": [
        {
          "indexed": false,
          "internalType": "bytes32",
          "name": "poolId",
          "type": "bytes32"
        },
        {
          "indexed": false,
          "internalType": "address",
          "name": "deactivator",
          "type": "address"
        }
      ],
      "name": "PoolDeactivated",
      "type": "event"
    },
    {
      "anonymous": false,
      "inputs": [
        {
          "indexed": false,
          "internalType": "bytes32",
          "name": "poolId",
          "type": "bytes32"
        },
        {
          "indexed": false,
          "internalType": "string",
          "name": "title",
          "type": "string"
        },
        {
          "indexed": false,
          "internalType": "string",
          "name": "projectName",
          "type": "string"
        },
        {
          "indexed": false,
          "internalType": "string",
          "name": "tokenName",
          "type": "string"
        },
        {
          "indexed": false,
          "internalType": "string",
          "name": "campaignWord",
          "type": "string"
        }
      ],
      "name": "PoolDetailsCreated",
      "type": "event"
    },
    {
      "anonymous": false,
      "inputs": [
        {
          "indexed": false,
          "internalType": "bytes32",
          "name": "poolId",
          "type": "bytes32"
        },
        {
          "indexed": false,
          "internalType": "uint256",
          "name": "network",
          "type": "uint256"
        },
        {
          "indexed": false,
          "internalType": "address",
          "name": "tokenAddress",
          "type": "address"
        },
        {
          "indexed": false,
          "internalType": "uint256",
          "name": "impressionReward",
          "type": "uint256"
        },
        {
          "indexed": false,
          "internalType": "uint256",
          "name": "cap",
          "type": "uint256"
        },
        {
          "indexed": false,
          "internalType": "uint256",
          "name": "startDate",
          "type": "uint256"
        },
        {
          "indexed": false,
          "internalType": "uint256",
          "name": "endDate",
          "type": "uint256"
        },
        {
          "indexed": false,
          "internalType": "uint256",
          "name": "duration",
          "type": "uint256"
        },
        {
          "indexed": false,
          "internalType": "uint256[]",
          "name": "leaderRewards",
          "type": "uint256[]"
        }
      ],
      "name": "PoolRewardsCreated",
      "type": "event"
    },
    {
      "anonymous": false,
      "inputs": [
        {
          "indexed": false,
          "internalType": "bytes32",
          "name": "poolId",
          "type": "bytes32"
        },
        {
          "indexed": false,
          "internalType": "string",
          "name": "uri",
          "type": "string"
        }
      ],
      "name": "PoolUriSet",
      "type": "event"
    },
    {
      "anonymous": false,
      "inputs": [
        {
          "indexed": true,
          "internalType": "bytes32",
          "name": "role",
          "type": "bytes32"
        },
        {
          "indexed": true,
          "internalType": "address",
          "name": "account",
          "type": "address"
        }
      ],
      "name": "RoleGranted",
      "type": "event"
    },
    {
      "anonymous": false,
      "inputs": [
        {
          "indexed": true,
          "internalType": "bytes32",
          "name": "role",
          "type": "bytes32"
        },
        {
          "indexed": true,
          "internalType": "address",
          "name": "account",
          "type": "address"
        }
      ],
      "name": "RoleRevoked",
      "type": "event"
    },
    {
      "anonymous": false,
      "inputs": [
        {
          "indexed": false,
          "internalType": "address",
          "name": "account",
          "type": "address"
        }
      ],
      "name": "Unpaused",
      "type": "event"
    },
    {
      "inputs": [],
      "name": "ACTIVATOR_ROLE",
      "outputs": [
        {
          "internalType": "bytes32",
          "name": "",
          "type": "bytes32"
        }
      ],
      "stateMutability": "view",
      "type": "function"
    },
    {
      "inputs": [
        {
          "internalType": "bytes32",
          "name": "uuid",
          "type": "bytes32"
        }
      ],
      "name": "activatePool",
      "outputs": [],
      "stateMutability": "nonpayable",
      "type": "function"
    },
    {
      "inputs": [
        {
          "internalType": "bytes32",
          "name": "role",
          "type": "bytes32"
        },
        {
          "internalType": "address",
          "name": "account",
          "type": "address"
        }
      ],
      "name": "addRole",
      "outputs": [],
      "stateMutability": "nonpayable",
      "type": "function"
    },
    {
      "inputs": [
        {
          "internalType": "string",
          "name": "uri",
          "type": "string"
        },
        {
          "components": [
            {
              "internalType": "string",
              "name": "title",
              "type": "string"
            },
            {
              "internalType": "string",
              "name": "projectName",
              "type": "string"
            },
            {
              "internalType": "string",
              "name": "tokenName",
              "type": "string"
            },
            {
              "internalType": "string",
              "name": "campaignWord",
              "type": "string"
            }
          ],
          "internalType": "struct IHypePool.Details",
          "name": "details",
          "type": "tuple"
        },
        {
          "components": [
            {
              "internalType": "uint256",
              "name": "network",
              "type": "uint256"
            },
            {
              "internalType": "address",
              "name": "tokenAddress",
              "type": "address"
            },
            {
              "internalType": "uint256",
              "name": "impressionReward",
              "type": "uint256"
            },
            {
              "internalType": "uint256",
              "name": "cap",
              "type": "uint256"
            },
            {
              "internalType": "uint256",
              "name": "startDate",
              "type": "uint256"
            },
            {
              "internalType": "uint256",
              "name": "endDate",
              "type": "uint256"
            },
            {
              "internalType": "uint256",
              "name": "duration",
              "type": "uint256"
            }
          ],
          "internalType": "struct IHypePool.Rewards",
          "name": "rewards",
          "type": "tuple"
        },
        {
          "internalType": "uint256[]",
          "name": "leaderRewards",
          "type": "uint256[]"
        }
      ],
      "name": "createPool",
      "outputs": [
        {
          "components": [
            {
              "internalType": "bytes32",
              "name": "id",
              "type": "bytes32"
            },
            {
              "internalType": "address",
              "name": "creator",
              "type": "address"
            },
            {
              "components": [
                {
                  "internalType": "string",
                  "name": "title",
                  "type": "string"
                },
                {
                  "internalType": "string",
                  "name": "projectName",
                  "type": "string"
                },
                {
                  "internalType": "string",
                  "name": "tokenName",
                  "type": "string"
                },
                {
                  "internalType": "string",
                  "name": "campaignWord",
                  "type": "string"
                }
              ],
              "internalType": "struct IHypePool.Details",
              "name": "details",
              "type": "tuple"
            },
            {
              "components": [
                {
                  "internalType": "uint256",
                  "name": "network",
                  "type": "uint256"
                },
                {
                  "internalType": "address",
                  "name": "tokenAddress",
                  "type": "address"
                },
                {
                  "internalType": "uint256",
                  "name": "impressionReward",
                  "type": "uint256"
                },
                {
                  "internalType": "uint256",
                  "name": "cap",
                  "type": "uint256"
                },
                {
                  "internalType": "uint256",
                  "name": "startDate",
                  "type": "uint256"
                },
                {
                  "internalType": "uint256",
                  "name": "endDate",
                  "type": "uint256"
                },
                {
                  "internalType": "uint256",
                  "name": "duration",
                  "type": "uint256"
                }
              ],
              "internalType": "struct IHypePool.Rewards",
              "name": "rewards",
              "type": "tuple"
            },
            {
              "internalType": "uint256[]",
              "name": "leaderRewards",
              "type": "uint256[]"
            }
          ],
          "internalType": "struct IHypePool.HypePool",
          "name": "",
          "type": "tuple"
        }
      ],
      "stateMutability": "nonpayable",
      "type": "function"
    },
    {
      "inputs": [
        {
          "internalType": "bytes32",
          "name": "uuid",
          "type": "bytes32"
        }
      ],
      "name": "deactivatePool",
      "outputs": [],
      "stateMutability": "nonpayable",
      "type": "function"
    },
    {
      "inputs": [
        {
          "internalType": "bytes32",
          "name": "uuid",
          "type": "bytes32"
        }
      ],
      "name": "doesPoolExist",
      "outputs": [
        {
          "internalType": "bool",
          "name": "",
          "type": "bool"
        }
      ],
      "stateMutability": "view",
      "type": "function"
    },
    {
      "inputs": [],
      "name": "getCurrentIndex",
      "outputs": [
        {
          "internalType": "bytes32",
          "name": "",
          "type": "bytes32"
        }
      ],
      "stateMutability": "view",
      "type": "function"
    },
    {
      "inputs": [
        {
          "internalType": "bytes32",
          "name": "uuid",
          "type": "bytes32"
        }
      ],
      "name": "getPool",
      "outputs": [
        {
          "components": [
            {
              "internalType": "bytes32",
              "name": "id",
              "type": "bytes32"
            },
            {
              "internalType": "address",
              "name": "creator",
              "type": "address"
            },
            {
              "components": [
                {
                  "internalType": "string",
                  "name": "title",
                  "type": "string"
                },
                {
                  "internalType": "string",
                  "name": "projectName",
                  "type": "string"
                },
                {
                  "internalType": "string",
                  "name": "tokenName",
                  "type": "string"
                },
                {
                  "internalType": "string",
                  "name": "campaignWord",
                  "type": "string"
                }
              ],
              "internalType": "struct IHypePool.Details",
              "name": "details",
              "type": "tuple"
            },
            {
              "components": [
                {
                  "internalType": "uint256",
                  "name": "network",
                  "type": "uint256"
                },
                {
                  "internalType": "address",
                  "name": "tokenAddress",
                  "type": "address"
                },
                {
                  "internalType": "uint256",
                  "name": "impressionReward",
                  "type": "uint256"
                },
                {
                  "internalType": "uint256",
                  "name": "cap",
                  "type": "uint256"
                },
                {
                  "internalType": "uint256",
                  "name": "startDate",
                  "type": "uint256"
                },
                {
                  "internalType": "uint256",
                  "name": "endDate",
                  "type": "uint256"
                },
                {
                  "internalType": "uint256",
                  "name": "duration",
                  "type": "uint256"
                }
              ],
              "internalType": "struct IHypePool.Rewards",
              "name": "rewards",
              "type": "tuple"
            },
            {
              "internalType": "uint256[]",
              "name": "leaderRewards",
              "type": "uint256[]"
            }
          ],
          "internalType": "struct IHypePool.HypePool",
          "name": "",
          "type": "tuple"
        }
      ],
      "stateMutability": "view",
      "type": "function"
    },
    {
      "inputs": [
        {
          "internalType": "bytes32",
          "name": "uuid",
          "type": "bytes32"
        }
      ],
      "name": "getPoolRewards",
      "outputs": [
        {
          "components": [
            {
              "internalType": "uint256",
              "name": "network",
              "type": "uint256"
            },
            {
              "internalType": "address",
              "name": "tokenAddress",
              "type": "address"
            },
            {
              "internalType": "uint256",
              "name": "impressionReward",
              "type": "uint256"
            },
            {
              "internalType": "uint256",
              "name": "cap",
              "type": "uint256"
            },
            {
              "internalType": "uint256",
              "name": "startDate",
              "type": "uint256"
            },
            {
              "internalType": "uint256",
              "name": "endDate",
              "type": "uint256"
            },
            {
              "internalType": "uint256",
              "name": "duration",
              "type": "uint256"
            }
          ],
          "internalType": "struct IHypePool.Rewards",
          "name": "",
          "type": "tuple"
        }
      ],
      "stateMutability": "view",
      "type": "function"
    },
    {
      "inputs": [
        {
          "internalType": "bytes32",
          "name": "role",
          "type": "bytes32"
        },
        {
          "internalType": "address",
          "name": "account",
          "type": "address"
        }
      ],
      "name": "hasRole",
      "outputs": [
        {
          "internalType": "bool",
          "name": "",
          "type": "bool"
        }
      ],
      "stateMutability": "view",
      "type": "function"
    },
    {
      "inputs": [
        {
          "internalType": "bytes32",
          "name": "uuid",
          "type": "bytes32"
        }
      ],
      "name": "isActive",
      "outputs": [
        {
          "internalType": "bool",
          "name": "",
          "type": "bool"
        }
      ],
      "stateMutability": "view",
      "type": "function"
    },
    {
      "inputs": [
        {
          "internalType": "bytes32",
          "name": "uuid",
          "type": "bytes32"
        }
      ],
      "name": "isExpired",
      "outputs": [
        {
          "internalType": "bool",
          "name": "",
          "type": "bool"
        }
      ],
      "stateMutability": "view",
      "type": "function"
    },
    {
      "inputs": [
        {
          "internalType": "bytes32",
          "name": "uuid",
          "type": "bytes32"
        }
      ],
      "name": "isGracePeriod",
      "outputs": [
        {
          "internalType": "bool",
          "name": "",
          "type": "bool"
        }
      ],
      "stateMutability": "view",
      "type": "function"
    },
    {
      "inputs": [],
      "name": "owner",
      "outputs": [
        {
          "internalType": "address",
          "name": "",
          "type": "address"
        }
      ],
      "stateMutability": "view",
      "type": "function"
    },
    {
      "inputs": [],
      "name": "pause",
      "outputs": [],
      "stateMutability": "nonpayable",
      "type": "function"
    },
    {
      "inputs": [],
      "name": "paused",
      "outputs": [
        {
          "internalType": "bool",
          "name": "",
          "type": "bool"
        }
      ],
      "stateMutability": "view",
      "type": "function"
    },
    {
      "inputs": [
        {
          "internalType": "bytes32",
          "name": "uuid",
          "type": "bytes32"
        }
      ],
      "name": "poolURI",
      "outputs": [
        {
          "internalType": "string",
          "name": "",
          "type": "string"
        }
      ],
      "stateMutability": "view",
      "type": "function"
    },
    {
      "inputs": [],
      "name": "renounceOwnership",
      "outputs": [],
      "stateMutability": "nonpayable",
      "type": "function"
    },
    {
      "inputs": [
        {
          "internalType": "bytes32",
          "name": "role",
          "type": "bytes32"
        },
        {
          "internalType": "address",
          "name": "account",
          "type": "address"
        }
      ],
      "name": "revokeRole",
      "outputs": [],
      "stateMutability": "nonpayable",
      "type": "function"
    },
    {
      "inputs": [
        {
          "internalType": "address",
          "name": "newOwner",
          "type": "address"
        }
      ],
      "name": "transferOwnership",
      "outputs": [],
      "stateMutability": "nonpayable",
      "type": "function"
    },
    {
      "inputs": [],
      "name": "unpause",
      "outputs": [],
      "stateMutability": "nonpayable",
      "type": "function"
    }
  ],
  "bytecode": "0x60806040523480156200001157600080fd5b5060405162003a6938038062003a698339810160408190526200003491620002f0565b6007805460ff1916905562000049336200005d565b620000558282620000b7565b505062000328565b600780546001600160a01b03838116610100818102610100600160a81b031985161790945560405193909204169182907f8be0079c531659141344cd1fd0a4f28419497f9722a3daafe3b4186f6b6457e090600090a35050565b6001600160a01b0382166200012a5760405162461bcd60e51b815260206004820152602e60248201527f457363726f7720636f6e747261637420616464726573732063616e6e6f74206260448201526d65207a65726f206164647265737360901b60648201526084015b60405180910390fd5b6001600160a01b038116620001935760405162461bcd60e51b815260206004820152602860248201527f416374697661746f7220616464726573732063616e6e6f74206265207a65726f604482015267206164647265737360c01b606482015260840162000121565b600280546001600160a01b0319166001600160a01b038416179055620001e67fec5aad7bdface20c35bc02d6d2d5760df981277427368525d634f4e2603ea1928262000209602090811b62000fa417901c565b600180546001600160a01b0319166001600160a01b039290921691909117905550565b6001600160a01b0381166200027a5760405162461bcd60e51b815260206004820152603060248201527f416363657373436f6e74726f6c3a2063616e6e6f74206772616e7420726f6c6560448201526f20746f207a65726f206164647265737360801b606482015260840162000121565b6000828152602081815260408083206001600160a01b0385168085529252808320805460ff1916600117905551909184917f2ae6a113c0ed5b78a53413ffbb7679881f11145ccfba4fb92e863dfcd5a1d2f39190a35050565b80516001600160a01b0381168114620002eb57600080fd5b919050565b600080604083850312156200030457600080fd5b6200030f83620002d3565b91506200031f60208401620002d3565b90509250929050565b61373180620003386000396000f3fe608060405234801561001057600080fd5b50600436106101775760003560e01c806373dfe0da116100d8578063d547741f1161008c578063f2fde38b11610066578063f2fde38b14610317578063f6c009271461032a578063f8607fb11461033d57600080fd5b8063d547741f146102de578063d9d97859146102f1578063e959b38a1461030457600080fd5b80638da5cb5b116100bd5780638da5cb5b1461028f57806391d14854146102b8578063bd033bd0146102cb57600080fd5b806373dfe0da146102745780638456cb591461028757600080fd5b80634a3ddf3e1161012f5780635c975abb116101145780635c975abb1461024e5780636db2feb214610259578063715018a61461026c57600080fd5b80634a3ddf3e1461021b5780635c36901c1461023b57600080fd5b806323692edd1161016057806323692edd146101be57806324bc5972146101f15780633f4ba83a1461021157600080fd5b806308740a3b1461017c5780630d9005ae146101b6575b600080fd5b6101a37fec5aad7bdface20c35bc02d6d2d5760df981277427368525d634f4e2603ea19281565b6040519081526020015b60405180910390f35b6006546101a3565b6101e16101cc366004612e5b565b60009081526005602052604090205460ff1690565b60405190151581526020016101ad565b6102046101ff366004612e5b565b61035d565b6040516101ad9190612e74565b6102196103bc565b005b61022e6102293660046130cc565b6103ce565b6040516101ad9190613283565b6101e1610249366004612e5b565b6103f3565b60075460ff166101e1565b6101e1610267366004612e5b565b61075f565b610219610ac8565b610219610282366004612e5b565b610ada565b610219610aee565b60075461010090046001600160a01b03166040516001600160a01b0390911681526020016101ad565b6101e16102c63660046133a9565b610afe565b6101e16102d9366004612e5b565b610b29565b6102196102ec3660046133a9565b610eb4565b6102196102ff366004612e5b565b610f8b565b6102196103123660046133a9565b610fa4565b6102196103253660046133d9565b611079565b61022e610338366004612e5b565b611106565b61035061034b366004612e5b565b611459565b6040516101ad91906133f6565b6103a66040518060e001604052806000815260200160006001600160a01b0316815260200160008152602001600081526020016000815260200160008152602001600081525090565b60006103b183611106565b606001519392505050565b6103c46114fb565b6103cc61155b565b565b6103d6612d50565b6103de6115ad565b6103ea85858585611600565b95945050505050565b6000818152600360209081526040808320815160a0810183528154815260018201546001600160a01b031693810193909352815160808101835260028201805486959485019291908290829061044890613409565b80601f016020809104026020016040519081016040528092919081815260200182805461047490613409565b80156104c15780601f10610496576101008083540402835291602001916104c1565b820191906000526020600020905b8154815290600101906020018083116104a457829003601f168201915b505050505081526020016001820180546104da90613409565b80601f016020809104026020016040519081016040528092919081815260200182805461050690613409565b80156105535780601f1061052857610100808354040283529160200191610553565b820191906000526020600020905b81548152906001019060200180831161053657829003601f168201915b5050505050815260200160028201805461056c90613409565b80601f016020809104026020016040519081016040528092919081815260200182805461059890613409565b80156105e55780601f106105ba576101008083540402835291602001916105e5565b820191906000526020600020905b8154815290600101906020018083116105c857829003601f168201915b505050505081526020016003820180546105fe90613409565b80601f016020809104026020016040519081016040528092919081815260200182805461062a90613409565b80156106775780601f1061064c57610100808354040283529160200191610677565b820191906000526020600020905b81548152906001019060200180831161065a57829003601f168201915b5050509190925250505081526040805160e0810182526006840154815260078401546001600160a01b031660208281019190915260088501548284015260098501546060830152600a8501546080830152600b85015460a0830152600c85015460c083015280840191909152600d8401805483518184028101840185528181529390940193909183018282801561072d57602002820191906000526020600020905b815481526020019060010190808311610719575b5050505050815250509050806060015160a00151600014158015610758575042816060015160a00151115b9392505050565b6000818152600360209081526040808320815160a0810183528154815260018201546001600160a01b03169381019390935281516080810183526002820180548695948501929190829082906107b490613409565b80601f01602080910402602001604051908101604052809291908181526020018280546107e090613409565b801561082d5780601f106108025761010080835404028352916020019161082d565b820191906000526020600020905b81548152906001019060200180831161081057829003601f168201915b5050505050815260200160018201805461084690613409565b80601f016020809104026020016040519081016040528092919081815260200182805461087290613409565b80156108bf5780601f10610894576101008083540402835291602001916108bf565b820191906000526020600020905b8154815290600101906020018083116108a257829003601f168201915b505050505081526020016002820180546108d890613409565b80601f016020809104026020016040519081016040528092919081815260200182805461090490613409565b80156109515780601f1061092657610100808354040283529160200191610951565b820191906000526020600020905b81548152906001019060200180831161093457829003601f168201915b5050505050815260200160038201805461096a90613409565b80601f016020809104026020016040519081016040528092919081815260200182805461099690613409565b80156109e35780601f106109b8576101008083540402835291602001916109e3565b820191906000526020600020905b8154815290600101906020018083116109c657829003601f168201915b5050509190925250505081526040805160e0810182526006840154815260078401546001600160a01b031660208281019190915260088501548284015260098501546060830152600a8501546080830152600b85015460a0830152600c85015460c083015280840191909152600d84018054835181840281018401855281815293909401939091830182828015610a9957602002820191906000526020600020905b815481526020019060010190808311610a85575b5050505050815250509050806060015160a0015160001415801561075857506060015160a00151421192915050565b610ad06114fb565b6103cc6000611bf1565b610ae26115ad565b610aeb81611c62565b50565b610af66114fb565b6103cc612425565b6000828152602081815260408083206001600160a01b038516845290915290205460ff165b92915050565b6000818152600360209081526040808320815160a0810183528154815260018201546001600160a01b0316938101939093528151608081018352600282018054869594850192919082908290610b7e90613409565b80601f0160208091040260200160405190810160405280929190818152602001828054610baa90613409565b8015610bf75780601f10610bcc57610100808354040283529160200191610bf7565b820191906000526020600020905b815481529060010190602001808311610bda57829003601f168201915b50505050508152602001600182018054610c1090613409565b80601f0160208091040260200160405190810160405280929190818152602001828054610c3c90613409565b8015610c895780601f10610c5e57610100808354040283529160200191610c89565b820191906000526020600020905b815481529060010190602001808311610c6c57829003601f168201915b50505050508152602001600282018054610ca290613409565b80601f0160208091040260200160405190810160405280929190818152602001828054610cce90613409565b8015610d1b5780601f10610cf057610100808354040283529160200191610d1b565b820191906000526020600020905b815481529060010190602001808311610cfe57829003601f168201915b50505050508152602001600382018054610d3490613409565b80601f0160208091040260200160405190810160405280929190818152602001828054610d6090613409565b8015610dad5780601f10610d8257610100808354040283529160200191610dad565b820191906000526020600020905b815481529060010190602001808311610d9057829003601f168201915b5050509190925250505081526040805160e0810182526006840154815260078401546001600160a01b031660208281019190915260088501548284015260098501546060830152600a8501546080830152600b85015460a0830152600c85015460c083015280840191909152600d84018054835181840281018401855281815293909401939091830182828015610e6357602002820191906000526020600020905b815481526020019060010190808311610e4f575b5050505050815250509050806060015160a00151600014158015610e8e575042816060015160a00151105b80156107585750606081015160a00151610eab9062093a80613459565b42109392505050565b6001600160a01b038116610f355760405162461bcd60e51b815260206004820152603360248201527f416363657373436f6e74726f6c3a2063616e6e6f74207265766f6b6520726f6c60448201527f652066726f6d207a65726f20616464726573730000000000000000000000000060648201526084015b60405180910390fd5b6000828152602081815260408083206001600160a01b0385168085529252808320805460ff1916905551909184917f155aaafb6329a2098580462df33ec4b7441b19729b9601c5fc17ae1cf99a8a529190a35050565b610f936115ad565b610f9b6114fb565b610aeb81612462565b6001600160a01b0381166110205760405162461bcd60e51b815260206004820152603060248201527f416363657373436f6e74726f6c3a2063616e6e6f74206772616e7420726f6c6560448201527f20746f207a65726f2061646472657373000000000000000000000000000000006064820152608401610f2c565b6000828152602081815260408083206001600160a01b0385168085529252808320805460ff1916600117905551909184917f2ae6a113c0ed5b78a53413ffbb7679881f11145ccfba4fb92e863dfcd5a1d2f39190a35050565b6110816114fb565b6001600160a01b0381166110fd5760405162461bcd60e51b815260206004820152602660248201527f4f776e61626c653a206e6577206f776e657220697320746865207a65726f206160448201527f64647265737300000000000000000000000000000000000000000000000000006064820152608401610f2c565b610aeb81611bf1565b61110e612d50565b600082815260036020908152604091829020825160a0810184528154815260018201546001600160a01b031692810192909252825160808101845260028201805493949293928501928290829061116490613409565b80601f016020809104026020016040519081016040528092919081815260200182805461119090613409565b80156111dd5780601f106111b2576101008083540402835291602001916111dd565b820191906000526020600020905b8154815290600101906020018083116111c057829003601f168201915b505050505081526020016001820180546111f690613409565b80601f016020809104026020016040519081016040528092919081815260200182805461122290613409565b801561126f5780601f106112445761010080835404028352916020019161126f565b820191906000526020600020905b81548152906001019060200180831161125257829003601f168201915b5050505050815260200160028201805461128890613409565b80601f01602080910402602001604051908101604052809291908181526020018280546112b490613409565b80156113015780601f106112d657610100808354040283529160200191611301565b820191906000526020600020905b8154815290600101906020018083116112e457829003601f168201915b5050505050815260200160038201805461131a90613409565b80601f016020809104026020016040519081016040528092919081815260200182805461134690613409565b80156113935780601f1061136857610100808354040283529160200191611393565b820191906000526020600020905b81548152906001019060200180831161137657829003601f168201915b5050509190925250505081526040805160e0810182526006840154815260078401546001600160a01b031660208281019190915260088501548284015260098501546060830152600a8501546080830152600b85015460a0830152600c85015460c083015280840191909152600d8401805483518184028101840185528181529390940193909183018282801561144957602002820191906000526020600020905b815481526020019060010190808311611435575b5050505050815250509050919050565b600081815260046020526040902080546060919061147690613409565b80601f01602080910402602001604051908101604052809291908181526020018280546114a290613409565b80156114ef5780601f106114c4576101008083540402835291602001916114ef565b820191906000526020600020905b8154815290600101906020018083116114d257829003601f168201915b50505050509050919050565b6007546001600160a01b036101009091041633146103cc5760405162461bcd60e51b815260206004820181905260248201527f4f776e61626c653a2063616c6c6572206973206e6f7420746865206f776e65726044820152606401610f2c565b6115636129c0565b6007805460ff191690557f5db9ee0a495bf2e6ff9c91a7834c1ba4fdd244a5e8aa4e537bd38aeae4b073aa335b6040516001600160a01b03909116815260200160405180910390a1565b60075460ff16156103cc5760405162461bcd60e51b815260206004820152601060248201527f5061757361626c653a20706175736564000000000000000000000000000000006044820152606401610f2c565b611608612d50565b60008551116116595760405162461bcd60e51b815260206004820152601460248201527f4d697373696e67206d65746164617461205552490000000000000000000000006044820152606401610f2c565b60008360600151116116ad5760405162461bcd60e51b815260206004820152601060248201527f496e76616c696420706f6f6c20636170000000000000000000000000000000006044820152606401610f2c565b60008360c00151116117275760405162461bcd60e51b815260206004820152602160248201527f4475726174696f6e206d757374206265206174206c65617374206f6e6520646160448201527f79000000000000000000000000000000000000000000000000000000000000006064820152608401610f2c565b6080830151156117795760405162461bcd60e51b815260206004820152601760248201527f53746172742064617465206d757374206265207a65726f0000000000000000006044820152606401610f2c565b60a0830151156117cb5760405162461bcd60e51b815260206004820152601560248201527f456e642064617465206d757374206265207a65726f00000000000000000000006044820152606401610f2c565b600083604001511161181f5760405162461bcd60e51b815260206004820152601e60248201527f496e76616c696420696d7072657373696f6e20687970652072657761726400006044820152606401610f2c565b6000611829612a12565b60008181526005602052604090205490915060ff161561188b5760405162461bcd60e51b815260206004820152601360248201527f5575696420616c726561647920657869737473000000000000000000000000006044820152606401610f2c565b6118988187878787612ab7565b6118a28187612c64565b600081815260036020908152604091829020825160a0810184528154815260018201546001600160a01b03169281019290925282516080810184526002820180549394929392850192829082906118f890613409565b80601f016020809104026020016040519081016040528092919081815260200182805461192490613409565b80156119715780601f1061194657610100808354040283529160200191611971565b820191906000526020600020905b81548152906001019060200180831161195457829003601f168201915b5050505050815260200160018201805461198a90613409565b80601f01602080910402602001604051908101604052809291908181526020018280546119b690613409565b8015611a035780601f106119d857610100808354040283529160200191611a03565b820191906000526020600020905b8154815290600101906020018083116119e657829003601f168201915b50505050508152602001600282018054611a1c90613409565b80601f0160208091040260200160405190810160405280929190818152602001828054611a4890613409565b8015611a955780601f10611a6a57610100808354040283529160200191611a95565b820191906000526020600020905b815481529060010190602001808311611a7857829003601f168201915b50505050508152602001600382018054611aae90613409565b80601f0160208091040260200160405190810160405280929190818152602001828054611ada90613409565b8015611b275780601f10611afc57610100808354040283529160200191611b27565b820191906000526020600020905b815481529060010190602001808311611b0a57829003601f168201915b5050509190925250505081526040805160e0810182526006840154815260078401546001600160a01b031660208281019190915260088501548284015260098501546060830152600a8501546080830152600b85015460a0830152600c85015460c083015280840191909152600d84018054835181840281018401855281815293909401939091830182828015611bdd57602002820191906000526020600020905b815481526020019060010190808311611bc9575b505050505081525050915050949350505050565b600780546001600160a01b038381166101008181027fffffffffffffffffffffff0000000000000000000000000000000000000000ff85161790945560405193909204169182907f8be0079c531659141344cd1fd0a4f28419497f9722a3daafe3b4186f6b6457e090600090a35050565b6000818152600360209081526040808320815160a0810183528154815260018201546001600160a01b0316938101939093528151608081018352600282018054929385019282908290611cb490613409565b80601f0160208091040260200160405190810160405280929190818152602001828054611ce090613409565b8015611d2d5780601f10611d0257610100808354040283529160200191611d2d565b820191906000526020600020905b815481529060010190602001808311611d1057829003601f168201915b50505050508152602001600182018054611d4690613409565b80601f0160208091040260200160405190810160405280929190818152602001828054611d7290613409565b8015611dbf5780601f10611d9457610100808354040283529160200191611dbf565b820191906000526020600020905b815481529060010190602001808311611da257829003601f168201915b50505050508152602001600282018054611dd890613409565b80601f0160208091040260200160405190810160405280929190818152602001828054611e0490613409565b8015611e515780601f10611e2657610100808354040283529160200191611e51565b820191906000526020600020905b815481529060010190602001808311611e3457829003601f168201915b50505050508152602001600382018054611e6a90613409565b80601f0160208091040260200160405190810160405280929190818152602001828054611e9690613409565b8015611ee35780601f10611eb857610100808354040283529160200191611ee3565b820191906000526020600020905b815481529060010190602001808311611ec657829003601f168201915b5050509190925250505081526040805160e0810182526006840154815260078401546001600160a01b031660208281019190915260088501548284015260098501546060830152600a8501546080830152600b85015460a0830152600c85015460c083015280840191909152600d84018054835181840281018401855281815293909401939091830182828015611f9957602002820191906000526020600020905b815481526020019060010190808311611f85575b5050505050815250509050806060015160400151600003611ffc5760405162461bcd60e51b815260206004820152601260248201527f506f6f6c20646f65736e277420657869737400000000000000000000000000006044820152606401610f2c565b60008281526005602052604090205460ff1661205a5760405162461bcd60e51b815260206004820152601360248201527f506f6f6c20646f6573206e6f74206578697374000000000000000000000000006044820152606401610f2c565b612063826103f3565b156120b05760405162461bcd60e51b815260206004820152601660248201527f506f6f6c20697320616c726561647920616374697665000000000000000000006044820152606401610f2c565b60006120dc7fec5aad7bdface20c35bc02d6d2d5760df981277427368525d634f4e2603ea19233610afe565b905080612289576002546040517f1aa9e742000000000000000000000000000000000000000000000000000000008152336004820152602481018590526001600160a01b03909116906000908290631aa9e742906044016040805180830381865afa15801561214f573d6000803e3d6000fd5b505050506040513d601f19601f82011682018060405250810190612173919061346c565b60608086015101518151919250146121f35760405162461bcd60e51b815260206004820152602860248201527f4465706f736974656420616d6f756e7420646f6573206e6f74206d617463682060448201527f706f6f6c206361700000000000000000000000000000000000000000000000006064820152608401610f2c565b8360600151602001516001600160a01b031681602001516001600160a01b0316146122865760405162461bcd60e51b815260206004820152603960248201527f4465706f736974656420746f6b656e206164647265737320646f6573206e6f7460448201527f206d6174636820706f6f6c20746f6b656e2061646472657373000000000000006064820152608401610f2c565b50505b606082018051426080909101819052905160c001516122a791613459565b606083015160a0015260008381526003602090815260409182902084518155908401516001820180546001600160a01b0319166001600160a01b0390921691909117905590830151805184929190600283019081906123069082613511565b506020820151600182019061231b9082613511565b50604082015160028201906123309082613511565b50606082015160038201906123459082613511565b505050606082810151805160068401556020808201516007850180546001600160a01b0319166001600160a01b0390921691909117905560408201516008850155918101516009840155608080820151600a85015560a0820151600b85015560c090910151600c84015583015180516123c492600d8501920190612dfb565b50505060608281015160808082015160a0909201516040805188815233602082015290810193909352928201929092527ff1e6981b3d18841dad1ef7f8db1d40663aaa4b8cd2022e5349498c4d406d00df91015b60405180910390a1505050565b61242d6115ad565b6007805460ff191660011790557f62e78cea01bee320cd4e420270b5ea74000d11b0c9f74754ebdbfc544b05a2586115903390565b6000818152600360209081526040808320815160a0810183528154815260018201546001600160a01b03169381019390935281516080810183526002820180549293850192829082906124b490613409565b80601f01602080910402602001604051908101604052809291908181526020018280546124e090613409565b801561252d5780601f106125025761010080835404028352916020019161252d565b820191906000526020600020905b81548152906001019060200180831161251057829003601f168201915b5050505050815260200160018201805461254690613409565b80601f016020809104026020016040519081016040528092919081815260200182805461257290613409565b80156125bf5780601f10612594576101008083540402835291602001916125bf565b820191906000526020600020905b8154815290600101906020018083116125a257829003601f168201915b505050505081526020016002820180546125d890613409565b80601f016020809104026020016040519081016040528092919081815260200182805461260490613409565b80156126515780601f1061262657610100808354040283529160200191612651565b820191906000526020600020905b81548152906001019060200180831161263457829003601f168201915b5050505050815260200160038201805461266a90613409565b80601f016020809104026020016040519081016040528092919081815260200182805461269690613409565b80156126e35780601f106126b8576101008083540402835291602001916126e3565b820191906000526020600020905b8154815290600101906020018083116126c657829003601f168201915b5050509190925250505081526040805160e0810182526006840154815260078401546001600160a01b031660208281019190915260088501548284015260098501546060830152600a8501546080830152600b85015460a0830152600c85015460c083015280840191909152600d8401805483518184028101840185528181529390940193909183018282801561279957602002820191906000526020600020905b815481526020019060010190808311612785575b50505050508152505090508060600151604001516000036127fc5760405162461bcd60e51b815260206004820152601260248201527f506f6f6c20646f65736e277420657869737400000000000000000000000000006044820152606401610f2c565b612805826103f3565b15156001146128565760405162461bcd60e51b815260206004820152601860248201527f506f6f6c20697320616c726561647920696e61637469766500000000000000006044820152606401610f2c565b61286362093a80426135d1565b606082015160a0015260008281526003602090815260409182902083518155908301516001820180546001600160a01b0319166001600160a01b0390921691909117905590820151805183929190600283019081906128c29082613511565b50602082015160018201906128d79082613511565b50604082015160028201906128ec9082613511565b50606082015160038201906129019082613511565b505050606082810151805160068401556020808201516007850180546001600160a01b0319166001600160a01b0390921691909117905560408201516008850155918101516009840155608080820151600a85015560a0820151600b85015560c090910151600c840155830151805161298092600d8501920190612dfb565b5050604080518481523360208201527f0522afc663a576de692143f1e714306778ade438ea7c739c3a3964bd78eb2cc69250015b60405180910390a15050565b60075460ff166103cc5760405162461bcd60e51b815260206004820152601460248201527f5061757361626c653a206e6f74207061757365640000000000000000000000006044820152606401610f2c565b60408051436020820181905242928201839052600060608301819052929091839081906080016040516020818303038152906040528051906020012090505b60008181526005602052604090205460ff1615612aaf5781612a72816135e4565b6040805160208101889052908101869052606081018290529093506080019050604051602081830303815290604052805190602001209050612a51565b949350505050565b6040805160a081018252868152336020808301918252828401878152606084018790526080840186905260008a815260039092529390208251815590516001820180546001600160a01b0319166001600160a01b039092169190911790559151805191929160028301908190612b2d9082613511565b5060208201516001820190612b429082613511565b5060408201516002820190612b579082613511565b5060608201516003820190612b6c9082613511565b505050606082810151805160068401556020808201516007850180546001600160a01b0319166001600160a01b0390921691909117905560408201516008850155918101516009840155608080820151600a85015560a0820151600b85015560c090910151600c8401558301518051612beb92600d8501920190612dfb565b50505060008581526005602052604090819020805460ff191660011790556006869055517f3a21eb0a9afc1353da741f39aaea48014c074c6720b61baf41e1e18d6ae7b2fb90612c40908790339088906135fd565b60405180910390a1612c528584612cae565b612c5d858383612cf5565b5050505050565b6000828152600460205260409020612c7c8282613511565b507fa9397f16db6e1e1b43c1c813233f16139006d56a3d1a24412ebdfb0661b5bfff82826040516129b4929190613625565b7f764b3686bd9a8c04d487da87edb364f64d505149c22a8b2664d353539ecf6a338282600001518360200151846040015185606001516040516129b495949392919061363e565b7f658a37a2d0d90ccd8026f4154a00fc72211da5b1fb273a7e0cc585493357696783836000015184602001518560400151866060015187608001518860a001518960c00151896040516124189998979695949392919061369d565b6040518060a001604052806000801916815260200160006001600160a01b03168152602001612da06040518060800160405280606081526020016060815260200160608152602001606081525090565b8152602001612dee6040518060e001604052806000815260200160006001600160a01b0316815260200160008152602001600081526020016000815260200160008152602001600081525090565b8152602001606081525090565b828054828255906000526020600020908101928215612e36579160200282015b82811115612e36578251825591602001919060010190612e1b565b50612e42929150612e46565b5090565b5b80821115612e425760008155600101612e47565b600060208284031215612e6d57600080fd5b5035919050565b60e08101610b238284805182526001600160a01b03602082015116602083015260408101516040830152606081015160608301526080810151608083015260a081015160a083015260c081015160c08301525050565b634e487b7160e01b600052604160045260246000fd5b6040516080810167ffffffffffffffff81118282101715612f0357612f03612eca565b60405290565b604051601f8201601f1916810167ffffffffffffffff81118282101715612f3257612f32612eca565b604052919050565b600082601f830112612f4b57600080fd5b813567ffffffffffffffff811115612f6557612f65612eca565b612f78601f8201601f1916602001612f09565b818152846020838601011115612f8d57600080fd5b816020850160208301376000918101602001919091529392505050565b6001600160a01b0381168114610aeb57600080fd5b600060e08284031215612fd157600080fd5b60405160e0810181811067ffffffffffffffff82111715612ff457612ff4612eca565b60405282358152905080602083013561300c81612faa565b8060208301525060408301356040820152606083013560608201526080830135608082015260a083013560a082015260c083013560c08201525092915050565b600082601f83011261305d57600080fd5b8135602067ffffffffffffffff82111561307957613079612eca565b8160051b613088828201612f09565b92835284810182019282810190878511156130a257600080fd5b83870192505b848310156130c1578235825291830191908301906130a8565b979650505050505050565b60008060008061014085870312156130e357600080fd5b843567ffffffffffffffff808211156130fb57600080fd5b61310788838901612f3a565b9550602087013591508082111561311d57600080fd5b908601906080828903121561313157600080fd5b613139612ee0565b82358281111561314857600080fd5b6131548a828601612f3a565b82525060208301358281111561316957600080fd5b6131758a828601612f3a565b60208301525060408301358281111561318d57600080fd5b6131998a828601612f3a565b6040830152506060830135828111156131b157600080fd5b6131bd8a828601612f3a565b60608301525094506131d28860408901612fbf565b93506101208701359150808211156131e957600080fd5b506131f68782880161304c565b91505092959194509250565b6000815180845260005b818110156132285760208185018101518683018201520161320c565b506000602082860101526020601f19601f83011685010191505092915050565b600081518084526020808501945080840160005b838110156132785781518752958201959082019060010161325c565b509495945050505050565b60208152815160208201526001600160a01b03602083015116604082015260006040830151610160806060850152815160806101808601526132c9610200860182613202565b9050602083015161017f1980878403016101a08801526132e98383613202565b92506040850151915080878403016101c08801526133078383613202565b92506060850151945080878403016101e088015250506133278184613202565b92505060608501516133846080860182805182526001600160a01b03602082015116602083015260408101516040830152606081015160608301526080810151608083015260a081015160a083015260c081015160c08301525050565b506080850151848303601f19018286015261339f8382613248565b9695505050505050565b600080604083850312156133bc57600080fd5b8235915060208301356133ce81612faa565b809150509250929050565b6000602082840312156133eb57600080fd5b813561075881612faa565b6020815260006107586020830184613202565b600181811c9082168061341d57607f821691505b60208210810361343d57634e487b7160e01b600052602260045260246000fd5b50919050565b634e487b7160e01b600052601160045260246000fd5b80820180821115610b2357610b23613443565b60006040828403121561347e57600080fd5b6040516040810181811067ffffffffffffffff821117156134a1576134a1612eca565b6040528251815260208301516134b681612faa565b60208201529392505050565b601f82111561350c57600081815260208120601f850160051c810160208610156134e95750805b601f850160051c820191505b81811015613508578281556001016134f5565b5050505b505050565b815167ffffffffffffffff81111561352b5761352b612eca565b61353f816135398454613409565b846134c2565b602080601f831160018114613574576000841561355c5750858301515b600019600386901b1c1916600185901b178555613508565b600085815260208120601f198616915b828110156135a357888601518255948401946001909101908401613584565b50858210156135c15787850151600019600388901b60f8161c191681555b5050505050600190811b01905550565b81810381811115610b2357610b23613443565b6000600182016135f6576135f6613443565b5060010190565b8381526001600160a01b03831660208201526060604082015260006103ea6060830184613202565b828152604060208201526000612aaf6040830184613202565b85815260a06020820152600061365760a0830187613202565b82810360408401526136698187613202565b9050828103606084015261367d8186613202565b905082810360808401526136918185613202565b98975050505050505050565b60006101208b83528a60208401526001600160a01b038a1660408401528860608401528760808401528660a08401528560c08401528460e0840152806101008401526136eb81840185613248565b9c9b50505050505050505050505056fea26469706673582212203f67ac617fcb8e641e8501b83dbce072491ab48679e10d255635562f42d5da8364736f6c63430008120033",
  "linkReferences": {},
  "deployedLinkReferences": {}
}