{
  "_format": "hh-sol-artifact-1",
  "contractName": "HypePool",
  "sourceName": "contracts/HypePool.sol",
  "abi": [
    {
      "inputs": [
        {
          "internalType": "address",
          "name": "escrowContractAddress",
          "type": "address"
        }
      ],
      "stateMutability": "nonpayable",
      "type": "constructor"
    },
    {
      "anonymous": false,
      "inputs": [
        {
          "indexed": true,
          "internalType": "address",
          "name": "previousOwner",
          "type": "address"
        },
        {
          "indexed": true,
          "internalType": "address",
          "name": "newOwner",
          "type": "address"
        }
      ],
      "name": "OwnershipTransferred",
      "type": "event"
    },
    {
      "anonymous": false,
      "inputs": [
        {
          "indexed": false,
          "internalType": "address",
          "name": "account",
          "type": "address"
        }
      ],
      "name": "Paused",
      "type": "event"
    },
    {
      "anonymous": false,
      "inputs": [
        {
          "indexed": false,
          "internalType": "bytes32",
          "name": "poolId",
          "type": "bytes32"
        },
        {
          "indexed": false,
          "internalType": "address",
          "name": "activator",
          "type": "address"
        },
        {
          "indexed": false,
          "internalType": "uint256",
          "name": "startDate",
          "type": "uint256"
        },
        {
          "indexed": false,
          "internalType": "uint256",
          "name": "endDate",
          "type": "uint256"
        }
      ],
      "name": "PoolActivated",
      "type": "event"
    },
    {
      "anonymous": false,
      "inputs": [
        {
          "indexed": false,
          "internalType": "bytes32",
          "name": "poolId",
          "type": "bytes32"
        },
        {
          "indexed": false,
          "internalType": "address",
          "name": "creator",
          "type": "address"
        },
        {
          "indexed": false,
          "internalType": "string",
          "name": "uri",
          "type": "string"
        }
      ],
      "name": "PoolCreated",
      "type": "event"
    },
    {
      "anonymous": false,
      "inputs": [
        {
          "indexed": false,
          "internalType": "bytes32",
          "name": "poolId",
          "type": "bytes32"
        },
        {
          "indexed": false,
          "internalType": "address",
          "name": "deactivator",
          "type": "address"
        }
      ],
      "name": "PoolDeactivated",
      "type": "event"
    },
    {
      "anonymous": false,
      "inputs": [
        {
          "indexed": false,
          "internalType": "bytes32",
          "name": "poolId",
          "type": "bytes32"
        },
        {
          "indexed": false,
          "internalType": "string",
          "name": "title",
          "type": "string"
        },
        {
          "indexed": false,
          "internalType": "string",
          "name": "projectName",
          "type": "string"
        },
        {
          "indexed": false,
          "internalType": "string",
          "name": "tokenName",
          "type": "string"
        },
        {
          "indexed": false,
          "internalType": "string",
          "name": "word",
          "type": "string"
        }
      ],
      "name": "PoolDetailsCreated",
      "type": "event"
    },
    {
      "anonymous": false,
      "inputs": [
        {
          "indexed": false,
          "internalType": "bytes32",
          "name": "poolId",
          "type": "bytes32"
        },
        {
          "indexed": false,
          "internalType": "uint256",
          "name": "network",
          "type": "uint256"
        },
        {
          "indexed": false,
          "internalType": "address",
          "name": "tokenAddress",
          "type": "address"
        },
        {
          "indexed": false,
          "internalType": "uint256",
          "name": "impressionReward",
          "type": "uint256"
        },
        {
          "indexed": false,
          "internalType": "uint256",
          "name": "cap",
          "type": "uint256"
        },
        {
          "indexed": false,
          "internalType": "uint256",
          "name": "startDate",
          "type": "uint256"
        },
        {
          "indexed": false,
          "internalType": "uint256",
          "name": "endDate",
          "type": "uint256"
        },
        {
          "indexed": false,
          "internalType": "uint256",
          "name": "duration",
          "type": "uint256"
        }
      ],
      "name": "PoolRewardsCreated",
      "type": "event"
    },
    {
      "anonymous": false,
      "inputs": [
        {
          "indexed": false,
          "internalType": "bytes32",
          "name": "poolId",
          "type": "bytes32"
        },
        {
          "indexed": false,
          "internalType": "string",
          "name": "uri",
          "type": "string"
        }
      ],
      "name": "PoolUriSet",
      "type": "event"
    },
    {
      "anonymous": false,
      "inputs": [
        {
          "indexed": false,
          "internalType": "address",
          "name": "account",
          "type": "address"
        }
      ],
      "name": "Unpaused",
      "type": "event"
    },
    {
      "inputs": [
        {
          "internalType": "bytes32",
          "name": "uuid",
          "type": "bytes32"
        }
      ],
      "name": "activatePool",
      "outputs": [],
      "stateMutability": "nonpayable",
      "type": "function"
    },
    {
      "inputs": [
        {
          "internalType": "string",
          "name": "uri",
          "type": "string"
        },
        {
          "components": [
            {
              "internalType": "string",
              "name": "title",
              "type": "string"
            },
            {
              "internalType": "string",
              "name": "projectName",
              "type": "string"
            },
            {
              "internalType": "string",
              "name": "tokenName",
              "type": "string"
            },
            {
              "internalType": "string",
              "name": "word",
              "type": "string"
            }
          ],
          "internalType": "struct IHypePool.Details",
          "name": "details",
          "type": "tuple"
        },
        {
          "components": [
            {
              "internalType": "uint256",
              "name": "network",
              "type": "uint256"
            },
            {
              "internalType": "address",
              "name": "tokenAddress",
              "type": "address"
            },
            {
              "internalType": "uint256",
              "name": "impressionReward",
              "type": "uint256"
            },
            {
              "internalType": "uint256",
              "name": "cap",
              "type": "uint256"
            },
            {
              "internalType": "uint256",
              "name": "startDate",
              "type": "uint256"
            },
            {
              "internalType": "uint256",
              "name": "endDate",
              "type": "uint256"
            },
            {
              "internalType": "uint256",
              "name": "duration",
              "type": "uint256"
            }
          ],
          "internalType": "struct IHypePool.Rewards",
          "name": "rewards",
          "type": "tuple"
        }
      ],
      "name": "createPool",
      "outputs": [
        {
          "components": [
            {
              "internalType": "bytes32",
              "name": "id",
              "type": "bytes32"
            },
            {
              "internalType": "address",
              "name": "creator",
              "type": "address"
            },
            {
              "internalType": "bool",
              "name": "active",
              "type": "bool"
            },
            {
              "components": [
                {
                  "internalType": "string",
                  "name": "title",
                  "type": "string"
                },
                {
                  "internalType": "string",
                  "name": "projectName",
                  "type": "string"
                },
                {
                  "internalType": "string",
                  "name": "tokenName",
                  "type": "string"
                },
                {
                  "internalType": "string",
                  "name": "word",
                  "type": "string"
                }
              ],
              "internalType": "struct IHypePool.Details",
              "name": "details",
              "type": "tuple"
            },
            {
              "components": [
                {
                  "internalType": "uint256",
                  "name": "network",
                  "type": "uint256"
                },
                {
                  "internalType": "address",
                  "name": "tokenAddress",
                  "type": "address"
                },
                {
                  "internalType": "uint256",
                  "name": "impressionReward",
                  "type": "uint256"
                },
                {
                  "internalType": "uint256",
                  "name": "cap",
                  "type": "uint256"
                },
                {
                  "internalType": "uint256",
                  "name": "startDate",
                  "type": "uint256"
                },
                {
                  "internalType": "uint256",
                  "name": "endDate",
                  "type": "uint256"
                },
                {
                  "internalType": "uint256",
                  "name": "duration",
                  "type": "uint256"
                }
              ],
              "internalType": "struct IHypePool.Rewards",
              "name": "rewards",
              "type": "tuple"
            }
          ],
          "internalType": "struct IHypePool.HypePool",
          "name": "",
          "type": "tuple"
        }
      ],
      "stateMutability": "nonpayable",
      "type": "function"
    },
    {
      "inputs": [
        {
          "internalType": "bytes32",
          "name": "uuid",
          "type": "bytes32"
        }
      ],
      "name": "deactivatePool",
      "outputs": [],
      "stateMutability": "nonpayable",
      "type": "function"
    },
    {
      "inputs": [],
      "name": "getCurrentIndex",
      "outputs": [
        {
          "internalType": "bytes32",
          "name": "",
          "type": "bytes32"
        }
      ],
      "stateMutability": "view",
      "type": "function"
    },
    {
      "inputs": [
        {
          "internalType": "bytes32",
          "name": "uuid",
          "type": "bytes32"
        }
      ],
      "name": "getPool",
      "outputs": [
        {
          "components": [
            {
              "internalType": "bytes32",
              "name": "id",
              "type": "bytes32"
            },
            {
              "internalType": "address",
              "name": "creator",
              "type": "address"
            },
            {
              "internalType": "bool",
              "name": "active",
              "type": "bool"
            },
            {
              "components": [
                {
                  "internalType": "string",
                  "name": "title",
                  "type": "string"
                },
                {
                  "internalType": "string",
                  "name": "projectName",
                  "type": "string"
                },
                {
                  "internalType": "string",
                  "name": "tokenName",
                  "type": "string"
                },
                {
                  "internalType": "string",
                  "name": "word",
                  "type": "string"
                }
              ],
              "internalType": "struct IHypePool.Details",
              "name": "details",
              "type": "tuple"
            },
            {
              "components": [
                {
                  "internalType": "uint256",
                  "name": "network",
                  "type": "uint256"
                },
                {
                  "internalType": "address",
                  "name": "tokenAddress",
                  "type": "address"
                },
                {
                  "internalType": "uint256",
                  "name": "impressionReward",
                  "type": "uint256"
                },
                {
                  "internalType": "uint256",
                  "name": "cap",
                  "type": "uint256"
                },
                {
                  "internalType": "uint256",
                  "name": "startDate",
                  "type": "uint256"
                },
                {
                  "internalType": "uint256",
                  "name": "endDate",
                  "type": "uint256"
                },
                {
                  "internalType": "uint256",
                  "name": "duration",
                  "type": "uint256"
                }
              ],
              "internalType": "struct IHypePool.Rewards",
              "name": "rewards",
              "type": "tuple"
            }
          ],
          "internalType": "struct IHypePool.HypePool",
          "name": "",
          "type": "tuple"
        }
      ],
      "stateMutability": "view",
      "type": "function"
    },
    {
      "inputs": [],
      "name": "owner",
      "outputs": [
        {
          "internalType": "address",
          "name": "",
          "type": "address"
        }
      ],
      "stateMutability": "view",
      "type": "function"
    },
    {
      "inputs": [],
      "name": "pause",
      "outputs": [],
      "stateMutability": "nonpayable",
      "type": "function"
    },
    {
      "inputs": [],
      "name": "paused",
      "outputs": [
        {
          "internalType": "bool",
          "name": "",
          "type": "bool"
        }
      ],
      "stateMutability": "view",
      "type": "function"
    },
    {
      "inputs": [
        {
          "internalType": "bytes32",
          "name": "uuid",
          "type": "bytes32"
        }
      ],
      "name": "poolURI",
      "outputs": [
        {
          "internalType": "string",
          "name": "",
          "type": "string"
        }
      ],
      "stateMutability": "view",
      "type": "function"
    },
    {
      "inputs": [],
      "name": "renounceOwnership",
      "outputs": [],
      "stateMutability": "nonpayable",
      "type": "function"
    },
    {
      "inputs": [
        {
          "internalType": "address",
          "name": "newOwner",
          "type": "address"
        }
      ],
      "name": "transferOwnership",
      "outputs": [],
      "stateMutability": "nonpayable",
      "type": "function"
    },
    {
      "inputs": [],
      "name": "unpause",
      "outputs": [],
      "stateMutability": "nonpayable",
      "type": "function"
    }
  ],
  "bytecode": "0x60806040523480156200001157600080fd5b50604051620026da380380620026da8339810160408190526200003491620000c8565b6000805460ff1916905562000049336200006f565b600180546001600160a01b0319166001600160a01b0392909216919091179055620000fa565b600080546001600160a01b03838116610100818102610100600160a81b0319851617855560405193049190911692909183917f8be0079c531659141344cd1fd0a4f28419497f9722a3daafe3b4186f6b6457e091a35050565b600060208284031215620000db57600080fd5b81516001600160a01b0381168114620000f357600080fd5b9392505050565b6125d0806200010a6000396000f3fe608060405234801561001057600080fd5b50600436106100d45760003560e01c80638456cb5911610081578063f2fde38b1161005b578063f2fde38b1461018e578063f6c00927146101a1578063f8607fb1146101b457600080fd5b80638456cb591461014a5780638da5cb5b14610152578063d9d978591461017b57600080fd5b8063715018a6116100b2578063715018a61461010f57806373dfe0da1461011757806377108fcc1461012a57600080fd5b80630d9005ae146100d95780633f4ba83a146100ef5780635c975abb146100f9575b600080fd5b6005546040519081526020015b60405180910390f35b6100f76101d4565b005b60005460ff1660405190151581526020016100e6565b6100f76101e6565b6100f7610125366004611fdd565b6101f8565b61013d610138366004612164565b610984565b6040516100e691906122c3565b6100f7610f3a565b60005461010090046001600160a01b03166040516001600160a01b0390911681526020016100e6565b6100f7610189366004611fdd565b610f4a565b6100f761019c3660046123d7565b6114b3565b61013d6101af366004611fdd565b611543565b6101c76101c2366004611fdd565b611855565b6040516100e691906123fb565b6101dc6118f7565b6101e4611957565b565b6101ee6118f7565b6101e460006119a9565b610200611a19565b6000818152600260208181526040808420815160a0810183528154815260018201546001600160a01b03811694820194909452600160a01b90930460ff16151583830152815160808101909252928301805492939260608501929190829082906102699061240e565b80601f01602080910402602001604051908101604052809291908181526020018280546102959061240e565b80156102e25780601f106102b7576101008083540402835291602001916102e2565b820191906000526020600020905b8154815290600101906020018083116102c557829003601f168201915b505050505081526020016001820180546102fb9061240e565b80601f01602080910402602001604051908101604052809291908181526020018280546103279061240e565b80156103745780601f1061034957610100808354040283529160200191610374565b820191906000526020600020905b81548152906001019060200180831161035757829003601f168201915b5050505050815260200160028201805461038d9061240e565b80601f01602080910402602001604051908101604052809291908181526020018280546103b99061240e565b80156104065780601f106103db57610100808354040283529160200191610406565b820191906000526020600020905b8154815290600101906020018083116103e957829003601f168201915b5050505050815260200160038201805461041f9061240e565b80601f016020809104026020016040519081016040528092919081815260200182805461044b9061240e565b80156104985780601f1061046d57610100808354040283529160200191610498565b820191906000526020600020905b81548152906001019060200180831161047b57829003601f168201915b5050509190925250505081526040805160e0810182526006840154815260078401546001600160a01b031660208281019190915260088501548284015260098501546060830152600a850154608080840191909152600b86015460a0840152600c9095015460c0830152909201919091529082015101519091506000036105665760405162461bcd60e51b815260206004820152601260248201527f506f6f6c20646f65736e2774206578697374000000000000000000000000000060448201526064015b60405180910390fd5b60008281526004602052604090205460ff166105c45760405162461bcd60e51b815260206004820152601360248201527f506f6f6c20646f6573206e6f7420657869737400000000000000000000000000604482015260640161055d565b6040810151156106165760405162461bcd60e51b815260206004820152601660248201527f506f6f6c20697320616c72656164792061637469766500000000000000000000604482015260640161055d565b6001546040517f1aa9e742000000000000000000000000000000000000000000000000000000008152336004820152602481018490526001600160a01b03909116906000908290631aa9e74290604401606060405180830381865afa158015610683573d6000803e3d6000fd5b505050506040513d601f19601f820116820180604052508101906106a79190612448565b6080840151606001518151919250146107285760405162461bcd60e51b815260206004820152602860248201527f4465706f736974656420616d6f756e7420646f6573206e6f74206d617463682060448201527f706f6f6c20636170000000000000000000000000000000000000000000000000606482015260840161055d565b8260800151602001516001600160a01b031681602001516001600160a01b0316146107bb5760405162461bcd60e51b815260206004820152603960248201527f4465706f736974656420746f6b656e206164647265737320646f6573206e6f7460448201527f206d6174636820706f6f6c20746f6b656e206164647265737300000000000000606482015260840161055d565b60016040840152608080840180514292018290525160c001516107dd916124c0565b608084015160a001526000848152600260208181526040928390208651815581870151600182018054958901511515600160a01b0274ffffffffffffffffffffffffffffffffffffffffff199096166001600160a01b039092169190911794909417909355606086015180518051889594929392850192610862928492910190611e98565b50602082810151805161087b9260018501920190611e98565b5060408201518051610897916002840191602090910190611e98565b50606082015180516108b3916003840191602090910190611e98565b5050506080918201518051600683015560208082015160078401805473ffffffffffffffffffffffffffffffffffffffff19166001600160a01b039092169190911790556040808301516008850155606080840151600986015583860151600a86015560a080850151600b87015560c090940151600c90950194909455878501518086015193015181518a8152339381019390935290820192909252918201527ff1e6981b3d18841dad1ef7f8db1d40663aaa4b8cd2022e5349498c4d406d00df910160405180910390a150505050565b61098c611f1c565b610994611a19565b60008451116109e55760405162461bcd60e51b815260206004820152601460248201527f4d697373696e67206d6574616461746120555249000000000000000000000000604482015260640161055d565b6000826060015111610a395760405162461bcd60e51b815260206004820152601060248201527f496e76616c696420706f6f6c2063617000000000000000000000000000000000604482015260640161055d565b60008260c0015111610ab35760405162461bcd60e51b815260206004820152602160248201527f4475726174696f6e206d757374206265206174206c65617374206f6e6520646160448201527f7900000000000000000000000000000000000000000000000000000000000000606482015260840161055d565b608082015115610b055760405162461bcd60e51b815260206004820152601760248201527f53746172742064617465206d757374206265207a65726f000000000000000000604482015260640161055d565b60a082015115610b575760405162461bcd60e51b815260206004820152601560248201527f456e642064617465206d757374206265207a65726f0000000000000000000000604482015260640161055d565b6000826040015111610bab5760405162461bcd60e51b815260206004820152601e60248201527f496e76616c696420696d7072657373696f6e2068797065207265776172640000604482015260640161055d565b6000610bb5611a6c565b60008181526004602052604090205490915060ff1615610c175760405162461bcd60e51b815260206004820152601360248201527f5575696420616c72656164792065786973747300000000000000000000000000604482015260640161055d565b610c2381868686611b11565b610c2d8186611ce9565b600081815260026020818152604092839020835160a0810185528154815260018201546001600160a01b03811693820193909352600160a01b90920460ff1615158285015283516080810190945291820180549193606085019290919082908290610c979061240e565b80601f0160208091040260200160405190810160405280929190818152602001828054610cc39061240e565b8015610d105780601f10610ce557610100808354040283529160200191610d10565b820191906000526020600020905b815481529060010190602001808311610cf357829003601f168201915b50505050508152602001600182018054610d299061240e565b80601f0160208091040260200160405190810160405280929190818152602001828054610d559061240e565b8015610da25780601f10610d7757610100808354040283529160200191610da2565b820191906000526020600020905b815481529060010190602001808311610d8557829003601f168201915b50505050508152602001600282018054610dbb9061240e565b80601f0160208091040260200160405190810160405280929190818152602001828054610de79061240e565b8015610e345780601f10610e0957610100808354040283529160200191610e34565b820191906000526020600020905b815481529060010190602001808311610e1757829003601f168201915b50505050508152602001600382018054610e4d9061240e565b80601f0160208091040260200160405190810160405280929190818152602001828054610e799061240e565b8015610ec65780601f10610e9b57610100808354040283529160200191610ec6565b820191906000526020600020905b815481529060010190602001808311610ea957829003601f168201915b5050509190925250505081526040805160e0810182526006840154815260078401546001600160a01b031660208083019190915260088501549282019290925260098401546060820152600a8401546080820152600b84015460a0820152600c9093015460c0840152015295945050505050565b610f426118f7565b6101e4611d3a565b610f52611a19565b610f5a6118f7565b6000818152600260208181526040808420815160a0810183528154815260018201546001600160a01b03811694820194909452600160a01b90930460ff1615158383015281516080810190925292830180549293926060850192919082908290610fc39061240e565b80601f0160208091040260200160405190810160405280929190818152602001828054610fef9061240e565b801561103c5780601f106110115761010080835404028352916020019161103c565b820191906000526020600020905b81548152906001019060200180831161101f57829003601f168201915b505050505081526020016001820180546110559061240e565b80601f01602080910402602001604051908101604052809291908181526020018280546110819061240e565b80156110ce5780601f106110a3576101008083540402835291602001916110ce565b820191906000526020600020905b8154815290600101906020018083116110b157829003601f168201915b505050505081526020016002820180546110e79061240e565b80601f01602080910402602001604051908101604052809291908181526020018280546111139061240e565b80156111605780601f1061113557610100808354040283529160200191611160565b820191906000526020600020905b81548152906001019060200180831161114357829003601f168201915b505050505081526020016003820180546111799061240e565b80601f01602080910402602001604051908101604052809291908181526020018280546111a59061240e565b80156111f25780601f106111c7576101008083540402835291602001916111f2565b820191906000526020600020905b8154815290600101906020018083116111d557829003601f168201915b5050509190925250505081526040805160e0810182526006840154815260078401546001600160a01b031660208281019190915260088501548284015260098501546060830152600a850154608080840191909152600b86015460a0840152600c9095015460c0830152909201919091529082015101519091506000036112bb5760405162461bcd60e51b815260206004820152601260248201527f506f6f6c20646f65736e27742065786973740000000000000000000000000000604482015260640161055d565b604081015115156001146113115760405162461bcd60e51b815260206004820152601860248201527f506f6f6c20697320616c726561647920696e6163746976650000000000000000604482015260640161055d565b6000604080830182815260808401514260a0909101528483526002602081815292909320845181558285015160018201805493511515600160a01b0274ffffffffffffffffffffffffffffffffffffffffff199094166001600160a01b03909216919091179290921790915560608401518051805186959394929385019261139d928492910190611e98565b5060208281015180516113b69260018501920190611e98565b50604082015180516113d2916002840191602090910190611e98565b50606082015180516113ee916003840191602090910190611e98565b5050506080918201518051600683015560208101516007830180546001600160a01b0390921673ffffffffffffffffffffffffffffffffffffffff1990921691909117905560408082015160088401556060820151600984015592810151600a83015560a0810151600b83015560c00151600c90910155517f0522afc663a576de692143f1e714306778ade438ea7c739c3a3964bd78eb2cc6906114a790849033909182526001600160a01b0316602082015260400190565b60405180910390a15050565b6114bb6118f7565b6001600160a01b0381166115375760405162461bcd60e51b815260206004820152602660248201527f4f776e61626c653a206e6577206f776e657220697320746865207a65726f206160448201527f6464726573730000000000000000000000000000000000000000000000000000606482015260840161055d565b611540816119a9565b50565b61154b611f1c565b600082815260026020818152604092839020835160a0810185528154815260018201546001600160a01b03811693820193909352600160a01b90920460ff16151582850152835160808101909452918201805491936060850192909190829082906115b59061240e565b80601f01602080910402602001604051908101604052809291908181526020018280546115e19061240e565b801561162e5780601f106116035761010080835404028352916020019161162e565b820191906000526020600020905b81548152906001019060200180831161161157829003601f168201915b505050505081526020016001820180546116479061240e565b80601f01602080910402602001604051908101604052809291908181526020018280546116739061240e565b80156116c05780601f10611695576101008083540402835291602001916116c0565b820191906000526020600020905b8154815290600101906020018083116116a357829003601f168201915b505050505081526020016002820180546116d99061240e565b80601f01602080910402602001604051908101604052809291908181526020018280546117059061240e565b80156117525780601f1061172757610100808354040283529160200191611752565b820191906000526020600020905b81548152906001019060200180831161173557829003601f168201915b5050505050815260200160038201805461176b9061240e565b80601f01602080910402602001604051908101604052809291908181526020018280546117979061240e565b80156117e45780601f106117b9576101008083540402835291602001916117e4565b820191906000526020600020905b8154815290600101906020018083116117c757829003601f168201915b5050509190925250505081526040805160e0810182526006840154815260078401546001600160a01b031660208281019190915260088501549282019290925260098401546060820152600a8401546080820152600b84015460a0820152600c9093015460c0840152015292915050565b60008181526003602052604090208054606091906118729061240e565b80601f016020809104026020016040519081016040528092919081815260200182805461189e9061240e565b80156118eb5780601f106118c0576101008083540402835291602001916118eb565b820191906000526020600020905b8154815290600101906020018083116118ce57829003601f168201915b50505050509050919050565b6000546001600160a01b036101009091041633146101e45760405162461bcd60e51b815260206004820181905260248201527f4f776e61626c653a2063616c6c6572206973206e6f7420746865206f776e6572604482015260640161055d565b61195f611d77565b6000805460ff191690557f5db9ee0a495bf2e6ff9c91a7834c1ba4fdd244a5e8aa4e537bd38aeae4b073aa335b6040516001600160a01b03909116815260200160405180910390a1565b600080546001600160a01b038381166101008181027fffffffffffffffffffffff0000000000000000000000000000000000000000ff851617855560405193049190911692909183917f8be0079c531659141344cd1fd0a4f28419497f9722a3daafe3b4186f6b6457e091a35050565b60005460ff16156101e45760405162461bcd60e51b815260206004820152601060248201527f5061757361626c653a2070617573656400000000000000000000000000000000604482015260640161055d565b60408051436020820181905242928201839052600060608301819052929091839081906080016040516020818303038152906040528051906020012090505b60008181526004602052604090205460ff1615611b095781611acc816124d8565b6040805160208101889052908101869052606081018290529093506080019050604051602081830303815290604052805190602001209050611aab565b949350505050565b6040805160a081018252858152336020808301918252600083850181815260608501888152608086018890528a835260028085529690922085518155935160018501805492511515600160a01b0274ffffffffffffffffffffffffffffffffffffffffff199093166001600160a01b0392909216919091179190911790555180518051949593949193850192611bac92849290910190611e98565b506020828101518051611bc59260018501920190611e98565b5060408201518051611be1916002840191602090910190611e98565b5060608201518051611bfd916003840191602090910190611e98565b5050506080918201518051600683015560208082015160078401805473ffffffffffffffffffffffffffffffffffffffff19166001600160a01b0390921691909117905560408083015160088501556060830151600985015593820151600a84015560a0820151600b84015560c090910151600c9092019190915560008681526004909152819020805460ff191660011790556005859055517f3a21eb0a9afc1353da741f39aaea48014c074c6720b61baf41e1e18d6ae7b2fb90611cc7908690339087906124f1565b60405180910390a1611cd98483611dc9565b611ce38482611e10565b50505050565b60008281526003602090815260409091208251611d0892840190611e98565b507fa9397f16db6e1e1b43c1c813233f16139006d56a3d1a24412ebdfb0661b5bfff82826040516114a7929190612522565b611d42611a19565b6000805460ff191660011790557f62e78cea01bee320cd4e420270b5ea74000d11b0c9f74754ebdbfc544b05a25861198c3390565b60005460ff166101e45760405162461bcd60e51b815260206004820152601460248201527f5061757361626c653a206e6f7420706175736564000000000000000000000000604482015260640161055d565b7f764b3686bd9a8c04d487da87edb364f64d505149c22a8b2664d353539ecf6a338282600001518360200151846040015185606001516040516114a795949392919061253b565b805160208083015160408085015160608087015160808089015160a0808b015160c0808d015189518f81529b8c019c909c526001600160a01b03909916978a0197909752938801949094528601528401529082015260e08101919091527fd3c186ca228d0fefdb5e931894eda7415bb30b75f95c5b4f41deee5da40f18d290610100016114a7565b828054611ea49061240e565b90600052602060002090601f016020900481019282611ec65760008555611f0c565b82601f10611edf57805160ff1916838001178555611f0c565b82800160010185558215611f0c579182015b82811115611f0c578251825591602001919060010190611ef1565b50611f18929150611fc8565b5090565b6040518060a001604052806000801916815260200160006001600160a01b03168152602001600015158152602001611f756040518060800160405280606081526020016060815260200160608152602001606081525090565b8152602001611fc36040518060e001604052806000815260200160006001600160a01b0316815260200160008152602001600081526020016000815260200160008152602001600081525090565b905290565b5b80821115611f185760008155600101611fc9565b600060208284031215611fef57600080fd5b5035919050565b634e487b7160e01b600052604160045260246000fd5b6040516080810167ffffffffffffffff8111828210171561202f5761202f611ff6565b60405290565b600082601f83011261204657600080fd5b813567ffffffffffffffff8082111561206157612061611ff6565b604051601f8301601f19908116603f0116810190828211818310171561208957612089611ff6565b816040528381528660208588010111156120a257600080fd5b836020870160208301376000602085830101528094505050505092915050565b6001600160a01b038116811461154057600080fd5b600060e082840312156120e957600080fd5b60405160e0810181811067ffffffffffffffff8211171561210c5761210c611ff6565b604052823581529050806020830135612124816120c2565b8060208301525060408301356040820152606083013560608201526080830135608082015260a083013560a082015260c083013560c08201525092915050565b6000806000610120848603121561217a57600080fd5b833567ffffffffffffffff8082111561219257600080fd5b61219e87838801612035565b945060208601359150808211156121b457600080fd5b90850190608082880312156121c857600080fd5b6121d061200c565b8235828111156121df57600080fd5b6121eb89828601612035565b82525060208301358281111561220057600080fd5b61220c89828601612035565b60208301525060408301358281111561222457600080fd5b61223089828601612035565b60408301525060608301358281111561224857600080fd5b61225489828601612035565b60608301525080945050505061226d85604086016120d7565b90509250925092565b6000815180845260005b8181101561229c57602081850181015186830182015201612280565b818111156122ae576000602083870101525b50601f01601f19169290920160200192915050565b60208152815160208201526001600160a01b03602083015116604082015260408201511515606082015260006060830151610160608084015280516080610180850152612314610200850182612276565b9050602082015161017f1980868403016101a08701526123348383612276565b92506040840151915080868403016101c08701526123528383612276565b92506060840151935080868403016101e087015250506123728183612276565b91505060808401516123cf60a0850182805182526001600160a01b03602082015116602083015260408101516040830152606081015160608301526080810151608083015260a081015160a083015260c081015160c08301525050565b509392505050565b6000602082840312156123e957600080fd5b81356123f4816120c2565b9392505050565b6020815260006123f46020830184612276565b600181811c9082168061242257607f821691505b60208210810361244257634e487b7160e01b600052602260045260246000fd5b50919050565b60006060828403121561245a57600080fd5b6040516060810181811067ffffffffffffffff8211171561247d5761247d611ff6565b604052825181526020830151612492816120c2565b60208201526040928301519281019290925250919050565b634e487b7160e01b600052601160045260246000fd5b600082198211156124d3576124d36124aa565b500190565b6000600182016124ea576124ea6124aa565b5060010190565b8381526001600160a01b03831660208201526060604082015260006125196060830184612276565b95945050505050565b828152604060208201526000611b096040830184612276565b85815260a06020820152600061255460a0830187612276565b82810360408401526125668187612276565b9050828103606084015261257a8186612276565b9050828103608084015261258e8185612276565b9897505050505050505056fea264697066735822122011765b9346e619f0448cb648f9f48c2cdc5f13ba4b56103fe4fe579310d33a2064736f6c634300080e0033",
  "linkReferences": {},
  "deployedLinkReferences": {}
}