{
  "_format": "hh-sol-artifact-1",
  "contractName": "HypePool",
  "sourceName": "contracts/HypePool.sol",
  "abi": [
    {
      "inputs": [
        {
          "internalType": "address",
          "name": "escrowContractAddress",
          "type": "address"
        }
      ],
      "stateMutability": "nonpayable",
      "type": "constructor"
    },
    {
      "anonymous": false,
      "inputs": [
        {
          "indexed": true,
          "internalType": "address",
          "name": "previousOwner",
          "type": "address"
        },
        {
          "indexed": true,
          "internalType": "address",
          "name": "newOwner",
          "type": "address"
        }
      ],
      "name": "OwnershipTransferred",
      "type": "event"
    },
    {
      "anonymous": false,
      "inputs": [
        {
          "indexed": false,
          "internalType": "address",
          "name": "account",
          "type": "address"
        }
      ],
      "name": "Paused",
      "type": "event"
    },
    {
      "anonymous": false,
      "inputs": [
        {
          "indexed": false,
          "internalType": "uint256",
          "name": "poolId",
          "type": "uint256"
        },
        {
          "indexed": false,
          "internalType": "address",
          "name": "activator",
          "type": "address"
        }
      ],
      "name": "PoolActivated",
      "type": "event"
    },
    {
      "anonymous": false,
      "inputs": [
        {
          "indexed": false,
          "internalType": "uint256",
          "name": "poolId",
          "type": "uint256"
        },
        {
          "indexed": false,
          "internalType": "address",
          "name": "creator",
          "type": "address"
        },
        {
          "indexed": false,
          "internalType": "string",
          "name": "uri",
          "type": "string"
        },
        {
          "indexed": false,
          "internalType": "uint256",
          "name": "poolCap",
          "type": "uint256"
        },
        {
          "indexed": false,
          "internalType": "address",
          "name": "poolToken",
          "type": "address"
        },
        {
          "indexed": false,
          "internalType": "uint256",
          "name": "minHypeReward",
          "type": "uint256"
        },
        {
          "indexed": false,
          "internalType": "uint256",
          "name": "endDate",
          "type": "uint256"
        }
      ],
      "name": "PoolCreated",
      "type": "event"
    },
    {
      "anonymous": false,
      "inputs": [
        {
          "indexed": false,
          "internalType": "address",
          "name": "account",
          "type": "address"
        }
      ],
      "name": "Unpaused",
      "type": "event"
    },
    {
      "inputs": [
        {
          "internalType": "uint256",
          "name": "id",
          "type": "uint256"
        }
      ],
      "name": "activatePool",
      "outputs": [],
      "stateMutability": "nonpayable",
      "type": "function"
    },
    {
      "inputs": [
        {
          "internalType": "string",
          "name": "uri",
          "type": "string"
        },
        {
          "internalType": "uint256",
          "name": "poolCap",
          "type": "uint256"
        },
        {
          "internalType": "address",
          "name": "tokenAddress",
          "type": "address"
        },
        {
          "internalType": "uint256",
          "name": "minHypeReward",
          "type": "uint256"
        },
        {
          "internalType": "uint256",
          "name": "endDate",
          "type": "uint256"
        }
      ],
      "name": "createPool",
      "outputs": [
        {
          "components": [
            {
              "internalType": "uint256",
              "name": "id",
              "type": "uint256"
            },
            {
              "internalType": "address",
              "name": "creator",
              "type": "address"
            },
            {
              "internalType": "bool",
              "name": "active",
              "type": "bool"
            },
            {
              "internalType": "string",
              "name": "uri",
              "type": "string"
            },
            {
              "internalType": "uint256",
              "name": "cap",
              "type": "uint256"
            },
            {
              "internalType": "address",
              "name": "token",
              "type": "address"
            },
            {
              "internalType": "uint256",
              "name": "minReward",
              "type": "uint256"
            },
            {
              "internalType": "uint256",
              "name": "endDate",
              "type": "uint256"
            }
          ],
          "internalType": "struct IHypePool.HypePool",
          "name": "",
          "type": "tuple"
        }
      ],
      "stateMutability": "nonpayable",
      "type": "function"
    },
    {
      "inputs": [],
      "name": "getCurrentIndex",
      "outputs": [
        {
          "internalType": "uint256",
          "name": "",
          "type": "uint256"
        }
      ],
      "stateMutability": "view",
      "type": "function"
    },
    {
      "inputs": [
        {
          "internalType": "uint256",
          "name": "tokenId",
          "type": "uint256"
        }
      ],
      "name": "getPool",
      "outputs": [
        {
          "components": [
            {
              "internalType": "uint256",
              "name": "id",
              "type": "uint256"
            },
            {
              "internalType": "address",
              "name": "creator",
              "type": "address"
            },
            {
              "internalType": "bool",
              "name": "active",
              "type": "bool"
            },
            {
              "internalType": "string",
              "name": "uri",
              "type": "string"
            },
            {
              "internalType": "uint256",
              "name": "cap",
              "type": "uint256"
            },
            {
              "internalType": "address",
              "name": "token",
              "type": "address"
            },
            {
              "internalType": "uint256",
              "name": "minReward",
              "type": "uint256"
            },
            {
              "internalType": "uint256",
              "name": "endDate",
              "type": "uint256"
            }
          ],
          "internalType": "struct IHypePool.HypePool",
          "name": "",
          "type": "tuple"
        }
      ],
      "stateMutability": "view",
      "type": "function"
    },
    {
      "inputs": [],
      "name": "owner",
      "outputs": [
        {
          "internalType": "address",
          "name": "",
          "type": "address"
        }
      ],
      "stateMutability": "view",
      "type": "function"
    },
    {
      "inputs": [],
      "name": "pause",
      "outputs": [],
      "stateMutability": "nonpayable",
      "type": "function"
    },
    {
      "inputs": [],
      "name": "paused",
      "outputs": [
        {
          "internalType": "bool",
          "name": "",
          "type": "bool"
        }
      ],
      "stateMutability": "view",
      "type": "function"
    },
    {
      "inputs": [
        {
          "internalType": "uint256",
          "name": "tokenId",
          "type": "uint256"
        }
      ],
      "name": "poolURI",
      "outputs": [
        {
          "internalType": "string",
          "name": "",
          "type": "string"
        }
      ],
      "stateMutability": "view",
      "type": "function"
    },
    {
      "inputs": [],
      "name": "renounceOwnership",
      "outputs": [],
      "stateMutability": "nonpayable",
      "type": "function"
    },
    {
      "inputs": [
        {
          "internalType": "address",
          "name": "newOwner",
          "type": "address"
        }
      ],
      "name": "transferOwnership",
      "outputs": [],
      "stateMutability": "nonpayable",
      "type": "function"
    },
    {
      "inputs": [],
      "name": "unpause",
      "outputs": [],
      "stateMutability": "nonpayable",
      "type": "function"
    }
  ],
  "bytecode": "0x608060405234801561001057600080fd5b5060405161147438038061147483398101604081905261002f916100c0565b6000805460ff1916905561004233610067565b600280546001600160a01b0319166001600160a01b03929092169190911790556100f0565b600080546001600160a01b03838116610100818102610100600160a81b0319851617855560405193049190911692909183917f8be0079c531659141344cd1fd0a4f28419497f9722a3daafe3b4186f6b6457e091a35050565b6000602082840312156100d257600080fd5b81516001600160a01b03811681146100e957600080fd5b9392505050565b611375806100ff6000396000f3fe608060405234801561001057600080fd5b50600436106100c95760003560e01c80635c975abb116100815780638da5cb5b1161005b5780638da5cb5b14610170578063caa1d04314610199578063f2fde38b146101ac57600080fd5b80635c975abb1461014a578063715018a6146101605780638456cb591461016857600080fd5b80630d9005ae116100b25780630d9005ae1461010c5780631e2f4adc146101225780633f4ba83a1461014257600080fd5b8063068bcd8d146100ce57806308f747dd146100f7575b600080fd5b6100e16100dc366004610ffc565b6101bf565b6040516100ee9190611062565b60405180910390f35b61010a610105366004610ffc565b610336565b005b6101146107a7565b6040519081526020016100ee565b610135610130366004610ffc565b6107b7565b6040516100ee91906110ef565b61010a61085c565b60005460ff1660405190151581526020016100ee565b61010a61086e565b61010a610880565b60005461010090046001600160a01b03166040516001600160a01b0390911681526020016100ee565b6100e16101a7366004611175565b610890565b61010a6101ba366004611236565b610ccf565b61021b6040518061010001604052806000815260200160006001600160a01b03168152602001600015158152602001606081526020016000815260200160006001600160a01b0316815260200160008152602001600081525090565b6000828152600360209081526040918290208251610100810184528154815260018201546001600160a01b03811693820193909352600160a01b90920460ff1615159282019290925260028201805491929160608401919061027c90611253565b80601f01602080910402602001604051908101604052809291908181526020018280546102a890611253565b80156102f55780601f106102ca576101008083540402835291602001916102f5565b820191906000526020600020905b8154815290600101906020018083116102d857829003601f168201915b50505091835250506003820154602082015260048201546001600160a01b031660408201526005820154606082015260069091015460809091015292915050565b61033e610d5f565b60008181526003602090815260408083208151610100810183528154815260018201546001600160a01b03811694820194909452600160a01b90930460ff1615159183019190915260028101805460608401919061039b90611253565b80601f01602080910402602001604051908101604052809291908181526020018280546103c790611253565b80156104145780601f106103e957610100808354040283529160200191610414565b820191906000526020600020905b8154815290600101906020018083116103f757829003601f168201915b50505091835250506003820154602082015260048201546001600160a01b031660408201526005820154606082015260069091015460809091015260c08101519091506000036104ab5760405162461bcd60e51b815260206004820152601260248201527f506f6f6c20646f65736e2774206578697374000000000000000000000000000060448201526064015b60405180910390fd5b6040810151156104fd5760405162461bcd60e51b815260206004820152601660248201527f506f6f6c20697320616c7265616479206163746976650000000000000000000060448201526064016104a2565b6002546040517fae22192e000000000000000000000000000000000000000000000000000000008152336004820152602481018490526001600160a01b0390911690600090829063ae22192e90604401606060405180830381865afa15801561056a573d6000803e3d6000fd5b505050506040513d601f19601f8201168201806040525081019061058e919061128d565b608084015181519192501461060b5760405162461bcd60e51b815260206004820152602860248201527f4465706f736974656420616d6f756e7420646f6573206e6f74206d617463682060448201527f706f6f6c2063617000000000000000000000000000000000000000000000000060648201526084016104a2565b8260a001516001600160a01b031681602001516001600160a01b03161461069a5760405162461bcd60e51b815260206004820152603960248201527f4465706f736974656420746f6b656e206164647265737320646f6573206e6f7460448201527f206d6174636820706f6f6c20746f6b656e20616464726573730000000000000060648201526084016104a2565b600160408085018281526000878152600360209081529290208651815582870151938101805492511515600160a01b0274ffffffffffffffffffffffffffffffffffffffffff199093166001600160a01b03909516949094179190911790925560608501518051869392610715926002850192910190610f63565b506080820151600382015560a082015160048201805473ffffffffffffffffffffffffffffffffffffffff19166001600160a01b0390921691909117905560c0820151600582015560e090910151600690910155604080518581523360208201527f4f7e91eea279f21fac65109d86b7d1dfceb5607c89313be67d8c2bf537f9ae0c910160405180910390a150505050565b60006107b260015490565b905090565b60008181526003602052604090206002018054606091906107d790611253565b80601f016020809104026020016040519081016040528092919081815260200182805461080390611253565b80156108505780601f1061082557610100808354040283529160200191610850565b820191906000526020600020905b81548152906001019060200180831161083357829003601f168201915b50505050509050919050565b610864610db2565b61086c610e12565b565b610876610db2565b61086c6000610e64565b610888610db2565b61086c610ed4565b6108ec6040518061010001604052806000815260200160006001600160a01b03168152602001600015158152602001606081526020016000815260200160006001600160a01b0316815260200160008152602001600081525090565b6108f4610d5f565b60008651116109455760405162461bcd60e51b815260206004820152601460248201527f4d697373696e67206d657461646174612055524900000000000000000000000060448201526064016104a2565b600085116109955760405162461bcd60e51b815260206004820152601060248201527f496e76616c696420706f6f6c206361700000000000000000000000000000000060448201526064016104a2565b428211610a0a5760405162461bcd60e51b815260206004820152602960248201527f456e642064617465206d7573742062652061667465722063757272656e74206260448201527f6c6f636b2074696d65000000000000000000000000000000000000000000000060648201526084016104a2565b60008311610a5a5760405162461bcd60e51b815260206004820152601b60248201527f496e76616c6964206d696e696d616c206879706520726577617264000000000060448201526064016104a2565b6000610a6560015490565b60408051610100810182528281523360208083019182526000838501818152606085018e8152608086018e90526001600160a01b038d811660a088015260c087018d905260e087018c9052888452600385529690922085518155935160018501805492511515600160a01b0274ffffffffffffffffffffffffffffffffffffffffff199093169190971617179094559251805194955091939092610b10926002850192910190610f63565b506080820151600382015560a082015160048201805473ffffffffffffffffffffffffffffffffffffffff19166001600160a01b0390921691909117905560c0820151600582015560e09091015160069091015560018054810190557fb4256b2619156f4415f44067c4369ba4d2cc0e8cf84a3504f9810f7c2868f6e881338989898989604051610ba797969594939291906112ef565b60405180910390a16000818152600360209081526040918290208251610100810184528154815260018201546001600160a01b03811693820193909352600160a01b90920460ff16151592820192909252600282018054919291606084019190610c1090611253565b80601f0160208091040260200160405190810160405280929190818152602001828054610c3c90611253565b8015610c895780601f10610c5e57610100808354040283529160200191610c89565b820191906000526020600020905b815481529060010190602001808311610c6c57829003601f168201915b50505091835250506003820154602082015260048201546001600160a01b0316604082015260058201546060820152600690910154608090910152979650505050505050565b610cd7610db2565b6001600160a01b038116610d535760405162461bcd60e51b815260206004820152602660248201527f4f776e61626c653a206e6577206f776e657220697320746865207a65726f206160448201527f646472657373000000000000000000000000000000000000000000000000000060648201526084016104a2565b610d5c81610e64565b50565b60005460ff161561086c5760405162461bcd60e51b815260206004820152601060248201527f5061757361626c653a207061757365640000000000000000000000000000000060448201526064016104a2565b6000546001600160a01b0361010090910416331461086c5760405162461bcd60e51b815260206004820181905260248201527f4f776e61626c653a2063616c6c6572206973206e6f7420746865206f776e657260448201526064016104a2565b610e1a610f11565b6000805460ff191690557f5db9ee0a495bf2e6ff9c91a7834c1ba4fdd244a5e8aa4e537bd38aeae4b073aa335b6040516001600160a01b03909116815260200160405180910390a1565b600080546001600160a01b038381166101008181027fffffffffffffffffffffff0000000000000000000000000000000000000000ff851617855560405193049190911692909183917f8be0079c531659141344cd1fd0a4f28419497f9722a3daafe3b4186f6b6457e091a35050565b610edc610d5f565b6000805460ff191660011790557f62e78cea01bee320cd4e420270b5ea74000d11b0c9f74754ebdbfc544b05a258610e473390565b60005460ff1661086c5760405162461bcd60e51b815260206004820152601460248201527f5061757361626c653a206e6f742070617573656400000000000000000000000060448201526064016104a2565b828054610f6f90611253565b90600052602060002090601f016020900481019282610f915760008555610fd7565b82601f10610faa57805160ff1916838001178555610fd7565b82800160010185558215610fd7579182015b82811115610fd7578251825591602001919060010190610fbc565b50610fe3929150610fe7565b5090565b5b80821115610fe35760008155600101610fe8565b60006020828403121561100e57600080fd5b5035919050565b6000815180845260005b8181101561103b5760208185018101518683018201520161101f565b8181111561104d576000602083870101525b50601f01601f19169290920160200192915050565b60208152815160208201526001600160a01b036020830151166040820152604082015115156060820152600060608301516101008060808501526110aa610120850183611015565b9150608085015160a085015260a08501516110d060c08601826001600160a01b03169052565b5060c085015160e085015260e085015181850152508091505092915050565b6020815260006111026020830184611015565b9392505050565b634e487b7160e01b600052604160045260246000fd5b604051601f8201601f1916810167ffffffffffffffff8111828210171561114857611148611109565b604052919050565b6001600160a01b0381168114610d5c57600080fd5b803561117081611150565b919050565b600080600080600060a0868803121561118d57600080fd5b853567ffffffffffffffff808211156111a557600080fd5b818801915088601f8301126111b957600080fd5b81356020828211156111cd576111cd611109565b6111df601f8301601f1916820161111f565b92508183528a818386010111156111f557600080fd5b81818501828501376000818385010152829850808a013597505050505061121e60408701611165565b94979396509394606081013594506080013592915050565b60006020828403121561124857600080fd5b813561110281611150565b600181811c9082168061126757607f821691505b60208210810361128757634e487b7160e01b600052602260045260246000fd5b50919050565b60006060828403121561129f57600080fd5b6040516060810181811067ffffffffffffffff821117156112c2576112c2611109565b6040528251815260208301516112d781611150565b60208201526040928301519281019290925250919050565b87815260006001600160a01b03808916602084015260e0604084015261131860e0840189611015565b606084019790975294909416608082015260a081019290925260c09091015250939250505056fea264697066735822122043a47780a6d682ec18f02bd143e475fdd389f9315ecc516947f8288fa96d6e5064736f6c634300080e0033",
  "linkReferences": {},
  "deployedLinkReferences": {}
}