{
  "_format": "hh-sol-artifact-1",
  "contractName": "HypePool",
  "sourceName": "contracts/HypePool.sol",
  "abi": [
    {
      "inputs": [
        {
          "internalType": "address",
          "name": "escrowContractAddress",
          "type": "address"
        }
      ],
      "stateMutability": "nonpayable",
      "type": "constructor"
    },
    {
      "anonymous": false,
      "inputs": [
        {
          "indexed": true,
          "internalType": "address",
          "name": "previousOwner",
          "type": "address"
        },
        {
          "indexed": true,
          "internalType": "address",
          "name": "newOwner",
          "type": "address"
        }
      ],
      "name": "OwnershipTransferred",
      "type": "event"
    },
    {
      "anonymous": false,
      "inputs": [
        {
          "indexed": false,
          "internalType": "address",
          "name": "account",
          "type": "address"
        }
      ],
      "name": "Paused",
      "type": "event"
    },
    {
      "anonymous": false,
      "inputs": [
        {
          "indexed": false,
          "internalType": "uint256",
          "name": "poolId",
          "type": "uint256"
        },
        {
          "indexed": false,
          "internalType": "address",
          "name": "activator",
          "type": "address"
        }
      ],
      "name": "PoolActivated",
      "type": "event"
    },
    {
      "anonymous": false,
      "inputs": [
        {
          "indexed": false,
          "internalType": "uint256",
          "name": "poolId",
          "type": "uint256"
        },
        {
          "indexed": false,
          "internalType": "address",
          "name": "creator",
          "type": "address"
        },
        {
          "indexed": false,
          "internalType": "string",
          "name": "uri",
          "type": "string"
        }
      ],
      "name": "PoolCreated",
      "type": "event"
    },
    {
      "anonymous": false,
      "inputs": [
        {
          "indexed": false,
          "internalType": "uint256",
          "name": "poolId",
          "type": "uint256"
        },
        {
          "indexed": false,
          "internalType": "address",
          "name": "deactivator",
          "type": "address"
        }
      ],
      "name": "PoolDeactivated",
      "type": "event"
    },
    {
      "anonymous": false,
      "inputs": [
        {
          "indexed": false,
          "internalType": "uint256",
          "name": "poolId",
          "type": "uint256"
        },
        {
          "indexed": false,
          "internalType": "string",
          "name": "title",
          "type": "string"
        },
        {
          "indexed": false,
          "internalType": "string",
          "name": "projectName",
          "type": "string"
        },
        {
          "indexed": false,
          "internalType": "string",
          "name": "tokenName",
          "type": "string"
        },
        {
          "indexed": false,
          "internalType": "string",
          "name": "word",
          "type": "string"
        }
      ],
      "name": "PoolDetailsCreated",
      "type": "event"
    },
    {
      "anonymous": false,
      "inputs": [
        {
          "indexed": false,
          "internalType": "uint256",
          "name": "poolId",
          "type": "uint256"
        },
        {
          "indexed": false,
          "internalType": "uint256",
          "name": "network",
          "type": "uint256"
        },
        {
          "indexed": false,
          "internalType": "address",
          "name": "tokenAddress",
          "type": "address"
        },
        {
          "indexed": false,
          "internalType": "uint256",
          "name": "impressionReward",
          "type": "uint256"
        },
        {
          "indexed": false,
          "internalType": "uint256",
          "name": "cap",
          "type": "uint256"
        },
        {
          "indexed": false,
          "internalType": "uint256",
          "name": "endDate",
          "type": "uint256"
        }
      ],
      "name": "PoolRewardsCreated",
      "type": "event"
    },
    {
      "anonymous": false,
      "inputs": [
        {
          "indexed": false,
          "internalType": "uint256",
          "name": "poolId",
          "type": "uint256"
        },
        {
          "indexed": false,
          "internalType": "string",
          "name": "uri",
          "type": "string"
        }
      ],
      "name": "PoolUriSet",
      "type": "event"
    },
    {
      "anonymous": false,
      "inputs": [
        {
          "indexed": false,
          "internalType": "address",
          "name": "account",
          "type": "address"
        }
      ],
      "name": "Unpaused",
      "type": "event"
    },
    {
      "inputs": [
        {
          "internalType": "uint256",
          "name": "id",
          "type": "uint256"
        }
      ],
      "name": "activatePool",
      "outputs": [],
      "stateMutability": "nonpayable",
      "type": "function"
    },
    {
      "inputs": [
        {
          "internalType": "string",
          "name": "uri",
          "type": "string"
        },
        {
          "components": [
            {
              "internalType": "string",
              "name": "title",
              "type": "string"
            },
            {
              "internalType": "string",
              "name": "projectName",
              "type": "string"
            },
            {
              "internalType": "string",
              "name": "tokenName",
              "type": "string"
            },
            {
              "internalType": "string",
              "name": "word",
              "type": "string"
            }
          ],
          "internalType": "struct IHypePool.Details",
          "name": "details",
          "type": "tuple"
        },
        {
          "components": [
            {
              "internalType": "uint256",
              "name": "network",
              "type": "uint256"
            },
            {
              "internalType": "address",
              "name": "tokenAddress",
              "type": "address"
            },
            {
              "internalType": "uint256",
              "name": "impressionReward",
              "type": "uint256"
            },
            {
              "internalType": "uint256",
              "name": "cap",
              "type": "uint256"
            },
            {
              "internalType": "uint256",
              "name": "endDate",
              "type": "uint256"
            }
          ],
          "internalType": "struct IHypePool.Rewards",
          "name": "rewards",
          "type": "tuple"
        }
      ],
      "name": "createPool",
      "outputs": [
        {
          "components": [
            {
              "internalType": "uint256",
              "name": "id",
              "type": "uint256"
            },
            {
              "internalType": "address",
              "name": "creator",
              "type": "address"
            },
            {
              "internalType": "bool",
              "name": "active",
              "type": "bool"
            },
            {
              "components": [
                {
                  "internalType": "string",
                  "name": "title",
                  "type": "string"
                },
                {
                  "internalType": "string",
                  "name": "projectName",
                  "type": "string"
                },
                {
                  "internalType": "string",
                  "name": "tokenName",
                  "type": "string"
                },
                {
                  "internalType": "string",
                  "name": "word",
                  "type": "string"
                }
              ],
              "internalType": "struct IHypePool.Details",
              "name": "details",
              "type": "tuple"
            },
            {
              "components": [
                {
                  "internalType": "uint256",
                  "name": "network",
                  "type": "uint256"
                },
                {
                  "internalType": "address",
                  "name": "tokenAddress",
                  "type": "address"
                },
                {
                  "internalType": "uint256",
                  "name": "impressionReward",
                  "type": "uint256"
                },
                {
                  "internalType": "uint256",
                  "name": "cap",
                  "type": "uint256"
                },
                {
                  "internalType": "uint256",
                  "name": "endDate",
                  "type": "uint256"
                }
              ],
              "internalType": "struct IHypePool.Rewards",
              "name": "rewards",
              "type": "tuple"
            }
          ],
          "internalType": "struct IHypePool.HypePool",
          "name": "",
          "type": "tuple"
        }
      ],
      "stateMutability": "nonpayable",
      "type": "function"
    },
    {
      "inputs": [
        {
          "internalType": "uint256",
          "name": "id",
          "type": "uint256"
        }
      ],
      "name": "deactivatePool",
      "outputs": [],
      "stateMutability": "nonpayable",
      "type": "function"
    },
    {
      "inputs": [],
      "name": "getCurrentIndex",
      "outputs": [
        {
          "internalType": "uint256",
          "name": "",
          "type": "uint256"
        }
      ],
      "stateMutability": "view",
      "type": "function"
    },
    {
      "inputs": [
        {
          "internalType": "uint256",
          "name": "tokenId",
          "type": "uint256"
        }
      ],
      "name": "getPool",
      "outputs": [
        {
          "components": [
            {
              "internalType": "uint256",
              "name": "id",
              "type": "uint256"
            },
            {
              "internalType": "address",
              "name": "creator",
              "type": "address"
            },
            {
              "internalType": "bool",
              "name": "active",
              "type": "bool"
            },
            {
              "components": [
                {
                  "internalType": "string",
                  "name": "title",
                  "type": "string"
                },
                {
                  "internalType": "string",
                  "name": "projectName",
                  "type": "string"
                },
                {
                  "internalType": "string",
                  "name": "tokenName",
                  "type": "string"
                },
                {
                  "internalType": "string",
                  "name": "word",
                  "type": "string"
                }
              ],
              "internalType": "struct IHypePool.Details",
              "name": "details",
              "type": "tuple"
            },
            {
              "components": [
                {
                  "internalType": "uint256",
                  "name": "network",
                  "type": "uint256"
                },
                {
                  "internalType": "address",
                  "name": "tokenAddress",
                  "type": "address"
                },
                {
                  "internalType": "uint256",
                  "name": "impressionReward",
                  "type": "uint256"
                },
                {
                  "internalType": "uint256",
                  "name": "cap",
                  "type": "uint256"
                },
                {
                  "internalType": "uint256",
                  "name": "endDate",
                  "type": "uint256"
                }
              ],
              "internalType": "struct IHypePool.Rewards",
              "name": "rewards",
              "type": "tuple"
            }
          ],
          "internalType": "struct IHypePool.HypePool",
          "name": "",
          "type": "tuple"
        }
      ],
      "stateMutability": "view",
      "type": "function"
    },
    {
      "inputs": [],
      "name": "owner",
      "outputs": [
        {
          "internalType": "address",
          "name": "",
          "type": "address"
        }
      ],
      "stateMutability": "view",
      "type": "function"
    },
    {
      "inputs": [],
      "name": "pause",
      "outputs": [],
      "stateMutability": "nonpayable",
      "type": "function"
    },
    {
      "inputs": [],
      "name": "paused",
      "outputs": [
        {
          "internalType": "bool",
          "name": "",
          "type": "bool"
        }
      ],
      "stateMutability": "view",
      "type": "function"
    },
    {
      "inputs": [
        {
          "internalType": "uint256",
          "name": "tokenId",
          "type": "uint256"
        }
      ],
      "name": "poolURI",
      "outputs": [
        {
          "internalType": "string",
          "name": "",
          "type": "string"
        }
      ],
      "stateMutability": "view",
      "type": "function"
    },
    {
      "inputs": [],
      "name": "renounceOwnership",
      "outputs": [],
      "stateMutability": "nonpayable",
      "type": "function"
    },
    {
      "inputs": [
        {
          "internalType": "address",
          "name": "newOwner",
          "type": "address"
        }
      ],
      "name": "transferOwnership",
      "outputs": [],
      "stateMutability": "nonpayable",
      "type": "function"
    },
    {
      "inputs": [],
      "name": "unpause",
      "outputs": [],
      "stateMutability": "nonpayable",
      "type": "function"
    }
  ],
  "bytecode": "0x60806040523480156200001157600080fd5b5060405162002382380380620023828339810160408190526200003491620000c8565b6000805460ff1916905562000049336200006f565b600280546001600160a01b0319166001600160a01b0392909216919091179055620000fa565b600080546001600160a01b03838116610100818102610100600160a81b0319851617855560405193049190911692909183917f8be0079c531659141344cd1fd0a4f28419497f9722a3daafe3b4186f6b6457e091a35050565b600060208284031215620000db57600080fd5b81516001600160a01b0381168114620000f357600080fd5b9392505050565b612278806200010a6000396000f3fe608060405234801561001057600080fd5b50600436106100d45760003560e01c8063715018a6116100815780639abd9b051161005b5780639abd9b05146101a4578063f2fde38b146101b7578063fdc6d461146101ca57600080fd5b8063715018a61461016b5780638456cb59146101735780638da5cb5b1461017b57600080fd5b80631e2f4adc116100b25780631e2f4adc1461012d5780633f4ba83a1461014d5780635c975abb1461015557600080fd5b8063068bcd8d146100d957806308f747dd146101025780630d9005ae14610117575b600080fd5b6100ec6100e7366004611cf3565b6101dd565b6040516100f99190611d59565b60405180910390f35b610115610110366004611cf3565b6104dd565b005b61011f610bb5565b6040519081526020016100f9565b61014061013b366004611cf3565b610bc5565b6040516100f99190611e53565b610115610c67565b60005460ff1660405190151581526020016100f9565b610115610c79565b610115610c8b565b60005461010090046001600160a01b03166040516001600160a01b0390911681526020016100f9565b6101156101b2366004611cf3565b610c9b565b6101156101c5366004611e82565b6111d3565b6100ec6101d8366004611fe4565b611263565b6101e5611bbf565b600082815260036020908152604091829020825160a0810184528154815260018201546001600160a01b03811693820193909352600160a01b90920460ff16151582840152825160808101909352600281018054929391926060850192919082908290610251906120f5565b80601f016020809104026020016040519081016040528092919081815260200182805461027d906120f5565b80156102ca5780601f1061029f576101008083540402835291602001916102ca565b820191906000526020600020905b8154815290600101906020018083116102ad57829003601f168201915b505050505081526020016001820180546102e3906120f5565b80601f016020809104026020016040519081016040528092919081815260200182805461030f906120f5565b801561035c5780601f106103315761010080835404028352916020019161035c565b820191906000526020600020905b81548152906001019060200180831161033f57829003601f168201915b50505050508152602001600282018054610375906120f5565b80601f01602080910402602001604051908101604052809291908181526020018280546103a1906120f5565b80156103ee5780601f106103c3576101008083540402835291602001916103ee565b820191906000526020600020905b8154815290600101906020018083116103d157829003601f168201915b50505050508152602001600382018054610407906120f5565b80601f0160208091040260200160405190810160405280929190818152602001828054610433906120f5565b80156104805780601f1061045557610100808354040283529160200191610480565b820191906000526020600020905b81548152906001019060200180831161046357829003601f168201915b5050509190925250505081526040805160a0810182526006840154815260078401546001600160a01b031660208281019190915260088501549282019290925260098401546060820152600a909301546080840152015292915050565b6104e5611711565b6000818152600360209081526040808320815160a0810183528154815260018201546001600160a01b03811694820194909452600160a01b90930460ff16151583830152815160808101909252600281018054919260608501929091908290829061054f906120f5565b80601f016020809104026020016040519081016040528092919081815260200182805461057b906120f5565b80156105c85780601f1061059d576101008083540402835291602001916105c8565b820191906000526020600020905b8154815290600101906020018083116105ab57829003601f168201915b505050505081526020016001820180546105e1906120f5565b80601f016020809104026020016040519081016040528092919081815260200182805461060d906120f5565b801561065a5780601f1061062f5761010080835404028352916020019161065a565b820191906000526020600020905b81548152906001019060200180831161063d57829003601f168201915b50505050508152602001600282018054610673906120f5565b80601f016020809104026020016040519081016040528092919081815260200182805461069f906120f5565b80156106ec5780601f106106c1576101008083540402835291602001916106ec565b820191906000526020600020905b8154815290600101906020018083116106cf57829003601f168201915b50505050508152602001600382018054610705906120f5565b80601f0160208091040260200160405190810160405280929190818152602001828054610731906120f5565b801561077e5780601f106107535761010080835404028352916020019161077e565b820191906000526020600020905b81548152906001019060200180831161076157829003601f168201915b5050509190925250505081526040805160a0810182526006840154815260078401546001600160a01b031660208281019190915260088501548284015260098501546060830152600a9094015460808083019190915293909201919091529082015101519091506000036108395760405162461bcd60e51b815260206004820152601260248201527f506f6f6c20646f65736e2774206578697374000000000000000000000000000060448201526064015b60405180910390fd5b60408101511561088b5760405162461bcd60e51b815260206004820152601660248201527f506f6f6c20697320616c726561647920616374697665000000000000000000006044820152606401610830565b6002546040517fae22192e000000000000000000000000000000000000000000000000000000008152336004820152602481018490526001600160a01b0390911690600090829063ae22192e90604401606060405180830381865afa1580156108f8573d6000803e3d6000fd5b505050506040513d601f19601f8201168201806040525081019061091c919061212f565b60808401516060015181519192501461099d5760405162461bcd60e51b815260206004820152602860248201527f4465706f736974656420616d6f756e7420646f6573206e6f74206d617463682060448201527f706f6f6c206361700000000000000000000000000000000000000000000000006064820152608401610830565b8260800151602001516001600160a01b031681602001516001600160a01b031614610a305760405162461bcd60e51b815260206004820152603960248201527f4465706f736974656420746f6b656e206164647265737320646f6573206e6f7460448201527f206d6174636820706f6f6c20746f6b656e2061646472657373000000000000006064820152608401610830565b600160408085018281526000878152600360209081529290208651815582870151938101805492511515600160a01b0274ffffffffffffffffffffffffffffffffffffffffff199093166001600160a01b0390951694909417919091179092556060850151805180518794936002850192610ab19284929190910190611c5a565b506020828101518051610aca9260018501920190611c5a565b5060408201518051610ae6916002840191602090910190611c5a565b5060608201518051610b02916003840191602090910190611c5a565b5050506080918201518051600683015560208101516007830180546001600160a01b0390921673ffffffffffffffffffffffffffffffffffffffff19909216919091179055604080820151600884015560608201516009840155920151600a90910155517f4f7e91eea279f21fac65109d86b7d1dfceb5607c89313be67d8c2bf537f9ae0c90610ba790869033909182526001600160a01b0316602082015260400190565b60405180910390a150505050565b6000610bc060015490565b905090565b6000818152600460205260409020805460609190610be2906120f5565b80601f0160208091040260200160405190810160405280929190818152602001828054610c0e906120f5565b8015610c5b5780601f10610c3057610100808354040283529160200191610c5b565b820191906000526020600020905b815481529060010190602001808311610c3e57829003601f168201915b50505050509050919050565b610c6f611764565b610c776117c4565b565b610c81611764565b610c776000611816565b610c93611764565b610c77611886565b610ca3611711565b610cab611764565b6000818152600360209081526040808320815160a0810183528154815260018201546001600160a01b03811694820194909452600160a01b90930460ff161515838301528151608081019092526002810180549192606085019290919082908290610d15906120f5565b80601f0160208091040260200160405190810160405280929190818152602001828054610d41906120f5565b8015610d8e5780601f10610d6357610100808354040283529160200191610d8e565b820191906000526020600020905b815481529060010190602001808311610d7157829003601f168201915b50505050508152602001600182018054610da7906120f5565b80601f0160208091040260200160405190810160405280929190818152602001828054610dd3906120f5565b8015610e205780601f10610df557610100808354040283529160200191610e20565b820191906000526020600020905b815481529060010190602001808311610e0357829003601f168201915b50505050508152602001600282018054610e39906120f5565b80601f0160208091040260200160405190810160405280929190818152602001828054610e65906120f5565b8015610eb25780601f10610e8757610100808354040283529160200191610eb2565b820191906000526020600020905b815481529060010190602001808311610e9557829003601f168201915b50505050508152602001600382018054610ecb906120f5565b80601f0160208091040260200160405190810160405280929190818152602001828054610ef7906120f5565b8015610f445780601f10610f1957610100808354040283529160200191610f44565b820191906000526020600020905b815481529060010190602001808311610f2757829003601f168201915b5050509190925250505081526040805160a0810182526006840154815260078401546001600160a01b031660208281019190915260088501548284015260098501546060830152600a909401546080808301919091529390920191909152908201510151909150600003610ffa5760405162461bcd60e51b815260206004820152601260248201527f506f6f6c20646f65736e277420657869737400000000000000000000000000006044820152606401610830565b604081015115156001146110505760405162461bcd60e51b815260206004820152601860248201527f506f6f6c20697320616c726561647920696e61637469766500000000000000006044820152606401610830565b600060408083018281528483526003602090815291909220835181558184015160018201805494511515600160a01b0274ffffffffffffffffffffffffffffffffffffffffff199095166001600160a01b03909216919091179390931790925560608301518051805185949360028501926110d19284929190910190611c5a565b5060208281015180516110ea9260018501920190611c5a565b5060408201518051611106916002840191602090910190611c5a565b5060608201518051611122916003840191602090910190611c5a565b5050506080918201518051600683015560208101516007830180546001600160a01b0390921673ffffffffffffffffffffffffffffffffffffffff19909216919091179055604080820151600884015560608201516009840155920151600a90910155517f72e6fc67ca93cc3cedc1e023204888c2cab750fbb5526e1faf3445c0327ee0ef906111c790849033909182526001600160a01b0316602082015260400190565b60405180910390a15050565b6111db611764565b6001600160a01b0381166112575760405162461bcd60e51b815260206004820152602660248201527f4f776e61626c653a206e6577206f776e657220697320746865207a65726f206160448201527f64647265737300000000000000000000000000000000000000000000000000006064820152608401610830565b61126081611816565b50565b61126b611bbf565b611273611711565b60008451116112c45760405162461bcd60e51b815260206004820152601460248201527f4d697373696e67206d65746164617461205552490000000000000000000000006044820152606401610830565b60008260600151116113185760405162461bcd60e51b815260206004820152601060248201527f496e76616c696420706f6f6c20636170000000000000000000000000000000006044820152606401610830565b428260800151116113915760405162461bcd60e51b815260206004820152602960248201527f456e642064617465206d7573742062652061667465722063757272656e74206260448201527f6c6f636b2074696d6500000000000000000000000000000000000000000000006064820152608401610830565b60008260400151116113e55760405162461bcd60e51b815260206004820152601e60248201527f496e76616c696420696d7072657373696f6e20687970652072657761726400006044820152606401610830565b60006113f060015490565b90506113fe818686866118c3565b6114088186611a64565b611416600180546001019055565b600081815260036020908152604091829020825160a0810184528154815260018201546001600160a01b03811693820193909352600160a01b90920460ff16151582840152825160808101909352600281018054929391926060850192919082908290611482906120f5565b80601f01602080910402602001604051908101604052809291908181526020018280546114ae906120f5565b80156114fb5780601f106114d0576101008083540402835291602001916114fb565b820191906000526020600020905b8154815290600101906020018083116114de57829003601f168201915b50505050508152602001600182018054611514906120f5565b80601f0160208091040260200160405190810160405280929190818152602001828054611540906120f5565b801561158d5780601f106115625761010080835404028352916020019161158d565b820191906000526020600020905b81548152906001019060200180831161157057829003601f168201915b505050505081526020016002820180546115a6906120f5565b80601f01602080910402602001604051908101604052809291908181526020018280546115d2906120f5565b801561161f5780601f106115f45761010080835404028352916020019161161f565b820191906000526020600020905b81548152906001019060200180831161160257829003601f168201915b50505050508152602001600382018054611638906120f5565b80601f0160208091040260200160405190810160405280929190818152602001828054611664906120f5565b80156116b15780601f10611686576101008083540402835291602001916116b1565b820191906000526020600020905b81548152906001019060200180831161169457829003601f168201915b5050509190925250505081526040805160a0810182526006840154815260078401546001600160a01b031660208083019190915260088501549282019290925260098401546060820152600a909301546080840152015295945050505050565b60005460ff1615610c775760405162461bcd60e51b815260206004820152601060248201527f5061757361626c653a20706175736564000000000000000000000000000000006044820152606401610830565b6000546001600160a01b03610100909104163314610c775760405162461bcd60e51b815260206004820181905260248201527f4f776e61626c653a2063616c6c6572206973206e6f7420746865206f776e65726044820152606401610830565b6117cc611ab5565b6000805460ff191690557f5db9ee0a495bf2e6ff9c91a7834c1ba4fdd244a5e8aa4e537bd38aeae4b073aa335b6040516001600160a01b03909116815260200160405180910390a1565b600080546001600160a01b038381166101008181027fffffffffffffffffffffff0000000000000000000000000000000000000000ff851617855560405193049190911692909183917f8be0079c531659141344cd1fd0a4f28419497f9722a3daafe3b4186f6b6457e091a35050565b61188e611711565b6000805460ff191660011790557f62e78cea01bee320cd4e420270b5ea74000d11b0c9f74754ebdbfc544b05a2586117f93390565b6040805160a081018252858152336020808301918252600083850181815260608501888152608086018890528a8352600384529590912084518155925160018401805492511515600160a01b0274ffffffffffffffffffffffffffffffffffffffffff199093166001600160a01b039290921691909117919091179055925180518051939492939192600285019261195e9284920190611c5a565b5060208281015180516119779260018501920190611c5a565b5060408201518051611993916002840191602090910190611c5a565b50606082015180516119af916003840191602090910190611c5a565b50505060809182015180516006830155602081015160078301805473ffffffffffffffffffffffffffffffffffffffff19166001600160a01b03909216919091179055604080820151600884015560608201516009840155920151600a90910155517fb22862363d492c0c7b9bcbfe63bcfbc715494dafb3b41d198d4bfcefea8a7c0390611a4290869033908790612191565b60405180910390a1611a548483611b07565b611a5e8482611b4e565b50505050565b60008281526004602090815260409091208251611a8392840190611c5a565b507f514efc4dbca754e32bfeb5dcb0c2d277953187ffd3b3eae36f7f9b5202e6f8ff82826040516111c79291906121c2565b60005460ff16610c775760405162461bcd60e51b815260206004820152601460248201527f5061757361626c653a206e6f74207061757365640000000000000000000000006044820152606401610830565b7f6c22bc8b6f750ff89627f593fa727443337309735486d0abf55f95f848f736838282600001518360200151846040015185606001516040516111c79594939291906121e3565b805160208083015160408085015160608087015160808089015185518b8152978801989098526001600160a01b03909516938601939093528401529082015260a08101919091527f255f27475ab2e3e727ad3846e75212f8ffbe9000454633e5f5e17165d025d75d9060c0016111c7565b6040518060a001604052806000815260200160006001600160a01b03168152602001600015158152602001611c156040518060800160405280606081526020016060815260200160608152602001606081525090565b8152602001611c556040518060a001604052806000815260200160006001600160a01b031681526020016000815260200160008152602001600081525090565b905290565b828054611c66906120f5565b90600052602060002090601f016020900481019282611c885760008555611cce565b82601f10611ca157805160ff1916838001178555611cce565b82800160010185558215611cce579182015b82811115611cce578251825591602001919060010190611cb3565b50611cda929150611cde565b5090565b5b80821115611cda5760008155600101611cdf565b600060208284031215611d0557600080fd5b5035919050565b6000815180845260005b81811015611d3257602081850181015186830182015201611d16565b81811115611d44576000602083870101525b50601f01601f19169290920160200192915050565b60208152815160208201526001600160a01b03602083015116604082015260408201511515606082015260006060830151610120608084015280516080610140850152611daa6101c0850182611d0c565b9050602082015161013f198086840301610160870152611dca8383611d0c565b9250604084015191508086840301610180870152611de88383611d0c565b92506060840151935080868403016101a08701525050611e088183611d0c565b608095860151805160a087015260208101516001600160a01b031660c0870152604081015160e087015260608101516101008701529095015161012090940193909352509192915050565b602081526000611e666020830184611d0c565b9392505050565b6001600160a01b038116811461126057600080fd5b600060208284031215611e9457600080fd5b8135611e6681611e6d565b634e487b7160e01b600052604160045260246000fd5b6040516080810167ffffffffffffffff81118282101715611ed857611ed8611e9f565b60405290565b600082601f830112611eef57600080fd5b813567ffffffffffffffff80821115611f0a57611f0a611e9f565b604051601f8301601f19908116603f01168101908282118183101715611f3257611f32611e9f565b81604052838152866020858801011115611f4b57600080fd5b836020870160208301376000602085830101528094505050505092915050565b600060a08284031215611f7d57600080fd5b60405160a0810181811067ffffffffffffffff82111715611fa057611fa0611e9f565b604052823581529050806020830135611fb881611e6d565b806020830152506040830135604082015260608301356060820152608083013560808201525092915050565b600080600060e08486031215611ff957600080fd5b833567ffffffffffffffff8082111561201157600080fd5b61201d87838801611ede565b9450602086013591508082111561203357600080fd5b908501906080828803121561204757600080fd5b61204f611eb5565b82358281111561205e57600080fd5b61206a89828601611ede565b82525060208301358281111561207f57600080fd5b61208b89828601611ede565b6020830152506040830135828111156120a357600080fd5b6120af89828601611ede565b6040830152506060830135828111156120c757600080fd5b6120d389828601611ede565b6060830152508094505050506120ec8560408601611f6b565b90509250925092565b600181811c9082168061210957607f821691505b60208210810361212957634e487b7160e01b600052602260045260246000fd5b50919050565b60006060828403121561214157600080fd5b6040516060810181811067ffffffffffffffff8211171561216457612164611e9f565b60405282518152602083015161217981611e6d565b60208201526040928301519281019290925250919050565b8381526001600160a01b03831660208201526060604082015260006121b96060830184611d0c565b95945050505050565b8281526040602082015260006121db6040830184611d0c565b949350505050565b85815260a0602082015260006121fc60a0830187611d0c565b828103604084015261220e8187611d0c565b905082810360608401526122228186611d0c565b905082810360808401526122368185611d0c565b9897505050505050505056fea2646970667358221220f6b22f978d41ba53fed53f768623855c8f15ce7712bb98a894b06b8dc66dedcd64736f6c634300080e0033",
  "linkReferences": {},
  "deployedLinkReferences": {}
}